{
  "_format": "hh-sol-artifact-1",
  "contractName": "UniversalVerifier",
  "sourceName": "contracts/verifiers/UniversalVerifier.sol",
  "abi": [
    {
      "inputs": [],
      "stateMutability": "nonpayable",
      "type": "constructor"
    },
    {
      "inputs": [
        {
          "internalType": "uint256",
          "name": "length",
          "type": "uint256"
        }
      ],
      "name": "ChecksumLengthRequired",
      "type": "error"
    },
    {
      "inputs": [
        {
          "internalType": "uint256",
          "name": "length",
          "type": "uint256"
        }
      ],
      "name": "IdBytesLengthRequired",
      "type": "error"
    },
    {
      "inputs": [],
      "name": "InvalidInitialization",
      "type": "error"
    },
    {
      "inputs": [
        {
          "internalType": "address",
          "name": "requestOwner",
          "type": "address"
        },
        {
          "internalType": "address",
          "name": "sender",
          "type": "address"
        }
      ],
      "name": "InvalidRequestOwner",
      "type": "error"
    },
    {
      "inputs": [],
      "name": "MetadataNotSupportedYet",
      "type": "error"
    },
    {
      "inputs": [
        {
          "internalType": "uint256",
          "name": "multiRequestId",
          "type": "uint256"
        }
      ],
      "name": "MultiRequestIdAlreadyExists",
      "type": "error"
    },
    {
      "inputs": [
        {
          "internalType": "uint256",
          "name": "multiRequestId",
          "type": "uint256"
        }
      ],
      "name": "MultiRequestIdNotFound",
      "type": "error"
    },
    {
      "inputs": [
        {
          "internalType": "address",
          "name": "",
          "type": "address"
        }
      ],
      "name": "NotAnOwnerOrRequestOwner",
      "type": "error"
    },
    {
      "inputs": [],
      "name": "NotInitializing",
      "type": "error"
    },
    {
      "inputs": [
        {
          "internalType": "address",
          "name": "owner",
          "type": "address"
        }
      ],
      "name": "OwnableInvalidOwner",
      "type": "error"
    },
    {
      "inputs": [
        {
          "internalType": "address",
          "name": "account",
          "type": "address"
        }
      ],
      "name": "OwnableUnauthorizedAccount",
      "type": "error"
    },
    {
      "inputs": [
        {
          "internalType": "uint256",
          "name": "requestId",
          "type": "uint256"
        }
      ],
      "name": "RequestIdAlreadyExists",
      "type": "error"
    },
    {
      "inputs": [
        {
          "internalType": "uint256",
          "name": "requestId",
          "type": "uint256"
        }
      ],
      "name": "RequestIdNotFound",
      "type": "error"
    },
    {
      "inputs": [
        {
          "internalType": "uint256",
          "name": "requestId",
          "type": "uint256"
        }
      ],
      "name": "RequestIsDisabled",
      "type": "error"
    },
    {
      "inputs": [
        {
          "internalType": "address",
          "name": "validator",
          "type": "address"
        }
      ],
      "name": "ValidatorIsNotWhitelisted",
      "type": "error"
    },
    {
      "inputs": [
        {
          "internalType": "address",
          "name": "validator",
          "type": "address"
        }
      ],
      "name": "ValidatorNotSupportInterface",
      "type": "error"
    },
    {
      "anonymous": false,
      "inputs": [
        {
          "indexed": true,
          "internalType": "string",
          "name": "authMethod",
          "type": "string"
        },
        {
          "indexed": false,
          "internalType": "address",
          "name": "validator",
          "type": "address"
        },
        {
          "indexed": false,
          "internalType": "bytes",
          "name": "params",
          "type": "bytes"
        }
      ],
      "name": "AuthMethodSet",
      "type": "event"
    },
    {
      "anonymous": false,
      "inputs": [
        {
          "indexed": true,
          "internalType": "string",
          "name": "authMethod",
          "type": "string"
        },
        {
          "indexed": true,
          "internalType": "address",
          "name": "caller",
          "type": "address"
        }
      ],
      "name": "AuthResponseSubmitted",
      "type": "event"
    },
    {
      "anonymous": false,
      "inputs": [
        {
          "indexed": false,
          "internalType": "uint64",
          "name": "version",
          "type": "uint64"
        }
      ],
      "name": "Initialized",
      "type": "event"
    },
    {
      "anonymous": false,
      "inputs": [
        {
          "indexed": true,
          "internalType": "uint256",
          "name": "multiRequestId",
          "type": "uint256"
        },
        {
          "indexed": false,
          "internalType": "uint256[]",
          "name": "requestIds",
          "type": "uint256[]"
        },
        {
          "indexed": false,
          "internalType": "uint256[]",
          "name": "groupIds",
          "type": "uint256[]"
        }
      ],
      "name": "MultiRequestSet",
      "type": "event"
    },
    {
      "anonymous": false,
      "inputs": [
        {
          "indexed": true,
          "internalType": "address",
          "name": "previousOwner",
          "type": "address"
        },
        {
          "indexed": true,
          "internalType": "address",
          "name": "newOwner",
          "type": "address"
        }
      ],
      "name": "OwnershipTransferStarted",
      "type": "event"
    },
    {
      "anonymous": false,
      "inputs": [
        {
          "indexed": true,
          "internalType": "address",
          "name": "previousOwner",
          "type": "address"
        },
        {
          "indexed": true,
          "internalType": "address",
          "name": "newOwner",
          "type": "address"
        }
      ],
      "name": "OwnershipTransferred",
      "type": "event"
    },
    {
      "anonymous": false,
      "inputs": [
        {
          "indexed": true,
          "internalType": "uint256",
          "name": "requestId",
          "type": "uint256"
        },
        {
          "indexed": true,
          "internalType": "address",
          "name": "creator",
          "type": "address"
        },
        {
          "indexed": false,
          "internalType": "string",
          "name": "metadata",
          "type": "string"
        },
        {
          "indexed": false,
          "internalType": "address",
          "name": "validator",
          "type": "address"
        },
        {
          "indexed": false,
          "internalType": "bytes",
          "name": "params",
          "type": "bytes"
        }
      ],
      "name": "RequestSet",
      "type": "event"
    },
    {
      "anonymous": false,
      "inputs": [
        {
          "indexed": true,
          "internalType": "uint256",
          "name": "requestId",
          "type": "uint256"
        },
        {
          "indexed": true,
          "internalType": "address",
          "name": "creator",
          "type": "address"
        },
        {
          "indexed": false,
          "internalType": "string",
          "name": "metadata",
          "type": "string"
        },
        {
          "indexed": false,
          "internalType": "address",
          "name": "validator",
          "type": "address"
        },
        {
          "indexed": false,
          "internalType": "bytes",
          "name": "params",
          "type": "bytes"
        }
      ],
      "name": "RequestUpdate",
      "type": "event"
    },
    {
      "anonymous": false,
      "inputs": [
        {
          "indexed": true,
          "internalType": "uint256",
          "name": "requestId",
          "type": "uint256"
        },
        {
          "indexed": true,
          "internalType": "address",
          "name": "caller",
          "type": "address"
        }
      ],
      "name": "ResponseSubmitted",
      "type": "event"
    },
    {
      "inputs": [],
      "name": "VERSION",
      "outputs": [
        {
          "internalType": "string",
          "name": "",
          "type": "string"
        }
      ],
      "stateMutability": "view",
      "type": "function"
    },
    {
      "inputs": [],
      "name": "acceptOwnership",
      "outputs": [],
      "stateMutability": "nonpayable",
      "type": "function"
    },
    {
      "inputs": [
        {
          "internalType": "contract IRequestValidator",
          "name": "validator",
          "type": "address"
        }
      ],
      "name": "addValidatorToWhitelist",
      "outputs": [],
      "stateMutability": "nonpayable",
      "type": "function"
    },
    {
      "inputs": [
        {
          "internalType": "uint256",
          "name": "multiRequestId",
          "type": "uint256"
        },
        {
          "internalType": "address",
          "name": "userAddress",
          "type": "address"
        }
      ],
      "name": "areMultiRequestProofsVerified",
      "outputs": [
        {
          "internalType": "bool",
          "name": "",
          "type": "bool"
        }
      ],
      "stateMutability": "view",
      "type": "function"
    },
    {
      "inputs": [
        {
          "internalType": "string",
          "name": "authMethod",
          "type": "string"
        }
      ],
      "name": "authMethodExists",
      "outputs": [
        {
          "internalType": "bool",
          "name": "",
          "type": "bool"
        }
      ],
      "stateMutability": "view",
      "type": "function"
    },
    {
      "inputs": [
        {
          "internalType": "string",
          "name": "authMethod",
          "type": "string"
        }
      ],
      "name": "disableAuthMethod",
      "outputs": [],
      "stateMutability": "nonpayable",
      "type": "function"
    },
    {
      "inputs": [
        {
          "internalType": "uint256",
          "name": "requestId",
          "type": "uint256"
        }
      ],
      "name": "disableRequest",
      "outputs": [],
      "stateMutability": "nonpayable",
      "type": "function"
    },
    {
      "inputs": [
        {
          "internalType": "string",
          "name": "authMethod",
          "type": "string"
        }
      ],
      "name": "enableAuthMethod",
      "outputs": [],
      "stateMutability": "nonpayable",
      "type": "function"
    },
    {
      "inputs": [
        {
          "internalType": "uint256",
          "name": "requestId",
          "type": "uint256"
        }
      ],
      "name": "enableRequest",
      "outputs": [],
      "stateMutability": "nonpayable",
      "type": "function"
    },
    {
      "inputs": [
        {
          "internalType": "string",
          "name": "authMethod",
          "type": "string"
        }
      ],
      "name": "getAuthMethod",
      "outputs": [
        {
          "components": [
            {
              "internalType": "contract IAuthValidator",
              "name": "validator",
              "type": "address"
            },
            {
              "internalType": "bytes",
              "name": "params",
              "type": "bytes"
            },
            {
              "internalType": "bool",
              "name": "isActive",
              "type": "bool"
            }
          ],
          "internalType": "struct Verifier.AuthMethodData",
          "name": "authMethodData",
          "type": "tuple"
        }
      ],
      "stateMutability": "view",
      "type": "function"
    },
    {
      "inputs": [
        {
          "internalType": "uint256",
          "name": "groupID",
          "type": "uint256"
        }
      ],
      "name": "getGroupedRequests",
      "outputs": [
        {
          "components": [
            {
              "internalType": "uint256",
              "name": "requestId",
              "type": "uint256"
            },
            {
              "internalType": "string",
              "name": "metadata",
              "type": "string"
            },
            {
              "internalType": "contract IRequestValidator",
              "name": "validator",
              "type": "address"
            },
            {
              "internalType": "bytes",
              "name": "params",
              "type": "bytes"
            },
            {
              "internalType": "address",
              "name": "creator",
              "type": "address"
            }
          ],
          "internalType": "struct IVerifier.RequestInfo[]",
          "name": "",
          "type": "tuple[]"
        }
      ],
      "stateMutability": "view",
      "type": "function"
    },
    {
      "inputs": [],
      "name": "getGroupsCount",
      "outputs": [
        {
          "internalType": "uint256",
          "name": "",
          "type": "uint256"
        }
      ],
      "stateMutability": "view",
      "type": "function"
    },
    {
      "inputs": [
        {
          "internalType": "uint256",
          "name": "multiRequestId",
          "type": "uint256"
        }
      ],
      "name": "getMultiRequest",
      "outputs": [
        {
          "components": [
            {
              "internalType": "uint256",
              "name": "multiRequestId",
              "type": "uint256"
            },
            {
              "internalType": "uint256[]",
              "name": "requestIds",
              "type": "uint256[]"
            },
            {
              "internalType": "uint256[]",
              "name": "groupIds",
              "type": "uint256[]"
            },
            {
              "internalType": "bytes",
              "name": "metadata",
              "type": "bytes"
            }
          ],
          "internalType": "struct IVerifier.MultiRequest",
          "name": "multiRequest",
          "type": "tuple"
        }
      ],
      "stateMutability": "view",
      "type": "function"
    },
    {
      "inputs": [
        {
          "internalType": "uint256",
          "name": "multiRequestId",
          "type": "uint256"
        },
        {
          "internalType": "address",
          "name": "userAddress",
          "type": "address"
        }
      ],
      "name": "getMultiRequestProofsStatus",
      "outputs": [
        {
          "components": [
            {
              "internalType": "uint256",
              "name": "requestId",
              "type": "uint256"
            },
            {
              "internalType": "bool",
              "name": "isVerified",
              "type": "bool"
            },
            {
              "internalType": "string",
              "name": "validatorVersion",
              "type": "string"
            },
            {
              "internalType": "uint256",
              "name": "timestamp",
              "type": "uint256"
            }
          ],
          "internalType": "struct IVerifier.RequestProofStatus[]",
          "name": "",
          "type": "tuple[]"
        }
      ],
      "stateMutability": "view",
      "type": "function"
    },
    {
      "inputs": [
        {
          "internalType": "uint256",
          "name": "requestId",
          "type": "uint256"
        }
      ],
      "name": "getRequest",
      "outputs": [
        {
          "components": [
            {
              "internalType": "uint256",
              "name": "requestId",
              "type": "uint256"
            },
            {
              "internalType": "string",
              "name": "metadata",
              "type": "string"
            },
            {
              "internalType": "contract IRequestValidator",
              "name": "validator",
              "type": "address"
            },
            {
              "internalType": "bytes",
              "name": "params",
              "type": "bytes"
            },
            {
              "internalType": "address",
              "name": "creator",
              "type": "address"
            }
          ],
          "internalType": "struct IVerifier.RequestInfo",
          "name": "request",
          "type": "tuple"
        }
      ],
      "stateMutability": "view",
      "type": "function"
    },
    {
      "inputs": [
        {
          "internalType": "uint256",
          "name": "requestId",
          "type": "uint256"
        }
      ],
      "name": "getRequestOwner",
      "outputs": [
        {
          "internalType": "address",
          "name": "",
          "type": "address"
        }
      ],
      "stateMutability": "view",
      "type": "function"
    },
    {
      "inputs": [
        {
          "internalType": "address",
          "name": "sender",
          "type": "address"
        },
        {
          "internalType": "uint256",
          "name": "requestId",
          "type": "uint256"
        }
      ],
      "name": "getRequestProofStatus",
      "outputs": [
        {
          "components": [
            {
              "internalType": "uint256",
              "name": "requestId",
              "type": "uint256"
            },
            {
              "internalType": "bool",
              "name": "isVerified",
              "type": "bool"
            },
            {
              "internalType": "string",
              "name": "validatorVersion",
              "type": "string"
            },
            {
              "internalType": "uint256",
              "name": "timestamp",
              "type": "uint256"
            }
          ],
          "internalType": "struct IVerifier.RequestProofStatus",
          "name": "",
          "type": "tuple"
        }
      ],
      "stateMutability": "view",
      "type": "function"
    },
    {
      "inputs": [],
      "name": "getRequestsCount",
      "outputs": [
        {
          "internalType": "uint256",
          "name": "",
          "type": "uint256"
        }
      ],
      "stateMutability": "view",
      "type": "function"
    },
    {
      "inputs": [
        {
          "internalType": "uint256",
          "name": "requestId",
          "type": "uint256"
        },
        {
          "internalType": "address",
          "name": "sender",
          "type": "address"
        },
        {
          "internalType": "string",
          "name": "responseFieldName",
          "type": "string"
        }
      ],
      "name": "getResponseFieldValue",
      "outputs": [
        {
          "internalType": "uint256",
          "name": "",
          "type": "uint256"
        }
      ],
      "stateMutability": "view",
      "type": "function"
    },
    {
      "inputs": [
        {
          "internalType": "uint256",
          "name": "requestId",
          "type": "uint256"
        },
        {
          "internalType": "address",
          "name": "sender",
          "type": "address"
        }
      ],
      "name": "getResponseFields",
      "outputs": [
        {
          "components": [
            {
              "internalType": "string",
              "name": "name",
              "type": "string"
            },
            {
              "internalType": "uint256",
              "name": "value",
              "type": "uint256"
            },
            {
              "internalType": "bytes",
              "name": "rawValue",
              "type": "bytes"
            }
          ],
          "internalType": "struct IRequestValidator.ResponseField[]",
          "name": "",
          "type": "tuple[]"
        }
      ],
      "stateMutability": "view",
      "type": "function"
    },
    {
      "inputs": [],
      "name": "getStateAddress",
      "outputs": [
        {
          "internalType": "address",
          "name": "",
          "type": "address"
        }
      ],
      "stateMutability": "view",
      "type": "function"
    },
    {
      "inputs": [],
      "name": "getVerifierID",
      "outputs": [
        {
          "internalType": "uint256",
          "name": "",
          "type": "uint256"
        }
      ],
      "stateMutability": "view",
      "type": "function"
    },
    {
      "inputs": [
        {
          "internalType": "uint256",
          "name": "groupId",
          "type": "uint256"
        }
      ],
      "name": "groupIdExists",
      "outputs": [
        {
          "internalType": "bool",
          "name": "",
          "type": "bool"
        }
      ],
      "stateMutability": "view",
      "type": "function"
    },
    {
      "inputs": [
        {
          "internalType": "contract IState",
          "name": "state",
          "type": "address"
        },
        {
          "internalType": "address",
          "name": "owner",
          "type": "address"
        }
      ],
      "name": "initialize",
      "outputs": [],
      "stateMutability": "nonpayable",
      "type": "function"
    },
    {
      "inputs": [
        {
          "internalType": "uint256",
          "name": "requestId",
          "type": "uint256"
        }
      ],
      "name": "isRequestEnabled",
      "outputs": [
        {
          "internalType": "bool",
          "name": "",
          "type": "bool"
        }
      ],
      "stateMutability": "view",
      "type": "function"
    },
    {
      "inputs": [
        {
          "internalType": "address",
          "name": "sender",
          "type": "address"
        },
        {
          "internalType": "uint256",
          "name": "requestId",
          "type": "uint256"
        }
      ],
      "name": "isRequestProofVerified",
      "outputs": [
        {
          "internalType": "bool",
          "name": "",
          "type": "bool"
        }
      ],
      "stateMutability": "view",
      "type": "function"
    },
    {
      "inputs": [
        {
          "internalType": "contract IRequestValidator",
          "name": "validator",
          "type": "address"
        }
      ],
      "name": "isWhitelistedValidator",
      "outputs": [
        {
          "internalType": "bool",
          "name": "",
          "type": "bool"
        }
      ],
      "stateMutability": "view",
      "type": "function"
    },
    {
      "inputs": [
        {
          "internalType": "uint256",
          "name": "multiRequestId",
          "type": "uint256"
        }
      ],
      "name": "multiRequestIdExists",
      "outputs": [
        {
          "internalType": "bool",
          "name": "",
          "type": "bool"
        }
      ],
      "stateMutability": "view",
      "type": "function"
    },
    {
      "inputs": [],
      "name": "owner",
      "outputs": [
        {
          "internalType": "address",
          "name": "",
          "type": "address"
        }
      ],
      "stateMutability": "view",
      "type": "function"
    },
    {
      "inputs": [],
      "name": "pendingOwner",
      "outputs": [
        {
          "internalType": "address",
          "name": "",
          "type": "address"
        }
      ],
      "stateMutability": "view",
      "type": "function"
    },
    {
      "inputs": [
        {
          "internalType": "contract IRequestValidator",
          "name": "validator",
          "type": "address"
        }
      ],
      "name": "removeValidatorFromWhitelist",
      "outputs": [],
      "stateMutability": "nonpayable",
      "type": "function"
    },
    {
      "inputs": [],
      "name": "renounceOwnership",
      "outputs": [],
      "stateMutability": "nonpayable",
      "type": "function"
    },
    {
      "inputs": [
        {
          "internalType": "uint256",
          "name": "requestId",
          "type": "uint256"
        }
      ],
      "name": "requestIdExists",
      "outputs": [
        {
          "internalType": "bool",
          "name": "",
          "type": "bool"
        }
      ],
      "stateMutability": "view",
      "type": "function"
    },
    {
      "inputs": [
        {
          "components": [
            {
              "internalType": "string",
              "name": "authMethod",
              "type": "string"
            },
            {
              "internalType": "contract IAuthValidator",
              "name": "validator",
              "type": "address"
            },
            {
              "internalType": "bytes",
              "name": "params",
              "type": "bytes"
            }
          ],
          "internalType": "struct IVerifier.AuthMethod",
          "name": "authMethod",
          "type": "tuple"
        }
      ],
      "name": "setAuthMethod",
      "outputs": [],
      "stateMutability": "nonpayable",
      "type": "function"
    },
    {
      "inputs": [
        {
          "components": [
            {
              "internalType": "uint256",
              "name": "multiRequestId",
              "type": "uint256"
            },
            {
              "internalType": "uint256[]",
              "name": "requestIds",
              "type": "uint256[]"
            },
            {
              "internalType": "uint256[]",
              "name": "groupIds",
              "type": "uint256[]"
            },
            {
              "internalType": "bytes",
              "name": "metadata",
              "type": "bytes"
            }
          ],
          "internalType": "struct IVerifier.MultiRequest",
          "name": "multiRequest",
          "type": "tuple"
        }
      ],
      "name": "setMultiRequest",
      "outputs": [],
      "stateMutability": "nonpayable",
      "type": "function"
    },
    {
      "inputs": [
        {
          "internalType": "uint256",
          "name": "requestId",
          "type": "uint256"
        },
        {
          "internalType": "address",
          "name": "requestOwner",
          "type": "address"
        }
      ],
      "name": "setRequestOwner",
      "outputs": [],
      "stateMutability": "nonpayable",
      "type": "function"
    },
    {
      "inputs": [
        {
          "components": [
            {
              "internalType": "uint256",
              "name": "requestId",
              "type": "uint256"
            },
            {
              "internalType": "string",
              "name": "metadata",
              "type": "string"
            },
            {
              "internalType": "contract IRequestValidator",
              "name": "validator",
              "type": "address"
            },
            {
              "internalType": "bytes",
              "name": "params",
              "type": "bytes"
            },
            {
              "internalType": "address",
              "name": "creator",
              "type": "address"
            }
          ],
          "internalType": "struct IVerifier.Request[]",
          "name": "requests",
          "type": "tuple[]"
        }
      ],
      "name": "setRequests",
      "outputs": [],
      "stateMutability": "nonpayable",
      "type": "function"
    },
    {
      "inputs": [
        {
          "internalType": "contract IState",
          "name": "state",
          "type": "address"
        }
      ],
      "name": "setState",
      "outputs": [],
      "stateMutability": "nonpayable",
      "type": "function"
    },
    {
      "inputs": [
        {
          "internalType": "uint256",
          "name": "verifierID",
          "type": "uint256"
        }
      ],
      "name": "setVerifierID",
      "outputs": [],
      "stateMutability": "nonpayable",
      "type": "function"
    },
    {
      "inputs": [
        {
          "components": [
            {
              "internalType": "string",
              "name": "authMethod",
              "type": "string"
            },
            {
              "internalType": "bytes",
              "name": "proof",
              "type": "bytes"
            }
          ],
          "internalType": "struct IVerifier.AuthResponse",
          "name": "authResponse",
          "type": "tuple"
        },
        {
          "components": [
            {
              "internalType": "uint256",
              "name": "requestId",
              "type": "uint256"
            },
            {
              "internalType": "bytes",
              "name": "proof",
              "type": "bytes"
            },
            {
              "internalType": "bytes",
              "name": "metadata",
              "type": "bytes"
            }
          ],
          "internalType": "struct IVerifier.Response[]",
          "name": "responses",
          "type": "tuple[]"
        },
        {
          "internalType": "bytes",
          "name": "crossChainProofs",
          "type": "bytes"
        }
      ],
      "name": "submitResponse",
      "outputs": [],
      "stateMutability": "nonpayable",
      "type": "function"
    },
    {
      "inputs": [
        {
          "internalType": "address",
          "name": "newOwner",
          "type": "address"
        }
      ],
      "name": "transferOwnership",
      "outputs": [],
      "stateMutability": "nonpayable",
      "type": "function"
    },
    {
      "inputs": [
        {
          "components": [
            {
              "internalType": "uint256",
              "name": "requestId",
              "type": "uint256"
            },
            {
              "internalType": "string",
              "name": "metadata",
              "type": "string"
            },
            {
              "internalType": "contract IRequestValidator",
              "name": "validator",
              "type": "address"
            },
            {
              "internalType": "bytes",
              "name": "params",
              "type": "bytes"
            },
            {
              "internalType": "address",
              "name": "creator",
              "type": "address"
            }
          ],
          "internalType": "struct IVerifier.Request",
          "name": "request",
          "type": "tuple"
        }
      ],
      "name": "updateRequest",
      "outputs": [],
      "stateMutability": "nonpayable",
      "type": "function"
    },
    {
      "inputs": [],
      "name": "version",
      "outputs": [
        {
          "internalType": "string",
          "name": "",
          "type": "string"
        }
      ],
      "stateMutability": "pure",
      "type": "function"
    }
  ],
  "bytecode": "0x6080604052348015600f57600080fd5b506016601a565b60ca565b7ff0c57e16840df040f15088dc2f81fe391c3923bec73e23a9662efc9c229c6a00805468010000000000000000900460ff161560695760405163f92ee8a960e01b815260040160405180910390fd5b80546001600160401b039081161460c75780546001600160401b0319166001600160401b0390811782556040519081527fc7f505b2f371ae2175ee4913f4499e1f2633a7b5936321eed1cdaeb6115181d29060200160405180910390a15b50565b6141a7806100d96000396000f3fe608060405234801561001057600080fd5b50600436106102295760003560e01c80638611cb6711610131578063c58343ef116100b3578063c58343ef146104be578063cea0607f146104de578063d4d9f766146104f1578063e1470f9a14610504578063e30c397814610517578063e85556031461051f578063f1fd996414610532578063f2e27c6814610552578063f2fde38b14610572578063fd8a8d7d14610585578063ffa1ad741461059857600080fd5b80638611cb67146104015780638da5cb5b146104145780639b36d0361461041c578063a03666441461042f578063ad9d21e714610442578063b208eae814610462578063b33a998f1461046a578063b84afbb41461047d578063bbd8b7a114610485578063bfcbcc3114610498578063c087b0d4146104ab57600080fd5b806354fd4d50116101ba57806354fd4d501461031557806359f871a11461033f578063617879fe14610352578063715018a614610365578063751adcd21461036d57806379ba50971461038d5780637ad8dc61146103955780637b8f6d37146103a85780637bc499e5146103bb5780637c7a9a5c146103ce578063829b3ae1146103e157600080fd5b806306c86a911461022e5780630f12a241146102435780631cf5cf241461026b57806330837e061461027e57806331969e571461029e5780633410452a146102b357806334c901af146102c95780634288c7ae146102dc57806347861fe2146102ef578063485cc95514610302575b600080fd5b61024161023c366004612b74565b6105bc565b005b610256610251366004612c65565b610672565b60405190151581526020015b60405180910390f35b610241610279366004612c7e565b6106c6565b61029161028c366004612c65565b6106dc565b6040516102629190612da9565b6102a6610772565b6040516102629190612e0e565b6102bb61078e565b604051908152602001610262565b6102416102d7366004612e37565b6107a1565b6102566102ea366004612c65565b6107b5565b6102416102fd366004612c65565b610841565b610241610310366004612e54565b6108b4565b6040805180820190915260058152640322e312e360dc1b60208201525b6040516102629190612e8d565b61024161034d366004612e37565b6109cc565b610241610360366004612e37565b6109dd565b6102416109ee565b61038061037b366004612c7e565b610a02565b6040516102629190612ea0565b610241610abf565b6102416103a3366004612ee6565b610afb565b6102566103b6366004612c65565b610b6a565b6102416103c9366004612f0b565b610b8e565b6102416103dc366004612c7e565b610c1f565b6103f46103ef366004612ee6565b610c31565b6040516102629190612f45565b6102a661040f366004612c65565b610cba565b6102a6610d25565b61025661042a366004612e37565b610d5a565b61024161043d366004612fcf565b610d86565b610455610450366004613009565b610e19565b6040516102629190613074565b6102bb610f17565b610241610478366004612c65565b610f2a565b6102bb610f98565b610256610493366004613087565b610fab565b6102bb6104a63660046130bb565b610fed565b6102416104b9366004612c65565b61107c565b6104d16104cc366004612c65565b61108d565b60405161026291906130fd565b6102566104ec366004612c65565b61115f565b6102566104ff366004612ee6565b611183565b610241610512366004613110565b611208565b6102a6611294565b61025661052d366004613009565b61129f565b610545610540366004612ee6565b611300565b604051610262919061314a565b610565610560366004612c65565b611389565b60405161026291906131df565b610241610580366004612e37565b611442565b610241610593366004613240565b6114b3565b610332604051806040016040528060058152602001640322e312e360dc1b81525081565b6105c7838383611777565b825160405133916105d7916132a5565b604051908190038120907f16eed29a4411d6f696189e32f94cb87b6e2817e1aa0b9821f6d53191cfb5de7790600090a360005b825181101561066c57336001600160a01b031683828151811061062f5761062f6132c1565b6020908102919091010151516040517fd34a91eddebc3a46f0193e4f54124f90bd00de34c64b5407562def103949d00690600090a360010161060a565b50505050565b600081600161068082610b6a565b6106a557604051633f88e60160e21b8152600481018390526024015b60405180910390fd5b6106ad6118fb565b6000948552602052505060409091205460ff1615919050565b6106ce61191f565b6106d88282611951565b5050565b606073__$869f49b84e27953e40b9102dbb6d2c5983$__636b365dd36107006119bf565b846040518363ffffffff1660e01b8152600401610727929190918252602082015260400190565b600060405180830381865af4158015610744573d6000803e3d6000fd5b505050506040513d6000823e601f3d908101601f1916820160405261076c91908101906133c1565b92915050565b600061077c6119bf565b600301546001600160a01b0316919050565b60006107986119bf565b60020154919050565b6107a961191f565b6107b2816119e3565b50565b600073__$869f49b84e27953e40b9102dbb6d2c5983$__635747df3d6107d96119bf565b846040518363ffffffff1660e01b8152600401610800929190918252602082015260400190565b602060405180830381865af415801561081d573d6000803e3d6000fd5b505050506040513d601f19601f8201168201806040525081019061076c919061348b565b803361084c82610cba565b6001600160a01b0316816001600160a01b0316141580156108865750610870610d25565b6001600160a01b0316816001600160a01b031614155b156108a6578060405163527cade160e11b815260040161069c9190612e0e565b6108af83611a10565b505050565b7ff0c57e16840df040f15088dc2f81fe391c3923bec73e23a9662efc9c229c6a008054600160401b810460ff1615906001600160401b03166000811580156108f95750825b90506000826001600160401b031660011480156109155750303b155b905081158015610923575080155b156109415760405163f92ee8a960e01b815260040160405180910390fd5b845467ffffffffffffffff19166001178555831561096b57845460ff60401b1916600160401b1785555b61097486611a67565b61097d87611a78565b83156109c357845460ff60401b19168555604051600181527fc7f505b2f371ae2175ee4913f4499e1f2633a7b5936321eed1cdaeb6115181d29060200160405180910390a15b50505050505050565b6109d461191f565b6107b281611a89565b6109e561191f565b6107b281611b4e565b6109f661191f565b610a006000611b58565b565b610a31604051806060016040528060006001600160a01b03168152602001606081526020016000151581525090565b73__$869f49b84e27953e40b9102dbb6d2c5983$__63c2fba8e0610a536119bf565b85856040518463ffffffff1660e01b8152600401610a73939291906134cf565b600060405180830381865af4158015610a90573d6000803e3d6000fd5b505050506040513d6000823e601f3d908101601f19168201604052610ab891908101906134e9565b9392505050565b3380610ac9611294565b6001600160a01b031614610af2578060405163118cdaa760e01b815260040161069c9190612e0e565b6107b281611b58565b8133610b0682610cba565b6001600160a01b0316816001600160a01b031614158015610b405750610b2a610d25565b6001600160a01b0316816001600160a01b031614155b15610b60578060405163527cade160e11b815260040161069c9190612e0e565b61066c8484611b7b565b600073__$869f49b84e27953e40b9102dbb6d2c5983$__6304ade6d76107d96119bf565b80356000610b9b8261115f565b15610bbc5760405163ac1e4c7760e01b81526004810183905260240161069c565b610bc583611bfa565b82357f3f79cffed6655f27556642061782f30ad1196bf040a8de80eee5d526da9d0bc5610bf5602086018661357c565b610c02604088018861357c565b604051610c1294939291906135fe565b60405180910390a2505050565b610c2761191f565b6106d88282611c6f565b606073__$869f49b84e27953e40b9102dbb6d2c5983$__63fd3ef47f610c556119bf565b85856040518463ffffffff1660e01b8152600401610c7593929190613630565b600060405180830381865af4158015610c92573d6000803e3d6000fd5b505050506040513d6000823e601f3d908101601f19168201604052610ab8919081019061364f565b6000816001610cc882610b6a565b610ce857604051633f88e60160e21b81526004810183905260240161069c565b50505060009081527f6209bdc3799f5201408f7a7d4d471bb2a0100353e618451674b93f730b006a0060205260409020546001600160a01b031690565b6000807f9016d09d72d40fdae2fd8ceac6b6234c7706214fd39c1cd1e609a0528c1993005b546001600160a01b031692915050565b6000610d64611c91565b6001600160a01b03909216600090815260209290925250604090205460ff1690565b610d8e61191f565b610d9781611cb5565b610da760a0820160808301612e37565b6001600160a01b031681357f2f517356721b15606e3bdde8939a6e814c9becc2fcef57d1c631893360c85736610de0602085018561376b565b610df06060870160408801612e37565b610dfd606088018861376b565b604051610e0e9594939291906137b1565b60405180910390a350565b610e4660405180608001604052806000815260200160001515815260200160608152602001600081525090565b816001610e5282610b6a565b610e7257604051633f88e60160e21b81526004810183905260240161069c565b73__$869f49b84e27953e40b9102dbb6d2c5983$__63bd4f4f5c610e946119bf565b6040516001600160e01b031960e084901b16815260048101919091526001600160a01b038816602482015260448101879052606401600060405180830381865af4158015610ee6573d6000803e3d6000fd5b505050506040513d6000823e601f3d908101601f19168201604052610f0e9190810190613861565b95945050505050565b6000610f216119bf565b600b0154905090565b8033610f3582610cba565b6001600160a01b0316816001600160a01b031614158015610f6f5750610f59610d25565b6001600160a01b0316816001600160a01b031614155b15610f8f578060405163527cade160e11b815260040161069c9190612e0e565b6108af83611e33565b6000610fa26119bf565b60050154919050565b600073__$869f49b84e27953e40b9102dbb6d2c5983$__636d86f1fc610fcf6119bf565b846040518363ffffffff1660e01b8152600401610800929190613895565b600073__$869f49b84e27953e40b9102dbb6d2c5983$__63cd9800df6110116119bf565b8686866040518563ffffffff1660e01b815260040161103394939291906138ae565b602060405180830381865af4158015611050573d6000803e3d6000fd5b505050506040513d601f19601f8201168201806040525081019061107491906138e5565b949350505050565b61108461191f565b6107b281611e69565b6110d16040518060a00160405280600081526020016060815260200160006001600160a01b031681526020016060815260200160006001600160a01b031681525090565b73__$869f49b84e27953e40b9102dbb6d2c5983$__633397a11e6110f36119bf565b846040518363ffffffff1660e01b815260040161111a929190918252602082015260400190565b600060405180830381865af4158015611137573d6000803e3d6000fd5b505050506040513d6000823e601f3d908101601f1916820160405261076c91908101906138fe565b600073__$869f49b84e27953e40b9102dbb6d2c5983$__6333961c086107d96119bf565b600073__$869f49b84e27953e40b9102dbb6d2c5983$__63b39ceffb6111a76119bf565b85856040518463ffffffff1660e01b81526004016111c793929190613630565b602060405180830381865af41580156111e4573d6000803e3d6000fd5b505050506040513d601f19601f82011682018060405250810190610ab8919061348b565b61121061191f565b61121981611e7d565b611223818061376b565b604051611231929190613932565b60405180910390207ff9782ba766756e9c6ca90d64bfd1978844530aae1eab911d4630ffc1720e15e282602001602081019061126d9190612e37565b61127a604085018561376b565b60405161128993929190613942565b60405180910390a250565b600080610d4a611ebd565b60008160016112ad82610b6a565b6112cd57604051633f88e60160e21b81526004810183905260240161069c565b6112d56119bf565b6000948552602090815260408086206001600160a01b03979097168652959052505050205460ff1690565b606073__$869f49b84e27953e40b9102dbb6d2c5983$__6339048d336113246119bf565b85856040518463ffffffff1660e01b815260040161134493929190613630565b600060405180830381865af4158015611361573d6000803e3d6000fd5b505050506040513d6000823e601f3d908101601f19168201604052610ab89190810190613967565b6113b46040518060800160405280600081526020016060815260200160608152602001606081525090565b73__$869f49b84e27953e40b9102dbb6d2c5983$__63152dd00b6113d66119bf565b846040518363ffffffff1660e01b81526004016113fd929190918252602082015260400190565b600060405180830381865af415801561141a573d6000803e3d6000fd5b505050506040513d6000823e601f3d908101601f1916820160405261076c9190810190613a6f565b61144a61191f565b6000611454611ebd565b80546001600160a01b0319166001600160a01b038416908117825590915061147a610d25565b6001600160a01b03167f38d16b8cac22d99fc7c124b9cd0de2d3fa1faef420bfe791d8c362d765e2270060405160405180910390a35050565b60006114bd6119bf565b604051631879dc0f60e11b815290915073__$869f49b84e27953e40b9102dbb6d2c5983$__906330f3b81e906114fb90849087908790600401613c16565b60006040518083038186803b15801561151357600080fd5b505af4158015611527573d6000803e3d6000fd5b5050505060005b8281101561066c5773__$869f49b84e27953e40b9102dbb6d2c5983$__6307568de3858584818110611562576115626132c1565b90506020028101906115749190613c95565b35868685818110611587576115876132c1565b90506020028101906115999190613c95565b6115a790606081019061376b565b8888878181106115b9576115b96132c1565b90506020028101906115cb9190613c95565b6115dc9060a0810190608001612e37565b6040518563ffffffff1660e01b81526004016115fb9493929190613cab565b60006040518083038186803b15801561161357600080fd5b505af4158015611627573d6000803e3d6000fd5b5050505073__$869f49b84e27953e40b9102dbb6d2c5983$__630507338e83868685818110611658576116586132c1565b905060200281019061166a9190613c95565b6040518363ffffffff1660e01b8152600401611687929190613cde565b60006040518083038186803b15801561169f57600080fd5b505af41580156116b3573d6000803e3d6000fd5b5050505073__$869f49b84e27953e40b9102dbb6d2c5983$__6311bdf5cd838686858181106116e4576116e46132c1565b90506020028101906116f69190613c95565b6040518363ffffffff1660e01b8152600401611713929190613cde565b60006040518083038186803b15801561172b57600080fd5b505af415801561173f573d6000803e3d6000fd5b5050505061176f848483818110611758576117586132c1565b905060200281019061176a9190613c95565b611ee1565b60010161152e565b60006117816119bf565b90506000336003830154604051630e28d24b60e41b81529192506001600160a01b03169063e28d24b0906117b9908690600401612e8d565b600060405180830381600087803b1580156117d357600080fd5b505af11580156117e7573d6000803e3d6000fd5b5050505060005b84518110156118f357600085828151811061180b5761180b6132c1565b6020026020010151905060006118248260000151611f33565b600181015460208401516040808601519051636cfcf5cd60e11b81529394506000936001600160a01b039093169263d9f9eb9a9261186c928a92600289019190600401613d2b565b6000604051808303816000875af115801561188b573d6000803e3d6000fd5b505050506040513d6000823e601f3d908101601f191682016040526118b3919081019061364f565b90506118c483600001518683611f3e565b604083015151156118e8576040516306575bbf60e21b815260040160405180910390fd5b5050506001016117ee565b505050505050565b7f70325635d67d74932012fa921ccb2f335d3b1d69e3a487f50d001cc65f53160090565b33611928610d25565b6001600160a01b031614610a00573360405163118cdaa760e01b815260040161069c9190612e0e565b73__$869f49b84e27953e40b9102dbb6d2c5983$__636ae9427c6119736119bf565b84846040518463ffffffff1660e01b8152600401611993939291906134cf565b60006040518083038186803b1580156119ab57600080fd5b505af41580156118f3573d6000803e3d6000fd5b7f11369addde4aae8af30dcf56fa25ad3d864848d3201d1e9197f8b4da18a51a0090565b806119ec6119bf565b60030180546001600160a01b0319166001600160a01b039290921691909117905550565b806001611a1c82610b6a565b611a3c57604051633f88e60160e21b81526004810183905260240161069c565b6000611a466118fb565b60009485526020526040909320805460ff1916931515939093179092555050565b611a6f611fb8565b6107b281612001565b611a80611fb8565b6107b281612033565b6040516301ffc9a760e01b815263d125cf2d60e01b60048201526001600160a01b038216906301ffc9a790602401602060405180830381865afa158015611ad4573d6000803e3d6000fd5b505050506040513d601f19601f82011682018060405250810190611af8919061348b565b611b17578060405163019d170160e01b815260040161069c9190612e0e565b6001611b21611c91565b6001600160a01b039290921660009081526020929092526040909120805460ff1916911515919091179055565b6000611b21611c91565b6000611b62611ebd565b80546001600160a01b031916815590506106d882612060565b816001611b8782610b6a565b611ba757604051633f88e60160e21b81526004810183905260240161069c565b60007f6209bdc3799f5201408f7a7d4d471bb2a0100353e618451674b93f730b006a0060009586526020525050604090922080546001600160a01b0319166001600160a01b039290921691909117905550565b73__$869f49b84e27953e40b9102dbb6d2c5983$__6368957bf2611c1c6119bf565b83336040518463ffffffff1660e01b8152600401611c3c93929190613e2e565b60006040518083038186803b158015611c5457600080fd5b505af4158015611c68573d6000803e3d6000fd5b5050505050565b73__$869f49b84e27953e40b9102dbb6d2c5983$__63c6b876bc6119736119bf565b7f76aa24e3538905838cc74060b2aa4c054b1e474aacf44741879e1850715e930090565b80356001611cc282610b6a565b611ce257604051633f88e60160e21b81526004810183905260240161069c565b6000611cec6119bf565b90506040518060800160405280858060200190611d09919061376b565b8080601f016020809104026020016040519081016040528093929190818152602001838380828437600092019190915250505090825250602001611d536060870160408801612e37565b6001600160a01b03168152602001611d6e606087018761376b565b8080601f01602080910402602001604051908101604052809392919081815260200183838082843760009201829052509385525050336020938401525086358152600184019091526040902081518190611dc89082613f18565b5060208201516001820180546001600160a01b0319166001600160a01b0390921691909117905560408201516002820190611e039082613f18565b5060609190910151600390910180546001600160a01b0319166001600160a01b0390921691909117905550505050565b806001611e3f82610b6a565b611e5f57604051633f88e60160e21b81526004810183905260240161069c565b6001611a466118fb565b6000611e736119bf565b600b019190915550565b73__$869f49b84e27953e40b9102dbb6d2c5983$__6393058e98611e9f6119bf565b836040518363ffffffff1660e01b8152600401611c3c929190613fd6565b7f237e158222e3e6968b72b9db0d8043aacf074ad9f650f0d1606b4d82ee432c0090565b611eea816120d1565b611efa60a0820160808301612e37565b6001600160a01b031681357f6c42013d79e93b13536220e027462dfb104def77ecb0a75ffbe92e853fc7cf09610de0602085018561376b565b600061076c82612116565b611f48838361215f565b73__$869f49b84e27953e40b9102dbb6d2c5983$__63516b2eb6611f6a6119bf565b8585856040518563ffffffff1660e01b8152600401611f8c9493929190614044565b60006040518083038186803b158015611fa457600080fd5b505af41580156109c3573d6000803e3d6000fd5b7ff0c57e16840df040f15088dc2f81fe391c3923bec73e23a9662efc9c229c6a0054600160401b900460ff16610a0057604051631afcd79f60e31b815260040160405180910390fd5b612009611fb8565b6001600160a01b038116610af2576000604051631e4fbdf760e01b815260040161069c9190612e0e565b61203b611fb8565b612044816119e3565b60006120556101a160f01b306121a1565b90506106d881611e69565b7f9016d09d72d40fdae2fd8ceac6b6234c7706214fd39c1cd1e609a0528c19930080546001600160a01b031981166001600160a01b03848116918217845560405192169182907f8be0079c531659141344cd1fd0a4f28419497f9722a3daafe3b4186f6b6457e090600090a3505050565b60006120e36060830160408401612e37565b90506120ee81610d5a565b61210d578060405163652e158d60e01b815260040161069c9190612e0e565b6106d8826121bf565b60006121218261108d565b6040015161212e81610d5a565b61214d578060405163652e158d60e01b815260040161069c9190612e0e565b612156836121d3565b91505b50919050565b73__$869f49b84e27953e40b9102dbb6d2c5983$__633e08b6f36121816119bf565b84846040518463ffffffff1660e01b815260040161199393929190613630565b60006001600160a01b038216611074846121ba83612208565b61234a565b6121c881612452565b6107b2813533611b7b565b6000816121df81610672565b6121ff57604051637e12bee760e11b81526004810182905260240161069c565b612156836125f5565b60008190506008817eff00ff00ff00ff00ff00ff00ff00ff00ff00ff00ff00ff00ff00ff00ff00ff16901b6008827fff00ff00ff00ff00ff00ff00ff00ff00ff00ff00ff00ff00ff00ff00ff00ff0016901c1790506010817dffff0000ffff0000ffff0000ffff0000ffff0000ffff0000ffff0000ffff16901b6010827fffff0000ffff0000ffff0000ffff0000ffff0000ffff0000ffff0000ffff000016901c1790506020817bffffffff00000000ffffffff00000000ffffffff00000000ffffffff16901b6020827bffffffff00000000ffffffff00000000ffffffff00000000ffffffff1916901c17905060408177ffffffffffffffff0000000000000000ffffffffffffffff16901b60408277ffffffffffffffff0000000000000000ffffffffffffffff1916901c179050608081901b608082901c179050919050565b60008061235e61235984612208565b612642565b9050600061237b82601b8451612374919061410d565b601b61266c565b6040516001600160f01b0319871660208201529091506000906123b09060220160405160208183030381529060405283612679565b905060006123d46123c083612685565b600881811b62ffff001691901c60ff161790565b6040805160f083901b6001600160f01b0319166020820152815160028183030181526022909101909152909150600061240d8483612679565b90508051601f14612434576040516333b0459b60e01b8152601f600482015260240161069c565b612445612440826126e6565b612208565b9998505050505050505050565b8035600061245f82610b6a565b15612480576040516385636b5760e01b81526004810183905260240161069c565b612489836126f1565b60006124936119bf565b905060405180608001604052808580602001906124b0919061376b565b8080601f0160208091040260200160405190810160405280939291908181526020018383808284376000920191909152505050908252506020016124fa6060870160408801612e37565b6001600160a01b03168152602001612515606087018761376b565b8080601f0160208091040260200160405190810160405280939291908181526020018383808284376000920182905250938552505033602093840152508635815260018401909152604090208151819061256f9082613f18565b5060208201516001820180546001600160a01b0319166001600160a01b03909216919091179055604082015160028201906125aa9082613f18565b5060609190910151600390910180546001600160a01b0319166001600160a01b0390921691909117905560020180546001810182556000918252602090912093359301929092555050565b600081600161260382610b6a565b61262357604051633f88e60160e21b81526004810183905260240161069c565b61262b6119bf565b600094855260010160205250506040909120919050565b60408051602080825281830190925260609160208201818036833750505060208101929092525090565b606061107484848461271a565b6060610ab88383612827565b60008151601d146126ac576040516303c4ee2b60e01b8152601d600482015260240161069c565b60005b8251811015612159578281815181106126ca576126ca6132c1565b01602001516126dc9060f81c83614120565b91506001016126af565b600061076c8261413a565b6126f9610d25565b6001600160a01b0316336001600160a01b0316146107b2576107b2816128a4565b60608161272881601f61415e565b10156127675760405162461bcd60e51b815260206004820152600e60248201526d736c6963655f6f766572666c6f7760901b604482015260640161069c565b612771828461415e565b845110156127b55760405162461bcd60e51b8152602060048201526011602482015270736c6963655f6f75744f66426f756e647360781b604482015260640161069c565b6060821580156127d4576040519150600082526020820160405261281e565b6040519150601f8416801560200281840101858101878315602002848b0101015b8183101561280d5780518352602092830192016127f5565b5050858452601f01601f1916604052505b50949350505050565b6060806040519050835180825260208201818101602087015b81831015612858578051835260209283019201612840565b50855184518101855292509050808201602086015b8183101561288557805183526020928301920161286d565b508651929092011591909101601f01601f191660405250905092915050565b336128b560a0830160808401612e37565b6001600160a01b0316146107b2576128d360a0820160808301612e37565b604051630cde043160e41b81526001600160a01b0391909116600482015233602482015260440161069c565b634e487b7160e01b600052604160045260246000fd5b604051606081016001600160401b0381118282101715612937576129376128ff565b60405290565b604080519081016001600160401b0381118282101715612937576129376128ff565b60405160a081016001600160401b0381118282101715612937576129376128ff565b604051608081016001600160401b0381118282101715612937576129376128ff565b604051601f8201601f191681016001600160401b03811182821017156129cb576129cb6128ff565b604052919050565b60006001600160401b038211156129ec576129ec6128ff565b50601f01601f191660200190565b600082601f830112612a0b57600080fd5b8135602083016000612a24612a1f846129d3565b6129a3565b9050828152858383011115612a3857600080fd5b82826020830137600092810160200192909252509392505050565b60006001600160401b03821115612a6c57612a6c6128ff565b5060051b60200190565b600082601f830112612a8757600080fd5b8135612a95612a1f82612a53565b8082825260208201915060208360051b860101925085831115612ab757600080fd5b602085015b83811015612b6a5780356001600160401b03811115612ada57600080fd5b86016060818903601f19011215612af057600080fd5b612af8612915565b6020820135815260408201356001600160401b03811115612b1857600080fd5b612b278a6020838601016129fa565b60208301525060608201356001600160401b03811115612b4657600080fd5b612b558a6020838601016129fa565b60408301525084525060209283019201612abc565b5095945050505050565b600080600060608486031215612b8957600080fd5b83356001600160401b03811115612b9f57600080fd5b840160408187031215612bb157600080fd5b612bb961293d565b81356001600160401b03811115612bcf57600080fd5b612bdb888285016129fa565b82525060208201356001600160401b03811115612bf757600080fd5b612c03888285016129fa565b602083015250809450505060208401356001600160401b03811115612c2757600080fd5b612c3386828701612a76565b92505060408401356001600160401b03811115612c4f57600080fd5b612c5b868287016129fa565b9150509250925092565b600060208284031215612c7757600080fd5b5035919050565b60008060208385031215612c9157600080fd5b82356001600160401b03811115612ca757600080fd5b8301601f81018513612cb857600080fd5b80356001600160401b03811115612cce57600080fd5b856020828401011115612ce057600080fd5b6020919091019590945092505050565b60005b83811015612d0b578181015183820152602001612cf3565b50506000910152565b60008151808452612d2c816020860160208601612cf0565b601f01601f19169290920160200192915050565b805182526000602082015160a06020850152612d5f60a0850182612d14565b905060018060a01b03604084015116604085015260608301518482036060860152612d8a8282612d14565b6080948501516001600160a01b03169590940194909452509092915050565b6000602082016020835280845180835260408501915060408160051b86010192506020860160005b82811015612e0257603f19878603018452612ded858351612d40565b94506020938401939190910190600101612dd1565b50929695505050505050565b6001600160a01b0391909116815260200190565b6001600160a01b03811681146107b257600080fd5b600060208284031215612e4957600080fd5b8135610ab881612e22565b60008060408385031215612e6757600080fd5b8235612e7281612e22565b91506020830135612e8281612e22565b809150509250929050565b602081526000610ab86020830184612d14565b602080825282516001600160a01b03168282015282015160606040830152600090612ece6080840182612d14565b90506040840151151560608401528091505092915050565b60008060408385031215612ef957600080fd5b823591506020830135612e8281612e22565b600060208284031215612f1d57600080fd5b81356001600160401b03811115612f3357600080fd5b820160808185031215610ab857600080fd5b6000602082016020835280845180835260408501915060408160051b86010192506020860160005b82811015612e0257603f198786030184528151805160608752612f936060880182612d14565b905060208201516020880152604082015191508681036040880152612fb88183612d14565b965050506020938401939190910190600101612f6d565b600060208284031215612fe157600080fd5b81356001600160401b03811115612ff757600080fd5b820160a08185031215610ab857600080fd5b6000806040838503121561301c57600080fd5b823561302781612e22565b946020939093013593505050565b8051825260208101511515602083015260006040820151608060408501526130606080850182612d14565b606093840151949093019390935250919050565b602081526000610ab86020830184613035565b60006020828403121561309957600080fd5b81356001600160401b038111156130af57600080fd5b611074848285016129fa565b6000806000606084860312156130d057600080fd5b8335925060208401356130e281612e22565b915060408401356001600160401b03811115612c4f57600080fd5b602081526000610ab86020830184612d40565b60006020828403121561312257600080fd5b81356001600160401b0381111561313857600080fd5b820160608185031215610ab857600080fd5b6000602082016020835280845180835260408501915060408160051b86010192506020860160005b82811015612e0257603f1987860301845261318e858351613035565b94506020938401939190910190600101613172565b600081518084526020840193506020830160005b828110156131d55781518652602095860195909101906001016131b7565b5093949350505050565b6020815281516020820152600060208301516080604084015261320560a08401826131a3565b90506040840151601f1984830301606085015261322282826131a3565b9150506060840151601f19848303016080850152610f0e8282612d14565b6000806020838503121561325357600080fd5b82356001600160401b0381111561326957600080fd5b8301601f8101851361327a57600080fd5b80356001600160401b0381111561329057600080fd5b8560208260051b8401011115612ce057600080fd5b600082516132b7818460208701612cf0565b9190910192915050565b634e487b7160e01b600052603260045260246000fd5b600082601f8301126132e857600080fd5b81516020830160006132fc612a1f846129d3565b905082815285838301111561331057600080fd5b610f0e836020830184612cf0565b600060a0828403121561333057600080fd5b61333861295f565b8251815260208301519091506001600160401b0381111561335857600080fd5b613364848285016132d7565b602083015250604082015161337881612e22565b604082015260608201516001600160401b0381111561339657600080fd5b6133a2848285016132d7565b60608301525060808201516133b681612e22565b608082015292915050565b6000602082840312156133d357600080fd5b81516001600160401b038111156133e957600080fd5b8201601f810184136133fa57600080fd5b8051613408612a1f82612a53565b8082825260208201915060208360051b85010192508683111561342a57600080fd5b602084015b8381101561346b5780516001600160401b0381111561344d57600080fd5b61345c8960208389010161331e565b8452506020928301920161342f565b509695505050505050565b8051801515811461348657600080fd5b919050565b60006020828403121561349d57600080fd5b610ab882613476565b81835281816020850137506000828201602090810191909152601f909101601f19169091010190565b838152604060208201526000610f0e6040830184866134a6565b6000602082840312156134fb57600080fd5b81516001600160401b0381111561351157600080fd5b82016060818503121561352357600080fd5b61352b612915565b815161353681612e22565b815260208201516001600160401b0381111561355157600080fd5b61355d868285016132d7565b60208301525061356f60408301613476565b6040820152949350505050565b6000808335601e1984360301811261359357600080fd5b8301803591506001600160401b038211156135ad57600080fd5b6020019150600581901b36038213156135c557600080fd5b9250929050565b81835260006001600160fb1b038311156135e557600080fd5b8260051b80836020870137939093016020019392505050565b6040815260006136126040830186886135cc565b82810360208401526136258185876135cc565b979650505050505050565b92835260208301919091526001600160a01b0316604082015260600190565b60006020828403121561366157600080fd5b81516001600160401b0381111561367757600080fd5b8201601f8101841361368857600080fd5b8051613696612a1f82612a53565b8082825260208201915060208360051b8501019250868311156136b857600080fd5b602084015b8381101561346b5780516001600160401b038111156136db57600080fd5b85016060818a03601f190112156136f157600080fd5b6136f9612915565b60208201516001600160401b0381111561371257600080fd5b6137218b6020838601016132d7565b8252506040820151602082015260608201516001600160401b0381111561374757600080fd5b6137568b6020838601016132d7565b604083015250845250602092830192016136bd565b6000808335601e1984360301811261378257600080fd5b8301803591506001600160401b0382111561379c57600080fd5b6020019150368190038213156135c557600080fd5b6060815260006137c56060830187896134a6565b6001600160a01b038616602084015282810360408401526137e78185876134a6565b98975050505050505050565b60006080828403121561380557600080fd5b61380d612981565b82518152905061381f60208301613476565b602082015260408201516001600160401b0381111561383d57600080fd5b613849848285016132d7565b60408301525060609182015191810191909152919050565b60006020828403121561387357600080fd5b81516001600160401b0381111561388957600080fd5b611074848285016137f3565b8281526040602082015260006110746040830184612d14565b84815283602082015260018060a01b03831660408201526080606082015260006138db6080830184612d14565b9695505050505050565b6000602082840312156138f757600080fd5b5051919050565b60006020828403121561391057600080fd5b81516001600160401b0381111561392657600080fd5b6110748482850161331e565b8183823760009101908152919050565b6001600160a01b0384168152604060208201819052600090610f0e90830184866134a6565b60006020828403121561397957600080fd5b81516001600160401b0381111561398f57600080fd5b8201601f810184136139a057600080fd5b80516139ae612a1f82612a53565b8082825260208201915060208360051b8501019250868311156139d057600080fd5b602084015b8381101561346b5780516001600160401b038111156139f357600080fd5b613a02896020838901016137f3565b845250602092830192016139d5565b600082601f830112613a2257600080fd5b8151613a30612a1f82612a53565b8082825260208201915060208360051b860101925085831115613a5257600080fd5b602085015b83811015612b6a578051835260209283019201613a57565b600060208284031215613a8157600080fd5b81516001600160401b03811115613a9757600080fd5b820160808185031215613aa957600080fd5b613ab1612981565b8151815260208201516001600160401b03811115613ace57600080fd5b613ada86828501613a11565b60208301525060408201516001600160401b03811115613af957600080fd5b613b0586828501613a11565b60408301525060608201516001600160401b03811115613b2457600080fd5b613b30868285016132d7565b606083015250949350505050565b6000808335601e19843603018112613b5557600080fd5b83016020810192503590506001600160401b03811115613b7457600080fd5b8036038213156135c557600080fd5b803582526000613b966020830183613b3e565b60a06020860152613bab60a0860182846134a6565b9150506040830135613bbc81612e22565b6001600160a01b03166040850152613bd76060840184613b3e565b8583036060870152613bea8382846134a6565b925050506080830135613bfc81612e22565b6001600160a01b0316608094909401939093525090919050565b838152604060208201819052810182905260006060600584901b830181019083018583609e1936839003015b87821015613c8757868503605f190184528235818112613c6157600080fd5b613c6d868b8301613b83565b955050602083019250602084019350600182019150613c42565b509298975050505050505050565b60008235609e198336030181126132b757600080fd5b848152606060208201526000613cc56060830185876134a6565b905060018060a01b038316604083015295945050505050565b8281526040602082015260006110746040830184613b83565b600181811c90821680613d0b57607f821691505b60208210810361215957634e487b7160e01b600052602260045260246000fd5b6001600160a01b0385168152608060208201819052600090613d4f90830186612d14565b828103604084015260008554613d6481613cf7565b808452600182168015613d7e5760018114613d9a57613dd1565b60ff1983166020860152602082151560051b8601019350613dd1565b88600052602060002060005b83811015613dc857815460208289010152600182019150602081019050613da6565b86016020019450505b50505083810360608501526137e78186612d14565b6000808335601e19843603018112613dfd57600080fd5b83016020810192503590506001600160401b03811115613e1c57600080fd5b8060051b36038213156135c557600080fd5b838152606060208201526000808435905080606084015250613e536020850185613de6565b608080850152613e6760e0850182846135cc565b915050613e776040860186613de6565b848303605f190160a0860152613e8e8382846135cc565b92505050613e9f6060860186613b3e565b848303605f190160c0860152613eb68382846134a6565b935050505060018060a01b0383166040830152949350505050565b601f8211156108af57806000526020600020601f840160051c81016020851015613ef85750805b601f840160051c820191505b81811015611c685760008155600101613f04565b81516001600160401b03811115613f3157613f316128ff565b613f4581613f3f8454613cf7565b84613ed1565b6020601f821160018114613f795760008315613f615750848201515b600019600385901b1c1916600184901b178455611c68565b600084815260208120601f198516915b82811015613fa95787850151825560209485019460019092019101613f89565b5084821015613fc75786840151600019600387901b60f8161c191681555b50505050600190811b01905550565b828152604060208201526000613fec8384613b3e565b6060604085015261400160a0850182846134a6565b915050602084013561401281612e22565b6001600160a01b0316606084015261402d6040850185613b3e565b848303603f190160808601526136258382846134a6565b60006080820186835285602084015260018060a01b03851660408401526080606084015280845180835260a08501915060a08160051b86010192506020860160005b828110156140e857609f1987860301845281518051606087526140ac6060880182612d14565b9050602082015160208801526040820151915086810360408801526140d18183612d14565b965050506020938401939190910190600101614086565b50929998505050505050505050565b634e487b7160e01b600052601160045260246000fd5b8181038181111561076c5761076c6140f7565b61ffff818116838216019081111561076c5761076c6140f7565b805160208083015191908110156121595760001960209190910360031b1b16919050565b8082018082111561076c5761076c6140f756fea264697066735822122000414b725f6e706d0673a210b7f9c83d4f959e4848903f7b2e55edea8d820c8864736f6c634300081b0033",
  "linkReferences": {
    "contracts/lib/VerifierLib.sol": {
      "VerifierLib": [
        {
          "length": 20,
          "start": 1977
        },
        {
          "length": 20,
          "start": 2194
        },
        {
          "length": 20,
          "start": 2828
        },
        {
          "length": 20,
          "start": 3143
        },
        {
          "length": 20,
          "start": 3342
        },
        {
          "length": 20,
          "start": 3917
        },
        {
          "length": 20,
          "start": 4232
        },
        {
          "length": 20,
          "start": 4298
        },
        {
          "length": 20,
          "start": 4524
        },
        {
          "length": 20,
          "start": 4668
        },
        {
          "length": 20,
          "start": 4704
        },
        {
          "length": 20,
          "start": 5085
        },
        {
          "length": 20,
          "start": 5263
        },
        {
          "length": 20,
          "start": 5544
        },
        {
          "length": 20,
          "start": 5649
        },
        {
          "length": 20,
          "start": 5894
        },
        {
          "length": 20,
          "start": 6034
        },
        {
          "length": 20,
          "start": 6700
        },
        {
          "length": 20,
          "start": 7381
        },
        {
          "length": 20,
          "start": 7498
        },
        {
          "length": 20,
          "start": 8024
        },
        {
          "length": 20,
          "start": 8227
        },
        {
          "length": 20,
          "start": 8762
        }
      ]
    }
  },
  "deployedLinkReferences": {
    "contracts/lib/VerifierLib.sol": {
      "VerifierLib": [
        {
          "length": 20,
          "start": 1760
        },
        {
          "length": 20,
          "start": 1977
        },
        {
          "length": 20,
          "start": 2611
        },
        {
          "length": 20,
          "start": 2926
        },
        {
          "length": 20,
          "start": 3125
        },
        {
          "length": 20,
          "start": 3700
        },
        {
          "length": 20,
          "start": 4015
        },
        {
          "length": 20,
          "start": 4081
        },
        {
          "length": 20,
          "start": 4307
        },
        {
          "length": 20,
          "start": 4451
        },
        {
          "length": 20,
          "start": 4487
        },
        {
          "length": 20,
          "start": 4868
        },
        {
          "length": 20,
          "start": 5046
        },
        {
          "length": 20,
          "start": 5327
        },
        {
          "length": 20,
          "start": 5432
        },
        {
          "length": 20,
          "start": 5677
        },
        {
          "length": 20,
          "start": 5817
        },
        {
          "length": 20,
          "start": 6483
        },
        {
          "length": 20,
          "start": 7164
        },
        {
          "length": 20,
          "start": 7281
        },
        {
          "length": 20,
          "start": 7807
        },
        {
          "length": 20,
          "start": 8010
        },
        {
          "length": 20,
          "start": 8545
        }
      ]
    }
  }
}