{
  "_format": "hh-sol-artifact-1",
  "contractName": "MCPayment",
  "sourceName": "contracts/payment/MCPayment.sol",
  "abi": [
    {
      "inputs": [],
      "stateMutability": "nonpayable",
      "type": "constructor"
    },
    {
      "inputs": [],
      "name": "ECDSAInvalidSignatureLength",
      "type": "error"
    },
    {
      "inputs": [],
      "name": "InsufficientAllowanceOnPermit",
      "type": "error"
    },
    {
      "inputs": [],
      "name": "InvalidInitialization",
      "type": "error"
    },
    {
      "inputs": [],
      "name": "InvalidOwnerPercentage",
      "type": "error"
    },
    {
      "inputs": [],
      "name": "InvalidSignature",
      "type": "error"
    },
    {
      "inputs": [],
      "name": "NotInitializing",
      "type": "error"
    },
    {
      "inputs": [
        {
          "internalType": "address",
          "name": "owner",
          "type": "address"
        }
      ],
      "name": "OwnableInvalidOwner",
      "type": "error"
    },
    {
      "inputs": [
        {
          "internalType": "address",
          "name": "account",
          "type": "address"
        }
      ],
      "name": "OwnableUnauthorizedAccount",
      "type": "error"
    },
    {
      "inputs": [
        {
          "internalType": "address",
          "name": "recipient",
          "type": "address"
        },
        {
          "internalType": "uint256",
          "name": "nonce",
          "type": "uint256"
        },
        {
          "internalType": "string",
          "name": "message",
          "type": "string"
        }
      ],
      "name": "PaymentError",
      "type": "error"
    },
    {
      "inputs": [],
      "name": "ReentrancyGuardReentrantCall",
      "type": "error"
    },
    {
      "inputs": [
        {
          "internalType": "address",
          "name": "token",
          "type": "address"
        }
      ],
      "name": "SafeERC20FailedOperation",
      "type": "error"
    },
    {
      "inputs": [],
      "name": "WithdrawError",
      "type": "error"
    },
    {
      "inputs": [],
      "name": "WithdrawErrorInvalidAddress",
      "type": "error"
    },
    {
      "inputs": [],
      "name": "WithdrawErrorNoBalance",
      "type": "error"
    },
    {
      "anonymous": false,
      "inputs": [],
      "name": "EIP712DomainChanged",
      "type": "event"
    },
    {
      "anonymous": false,
      "inputs": [
        {
          "indexed": false,
          "internalType": "uint64",
          "name": "version",
          "type": "uint64"
        }
      ],
      "name": "Initialized",
      "type": "event"
    },
    {
      "anonymous": false,
      "inputs": [
        {
          "indexed": true,
          "internalType": "address",
          "name": "previousOwner",
          "type": "address"
        },
        {
          "indexed": true,
          "internalType": "address",
          "name": "newOwner",
          "type": "address"
        }
      ],
      "name": "OwnershipTransferStarted",
      "type": "event"
    },
    {
      "anonymous": false,
      "inputs": [
        {
          "indexed": true,
          "internalType": "address",
          "name": "previousOwner",
          "type": "address"
        },
        {
          "indexed": true,
          "internalType": "address",
          "name": "newOwner",
          "type": "address"
        }
      ],
      "name": "OwnershipTransferred",
      "type": "event"
    },
    {
      "anonymous": false,
      "inputs": [
        {
          "indexed": true,
          "internalType": "address",
          "name": "recipient",
          "type": "address"
        },
        {
          "indexed": true,
          "internalType": "uint256",
          "name": "nonce",
          "type": "uint256"
        }
      ],
      "name": "Payment",
      "type": "event"
    },
    {
      "inputs": [],
      "name": "DOMAIN_VERSION",
      "outputs": [
        {
          "internalType": "string",
          "name": "",
          "type": "string"
        }
      ],
      "stateMutability": "view",
      "type": "function"
    },
    {
      "inputs": [],
      "name": "ERC_20_PAYMENT_DATA_TYPE_HASH",
      "outputs": [
        {
          "internalType": "bytes32",
          "name": "",
          "type": "bytes32"
        }
      ],
      "stateMutability": "view",
      "type": "function"
    },
    {
      "inputs": [],
      "name": "PAYMENT_DATA_TYPE_HASH",
      "outputs": [
        {
          "internalType": "bytes32",
          "name": "",
          "type": "bytes32"
        }
      ],
      "stateMutability": "view",
      "type": "function"
    },
    {
      "inputs": [],
      "name": "VERSION",
      "outputs": [
        {
          "internalType": "string",
          "name": "",
          "type": "string"
        }
      ],
      "stateMutability": "view",
      "type": "function"
    },
    {
      "inputs": [],
      "name": "acceptOwnership",
      "outputs": [],
      "stateMutability": "nonpayable",
      "type": "function"
    },
    {
      "inputs": [],
      "name": "eip712Domain",
      "outputs": [
        {
          "internalType": "bytes1",
          "name": "fields",
          "type": "bytes1"
        },
        {
          "internalType": "string",
          "name": "name",
          "type": "string"
        },
        {
          "internalType": "string",
          "name": "version",
          "type": "string"
        },
        {
          "internalType": "uint256",
          "name": "chainId",
          "type": "uint256"
        },
        {
          "internalType": "address",
          "name": "verifyingContract",
          "type": "address"
        },
        {
          "internalType": "bytes32",
          "name": "salt",
          "type": "bytes32"
        },
        {
          "internalType": "uint256[]",
          "name": "extensions",
          "type": "uint256[]"
        }
      ],
      "stateMutability": "view",
      "type": "function"
    },
    {
      "inputs": [
        {
          "internalType": "address",
          "name": "issuer",
          "type": "address"
        }
      ],
      "name": "getBalance",
      "outputs": [
        {
          "internalType": "uint256",
          "name": "",
          "type": "uint256"
        }
      ],
      "stateMutability": "view",
      "type": "function"
    },
    {
      "inputs": [],
      "name": "getOwnerBalance",
      "outputs": [
        {
          "internalType": "uint256",
          "name": "",
          "type": "uint256"
        }
      ],
      "stateMutability": "view",
      "type": "function"
    },
    {
      "inputs": [
        {
          "internalType": "address",
          "name": "token",
          "type": "address"
        }
      ],
      "name": "getOwnerERC20Balance",
      "outputs": [
        {
          "internalType": "uint256",
          "name": "",
          "type": "uint256"
        }
      ],
      "stateMutability": "view",
      "type": "function"
    },
    {
      "inputs": [],
      "name": "getOwnerPercentage",
      "outputs": [
        {
          "internalType": "uint8",
          "name": "",
          "type": "uint8"
        }
      ],
      "stateMutability": "view",
      "type": "function"
    },
    {
      "inputs": [
        {
          "internalType": "address",
          "name": "owner",
          "type": "address"
        },
        {
          "internalType": "uint8",
          "name": "ownerPercentage",
          "type": "uint8"
        }
      ],
      "name": "initialize",
      "outputs": [],
      "stateMutability": "nonpayable",
      "type": "function"
    },
    {
      "inputs": [
        {
          "internalType": "address",
          "name": "issuer",
          "type": "address"
        },
        {
          "internalType": "uint256",
          "name": "nonce",
          "type": "uint256"
        }
      ],
      "name": "isPaymentDone",
      "outputs": [
        {
          "internalType": "bool",
          "name": "",
          "type": "bool"
        }
      ],
      "stateMutability": "view",
      "type": "function"
    },
    {
      "inputs": [],
      "name": "issuerWithdraw",
      "outputs": [],
      "stateMutability": "nonpayable",
      "type": "function"
    },
    {
      "inputs": [],
      "name": "owner",
      "outputs": [
        {
          "internalType": "address",
          "name": "",
          "type": "address"
        }
      ],
      "stateMutability": "view",
      "type": "function"
    },
    {
      "inputs": [
        {
          "internalType": "address",
          "name": "token",
          "type": "address"
        }
      ],
      "name": "ownerERC20Withdraw",
      "outputs": [],
      "stateMutability": "nonpayable",
      "type": "function"
    },
    {
      "inputs": [],
      "name": "ownerWithdraw",
      "outputs": [],
      "stateMutability": "nonpayable",
      "type": "function"
    },
    {
      "inputs": [
        {
          "components": [
            {
              "internalType": "address",
              "name": "recipient",
              "type": "address"
            },
            {
              "internalType": "uint256",
              "name": "amount",
              "type": "uint256"
            },
            {
              "internalType": "uint256",
              "name": "expirationDate",
              "type": "uint256"
            },
            {
              "internalType": "uint256",
              "name": "nonce",
              "type": "uint256"
            },
            {
              "internalType": "bytes",
              "name": "metadata",
              "type": "bytes"
            }
          ],
          "internalType": "struct MCPayment.Iden3PaymentRailsRequestV1",
          "name": "paymentData",
          "type": "tuple"
        },
        {
          "internalType": "bytes",
          "name": "signature",
          "type": "bytes"
        }
      ],
      "name": "pay",
      "outputs": [],
      "stateMutability": "payable",
      "type": "function"
    },
    {
      "inputs": [
        {
          "components": [
            {
              "internalType": "address",
              "name": "tokenAddress",
              "type": "address"
            },
            {
              "internalType": "address",
              "name": "recipient",
              "type": "address"
            },
            {
              "internalType": "uint256",
              "name": "amount",
              "type": "uint256"
            },
            {
              "internalType": "uint256",
              "name": "expirationDate",
              "type": "uint256"
            },
            {
              "internalType": "uint256",
              "name": "nonce",
              "type": "uint256"
            },
            {
              "internalType": "bytes",
              "name": "metadata",
              "type": "bytes"
            }
          ],
          "internalType": "struct MCPayment.Iden3PaymentRailsERC20RequestV1",
          "name": "paymentData",
          "type": "tuple"
        },
        {
          "internalType": "bytes",
          "name": "signature",
          "type": "bytes"
        }
      ],
      "name": "payERC20",
      "outputs": [],
      "stateMutability": "nonpayable",
      "type": "function"
    },
    {
      "inputs": [
        {
          "internalType": "bytes",
          "name": "permitSignature",
          "type": "bytes"
        },
        {
          "components": [
            {
              "internalType": "address",
              "name": "tokenAddress",
              "type": "address"
            },
            {
              "internalType": "address",
              "name": "recipient",
              "type": "address"
            },
            {
              "internalType": "uint256",
              "name": "amount",
              "type": "uint256"
            },
            {
              "internalType": "uint256",
              "name": "expirationDate",
              "type": "uint256"
            },
            {
              "internalType": "uint256",
              "name": "nonce",
              "type": "uint256"
            },
            {
              "internalType": "bytes",
              "name": "metadata",
              "type": "bytes"
            }
          ],
          "internalType": "struct MCPayment.Iden3PaymentRailsERC20RequestV1",
          "name": "paymentData",
          "type": "tuple"
        },
        {
          "internalType": "bytes",
          "name": "signature",
          "type": "bytes"
        }
      ],
      "name": "payERC20Permit",
      "outputs": [],
      "stateMutability": "nonpayable",
      "type": "function"
    },
    {
      "inputs": [],
      "name": "pendingOwner",
      "outputs": [
        {
          "internalType": "address",
          "name": "",
          "type": "address"
        }
      ],
      "stateMutability": "view",
      "type": "function"
    },
    {
      "inputs": [
        {
          "components": [
            {
              "internalType": "address",
              "name": "tokenAddress",
              "type": "address"
            },
            {
              "internalType": "address",
              "name": "recipient",
              "type": "address"
            },
            {
              "internalType": "uint256",
              "name": "amount",
              "type": "uint256"
            },
            {
              "internalType": "uint256",
              "name": "expirationDate",
              "type": "uint256"
            },
            {
              "internalType": "uint256",
              "name": "nonce",
              "type": "uint256"
            },
            {
              "internalType": "bytes",
              "name": "metadata",
              "type": "bytes"
            }
          ],
          "internalType": "struct MCPayment.Iden3PaymentRailsERC20RequestV1",
          "name": "paymentData",
          "type": "tuple"
        },
        {
          "internalType": "bytes",
          "name": "signature",
          "type": "bytes"
        }
      ],
      "name": "recoverIden3PaymentRailsERC20RequestV1Signature",
      "outputs": [
        {
          "internalType": "address",
          "name": "",
          "type": "address"
        }
      ],
      "stateMutability": "view",
      "type": "function"
    },
    {
      "inputs": [
        {
          "components": [
            {
              "internalType": "address",
              "name": "recipient",
              "type": "address"
            },
            {
              "internalType": "uint256",
              "name": "amount",
              "type": "uint256"
            },
            {
              "internalType": "uint256",
              "name": "expirationDate",
              "type": "uint256"
            },
            {
              "internalType": "uint256",
              "name": "nonce",
              "type": "uint256"
            },
            {
              "internalType": "bytes",
              "name": "metadata",
              "type": "bytes"
            }
          ],
          "internalType": "struct MCPayment.Iden3PaymentRailsRequestV1",
          "name": "paymentData",
          "type": "tuple"
        },
        {
          "internalType": "bytes",
          "name": "signature",
          "type": "bytes"
        }
      ],
      "name": "recoverIden3PaymentRailsRequestV1Signature",
      "outputs": [
        {
          "internalType": "address",
          "name": "",
          "type": "address"
        }
      ],
      "stateMutability": "view",
      "type": "function"
    },
    {
      "inputs": [],
      "name": "renounceOwnership",
      "outputs": [],
      "stateMutability": "nonpayable",
      "type": "function"
    },
    {
      "inputs": [
        {
          "internalType": "address",
          "name": "newOwner",
          "type": "address"
        }
      ],
      "name": "transferOwnership",
      "outputs": [],
      "stateMutability": "nonpayable",
      "type": "function"
    },
    {
      "inputs": [
        {
          "internalType": "uint8",
          "name": "ownerPercentage",
          "type": "uint8"
        }
      ],
      "name": "updateOwnerPercentage",
      "outputs": [],
      "stateMutability": "nonpayable",
      "type": "function"
    }
  ],
  "bytecode": "0x608060405234801561001057600080fd5b5061001f61002460201b60201c565b61018e565b600061003461012860201b60201c565b90508060000160089054906101000a900460ff161561007f576040517ff92ee8a900000000000000000000000000000000000000000000000000000000815260040160405180910390fd5b67ffffffffffffffff80168160000160009054906101000a900467ffffffffffffffff1667ffffffffffffffff16146101255767ffffffffffffffff8160000160006101000a81548167ffffffffffffffff021916908367ffffffffffffffff1602179055507fc7f505b2f371ae2175ee4913f4499e1f2633a7b5936321eed1cdaeb6115181d267ffffffffffffffff60405161011c9190610173565b60405180910390a15b50565b60007ff0c57e16840df040f15088dc2f81fe391c3923bec73e23a9662efc9c229c6a00905090565b600067ffffffffffffffff82169050919050565b61016d81610150565b82525050565b60006020820190506101886000830184610164565b92915050565b6138098061019d6000396000f3fe6080604052600436106101665760003560e01c80639d9c12b7116100d1578063cbec75bb1161008a578063f0dd689911610064578063f0dd6899146104d7578063f2fde38b14610502578063f8b2cb4f1461052b578063ffa1ad741461056857610166565b8063cbec75bb14610458578063cc9cd96114610495578063e30c3978146104ac57610166565b80639d9c12b71461032f578063aa0216691461036c578063acb8cc4914610388578063c52f5c83146103b3578063c5fd08d1146103f0578063c6bfaa3f1461042d57610166565b8063590791f211610123578063590791f214610251578063715018a61461027c57806379ba50971461029357806384b0196e146102aa5780638da5cb5b146102db578063943b24b21461030657610166565b80630cea58aa1461016b5780631af6de2b14610194578063309a042c146101bd5780633dbbdbe5146101e85780634311de8f1461021157806357615a3a14610228575b600080fd5b34801561017757600080fd5b50610192600480360381019061018d919061251f565b610593565b005b3480156101a057600080fd5b506101bb60048036038101906101b691906125aa565b610608565b005b3480156101c957600080fd5b506101d2610762565b6040516101df91906125e6565b60405180910390f35b3480156101f457600080fd5b5061020f600480360381019061020a9190612843565b610787565b005b34801561021d57600080fd5b5061022661095b565b005b34801561023457600080fd5b5061024f600480360381019061024a91906128ea565b6109e5565b005b34801561025d57600080fd5b50610266610a12565b6040516102739190612971565b60405180910390f35b34801561028857600080fd5b50610291610a33565b005b34801561029f57600080fd5b506102a8610a47565b005b3480156102b657600080fd5b506102bf610ad6565b6040516102d29796959493929190612b2c565b60405180910390f35b3480156102e757600080fd5b506102f0610be8565b6040516102fd9190612bb0565b60405180910390f35b34801561031257600080fd5b5061032d60048036038101906103289190612bcb565b610c20565b005b34801561033b57600080fd5b5061035660048036038101906103519190612c0b565b610e96565b6040516103639190612c66565b60405180910390f35b61038660048036038101906103819190612d29565b610ef7565b005b34801561039457600080fd5b5061039d61119c565b6040516103aa9190612da1565b60405180910390f35b3480156103bf57600080fd5b506103da60048036038101906103d591906128ea565b6111d5565b6040516103e79190612bb0565b60405180910390f35b3480156103fc57600080fd5b5061041760048036038101906104129190612d29565b6112a0565b6040516104249190612bb0565b60405180910390f35b34801561043957600080fd5b50610442611365565b60405161044f9190612dc3565b60405180910390f35b34801561046457600080fd5b5061047f600480360381019061047a91906125aa565b611389565b60405161048c9190612971565b60405180910390f35b3480156104a157600080fd5b506104aa611414565b005b3480156104b857600080fd5b506104c1611436565b6040516104ce9190612bb0565b60405180910390f35b3480156104e357600080fd5b506104ec61146e565b6040516104f99190612dc3565b60405180910390f35b34801561050e57600080fd5b50610529600480360381019061052491906125aa565b611492565b005b34801561053757600080fd5b50610552600480360381019061054d91906125aa565b61154e565b60405161055f9190612971565b60405180910390f35b34801561057457600080fd5b5061057d6115a5565b60405161058a9190612da1565b60405180910390f35b61059b6115de565b8060ff1660648111156105da576040517f95bde96e00000000000000000000000000000000000000000000000000000000815260040160405180910390fd5b60006105e4611665565b9050828160020160006101000a81548160ff021916908360ff160217905550505050565b6106106115de565b61061861168d565b60008173ffffffffffffffffffffffffffffffffffffffff166370a08231306040518263ffffffff1660e01b81526004016106539190612bb0565b602060405180830381865afa158015610670573d6000803e3d6000fd5b505050506040513d601f19601f820116820180604052508101906106949190612df3565b9050600081036106d0576040517f2c8d747600000000000000000000000000000000000000000000000000000000815260040160405180910390fd5b8173ffffffffffffffffffffffffffffffffffffffff1663a9059cbb6106f4610be8565b836040518363ffffffff1660e01b8152600401610712929190612e20565b6020604051808303816000875af1158015610731573d6000803e3d6000fd5b505050506040513d601f19601f820116820180604052508101906107559190612e75565b505061075f6116e4565b50565b60008061076d611665565b90508060020160009054906101000a900460ff1691505090565b61078f61168d565b600061079b83836116fd565b905060008360000151905060418551146107e1576040517f377d96dd00000000000000000000000000000000000000000000000000000000815260040160405180910390fd5b60008060006020880151925060408801519150606088015160001a90508373ffffffffffffffffffffffffffffffffffffffff1663d505accf33308a604001518b606001518689896040518863ffffffff1660e01b815260040161084b9796959493929190612ea2565b600060405180830381600087803b15801561086557600080fd5b505af1925050508015610876575060015b61093e5760008473ffffffffffffffffffffffffffffffffffffffff1663dd62ed3e33306040518363ffffffff1660e01b81526004016108b7929190612f11565b602060405180830381865afa1580156108d4573d6000803e3d6000fd5b505050506040513d601f19601f820116820180604052508101906108f89190612df3565b90508760400151811015610938576040517f7f46728400000000000000000000000000000000000000000000000000000000815260040160405180910390fd5b5061093f565b5b61094987866117c4565b50505050506109566116e4565b505050565b6109636115de565b61096b61168d565b6000610975611665565b905060008160030154036109b5576040517f2c8d747600000000000000000000000000000000000000000000000000000000815260040160405180910390fd5b600081600301549050600082600301819055506109d9816109d4610be8565b611985565b50506109e36116e4565b565b6109ed61168d565b60006109f983836116fd565b9050610a0583826117c4565b50610a0e6116e4565b5050565b6000610a1c6115de565b6000610a26611665565b9050806003015491505090565b610a3b6115de565b610a456000611a93565b565b6000610a51611ad3565b90508073ffffffffffffffffffffffffffffffffffffffff16610a72611436565b73ffffffffffffffffffffffffffffffffffffffff1614610aca57806040517f118cdaa7000000000000000000000000000000000000000000000000000000008152600401610ac19190612bb0565b60405180910390fd5b610ad381611a93565b50565b6000606080600080600060606000610aec611adb565b90506000801b8160000154148015610b0a57506000801b8160010154145b610b49576040517f08c379a0000000000000000000000000000000000000000000000000000000008152600401610b4090612f86565b60405180910390fd5b610b51611b03565b610b59611ba4565b46306000801b600067ffffffffffffffff811115610b7a57610b7961261c565b5b604051908082528060200260200182016040528015610ba85781602001602082028036833780820191505090505b507f0f0000000000000000000000000000000000000000000000000000000000000095949392919097509750975097509750975097505090919293949596565b600080610bf3611c45565b90508060000160009054906101000a900473ffffffffffffffffffffffffffffffffffffffff1691505090565b6000610c2a611c6d565b905060008160000160089054906101000a900460ff1615905060008260000160009054906101000a900467ffffffffffffffff1690506000808267ffffffffffffffff16148015610c785750825b9050600060018367ffffffffffffffff16148015610cad575060003073ffffffffffffffffffffffffffffffffffffffff163b145b905081158015610cbb575080155b15610cf2576040517ff92ee8a900000000000000000000000000000000000000000000000000000000815260040160405180910390fd5b60018560000160006101000a81548167ffffffffffffffff021916908367ffffffffffffffff1602179055508315610d425760018560000160086101000a81548160ff0219169083151502179055505b8560ff166064811115610d81576040517f95bde96e00000000000000000000000000000000000000000000000000000000815260040160405180910390fd5b6000610d8b611665565b9050878160020160006101000a81548160ff021916908360ff160217905550610db389611c95565b610e276040518060400160405280600981526020017f4d435061796d656e7400000000000000000000000000000000000000000000008152506040518060400160405280600581526020017f312e302e30000000000000000000000000000000000000000000000000000000815250611ca9565b610e2f611cbf565b50508315610e8d5760008560000160086101000a81548160ff0219169083151502179055507fc7f505b2f371ae2175ee4913f4499e1f2633a7b5936321eed1cdaeb6115181d26001604051610e849190612fff565b60405180910390a15b50505050505050565b600080610ea1611665565b90508060000160008585604051602001610ebc929190612e20565b60405160208183030381529060405280519060200120815260200190815260200160002060009054906101000a900460ff1691505092915050565b610eff61168d565b6000610f0b83836112a0565b90506000818460600151604051602001610f26929190612e20565b6040516020818303038152906040528051906020012090506000610f48611665565b905080600001600083815260200190815260200160002060009054906101000a900460ff1615610fb957846000015185606001516040517fa7758488000000000000000000000000000000000000000000000000000000008152600401610fb0929190613066565b60405180910390fd5b3485602001511461100b57846000015185606001516040517fa77584880000000000000000000000000000000000000000000000000000000081526004016110029291906130ee565b60405180910390fd5b428560400151101561105e57846000015185606001516040517fa7758488000000000000000000000000000000000000000000000000000000008152600401611055929190613176565b60405180910390fd5b600060648260020160009054906101000a900460ff1660ff163461108291906131e1565b61108c9190613252565b90506000813461109c9190613283565b905080836001016000896000015173ffffffffffffffffffffffffffffffffffffffff1673ffffffffffffffffffffffffffffffffffffffff16815260200190815260200160002060008282546110f391906132b7565b925050819055508183600301600082825461110e91906132b7565b9250508190555086606001518573ffffffffffffffffffffffffffffffffffffffff167fd4f43975feb89f48dd30cabbb32011045be187d1e11c8ea9faa43efc3528251960405160405180910390a3600183600001600086815260200190815260200160002060006101000a81548160ff02191690831515021790555050505050506111986116e4565b5050565b6040518060400160405280600581526020017f312e302e3000000000000000000000000000000000000000000000000000000081525081565b6000807f9ee4c216116cee4389c2d10394489895776e570cfad57a54ddc9f2d5a2f462b4846000015185602001518660400151876060015188608001518960a001518051906020012060405160200161123497969594939291906132eb565b6040516020818303038152906040528051906020012090506000806112598386611cd1565b9150915081611294576040517f8baa579f00000000000000000000000000000000000000000000000000000000815260040160405180910390fd5b80935050505092915050565b6000807f7d9b223c9f364814bf77fd331ce600482bed3df6cd9a9f7c4fec9cb56d046a1284600001518560200151866040015187606001518860800151805190602001206040516020016112f99695949392919061335a565b60405160208183030381529060405280519060200120905060008061131e8386611cd1565b9150915081611359576040517f8baa579f00000000000000000000000000000000000000000000000000000000815260040160405180910390fd5b80935050505092915050565b7f9ee4c216116cee4389c2d10394489895776e570cfad57a54ddc9f2d5a2f462b481565b60006113936115de565b8173ffffffffffffffffffffffffffffffffffffffff166370a08231306040518263ffffffff1660e01b81526004016113cc9190612bb0565b602060405180830381865afa1580156113e9573d6000803e3d6000fd5b505050506040513d601f19601f8201168201806040525081019061140d9190612df3565b9050919050565b61141c61168d565b61142c611427611ad3565b611d33565b6114346116e4565b565b600080611441611e15565b90508060000160009054906101000a900473ffffffffffffffffffffffffffffffffffffffff1691505090565b7f7d9b223c9f364814bf77fd331ce600482bed3df6cd9a9f7c4fec9cb56d046a1281565b61149a6115de565b60006114a4611e15565b9050818160000160006101000a81548173ffffffffffffffffffffffffffffffffffffffff021916908373ffffffffffffffffffffffffffffffffffffffff1602179055508173ffffffffffffffffffffffffffffffffffffffff16611508610be8565b73ffffffffffffffffffffffffffffffffffffffff167f38d16b8cac22d99fc7c124b9cd0de2d3fa1faef420bfe791d8c362d765e2270060405160405180910390a35050565b600080611559611665565b90508060010160008473ffffffffffffffffffffffffffffffffffffffff1673ffffffffffffffffffffffffffffffffffffffff16815260200190815260200160002054915050919050565b6040518060400160405280600581526020017f312e302e3300000000000000000000000000000000000000000000000000000081525081565b6115e6611ad3565b73ffffffffffffffffffffffffffffffffffffffff16611604610be8565b73ffffffffffffffffffffffffffffffffffffffff161461166357611627611ad3565b6040517f118cdaa700000000000000000000000000000000000000000000000000000000815260040161165a9190612bb0565b60405180910390fd5b565b60007f843c93f996398391e581389b674681e6ea27a4f9a96390a9d8ecb41cf0226300905090565b6000611697611e3d565b905060028160000154036116d7576040517f3ee5aeb500000000000000000000000000000000000000000000000000000000815260040160405180910390fd5b6002816000018190555050565b60006116ee611e3d565b90506001816000018190555050565b60008061170a84846111d5565b90506000818560800151604051602001611725929190612e20565b6040516020818303038152906040528051906020012090506000611747611665565b905080600001600083815260200190815260200160002060009054906101000a900460ff16156117b857856020015186608001516040517fa77584880000000000000000000000000000000000000000000000000000000081526004016117af929190613066565b60405180910390fd5b82935050505092915050565b6000826000015190506117fe333085604001518473ffffffffffffffffffffffffffffffffffffffff16611e65909392919063ffffffff16565b6000611808611665565b9050600060648260020160009054906101000a900460ff1660ff16866040015161183291906131e1565b61183c9190613252565b905060008186604001516118509190613283565b90508373ffffffffffffffffffffffffffffffffffffffff1663a9059cbb8760200151836040518363ffffffff1660e01b8152600401611891929190612e20565b6020604051808303816000875af11580156118b0573d6000803e3d6000fd5b505050506040513d601f19601f820116820180604052508101906118d49190612e75565b5085608001518573ffffffffffffffffffffffffffffffffffffffff167fd4f43975feb89f48dd30cabbb32011045be187d1e11c8ea9faa43efc3528251960405160405180910390a36000858760800151604051602001611936929190612e20565b604051602081830303815290604052805190602001209050600184600001600083815260200190815260200160002060006101000a81548160ff02191690831515021790555050505050505050565b600073ffffffffffffffffffffffffffffffffffffffff168173ffffffffffffffffffffffffffffffffffffffff16036119eb576040517f3093ea0700000000000000000000000000000000000000000000000000000000815260040160405180910390fd5b60008173ffffffffffffffffffffffffffffffffffffffff1683604051611a11906133ec565b60006040518083038185875af1925050503d8060008114611a4e576040519150601f19603f3d011682016040523d82523d6000602084013e611a53565b606091505b5050905080611a8e576040517fd477157400000000000000000000000000000000000000000000000000000000815260040160405180910390fd5b505050565b6000611a9d611e15565b90508060000160006101000a81549073ffffffffffffffffffffffffffffffffffffffff0219169055611acf82611ee7565b5050565b600033905090565b60007fa16a46d94261c7517cc8ff89f61c0ce93598e3c849801011dee649a6a557d100905090565b60606000611b0f611adb565b9050806002018054611b2090613430565b80601f0160208091040260200160405190810160405280929190818152602001828054611b4c90613430565b8015611b995780601f10611b6e57610100808354040283529160200191611b99565b820191906000526020600020905b815481529060010190602001808311611b7c57829003601f168201915b505050505091505090565b60606000611bb0611adb565b9050806003018054611bc190613430565b80601f0160208091040260200160405190810160405280929190818152602001828054611bed90613430565b8015611c3a5780601f10611c0f57610100808354040283529160200191611c3a565b820191906000526020600020905b815481529060010190602001808311611c1d57829003601f168201915b505050505091505090565b60007f9016d09d72d40fdae2fd8ceac6b6234c7706214fd39c1cd1e609a0528c199300905090565b60007ff0c57e16840df040f15088dc2f81fe391c3923bec73e23a9662efc9c229c6a00905090565b611c9d611fbe565b611ca681611ffe565b50565b611cb1611fbe565b611cbb8282612084565b5050565b611cc7611fbe565b611ccf6120d9565b565b6000806000611cdf856120fa565b9050600080611cf7868461211490919063ffffffff16565b509150915060006003811115611d1057611d0f613461565b5b816003811115611d2357611d22613461565b5b1482945094505050509250929050565b6000611d3d611665565b905060008160010160008473ffffffffffffffffffffffffffffffffffffffff1673ffffffffffffffffffffffffffffffffffffffff16815260200190815260200160002054905060008103611dbf576040517f2c8d747600000000000000000000000000000000000000000000000000000000815260040160405180910390fd5b60008260010160008573ffffffffffffffffffffffffffffffffffffffff1673ffffffffffffffffffffffffffffffffffffffff16815260200190815260200160002081905550611e108184611985565b505050565b60007f237e158222e3e6968b72b9db0d8043aacf074ad9f650f0d1606b4d82ee432c00905090565b60007f9b779b17422d0df92223018b32b4d1fa46e071723d6817e2486d003becc55f00905090565b611ee1848573ffffffffffffffffffffffffffffffffffffffff166323b872dd868686604051602401611e9a93929190613490565b604051602081830303815290604052915060e01b6020820180517bffffffffffffffffffffffffffffffffffffffffffffffffffffffff8381831617835250505050612170565b50505050565b6000611ef1611c45565b905060008160000160009054906101000a900473ffffffffffffffffffffffffffffffffffffffff169050828260000160006101000a81548173ffffffffffffffffffffffffffffffffffffffff021916908373ffffffffffffffffffffffffffffffffffffffff1602179055508273ffffffffffffffffffffffffffffffffffffffff168173ffffffffffffffffffffffffffffffffffffffff167f8be0079c531659141344cd1fd0a4f28419497f9722a3daafe3b4186f6b6457e060405160405180910390a3505050565b611fc6612212565b611ffc576040517fd7e6bcf800000000000000000000000000000000000000000000000000000000815260040160405180910390fd5b565b612006611fbe565b600073ffffffffffffffffffffffffffffffffffffffff168173ffffffffffffffffffffffffffffffffffffffff16036120785760006040517f1e4fbdf700000000000000000000000000000000000000000000000000000000815260040161206f9190612bb0565b60405180910390fd5b61208181611a93565b50565b61208c611fbe565b6000612096611adb565b9050828160020190816120a99190613669565b50818160030190816120bb9190613669565b506000801b81600001819055506000801b8160010181905550505050565b6120e1611fbe565b60006120eb611e3d565b90506001816000018190555050565b600061210d612107612232565b83612241565b9050919050565b600080600060418451036121595760008060006020870151925060408701519150606087015160001a905061214b88828585612282565b955095509550505050612169565b60006002855160001b9250925092505b9250925092565b600080602060008451602086016000885af180612193576040513d6000823e3d81fd5b3d9250600051915050600082146121ae5760018114156121ca565b60008473ffffffffffffffffffffffffffffffffffffffff163b145b1561220c57836040517f5274afe70000000000000000000000000000000000000000000000000000000081526004016122039190612bb0565b60405180910390fd5b50505050565b600061221c611c6d565b60000160089054906101000a900460ff16905090565b600061223c612376565b905090565b60006040517f190100000000000000000000000000000000000000000000000000000000000081528360028201528260228201526042812091505092915050565b60008060007f7fffffffffffffffffffffffffffffff5d576e7357a4501ddfe92f46681b20a08460001c11156122c257600060038592509250925061236c565b6000600188888888604051600081526020016040526040516122e7949392919061373b565b6020604051602081039080840390855afa158015612309573d6000803e3d6000fd5b505050602060405103519050600073ffffffffffffffffffffffffffffffffffffffff168173ffffffffffffffffffffffffffffffffffffffff160361235d57600060016000801b9350935093505061236c565b8060008060001b935093509350505b9450945094915050565b60007f8b73c3c69bb8fe3d512ecc4cf759cc79239f7b179b0ffacaa9a75d522b39400f6123a16123da565b6123a9612456565b46306040516020016123bf959493929190613780565b60405160208183030381529060405280519060200120905090565b6000806123e5611adb565b905060006123f1611b03565b905060008151111561240e57808051906020012092505050612453565b6000826000015490506000801b811461242c57809350505050612453565b7fc5d2460186f7233c927e7db2dcc703c0e500b653ca82273b7bfad8045d85a47093505050505b90565b600080612461611adb565b9050600061246d611ba4565b905060008151111561248a578080519060200120925050506124cf565b6000826001015490506000801b81146124a8578093505050506124cf565b7fc5d2460186f7233c927e7db2dcc703c0e500b653ca82273b7bfad8045d85a47093505050505b90565b6000604051905090565b600080fd5b600080fd5b600060ff82169050919050565b6124fc816124e6565b811461250757600080fd5b50565b600081359050612519816124f3565b92915050565b600060208284031215612535576125346124dc565b5b60006125438482850161250a565b91505092915050565b600073ffffffffffffffffffffffffffffffffffffffff82169050919050565b60006125778261254c565b9050919050565b6125878161256c565b811461259257600080fd5b50565b6000813590506125a48161257e565b92915050565b6000602082840312156125c0576125bf6124dc565b5b60006125ce84828501612595565b91505092915050565b6125e0816124e6565b82525050565b60006020820190506125fb60008301846125d7565b92915050565b600080fd5b600080fd5b6000601f19601f8301169050919050565b7f4e487b7100000000000000000000000000000000000000000000000000000000600052604160045260246000fd5b6126548261260b565b810181811067ffffffffffffffff821117156126735761267261261c565b5b80604052505050565b60006126866124d2565b9050612692828261264b565b919050565b600067ffffffffffffffff8211156126b2576126b161261c565b5b6126bb8261260b565b9050602081019050919050565b82818337600083830152505050565b60006126ea6126e584612697565b61267c565b90508281526020810184848401111561270657612705612606565b5b6127118482856126c8565b509392505050565b600082601f83011261272e5761272d612601565b5b813561273e8482602086016126d7565b91505092915050565b600080fd5b600080fd5b6000819050919050565b61276481612751565b811461276f57600080fd5b50565b6000813590506127818161275b565b92915050565b600060c0828403121561279d5761279c612747565b5b6127a760c061267c565b905060006127b784828501612595565b60008301525060206127cb84828501612595565b60208301525060406127df84828501612772565b60408301525060606127f384828501612772565b606083015250608061280784828501612772565b60808301525060a082013567ffffffffffffffff81111561282b5761282a61274c565b5b61283784828501612719565b60a08301525092915050565b60008060006060848603121561285c5761285b6124dc565b5b600084013567ffffffffffffffff81111561287a576128796124e1565b5b61288686828701612719565b935050602084013567ffffffffffffffff8111156128a7576128a66124e1565b5b6128b386828701612787565b925050604084013567ffffffffffffffff8111156128d4576128d36124e1565b5b6128e086828701612719565b9150509250925092565b60008060408385031215612901576129006124dc565b5b600083013567ffffffffffffffff81111561291f5761291e6124e1565b5b61292b85828601612787565b925050602083013567ffffffffffffffff81111561294c5761294b6124e1565b5b61295885828601612719565b9150509250929050565b61296b81612751565b82525050565b60006020820190506129866000830184612962565b92915050565b60007fff0000000000000000000000000000000000000000000000000000000000000082169050919050565b6129c18161298c565b82525050565b600081519050919050565b600082825260208201905092915050565b60005b83811015612a015780820151818401526020810190506129e6565b60008484015250505050565b6000612a18826129c7565b612a2281856129d2565b9350612a328185602086016129e3565b612a3b8161260b565b840191505092915050565b612a4f8161256c565b82525050565b6000819050919050565b612a6881612a55565b82525050565b600081519050919050565b600082825260208201905092915050565b6000819050602082019050919050565b612aa381612751565b82525050565b6000612ab58383612a9a565b60208301905092915050565b6000602082019050919050565b6000612ad982612a6e565b612ae38185612a79565b9350612aee83612a8a565b8060005b83811015612b1f578151612b068882612aa9565b9750612b1183612ac1565b925050600181019050612af2565b5085935050505092915050565b600060e082019050612b41600083018a6129b8565b8181036020830152612b538189612a0d565b90508181036040830152612b678188612a0d565b9050612b766060830187612962565b612b836080830186612a46565b612b9060a0830185612a5f565b81810360c0830152612ba28184612ace565b905098975050505050505050565b6000602082019050612bc56000830184612a46565b92915050565b60008060408385031215612be257612be16124dc565b5b6000612bf085828601612595565b9250506020612c018582860161250a565b9150509250929050565b60008060408385031215612c2257612c216124dc565b5b6000612c3085828601612595565b9250506020612c4185828601612772565b9150509250929050565b60008115159050919050565b612c6081612c4b565b82525050565b6000602082019050612c7b6000830184612c57565b92915050565b600060a08284031215612c9757612c96612747565b5b612ca160a061267c565b90506000612cb184828501612595565b6000830152506020612cc584828501612772565b6020830152506040612cd984828501612772565b6040830152506060612ced84828501612772565b606083015250608082013567ffffffffffffffff811115612d1157612d1061274c565b5b612d1d84828501612719565b60808301525092915050565b60008060408385031215612d4057612d3f6124dc565b5b600083013567ffffffffffffffff811115612d5e57612d5d6124e1565b5b612d6a85828601612c81565b925050602083013567ffffffffffffffff811115612d8b57612d8a6124e1565b5b612d9785828601612719565b9150509250929050565b60006020820190508181036000830152612dbb8184612a0d565b905092915050565b6000602082019050612dd86000830184612a5f565b92915050565b600081519050612ded8161275b565b92915050565b600060208284031215612e0957612e086124dc565b5b6000612e1784828501612dde565b91505092915050565b6000604082019050612e356000830185612a46565b612e426020830184612962565b9392505050565b612e5281612c4b565b8114612e5d57600080fd5b50565b600081519050612e6f81612e49565b92915050565b600060208284031215612e8b57612e8a6124dc565b5b6000612e9984828501612e60565b91505092915050565b600060e082019050612eb7600083018a612a46565b612ec46020830189612a46565b612ed16040830188612962565b612ede6060830187612962565b612eeb60808301866125d7565b612ef860a0830185612a5f565b612f0560c0830184612a5f565b98975050505050505050565b6000604082019050612f266000830185612a46565b612f336020830184612a46565b9392505050565b7f4549503731323a20556e696e697469616c697a65640000000000000000000000600082015250565b6000612f706015836129d2565b9150612f7b82612f3a565b602082019050919050565b60006020820190508181036000830152612f9f81612f63565b9050919050565b6000819050919050565b600067ffffffffffffffff82169050919050565b6000819050919050565b6000612fe9612fe4612fdf84612fa6565b612fc4565b612fb0565b9050919050565b612ff981612fce565b82525050565b60006020820190506130146000830184612ff0565b92915050565b7f4d435061796d656e743a207061796d656e7420616c7265616479207061696400600082015250565b6000613050601f836129d2565b915061305b8261301a565b602082019050919050565b600060608201905061307b6000830185612a46565b6130886020830184612962565b818103604083015261309981613043565b90509392505050565b7f4d435061796d656e743a20696e76616c6964207061796d656e742076616c7565600082015250565b60006130d86020836129d2565b91506130e3826130a2565b602082019050919050565b60006060820190506131036000830185612a46565b6131106020830184612962565b8181036040830152613121816130cb565b90509392505050565b7f4d435061796d656e743a207061796d656e742065787069726564000000000000600082015250565b6000613160601a836129d2565b915061316b8261312a565b602082019050919050565b600060608201905061318b6000830185612a46565b6131986020830184612962565b81810360408301526131a981613153565b90509392505050565b7f4e487b7100000000000000000000000000000000000000000000000000000000600052601160045260246000fd5b60006131ec82612751565b91506131f783612751565b925082820261320581612751565b9150828204841483151761321c5761321b6131b2565b5b5092915050565b7f4e487b7100000000000000000000000000000000000000000000000000000000600052601260045260246000fd5b600061325d82612751565b915061326883612751565b92508261327857613277613223565b5b828204905092915050565b600061328e82612751565b915061329983612751565b92508282039050818111156132b1576132b06131b2565b5b92915050565b60006132c282612751565b91506132cd83612751565b92508282019050808211156132e5576132e46131b2565b5b92915050565b600060e082019050613300600083018a612a5f565b61330d6020830189612a46565b61331a6040830188612a46565b6133276060830187612962565b6133346080830186612962565b61334160a0830185612962565b61334e60c0830184612a5f565b98975050505050505050565b600060c08201905061336f6000830189612a5f565b61337c6020830188612a46565b6133896040830187612962565b6133966060830186612962565b6133a36080830185612962565b6133b060a0830184612a5f565b979650505050505050565b600081905092915050565b50565b60006133d66000836133bb565b91506133e1826133c6565b600082019050919050565b60006133f7826133c9565b9150819050919050565b7f4e487b7100000000000000000000000000000000000000000000000000000000600052602260045260246000fd5b6000600282049050600182168061344857607f821691505b60208210810361345b5761345a613401565b5b50919050565b7f4e487b7100000000000000000000000000000000000000000000000000000000600052602160045260246000fd5b60006060820190506134a56000830186612a46565b6134b26020830185612a46565b6134bf6040830184612962565b949350505050565b60008190508160005260206000209050919050565b60006020601f8301049050919050565b600082821b905092915050565b6000600883026135297fffffffffffffffffffffffffffffffffffffffffffffffffffffffffffffffff826134ec565b61353386836134ec565b95508019841693508086168417925050509392505050565b600061356661356161355c84612751565b612fc4565b612751565b9050919050565b6000819050919050565b6135808361354b565b61359461358c8261356d565b8484546134f9565b825550505050565b600090565b6135a961359c565b6135b4818484613577565b505050565b5b818110156135d8576135cd6000826135a1565b6001810190506135ba565b5050565b601f82111561361d576135ee816134c7565b6135f7846134dc565b81016020851015613606578190505b61361a613612856134dc565b8301826135b9565b50505b505050565b600082821c905092915050565b600061364060001984600802613622565b1980831691505092915050565b6000613659838361362f565b9150826002028217905092915050565b613672826129c7565b67ffffffffffffffff81111561368b5761368a61261c565b5b6136958254613430565b6136a08282856135dc565b600060209050601f8311600181146136d357600084156136c1578287015190505b6136cb858261364d565b865550613733565b601f1984166136e1866134c7565b60005b82811015613709578489015182556001820191506020850194506020810190506136e4565b868310156137265784890151613722601f89168261362f565b8355505b6001600288020188555050505b505050505050565b60006080820190506137506000830187612a5f565b61375d60208301866125d7565b61376a6040830185612a5f565b6137776060830184612a5f565b95945050505050565b600060a0820190506137956000830188612a5f565b6137a26020830187612a5f565b6137af6040830186612a5f565b6137bc6060830185612962565b6137c96080830184612a46565b969550505050505056fea2646970667358221220643002b87115b78f97b81ae2b9650d1645003e9b590b6deb59d0dca554f551bc64736f6c634300081b0033",
  "linkReferences": {},
  "deployedLinkReferences": {}
}