{
  "_format": "hh3-artifact-1",
  "contractName": "Groth16VerifierMTPWrapper",
  "sourceName": "contracts/lib/groth16-verifiers/Groth16VerifierMTPWrapper.sol",
  "abi": [
    {
      "inputs": [
        {
          "internalType": "uint256",
          "name": "expected",
          "type": "uint256"
        },
        {
          "internalType": "uint256",
          "name": "actual",
          "type": "uint256"
        }
      ],
      "name": "ExpectedArrayLength",
      "type": "error"
    },
    {
      "inputs": [
        {
          "internalType": "uint256[2]",
          "name": "a",
          "type": "uint256[2]"
        },
        {
          "internalType": "uint256[2][2]",
          "name": "b",
          "type": "uint256[2][2]"
        },
        {
          "internalType": "uint256[2]",
          "name": "c",
          "type": "uint256[2]"
        },
        {
          "internalType": "uint256[]",
          "name": "signals",
          "type": "uint256[]"
        }
      ],
      "name": "verify",
      "outputs": [
        {
          "internalType": "bool",
          "name": "r",
          "type": "bool"
        }
      ],
      "stateMutability": "view",
      "type": "function"
    },
    {
      "inputs": [
        {
          "internalType": "uint256[2]",
          "name": "_pA",
          "type": "uint256[2]"
        },
        {
          "internalType": "uint256[2][2]",
          "name": "_pB",
          "type": "uint256[2][2]"
        },
        {
          "internalType": "uint256[2]",
          "name": "_pC",
          "type": "uint256[2]"
        },
        {
          "internalType": "uint256[11]",
          "name": "_pubSignals",
          "type": "uint256[11]"
        }
      ],
      "name": "verifyProof",
      "outputs": [
        {
          "internalType": "bool",
          "name": "",
          "type": "bool"
        }
      ],
      "stateMutability": "view",
      "type": "function"
    }
  ],
  "bytecode": "0x6080604052348015600e575f5ffd5b50610e8b8061001c5f395ff3fe608060405234801561000f575f5ffd5b5060043610610034575f3560e01c80632612907c14610038578063b9c6ea8714610068575b5f5ffd5b610052600480360381019061004d9190610a99565b610098565b60405161005f9190610b39565b60405180910390f35b610082600480360381019061007d9190610b73565b6101cb565b60405161008f9190610b39565b60405180910390f35b5f6100a16109cb565b600b84849050146100ef57600b848490506040517f4da7a8b70000000000000000000000000000000000000000000000000000000081526004016100e6929190610bf1565b60405180910390fd5b5f5f90505b600b811015610140578484828181106101105761010f610c18565b5b905060200201358282600b811061012a57610129610c18565b5b60200201818152505080806001019150506100f4565b503073ffffffffffffffffffffffffffffffffffffffff1663b9c6ea87888888856040518563ffffffff1660e01b81526004016101809493929190610dbb565b602060405180830381865afa15801561019b573d5f5f3e3d5ffd5b505050506040513d601f19601f820116820180604052508101906101bf9190610e2a565b91505095945050505050565b5f61090c565b7f30644e72e131a029b85045b68181585d97816a916871ca8d3c208c16d87cfd478110610200575f5f5260205ff35b50565b5f60405183815284602082015285604082015260408160608360076107d05a03fa915081610233575f5f5260205ff35b825160408201526020830151606082015260408360808360066107d05a03fa915081610261575f5f5260205ff35b505050505050565b5f608086015f87017f02e76356c6f5d7f49e6d4f6ec3a93cdc50cc3c271b41a11b21fc6c219031429e81527f21d57a61a975d9eb14e29a76de5ad78404f7db5867e0c49d51e939f1cbdd298d60208201526103095f8801357f23c72bedb38cd965afd5a35233c42c2cd8fa23d2291ced5153eb0945cc42c2707f2b0b7e4eb338e79dc49653f0a32a4acb42d6d65d67d6a8796c8d292012f9914284610203565b61035960208801357f29cbfecbf222d323af8e1c9654292ece38b45352b18200308e6259773dd5457a7f0bc7aa6c1aef693444e35935cea1fa02ceef7c4eb684e0a71c380bd1cbea394684610203565b6103a960408801357f286a77cb393820c524cdd54518ea43d3f27d595bf6a910694a1170fbe35685427f182bf69bce645da388b8fb33616b6c43c48a50c499d07be536520191ef91dc0884610203565b6103f960608801357f105535f6a709c5189e305e1a0c70efb5fae522a60afe6fed5c805dbbc8779e297f198e0c3ad41c05fced9aa2d6e27d9a2c9818b5b88f19c2e698a8648129b6af6a84610203565b61044860808801357f1243fb77067200f806f576091ea92a5281f060234e6fc57df1901b4e3450bb697e9237f01920dbe104631d35579740ad6195073ec934184477efaef11e8ee3aa84610203565b61049860a08801357f2b72e8feb8d4ff6aa248af1456fc4899864b0489b8279a5bb94e5f639a8f1ac67f1b09b7fd32d49bbfe0e15e8258a70ae9ebb9316cef0f9b6feb828a5fc6a2452884610203565b6104e860c08801357f1823654e6782371e622b0629518c890a115d6d2cae9bb2c55180143aa0212bd77f2f894980bdbd71026b861c9c9feaf6cd797e28188a9b4154ba63ce83f36a29f284610203565b61053760e08801357e6a9965248ae4075ea54dc532370d14ff99d0c686fc5c23b82176baf60dbb7b7f013d2f682053227157adb588e8533b32e74b1e042d55f83933244f08650abdbd84610203565b6105886101008801357f1c09ec2c3abe8e173ecbe443fd8e7c2f5ec2024843440235cc1196ee8070f78c7f1c9cc75a83a50251238fc513eea4f2effb5e26d5b592b48250ed3e5c9759179084610203565b6105d96101208801357f0e9f0a02b712bb78f13b08c8a99ded7165ed62f95feb1c4c0573073b63aca9217f18917ec1f1868dadff1a3196e6804296cac2d322e29574a93c37f25e4003c1ca84610203565b61062a6101408801357f0bc5e6897fac05c15be2a6dbe4ab2a5eb0fb51a5d67efb83a582dc5ae2d410e47f1e18dba9927d3c91dbcba83e9cb8f533b2c9c9282fa808f11d5f7bcf404b142f84610203565b833582527f30644e72e131a029b85045b68181585d97816a916871ca8d3c208c16d87cfd4760208501357f30644e72e131a029b85045b68181585d97816a916871ca8d3c208c16d87cfd4703066020830152843560408301526020850135606083015260408501356080830152606085013560a08301527f2d4d9aa7e302d9df41749d5507949d05dbea33fbb16c643b22f599a2be6df2e260c08301527f14bedd503c37ceb061d8ec60209fe345ce89830a19230301f076caff004d192660e08301527f0967032fcbf776d1afc985f88877f182d38480a653f2decaa9794cbc3bf3060c6101008301527f0e187847ad4c798374d0d6732bf501847dd68bc0e071241e0213bc7fc13db7ab6101208301527f304cfbd1e08a704a99f5e847d93f8c3caafddec46b7a0d379da69a4d112346a76101408301527f1739c1b1a457a8c7313123d24d2f9192f896b7c63eea05a9d57f06547ad0cec86101608301525f88015161018083015260205f018801516101a08301527f198e9393920d483a7260bfb731fb5d25f1aa493335a9e71297e485b7aef312c26101c08301527f1800deef121f1e76426a00665e5c4479674322d4f75edadd46debd5cd992f6ed6101e08301527f090689d0585ff075ec9e99ad690c3395bc4b313370b38ef355acdadcd122975b6102008301527f12c85ea5db8c6deb4aab71808dcb408fe3d1e7690c43d37b4ce6cc0166fa7daa610220830152853561024083015260208601356102608301527f1642e1e5564fdfd598d06d6c6c0bcb91104f0b5be1af80ee3a05cbb870931bd56102808301527f2eaa248f26eb631ada70bf8472546eb9deaa6d10d2bbdf452eeac795bcd4cba86102a08301527f0aba69025c669be9ea7cfc27e650a4f33580b7fbed2c8c48254895820422c08f6102c08301527f12ec59350afb7e582f8d6c48d20afe0343cf2396a8af0d260ed0b7e5c0baf1386102e08301526020826103008460086107d05a03fa82518116935050505095945050505050565b60405161038081016040526109235f8401356101d1565b61093060208401356101d1565b61093d60408401356101d1565b61094a60608401356101d1565b61095760808401356101d1565b61096460a08401356101d1565b61097160c08401356101d1565b61097e60e08401356101d1565b61098c6101008401356101d1565b61099a6101208401356101d1565b6109a86101408401356101d1565b6109b66101608401356101d1565b6109c3818486888a610269565b805f5260205ff35b604051806101600160405280600b90602082028036833780820191505090505090565b5f5ffd5b5f5ffd5b5f5ffd5b5f81905082602060020282011115610a1557610a146109f6565b5b92915050565b5f81905082604060020282011115610a3657610a356109f6565b5b92915050565b5f5ffd5b5f5ffd5b5f5f83601f840112610a5957610a58610a3c565b5b8235905067ffffffffffffffff811115610a7657610a75610a40565b5b602083019150836020820283011115610a9257610a916109f6565b5b9250929050565b5f5f5f5f5f6101208688031215610ab357610ab26109ee565b5b5f610ac0888289016109fa565b9550506040610ad188828901610a1b565b94505060c0610ae2888289016109fa565b93505061010086013567ffffffffffffffff811115610b0457610b036109f2565b5b610b1088828901610a44565b92509250509295509295909350565b5f8115159050919050565b610b3381610b1f565b82525050565b5f602082019050610b4c5f830184610b2a565b92915050565b5f819050826020600b0282011115610b6d57610b6c6109f6565b5b92915050565b5f5f5f5f6102608587031215610b8c57610b8b6109ee565b5b5f610b99878288016109fa565b9450506040610baa87828801610a1b565b93505060c0610bbb878288016109fa565b925050610100610bcd87828801610b52565b91505092959194509250565b5f819050919050565b610beb81610bd9565b82525050565b5f604082019050610c045f830185610be2565b610c116020830184610be2565b9392505050565b7f4e487b71000000000000000000000000000000000000000000000000000000005f52603260045260245ffd5b82818337505050565b610c5a60408383610c45565b5050565b5f60029050919050565b5f81905092915050565b5f819050919050565b610c8760408383610c45565b5050565b5f610c968383610c7b565b60408301905092915050565b5f82905092915050565b5f604082019050919050565b610cc181610c5e565b610ccb8184610c68565b9250610cd682610c72565b805f5b83811015610d0e57610ceb8284610ca2565b610cf58782610c8b565b9650610d0083610cac565b925050600181019050610cd9565b505050505050565b5f600b9050919050565b5f81905092915050565b5f819050919050565b610d3c81610bd9565b82525050565b5f610d4d8383610d33565b60208301905092915050565b5f602082019050919050565b610d6e81610d16565b610d788184610d20565b9250610d8382610d2a565b805f5b83811015610db3578151610d9a8782610d42565b9650610da583610d59565b925050600181019050610d86565b505050505050565b5f61026082019050610dcf5f830187610c4e565b610ddc6040830186610cb8565b610de960c0830185610c4e565b610df7610100830184610d65565b95945050505050565b610e0981610b1f565b8114610e13575f5ffd5b50565b5f81519050610e2481610e00565b92915050565b5f60208284031215610e3f57610e3e6109ee565b5b5f610e4c84828501610e16565b9150509291505056fea264697066735822122079b17be9cb5851d5ca9433416451fb72a0020e09103fdffb8f34874cccfe4ab264736f6c634300081b0033",
  "linkReferences": {},
  "deployedLinkReferences": {},
  "immutableReferences": {},
  "inputSourceName": "project/contracts/lib/groth16-verifiers/Groth16VerifierMTPWrapper.sol",
  "buildInfoId": "solc-0_8_27-b671705d74a53b6b2fe696b87862a2c2c3d03377"
}