{
  "_format": "hh-sol-artifact-1",
  "contractName": "MCPayment",
  "sourceName": "contracts/payment/MCPayment.sol",
  "abi": [
    {
      "inputs": [],
      "stateMutability": "nonpayable",
      "type": "constructor"
    },
    {
      "inputs": [],
      "name": "ECDSAInvalidSignatureLength",
      "type": "error"
    },
    {
      "inputs": [],
      "name": "InsufficientAllowanceOnPermit",
      "type": "error"
    },
    {
      "inputs": [],
      "name": "InvalidInitialization",
      "type": "error"
    },
    {
      "inputs": [],
      "name": "InvalidOwnerPercentage",
      "type": "error"
    },
    {
      "inputs": [],
      "name": "InvalidSignature",
      "type": "error"
    },
    {
      "inputs": [],
      "name": "NotInitializing",
      "type": "error"
    },
    {
      "inputs": [
        {
          "internalType": "address",
          "name": "owner",
          "type": "address"
        }
      ],
      "name": "OwnableInvalidOwner",
      "type": "error"
    },
    {
      "inputs": [
        {
          "internalType": "address",
          "name": "account",
          "type": "address"
        }
      ],
      "name": "OwnableUnauthorizedAccount",
      "type": "error"
    },
    {
      "inputs": [
        {
          "internalType": "address",
          "name": "recipient",
          "type": "address"
        },
        {
          "internalType": "uint256",
          "name": "nonce",
          "type": "uint256"
        },
        {
          "internalType": "string",
          "name": "message",
          "type": "string"
        }
      ],
      "name": "PaymentError",
      "type": "error"
    },
    {
      "inputs": [],
      "name": "ReentrancyGuardReentrantCall",
      "type": "error"
    },
    {
      "inputs": [
        {
          "internalType": "address",
          "name": "token",
          "type": "address"
        }
      ],
      "name": "SafeERC20FailedOperation",
      "type": "error"
    },
    {
      "inputs": [],
      "name": "WithdrawError",
      "type": "error"
    },
    {
      "inputs": [],
      "name": "WithdrawErrorInvalidAddress",
      "type": "error"
    },
    {
      "inputs": [],
      "name": "WithdrawErrorNoBalance",
      "type": "error"
    },
    {
      "anonymous": false,
      "inputs": [],
      "name": "EIP712DomainChanged",
      "type": "event"
    },
    {
      "anonymous": false,
      "inputs": [
        {
          "indexed": false,
          "internalType": "uint64",
          "name": "version",
          "type": "uint64"
        }
      ],
      "name": "Initialized",
      "type": "event"
    },
    {
      "anonymous": false,
      "inputs": [
        {
          "indexed": true,
          "internalType": "address",
          "name": "previousOwner",
          "type": "address"
        },
        {
          "indexed": true,
          "internalType": "address",
          "name": "newOwner",
          "type": "address"
        }
      ],
      "name": "OwnershipTransferStarted",
      "type": "event"
    },
    {
      "anonymous": false,
      "inputs": [
        {
          "indexed": true,
          "internalType": "address",
          "name": "previousOwner",
          "type": "address"
        },
        {
          "indexed": true,
          "internalType": "address",
          "name": "newOwner",
          "type": "address"
        }
      ],
      "name": "OwnershipTransferred",
      "type": "event"
    },
    {
      "anonymous": false,
      "inputs": [
        {
          "indexed": true,
          "internalType": "address",
          "name": "recipient",
          "type": "address"
        },
        {
          "indexed": true,
          "internalType": "uint256",
          "name": "nonce",
          "type": "uint256"
        }
      ],
      "name": "Payment",
      "type": "event"
    },
    {
      "inputs": [],
      "name": "DOMAIN_VERSION",
      "outputs": [
        {
          "internalType": "string",
          "name": "",
          "type": "string"
        }
      ],
      "stateMutability": "view",
      "type": "function"
    },
    {
      "inputs": [],
      "name": "ERC_20_PAYMENT_DATA_TYPE_HASH",
      "outputs": [
        {
          "internalType": "bytes32",
          "name": "",
          "type": "bytes32"
        }
      ],
      "stateMutability": "view",
      "type": "function"
    },
    {
      "inputs": [],
      "name": "PAYMENT_DATA_TYPE_HASH",
      "outputs": [
        {
          "internalType": "bytes32",
          "name": "",
          "type": "bytes32"
        }
      ],
      "stateMutability": "view",
      "type": "function"
    },
    {
      "inputs": [],
      "name": "VERSION",
      "outputs": [
        {
          "internalType": "string",
          "name": "",
          "type": "string"
        }
      ],
      "stateMutability": "view",
      "type": "function"
    },
    {
      "inputs": [],
      "name": "acceptOwnership",
      "outputs": [],
      "stateMutability": "nonpayable",
      "type": "function"
    },
    {
      "inputs": [],
      "name": "eip712Domain",
      "outputs": [
        {
          "internalType": "bytes1",
          "name": "fields",
          "type": "bytes1"
        },
        {
          "internalType": "string",
          "name": "name",
          "type": "string"
        },
        {
          "internalType": "string",
          "name": "version",
          "type": "string"
        },
        {
          "internalType": "uint256",
          "name": "chainId",
          "type": "uint256"
        },
        {
          "internalType": "address",
          "name": "verifyingContract",
          "type": "address"
        },
        {
          "internalType": "bytes32",
          "name": "salt",
          "type": "bytes32"
        },
        {
          "internalType": "uint256[]",
          "name": "extensions",
          "type": "uint256[]"
        }
      ],
      "stateMutability": "view",
      "type": "function"
    },
    {
      "inputs": [
        {
          "internalType": "address",
          "name": "issuer",
          "type": "address"
        }
      ],
      "name": "getBalance",
      "outputs": [
        {
          "internalType": "uint256",
          "name": "",
          "type": "uint256"
        }
      ],
      "stateMutability": "view",
      "type": "function"
    },
    {
      "inputs": [
        {
          "internalType": "address",
          "name": "recipient",
          "type": "address"
        }
      ],
      "name": "getIssuerOwnerPercentage",
      "outputs": [
        {
          "internalType": "uint8",
          "name": "",
          "type": "uint8"
        }
      ],
      "stateMutability": "view",
      "type": "function"
    },
    {
      "inputs": [],
      "name": "getOwnerBalance",
      "outputs": [
        {
          "internalType": "uint256",
          "name": "",
          "type": "uint256"
        }
      ],
      "stateMutability": "view",
      "type": "function"
    },
    {
      "inputs": [
        {
          "internalType": "address",
          "name": "token",
          "type": "address"
        }
      ],
      "name": "getOwnerERC20Balance",
      "outputs": [
        {
          "internalType": "uint256",
          "name": "",
          "type": "uint256"
        }
      ],
      "stateMutability": "view",
      "type": "function"
    },
    {
      "inputs": [],
      "name": "getOwnerPercentage",
      "outputs": [
        {
          "internalType": "uint8",
          "name": "",
          "type": "uint8"
        }
      ],
      "stateMutability": "view",
      "type": "function"
    },
    {
      "inputs": [
        {
          "internalType": "address",
          "name": "owner",
          "type": "address"
        },
        {
          "internalType": "uint8",
          "name": "ownerPercentage",
          "type": "uint8"
        }
      ],
      "name": "initialize",
      "outputs": [],
      "stateMutability": "nonpayable",
      "type": "function"
    },
    {
      "inputs": [
        {
          "internalType": "address",
          "name": "issuer",
          "type": "address"
        },
        {
          "internalType": "uint256",
          "name": "nonce",
          "type": "uint256"
        }
      ],
      "name": "isPaymentDone",
      "outputs": [
        {
          "internalType": "bool",
          "name": "",
          "type": "bool"
        }
      ],
      "stateMutability": "view",
      "type": "function"
    },
    {
      "inputs": [],
      "name": "issuerWithdraw",
      "outputs": [],
      "stateMutability": "nonpayable",
      "type": "function"
    },
    {
      "inputs": [],
      "name": "owner",
      "outputs": [
        {
          "internalType": "address",
          "name": "",
          "type": "address"
        }
      ],
      "stateMutability": "view",
      "type": "function"
    },
    {
      "inputs": [
        {
          "internalType": "address",
          "name": "token",
          "type": "address"
        }
      ],
      "name": "ownerERC20Withdraw",
      "outputs": [],
      "stateMutability": "nonpayable",
      "type": "function"
    },
    {
      "inputs": [],
      "name": "ownerWithdraw",
      "outputs": [],
      "stateMutability": "nonpayable",
      "type": "function"
    },
    {
      "inputs": [
        {
          "components": [
            {
              "internalType": "address",
              "name": "recipient",
              "type": "address"
            },
            {
              "internalType": "uint256",
              "name": "amount",
              "type": "uint256"
            },
            {
              "internalType": "uint256",
              "name": "expirationDate",
              "type": "uint256"
            },
            {
              "internalType": "uint256",
              "name": "nonce",
              "type": "uint256"
            },
            {
              "internalType": "bytes",
              "name": "metadata",
              "type": "bytes"
            }
          ],
          "internalType": "struct MCPayment.Iden3PaymentRailsRequestV1",
          "name": "paymentData",
          "type": "tuple"
        },
        {
          "internalType": "bytes",
          "name": "signature",
          "type": "bytes"
        }
      ],
      "name": "pay",
      "outputs": [],
      "stateMutability": "payable",
      "type": "function"
    },
    {
      "inputs": [
        {
          "components": [
            {
              "internalType": "address",
              "name": "tokenAddress",
              "type": "address"
            },
            {
              "internalType": "address",
              "name": "recipient",
              "type": "address"
            },
            {
              "internalType": "uint256",
              "name": "amount",
              "type": "uint256"
            },
            {
              "internalType": "uint256",
              "name": "expirationDate",
              "type": "uint256"
            },
            {
              "internalType": "uint256",
              "name": "nonce",
              "type": "uint256"
            },
            {
              "internalType": "bytes",
              "name": "metadata",
              "type": "bytes"
            }
          ],
          "internalType": "struct MCPayment.Iden3PaymentRailsERC20RequestV1",
          "name": "paymentData",
          "type": "tuple"
        },
        {
          "internalType": "bytes",
          "name": "signature",
          "type": "bytes"
        }
      ],
      "name": "payERC20",
      "outputs": [],
      "stateMutability": "nonpayable",
      "type": "function"
    },
    {
      "inputs": [
        {
          "internalType": "bytes",
          "name": "permitSignature",
          "type": "bytes"
        },
        {
          "components": [
            {
              "internalType": "address",
              "name": "tokenAddress",
              "type": "address"
            },
            {
              "internalType": "address",
              "name": "recipient",
              "type": "address"
            },
            {
              "internalType": "uint256",
              "name": "amount",
              "type": "uint256"
            },
            {
              "internalType": "uint256",
              "name": "expirationDate",
              "type": "uint256"
            },
            {
              "internalType": "uint256",
              "name": "nonce",
              "type": "uint256"
            },
            {
              "internalType": "bytes",
              "name": "metadata",
              "type": "bytes"
            }
          ],
          "internalType": "struct MCPayment.Iden3PaymentRailsERC20RequestV1",
          "name": "paymentData",
          "type": "tuple"
        },
        {
          "internalType": "bytes",
          "name": "signature",
          "type": "bytes"
        }
      ],
      "name": "payERC20Permit",
      "outputs": [],
      "stateMutability": "nonpayable",
      "type": "function"
    },
    {
      "inputs": [],
      "name": "pendingOwner",
      "outputs": [
        {
          "internalType": "address",
          "name": "",
          "type": "address"
        }
      ],
      "stateMutability": "view",
      "type": "function"
    },
    {
      "inputs": [
        {
          "components": [
            {
              "internalType": "address",
              "name": "tokenAddress",
              "type": "address"
            },
            {
              "internalType": "address",
              "name": "recipient",
              "type": "address"
            },
            {
              "internalType": "uint256",
              "name": "amount",
              "type": "uint256"
            },
            {
              "internalType": "uint256",
              "name": "expirationDate",
              "type": "uint256"
            },
            {
              "internalType": "uint256",
              "name": "nonce",
              "type": "uint256"
            },
            {
              "internalType": "bytes",
              "name": "metadata",
              "type": "bytes"
            }
          ],
          "internalType": "struct MCPayment.Iden3PaymentRailsERC20RequestV1",
          "name": "paymentData",
          "type": "tuple"
        },
        {
          "internalType": "bytes",
          "name": "signature",
          "type": "bytes"
        }
      ],
      "name": "recoverIden3PaymentRailsERC20RequestV1Signature",
      "outputs": [
        {
          "internalType": "address",
          "name": "",
          "type": "address"
        }
      ],
      "stateMutability": "view",
      "type": "function"
    },
    {
      "inputs": [
        {
          "components": [
            {
              "internalType": "address",
              "name": "recipient",
              "type": "address"
            },
            {
              "internalType": "uint256",
              "name": "amount",
              "type": "uint256"
            },
            {
              "internalType": "uint256",
              "name": "expirationDate",
              "type": "uint256"
            },
            {
              "internalType": "uint256",
              "name": "nonce",
              "type": "uint256"
            },
            {
              "internalType": "bytes",
              "name": "metadata",
              "type": "bytes"
            }
          ],
          "internalType": "struct MCPayment.Iden3PaymentRailsRequestV1",
          "name": "paymentData",
          "type": "tuple"
        },
        {
          "internalType": "bytes",
          "name": "signature",
          "type": "bytes"
        }
      ],
      "name": "recoverIden3PaymentRailsRequestV1Signature",
      "outputs": [
        {
          "internalType": "address",
          "name": "",
          "type": "address"
        }
      ],
      "stateMutability": "view",
      "type": "function"
    },
    {
      "inputs": [],
      "name": "renounceOwnership",
      "outputs": [],
      "stateMutability": "nonpayable",
      "type": "function"
    },
    {
      "inputs": [
        {
          "internalType": "address",
          "name": "newOwner",
          "type": "address"
        }
      ],
      "name": "transferOwnership",
      "outputs": [],
      "stateMutability": "nonpayable",
      "type": "function"
    },
    {
      "inputs": [
        {
          "internalType": "address",
          "name": "recipient",
          "type": "address"
        },
        {
          "internalType": "uint8",
          "name": "ownerPercentage",
          "type": "uint8"
        }
      ],
      "name": "updateIssuerOwnerPercentage",
      "outputs": [],
      "stateMutability": "nonpayable",
      "type": "function"
    },
    {
      "inputs": [
        {
          "internalType": "uint8",
          "name": "ownerPercentage",
          "type": "uint8"
        }
      ],
      "name": "updateOwnerPercentage",
      "outputs": [],
      "stateMutability": "nonpayable",
      "type": "function"
    }
  ],
  "bytecode": "0x608060405234801561001057600080fd5b5061001f61002460201b60201c565b6101ab565b600061003461012860201b60201c565b90508060000160089054906101000a900460ff161561007f576040517ff92ee8a900000000000000000000000000000000000000000000000000000000815260040160405180910390fd5b67ffffffffffffffff80168160000160009054906101000a900467ffffffffffffffff1667ffffffffffffffff16146101255767ffffffffffffffff8160000160006101000a81548167ffffffffffffffff021916908367ffffffffffffffff1602179055507fc7f505b2f371ae2175ee4913f4499e1f2633a7b5936321eed1cdaeb6115181d267ffffffffffffffff60405161011c9190610190565b60405180910390a15b50565b60008061013961014260201b60201c565b90508091505090565b60007ff0c57e16840df040f15088dc2f81fe391c3923bec73e23a9662efc9c229c6a0060001b905090565b600067ffffffffffffffff82169050919050565b61018a8161016d565b82525050565b60006020820190506101a56000830184610181565b92915050565b613af7806101ba6000396000f3fe60806040526004361061019c5760003560e01c8063aa021669116100ec578063dbe295e71161008a578063f0dd689911610064578063f0dd689914610573578063f2fde38b1461059e578063f8b2cb4f146105c7578063ffa1ad74146106045761019c565b8063dbe295e7146104e2578063e30c39781461051f578063ef0c45321461054a5761019c565b8063c5fd08d1116100c6578063c5fd08d114610426578063c6bfaa3f14610463578063cbec75bb1461048e578063cc9cd961146104cb5761019c565b8063aa021669146103a2578063acb8cc49146103be578063c52f5c83146103e95761019c565b8063590791f21161015957806384b0196e1161013357806384b0196e146102e05780638da5cb5b14610311578063943b24b21461033c5780639d9c12b7146103655761019c565b8063590791f214610287578063715018a6146102b257806379ba5097146102c95761019c565b80630cea58aa146101a15780631af6de2b146101ca578063309a042c146101f35780633dbbdbe51461021e5780634311de8f1461024757806357615a3a1461025e575b600080fd5b3480156101ad57600080fd5b506101c860048036038101906101c3919061280d565b61062f565b005b3480156101d657600080fd5b506101f160048036038101906101ec9190612898565b6106a4565b005b3480156101ff57600080fd5b506102086107fe565b60405161021591906128d4565b60405180910390f35b34801561022a57600080fd5b5061024560048036038101906102409190612b31565b610823565b005b34801561025357600080fd5b5061025c6109f7565b005b34801561026a57600080fd5b5061028560048036038101906102809190612bd8565b610a81565b005b34801561029357600080fd5b5061029c610aae565b6040516102a99190612c5f565b60405180910390f35b3480156102be57600080fd5b506102c7610acf565b005b3480156102d557600080fd5b506102de610ae3565b005b3480156102ec57600080fd5b506102f5610b72565b6040516103089796959493929190612e1a565b60405180910390f35b34801561031d57600080fd5b50610326610c84565b6040516103339190612e9e565b60405180910390f35b34801561034857600080fd5b50610363600480360381019061035e9190612eb9565b610cbc565b005b34801561037157600080fd5b5061038c60048036038101906103879190612ef9565b610f32565b6040516103999190612f54565b60405180910390f35b6103bc60048036038101906103b79190613017565b610f93565b005b3480156103ca57600080fd5b506103d3611239565b6040516103e0919061308f565b60405180910390f35b3480156103f557600080fd5b50610410600480360381019061040b9190612bd8565b611272565b60405161041d9190612e9e565b60405180910390f35b34801561043257600080fd5b5061044d60048036038101906104489190613017565b61133d565b60405161045a9190612e9e565b60405180910390f35b34801561046f57600080fd5b50610478611402565b60405161048591906130b1565b60405180910390f35b34801561049a57600080fd5b506104b560048036038101906104b09190612898565b611426565b6040516104c29190612c5f565b60405180910390f35b3480156104d757600080fd5b506104e06114b1565b005b3480156104ee57600080fd5b5061050960048036038101906105049190612898565b6114d3565b60405161051691906128d4565b60405180910390f35b34801561052b57600080fd5b506105346115ac565b6040516105419190612e9e565b60405180910390f35b34801561055657600080fd5b50610571600480360381019061056c9190612eb9565b6115e4565b005b34801561057f57600080fd5b506105886116f1565b60405161059591906130b1565b60405180910390f35b3480156105aa57600080fd5b506105c560048036038101906105c09190612898565b611715565b005b3480156105d357600080fd5b506105ee60048036038101906105e99190612898565b6117d1565b6040516105fb9190612c5f565b60405180910390f35b34801561061057600080fd5b50610619611828565b604051610626919061308f565b60405180910390f35b610637611861565b8060ff166064811115610676576040517f95bde96e00000000000000000000000000000000000000000000000000000000815260040160405180910390fd5b60006106806118e8565b9050828160020160006101000a81548160ff021916908360ff160217905550505050565b6106ac611861565b6106b4611910565b60008173ffffffffffffffffffffffffffffffffffffffff166370a08231306040518263ffffffff1660e01b81526004016106ef9190612e9e565b602060405180830381865afa15801561070c573d6000803e3d6000fd5b505050506040513d601f19601f8201168201806040525081019061073091906130e1565b90506000810361076c576040517f2c8d747600000000000000000000000000000000000000000000000000000000815260040160405180910390fd5b8173ffffffffffffffffffffffffffffffffffffffff1663a9059cbb610790610c84565b836040518363ffffffff1660e01b81526004016107ae92919061310e565b6020604051808303816000875af11580156107cd573d6000803e3d6000fd5b505050506040513d601f19601f820116820180604052508101906107f19190613163565b50506107fb611967565b50565b6000806108096118e8565b90508060020160009054906101000a900460ff1691505090565b61082b611910565b60006108378383611980565b9050600083600001519050604185511461087d576040517f377d96dd00000000000000000000000000000000000000000000000000000000815260040160405180910390fd5b60008060006020880151925060408801519150606088015160001a90508373ffffffffffffffffffffffffffffffffffffffff1663d505accf33308a604001518b606001518689896040518863ffffffff1660e01b81526004016108e79796959493929190613190565b600060405180830381600087803b15801561090157600080fd5b505af1925050508015610912575060015b6109da5760008473ffffffffffffffffffffffffffffffffffffffff1663dd62ed3e33306040518363ffffffff1660e01b81526004016109539291906131ff565b602060405180830381865afa158015610970573d6000803e3d6000fd5b505050506040513d601f19601f8201168201806040525081019061099491906130e1565b905087604001518110156109d4576040517f7f46728400000000000000000000000000000000000000000000000000000000815260040160405180910390fd5b506109db565b5b6109e58786611a9a565b50505050506109f2611967565b505050565b6109ff611861565b610a07611910565b6000610a116118e8565b90506000816003015403610a51576040517f2c8d747600000000000000000000000000000000000000000000000000000000815260040160405180910390fd5b60008160030154905060008260030181905550610a7581610a70610c84565b611c5c565b5050610a7f611967565b565b610a89611910565b6000610a958383611980565b9050610aa18382611a9a565b50610aaa611967565b5050565b6000610ab8611861565b6000610ac26118e8565b9050806003015491505090565b610ad7611861565b610ae16000611d6a565b565b6000610aed611daa565b90508073ffffffffffffffffffffffffffffffffffffffff16610b0e6115ac565b73ffffffffffffffffffffffffffffffffffffffff1614610b6657806040517f118cdaa7000000000000000000000000000000000000000000000000000000008152600401610b5d9190612e9e565b60405180910390fd5b610b6f81611d6a565b50565b6000606080600080600060606000610b88611db2565b90506000801b8160000154148015610ba657506000801b8160010154145b610be5576040517f08c379a0000000000000000000000000000000000000000000000000000000008152600401610bdc90613274565b60405180910390fd5b610bed611dda565b610bf5611e7b565b46306000801b600067ffffffffffffffff811115610c1657610c1561290a565b5b604051908082528060200260200182016040528015610c445781602001602082028036833780820191505090505b507f0f0000000000000000000000000000000000000000000000000000000000000095949392919097509750975097509750975097505090919293949596565b600080610c8f611f1c565b90508060000160009054906101000a900473ffffffffffffffffffffffffffffffffffffffff1691505090565b6000610cc6611f44565b905060008160000160089054906101000a900460ff1615905060008260000160009054906101000a900467ffffffffffffffff1690506000808267ffffffffffffffff16148015610d145750825b9050600060018367ffffffffffffffff16148015610d49575060003073ffffffffffffffffffffffffffffffffffffffff163b145b905081158015610d57575080155b15610d8e576040517ff92ee8a900000000000000000000000000000000000000000000000000000000815260040160405180910390fd5b60018560000160006101000a81548167ffffffffffffffff021916908367ffffffffffffffff1602179055508315610dde5760018560000160086101000a81548160ff0219169083151502179055505b8560ff166064811115610e1d576040517f95bde96e00000000000000000000000000000000000000000000000000000000815260040160405180910390fd5b6000610e276118e8565b9050878160020160006101000a81548160ff021916908360ff160217905550610e4f89611f58565b610ec36040518060400160405280600981526020017f4d435061796d656e7400000000000000000000000000000000000000000000008152506040518060400160405280600581526020017f312e302e30000000000000000000000000000000000000000000000000000000815250611f6c565b610ecb611f82565b50508315610f295760008560000160086101000a81548160ff0219169083151502179055507fc7f505b2f371ae2175ee4913f4499e1f2633a7b5936321eed1cdaeb6115181d26001604051610f2091906132ed565b60405180910390a15b50505050505050565b600080610f3d6118e8565b90508060000160008585604051602001610f5892919061310e565b60405160208183030381529060405280519060200120815260200190815260200160002060009054906101000a900460ff1691505092915050565b610f9b611910565b6000610fa7838361133d565b90506000818460600151604051602001610fc292919061310e565b6040516020818303038152906040528051906020012090506000610fe46118e8565b905080600001600083815260200190815260200160002060009054906101000a900460ff161561105557846000015185606001516040517fa775848800000000000000000000000000000000000000000000000000000000815260040161104c929190613354565b60405180910390fd5b348560200151146110a757846000015185606001516040517fa775848800000000000000000000000000000000000000000000000000000000815260040161109e9291906133dc565b60405180910390fd5b42856040015110156110fa57846000015185606001516040517fa77584880000000000000000000000000000000000000000000000000000000081526004016110f1929190613464565b60405180910390fd5b600061110986600001516114d3565b9050600060648260ff163461111e91906134cf565b6111289190613540565b9050600081346111389190613571565b9050808460010160008a6000015173ffffffffffffffffffffffffffffffffffffffff1673ffffffffffffffffffffffffffffffffffffffff168152602001908152602001600020600082825461118f91906135a5565b92505081905550818460030160008282546111aa91906135a5565b9250508190555087606001518673ffffffffffffffffffffffffffffffffffffffff167fd4f43975feb89f48dd30cabbb32011045be187d1e11c8ea9faa43efc3528251960405160405180910390a3600184600001600087815260200190815260200160002060006101000a81548160ff021916908315150217905550505050505050611235611967565b5050565b6040518060400160405280600581526020017f312e302e3000000000000000000000000000000000000000000000000000000081525081565b6000807f9ee4c216116cee4389c2d10394489895776e570cfad57a54ddc9f2d5a2f462b4846000015185602001518660400151876060015188608001518960a00151805190602001206040516020016112d197969594939291906135d9565b6040516020818303038152906040528051906020012090506000806112f68386611f94565b9150915081611331576040517f8baa579f00000000000000000000000000000000000000000000000000000000815260040160405180910390fd5b80935050505092915050565b6000807f7d9b223c9f364814bf77fd331ce600482bed3df6cd9a9f7c4fec9cb56d046a12846000015185602001518660400151876060015188608001518051906020012060405160200161139696959493929190613648565b6040516020818303038152906040528051906020012090506000806113bb8386611f94565b91509150816113f6576040517f8baa579f00000000000000000000000000000000000000000000000000000000815260040160405180910390fd5b80935050505092915050565b7f9ee4c216116cee4389c2d10394489895776e570cfad57a54ddc9f2d5a2f462b481565b6000611430611861565b8173ffffffffffffffffffffffffffffffffffffffff166370a08231306040518263ffffffff1660e01b81526004016114699190612e9e565b602060405180830381865afa158015611486573d6000803e3d6000fd5b505050506040513d601f19601f820116820180604052508101906114aa91906130e1565b9050919050565b6114b9611910565b6114c96114c4611daa565b611ff6565b6114d1611967565b565b6000806114de6118e8565b905060008160040160008573ffffffffffffffffffffffffffffffffffffffff1673ffffffffffffffffffffffffffffffffffffffff16815260200190815260200160002060009054906101000a900460ff16905080611553578160020160009054906101000a900460ff16925050506115a7565b8160050160008573ffffffffffffffffffffffffffffffffffffffff1673ffffffffffffffffffffffffffffffffffffffff16815260200190815260200160002060009054906101000a900460ff16925050505b919050565b6000806115b76120d8565b90508060000160009054906101000a900473ffffffffffffffffffffffffffffffffffffffff1691505090565b6115ec611861565b8060ff16606481111561162b576040517f95bde96e00000000000000000000000000000000000000000000000000000000815260040160405180910390fd5b60006116356118e8565b9050828160050160008673ffffffffffffffffffffffffffffffffffffffff1673ffffffffffffffffffffffffffffffffffffffff16815260200190815260200160002060006101000a81548160ff021916908360ff16021790555060018160040160008673ffffffffffffffffffffffffffffffffffffffff1673ffffffffffffffffffffffffffffffffffffffff16815260200190815260200160002060006101000a81548160ff02191690831515021790555050505050565b7f7d9b223c9f364814bf77fd331ce600482bed3df6cd9a9f7c4fec9cb56d046a1281565b61171d611861565b60006117276120d8565b9050818160000160006101000a81548173ffffffffffffffffffffffffffffffffffffffff021916908373ffffffffffffffffffffffffffffffffffffffff1602179055508173ffffffffffffffffffffffffffffffffffffffff1661178b610c84565b73ffffffffffffffffffffffffffffffffffffffff167f38d16b8cac22d99fc7c124b9cd0de2d3fa1faef420bfe791d8c362d765e2270060405160405180910390a35050565b6000806117dc6118e8565b90508060010160008473ffffffffffffffffffffffffffffffffffffffff1673ffffffffffffffffffffffffffffffffffffffff16815260200190815260200160002054915050919050565b6040518060400160405280600581526020017f312e302e3500000000000000000000000000000000000000000000000000000081525081565b611869611daa565b73ffffffffffffffffffffffffffffffffffffffff16611887610c84565b73ffffffffffffffffffffffffffffffffffffffff16146118e6576118aa611daa565b6040517f118cdaa70000000000000000000000000000000000000000000000000000000081526004016118dd9190612e9e565b60405180910390fd5b565b60007f843c93f996398391e581389b674681e6ea27a4f9a96390a9d8ecb41cf0226300905090565b600061191a612100565b9050600281600001540361195a576040517f3ee5aeb500000000000000000000000000000000000000000000000000000000815260040160405180910390fd5b6002816000018190555050565b6000611971612100565b90506001816000018190555050565b60008061198d8484611272565b905060008185608001516040516020016119a892919061310e565b60405160208183030381529060405280519060200120905060006119ca6118e8565b905080600001600083815260200190815260200160002060009054906101000a900460ff1615611a3b57856020015186608001516040517fa7758488000000000000000000000000000000000000000000000000000000008152600401611a32929190613354565b60405180910390fd5b4286606001511015611a8e57856020015186608001516040517fa7758488000000000000000000000000000000000000000000000000000000008152600401611a85929190613464565b60405180910390fd5b82935050505092915050565b600082600001519050611ad4333085604001518473ffffffffffffffffffffffffffffffffffffffff16612128909392919063ffffffff16565b6000611ade6118e8565b90506000611aef85602001516114d3565b9050600060648260ff168760400151611b0891906134cf565b611b129190613540565b90506000818760400151611b269190613571565b90508473ffffffffffffffffffffffffffffffffffffffff1663a9059cbb8860200151836040518363ffffffff1660e01b8152600401611b6792919061310e565b6020604051808303816000875af1158015611b86573d6000803e3d6000fd5b505050506040513d601f19601f82011682018060405250810190611baa9190613163565b5086608001518673ffffffffffffffffffffffffffffffffffffffff167fd4f43975feb89f48dd30cabbb32011045be187d1e11c8ea9faa43efc3528251960405160405180910390a36000868860800151604051602001611c0c92919061310e565b604051602081830303815290604052805190602001209050600185600001600083815260200190815260200160002060006101000a81548160ff0219169083151502179055505050505050505050565b600073ffffffffffffffffffffffffffffffffffffffff168173ffffffffffffffffffffffffffffffffffffffff1603611cc2576040517f3093ea0700000000000000000000000000000000000000000000000000000000815260040160405180910390fd5b60008173ffffffffffffffffffffffffffffffffffffffff1683604051611ce8906136da565b60006040518083038185875af1925050503d8060008114611d25576040519150601f19603f3d011682016040523d82523d6000602084013e611d2a565b606091505b5050905080611d65576040517fd477157400000000000000000000000000000000000000000000000000000000815260040160405180910390fd5b505050565b6000611d746120d8565b90508060000160006101000a81549073ffffffffffffffffffffffffffffffffffffffff0219169055611da6826121aa565b5050565b600033905090565b60007fa16a46d94261c7517cc8ff89f61c0ce93598e3c849801011dee649a6a557d100905090565b60606000611de6611db2565b9050806002018054611df79061371e565b80601f0160208091040260200160405190810160405280929190818152602001828054611e239061371e565b8015611e705780601f10611e4557610100808354040283529160200191611e70565b820191906000526020600020905b815481529060010190602001808311611e5357829003601f168201915b505050505091505090565b60606000611e87611db2565b9050806003018054611e989061371e565b80601f0160208091040260200160405190810160405280929190818152602001828054611ec49061371e565b8015611f115780601f10611ee657610100808354040283529160200191611f11565b820191906000526020600020905b815481529060010190602001808311611ef457829003601f168201915b505050505091505090565b60007f9016d09d72d40fdae2fd8ceac6b6234c7706214fd39c1cd1e609a0528c199300905090565b600080611f4f612281565b90508091505090565b611f606122ac565b611f69816122ec565b50565b611f746122ac565b611f7e8282612372565b5050565b611f8a6122ac565b611f926123c7565b565b6000806000611fa2856123e8565b9050600080611fba868461240290919063ffffffff16565b509150915060006003811115611fd357611fd261374f565b5b816003811115611fe657611fe561374f565b5b1482945094505050509250929050565b60006120006118e8565b905060008160010160008473ffffffffffffffffffffffffffffffffffffffff1673ffffffffffffffffffffffffffffffffffffffff16815260200190815260200160002054905060008103612082576040517f2c8d747600000000000000000000000000000000000000000000000000000000815260040160405180910390fd5b60008260010160008573ffffffffffffffffffffffffffffffffffffffff1673ffffffffffffffffffffffffffffffffffffffff168152602001908152602001600020819055506120d38184611c5c565b505050565b60007f237e158222e3e6968b72b9db0d8043aacf074ad9f650f0d1606b4d82ee432c00905090565b60007f9b779b17422d0df92223018b32b4d1fa46e071723d6817e2486d003becc55f00905090565b6121a4848573ffffffffffffffffffffffffffffffffffffffff166323b872dd86868660405160240161215d9392919061377e565b604051602081830303815290604052915060e01b6020820180517bffffffffffffffffffffffffffffffffffffffffffffffffffffffff838183161783525050505061245e565b50505050565b60006121b4611f1c565b905060008160000160009054906101000a900473ffffffffffffffffffffffffffffffffffffffff169050828260000160006101000a81548173ffffffffffffffffffffffffffffffffffffffff021916908373ffffffffffffffffffffffffffffffffffffffff1602179055508273ffffffffffffffffffffffffffffffffffffffff168173ffffffffffffffffffffffffffffffffffffffff167f8be0079c531659141344cd1fd0a4f28419497f9722a3daafe3b4186f6b6457e060405160405180910390a3505050565b60007ff0c57e16840df040f15088dc2f81fe391c3923bec73e23a9662efc9c229c6a0060001b905090565b6122b4612500565b6122ea576040517fd7e6bcf800000000000000000000000000000000000000000000000000000000815260040160405180910390fd5b565b6122f46122ac565b600073ffffffffffffffffffffffffffffffffffffffff168173ffffffffffffffffffffffffffffffffffffffff16036123665760006040517f1e4fbdf700000000000000000000000000000000000000000000000000000000815260040161235d9190612e9e565b60405180910390fd5b61236f81611d6a565b50565b61237a6122ac565b6000612384611db2565b9050828160020190816123979190613957565b50818160030190816123a99190613957565b506000801b81600001819055506000801b8160010181905550505050565b6123cf6122ac565b60006123d9612100565b90506001816000018190555050565b60006123fb6123f5612520565b8361252f565b9050919050565b600080600060418451036124475760008060006020870151925060408701519150606087015160001a905061243988828585612570565b955095509550505050612457565b60006002855160001b9250925092505b9250925092565b600080602060008451602086016000885af180612481576040513d6000823e3d81fd5b3d92506000519150506000821461249c5760018114156124b8565b60008473ffffffffffffffffffffffffffffffffffffffff163b145b156124fa57836040517f5274afe70000000000000000000000000000000000000000000000000000000081526004016124f19190612e9e565b60405180910390fd5b50505050565b600061250a611f44565b60000160089054906101000a900460ff16905090565b600061252a612664565b905090565b60006040517f190100000000000000000000000000000000000000000000000000000000000081528360028201528260228201526042812091505092915050565b60008060007f7fffffffffffffffffffffffffffffff5d576e7357a4501ddfe92f46681b20a08460001c11156125b057600060038592509250925061265a565b6000600188888888604051600081526020016040526040516125d59493929190613a29565b6020604051602081039080840390855afa1580156125f7573d6000803e3d6000fd5b505050602060405103519050600073ffffffffffffffffffffffffffffffffffffffff168173ffffffffffffffffffffffffffffffffffffffff160361264b57600060016000801b9350935093505061265a565b8060008060001b935093509350505b9450945094915050565b60007f8b73c3c69bb8fe3d512ecc4cf759cc79239f7b179b0ffacaa9a75d522b39400f61268f6126c8565b612697612744565b46306040516020016126ad959493929190613a6e565b60405160208183030381529060405280519060200120905090565b6000806126d3611db2565b905060006126df611dda565b90506000815111156126fc57808051906020012092505050612741565b6000826000015490506000801b811461271a57809350505050612741565b7fc5d2460186f7233c927e7db2dcc703c0e500b653ca82273b7bfad8045d85a47093505050505b90565b60008061274f611db2565b9050600061275b611e7b565b9050600081511115612778578080519060200120925050506127bd565b6000826001015490506000801b8114612796578093505050506127bd565b7fc5d2460186f7233c927e7db2dcc703c0e500b653ca82273b7bfad8045d85a47093505050505b90565b6000604051905090565b600080fd5b600080fd5b600060ff82169050919050565b6127ea816127d4565b81146127f557600080fd5b50565b600081359050612807816127e1565b92915050565b600060208284031215612823576128226127ca565b5b6000612831848285016127f8565b91505092915050565b600073ffffffffffffffffffffffffffffffffffffffff82169050919050565b60006128658261283a565b9050919050565b6128758161285a565b811461288057600080fd5b50565b6000813590506128928161286c565b92915050565b6000602082840312156128ae576128ad6127ca565b5b60006128bc84828501612883565b91505092915050565b6128ce816127d4565b82525050565b60006020820190506128e960008301846128c5565b92915050565b600080fd5b600080fd5b6000601f19601f8301169050919050565b7f4e487b7100000000000000000000000000000000000000000000000000000000600052604160045260246000fd5b612942826128f9565b810181811067ffffffffffffffff821117156129615761296061290a565b5b80604052505050565b60006129746127c0565b90506129808282612939565b919050565b600067ffffffffffffffff8211156129a05761299f61290a565b5b6129a9826128f9565b9050602081019050919050565b82818337600083830152505050565b60006129d86129d384612985565b61296a565b9050828152602081018484840111156129f4576129f36128f4565b5b6129ff8482856129b6565b509392505050565b600082601f830112612a1c57612a1b6128ef565b5b8135612a2c8482602086016129c5565b91505092915050565b600080fd5b600080fd5b6000819050919050565b612a5281612a3f565b8114612a5d57600080fd5b50565b600081359050612a6f81612a49565b92915050565b600060c08284031215612a8b57612a8a612a35565b5b612a9560c061296a565b90506000612aa584828501612883565b6000830152506020612ab984828501612883565b6020830152506040612acd84828501612a60565b6040830152506060612ae184828501612a60565b6060830152506080612af584828501612a60565b60808301525060a082013567ffffffffffffffff811115612b1957612b18612a3a565b5b612b2584828501612a07565b60a08301525092915050565b600080600060608486031215612b4a57612b496127ca565b5b600084013567ffffffffffffffff811115612b6857612b676127cf565b5b612b7486828701612a07565b935050602084013567ffffffffffffffff811115612b9557612b946127cf565b5b612ba186828701612a75565b925050604084013567ffffffffffffffff811115612bc257612bc16127cf565b5b612bce86828701612a07565b9150509250925092565b60008060408385031215612bef57612bee6127ca565b5b600083013567ffffffffffffffff811115612c0d57612c0c6127cf565b5b612c1985828601612a75565b925050602083013567ffffffffffffffff811115612c3a57612c396127cf565b5b612c4685828601612a07565b9150509250929050565b612c5981612a3f565b82525050565b6000602082019050612c746000830184612c50565b92915050565b60007fff0000000000000000000000000000000000000000000000000000000000000082169050919050565b612caf81612c7a565b82525050565b600081519050919050565b600082825260208201905092915050565b60005b83811015612cef578082015181840152602081019050612cd4565b60008484015250505050565b6000612d0682612cb5565b612d108185612cc0565b9350612d20818560208601612cd1565b612d29816128f9565b840191505092915050565b612d3d8161285a565b82525050565b6000819050919050565b612d5681612d43565b82525050565b600081519050919050565b600082825260208201905092915050565b6000819050602082019050919050565b612d9181612a3f565b82525050565b6000612da38383612d88565b60208301905092915050565b6000602082019050919050565b6000612dc782612d5c565b612dd18185612d67565b9350612ddc83612d78565b8060005b83811015612e0d578151612df48882612d97565b9750612dff83612daf565b925050600181019050612de0565b5085935050505092915050565b600060e082019050612e2f600083018a612ca6565b8181036020830152612e418189612cfb565b90508181036040830152612e558188612cfb565b9050612e646060830187612c50565b612e716080830186612d34565b612e7e60a0830185612d4d565b81810360c0830152612e908184612dbc565b905098975050505050505050565b6000602082019050612eb36000830184612d34565b92915050565b60008060408385031215612ed057612ecf6127ca565b5b6000612ede85828601612883565b9250506020612eef858286016127f8565b9150509250929050565b60008060408385031215612f1057612f0f6127ca565b5b6000612f1e85828601612883565b9250506020612f2f85828601612a60565b9150509250929050565b60008115159050919050565b612f4e81612f39565b82525050565b6000602082019050612f696000830184612f45565b92915050565b600060a08284031215612f8557612f84612a35565b5b612f8f60a061296a565b90506000612f9f84828501612883565b6000830152506020612fb384828501612a60565b6020830152506040612fc784828501612a60565b6040830152506060612fdb84828501612a60565b606083015250608082013567ffffffffffffffff811115612fff57612ffe612a3a565b5b61300b84828501612a07565b60808301525092915050565b6000806040838503121561302e5761302d6127ca565b5b600083013567ffffffffffffffff81111561304c5761304b6127cf565b5b61305885828601612f6f565b925050602083013567ffffffffffffffff811115613079576130786127cf565b5b61308585828601612a07565b9150509250929050565b600060208201905081810360008301526130a98184612cfb565b905092915050565b60006020820190506130c66000830184612d4d565b92915050565b6000815190506130db81612a49565b92915050565b6000602082840312156130f7576130f66127ca565b5b6000613105848285016130cc565b91505092915050565b60006040820190506131236000830185612d34565b6131306020830184612c50565b9392505050565b61314081612f39565b811461314b57600080fd5b50565b60008151905061315d81613137565b92915050565b600060208284031215613179576131786127ca565b5b60006131878482850161314e565b91505092915050565b600060e0820190506131a5600083018a612d34565b6131b26020830189612d34565b6131bf6040830188612c50565b6131cc6060830187612c50565b6131d960808301866128c5565b6131e660a0830185612d4d565b6131f360c0830184612d4d565b98975050505050505050565b60006040820190506132146000830185612d34565b6132216020830184612d34565b9392505050565b7f4549503731323a20556e696e697469616c697a65640000000000000000000000600082015250565b600061325e601583612cc0565b915061326982613228565b602082019050919050565b6000602082019050818103600083015261328d81613251565b9050919050565b6000819050919050565b600067ffffffffffffffff82169050919050565b6000819050919050565b60006132d76132d26132cd84613294565b6132b2565b61329e565b9050919050565b6132e7816132bc565b82525050565b600060208201905061330260008301846132de565b92915050565b7f4d435061796d656e743a207061796d656e7420616c7265616479207061696400600082015250565b600061333e601f83612cc0565b915061334982613308565b602082019050919050565b60006060820190506133696000830185612d34565b6133766020830184612c50565b818103604083015261338781613331565b90509392505050565b7f4d435061796d656e743a20696e76616c6964207061796d656e742076616c7565600082015250565b60006133c6602083612cc0565b91506133d182613390565b602082019050919050565b60006060820190506133f16000830185612d34565b6133fe6020830184612c50565b818103604083015261340f816133b9565b90509392505050565b7f4d435061796d656e743a207061796d656e742065787069726564000000000000600082015250565b600061344e601a83612cc0565b915061345982613418565b602082019050919050565b60006060820190506134796000830185612d34565b6134866020830184612c50565b818103604083015261349781613441565b90509392505050565b7f4e487b7100000000000000000000000000000000000000000000000000000000600052601160045260246000fd5b60006134da82612a3f565b91506134e583612a3f565b92508282026134f381612a3f565b9150828204841483151761350a576135096134a0565b5b5092915050565b7f4e487b7100000000000000000000000000000000000000000000000000000000600052601260045260246000fd5b600061354b82612a3f565b915061355683612a3f565b92508261356657613565613511565b5b828204905092915050565b600061357c82612a3f565b915061358783612a3f565b925082820390508181111561359f5761359e6134a0565b5b92915050565b60006135b082612a3f565b91506135bb83612a3f565b92508282019050808211156135d3576135d26134a0565b5b92915050565b600060e0820190506135ee600083018a612d4d565b6135fb6020830189612d34565b6136086040830188612d34565b6136156060830187612c50565b6136226080830186612c50565b61362f60a0830185612c50565b61363c60c0830184612d4d565b98975050505050505050565b600060c08201905061365d6000830189612d4d565b61366a6020830188612d34565b6136776040830187612c50565b6136846060830186612c50565b6136916080830185612c50565b61369e60a0830184612d4d565b979650505050505050565b600081905092915050565b50565b60006136c46000836136a9565b91506136cf826136b4565b600082019050919050565b60006136e5826136b7565b9150819050919050565b7f4e487b7100000000000000000000000000000000000000000000000000000000600052602260045260246000fd5b6000600282049050600182168061373657607f821691505b602082108103613749576137486136ef565b5b50919050565b7f4e487b7100000000000000000000000000000000000000000000000000000000600052602160045260246000fd5b60006060820190506137936000830186612d34565b6137a06020830185612d34565b6137ad6040830184612c50565b949350505050565b60008190508160005260206000209050919050565b60006020601f8301049050919050565b600082821b905092915050565b6000600883026138177fffffffffffffffffffffffffffffffffffffffffffffffffffffffffffffffff826137da565b61382186836137da565b95508019841693508086168417925050509392505050565b600061385461384f61384a84612a3f565b6132b2565b612a3f565b9050919050565b6000819050919050565b61386e83613839565b61388261387a8261385b565b8484546137e7565b825550505050565b600090565b61389761388a565b6138a2818484613865565b505050565b5b818110156138c6576138bb60008261388f565b6001810190506138a8565b5050565b601f82111561390b576138dc816137b5565b6138e5846137ca565b810160208510156138f4578190505b613908613900856137ca565b8301826138a7565b50505b505050565b600082821c905092915050565b600061392e60001984600802613910565b1980831691505092915050565b6000613947838361391d565b9150826002028217905092915050565b61396082612cb5565b67ffffffffffffffff8111156139795761397861290a565b5b613983825461371e565b61398e8282856138ca565b600060209050601f8311600181146139c157600084156139af578287015190505b6139b9858261393b565b865550613a21565b601f1984166139cf866137b5565b60005b828110156139f7578489015182556001820191506020850194506020810190506139d2565b86831015613a145784890151613a10601f89168261391d565b8355505b6001600288020188555050505b505050505050565b6000608082019050613a3e6000830187612d4d565b613a4b60208301866128c5565b613a586040830185612d4d565b613a656060830184612d4d565b95945050505050565b600060a082019050613a836000830188612d4d565b613a906020830187612d4d565b613a9d6040830186612d4d565b613aaa6060830185612c50565b613ab76080830184612d34565b969550505050505056fea2646970667358221220230bd10eaab0c01a0311cb7889ca75ab234345077e2102155d42b33cebe096ef64736f6c634300081b0033",
  "linkReferences": {},
  "deployedLinkReferences": {}
}