{
  "_format": "hh-sol-artifact-1",
  "contractName": "StateV2_0_abi_2_1",
  "sourceName": "contracts/state/StateV2_0_abi_2_1.sol",
  "abi": [
    {
      "anonymous": false,
      "inputs": [
        {
          "indexed": false,
          "internalType": "uint8",
          "name": "version",
          "type": "uint8"
        }
      ],
      "name": "Initialized",
      "type": "event"
    },
    {
      "anonymous": false,
      "inputs": [
        {
          "indexed": true,
          "internalType": "address",
          "name": "previousOwner",
          "type": "address"
        },
        {
          "indexed": true,
          "internalType": "address",
          "name": "newOwner",
          "type": "address"
        }
      ],
      "name": "OwnershipTransferred",
      "type": "event"
    },
    {
      "anonymous": false,
      "inputs": [
        {
          "indexed": false,
          "internalType": "uint256",
          "name": "id",
          "type": "uint256"
        },
        {
          "indexed": false,
          "internalType": "uint256",
          "name": "blockN",
          "type": "uint256"
        },
        {
          "indexed": false,
          "internalType": "uint256",
          "name": "timestamp",
          "type": "uint256"
        },
        {
          "indexed": false,
          "internalType": "uint256",
          "name": "state",
          "type": "uint256"
        }
      ],
      "name": "StateUpdated",
      "type": "event"
    },
    {
      "inputs": [],
      "name": "ID_HISTORY_RETURN_LIMIT",
      "outputs": [
        {
          "internalType": "uint256",
          "name": "",
          "type": "uint256"
        }
      ],
      "stateMutability": "view",
      "type": "function"
    },
    {
      "inputs": [],
      "name": "VERSION",
      "outputs": [
        {
          "internalType": "string",
          "name": "",
          "type": "string"
        }
      ],
      "stateMutability": "view",
      "type": "function"
    },
    {
      "inputs": [
        {
          "internalType": "uint256",
          "name": "id",
          "type": "uint256"
        }
      ],
      "name": "getGISTProof",
      "outputs": [
        {
          "components": [
            {
              "internalType": "uint256",
              "name": "root",
              "type": "uint256"
            },
            {
              "internalType": "bool",
              "name": "existence",
              "type": "bool"
            },
            {
              "internalType": "uint256[64]",
              "name": "siblings",
              "type": "uint256[64]"
            },
            {
              "internalType": "uint256",
              "name": "index",
              "type": "uint256"
            },
            {
              "internalType": "uint256",
              "name": "value",
              "type": "uint256"
            },
            {
              "internalType": "bool",
              "name": "auxExistence",
              "type": "bool"
            },
            {
              "internalType": "uint256",
              "name": "auxIndex",
              "type": "uint256"
            },
            {
              "internalType": "uint256",
              "name": "auxValue",
              "type": "uint256"
            }
          ],
          "internalType": "struct Smt.Proof",
          "name": "",
          "type": "tuple"
        }
      ],
      "stateMutability": "view",
      "type": "function"
    },
    {
      "inputs": [
        {
          "internalType": "uint256",
          "name": "id",
          "type": "uint256"
        },
        {
          "internalType": "uint256",
          "name": "blockNumber",
          "type": "uint256"
        }
      ],
      "name": "getGISTProofByBlock",
      "outputs": [
        {
          "components": [
            {
              "internalType": "uint256",
              "name": "root",
              "type": "uint256"
            },
            {
              "internalType": "bool",
              "name": "existence",
              "type": "bool"
            },
            {
              "internalType": "uint256[64]",
              "name": "siblings",
              "type": "uint256[64]"
            },
            {
              "internalType": "uint256",
              "name": "index",
              "type": "uint256"
            },
            {
              "internalType": "uint256",
              "name": "value",
              "type": "uint256"
            },
            {
              "internalType": "bool",
              "name": "auxExistence",
              "type": "bool"
            },
            {
              "internalType": "uint256",
              "name": "auxIndex",
              "type": "uint256"
            },
            {
              "internalType": "uint256",
              "name": "auxValue",
              "type": "uint256"
            }
          ],
          "internalType": "struct Smt.Proof",
          "name": "",
          "type": "tuple"
        }
      ],
      "stateMutability": "view",
      "type": "function"
    },
    {
      "inputs": [
        {
          "internalType": "uint256",
          "name": "id",
          "type": "uint256"
        },
        {
          "internalType": "uint256",
          "name": "root",
          "type": "uint256"
        }
      ],
      "name": "getGISTProofByRoot",
      "outputs": [
        {
          "components": [
            {
              "internalType": "uint256",
              "name": "root",
              "type": "uint256"
            },
            {
              "internalType": "bool",
              "name": "existence",
              "type": "bool"
            },
            {
              "internalType": "uint256[64]",
              "name": "siblings",
              "type": "uint256[64]"
            },
            {
              "internalType": "uint256",
              "name": "index",
              "type": "uint256"
            },
            {
              "internalType": "uint256",
              "name": "value",
              "type": "uint256"
            },
            {
              "internalType": "bool",
              "name": "auxExistence",
              "type": "bool"
            },
            {
              "internalType": "uint256",
              "name": "auxIndex",
              "type": "uint256"
            },
            {
              "internalType": "uint256",
              "name": "auxValue",
              "type": "uint256"
            }
          ],
          "internalType": "struct Smt.Proof",
          "name": "",
          "type": "tuple"
        }
      ],
      "stateMutability": "view",
      "type": "function"
    },
    {
      "inputs": [
        {
          "internalType": "uint256",
          "name": "id",
          "type": "uint256"
        },
        {
          "internalType": "uint256",
          "name": "timestamp",
          "type": "uint256"
        }
      ],
      "name": "getGISTProofByTime",
      "outputs": [
        {
          "components": [
            {
              "internalType": "uint256",
              "name": "root",
              "type": "uint256"
            },
            {
              "internalType": "bool",
              "name": "existence",
              "type": "bool"
            },
            {
              "internalType": "uint256[64]",
              "name": "siblings",
              "type": "uint256[64]"
            },
            {
              "internalType": "uint256",
              "name": "index",
              "type": "uint256"
            },
            {
              "internalType": "uint256",
              "name": "value",
              "type": "uint256"
            },
            {
              "internalType": "bool",
              "name": "auxExistence",
              "type": "bool"
            },
            {
              "internalType": "uint256",
              "name": "auxIndex",
              "type": "uint256"
            },
            {
              "internalType": "uint256",
              "name": "auxValue",
              "type": "uint256"
            }
          ],
          "internalType": "struct Smt.Proof",
          "name": "",
          "type": "tuple"
        }
      ],
      "stateMutability": "view",
      "type": "function"
    },
    {
      "inputs": [],
      "name": "getGISTRoot",
      "outputs": [
        {
          "internalType": "uint256",
          "name": "",
          "type": "uint256"
        }
      ],
      "stateMutability": "view",
      "type": "function"
    },
    {
      "inputs": [
        {
          "internalType": "uint256",
          "name": "start",
          "type": "uint256"
        },
        {
          "internalType": "uint256",
          "name": "length",
          "type": "uint256"
        }
      ],
      "name": "getGISTRootHistory",
      "outputs": [
        {
          "components": [
            {
              "internalType": "uint256",
              "name": "root",
              "type": "uint256"
            },
            {
              "internalType": "uint256",
              "name": "replacedByRoot",
              "type": "uint256"
            },
            {
              "internalType": "uint256",
              "name": "createdAtTimestamp",
              "type": "uint256"
            },
            {
              "internalType": "uint256",
              "name": "replacedAtTimestamp",
              "type": "uint256"
            },
            {
              "internalType": "uint256",
              "name": "createdAtBlock",
              "type": "uint256"
            },
            {
              "internalType": "uint256",
              "name": "replacedAtBlock",
              "type": "uint256"
            }
          ],
          "internalType": "struct Smt.RootInfo[]",
          "name": "",
          "type": "tuple[]"
        }
      ],
      "stateMutability": "view",
      "type": "function"
    },
    {
      "inputs": [],
      "name": "getGISTRootHistoryLength",
      "outputs": [
        {
          "internalType": "uint256",
          "name": "",
          "type": "uint256"
        }
      ],
      "stateMutability": "view",
      "type": "function"
    },
    {
      "inputs": [
        {
          "internalType": "uint256",
          "name": "root",
          "type": "uint256"
        }
      ],
      "name": "getGISTRootInfo",
      "outputs": [
        {
          "components": [
            {
              "internalType": "uint256",
              "name": "root",
              "type": "uint256"
            },
            {
              "internalType": "uint256",
              "name": "replacedByRoot",
              "type": "uint256"
            },
            {
              "internalType": "uint256",
              "name": "createdAtTimestamp",
              "type": "uint256"
            },
            {
              "internalType": "uint256",
              "name": "replacedAtTimestamp",
              "type": "uint256"
            },
            {
              "internalType": "uint256",
              "name": "createdAtBlock",
              "type": "uint256"
            },
            {
              "internalType": "uint256",
              "name": "replacedAtBlock",
              "type": "uint256"
            }
          ],
          "internalType": "struct Smt.RootInfo",
          "name": "",
          "type": "tuple"
        }
      ],
      "stateMutability": "view",
      "type": "function"
    },
    {
      "inputs": [
        {
          "internalType": "uint256",
          "name": "blockNumber",
          "type": "uint256"
        }
      ],
      "name": "getGISTRootInfoByBlock",
      "outputs": [
        {
          "components": [
            {
              "internalType": "uint256",
              "name": "root",
              "type": "uint256"
            },
            {
              "internalType": "uint256",
              "name": "replacedByRoot",
              "type": "uint256"
            },
            {
              "internalType": "uint256",
              "name": "createdAtTimestamp",
              "type": "uint256"
            },
            {
              "internalType": "uint256",
              "name": "replacedAtTimestamp",
              "type": "uint256"
            },
            {
              "internalType": "uint256",
              "name": "createdAtBlock",
              "type": "uint256"
            },
            {
              "internalType": "uint256",
              "name": "replacedAtBlock",
              "type": "uint256"
            }
          ],
          "internalType": "struct Smt.RootInfo",
          "name": "",
          "type": "tuple"
        }
      ],
      "stateMutability": "view",
      "type": "function"
    },
    {
      "inputs": [
        {
          "internalType": "uint256",
          "name": "timestamp",
          "type": "uint256"
        }
      ],
      "name": "getGISTRootInfoByTime",
      "outputs": [
        {
          "components": [
            {
              "internalType": "uint256",
              "name": "root",
              "type": "uint256"
            },
            {
              "internalType": "uint256",
              "name": "replacedByRoot",
              "type": "uint256"
            },
            {
              "internalType": "uint256",
              "name": "createdAtTimestamp",
              "type": "uint256"
            },
            {
              "internalType": "uint256",
              "name": "replacedAtTimestamp",
              "type": "uint256"
            },
            {
              "internalType": "uint256",
              "name": "createdAtBlock",
              "type": "uint256"
            },
            {
              "internalType": "uint256",
              "name": "replacedAtBlock",
              "type": "uint256"
            }
          ],
          "internalType": "struct Smt.RootInfo",
          "name": "",
          "type": "tuple"
        }
      ],
      "stateMutability": "view",
      "type": "function"
    },
    {
      "inputs": [
        {
          "internalType": "uint256",
          "name": "id",
          "type": "uint256"
        }
      ],
      "name": "getStateInfoById",
      "outputs": [
        {
          "components": [
            {
              "internalType": "uint256",
              "name": "id",
              "type": "uint256"
            },
            {
              "internalType": "uint256",
              "name": "state",
              "type": "uint256"
            },
            {
              "internalType": "uint256",
              "name": "replacedByState",
              "type": "uint256"
            },
            {
              "internalType": "uint256",
              "name": "createdAtTimestamp",
              "type": "uint256"
            },
            {
              "internalType": "uint256",
              "name": "replacedAtTimestamp",
              "type": "uint256"
            },
            {
              "internalType": "uint256",
              "name": "createdAtBlock",
              "type": "uint256"
            },
            {
              "internalType": "uint256",
              "name": "replacedAtBlock",
              "type": "uint256"
            }
          ],
          "internalType": "struct StateV2_0_abi_2_1.StateInfo",
          "name": "",
          "type": "tuple"
        }
      ],
      "stateMutability": "view",
      "type": "function"
    },
    {
      "inputs": [
        {
          "internalType": "uint256",
          "name": "id",
          "type": "uint256"
        },
        {
          "internalType": "uint256",
          "name": "state",
          "type": "uint256"
        }
      ],
      "name": "getStateInfoByIdAndState",
      "outputs": [
        {
          "components": [
            {
              "internalType": "uint256",
              "name": "id",
              "type": "uint256"
            },
            {
              "internalType": "uint256",
              "name": "state",
              "type": "uint256"
            },
            {
              "internalType": "uint256",
              "name": "replacedByState",
              "type": "uint256"
            },
            {
              "internalType": "uint256",
              "name": "createdAtTimestamp",
              "type": "uint256"
            },
            {
              "internalType": "uint256",
              "name": "replacedAtTimestamp",
              "type": "uint256"
            },
            {
              "internalType": "uint256",
              "name": "createdAtBlock",
              "type": "uint256"
            },
            {
              "internalType": "uint256",
              "name": "replacedAtBlock",
              "type": "uint256"
            }
          ],
          "internalType": "struct StateV2_0_abi_2_1.StateInfo",
          "name": "",
          "type": "tuple"
        }
      ],
      "stateMutability": "view",
      "type": "function"
    },
    {
      "inputs": [
        {
          "internalType": "uint256",
          "name": "state",
          "type": "uint256"
        }
      ],
      "name": "getStateInfoByState",
      "outputs": [
        {
          "components": [
            {
              "internalType": "uint256",
              "name": "id",
              "type": "uint256"
            },
            {
              "internalType": "uint256",
              "name": "state",
              "type": "uint256"
            },
            {
              "internalType": "uint256",
              "name": "replacedByState",
              "type": "uint256"
            },
            {
              "internalType": "uint256",
              "name": "createdAtTimestamp",
              "type": "uint256"
            },
            {
              "internalType": "uint256",
              "name": "replacedAtTimestamp",
              "type": "uint256"
            },
            {
              "internalType": "uint256",
              "name": "createdAtBlock",
              "type": "uint256"
            },
            {
              "internalType": "uint256",
              "name": "replacedAtBlock",
              "type": "uint256"
            }
          ],
          "internalType": "struct StateV2_0_abi_2_1.StateInfo",
          "name": "",
          "type": "tuple"
        }
      ],
      "stateMutability": "view",
      "type": "function"
    },
    {
      "inputs": [
        {
          "internalType": "uint256",
          "name": "id",
          "type": "uint256"
        },
        {
          "internalType": "uint256",
          "name": "startIndex",
          "type": "uint256"
        },
        {
          "internalType": "uint256",
          "name": "length",
          "type": "uint256"
        }
      ],
      "name": "getStateInfoHistoryById",
      "outputs": [
        {
          "components": [
            {
              "internalType": "uint256",
              "name": "id",
              "type": "uint256"
            },
            {
              "internalType": "uint256",
              "name": "state",
              "type": "uint256"
            },
            {
              "internalType": "uint256",
              "name": "replacedByState",
              "type": "uint256"
            },
            {
              "internalType": "uint256",
              "name": "createdAtTimestamp",
              "type": "uint256"
            },
            {
              "internalType": "uint256",
              "name": "replacedAtTimestamp",
              "type": "uint256"
            },
            {
              "internalType": "uint256",
              "name": "createdAtBlock",
              "type": "uint256"
            },
            {
              "internalType": "uint256",
              "name": "replacedAtBlock",
              "type": "uint256"
            }
          ],
          "internalType": "struct StateV2_0_abi_2_1.StateInfo[]",
          "name": "",
          "type": "tuple[]"
        }
      ],
      "stateMutability": "view",
      "type": "function"
    },
    {
      "inputs": [
        {
          "internalType": "uint256",
          "name": "id",
          "type": "uint256"
        }
      ],
      "name": "getStateInfoHistoryLengthById",
      "outputs": [
        {
          "internalType": "uint256",
          "name": "",
          "type": "uint256"
        }
      ],
      "stateMutability": "view",
      "type": "function"
    },
    {
      "inputs": [],
      "name": "getVerifier",
      "outputs": [
        {
          "internalType": "address",
          "name": "",
          "type": "address"
        }
      ],
      "stateMutability": "view",
      "type": "function"
    },
    {
      "inputs": [
        {
          "internalType": "uint256",
          "name": "id",
          "type": "uint256"
        }
      ],
      "name": "idExists",
      "outputs": [
        {
          "internalType": "bool",
          "name": "",
          "type": "bool"
        }
      ],
      "stateMutability": "view",
      "type": "function"
    },
    {
      "inputs": [
        {
          "internalType": "contract IVerifier",
          "name": "verifierContractAddr",
          "type": "address"
        }
      ],
      "name": "initialize",
      "outputs": [],
      "stateMutability": "nonpayable",
      "type": "function"
    },
    {
      "inputs": [],
      "name": "owner",
      "outputs": [
        {
          "internalType": "address",
          "name": "",
          "type": "address"
        }
      ],
      "stateMutability": "view",
      "type": "function"
    },
    {
      "inputs": [],
      "name": "renounceOwnership",
      "outputs": [],
      "stateMutability": "nonpayable",
      "type": "function"
    },
    {
      "inputs": [
        {
          "internalType": "address",
          "name": "newVerifierAddr",
          "type": "address"
        }
      ],
      "name": "setVerifier",
      "outputs": [],
      "stateMutability": "nonpayable",
      "type": "function"
    },
    {
      "inputs": [
        {
          "internalType": "uint256",
          "name": "state",
          "type": "uint256"
        }
      ],
      "name": "stateExists",
      "outputs": [
        {
          "internalType": "bool",
          "name": "",
          "type": "bool"
        }
      ],
      "stateMutability": "view",
      "type": "function"
    },
    {
      "inputs": [
        {
          "internalType": "address",
          "name": "newOwner",
          "type": "address"
        }
      ],
      "name": "transferOwnership",
      "outputs": [],
      "stateMutability": "nonpayable",
      "type": "function"
    },
    {
      "inputs": [
        {
          "internalType": "uint256",
          "name": "id",
          "type": "uint256"
        },
        {
          "internalType": "uint256",
          "name": "oldState",
          "type": "uint256"
        },
        {
          "internalType": "uint256",
          "name": "newState",
          "type": "uint256"
        },
        {
          "internalType": "bool",
          "name": "isOldStateGenesis",
          "type": "bool"
        },
        {
          "internalType": "uint256[2]",
          "name": "a",
          "type": "uint256[2]"
        },
        {
          "internalType": "uint256[2][2]",
          "name": "b",
          "type": "uint256[2][2]"
        },
        {
          "internalType": "uint256[2]",
          "name": "c",
          "type": "uint256[2]"
        }
      ],
      "name": "transitState",
      "outputs": [],
      "stateMutability": "nonpayable",
      "type": "function"
    }
  ],
  "bytecode": "0x608060405234801561001057600080fd5b50613aeb806100206000396000f3fe608060405234801561001057600080fd5b506004361061018e5760003560e01c8063676d5b5a116100de578063d51afebf11610097578063e99858fe11610071578063e99858fe14610509578063eaa6b26c14610539578063f2fde38b14610557578063ffa1ad74146105735761018e565b8063d51afebf1461048b578063dccbd57a146104bb578063e12a36c0146104d95761018e565b8063676d5b5a146103b7578063715018a6146103e75780637c1a66de146103f15780638da5cb5b14610421578063b4bdea551461043f578063c4d66de81461046f5761018e565b80632f7670e41161014b57806346657fe91161012557806346657fe91461031d57806353c873121461033b5780635437988d1461036b5780635845e530146103875761018e565b80632f7670e41461028d5780633025bb8c146102bd5780633622b0bc146102ed5761018e565b8063046ff1401461019357806308fd3b76146101c35780630b8a295a146101f35780630ef6e65b146102235780632439e3a61461025357806328f88a6514610271575b600080fd5b6101ad60048036038101906101a89190611e16565b610591565b6040516101ba9190611fc3565b60405180910390f35b6101dd60048036038101906101d89190611fdf565b6106a6565b6040516101ea919061201b565b60405180910390f35b61020d60048036038101906102089190611fdf565b6106cc565b60405161021a919061201b565b60405180910390f35b61023d60048036038101906102389190611fdf565b6106f1565b60405161024a91906120b1565b60405180910390f35b61025b61077d565b60405161026891906120db565b60405180910390f35b61028b6004803603810190610286919061231a565b6107ff565b005b6102a760048036038101906102a29190611e16565b610d92565b6040516102b491906124e8565b60405180910390f35b6102d760048036038101906102d29190611fdf565b610e20565b6040516102e49190611fc3565b60405180910390f35b61030760048036038101906103029190611fdf565b610f32565b6040516103149190612598565b60405180910390f35b610325610f94565b60405161033291906125f4565b60405180910390f35b61035560048036038101906103509190611e16565b610fbe565b6040516103629190612598565b60405180910390f35b6103856004803603810190610380919061263b565b61106d565b005b6103a1600480360381019061039c9190611fdf565b6110b9565b6040516103ae91906120b1565b60405180910390f35b6103d160048036038101906103cc9190611fdf565b611145565b6040516103de91906120db565b60405180910390f35b6103ef6111b2565b005b61040b60048036038101906104069190611fdf565b6111c6565b60405161041891906120b1565b60405180910390f35b610429611252565b60405161043691906125f4565b60405180910390f35b61045960048036038101906104549190611fdf565b61127c565b6040516104669190612598565b60405180910390f35b610489600480360381019061048491906126a6565b611335565b005b6104a560048036038101906104a09190611e16565b6114b5565b6040516104b29190611fc3565b60405180910390f35b6104c36115ca565b6040516104d091906120db565b60405180910390f35b6104f360048036038101906104ee9190611e16565b6115da565b6040516105009190611fc3565b60405180910390f35b610523600480360381019061051e91906126d3565b6116ef565b6040516105309190612863565b60405180910390f35b61054161191e565b60405161054e91906120db565b60405180910390f35b610571600480360381019061056c919061263b565b611924565b005b61057b6119a7565b604051610588919061290d565b60405180910390f35b610599611ce7565b609a73__$6fe561209a168e1d8413362e2be9418f00$__63acbc7222909173__$bb862b2a7c85b89a310c80dce8aa59aaa7$__631caab9a76040518060200160405280898152506040518263ffffffff1660e01b81526004016105fc91906129da565b602060405180830381865af4158015610619573d6000803e3d6000fd5b505050506040513d601f19601f8201168201806040525081019061063d9190612a0a565b856040518463ffffffff1660e01b815260040161065c93929190612a4d565b6108e060405180830381865af415801561067a573d6000803e3d6000fd5b505050506040513d601f19601f8201168201806040525081019061069e9190612c1e565b905092915050565b600080606660010160008481526020019081526020016000206000015414159050919050565b6000806066600001600084815260200190815260200160002080549050119050919050565b6106f9611d36565b609a73__$6fe561209a168e1d8413362e2be9418f00$__6399d37cba9091846040518363ffffffff1660e01b8152600401610735929190612c4c565b60c060405180830381865af4158015610752573d6000803e3d6000fd5b505050506040513d601f19601f820116820180604052508101906107769190612d15565b9050919050565b6000609a73__$6fe561209a168e1d8413362e2be9418f00$__6309f9f46090916040518263ffffffff1660e01b81526004016107b99190612d42565b602060405180830381865af41580156107d6573d6000803e3d6000fd5b505050506040513d601f19601f820116820180604052508101906107fa9190612a0a565b905090565b83156108f75761080e876106cc565b1561084e576040517f08c379a000000000000000000000000000000000000000000000000000000000815260040161084590612dcf565b60405180910390fd5b610857866106a6565b15610897576040517f08c379a000000000000000000000000000000000000000000000000000000000815260040161088e90612e3b565b60405180910390fd5b86606660010160008881526020019081526020016000206000018190555060666000016000888152602001908152602001600020869080600181540180825580915050600190039060005260206000200160009091909190915055610a3a565b610900876106cc565b61093f576040517f08c379a000000000000000000000000000000000000000000000000000000000815260040161093690612ecd565b60405180910390fd5b6000606660000160008981526020019081526020016000206001606660000160008b81526020019081526020016000208054905061097d9190612f1c565b8154811061098e5761098d612f50565b5b90600052602060002001549050436066600101600083815260200190815260200160002060020154036109f6576040517f08c379a00000000000000000000000000000000000000000000000000000000081526004016109ed90612ff1565b60405180910390fd5b868114610a38576040517f08c379a0000000000000000000000000000000000000000000000000000000008152600401610a2f90613083565b60405180910390fd5b505b610a43856106a6565b15610a83576040517f08c379a0000000000000000000000000000000000000000000000000000000008152600401610a7a906130ef565b60405180910390fd5b6000604051806080016040528089815260200188815260200187815260200186610aae576000610ab1565b60015b60ff168152509050606560009054906101000a900473ffffffffffffffffffffffffffffffffffffffff1673ffffffffffffffffffffffffffffffffffffffff16635fe8c13b858585856040518563ffffffff1660e01b8152600401610b1a9493929190613315565b602060405180830381865afa158015610b37573d6000803e3d6000fd5b505050506040513d601f19601f82011682018060405250810190610b5b919061335c565b610b9a576040517f08c379a0000000000000000000000000000000000000000000000000000000008152600401610b91906133fb565b60405180910390fd5b60666000016000898152602001908152602001600020869080600181540180825580915050600190039060005260206000200160009091909190915055604051806080016040528089815260200142815260200143815260200160008152506066600101600088815260200190815260200160002060008201518160000155602082015181600101556040820151816002015560608201518160030155905050856066600101600089815260200190815260200160002060030181905550609a73__$6fe561209a168e1d8413362e2be9418f00$__636cbbcddf909173__$bb862b2a7c85b89a310c80dce8aa59aaa7$__631caab9a760405180602001604052808e8152506040518263ffffffff1660e01b8152600401610cbb91906129da565b602060405180830381865af4158015610cd8573d6000803e3d6000fd5b505050506040513d601f19601f82011682018060405250810190610cfc9190612a0a565b896040518463ffffffff1660e01b8152600401610d1b93929190612a4d565b60006040518083038186803b158015610d3357600080fd5b505af4158015610d47573d6000803e3d6000fd5b505050507f88aef4d78ad30d12a12a98e96007f5b09c1610b5364b2b99960b7d07e00a883888434289604051610d80949392919061341b565b60405180910390a15050505050505050565b6060609a73__$6fe561209a168e1d8413362e2be9418f00$__6373725a5d909185856040518463ffffffff1660e01b8152600401610dd293929190612a4d565b600060405180830381865af4158015610def573d6000803e3d6000fd5b505050506040513d6000823e3d601f19601f82011682018060405250810190610e189190613523565b905092915050565b610e28611ce7565b609a73__$6fe561209a168e1d8413362e2be9418f00$__63b3f22774909173__$bb862b2a7c85b89a310c80dce8aa59aaa7$__631caab9a76040518060200160405280888152506040518263ffffffff1660e01b8152600401610e8b91906129da565b602060405180830381865af4158015610ea8573d6000803e3d6000fd5b505050506040513d601f19601f82011682018060405250810190610ecc9190612a0a565b6040518363ffffffff1660e01b8152600401610ee9929190612c4c565b6108e060405180830381865af4158015610f07573d6000803e3d6000fd5b505050506040513d601f19601f82011682018060405250810190610f2b9190612c1e565b9050919050565b610f3a611d6c565b81610f44816106a6565b610f83576040517f08c379a0000000000000000000000000000000000000000000000000000000008152600401610f7a906135b8565b60405180910390fd5b610f8c836119e0565b915050919050565b6000606560009054906101000a900473ffffffffffffffffffffffffffffffffffffffff16905090565b610fc6611d6c565b81610fd0816106a6565b61100f576040517f08c379a0000000000000000000000000000000000000000000000000000000008152600401611006906135b8565b60405180910390fd5b600061101a846119e0565b905084816000015114611062576040517f08c379a0000000000000000000000000000000000000000000000000000000008152600401611059906135b8565b60405180910390fd5b809250505092915050565b611075611abe565b80606560006101000a81548173ffffffffffffffffffffffffffffffffffffffff021916908373ffffffffffffffffffffffffffffffffffffffff16021790555050565b6110c1611d36565b609a73__$6fe561209a168e1d8413362e2be9418f00$__63c4bab6ec9091846040518363ffffffff1660e01b81526004016110fd929190612c4c565b60c060405180830381865af415801561111a573d6000803e3d6000fd5b505050506040513d601f19601f8201168201806040525081019061113e9190612d15565b9050919050565b600081611151816106cc565b611190576040517f08c379a000000000000000000000000000000000000000000000000000000000815260040161118790613624565b60405180910390fd5b6066600001600084815260200190815260200160002080549050915050919050565b6111ba611abe565b6111c46000611b3c565b565b6111ce611d36565b609a73__$6fe561209a168e1d8413362e2be9418f00$__63897b3e1d9091846040518363ffffffff1660e01b815260040161120a929190612c4c565b60c060405180830381865af4158015611227573d6000803e3d6000fd5b505050506040513d601f19601f8201168201806040525081019061124b9190612d15565b9050919050565b6000603360009054906101000a900473ffffffffffffffffffffffffffffffffffffffff16905090565b611284611d6c565b8161128e816106cc565b6112cd576040517f08c379a00000000000000000000000000000000000000000000000000000000081526004016112c490613624565b60405180910390fd5b61132d606660000160008581526020019081526020016000206001606660000160008781526020019081526020016000208054905061130c9190612f1c565b8154811061131d5761131c612f50565b5b90600052602060002001546119e0565b915050919050565b60008060019054906101000a900460ff161590508080156113665750600160008054906101000a900460ff1660ff16105b80611393575061137530611c02565b1580156113925750600160008054906101000a900460ff1660ff16145b5b6113d2576040517f08c379a00000000000000000000000000000000000000000000000000000000081526004016113c9906136b6565b60405180910390fd5b60016000806101000a81548160ff021916908360ff160217905550801561140f576001600060016101000a81548160ff0219169083151502179055505b81606560006101000a81548173ffffffffffffffffffffffffffffffffffffffff021916908373ffffffffffffffffffffffffffffffffffffffff160217905550611458611c25565b80156114b15760008060016101000a81548160ff0219169083151502179055507f7f26b83ff96e1f2b6a682f133852f6798a09c465da95921460cefb384740249860016040516114a89190613728565b60405180910390a15b5050565b6114bd611ce7565b609a73__$6fe561209a168e1d8413362e2be9418f00$__63c56ff288909173__$bb862b2a7c85b89a310c80dce8aa59aaa7$__631caab9a76040518060200160405280898152506040518263ffffffff1660e01b815260040161152091906129da565b602060405180830381865af415801561153d573d6000803e3d6000fd5b505050506040513d601f19601f820116820180604052508101906115619190612a0a565b856040518463ffffffff1660e01b815260040161158093929190612a4d565b6108e060405180830381865af415801561159e573d6000803e3d6000fd5b505050506040513d601f19601f820116820180604052508101906115c29190612c1e565b905092915050565b6000609a60010180549050905090565b6115e2611ce7565b609a73__$6fe561209a168e1d8413362e2be9418f00$__637a746715909173__$bb862b2a7c85b89a310c80dce8aa59aaa7$__631caab9a76040518060200160405280898152506040518263ffffffff1660e01b815260040161164591906129da565b602060405180830381865af4158015611662573d6000803e3d6000fd5b505050506040513d601f19601f820116820180604052508101906116869190612a0a565b856040518463ffffffff1660e01b81526004016116a593929190612a4d565b6108e060405180830381865af41580156116c3573d6000803e3d6000fd5b505050506040513d601f19601f820116820180604052508101906116e79190612c1e565b905092915050565b6060836116fb816106cc565b61173a576040517f08c379a000000000000000000000000000000000000000000000000000000000815260040161173190613624565b60405180910390fd5b6000831161177d576040517f08c379a00000000000000000000000000000000000000000000000000000000081526004016117749061378f565b60405180910390fd5b6103e88311156117c2576040517f08c379a00000000000000000000000000000000000000000000000000000000081526004016117b9906137fb565b60405180910390fd5b600083856117d0919061381b565b9050606660000160008781526020019081526020016000208054905081111561182e576040517f08c379a0000000000000000000000000000000000000000000000000000000008152600401611825906138bd565b60405180910390fd5b60008467ffffffffffffffff81111561184a57611849612138565b5b60405190808252806020026020018201604052801561188357816020015b611870611d6c565b8152602001906001900390816118685790505b5090506000808790505b8381101561190f576118d0606660000160008b815260200190815260200160002082815481106118c0576118bf612f50565b5b90600052602060002001546119e0565b8383815181106118e3576118e2612f50565b5b602002602001018190525081806118f9906138dd565b9250508080611907906138dd565b91505061188d565b50819450505050509392505050565b6103e881565b61192c611abe565b600073ffffffffffffffffffffffffffffffffffffffff168173ffffffffffffffffffffffffffffffffffffffff160361199b576040517f08c379a000000000000000000000000000000000000000000000000000000000815260040161199290613997565b60405180910390fd5b6119a481611b3c565b50565b6040518060400160405280600f81526020017f322e302e312d6162692d322e312e30000000000000000000000000000000000081525081565b6119e8611d6c565b6000606660010160008481526020019081526020016000206003015490506040518060e00160405280606660010160008681526020019081526020016000206000015481526020018481526020018281526020016066600101600086815260200190815260200160002060010154815260200160666001016000848152602001908152602001600020600101548152602001606660010160008681526020019081526020016000206002015481526020016066600101600084815260200190815260200160002060020154815250915050919050565b611ac6611c7e565b73ffffffffffffffffffffffffffffffffffffffff16611ae4611252565b73ffffffffffffffffffffffffffffffffffffffff1614611b3a576040517f08c379a0000000000000000000000000000000000000000000000000000000008152600401611b3190613a03565b60405180910390fd5b565b6000603360009054906101000a900473ffffffffffffffffffffffffffffffffffffffff16905081603360006101000a81548173ffffffffffffffffffffffffffffffffffffffff021916908373ffffffffffffffffffffffffffffffffffffffff1602179055508173ffffffffffffffffffffffffffffffffffffffff168173ffffffffffffffffffffffffffffffffffffffff167f8be0079c531659141344cd1fd0a4f28419497f9722a3daafe3b4186f6b6457e060405160405180910390a35050565b6000808273ffffffffffffffffffffffffffffffffffffffff163b119050919050565b600060019054906101000a900460ff16611c74576040517f08c379a0000000000000000000000000000000000000000000000000000000008152600401611c6b90613a95565b60405180910390fd5b611c7c611c86565b565b600033905090565b600060019054906101000a900460ff16611cd5576040517f08c379a0000000000000000000000000000000000000000000000000000000008152600401611ccc90613a95565b60405180910390fd5b611ce5611ce0611c7e565b611b3c565b565b60405180610100016040528060008152602001600015158152602001611d0b611da9565b8152602001600081526020016000815260200160001515815260200160008152602001600081525090565b6040518060c001604052806000815260200160008152602001600081526020016000815260200160008152602001600081525090565b6040518060e00160405280600081526020016000815260200160008152602001600081526020016000815260200160008152602001600081525090565b604051806108000160405280604090602082028036833780820191505090505090565b6000604051905090565b600080fd5b600080fd5b6000819050919050565b611df381611de0565b8114611dfe57600080fd5b50565b600081359050611e1081611dea565b92915050565b60008060408385031215611e2d57611e2c611dd6565b5b6000611e3b85828601611e01565b9250506020611e4c85828601611e01565b9150509250929050565b611e5f81611de0565b82525050565b60008115159050919050565b611e7a81611e65565b82525050565b600060409050919050565b600081905092915050565b6000819050919050565b6000611eac8383611e56565b60208301905092915050565b6000602082019050919050565b611ece81611e80565b611ed88184611e8b565b9250611ee382611e96565b8060005b83811015611f14578151611efb8782611ea0565b9650611f0683611eb8565b925050600181019050611ee7565b505050505050565b6108e082016000820151611f336000850182611e56565b506020820151611f466020850182611e71565b506040820151611f596040850182611ec5565b506060820151611f6d610840850182611e56565b506080820151611f81610860850182611e56565b5060a0820151611f95610880850182611e71565b5060c0820151611fa96108a0850182611e56565b5060e0820151611fbd6108c0850182611e56565b50505050565b60006108e082019050611fd96000830184611f1c565b92915050565b600060208284031215611ff557611ff4611dd6565b5b600061200384828501611e01565b91505092915050565b61201581611e65565b82525050565b6000602082019050612030600083018461200c565b92915050565b60c08201600082015161204c6000850182611e56565b50602082015161205f6020850182611e56565b5060408201516120726040850182611e56565b5060608201516120856060850182611e56565b5060808201516120986080850182611e56565b5060a08201516120ab60a0850182611e56565b50505050565b600060c0820190506120c66000830184612036565b92915050565b6120d581611de0565b82525050565b60006020820190506120f060008301846120cc565b92915050565b6120ff81611e65565b811461210a57600080fd5b50565b60008135905061211c816120f6565b92915050565b600080fd5b6000601f19601f8301169050919050565b7f4e487b7100000000000000000000000000000000000000000000000000000000600052604160045260246000fd5b61217082612127565b810181811067ffffffffffffffff8211171561218f5761218e612138565b5b80604052505050565b60006121a2611dcc565b90506121ae8282612167565b919050565b600067ffffffffffffffff8211156121ce576121cd612138565b5b602082029050919050565b600080fd5b60006121f16121ec846121b3565b612198565b9050806020840283018581111561220b5761220a6121d9565b5b835b8181101561223457806122208882611e01565b84526020840193505060208101905061220d565b5050509392505050565b600082601f83011261225357612252612122565b5b60026122608482856121de565b91505092915050565b600067ffffffffffffffff82111561228457612283612138565b5b602082029050919050565b60006122a261229d84612269565b612198565b905080604084028301858111156122bc576122bb6121d9565b5b835b818110156122e557806122d1888261223e565b8452602084019350506040810190506122be565b5050509392505050565b600082601f83011261230457612303612122565b5b600261231184828561228f565b91505092915050565b6000806000806000806000610180888a03121561233a57612339611dd6565b5b60006123488a828b01611e01565b97505060206123598a828b01611e01565b965050604061236a8a828b01611e01565b955050606061237b8a828b0161210d565b945050608061238c8a828b0161223e565b93505060c061239d8a828b016122ef565b9250506101406123af8a828b0161223e565b91505092959891949750929550565b600081519050919050565b600082825260208201905092915050565b6000819050602082019050919050565b60c0820160008201516124006000850182611e56565b5060208201516124136020850182611e56565b5060408201516124266040850182611e56565b5060608201516124396060850182611e56565b50608082015161244c6080850182611e56565b5060a082015161245f60a0850182611e56565b50505050565b600061247183836123ea565b60c08301905092915050565b6000602082019050919050565b6000612495826123be565b61249f81856123c9565b93506124aa836123da565b8060005b838110156124db5781516124c28882612465565b97506124cd8361247d565b9250506001810190506124ae565b5085935050505092915050565b60006020820190508181036000830152612502818461248a565b905092915050565b60e0820160008201516125206000850182611e56565b5060208201516125336020850182611e56565b5060408201516125466040850182611e56565b5060608201516125596060850182611e56565b50608082015161256c6080850182611e56565b5060a082015161257f60a0850182611e56565b5060c082015161259260c0850182611e56565b50505050565b600060e0820190506125ad600083018461250a565b92915050565b600073ffffffffffffffffffffffffffffffffffffffff82169050919050565b60006125de826125b3565b9050919050565b6125ee816125d3565b82525050565b600060208201905061260960008301846125e5565b92915050565b612618816125d3565b811461262357600080fd5b50565b6000813590506126358161260f565b92915050565b60006020828403121561265157612650611dd6565b5b600061265f84828501612626565b91505092915050565b6000612673826125d3565b9050919050565b61268381612668565b811461268e57600080fd5b50565b6000813590506126a08161267a565b92915050565b6000602082840312156126bc576126bb611dd6565b5b60006126ca84828501612691565b91505092915050565b6000806000606084860312156126ec576126eb611dd6565b5b60006126fa86828701611e01565b935050602061270b86828701611e01565b925050604061271c86828701611e01565b9150509250925092565b600081519050919050565b600082825260208201905092915050565b6000819050602082019050919050565b60e0820160008201516127686000850182611e56565b50602082015161277b6020850182611e56565b50604082015161278e6040850182611e56565b5060608201516127a16060850182611e56565b5060808201516127b46080850182611e56565b5060a08201516127c760a0850182611e56565b5060c08201516127da60c0850182611e56565b50505050565b60006127ec8383612752565b60e08301905092915050565b6000602082019050919050565b600061281082612726565b61281a8185612731565b935061282583612742565b8060005b8381101561285657815161283d88826127e0565b9750612848836127f8565b925050600181019050612829565b5085935050505092915050565b6000602082019050818103600083015261287d8184612805565b905092915050565b600081519050919050565b600082825260208201905092915050565b60005b838110156128bf5780820151818401526020810190506128a4565b838111156128ce576000848401525b50505050565b60006128df82612885565b6128e98185612890565b93506128f98185602086016128a1565b61290281612127565b840191505092915050565b6000602082019050818103600083015261292781846128d4565b905092915050565b600060019050919050565b600081905092915050565b6000819050919050565b61295881611de0565b82525050565b600061296a838361294f565b60208301905092915050565b6000602082019050919050565b61298c8161292f565b612996818461293a565b92506129a182612945565b8060005b838110156129d25781516129b9878261295e565b96506129c483612976565b9250506001810190506129a5565b505050505050565b60006020820190506129ef6000830184612983565b92915050565b600081519050612a0481611dea565b92915050565b600060208284031215612a2057612a1f611dd6565b5b6000612a2e848285016129f5565b91505092915050565b8082525050565b612a4781611de0565b82525050565b6000606082019050612a626000830186612a37565b612a6f6020830185612a3e565b612a7c6040830184612a3e565b949350505050565b600080fd5b600081519050612a98816120f6565b92915050565b600067ffffffffffffffff821115612ab957612ab8612138565b5b602082029050919050565b6000612ad7612ad284612a9e565b612198565b90508060208402830185811115612af157612af06121d9565b5b835b81811015612b1a5780612b0688826129f5565b845260208401935050602081019050612af3565b5050509392505050565b600082601f830112612b3957612b38612122565b5b6040612b46848285612ac4565b91505092915050565b60006108e08284031215612b6657612b65612a84565b5b612b71610100612198565b90506000612b81848285016129f5565b6000830152506020612b9584828501612a89565b6020830152506040612ba984828501612b24565b604083015250610840612bbe848285016129f5565b606083015250610860612bd3848285016129f5565b608083015250610880612be884828501612a89565b60a0830152506108a0612bfd848285016129f5565b60c0830152506108c0612c12848285016129f5565b60e08301525092915050565b60006108e08284031215612c3557612c34611dd6565b5b6000612c4384828501612b4f565b91505092915050565b6000604082019050612c616000830185612a37565b612c6e6020830184612a3e565b9392505050565b600060c08284031215612c8b57612c8a612a84565b5b612c9560c0612198565b90506000612ca5848285016129f5565b6000830152506020612cb9848285016129f5565b6020830152506040612ccd848285016129f5565b6040830152506060612ce1848285016129f5565b6060830152506080612cf5848285016129f5565b60808301525060a0612d09848285016129f5565b60a08301525092915050565b600060c08284031215612d2b57612d2a611dd6565b5b6000612d3984828501612c75565b91505092915050565b6000602082019050612d576000830184612a37565b92915050565b7f4f6c642073746174652069732067656e6573697320627574206964656e74697460008201527f7920616c72656164792065786973747300000000000000000000000000000000602082015250565b6000612db9603083612890565b9150612dc482612d5d565b604082019050919050565b60006020820190508181036000830152612de881612dac565b9050919050565b7f47656e6573697320737461746520616c72656164792065786973747300000000600082015250565b6000612e25601c83612890565b9150612e3082612def565b602082019050919050565b60006020820190508181036000830152612e5481612e18565b9050919050565b7f4f6c64207374617465206973206e6f742067656e65736973206275742069646560008201527f6e7469747920646f6573206e6f74207965742065786973740000000000000000602082015250565b6000612eb7603883612890565b9150612ec282612e5b565b604082019050919050565b60006020820190508181036000830152612ee681612eaa565b9050919050565b7f4e487b7100000000000000000000000000000000000000000000000000000000600052601160045260246000fd5b6000612f2782611de0565b9150612f3283611de0565b925082821015612f4557612f44612eed565b5b828203905092915050565b7f4e487b7100000000000000000000000000000000000000000000000000000000600052603260045260246000fd5b7f4e6f206d756c7469706c652073657420696e207468652073616d6520626c6f6360008201527f6b00000000000000000000000000000000000000000000000000000000000000602082015250565b6000612fdb602183612890565b9150612fe682612f7f565b604082019050919050565b6000602082019050818103600083015261300a81612fce565b9050919050565b7f4f6c6420737461746520646f6573206e6f74206d6174636820746865206c617460008201527f6573742073746174650000000000000000000000000000000000000000000000602082015250565b600061306d602983612890565b915061307882613011565b604082019050919050565b6000602082019050818103600083015261309c81613060565b9050919050565b7f4e65772073746174652073686f756c64206e6f74206578697374000000000000600082015250565b60006130d9601a83612890565b91506130e4826130a3565b602082019050919050565b60006020820190508181036000830152613108816130cc565b9050919050565b600060029050919050565b600081905092915050565b6000819050919050565b6000602082019050919050565b6131458161310f565b61314f818461311a565b925061315a82613125565b8060005b8381101561318b5781516131728782611ea0565b965061317d8361312f565b92505060018101905061315e565b505050505050565b600060029050919050565b600081905092915050565b6000819050919050565b600081905092915050565b6131c78161310f565b6131d181846131b3565b92506131dc82613125565b8060005b8381101561320d5781516131f48782611ea0565b96506131ff8361312f565b9250506001810190506131e0565b505050505050565b600061322183836131be565b60408301905092915050565b6000602082019050919050565b61324381613193565b61324d818461319e565b9250613258826131a9565b8060005b838110156132895781516132708782613215565b965061327b8361322d565b92505060018101905061325c565b505050505050565b600060049050919050565b600081905092915050565b6000819050919050565b6000602082019050919050565b6132c781613291565b6132d1818461329c565b92506132dc826132a7565b8060005b8381101561330d5781516132f48782611ea0565b96506132ff836132b1565b9250506001810190506132e0565b505050505050565b60006101808201905061332b600083018761313c565b613338604083018661323a565b61334560c083018561313c565b6133536101008301846132be565b95945050505050565b60006020828403121561337257613371611dd6565b5b600061338084828501612a89565b91505092915050565b7f5a65726f2d6b6e6f776c656467652070726f6f66206f6620737461746520747260008201527f616e736974696f6e206973206e6f742076616c69642000000000000000000000602082015250565b60006133e5603683612890565b91506133f082613389565b604082019050919050565b60006020820190508181036000830152613414816133d8565b9050919050565b600060808201905061343060008301876120cc565b61343d60208301866120cc565b61344a60408301856120cc565b61345760608301846120cc565b95945050505050565b600067ffffffffffffffff82111561347b5761347a612138565b5b602082029050602081019050919050565b600061349f61349a84613460565b612198565b90508083825260208201905060c084028301858111156134c2576134c16121d9565b5b835b818110156134eb57806134d78882612c75565b84526020840193505060c0810190506134c4565b5050509392505050565b600082601f83011261350a57613509612122565b5b815161351a84826020860161348c565b91505092915050565b60006020828403121561353957613538611dd6565b5b600082015167ffffffffffffffff81111561355757613556611ddb565b5b613563848285016134f5565b91505092915050565b7f537461746520646f6573206e6f74206578697374000000000000000000000000600082015250565b60006135a2601483612890565b91506135ad8261356c565b602082019050919050565b600060208201905081810360008301526135d181613595565b9050919050565b7f4964656e7469747920646f6573206e6f74206578697374000000000000000000600082015250565b600061360e601783612890565b9150613619826135d8565b602082019050919050565b6000602082019050818103600083015261363d81613601565b9050919050565b7f496e697469616c697a61626c653a20636f6e747261637420697320616c72656160008201527f647920696e697469616c697a6564000000000000000000000000000000000000602082015250565b60006136a0602e83612890565b91506136ab82613644565b604082019050919050565b600060208201905081810360008301526136cf81613693565b9050919050565b6000819050919050565b600060ff82169050919050565b6000819050919050565b600061371261370d613708846136d6565b6136ed565b6136e0565b9050919050565b613722816136f7565b82525050565b600060208201905061373d6000830184613719565b92915050565b7f4c656e6774682073686f756c642062652067726561746572207468616e203000600082015250565b6000613779601f83612890565b915061378482613743565b602082019050919050565b600060208201905081810360008301526137a88161376c565b9050919050565b7f486973746f7279206c656e677468206c696d6974206578636565646564000000600082015250565b60006137e5601d83612890565b91506137f0826137af565b602082019050919050565b60006020820190508181036000830152613814816137d8565b9050919050565b600061382682611de0565b915061383183611de0565b9250827fffffffffffffffffffffffffffffffffffffffffffffffffffffffffffffffff0382111561386657613865612eed565b5b828201905092915050565b7f4f7574206f6620626f756e6473206f6620737461746520686973746f72790000600082015250565b60006138a7601e83612890565b91506138b282613871565b602082019050919050565b600060208201905081810360008301526138d68161389a565b9050919050565b60006138e882611de0565b91507fffffffffffffffffffffffffffffffffffffffffffffffffffffffffffffffff820361391a57613919612eed565b5b600182019050919050565b7f4f776e61626c653a206e6577206f776e657220697320746865207a65726f206160008201527f6464726573730000000000000000000000000000000000000000000000000000602082015250565b6000613981602683612890565b915061398c82613925565b604082019050919050565b600060208201905081810360008301526139b081613974565b9050919050565b7f4f776e61626c653a2063616c6c6572206973206e6f7420746865206f776e6572600082015250565b60006139ed602083612890565b91506139f8826139b7565b602082019050919050565b60006020820190508181036000830152613a1c816139e0565b9050919050565b7f496e697469616c697a61626c653a20636f6e7472616374206973206e6f74206960008201527f6e697469616c697a696e67000000000000000000000000000000000000000000602082015250565b6000613a7f602b83612890565b9150613a8a82613a23565b604082019050919050565b60006020820190508181036000830152613aae81613a72565b905091905056fea2646970667358221220587f3924bdc0588694d37d211d75ae3360dc124bc39a6a7952b1ef0f10776c6664736f6c634300080f0033",
  "linkReferences": {
    "contracts/lib/Poseidon.sol": {
      "PoseidonUnit1L": [
        {
          "length": 20,
          "start": 1497
        },
        {
          "length": 20,
          "start": 3224
        },
        {
          "length": 20,
          "start": 3688
        },
        {
          "length": 20,
          "start": 5373
        },
        {
          "length": 20,
          "start": 5666
        }
      ]
    },
    "contracts/lib/Smt.sol": {
      "Smt": [
        {
          "length": 20,
          "start": 1469
        },
        {
          "length": 20,
          "start": 1821
        },
        {
          "length": 20,
          "start": 1955
        },
        {
          "length": 20,
          "start": 3196
        },
        {
          "length": 20,
          "start": 3512
        },
        {
          "length": 20,
          "start": 3660
        },
        {
          "length": 20,
          "start": 4325
        },
        {
          "length": 20,
          "start": 4594
        },
        {
          "length": 20,
          "start": 5345
        },
        {
          "length": 20,
          "start": 5638
        }
      ]
    }
  },
  "deployedLinkReferences": {
    "contracts/lib/Poseidon.sol": {
      "PoseidonUnit1L": [
        {
          "length": 20,
          "start": 1465
        },
        {
          "length": 20,
          "start": 3192
        },
        {
          "length": 20,
          "start": 3656
        },
        {
          "length": 20,
          "start": 5341
        },
        {
          "length": 20,
          "start": 5634
        }
      ]
    },
    "contracts/lib/Smt.sol": {
      "Smt": [
        {
          "length": 20,
          "start": 1437
        },
        {
          "length": 20,
          "start": 1789
        },
        {
          "length": 20,
          "start": 1923
        },
        {
          "length": 20,
          "start": 3164
        },
        {
          "length": 20,
          "start": 3480
        },
        {
          "length": 20,
          "start": 3628
        },
        {
          "length": 20,
          "start": 4293
        },
        {
          "length": 20,
          "start": 4562
        },
        {
          "length": 20,
          "start": 5313
        },
        {
          "length": 20,
          "start": 5606
        }
      ]
    }
  }
}