{
  "_format": "hh-sol-artifact-1",
  "contractName": "EthIdentityValidator",
  "sourceName": "contracts/validators/auth/EthIdentityValidator.sol",
  "abi": [
    {
      "inputs": [],
      "stateMutability": "nonpayable",
      "type": "constructor"
    },
    {
      "inputs": [
        {
          "internalType": "uint256",
          "name": "length",
          "type": "uint256"
        }
      ],
      "name": "ChecksumLengthRequired",
      "type": "error"
    },
    {
      "inputs": [
        {
          "internalType": "uint256",
          "name": "length",
          "type": "uint256"
        }
      ],
      "name": "IdBytesLengthRequired",
      "type": "error"
    },
    {
      "inputs": [],
      "name": "InvalidInitialization",
      "type": "error"
    },
    {
      "inputs": [],
      "name": "NotInitializing",
      "type": "error"
    },
    {
      "inputs": [
        {
          "internalType": "address",
          "name": "owner",
          "type": "address"
        }
      ],
      "name": "OwnableInvalidOwner",
      "type": "error"
    },
    {
      "inputs": [
        {
          "internalType": "address",
          "name": "account",
          "type": "address"
        }
      ],
      "name": "OwnableUnauthorizedAccount",
      "type": "error"
    },
    {
      "inputs": [],
      "name": "SenderIsNotIdentityOwner",
      "type": "error"
    },
    {
      "anonymous": false,
      "inputs": [
        {
          "indexed": false,
          "internalType": "uint64",
          "name": "version",
          "type": "uint64"
        }
      ],
      "name": "Initialized",
      "type": "event"
    },
    {
      "anonymous": false,
      "inputs": [
        {
          "indexed": true,
          "internalType": "address",
          "name": "previousOwner",
          "type": "address"
        },
        {
          "indexed": true,
          "internalType": "address",
          "name": "newOwner",
          "type": "address"
        }
      ],
      "name": "OwnershipTransferStarted",
      "type": "event"
    },
    {
      "anonymous": false,
      "inputs": [
        {
          "indexed": true,
          "internalType": "address",
          "name": "previousOwner",
          "type": "address"
        },
        {
          "indexed": true,
          "internalType": "address",
          "name": "newOwner",
          "type": "address"
        }
      ],
      "name": "OwnershipTransferred",
      "type": "event"
    },
    {
      "inputs": [],
      "name": "VERSION",
      "outputs": [
        {
          "internalType": "string",
          "name": "",
          "type": "string"
        }
      ],
      "stateMutability": "view",
      "type": "function"
    },
    {
      "inputs": [],
      "name": "acceptOwnership",
      "outputs": [],
      "stateMutability": "nonpayable",
      "type": "function"
    },
    {
      "inputs": [
        {
          "internalType": "address",
          "name": "owner",
          "type": "address"
        }
      ],
      "name": "initialize",
      "outputs": [],
      "stateMutability": "nonpayable",
      "type": "function"
    },
    {
      "inputs": [],
      "name": "owner",
      "outputs": [
        {
          "internalType": "address",
          "name": "",
          "type": "address"
        }
      ],
      "stateMutability": "view",
      "type": "function"
    },
    {
      "inputs": [],
      "name": "pendingOwner",
      "outputs": [
        {
          "internalType": "address",
          "name": "",
          "type": "address"
        }
      ],
      "stateMutability": "view",
      "type": "function"
    },
    {
      "inputs": [],
      "name": "renounceOwnership",
      "outputs": [],
      "stateMutability": "nonpayable",
      "type": "function"
    },
    {
      "inputs": [
        {
          "internalType": "bytes4",
          "name": "interfaceId",
          "type": "bytes4"
        }
      ],
      "name": "supportsInterface",
      "outputs": [
        {
          "internalType": "bool",
          "name": "",
          "type": "bool"
        }
      ],
      "stateMutability": "view",
      "type": "function"
    },
    {
      "inputs": [
        {
          "internalType": "address",
          "name": "newOwner",
          "type": "address"
        }
      ],
      "name": "transferOwnership",
      "outputs": [],
      "stateMutability": "nonpayable",
      "type": "function"
    },
    {
      "inputs": [
        {
          "internalType": "address",
          "name": "sender",
          "type": "address"
        },
        {
          "internalType": "bytes",
          "name": "proof",
          "type": "bytes"
        },
        {
          "internalType": "bytes",
          "name": "params",
          "type": "bytes"
        }
      ],
      "name": "verify",
      "outputs": [
        {
          "internalType": "uint256",
          "name": "",
          "type": "uint256"
        },
        {
          "components": [
            {
              "internalType": "string",
              "name": "name",
              "type": "string"
            },
            {
              "internalType": "uint256",
              "name": "value",
              "type": "uint256"
            }
          ],
          "internalType": "struct IAuthValidator.AuthResponseField[]",
          "name": "",
          "type": "tuple[]"
        }
      ],
      "stateMutability": "view",
      "type": "function"
    },
    {
      "inputs": [],
      "name": "version",
      "outputs": [
        {
          "internalType": "string",
          "name": "",
          "type": "string"
        }
      ],
      "stateMutability": "pure",
      "type": "function"
    }
  ],
  "bytecode": "0x608060405234801561001057600080fd5b5061001f61002460201b60201c565b6101ab565b600061003461012860201b60201c565b90508060000160089054906101000a900460ff161561007f576040517ff92ee8a900000000000000000000000000000000000000000000000000000000815260040160405180910390fd5b67ffffffffffffffff80168160000160009054906101000a900467ffffffffffffffff1667ffffffffffffffff16146101255767ffffffffffffffff8160000160006101000a81548167ffffffffffffffff021916908367ffffffffffffffff1602179055507fc7f505b2f371ae2175ee4913f4499e1f2633a7b5936321eed1cdaeb6115181d267ffffffffffffffff60405161011c9190610190565b60405180910390a15b50565b60008061013961014260201b60201c565b90508091505090565b60007ff0c57e16840df040f15088dc2f81fe391c3923bec73e23a9662efc9c229c6a0060001b905090565b600067ffffffffffffffff82169050919050565b61018a8161016d565b82525050565b60006020820190506101a56000830184610181565b92915050565b611a59806101ba6000396000f3fe608060405234801561001057600080fd5b506004361061009e5760003560e01c80638da5cb5b116100665780638da5cb5b14610136578063c4d66de814610154578063e30c397814610170578063f2fde38b1461018e578063ffa1ad74146101aa5761009e565b806301ffc9a7146100a357806354fd4d50146100d35780635ade6633146100f1578063715018a61461012257806379ba50971461012c575b600080fd5b6100bd60048036038101906100b89190611051565b6101c8565b6040516100ca9190611099565b60405180910390f35b6100db610232565b6040516100e89190611144565b60405180910390f35b61010b60048036038101906101069190611229565b61026f565b60405161011992919061142f565b60405180910390f35b61012a6102f5565b005b610134610309565b005b61013e610398565b60405161014b919061146e565b60405180910390f35b61016e60048036038101906101699190611489565b6103d0565b005b61017861055f565b604051610185919061146e565b60405180910390f35b6101a860048036038101906101a39190611489565b610597565b005b6101b2610653565b6040516101bf9190611144565b60405180910390f35b60007f01ffc9a7000000000000000000000000000000000000000000000000000000007bffffffffffffffffffffffffffffffffffffffffffffffffffffffff1916827bffffffffffffffffffffffffffffffffffffffffffffffffffffffff1916149050919050565b60606040518060400160405280600581526020017f312e302e30000000000000000000000000000000000000000000000000000000815250905090565b600060606000868681019061028491906114e2565b9050610290818961068c565b80600067ffffffffffffffff8111156102ac576102ab61150f565b5b6040519080825280602002602001820160405280156102e557816020015b6102d2610fd5565b8152602001906001900390816102ca5790505b5092509250509550959350505050565b6102fd6106e6565b610307600061076d565b565b60006103136107ad565b90508073ffffffffffffffffffffffffffffffffffffffff1661033461055f565b73ffffffffffffffffffffffffffffffffffffffff161461038c57806040517f118cdaa7000000000000000000000000000000000000000000000000000000008152600401610383919061146e565b60405180910390fd5b6103958161076d565b50565b6000806103a36107b5565b90508060000160009054906101000a900473ffffffffffffffffffffffffffffffffffffffff1691505090565b60006103da6107dd565b905060008160000160089054906101000a900460ff1615905060008260000160009054906101000a900467ffffffffffffffff1690506000808267ffffffffffffffff161480156104285750825b9050600060018367ffffffffffffffff1614801561045d575060003073ffffffffffffffffffffffffffffffffffffffff163b145b90508115801561046b575080155b156104a2576040517ff92ee8a900000000000000000000000000000000000000000000000000000000815260040160405180910390fd5b60018560000160006101000a81548167ffffffffffffffff021916908367ffffffffffffffff16021790555083156104f25760018560000160086101000a81548160ff0219169083151502179055505b6104fb866107f1565b83156105575760008560000160086101000a81548160ff0219169083151502179055507fc7f505b2f371ae2175ee4913f4499e1f2633a7b5936321eed1cdaeb6115181d2600160405161054e9190611597565b60405180910390a15b505050505050565b60008061056a610805565b90508060000160009054906101000a900473ffffffffffffffffffffffffffffffffffffffff1691505090565b61059f6106e6565b60006105a9610805565b9050818160000160006101000a81548173ffffffffffffffffffffffffffffffffffffffff021916908373ffffffffffffffffffffffffffffffffffffffff1602179055508173ffffffffffffffffffffffffffffffffffffffff1661060d610398565b73ffffffffffffffffffffffffffffffffffffffff167f38d16b8cac22d99fc7c124b9cd0de2d3fa1faef420bfe791d8c362d765e2270060405160405180910390a35050565b6040518060400160405280600581526020017f312e302e3000000000000000000000000000000000000000000000000000000081525081565b60006106978361082d565b905060006106a58284610850565b90508381146106e0576040517f5dc09cc200000000000000000000000000000000000000000000000000000000815260040160405180910390fd5b50505050565b6106ee6107ad565b73ffffffffffffffffffffffffffffffffffffffff1661070c610398565b73ffffffffffffffffffffffffffffffffffffffff161461076b5761072f6107ad565b6040517f118cdaa7000000000000000000000000000000000000000000000000000000008152600401610762919061146e565b60405180910390fd5b565b6000610777610805565b90508060000160006101000a81549073ffffffffffffffffffffffffffffffffffffffff02191690556107a982610879565b5050565b600033905090565b60007f9016d09d72d40fdae2fd8ceac6b6234c7706214fd39c1cd1e609a0528c199300905090565b6000806107e8610950565b90508091505090565b6107f961097b565b610802816109bb565b50565b60007f237e158222e3e6968b72b9db0d8043aacf074ad9f650f0d1606b4d82ee432c00905090565b600061084061083b83610a41565b610b8d565b6108499061161b565b9050919050565b60008061085c83610bea565b90506108708461086b83610a41565b610c0a565b91505092915050565b60006108836107b5565b905060008160000160009054906101000a900473ffffffffffffffffffffffffffffffffffffffff169050828260000160006101000a81548173ffffffffffffffffffffffffffffffffffffffff021916908373ffffffffffffffffffffffffffffffffffffffff1602179055508273ffffffffffffffffffffffffffffffffffffffff168173ffffffffffffffffffffffffffffffffffffffff167f8be0079c531659141344cd1fd0a4f28419497f9722a3daafe3b4186f6b6457e060405160405180910390a3505050565b60007ff0c57e16840df040f15088dc2f81fe391c3923bec73e23a9662efc9c229c6a0060001b905090565b610983610d17565b6109b9576040517fd7e6bcf800000000000000000000000000000000000000000000000000000000815260040160405180910390fd5b565b6109c361097b565b600073ffffffffffffffffffffffffffffffffffffffff168173ffffffffffffffffffffffffffffffffffffffff1603610a355760006040517f1e4fbdf7000000000000000000000000000000000000000000000000000000008152600401610a2c919061146e565b60405180910390fd5b610a3e8161076d565b50565b600081905060087eff00ff00ff00ff00ff00ff00ff00ff00ff00ff00ff00ff00ff00ff00ff00ff8216901b60087fff00ff00ff00ff00ff00ff00ff00ff00ff00ff00ff00ff00ff00ff00ff00ff008316901c17905060107dffff0000ffff0000ffff0000ffff0000ffff0000ffff0000ffff0000ffff8216901b60107fffff0000ffff0000ffff0000ffff0000ffff0000ffff0000ffff0000ffff00008316901c17905060207bffffffff00000000ffffffff00000000ffffffff00000000ffffffff8216901b60207fffffffff00000000ffffffff00000000ffffffff00000000ffffffff000000008316901c179050604077ffffffffffffffff0000000000000000ffffffffffffffff8216901b60407fffffffffffffffff0000000000000000ffffffffffffffff00000000000000008316901c179050608081901b608082901c179050919050565b6060602067ffffffffffffffff811115610baa57610ba961150f565b5b6040519080825280601f01601f191660200182016040528015610bdc5781602001600182028036833780820191505090505b509050816020820152919050565b60008173ffffffffffffffffffffffffffffffffffffffff169050919050565b600080610c1e610c1984610a41565b610b8d565b90506000610c3b82601b8451610c3491906116b1565b601b610d37565b90506000610c6886604051602001610c539190611706565b60405160208183030381529060405283610d4d565b90506000610c7d610c7883610d61565b610df8565b9050600081604051602001610c929190611765565b60405160208183030381529060405290506000610caf8483610d4d565b9050601f815114610cf857601f6040517f33b0459b000000000000000000000000000000000000000000000000000000008152600401610cef91906117bb565b60405180910390fd5b610d09610d0482610e17565b610a41565b965050505050505092915050565b6000610d216107dd565b60000160089054906101000a900460ff16905090565b6060610d44848484610e2d565b90509392505050565b6060610d598383610f4b565b905092915050565b6000601d825114610daa57601d6040517f03c4ee2b000000000000000000000000000000000000000000000000000000008152600401610da19190611811565b60405180910390fd5b60005b8251811015610df257828181518110610dc957610dc861182c565b5b602001015160f81c60f81b60f81c60ff1682610de5919061185b565b9150806001019050610dad565b50919050565b600081905060088161ffff16901b60088261ffff16901c179050919050565b600081610e23906118b0565b60001c9050919050565b606081601f83610e3d9190611917565b1015610e7e576040517f08c379a0000000000000000000000000000000000000000000000000000000008152600401610e7590611997565b60405180910390fd5b8183610e8a9190611917565b84511015610ecd576040517f08c379a0000000000000000000000000000000000000000000000000000000008152600401610ec490611a03565b60405180910390fd5b6060821560008114610eee5760405191506000825260208201604052610f3f565b6040519150601f8416801560200281840101858101878315602002848b0101015b81831015610f2c5780518352602083019250602081019050610f0f565b50868552601f19601f8301166040525050505b50809150509392505050565b6060806040519050835180825260208201818101602087015b81831015610f815780518352602083019250602081019050610f64565b50855192508351830184528091508282019050602086015b81831015610fb65780518352602083019250602081019050610f99565b50601f19601f8851850115830101166040525050508091505092915050565b604051806040016040528060608152602001600081525090565b600080fd5b600080fd5b60007fffffffff0000000000000000000000000000000000000000000000000000000082169050919050565b61102e81610ff9565b811461103957600080fd5b50565b60008135905061104b81611025565b92915050565b60006020828403121561106757611066610fef565b5b60006110758482850161103c565b91505092915050565b60008115159050919050565b6110938161107e565b82525050565b60006020820190506110ae600083018461108a565b92915050565b600081519050919050565b600082825260208201905092915050565b60005b838110156110ee5780820151818401526020810190506110d3565b60008484015250505050565b6000601f19601f8301169050919050565b6000611116826110b4565b61112081856110bf565b93506111308185602086016110d0565b611139816110fa565b840191505092915050565b6000602082019050818103600083015261115e818461110b565b905092915050565b600073ffffffffffffffffffffffffffffffffffffffff82169050919050565b600061119182611166565b9050919050565b6111a181611186565b81146111ac57600080fd5b50565b6000813590506111be81611198565b92915050565b600080fd5b600080fd5b600080fd5b60008083601f8401126111e9576111e86111c4565b5b8235905067ffffffffffffffff811115611206576112056111c9565b5b602083019150836001820283011115611222576112216111ce565b5b9250929050565b60008060008060006060868803121561124557611244610fef565b5b6000611253888289016111af565b955050602086013567ffffffffffffffff81111561127457611273610ff4565b5b611280888289016111d3565b9450945050604086013567ffffffffffffffff8111156112a3576112a2610ff4565b5b6112af888289016111d3565b92509250509295509295909350565b6000819050919050565b6112d1816112be565b82525050565b600081519050919050565b600082825260208201905092915050565b6000819050602082019050919050565b600082825260208201905092915050565b600061131f826110b4565b6113298185611303565b93506113398185602086016110d0565b611342816110fa565b840191505092915050565b611356816112be565b82525050565b600060408301600083015184820360008601526113798282611314565b915050602083015161138e602086018261134d565b508091505092915050565b60006113a5838361135c565b905092915050565b6000602082019050919050565b60006113c5826112d7565b6113cf81856112e2565b9350836020820285016113e1856112f3565b8060005b8581101561141d57848403895281516113fe8582611399565b9450611409836113ad565b925060208a019950506001810190506113e5565b50829750879550505050505092915050565b600060408201905061144460008301856112c8565b818103602083015261145681846113ba565b90509392505050565b61146881611186565b82525050565b6000602082019050611483600083018461145f565b92915050565b60006020828403121561149f5761149e610fef565b5b60006114ad848285016111af565b91505092915050565b6114bf816112be565b81146114ca57600080fd5b50565b6000813590506114dc816114b6565b92915050565b6000602082840312156114f8576114f7610fef565b5b6000611506848285016114cd565b91505092915050565b7f4e487b7100000000000000000000000000000000000000000000000000000000600052604160045260246000fd5b6000819050919050565b600067ffffffffffffffff82169050919050565b6000819050919050565b600061158161157c6115778461153e565b61155c565b611548565b9050919050565b61159181611566565b82525050565b60006020820190506115ac6000830184611588565b92915050565b600081519050919050565b6000819050602082019050919050565b60007fffff00000000000000000000000000000000000000000000000000000000000082169050919050565b600061160582516115cd565b80915050919050565b600082821b905092915050565b6000611626826115b2565b82611630846115bd565b905061163b816115f9565b9250600282101561167b576116767fffff0000000000000000000000000000000000000000000000000000000000008360020360080261160e565b831692505b5050919050565b7f4e487b7100000000000000000000000000000000000000000000000000000000600052601160045260246000fd5b60006116bc826112be565b91506116c7836112be565b92508282039050818111156116df576116de611682565b5b92915050565b6000819050919050565b6117006116fb826115cd565b6116e5565b82525050565b600061171282846116ef565b60028201915081905092915050565b600061ffff82169050919050565b60008160f01b9050919050565b60006117478261172f565b9050919050565b61175f61175a82611721565b61173c565b82525050565b6000611771828461174e565b60028201915081905092915050565b6000819050919050565b60006117a56117a061179b84611780565b61155c565b6112be565b9050919050565b6117b58161178a565b82525050565b60006020820190506117d060008301846117ac565b92915050565b6000819050919050565b60006117fb6117f66117f1846117d6565b61155c565b6112be565b9050919050565b61180b816117e0565b82525050565b60006020820190506118266000830184611802565b92915050565b7f4e487b7100000000000000000000000000000000000000000000000000000000600052603260045260246000fd5b600061186682611721565b915061187183611721565b9250828201905061ffff81111561188b5761188a611682565b5b92915050565b6000819050919050565b60006118a78251611891565b80915050919050565b60006118bb826115b2565b826118c5846115bd565b90506118d08161189b565b925060208210156119105761190b7fffffffffffffffffffffffffffffffffffffffffffffffffffffffffffffffff8360200360080261160e565b831692505b5050919050565b6000611922826112be565b915061192d836112be565b925082820190508082111561194557611944611682565b5b92915050565b7f736c6963655f6f766572666c6f77000000000000000000000000000000000000600082015250565b6000611981600e836110bf565b915061198c8261194b565b602082019050919050565b600060208201905081810360008301526119b081611974565b9050919050565b7f736c6963655f6f75744f66426f756e6473000000000000000000000000000000600082015250565b60006119ed6011836110bf565b91506119f8826119b7565b602082019050919050565b60006020820190508181036000830152611a1c816119e0565b905091905056fea26469706673582212200b9e02179070824200e4bf0796c34ad1f2dc2505da0a83cb6b745671db2a129264736f6c634300081b0033",
  "linkReferences": {},
  "deployedLinkReferences": {}
}