{
  "_format": "hh3-artifact-1",
  "contractName": "Groth16VerifierLinkedMultiQueryWrapper",
  "sourceName": "contracts/lib/groth16-verifiers/Groth16VerifierLinkedMultiQueryWrapper.sol",
  "abi": [
    {
      "inputs": [
        {
          "internalType": "uint256",
          "name": "expected",
          "type": "uint256"
        },
        {
          "internalType": "uint256",
          "name": "actual",
          "type": "uint256"
        }
      ],
      "name": "ExpectedArrayLength",
      "type": "error"
    },
    {
      "inputs": [
        {
          "internalType": "uint256[2]",
          "name": "a",
          "type": "uint256[2]"
        },
        {
          "internalType": "uint256[2][2]",
          "name": "b",
          "type": "uint256[2][2]"
        },
        {
          "internalType": "uint256[2]",
          "name": "c",
          "type": "uint256[2]"
        },
        {
          "internalType": "uint256[]",
          "name": "signals",
          "type": "uint256[]"
        }
      ],
      "name": "verify",
      "outputs": [
        {
          "internalType": "bool",
          "name": "r",
          "type": "bool"
        }
      ],
      "stateMutability": "view",
      "type": "function"
    },
    {
      "inputs": [
        {
          "internalType": "uint256[2]",
          "name": "_pA",
          "type": "uint256[2]"
        },
        {
          "internalType": "uint256[2][2]",
          "name": "_pB",
          "type": "uint256[2][2]"
        },
        {
          "internalType": "uint256[2]",
          "name": "_pC",
          "type": "uint256[2]"
        },
        {
          "internalType": "uint256[22]",
          "name": "_pubSignals",
          "type": "uint256[22]"
        }
      ],
      "name": "verifyProof",
      "outputs": [
        {
          "internalType": "bool",
          "name": "",
          "type": "bool"
        }
      ],
      "stateMutability": "view",
      "type": "function"
    }
  ],
  "bytecode": "0x6080604052348015600e575f5ffd5b506112938061001c5f395ff3fe608060405234801561000f575f5ffd5b5060043610610034575f3560e01c80632612907c14610038578063c5a0fc2614610068575b5f5ffd5b610052600480360381019061004d9190610ea1565b610098565b60405161005f9190610f41565b60405180910390f35b610082600480360381019061007d9190610f7b565b6101cb565b60405161008f9190610f41565b60405180910390f35b5f6100a1610dd3565b601684849050146100ef576016848490506040517f4da7a8b70000000000000000000000000000000000000000000000000000000081526004016100e6929190610ff9565b60405180910390fd5b5f5f90505b6016811015610140578484828181106101105761010f611020565b5b9050602002013582826016811061012a57610129611020565b5b60200201818152505080806001019150506100f4565b503073ffffffffffffffffffffffffffffffffffffffff1663c5a0fc26888888856040518563ffffffff1660e01b815260040161018094939291906111c3565b602060405180830381865afa15801561019b573d5f5f3e3d5ffd5b505050506040513d601f19601f820116820180604052508101906101bf9190611232565b91505095945050505050565b5f610c88565b7f30644e72e131a029b85045b68181585d2833e84879b9709143e1f593f00000018110610200575f5f5260205ff35b50565b5f60405183815284602082015285604082015260408160608360076107d05a03fa915081610233575f5f5260205ff35b825160408201526020830151606082015260408360808360066107d05a03fa915081610261575f5f5260205ff35b505050505050565b5f608086015f87017f28e1bcbffdb4ab0bcca8be1ea3e546304bf083738a50899322faff635c4e7b6a81527f07dc2e58f547b156f5052be959179b566de1fb35dddb0f8f0fcdc6c5dcf0210d60208201526103095f8801357f233327625b407a60cd5752c42e81c2598af15077933a39b5ab60ace2b2f42bb77f2d4493d6a76928eac1a32a6281d7f0263bb3b68ee5ccc2dc8c57acb51d46d6b584610203565b61035960208801357f25b57edada2a342ddcaf8f726d01ebf3613b76d39dc795b7a06940d2340347267f0c47a4aaffd460d308dbb22555f2b3d962f14ade49e66b7af5c3603004060cd584610203565b6103a960408801357f076c0a9149ae440c270621b455ff9cf075cc193c946b3088bc2e247b4cc082277f08071aebb076bb488382effb5cebb23b6547c5dbd59468856d27bf48c52798c184610203565b6103f960608801357f0ebadb6ea8c13c4225b7a8d4db719c4fe35326f13dfaf4dd3c145ef787dbaf347f0862f3b66914f56a04e3e697f215c1925264f5e6a84f677c23296efcbbde63bc84610203565b61044960808801357f239a190c0a43eacf3b8a7f0650b60f1ade839c8d9027e494762504c57dd2b3957f2b13dc421f7279ce9db84844fe569a6d3032dbb6ba74ffcf240f074e2c16f14984610203565b61049960a08801357f28d0f5010777de43cb8e4d3af5573cac4971b088d47b88f92b8bf3663641d5017f02c5f54dfc461db3d1a95e5f15f0f032ba0a3e8230ab069e41e9e5e8f4f343d484610203565b6104e960c08801357f23996e537e91af02eb2e0cfc99eacc559b5962707abe2517728aef1bd6ffaac47f2910310ac332e6974035f5ebb84fc9f73b174c7ddb44fc48fbbdcc387bf1646984610203565b61053960e08801357f067507d516dc9b500ca5a274741a9f681b744b9afc7befa509b8ac4e2fce16347f21e10099118794a61c152dcb793dcdf987102733a7b866db3bc1446ce88130e284610203565b61058a6101008801357f194eaa8bec3f5af43ef6f79c036c7c85c206032c907e6708e35496a56454e3107f1ddb9e366ba42b94611daae1085cff45cbb58668a034a10926a9c9e2f667ec6484610203565b6105db6101208801357f0dfc649e3af46f9559bc6d7cb75815d63060fd3ca5d2cf9fa90cffa8a06cc7217f2445ec01dd3d8adb8a15f34d4e4f09d1fd81d00dbe5e1fb4a62869120f7fb12b84610203565b61062c6101408801357f2f54670a79ba4b75eab08177b3c098eeeb0eeac26a9a24098ce618fdc5e5c6267f1012ae691851cbcfba93e77f1ca69e7ec2dcc9d2ddf5636889dd252ac23ba33284610203565b61067d6101608801357f228a2837861d5f633f3d4e301417c7d0c012924495c1e472009b2512684160a87f0dd504840d23de8b5fdd6342692d069a3b2d26c10698d3032a3a6f36cd42e5d684610203565b6106ce6101808801357f08bfeb8e27df802c41c6aa503958f7c07c10c7fe794b01193ad18f3996d805cb7f2808847d1f325a7145e133542d5e9ba55bf341bf12fa450486be1ecb17dba09084610203565b61071f6101a08801357f05ac3de242c2edf77e83dbb009a183925e50ef13f0cfdb01e20058d1a591e17a7f1410901f603e2b5d09445df2bdf3286b7074c53b35adf0227ccb6fccb543cc5884610203565b6107706101c08801357f0f5079ee2951b8427426b59b2c08e78892d4a30ad14517cd251030a451e86f537f0168e1c1d27a475f1363a94f086656d061154e442c22fbae614cb660a22a9ceb84610203565b6107c16101e08801357f2bc9a8b4477c04c7a4c4569811dba003a84f89a3a30ddbc602bb8f1ff8dfbe5b7f208748db37793fd0c35332d88cf8183bbf180195c7af673d35aa3b35d22d6b6584610203565b6108126102008801357f28e7c9042fa4c05b684d8ce35706bf47c363cdaa50fe609c7b1c5d4a57d3c7577f13dece15a4c572d4d8149f38c30fafb6987bfc9bac684944c1ea10f2ca44ce2784610203565b6108636102208801357f0e417e666b302aba8a46864aadb88387a189fc200b01535ee11910b2f94dbdff7f0504072d6d6b7c97310e44df1e058238a39cd35acdfcb3b27f7eccf7032cb32384610203565b6108b46102408801357f01a098d1922a3e34118f539c64c4fbb32b30145ad67dc046c6e9c7fb605e370c7f2db3a6048bf456638c62925431816c3046a6117cdd0a30bd68463975b9ae4f7f84610203565b6109056102608801357f2e32cac110a87338fb419a2fcc9d02afdc1dd3205c215561e293bc76ed9a76607f04b78172299294d070925efa464eb29ae5ea9faac0765f4239a7f60f43a2f50984610203565b6109566102808801357f0ac0bb693cf3678f637be1f793fad0ffcbb91cacecc3ff336821af1e8750ab1e7f110b7f46035cb70d66a8d75fd0d508eae364b9622b71cfb86ed6345b7bef84dd84610203565b6109a76102a08801357f14c276575fbdfcc76fb1b4e18db4b9bb9dc6eedddd225bced1a4b3d7c2d2a1517f147d760acfed667b2c3259ecd079511e693063b3dc42e224262df4ac351ac80684610203565b833582527f30644e72e131a029b85045b68181585d97816a916871ca8d3c208c16d87cfd4760208501357f30644e72e131a029b85045b68181585d97816a916871ca8d3c208c16d87cfd4703066020830152843560408301526020850135606083015260408501356080830152606085013560a08301527f245229d9b076b3c0e8a4d70bde8c1cccffa08a9fae7557b165b3b0dbd653e2c760c08301527f253ec85988dbb84e46e94b5efa3373b47a000b4ac6c86b2d4b798d274a18230260e08301527f07090a82e8fabbd39299be24705b92cf208ee8b3487f6f2b39ff27978a29a1db6101008301527f2424bcc1f60a5472685fd50705b2809626e170120acaf441e133a2bd5e61d2446101208301527f0ae1135cffdaf227c5dc266740607aa930bc3bd92ddc2b135086d9da2dfd3e2a6101408301527f2b86859fd3d55c9d150fb3f0aeba798826493dd73d357ab0f9fdaced9fc818296101608301525f88015161018083015260205f018801516101a08301527f198e9393920d483a7260bfb731fb5d25f1aa493335a9e71297e485b7aef312c26101c08301527f1800deef121f1e76426a00665e5c4479674322d4f75edadd46debd5cd992f6ed6101e08301527f090689d0585ff075ec9e99ad690c3395bc4b313370b38ef355acdadcd122975b6102008301527f12c85ea5db8c6deb4aab71808dcb408fe3d1e7690c43d37b4ce6cc0166fa7daa610220830152853561024083015260208601356102608301527f16158de862fecc600acf94a771670df54b2fe4f5f5d5f48bb1b81e85bcf5f2886102808301527ecb6f0ce88716596ac3f16c7b9bb99e0f0adb1f1cfb4a6c800b5da3ebc395d96102a08301527f2775e5aef6014660723f823ebc31224f20f2f7eb9ca39b082546ddaff9b7fb386102c08301527f17eb075d7c5bbc93068e9dc07f4a420899b0d3aee9b099c03952174ee5741c6a6102e08301526020826103008460086107d05a03fa82518116935050505095945050505050565b6040516103808101604052610c9f5f8401356101d1565b610cac60208401356101d1565b610cb960408401356101d1565b610cc660608401356101d1565b610cd360808401356101d1565b610ce060a08401356101d1565b610ced60c08401356101d1565b610cfa60e08401356101d1565b610d086101008401356101d1565b610d166101208401356101d1565b610d246101408401356101d1565b610d326101608401356101d1565b610d406101808401356101d1565b610d4e6101a08401356101d1565b610d5c6101c08401356101d1565b610d6a6101e08401356101d1565b610d786102008401356101d1565b610d866102208401356101d1565b610d946102408401356101d1565b610da26102608401356101d1565b610db06102808401356101d1565b610dbe6102a08401356101d1565b610dcb818486888a610269565b805f5260205ff35b604051806102c00160405280601690602082028036833780820191505090505090565b5f5ffd5b5f5ffd5b5f5ffd5b5f81905082602060020282011115610e1d57610e1c610dfe565b5b92915050565b5f81905082604060020282011115610e3e57610e3d610dfe565b5b92915050565b5f5ffd5b5f5ffd5b5f5f83601f840112610e6157610e60610e44565b5b8235905067ffffffffffffffff811115610e7e57610e7d610e48565b5b602083019150836020820283011115610e9a57610e99610dfe565b5b9250929050565b5f5f5f5f5f6101208688031215610ebb57610eba610df6565b5b5f610ec888828901610e02565b9550506040610ed988828901610e23565b94505060c0610eea88828901610e02565b93505061010086013567ffffffffffffffff811115610f0c57610f0b610dfa565b5b610f1888828901610e4c565b92509250509295509295909350565b5f8115159050919050565b610f3b81610f27565b82525050565b5f602082019050610f545f830184610f32565b92915050565b5f81905082602060160282011115610f7557610f74610dfe565b5b92915050565b5f5f5f5f6103c08587031215610f9457610f93610df6565b5b5f610fa187828801610e02565b9450506040610fb287828801610e23565b93505060c0610fc387828801610e02565b925050610100610fd587828801610f5a565b91505092959194509250565b5f819050919050565b610ff381610fe1565b82525050565b5f60408201905061100c5f830185610fea565b6110196020830184610fea565b9392505050565b7f4e487b71000000000000000000000000000000000000000000000000000000005f52603260045260245ffd5b82818337505050565b6110626040838361104d565b5050565b5f60029050919050565b5f81905092915050565b5f819050919050565b61108f6040838361104d565b5050565b5f61109e8383611083565b60408301905092915050565b5f82905092915050565b5f604082019050919050565b6110c981611066565b6110d38184611070565b92506110de8261107a565b805f5b83811015611116576110f382846110aa565b6110fd8782611093565b9650611108836110b4565b9250506001810190506110e1565b505050505050565b5f60169050919050565b5f81905092915050565b5f819050919050565b61114481610fe1565b82525050565b5f611155838361113b565b60208301905092915050565b5f602082019050919050565b6111768161111e565b6111808184611128565b925061118b82611132565b805f5b838110156111bb5781516111a2878261114a565b96506111ad83611161565b92505060018101905061118e565b505050505050565b5f6103c0820190506111d75f830187611056565b6111e460408301866110c0565b6111f160c0830185611056565b6111ff61010083018461116d565b95945050505050565b61121181610f27565b811461121b575f5ffd5b50565b5f8151905061122c81611208565b92915050565b5f6020828403121561124757611246610df6565b5b5f6112548482850161121e565b9150509291505056fea264697066735822122020806c728f145c5ad7001cb19a216b2fd94c798b5b28d6b4d1d1e67d8ee55d9a64736f6c634300081b0033",
  "linkReferences": {},
  "deployedLinkReferences": {},
  "immutableReferences": {},
  "inputSourceName": "project/contracts/lib/groth16-verifiers/Groth16VerifierLinkedMultiQueryWrapper.sol",
  "buildInfoId": "solc-0_8_27-b671705d74a53b6b2fe696b87862a2c2c3d03377"
}