{
  "_format": "hh-sol-artifact-1",
  "contractName": "MCPayment",
  "sourceName": "contracts/payment/MCPayment.sol",
  "abi": [
    {
      "inputs": [],
      "stateMutability": "nonpayable",
      "type": "constructor"
    },
    {
      "inputs": [],
      "name": "ECDSAInvalidSignatureLength",
      "type": "error"
    },
    {
      "inputs": [],
      "name": "InsufficientAllowanceOnPermit",
      "type": "error"
    },
    {
      "inputs": [],
      "name": "InvalidInitialization",
      "type": "error"
    },
    {
      "inputs": [],
      "name": "InvalidOwnerPercentage",
      "type": "error"
    },
    {
      "inputs": [],
      "name": "InvalidSignature",
      "type": "error"
    },
    {
      "inputs": [],
      "name": "NotInitializing",
      "type": "error"
    },
    {
      "inputs": [
        {
          "internalType": "address",
          "name": "owner",
          "type": "address"
        }
      ],
      "name": "OwnableInvalidOwner",
      "type": "error"
    },
    {
      "inputs": [
        {
          "internalType": "address",
          "name": "account",
          "type": "address"
        }
      ],
      "name": "OwnableUnauthorizedAccount",
      "type": "error"
    },
    {
      "inputs": [
        {
          "internalType": "address",
          "name": "recipient",
          "type": "address"
        },
        {
          "internalType": "uint256",
          "name": "nonce",
          "type": "uint256"
        },
        {
          "internalType": "string",
          "name": "message",
          "type": "string"
        }
      ],
      "name": "PaymentError",
      "type": "error"
    },
    {
      "inputs": [],
      "name": "ReentrancyGuardReentrantCall",
      "type": "error"
    },
    {
      "inputs": [
        {
          "internalType": "address",
          "name": "token",
          "type": "address"
        }
      ],
      "name": "SafeERC20FailedOperation",
      "type": "error"
    },
    {
      "inputs": [],
      "name": "WithdrawError",
      "type": "error"
    },
    {
      "inputs": [],
      "name": "WithdrawErrorInvalidAddress",
      "type": "error"
    },
    {
      "inputs": [],
      "name": "WithdrawErrorNoBalance",
      "type": "error"
    },
    {
      "anonymous": false,
      "inputs": [],
      "name": "EIP712DomainChanged",
      "type": "event"
    },
    {
      "anonymous": false,
      "inputs": [
        {
          "indexed": false,
          "internalType": "uint64",
          "name": "version",
          "type": "uint64"
        }
      ],
      "name": "Initialized",
      "type": "event"
    },
    {
      "anonymous": false,
      "inputs": [
        {
          "indexed": true,
          "internalType": "address",
          "name": "previousOwner",
          "type": "address"
        },
        {
          "indexed": true,
          "internalType": "address",
          "name": "newOwner",
          "type": "address"
        }
      ],
      "name": "OwnershipTransferStarted",
      "type": "event"
    },
    {
      "anonymous": false,
      "inputs": [
        {
          "indexed": true,
          "internalType": "address",
          "name": "previousOwner",
          "type": "address"
        },
        {
          "indexed": true,
          "internalType": "address",
          "name": "newOwner",
          "type": "address"
        }
      ],
      "name": "OwnershipTransferred",
      "type": "event"
    },
    {
      "anonymous": false,
      "inputs": [
        {
          "indexed": true,
          "internalType": "address",
          "name": "recipient",
          "type": "address"
        },
        {
          "indexed": true,
          "internalType": "uint256",
          "name": "nonce",
          "type": "uint256"
        }
      ],
      "name": "Payment",
      "type": "event"
    },
    {
      "inputs": [],
      "name": "DOMAIN_VERSION",
      "outputs": [
        {
          "internalType": "string",
          "name": "",
          "type": "string"
        }
      ],
      "stateMutability": "view",
      "type": "function"
    },
    {
      "inputs": [],
      "name": "ERC_20_PAYMENT_DATA_TYPE_HASH",
      "outputs": [
        {
          "internalType": "bytes32",
          "name": "",
          "type": "bytes32"
        }
      ],
      "stateMutability": "view",
      "type": "function"
    },
    {
      "inputs": [],
      "name": "PAYMENT_DATA_TYPE_HASH",
      "outputs": [
        {
          "internalType": "bytes32",
          "name": "",
          "type": "bytes32"
        }
      ],
      "stateMutability": "view",
      "type": "function"
    },
    {
      "inputs": [],
      "name": "VERSION",
      "outputs": [
        {
          "internalType": "string",
          "name": "",
          "type": "string"
        }
      ],
      "stateMutability": "view",
      "type": "function"
    },
    {
      "inputs": [],
      "name": "acceptOwnership",
      "outputs": [],
      "stateMutability": "nonpayable",
      "type": "function"
    },
    {
      "inputs": [],
      "name": "eip712Domain",
      "outputs": [
        {
          "internalType": "bytes1",
          "name": "fields",
          "type": "bytes1"
        },
        {
          "internalType": "string",
          "name": "name",
          "type": "string"
        },
        {
          "internalType": "string",
          "name": "version",
          "type": "string"
        },
        {
          "internalType": "uint256",
          "name": "chainId",
          "type": "uint256"
        },
        {
          "internalType": "address",
          "name": "verifyingContract",
          "type": "address"
        },
        {
          "internalType": "bytes32",
          "name": "salt",
          "type": "bytes32"
        },
        {
          "internalType": "uint256[]",
          "name": "extensions",
          "type": "uint256[]"
        }
      ],
      "stateMutability": "view",
      "type": "function"
    },
    {
      "inputs": [
        {
          "internalType": "address",
          "name": "issuer",
          "type": "address"
        }
      ],
      "name": "getBalance",
      "outputs": [
        {
          "internalType": "uint256",
          "name": "",
          "type": "uint256"
        }
      ],
      "stateMutability": "view",
      "type": "function"
    },
    {
      "inputs": [],
      "name": "getOwnerBalance",
      "outputs": [
        {
          "internalType": "uint256",
          "name": "",
          "type": "uint256"
        }
      ],
      "stateMutability": "view",
      "type": "function"
    },
    {
      "inputs": [
        {
          "internalType": "address",
          "name": "token",
          "type": "address"
        }
      ],
      "name": "getOwnerERC20Balance",
      "outputs": [
        {
          "internalType": "uint256",
          "name": "",
          "type": "uint256"
        }
      ],
      "stateMutability": "view",
      "type": "function"
    },
    {
      "inputs": [],
      "name": "getOwnerPercentage",
      "outputs": [
        {
          "internalType": "uint8",
          "name": "",
          "type": "uint8"
        }
      ],
      "stateMutability": "view",
      "type": "function"
    },
    {
      "inputs": [
        {
          "internalType": "address",
          "name": "owner",
          "type": "address"
        },
        {
          "internalType": "uint8",
          "name": "ownerPercentage",
          "type": "uint8"
        }
      ],
      "name": "initialize",
      "outputs": [],
      "stateMutability": "nonpayable",
      "type": "function"
    },
    {
      "inputs": [
        {
          "internalType": "address",
          "name": "issuer",
          "type": "address"
        },
        {
          "internalType": "uint256",
          "name": "nonce",
          "type": "uint256"
        }
      ],
      "name": "isPaymentDone",
      "outputs": [
        {
          "internalType": "bool",
          "name": "",
          "type": "bool"
        }
      ],
      "stateMutability": "view",
      "type": "function"
    },
    {
      "inputs": [],
      "name": "issuerWithdraw",
      "outputs": [],
      "stateMutability": "nonpayable",
      "type": "function"
    },
    {
      "inputs": [],
      "name": "owner",
      "outputs": [
        {
          "internalType": "address",
          "name": "",
          "type": "address"
        }
      ],
      "stateMutability": "view",
      "type": "function"
    },
    {
      "inputs": [
        {
          "internalType": "address",
          "name": "token",
          "type": "address"
        }
      ],
      "name": "ownerERC20Withdraw",
      "outputs": [],
      "stateMutability": "nonpayable",
      "type": "function"
    },
    {
      "inputs": [],
      "name": "ownerWithdraw",
      "outputs": [],
      "stateMutability": "nonpayable",
      "type": "function"
    },
    {
      "inputs": [
        {
          "components": [
            {
              "internalType": "address",
              "name": "recipient",
              "type": "address"
            },
            {
              "internalType": "uint256",
              "name": "amount",
              "type": "uint256"
            },
            {
              "internalType": "uint256",
              "name": "expirationDate",
              "type": "uint256"
            },
            {
              "internalType": "uint256",
              "name": "nonce",
              "type": "uint256"
            },
            {
              "internalType": "bytes",
              "name": "metadata",
              "type": "bytes"
            }
          ],
          "internalType": "struct MCPayment.Iden3PaymentRailsRequestV1",
          "name": "paymentData",
          "type": "tuple"
        },
        {
          "internalType": "bytes",
          "name": "signature",
          "type": "bytes"
        }
      ],
      "name": "pay",
      "outputs": [],
      "stateMutability": "payable",
      "type": "function"
    },
    {
      "inputs": [
        {
          "components": [
            {
              "internalType": "address",
              "name": "tokenAddress",
              "type": "address"
            },
            {
              "internalType": "address",
              "name": "recipient",
              "type": "address"
            },
            {
              "internalType": "uint256",
              "name": "amount",
              "type": "uint256"
            },
            {
              "internalType": "uint256",
              "name": "expirationDate",
              "type": "uint256"
            },
            {
              "internalType": "uint256",
              "name": "nonce",
              "type": "uint256"
            },
            {
              "internalType": "bytes",
              "name": "metadata",
              "type": "bytes"
            }
          ],
          "internalType": "struct MCPayment.Iden3PaymentRailsERC20RequestV1",
          "name": "paymentData",
          "type": "tuple"
        },
        {
          "internalType": "bytes",
          "name": "signature",
          "type": "bytes"
        }
      ],
      "name": "payERC20",
      "outputs": [],
      "stateMutability": "nonpayable",
      "type": "function"
    },
    {
      "inputs": [
        {
          "internalType": "bytes",
          "name": "permitSignature",
          "type": "bytes"
        },
        {
          "components": [
            {
              "internalType": "address",
              "name": "tokenAddress",
              "type": "address"
            },
            {
              "internalType": "address",
              "name": "recipient",
              "type": "address"
            },
            {
              "internalType": "uint256",
              "name": "amount",
              "type": "uint256"
            },
            {
              "internalType": "uint256",
              "name": "expirationDate",
              "type": "uint256"
            },
            {
              "internalType": "uint256",
              "name": "nonce",
              "type": "uint256"
            },
            {
              "internalType": "bytes",
              "name": "metadata",
              "type": "bytes"
            }
          ],
          "internalType": "struct MCPayment.Iden3PaymentRailsERC20RequestV1",
          "name": "paymentData",
          "type": "tuple"
        },
        {
          "internalType": "bytes",
          "name": "signature",
          "type": "bytes"
        }
      ],
      "name": "payERC20Permit",
      "outputs": [],
      "stateMutability": "nonpayable",
      "type": "function"
    },
    {
      "inputs": [],
      "name": "pendingOwner",
      "outputs": [
        {
          "internalType": "address",
          "name": "",
          "type": "address"
        }
      ],
      "stateMutability": "view",
      "type": "function"
    },
    {
      "inputs": [
        {
          "components": [
            {
              "internalType": "address",
              "name": "tokenAddress",
              "type": "address"
            },
            {
              "internalType": "address",
              "name": "recipient",
              "type": "address"
            },
            {
              "internalType": "uint256",
              "name": "amount",
              "type": "uint256"
            },
            {
              "internalType": "uint256",
              "name": "expirationDate",
              "type": "uint256"
            },
            {
              "internalType": "uint256",
              "name": "nonce",
              "type": "uint256"
            },
            {
              "internalType": "bytes",
              "name": "metadata",
              "type": "bytes"
            }
          ],
          "internalType": "struct MCPayment.Iden3PaymentRailsERC20RequestV1",
          "name": "paymentData",
          "type": "tuple"
        },
        {
          "internalType": "bytes",
          "name": "signature",
          "type": "bytes"
        }
      ],
      "name": "recoverIden3PaymentRailsERC20RequestV1Signature",
      "outputs": [
        {
          "internalType": "address",
          "name": "",
          "type": "address"
        }
      ],
      "stateMutability": "view",
      "type": "function"
    },
    {
      "inputs": [
        {
          "components": [
            {
              "internalType": "address",
              "name": "recipient",
              "type": "address"
            },
            {
              "internalType": "uint256",
              "name": "amount",
              "type": "uint256"
            },
            {
              "internalType": "uint256",
              "name": "expirationDate",
              "type": "uint256"
            },
            {
              "internalType": "uint256",
              "name": "nonce",
              "type": "uint256"
            },
            {
              "internalType": "bytes",
              "name": "metadata",
              "type": "bytes"
            }
          ],
          "internalType": "struct MCPayment.Iden3PaymentRailsRequestV1",
          "name": "paymentData",
          "type": "tuple"
        },
        {
          "internalType": "bytes",
          "name": "signature",
          "type": "bytes"
        }
      ],
      "name": "recoverIden3PaymentRailsRequestV1Signature",
      "outputs": [
        {
          "internalType": "address",
          "name": "",
          "type": "address"
        }
      ],
      "stateMutability": "view",
      "type": "function"
    },
    {
      "inputs": [],
      "name": "renounceOwnership",
      "outputs": [],
      "stateMutability": "nonpayable",
      "type": "function"
    },
    {
      "inputs": [
        {
          "internalType": "address",
          "name": "newOwner",
          "type": "address"
        }
      ],
      "name": "transferOwnership",
      "outputs": [],
      "stateMutability": "nonpayable",
      "type": "function"
    },
    {
      "inputs": [
        {
          "internalType": "uint8",
          "name": "ownerPercentage",
          "type": "uint8"
        }
      ],
      "name": "updateOwnerPercentage",
      "outputs": [],
      "stateMutability": "nonpayable",
      "type": "function"
    }
  ],
  "bytecode": "0x608060405234801561001057600080fd5b5061001f61002460201b60201c565b6101ab565b600061003461012860201b60201c565b90508060000160089054906101000a900460ff161561007f576040517ff92ee8a900000000000000000000000000000000000000000000000000000000815260040160405180910390fd5b67ffffffffffffffff80168160000160009054906101000a900467ffffffffffffffff1667ffffffffffffffff16146101255767ffffffffffffffff8160000160006101000a81548167ffffffffffffffff021916908367ffffffffffffffff1602179055507fc7f505b2f371ae2175ee4913f4499e1f2633a7b5936321eed1cdaeb6115181d267ffffffffffffffff60405161011c9190610190565b60405180910390a15b50565b60008061013961014260201b60201c565b90508091505090565b60007ff0c57e16840df040f15088dc2f81fe391c3923bec73e23a9662efc9c229c6a0060001b905090565b600067ffffffffffffffff82169050919050565b61018a8161016d565b82525050565b60006020820190506101a56000830184610181565b92915050565b613873806101ba6000396000f3fe6080604052600436106101665760003560e01c80639d9c12b7116100d1578063cbec75bb1161008a578063f0dd689911610064578063f0dd6899146104d7578063f2fde38b14610502578063f8b2cb4f1461052b578063ffa1ad741461056857610166565b8063cbec75bb14610458578063cc9cd96114610495578063e30c3978146104ac57610166565b80639d9c12b71461032f578063aa0216691461036c578063acb8cc4914610388578063c52f5c83146103b3578063c5fd08d1146103f0578063c6bfaa3f1461042d57610166565b8063590791f211610123578063590791f214610251578063715018a61461027c57806379ba50971461029357806384b0196e146102aa5780638da5cb5b146102db578063943b24b21461030657610166565b80630cea58aa1461016b5780631af6de2b14610194578063309a042c146101bd5780633dbbdbe5146101e85780634311de8f1461021157806357615a3a14610228575b600080fd5b34801561017757600080fd5b50610192600480360381019061018d9190612589565b610593565b005b3480156101a057600080fd5b506101bb60048036038101906101b69190612614565b610608565b005b3480156101c957600080fd5b506101d2610762565b6040516101df9190612650565b60405180910390f35b3480156101f457600080fd5b5061020f600480360381019061020a91906128ad565b610787565b005b34801561021d57600080fd5b5061022661095b565b005b34801561023457600080fd5b5061024f600480360381019061024a9190612954565b6109e5565b005b34801561025d57600080fd5b50610266610a12565b60405161027391906129db565b60405180910390f35b34801561028857600080fd5b50610291610a33565b005b34801561029f57600080fd5b506102a8610a47565b005b3480156102b657600080fd5b506102bf610ad6565b6040516102d29796959493929190612b96565b60405180910390f35b3480156102e757600080fd5b506102f0610be8565b6040516102fd9190612c1a565b60405180910390f35b34801561031257600080fd5b5061032d60048036038101906103289190612c35565b610c20565b005b34801561033b57600080fd5b5061035660048036038101906103519190612c75565b610e96565b6040516103639190612cd0565b60405180910390f35b61038660048036038101906103819190612d93565b610ef7565b005b34801561039457600080fd5b5061039d61119c565b6040516103aa9190612e0b565b60405180910390f35b3480156103bf57600080fd5b506103da60048036038101906103d59190612954565b6111d5565b6040516103e79190612c1a565b60405180910390f35b3480156103fc57600080fd5b5061041760048036038101906104129190612d93565b6112a0565b6040516104249190612c1a565b60405180910390f35b34801561043957600080fd5b50610442611365565b60405161044f9190612e2d565b60405180910390f35b34801561046457600080fd5b5061047f600480360381019061047a9190612614565b611389565b60405161048c91906129db565b60405180910390f35b3480156104a157600080fd5b506104aa611414565b005b3480156104b857600080fd5b506104c1611436565b6040516104ce9190612c1a565b60405180910390f35b3480156104e357600080fd5b506104ec61146e565b6040516104f99190612e2d565b60405180910390f35b34801561050e57600080fd5b5061052960048036038101906105249190612614565b611492565b005b34801561053757600080fd5b50610552600480360381019061054d9190612614565b61154e565b60405161055f91906129db565b60405180910390f35b34801561057457600080fd5b5061057d6115a5565b60405161058a9190612e0b565b60405180910390f35b61059b6115de565b8060ff1660648111156105da576040517f95bde96e00000000000000000000000000000000000000000000000000000000815260040160405180910390fd5b60006105e4611665565b9050828160020160006101000a81548160ff021916908360ff160217905550505050565b6106106115de565b61061861168d565b60008173ffffffffffffffffffffffffffffffffffffffff166370a08231306040518263ffffffff1660e01b81526004016106539190612c1a565b602060405180830381865afa158015610670573d6000803e3d6000fd5b505050506040513d601f19601f820116820180604052508101906106949190612e5d565b9050600081036106d0576040517f2c8d747600000000000000000000000000000000000000000000000000000000815260040160405180910390fd5b8173ffffffffffffffffffffffffffffffffffffffff1663a9059cbb6106f4610be8565b836040518363ffffffff1660e01b8152600401610712929190612e8a565b6020604051808303816000875af1158015610731573d6000803e3d6000fd5b505050506040513d601f19601f820116820180604052508101906107559190612edf565b505061075f6116e4565b50565b60008061076d611665565b90508060020160009054906101000a900460ff1691505090565b61078f61168d565b600061079b83836116fd565b905060008360000151905060418551146107e1576040517f377d96dd00000000000000000000000000000000000000000000000000000000815260040160405180910390fd5b60008060006020880151925060408801519150606088015160001a90508373ffffffffffffffffffffffffffffffffffffffff1663d505accf33308a604001518b606001518689896040518863ffffffff1660e01b815260040161084b9796959493929190612f0c565b600060405180830381600087803b15801561086557600080fd5b505af1925050508015610876575060015b61093e5760008473ffffffffffffffffffffffffffffffffffffffff1663dd62ed3e33306040518363ffffffff1660e01b81526004016108b7929190612f7b565b602060405180830381865afa1580156108d4573d6000803e3d6000fd5b505050506040513d601f19601f820116820180604052508101906108f89190612e5d565b90508760400151811015610938576040517f7f46728400000000000000000000000000000000000000000000000000000000815260040160405180910390fd5b5061093f565b5b6109498786611817565b50505050506109566116e4565b505050565b6109636115de565b61096b61168d565b6000610975611665565b905060008160030154036109b5576040517f2c8d747600000000000000000000000000000000000000000000000000000000815260040160405180910390fd5b600081600301549050600082600301819055506109d9816109d4610be8565b6119d8565b50506109e36116e4565b565b6109ed61168d565b60006109f983836116fd565b9050610a058382611817565b50610a0e6116e4565b5050565b6000610a1c6115de565b6000610a26611665565b9050806003015491505090565b610a3b6115de565b610a456000611ae6565b565b6000610a51611b26565b90508073ffffffffffffffffffffffffffffffffffffffff16610a72611436565b73ffffffffffffffffffffffffffffffffffffffff1614610aca57806040517f118cdaa7000000000000000000000000000000000000000000000000000000008152600401610ac19190612c1a565b60405180910390fd5b610ad381611ae6565b50565b6000606080600080600060606000610aec611b2e565b90506000801b8160000154148015610b0a57506000801b8160010154145b610b49576040517f08c379a0000000000000000000000000000000000000000000000000000000008152600401610b4090612ff0565b60405180910390fd5b610b51611b56565b610b59611bf7565b46306000801b600067ffffffffffffffff811115610b7a57610b79612686565b5b604051908082528060200260200182016040528015610ba85781602001602082028036833780820191505090505b507f0f0000000000000000000000000000000000000000000000000000000000000095949392919097509750975097509750975097505090919293949596565b600080610bf3611c98565b90508060000160009054906101000a900473ffffffffffffffffffffffffffffffffffffffff1691505090565b6000610c2a611cc0565b905060008160000160089054906101000a900460ff1615905060008260000160009054906101000a900467ffffffffffffffff1690506000808267ffffffffffffffff16148015610c785750825b9050600060018367ffffffffffffffff16148015610cad575060003073ffffffffffffffffffffffffffffffffffffffff163b145b905081158015610cbb575080155b15610cf2576040517ff92ee8a900000000000000000000000000000000000000000000000000000000815260040160405180910390fd5b60018560000160006101000a81548167ffffffffffffffff021916908367ffffffffffffffff1602179055508315610d425760018560000160086101000a81548160ff0219169083151502179055505b8560ff166064811115610d81576040517f95bde96e00000000000000000000000000000000000000000000000000000000815260040160405180910390fd5b6000610d8b611665565b9050878160020160006101000a81548160ff021916908360ff160217905550610db389611cd4565b610e276040518060400160405280600981526020017f4d435061796d656e7400000000000000000000000000000000000000000000008152506040518060400160405280600581526020017f312e302e30000000000000000000000000000000000000000000000000000000815250611ce8565b610e2f611cfe565b50508315610e8d5760008560000160086101000a81548160ff0219169083151502179055507fc7f505b2f371ae2175ee4913f4499e1f2633a7b5936321eed1cdaeb6115181d26001604051610e849190613069565b60405180910390a15b50505050505050565b600080610ea1611665565b90508060000160008585604051602001610ebc929190612e8a565b60405160208183030381529060405280519060200120815260200190815260200160002060009054906101000a900460ff1691505092915050565b610eff61168d565b6000610f0b83836112a0565b90506000818460600151604051602001610f26929190612e8a565b6040516020818303038152906040528051906020012090506000610f48611665565b905080600001600083815260200190815260200160002060009054906101000a900460ff1615610fb957846000015185606001516040517fa7758488000000000000000000000000000000000000000000000000000000008152600401610fb09291906130d0565b60405180910390fd5b3485602001511461100b57846000015185606001516040517fa7758488000000000000000000000000000000000000000000000000000000008152600401611002929190613158565b60405180910390fd5b428560400151101561105e57846000015185606001516040517fa77584880000000000000000000000000000000000000000000000000000000081526004016110559291906131e0565b60405180910390fd5b600060648260020160009054906101000a900460ff1660ff1634611082919061324b565b61108c91906132bc565b90506000813461109c91906132ed565b905080836001016000896000015173ffffffffffffffffffffffffffffffffffffffff1673ffffffffffffffffffffffffffffffffffffffff16815260200190815260200160002060008282546110f39190613321565b925050819055508183600301600082825461110e9190613321565b9250508190555086606001518573ffffffffffffffffffffffffffffffffffffffff167fd4f43975feb89f48dd30cabbb32011045be187d1e11c8ea9faa43efc3528251960405160405180910390a3600183600001600086815260200190815260200160002060006101000a81548160ff02191690831515021790555050505050506111986116e4565b5050565b6040518060400160405280600581526020017f312e302e3000000000000000000000000000000000000000000000000000000081525081565b6000807f9ee4c216116cee4389c2d10394489895776e570cfad57a54ddc9f2d5a2f462b4846000015185602001518660400151876060015188608001518960a00151805190602001206040516020016112349796959493929190613355565b6040516020818303038152906040528051906020012090506000806112598386611d10565b9150915081611294576040517f8baa579f00000000000000000000000000000000000000000000000000000000815260040160405180910390fd5b80935050505092915050565b6000807f7d9b223c9f364814bf77fd331ce600482bed3df6cd9a9f7c4fec9cb56d046a1284600001518560200151866040015187606001518860800151805190602001206040516020016112f9969594939291906133c4565b60405160208183030381529060405280519060200120905060008061131e8386611d10565b9150915081611359576040517f8baa579f00000000000000000000000000000000000000000000000000000000815260040160405180910390fd5b80935050505092915050565b7f9ee4c216116cee4389c2d10394489895776e570cfad57a54ddc9f2d5a2f462b481565b60006113936115de565b8173ffffffffffffffffffffffffffffffffffffffff166370a08231306040518263ffffffff1660e01b81526004016113cc9190612c1a565b602060405180830381865afa1580156113e9573d6000803e3d6000fd5b505050506040513d601f19601f8201168201806040525081019061140d9190612e5d565b9050919050565b61141c61168d565b61142c611427611b26565b611d72565b6114346116e4565b565b600080611441611e54565b90508060000160009054906101000a900473ffffffffffffffffffffffffffffffffffffffff1691505090565b7f7d9b223c9f364814bf77fd331ce600482bed3df6cd9a9f7c4fec9cb56d046a1281565b61149a6115de565b60006114a4611e54565b9050818160000160006101000a81548173ffffffffffffffffffffffffffffffffffffffff021916908373ffffffffffffffffffffffffffffffffffffffff1602179055508173ffffffffffffffffffffffffffffffffffffffff16611508610be8565b73ffffffffffffffffffffffffffffffffffffffff167f38d16b8cac22d99fc7c124b9cd0de2d3fa1faef420bfe791d8c362d765e2270060405160405180910390a35050565b600080611559611665565b90508060010160008473ffffffffffffffffffffffffffffffffffffffff1673ffffffffffffffffffffffffffffffffffffffff16815260200190815260200160002054915050919050565b6040518060400160405280600581526020017f312e302e3400000000000000000000000000000000000000000000000000000081525081565b6115e6611b26565b73ffffffffffffffffffffffffffffffffffffffff16611604610be8565b73ffffffffffffffffffffffffffffffffffffffff161461166357611627611b26565b6040517f118cdaa700000000000000000000000000000000000000000000000000000000815260040161165a9190612c1a565b60405180910390fd5b565b60007f843c93f996398391e581389b674681e6ea27a4f9a96390a9d8ecb41cf0226300905090565b6000611697611e7c565b905060028160000154036116d7576040517f3ee5aeb500000000000000000000000000000000000000000000000000000000815260040160405180910390fd5b6002816000018190555050565b60006116ee611e7c565b90506001816000018190555050565b60008061170a84846111d5565b90506000818560800151604051602001611725929190612e8a565b6040516020818303038152906040528051906020012090506000611747611665565b905080600001600083815260200190815260200160002060009054906101000a900460ff16156117b857856020015186608001516040517fa77584880000000000000000000000000000000000000000000000000000000081526004016117af9291906130d0565b60405180910390fd5b428660600151101561180b57856020015186608001516040517fa77584880000000000000000000000000000000000000000000000000000000081526004016118029291906131e0565b60405180910390fd5b82935050505092915050565b600082600001519050611851333085604001518473ffffffffffffffffffffffffffffffffffffffff16611ea4909392919063ffffffff16565b600061185b611665565b9050600060648260020160009054906101000a900460ff1660ff168660400151611885919061324b565b61188f91906132bc565b905060008186604001516118a391906132ed565b90508373ffffffffffffffffffffffffffffffffffffffff1663a9059cbb8760200151836040518363ffffffff1660e01b81526004016118e4929190612e8a565b6020604051808303816000875af1158015611903573d6000803e3d6000fd5b505050506040513d601f19601f820116820180604052508101906119279190612edf565b5085608001518573ffffffffffffffffffffffffffffffffffffffff167fd4f43975feb89f48dd30cabbb32011045be187d1e11c8ea9faa43efc3528251960405160405180910390a36000858760800151604051602001611989929190612e8a565b604051602081830303815290604052805190602001209050600184600001600083815260200190815260200160002060006101000a81548160ff02191690831515021790555050505050505050565b600073ffffffffffffffffffffffffffffffffffffffff168173ffffffffffffffffffffffffffffffffffffffff1603611a3e576040517f3093ea0700000000000000000000000000000000000000000000000000000000815260040160405180910390fd5b60008173ffffffffffffffffffffffffffffffffffffffff1683604051611a6490613456565b60006040518083038185875af1925050503d8060008114611aa1576040519150601f19603f3d011682016040523d82523d6000602084013e611aa6565b606091505b5050905080611ae1576040517fd477157400000000000000000000000000000000000000000000000000000000815260040160405180910390fd5b505050565b6000611af0611e54565b90508060000160006101000a81549073ffffffffffffffffffffffffffffffffffffffff0219169055611b2282611f26565b5050565b600033905090565b60007fa16a46d94261c7517cc8ff89f61c0ce93598e3c849801011dee649a6a557d100905090565b60606000611b62611b2e565b9050806002018054611b739061349a565b80601f0160208091040260200160405190810160405280929190818152602001828054611b9f9061349a565b8015611bec5780601f10611bc157610100808354040283529160200191611bec565b820191906000526020600020905b815481529060010190602001808311611bcf57829003601f168201915b505050505091505090565b60606000611c03611b2e565b9050806003018054611c149061349a565b80601f0160208091040260200160405190810160405280929190818152602001828054611c409061349a565b8015611c8d5780601f10611c6257610100808354040283529160200191611c8d565b820191906000526020600020905b815481529060010190602001808311611c7057829003601f168201915b505050505091505090565b60007f9016d09d72d40fdae2fd8ceac6b6234c7706214fd39c1cd1e609a0528c199300905090565b600080611ccb611ffd565b90508091505090565b611cdc612028565b611ce581612068565b50565b611cf0612028565b611cfa82826120ee565b5050565b611d06612028565b611d0e612143565b565b6000806000611d1e85612164565b9050600080611d36868461217e90919063ffffffff16565b509150915060006003811115611d4f57611d4e6134cb565b5b816003811115611d6257611d616134cb565b5b1482945094505050509250929050565b6000611d7c611665565b905060008160010160008473ffffffffffffffffffffffffffffffffffffffff1673ffffffffffffffffffffffffffffffffffffffff16815260200190815260200160002054905060008103611dfe576040517f2c8d747600000000000000000000000000000000000000000000000000000000815260040160405180910390fd5b60008260010160008573ffffffffffffffffffffffffffffffffffffffff1673ffffffffffffffffffffffffffffffffffffffff16815260200190815260200160002081905550611e4f81846119d8565b505050565b60007f237e158222e3e6968b72b9db0d8043aacf074ad9f650f0d1606b4d82ee432c00905090565b60007f9b779b17422d0df92223018b32b4d1fa46e071723d6817e2486d003becc55f00905090565b611f20848573ffffffffffffffffffffffffffffffffffffffff166323b872dd868686604051602401611ed9939291906134fa565b604051602081830303815290604052915060e01b6020820180517bffffffffffffffffffffffffffffffffffffffffffffffffffffffff83818316178352505050506121da565b50505050565b6000611f30611c98565b905060008160000160009054906101000a900473ffffffffffffffffffffffffffffffffffffffff169050828260000160006101000a81548173ffffffffffffffffffffffffffffffffffffffff021916908373ffffffffffffffffffffffffffffffffffffffff1602179055508273ffffffffffffffffffffffffffffffffffffffff168173ffffffffffffffffffffffffffffffffffffffff167f8be0079c531659141344cd1fd0a4f28419497f9722a3daafe3b4186f6b6457e060405160405180910390a3505050565b60007ff0c57e16840df040f15088dc2f81fe391c3923bec73e23a9662efc9c229c6a0060001b905090565b61203061227c565b612066576040517fd7e6bcf800000000000000000000000000000000000000000000000000000000815260040160405180910390fd5b565b612070612028565b600073ffffffffffffffffffffffffffffffffffffffff168173ffffffffffffffffffffffffffffffffffffffff16036120e25760006040517f1e4fbdf70000000000000000000000000000000000000000000000000000000081526004016120d99190612c1a565b60405180910390fd5b6120eb81611ae6565b50565b6120f6612028565b6000612100611b2e565b90508281600201908161211391906136d3565b508181600301908161212591906136d3565b506000801b81600001819055506000801b8160010181905550505050565b61214b612028565b6000612155611e7c565b90506001816000018190555050565b600061217761217161229c565b836122ab565b9050919050565b600080600060418451036121c35760008060006020870151925060408701519150606087015160001a90506121b5888285856122ec565b9550955095505050506121d3565b60006002855160001b9250925092505b9250925092565b600080602060008451602086016000885af1806121fd576040513d6000823e3d81fd5b3d925060005191505060008214612218576001811415612234565b60008473ffffffffffffffffffffffffffffffffffffffff163b145b1561227657836040517f5274afe700000000000000000000000000000000000000000000000000000000815260040161226d9190612c1a565b60405180910390fd5b50505050565b6000612286611cc0565b60000160089054906101000a900460ff16905090565b60006122a66123e0565b905090565b60006040517f190100000000000000000000000000000000000000000000000000000000000081528360028201528260228201526042812091505092915050565b60008060007f7fffffffffffffffffffffffffffffff5d576e7357a4501ddfe92f46681b20a08460001c111561232c5760006003859250925092506123d6565b60006001888888886040516000815260200160405260405161235194939291906137a5565b6020604051602081039080840390855afa158015612373573d6000803e3d6000fd5b505050602060405103519050600073ffffffffffffffffffffffffffffffffffffffff168173ffffffffffffffffffffffffffffffffffffffff16036123c757600060016000801b935093509350506123d6565b8060008060001b935093509350505b9450945094915050565b60007f8b73c3c69bb8fe3d512ecc4cf759cc79239f7b179b0ffacaa9a75d522b39400f61240b612444565b6124136124c0565b46306040516020016124299594939291906137ea565b60405160208183030381529060405280519060200120905090565b60008061244f611b2e565b9050600061245b611b56565b9050600081511115612478578080519060200120925050506124bd565b6000826000015490506000801b8114612496578093505050506124bd565b7fc5d2460186f7233c927e7db2dcc703c0e500b653ca82273b7bfad8045d85a47093505050505b90565b6000806124cb611b2e565b905060006124d7611bf7565b90506000815111156124f457808051906020012092505050612539565b6000826001015490506000801b811461251257809350505050612539565b7fc5d2460186f7233c927e7db2dcc703c0e500b653ca82273b7bfad8045d85a47093505050505b90565b6000604051905090565b600080fd5b600080fd5b600060ff82169050919050565b61256681612550565b811461257157600080fd5b50565b6000813590506125838161255d565b92915050565b60006020828403121561259f5761259e612546565b5b60006125ad84828501612574565b91505092915050565b600073ffffffffffffffffffffffffffffffffffffffff82169050919050565b60006125e1826125b6565b9050919050565b6125f1816125d6565b81146125fc57600080fd5b50565b60008135905061260e816125e8565b92915050565b60006020828403121561262a57612629612546565b5b6000612638848285016125ff565b91505092915050565b61264a81612550565b82525050565b60006020820190506126656000830184612641565b92915050565b600080fd5b600080fd5b6000601f19601f8301169050919050565b7f4e487b7100000000000000000000000000000000000000000000000000000000600052604160045260246000fd5b6126be82612675565b810181811067ffffffffffffffff821117156126dd576126dc612686565b5b80604052505050565b60006126f061253c565b90506126fc82826126b5565b919050565b600067ffffffffffffffff82111561271c5761271b612686565b5b61272582612675565b9050602081019050919050565b82818337600083830152505050565b600061275461274f84612701565b6126e6565b9050828152602081018484840111156127705761276f612670565b5b61277b848285612732565b509392505050565b600082601f8301126127985761279761266b565b5b81356127a8848260208601612741565b91505092915050565b600080fd5b600080fd5b6000819050919050565b6127ce816127bb565b81146127d957600080fd5b50565b6000813590506127eb816127c5565b92915050565b600060c08284031215612807576128066127b1565b5b61281160c06126e6565b90506000612821848285016125ff565b6000830152506020612835848285016125ff565b6020830152506040612849848285016127dc565b604083015250606061285d848285016127dc565b6060830152506080612871848285016127dc565b60808301525060a082013567ffffffffffffffff811115612895576128946127b6565b5b6128a184828501612783565b60a08301525092915050565b6000806000606084860312156128c6576128c5612546565b5b600084013567ffffffffffffffff8111156128e4576128e361254b565b5b6128f086828701612783565b935050602084013567ffffffffffffffff8111156129115761291061254b565b5b61291d868287016127f1565b925050604084013567ffffffffffffffff81111561293e5761293d61254b565b5b61294a86828701612783565b9150509250925092565b6000806040838503121561296b5761296a612546565b5b600083013567ffffffffffffffff8111156129895761298861254b565b5b612995858286016127f1565b925050602083013567ffffffffffffffff8111156129b6576129b561254b565b5b6129c285828601612783565b9150509250929050565b6129d5816127bb565b82525050565b60006020820190506129f060008301846129cc565b92915050565b60007fff0000000000000000000000000000000000000000000000000000000000000082169050919050565b612a2b816129f6565b82525050565b600081519050919050565b600082825260208201905092915050565b60005b83811015612a6b578082015181840152602081019050612a50565b60008484015250505050565b6000612a8282612a31565b612a8c8185612a3c565b9350612a9c818560208601612a4d565b612aa581612675565b840191505092915050565b612ab9816125d6565b82525050565b6000819050919050565b612ad281612abf565b82525050565b600081519050919050565b600082825260208201905092915050565b6000819050602082019050919050565b612b0d816127bb565b82525050565b6000612b1f8383612b04565b60208301905092915050565b6000602082019050919050565b6000612b4382612ad8565b612b4d8185612ae3565b9350612b5883612af4565b8060005b83811015612b89578151612b708882612b13565b9750612b7b83612b2b565b925050600181019050612b5c565b5085935050505092915050565b600060e082019050612bab600083018a612a22565b8181036020830152612bbd8189612a77565b90508181036040830152612bd18188612a77565b9050612be060608301876129cc565b612bed6080830186612ab0565b612bfa60a0830185612ac9565b81810360c0830152612c0c8184612b38565b905098975050505050505050565b6000602082019050612c2f6000830184612ab0565b92915050565b60008060408385031215612c4c57612c4b612546565b5b6000612c5a858286016125ff565b9250506020612c6b85828601612574565b9150509250929050565b60008060408385031215612c8c57612c8b612546565b5b6000612c9a858286016125ff565b9250506020612cab858286016127dc565b9150509250929050565b60008115159050919050565b612cca81612cb5565b82525050565b6000602082019050612ce56000830184612cc1565b92915050565b600060a08284031215612d0157612d006127b1565b5b612d0b60a06126e6565b90506000612d1b848285016125ff565b6000830152506020612d2f848285016127dc565b6020830152506040612d43848285016127dc565b6040830152506060612d57848285016127dc565b606083015250608082013567ffffffffffffffff811115612d7b57612d7a6127b6565b5b612d8784828501612783565b60808301525092915050565b60008060408385031215612daa57612da9612546565b5b600083013567ffffffffffffffff811115612dc857612dc761254b565b5b612dd485828601612ceb565b925050602083013567ffffffffffffffff811115612df557612df461254b565b5b612e0185828601612783565b9150509250929050565b60006020820190508181036000830152612e258184612a77565b905092915050565b6000602082019050612e426000830184612ac9565b92915050565b600081519050612e57816127c5565b92915050565b600060208284031215612e7357612e72612546565b5b6000612e8184828501612e48565b91505092915050565b6000604082019050612e9f6000830185612ab0565b612eac60208301846129cc565b9392505050565b612ebc81612cb5565b8114612ec757600080fd5b50565b600081519050612ed981612eb3565b92915050565b600060208284031215612ef557612ef4612546565b5b6000612f0384828501612eca565b91505092915050565b600060e082019050612f21600083018a612ab0565b612f2e6020830189612ab0565b612f3b60408301886129cc565b612f4860608301876129cc565b612f556080830186612641565b612f6260a0830185612ac9565b612f6f60c0830184612ac9565b98975050505050505050565b6000604082019050612f906000830185612ab0565b612f9d6020830184612ab0565b9392505050565b7f4549503731323a20556e696e697469616c697a65640000000000000000000000600082015250565b6000612fda601583612a3c565b9150612fe582612fa4565b602082019050919050565b6000602082019050818103600083015261300981612fcd565b9050919050565b6000819050919050565b600067ffffffffffffffff82169050919050565b6000819050919050565b600061305361304e61304984613010565b61302e565b61301a565b9050919050565b61306381613038565b82525050565b600060208201905061307e600083018461305a565b92915050565b7f4d435061796d656e743a207061796d656e7420616c7265616479207061696400600082015250565b60006130ba601f83612a3c565b91506130c582613084565b602082019050919050565b60006060820190506130e56000830185612ab0565b6130f260208301846129cc565b8181036040830152613103816130ad565b90509392505050565b7f4d435061796d656e743a20696e76616c6964207061796d656e742076616c7565600082015250565b6000613142602083612a3c565b915061314d8261310c565b602082019050919050565b600060608201905061316d6000830185612ab0565b61317a60208301846129cc565b818103604083015261318b81613135565b90509392505050565b7f4d435061796d656e743a207061796d656e742065787069726564000000000000600082015250565b60006131ca601a83612a3c565b91506131d582613194565b602082019050919050565b60006060820190506131f56000830185612ab0565b61320260208301846129cc565b8181036040830152613213816131bd565b90509392505050565b7f4e487b7100000000000000000000000000000000000000000000000000000000600052601160045260246000fd5b6000613256826127bb565b9150613261836127bb565b925082820261326f816127bb565b915082820484148315176132865761328561321c565b5b5092915050565b7f4e487b7100000000000000000000000000000000000000000000000000000000600052601260045260246000fd5b60006132c7826127bb565b91506132d2836127bb565b9250826132e2576132e161328d565b5b828204905092915050565b60006132f8826127bb565b9150613303836127bb565b925082820390508181111561331b5761331a61321c565b5b92915050565b600061332c826127bb565b9150613337836127bb565b925082820190508082111561334f5761334e61321c565b5b92915050565b600060e08201905061336a600083018a612ac9565b6133776020830189612ab0565b6133846040830188612ab0565b61339160608301876129cc565b61339e60808301866129cc565b6133ab60a08301856129cc565b6133b860c0830184612ac9565b98975050505050505050565b600060c0820190506133d96000830189612ac9565b6133e66020830188612ab0565b6133f360408301876129cc565b61340060608301866129cc565b61340d60808301856129cc565b61341a60a0830184612ac9565b979650505050505050565b600081905092915050565b50565b6000613440600083613425565b915061344b82613430565b600082019050919050565b600061346182613433565b9150819050919050565b7f4e487b7100000000000000000000000000000000000000000000000000000000600052602260045260246000fd5b600060028204905060018216806134b257607f821691505b6020821081036134c5576134c461346b565b5b50919050565b7f4e487b7100000000000000000000000000000000000000000000000000000000600052602160045260246000fd5b600060608201905061350f6000830186612ab0565b61351c6020830185612ab0565b61352960408301846129cc565b949350505050565b60008190508160005260206000209050919050565b60006020601f8301049050919050565b600082821b905092915050565b6000600883026135937fffffffffffffffffffffffffffffffffffffffffffffffffffffffffffffffff82613556565b61359d8683613556565b95508019841693508086168417925050509392505050565b60006135d06135cb6135c6846127bb565b61302e565b6127bb565b9050919050565b6000819050919050565b6135ea836135b5565b6135fe6135f6826135d7565b848454613563565b825550505050565b600090565b613613613606565b61361e8184846135e1565b505050565b5b818110156136425761363760008261360b565b600181019050613624565b5050565b601f8211156136875761365881613531565b61366184613546565b81016020851015613670578190505b61368461367c85613546565b830182613623565b50505b505050565b600082821c905092915050565b60006136aa6000198460080261368c565b1980831691505092915050565b60006136c38383613699565b9150826002028217905092915050565b6136dc82612a31565b67ffffffffffffffff8111156136f5576136f4612686565b5b6136ff825461349a565b61370a828285613646565b600060209050601f83116001811461373d576000841561372b578287015190505b61373585826136b7565b86555061379d565b601f19841661374b86613531565b60005b828110156137735784890151825560018201915060208501945060208101905061374e565b86831015613790578489015161378c601f891682613699565b8355505b6001600288020188555050505b505050505050565b60006080820190506137ba6000830187612ac9565b6137c76020830186612641565b6137d46040830185612ac9565b6137e16060830184612ac9565b95945050505050565b600060a0820190506137ff6000830188612ac9565b61380c6020830187612ac9565b6138196040830186612ac9565b61382660608301856129cc565b6138336080830184612ab0565b969550505050505056fea2646970667358221220982c353e748062cc4b42e4fb2950e2e37ab6153bafe94525e701537abc60a09664736f6c634300081b0033",
  "linkReferences": {},
  "deployedLinkReferences": {}
}