{
  "_format": "hh-sol-artifact-1",
  "contractName": "UniversalVerifier",
  "sourceName": "contracts/verifiers/UniversalVerifier.sol",
  "abi": [
    {
      "inputs": [],
      "stateMutability": "nonpayable",
      "type": "constructor"
    },
    {
      "inputs": [
        {
          "internalType": "string",
          "name": "authMethod",
          "type": "string"
        }
      ],
      "name": "AuthMethodIsNotActive",
      "type": "error"
    },
    {
      "inputs": [],
      "name": "ChallengeIsInvalid",
      "type": "error"
    },
    {
      "inputs": [
        {
          "internalType": "uint256",
          "name": "length",
          "type": "uint256"
        }
      ],
      "name": "ChecksumLengthRequired",
      "type": "error"
    },
    {
      "inputs": [
        {
          "internalType": "uint256",
          "name": "length",
          "type": "uint256"
        }
      ],
      "name": "IdBytesLengthRequired",
      "type": "error"
    },
    {
      "inputs": [],
      "name": "InvalidInitialization",
      "type": "error"
    },
    {
      "inputs": [
        {
          "internalType": "address",
          "name": "requestOwner",
          "type": "address"
        },
        {
          "internalType": "address",
          "name": "sender",
          "type": "address"
        }
      ],
      "name": "InvalidRequestOwner",
      "type": "error"
    },
    {
      "inputs": [],
      "name": "MetadataNotSupportedYet",
      "type": "error"
    },
    {
      "inputs": [
        {
          "internalType": "uint256",
          "name": "multiRequestId",
          "type": "uint256"
        }
      ],
      "name": "MultiRequestIdAlreadyExists",
      "type": "error"
    },
    {
      "inputs": [
        {
          "internalType": "uint256",
          "name": "multiRequestId",
          "type": "uint256"
        }
      ],
      "name": "MultiRequestIdNotFound",
      "type": "error"
    },
    {
      "inputs": [],
      "name": "NoEmbeddedAuthInResponsesFound",
      "type": "error"
    },
    {
      "inputs": [
        {
          "internalType": "address",
          "name": "",
          "type": "address"
        }
      ],
      "name": "NotAnOwnerOrRequestOwner",
      "type": "error"
    },
    {
      "inputs": [],
      "name": "NotInitializing",
      "type": "error"
    },
    {
      "inputs": [
        {
          "internalType": "address",
          "name": "owner",
          "type": "address"
        }
      ],
      "name": "OwnableInvalidOwner",
      "type": "error"
    },
    {
      "inputs": [
        {
          "internalType": "address",
          "name": "account",
          "type": "address"
        }
      ],
      "name": "OwnableUnauthorizedAccount",
      "type": "error"
    },
    {
      "inputs": [
        {
          "internalType": "uint256",
          "name": "requestId",
          "type": "uint256"
        }
      ],
      "name": "RequestIdAlreadyExists",
      "type": "error"
    },
    {
      "inputs": [
        {
          "internalType": "uint256",
          "name": "requestId",
          "type": "uint256"
        }
      ],
      "name": "RequestIdNotFound",
      "type": "error"
    },
    {
      "inputs": [
        {
          "internalType": "uint256",
          "name": "requestId",
          "type": "uint256"
        }
      ],
      "name": "RequestIsDisabled",
      "type": "error"
    },
    {
      "inputs": [],
      "name": "UserNotAuthenticated",
      "type": "error"
    },
    {
      "inputs": [
        {
          "internalType": "address",
          "name": "validator",
          "type": "address"
        }
      ],
      "name": "ValidatorIsNotWhitelisted",
      "type": "error"
    },
    {
      "inputs": [
        {
          "internalType": "address",
          "name": "validator",
          "type": "address"
        }
      ],
      "name": "ValidatorNotSupportInterface",
      "type": "error"
    },
    {
      "anonymous": false,
      "inputs": [
        {
          "indexed": true,
          "internalType": "string",
          "name": "authMethod",
          "type": "string"
        },
        {
          "indexed": false,
          "internalType": "address",
          "name": "validator",
          "type": "address"
        },
        {
          "indexed": false,
          "internalType": "bytes",
          "name": "params",
          "type": "bytes"
        }
      ],
      "name": "AuthMethodSet",
      "type": "event"
    },
    {
      "anonymous": false,
      "inputs": [
        {
          "indexed": true,
          "internalType": "string",
          "name": "authMethod",
          "type": "string"
        },
        {
          "indexed": true,
          "internalType": "address",
          "name": "caller",
          "type": "address"
        }
      ],
      "name": "AuthResponseSubmitted",
      "type": "event"
    },
    {
      "anonymous": false,
      "inputs": [
        {
          "indexed": false,
          "internalType": "uint64",
          "name": "version",
          "type": "uint64"
        }
      ],
      "name": "Initialized",
      "type": "event"
    },
    {
      "anonymous": false,
      "inputs": [
        {
          "indexed": true,
          "internalType": "uint256",
          "name": "multiRequestId",
          "type": "uint256"
        },
        {
          "indexed": false,
          "internalType": "uint256[]",
          "name": "requestIds",
          "type": "uint256[]"
        },
        {
          "indexed": false,
          "internalType": "uint256[]",
          "name": "groupIds",
          "type": "uint256[]"
        }
      ],
      "name": "MultiRequestSet",
      "type": "event"
    },
    {
      "anonymous": false,
      "inputs": [
        {
          "indexed": true,
          "internalType": "address",
          "name": "previousOwner",
          "type": "address"
        },
        {
          "indexed": true,
          "internalType": "address",
          "name": "newOwner",
          "type": "address"
        }
      ],
      "name": "OwnershipTransferStarted",
      "type": "event"
    },
    {
      "anonymous": false,
      "inputs": [
        {
          "indexed": true,
          "internalType": "address",
          "name": "previousOwner",
          "type": "address"
        },
        {
          "indexed": true,
          "internalType": "address",
          "name": "newOwner",
          "type": "address"
        }
      ],
      "name": "OwnershipTransferred",
      "type": "event"
    },
    {
      "anonymous": false,
      "inputs": [
        {
          "indexed": true,
          "internalType": "uint256",
          "name": "requestId",
          "type": "uint256"
        },
        {
          "indexed": true,
          "internalType": "address",
          "name": "creator",
          "type": "address"
        },
        {
          "indexed": false,
          "internalType": "string",
          "name": "metadata",
          "type": "string"
        },
        {
          "indexed": false,
          "internalType": "address",
          "name": "validator",
          "type": "address"
        },
        {
          "indexed": false,
          "internalType": "bytes",
          "name": "params",
          "type": "bytes"
        }
      ],
      "name": "RequestSet",
      "type": "event"
    },
    {
      "anonymous": false,
      "inputs": [
        {
          "indexed": true,
          "internalType": "uint256",
          "name": "requestId",
          "type": "uint256"
        },
        {
          "indexed": true,
          "internalType": "address",
          "name": "creator",
          "type": "address"
        },
        {
          "indexed": false,
          "internalType": "string",
          "name": "metadata",
          "type": "string"
        },
        {
          "indexed": false,
          "internalType": "address",
          "name": "validator",
          "type": "address"
        },
        {
          "indexed": false,
          "internalType": "bytes",
          "name": "params",
          "type": "bytes"
        }
      ],
      "name": "RequestUpdate",
      "type": "event"
    },
    {
      "anonymous": false,
      "inputs": [
        {
          "indexed": true,
          "internalType": "uint256",
          "name": "requestId",
          "type": "uint256"
        },
        {
          "indexed": true,
          "internalType": "address",
          "name": "caller",
          "type": "address"
        }
      ],
      "name": "ResponseSubmitted",
      "type": "event"
    },
    {
      "inputs": [],
      "name": "VERSION",
      "outputs": [
        {
          "internalType": "string",
          "name": "",
          "type": "string"
        }
      ],
      "stateMutability": "view",
      "type": "function"
    },
    {
      "inputs": [],
      "name": "acceptOwnership",
      "outputs": [],
      "stateMutability": "nonpayable",
      "type": "function"
    },
    {
      "inputs": [
        {
          "internalType": "contract IRequestValidator",
          "name": "validator",
          "type": "address"
        }
      ],
      "name": "addValidatorToWhitelist",
      "outputs": [],
      "stateMutability": "nonpayable",
      "type": "function"
    },
    {
      "inputs": [
        {
          "internalType": "uint256",
          "name": "multiRequestId",
          "type": "uint256"
        },
        {
          "internalType": "address",
          "name": "userAddress",
          "type": "address"
        }
      ],
      "name": "areMultiRequestProofsVerified",
      "outputs": [
        {
          "internalType": "bool",
          "name": "",
          "type": "bool"
        }
      ],
      "stateMutability": "view",
      "type": "function"
    },
    {
      "inputs": [
        {
          "internalType": "string",
          "name": "authMethod",
          "type": "string"
        }
      ],
      "name": "authMethodExists",
      "outputs": [
        {
          "internalType": "bool",
          "name": "",
          "type": "bool"
        }
      ],
      "stateMutability": "view",
      "type": "function"
    },
    {
      "inputs": [
        {
          "internalType": "string",
          "name": "authMethod",
          "type": "string"
        }
      ],
      "name": "disableAuthMethod",
      "outputs": [],
      "stateMutability": "nonpayable",
      "type": "function"
    },
    {
      "inputs": [
        {
          "internalType": "uint256",
          "name": "requestId",
          "type": "uint256"
        }
      ],
      "name": "disableRequest",
      "outputs": [],
      "stateMutability": "nonpayable",
      "type": "function"
    },
    {
      "inputs": [
        {
          "internalType": "string",
          "name": "authMethod",
          "type": "string"
        }
      ],
      "name": "enableAuthMethod",
      "outputs": [],
      "stateMutability": "nonpayable",
      "type": "function"
    },
    {
      "inputs": [
        {
          "internalType": "uint256",
          "name": "requestId",
          "type": "uint256"
        }
      ],
      "name": "enableRequest",
      "outputs": [],
      "stateMutability": "nonpayable",
      "type": "function"
    },
    {
      "inputs": [
        {
          "internalType": "string",
          "name": "authMethod",
          "type": "string"
        }
      ],
      "name": "getAuthMethod",
      "outputs": [
        {
          "components": [
            {
              "internalType": "contract IAuthValidator",
              "name": "validator",
              "type": "address"
            },
            {
              "internalType": "bytes",
              "name": "params",
              "type": "bytes"
            },
            {
              "internalType": "bool",
              "name": "isActive",
              "type": "bool"
            }
          ],
          "internalType": "struct Verifier.AuthMethodData",
          "name": "authMethodData",
          "type": "tuple"
        }
      ],
      "stateMutability": "view",
      "type": "function"
    },
    {
      "inputs": [
        {
          "internalType": "uint256",
          "name": "groupID",
          "type": "uint256"
        }
      ],
      "name": "getGroupedRequests",
      "outputs": [
        {
          "components": [
            {
              "internalType": "uint256",
              "name": "requestId",
              "type": "uint256"
            },
            {
              "internalType": "string",
              "name": "metadata",
              "type": "string"
            },
            {
              "internalType": "contract IRequestValidator",
              "name": "validator",
              "type": "address"
            },
            {
              "internalType": "bytes",
              "name": "params",
              "type": "bytes"
            },
            {
              "internalType": "address",
              "name": "creator",
              "type": "address"
            }
          ],
          "internalType": "struct IVerifier.RequestInfo[]",
          "name": "",
          "type": "tuple[]"
        }
      ],
      "stateMutability": "view",
      "type": "function"
    },
    {
      "inputs": [],
      "name": "getGroupsCount",
      "outputs": [
        {
          "internalType": "uint256",
          "name": "",
          "type": "uint256"
        }
      ],
      "stateMutability": "view",
      "type": "function"
    },
    {
      "inputs": [
        {
          "internalType": "uint256",
          "name": "multiRequestId",
          "type": "uint256"
        }
      ],
      "name": "getMultiRequest",
      "outputs": [
        {
          "components": [
            {
              "internalType": "uint256",
              "name": "multiRequestId",
              "type": "uint256"
            },
            {
              "internalType": "uint256[]",
              "name": "requestIds",
              "type": "uint256[]"
            },
            {
              "internalType": "uint256[]",
              "name": "groupIds",
              "type": "uint256[]"
            },
            {
              "internalType": "bytes",
              "name": "metadata",
              "type": "bytes"
            }
          ],
          "internalType": "struct IVerifier.MultiRequest",
          "name": "multiRequest",
          "type": "tuple"
        }
      ],
      "stateMutability": "view",
      "type": "function"
    },
    {
      "inputs": [
        {
          "internalType": "uint256",
          "name": "multiRequestId",
          "type": "uint256"
        },
        {
          "internalType": "address",
          "name": "userAddress",
          "type": "address"
        }
      ],
      "name": "getMultiRequestProofsStatus",
      "outputs": [
        {
          "components": [
            {
              "internalType": "uint256",
              "name": "requestId",
              "type": "uint256"
            },
            {
              "internalType": "bool",
              "name": "isVerified",
              "type": "bool"
            },
            {
              "internalType": "string",
              "name": "validatorVersion",
              "type": "string"
            },
            {
              "internalType": "uint256",
              "name": "timestamp",
              "type": "uint256"
            }
          ],
          "internalType": "struct IVerifier.RequestProofStatus[]",
          "name": "",
          "type": "tuple[]"
        }
      ],
      "stateMutability": "view",
      "type": "function"
    },
    {
      "inputs": [
        {
          "internalType": "uint256",
          "name": "requestId",
          "type": "uint256"
        }
      ],
      "name": "getRequest",
      "outputs": [
        {
          "components": [
            {
              "internalType": "uint256",
              "name": "requestId",
              "type": "uint256"
            },
            {
              "internalType": "string",
              "name": "metadata",
              "type": "string"
            },
            {
              "internalType": "contract IRequestValidator",
              "name": "validator",
              "type": "address"
            },
            {
              "internalType": "bytes",
              "name": "params",
              "type": "bytes"
            },
            {
              "internalType": "address",
              "name": "creator",
              "type": "address"
            }
          ],
          "internalType": "struct IVerifier.RequestInfo",
          "name": "request",
          "type": "tuple"
        }
      ],
      "stateMutability": "view",
      "type": "function"
    },
    {
      "inputs": [
        {
          "internalType": "uint256",
          "name": "requestId",
          "type": "uint256"
        }
      ],
      "name": "getRequestOwner",
      "outputs": [
        {
          "internalType": "address",
          "name": "",
          "type": "address"
        }
      ],
      "stateMutability": "view",
      "type": "function"
    },
    {
      "inputs": [
        {
          "internalType": "address",
          "name": "sender",
          "type": "address"
        },
        {
          "internalType": "uint256",
          "name": "requestId",
          "type": "uint256"
        }
      ],
      "name": "getRequestProofStatus",
      "outputs": [
        {
          "components": [
            {
              "internalType": "uint256",
              "name": "requestId",
              "type": "uint256"
            },
            {
              "internalType": "bool",
              "name": "isVerified",
              "type": "bool"
            },
            {
              "internalType": "string",
              "name": "validatorVersion",
              "type": "string"
            },
            {
              "internalType": "uint256",
              "name": "timestamp",
              "type": "uint256"
            }
          ],
          "internalType": "struct IVerifier.RequestProofStatus",
          "name": "",
          "type": "tuple"
        }
      ],
      "stateMutability": "view",
      "type": "function"
    },
    {
      "inputs": [],
      "name": "getRequestsCount",
      "outputs": [
        {
          "internalType": "uint256",
          "name": "",
          "type": "uint256"
        }
      ],
      "stateMutability": "view",
      "type": "function"
    },
    {
      "inputs": [
        {
          "internalType": "uint256",
          "name": "requestId",
          "type": "uint256"
        },
        {
          "internalType": "address",
          "name": "sender",
          "type": "address"
        },
        {
          "internalType": "string",
          "name": "responseFieldName",
          "type": "string"
        }
      ],
      "name": "getResponseFieldValue",
      "outputs": [
        {
          "internalType": "uint256",
          "name": "",
          "type": "uint256"
        }
      ],
      "stateMutability": "view",
      "type": "function"
    },
    {
      "inputs": [
        {
          "internalType": "uint256",
          "name": "requestId",
          "type": "uint256"
        },
        {
          "internalType": "address",
          "name": "sender",
          "type": "address"
        }
      ],
      "name": "getResponseFields",
      "outputs": [
        {
          "components": [
            {
              "internalType": "string",
              "name": "name",
              "type": "string"
            },
            {
              "internalType": "uint256",
              "name": "value",
              "type": "uint256"
            },
            {
              "internalType": "bytes",
              "name": "rawValue",
              "type": "bytes"
            }
          ],
          "internalType": "struct IRequestValidator.ResponseField[]",
          "name": "",
          "type": "tuple[]"
        }
      ],
      "stateMutability": "view",
      "type": "function"
    },
    {
      "inputs": [],
      "name": "getStateAddress",
      "outputs": [
        {
          "internalType": "address",
          "name": "",
          "type": "address"
        }
      ],
      "stateMutability": "view",
      "type": "function"
    },
    {
      "inputs": [],
      "name": "getVerifierID",
      "outputs": [
        {
          "internalType": "uint256",
          "name": "",
          "type": "uint256"
        }
      ],
      "stateMutability": "view",
      "type": "function"
    },
    {
      "inputs": [
        {
          "internalType": "uint256",
          "name": "groupId",
          "type": "uint256"
        }
      ],
      "name": "groupIdExists",
      "outputs": [
        {
          "internalType": "bool",
          "name": "",
          "type": "bool"
        }
      ],
      "stateMutability": "view",
      "type": "function"
    },
    {
      "inputs": [
        {
          "internalType": "contract IState",
          "name": "state",
          "type": "address"
        },
        {
          "internalType": "address",
          "name": "owner",
          "type": "address"
        }
      ],
      "name": "initialize",
      "outputs": [],
      "stateMutability": "nonpayable",
      "type": "function"
    },
    {
      "inputs": [
        {
          "internalType": "uint256",
          "name": "requestId",
          "type": "uint256"
        }
      ],
      "name": "isRequestEnabled",
      "outputs": [
        {
          "internalType": "bool",
          "name": "",
          "type": "bool"
        }
      ],
      "stateMutability": "view",
      "type": "function"
    },
    {
      "inputs": [
        {
          "internalType": "address",
          "name": "sender",
          "type": "address"
        },
        {
          "internalType": "uint256",
          "name": "requestId",
          "type": "uint256"
        }
      ],
      "name": "isRequestProofVerified",
      "outputs": [
        {
          "internalType": "bool",
          "name": "",
          "type": "bool"
        }
      ],
      "stateMutability": "view",
      "type": "function"
    },
    {
      "inputs": [
        {
          "internalType": "contract IRequestValidator",
          "name": "validator",
          "type": "address"
        }
      ],
      "name": "isWhitelistedValidator",
      "outputs": [
        {
          "internalType": "bool",
          "name": "",
          "type": "bool"
        }
      ],
      "stateMutability": "view",
      "type": "function"
    },
    {
      "inputs": [
        {
          "internalType": "uint256",
          "name": "multiRequestId",
          "type": "uint256"
        }
      ],
      "name": "multiRequestIdExists",
      "outputs": [
        {
          "internalType": "bool",
          "name": "",
          "type": "bool"
        }
      ],
      "stateMutability": "view",
      "type": "function"
    },
    {
      "inputs": [],
      "name": "owner",
      "outputs": [
        {
          "internalType": "address",
          "name": "",
          "type": "address"
        }
      ],
      "stateMutability": "view",
      "type": "function"
    },
    {
      "inputs": [],
      "name": "pendingOwner",
      "outputs": [
        {
          "internalType": "address",
          "name": "",
          "type": "address"
        }
      ],
      "stateMutability": "view",
      "type": "function"
    },
    {
      "inputs": [
        {
          "internalType": "contract IRequestValidator",
          "name": "validator",
          "type": "address"
        }
      ],
      "name": "removeValidatorFromWhitelist",
      "outputs": [],
      "stateMutability": "nonpayable",
      "type": "function"
    },
    {
      "inputs": [],
      "name": "renounceOwnership",
      "outputs": [],
      "stateMutability": "nonpayable",
      "type": "function"
    },
    {
      "inputs": [
        {
          "internalType": "uint256",
          "name": "requestId",
          "type": "uint256"
        }
      ],
      "name": "requestIdExists",
      "outputs": [
        {
          "internalType": "bool",
          "name": "",
          "type": "bool"
        }
      ],
      "stateMutability": "view",
      "type": "function"
    },
    {
      "inputs": [
        {
          "components": [
            {
              "internalType": "string",
              "name": "authMethod",
              "type": "string"
            },
            {
              "internalType": "contract IAuthValidator",
              "name": "validator",
              "type": "address"
            },
            {
              "internalType": "bytes",
              "name": "params",
              "type": "bytes"
            }
          ],
          "internalType": "struct IVerifier.AuthMethod",
          "name": "authMethod",
          "type": "tuple"
        }
      ],
      "name": "setAuthMethod",
      "outputs": [],
      "stateMutability": "nonpayable",
      "type": "function"
    },
    {
      "inputs": [
        {
          "components": [
            {
              "internalType": "uint256",
              "name": "multiRequestId",
              "type": "uint256"
            },
            {
              "internalType": "uint256[]",
              "name": "requestIds",
              "type": "uint256[]"
            },
            {
              "internalType": "uint256[]",
              "name": "groupIds",
              "type": "uint256[]"
            },
            {
              "internalType": "bytes",
              "name": "metadata",
              "type": "bytes"
            }
          ],
          "internalType": "struct IVerifier.MultiRequest",
          "name": "multiRequest",
          "type": "tuple"
        }
      ],
      "name": "setMultiRequest",
      "outputs": [],
      "stateMutability": "nonpayable",
      "type": "function"
    },
    {
      "inputs": [
        {
          "internalType": "uint256",
          "name": "requestId",
          "type": "uint256"
        },
        {
          "internalType": "address",
          "name": "requestOwner",
          "type": "address"
        }
      ],
      "name": "setRequestOwner",
      "outputs": [],
      "stateMutability": "nonpayable",
      "type": "function"
    },
    {
      "inputs": [
        {
          "components": [
            {
              "internalType": "uint256",
              "name": "requestId",
              "type": "uint256"
            },
            {
              "internalType": "string",
              "name": "metadata",
              "type": "string"
            },
            {
              "internalType": "contract IRequestValidator",
              "name": "validator",
              "type": "address"
            },
            {
              "internalType": "bytes",
              "name": "params",
              "type": "bytes"
            },
            {
              "internalType": "address",
              "name": "creator",
              "type": "address"
            }
          ],
          "internalType": "struct IVerifier.Request[]",
          "name": "requests",
          "type": "tuple[]"
        }
      ],
      "name": "setRequests",
      "outputs": [],
      "stateMutability": "nonpayable",
      "type": "function"
    },
    {
      "inputs": [
        {
          "internalType": "contract IState",
          "name": "state",
          "type": "address"
        }
      ],
      "name": "setState",
      "outputs": [],
      "stateMutability": "nonpayable",
      "type": "function"
    },
    {
      "inputs": [
        {
          "internalType": "uint256",
          "name": "verifierID",
          "type": "uint256"
        }
      ],
      "name": "setVerifierID",
      "outputs": [],
      "stateMutability": "nonpayable",
      "type": "function"
    },
    {
      "inputs": [
        {
          "components": [
            {
              "internalType": "string",
              "name": "authMethod",
              "type": "string"
            },
            {
              "internalType": "bytes",
              "name": "proof",
              "type": "bytes"
            }
          ],
          "internalType": "struct IVerifier.AuthResponse",
          "name": "authResponse",
          "type": "tuple"
        },
        {
          "components": [
            {
              "internalType": "uint256",
              "name": "requestId",
              "type": "uint256"
            },
            {
              "internalType": "bytes",
              "name": "proof",
              "type": "bytes"
            },
            {
              "internalType": "bytes",
              "name": "metadata",
              "type": "bytes"
            }
          ],
          "internalType": "struct IVerifier.Response[]",
          "name": "responses",
          "type": "tuple[]"
        },
        {
          "internalType": "bytes",
          "name": "crossChainProofs",
          "type": "bytes"
        }
      ],
      "name": "submitResponse",
      "outputs": [],
      "stateMutability": "nonpayable",
      "type": "function"
    },
    {
      "inputs": [
        {
          "internalType": "address",
          "name": "newOwner",
          "type": "address"
        }
      ],
      "name": "transferOwnership",
      "outputs": [],
      "stateMutability": "nonpayable",
      "type": "function"
    },
    {
      "inputs": [
        {
          "components": [
            {
              "internalType": "uint256",
              "name": "requestId",
              "type": "uint256"
            },
            {
              "internalType": "string",
              "name": "metadata",
              "type": "string"
            },
            {
              "internalType": "contract IRequestValidator",
              "name": "validator",
              "type": "address"
            },
            {
              "internalType": "bytes",
              "name": "params",
              "type": "bytes"
            },
            {
              "internalType": "address",
              "name": "creator",
              "type": "address"
            }
          ],
          "internalType": "struct IVerifier.Request",
          "name": "request",
          "type": "tuple"
        }
      ],
      "name": "updateRequest",
      "outputs": [],
      "stateMutability": "nonpayable",
      "type": "function"
    },
    {
      "inputs": [],
      "name": "version",
      "outputs": [
        {
          "internalType": "string",
          "name": "",
          "type": "string"
        }
      ],
      "stateMutability": "pure",
      "type": "function"
    }
  ],
  "bytecode": "0x6080604052348015600f57600080fd5b506016601a565b60ca565b7ff0c57e16840df040f15088dc2f81fe391c3923bec73e23a9662efc9c229c6a00805468010000000000000000900460ff161560695760405163f92ee8a960e01b815260040160405180910390fd5b80546001600160401b039081161460c75780546001600160401b0319166001600160401b0390811782556040519081527fc7f505b2f371ae2175ee4913f4499e1f2633a7b5936321eed1cdaeb6115181d29060200160405180910390a15b50565b614930806100d96000396000f3fe608060405234801561001057600080fd5b50600436106102295760003560e01c80638611cb6711610131578063c58343ef116100b3578063c58343ef146104be578063cea0607f146104de578063d4d9f766146104f1578063e1470f9a14610504578063e30c397814610517578063e85556031461051f578063f1fd996414610532578063f2e27c6814610552578063f2fde38b14610572578063fd8a8d7d14610585578063ffa1ad741461059857600080fd5b80638611cb67146104015780638da5cb5b146104145780639b36d0361461041c578063a03666441461042f578063ad9d21e714610442578063b208eae814610462578063b33a998f1461046a578063b84afbb41461047d578063bbd8b7a114610485578063bfcbcc3114610498578063c087b0d4146104ab57600080fd5b806354fd4d50116101ba57806354fd4d501461031557806359f871a11461033f578063617879fe14610352578063715018a614610365578063751adcd21461036d57806379ba50971461038d5780637ad8dc61146103955780637b8f6d37146103a85780637bc499e5146103bb5780637c7a9a5c146103ce578063829b3ae1146103e157600080fd5b806306c86a911461022e5780630f12a241146102435780631cf5cf241461026b57806330837e061461027e57806331969e571461029e5780633410452a146102b357806334c901af146102c95780634288c7ae146102dc57806347861fe2146102ef578063485cc95514610302575b600080fd5b61024161023c3660046130c3565b6105bc565b005b6102566102513660046131b4565b610672565b60405190151581526020015b60405180910390f35b6102416102793660046131cd565b6106c6565b61029161028c3660046131b4565b6106dc565b60405161026291906132f8565b6102a6610772565b604051610262919061335d565b6102bb61078e565b604051908152602001610262565b6102416102d7366004613386565b6107a1565b6102566102ea3660046131b4565b6107b5565b6102416102fd3660046131b4565b610841565b6102416103103660046133a3565b6108b4565b6040805180820190915260058152640322e322e360dc1b60208201525b60405161026291906133dc565b61024161034d366004613386565b6109b8565b610241610360366004613386565b6109c9565b6102416109da565b61038061037b3660046131cd565b6109ee565b60405161026291906133ef565b610241610aab565b6102416103a3366004613435565b610ae7565b6102566103b63660046131b4565b610b56565b6102416103c936600461345a565b610b7a565b6102416103dc3660046131cd565b610c0b565b6103f46103ef366004613435565b610c1d565b6040516102629190613494565b6102a661040f3660046131b4565b610ca6565b6102a6610d11565b61025661042a366004613386565b610d46565b61024161043d36600461351e565b610d72565b610455610450366004613558565b610e05565b60405161026291906135c3565b6102bb610f03565b6102416104783660046131b4565b610f16565b6102bb610f84565b6102566104933660046135d6565b610f97565b6102bb6104a636600461360a565b610fd9565b6102416104b93660046131b4565b611068565b6104d16104cc3660046131b4565b611079565b604051610262919061364c565b6102566104ec3660046131b4565b61114b565b6102566104ff366004613435565b61116f565b61024161051236600461365f565b6111f4565b6102a6611280565b61025661052d366004613558565b61128b565b610545610540366004613435565b6112ec565b6040516102629190613699565b6105656105603660046131b4565b611375565b604051610262919061372e565b610241610580366004613386565b61142e565b61024161059336600461378f565b61149f565b610332604051806040016040528060058152602001640322e322e360dc1b81525081565b6105c7838383611763565b825160405133916105d7916137f4565b604051908190038120907f16eed29a4411d6f696189e32f94cb87b6e2817e1aa0b9821f6d53191cfb5de7790600090a360005b825181101561066c57336001600160a01b031683828151811061062f5761062f613810565b6020908102919091010151516040517fd34a91eddebc3a46f0193e4f54124f90bd00de34c64b5407562def103949d00690600090a360010161060a565b50505050565b600081600161068082610b56565b6106a557604051633f88e60160e21b8152600481018390526024015b60405180910390fd5b6106ad611c23565b6000948552602052505060409091205460ff1615919050565b6106ce611c47565b6106d88282611c79565b5050565b606073__$869f49b84e27953e40b9102dbb6d2c5983$__636b365dd3610700611cef565b846040518363ffffffff1660e01b8152600401610727929190918252602082015260400190565b600060405180830381865af4158015610744573d6000803e3d6000fd5b505050506040513d6000823e601f3d908101601f1916820160405261076c9190810190613910565b92915050565b600061077c611cef565b600301546001600160a01b0316919050565b6000610798611cef565b60020154919050565b6107a9611c47565b6107b281611d13565b50565b600073__$869f49b84e27953e40b9102dbb6d2c5983$__635747df3d6107d9611cef565b846040518363ffffffff1660e01b8152600401610800929190918252602082015260400190565b602060405180830381865af415801561081d573d6000803e3d6000fd5b505050506040513d601f19601f8201168201806040525081019061076c91906139da565b803361084c82610ca6565b6001600160a01b0316816001600160a01b0316141580156108865750610870610d11565b6001600160a01b0316816001600160a01b031614155b156108a6578060405163527cade160e11b815260040161069c919061335d565b6108af83611d40565b505050565b60006108be611d97565b805490915060ff600160401b82041615906001600160401b03166000811580156108e55750825b90506000826001600160401b031660011480156109015750303b155b90508115801561090f575080155b1561092d5760405163f92ee8a960e01b815260040160405180910390fd5b845467ffffffffffffffff19166001178555831561095757845460ff60401b1916600160401b1785555b61096086611dc0565b61096987611dd1565b83156109af57845460ff60401b19168555604051600181527fc7f505b2f371ae2175ee4913f4499e1f2633a7b5936321eed1cdaeb6115181d29060200160405180910390a15b50505050505050565b6109c0611c47565b6107b281611de2565b6109d1611c47565b6107b281611ea7565b6109e2611c47565b6109ec6000611eb1565b565b610a1d604051806060016040528060006001600160a01b03168152602001606081526020016000151581525090565b73__$869f49b84e27953e40b9102dbb6d2c5983$__63c2fba8e0610a3f611cef565b85856040518463ffffffff1660e01b8152600401610a5f93929190613a1e565b600060405180830381865af4158015610a7c573d6000803e3d6000fd5b505050506040513d6000823e601f3d908101601f19168201604052610aa49190810190613a38565b9392505050565b3380610ab5611280565b6001600160a01b031614610ade578060405163118cdaa760e01b815260040161069c919061335d565b6107b281611eb1565b8133610af282610ca6565b6001600160a01b0316816001600160a01b031614158015610b2c5750610b16610d11565b6001600160a01b0316816001600160a01b031614155b15610b4c578060405163527cade160e11b815260040161069c919061335d565b61066c8484611ed4565b600073__$869f49b84e27953e40b9102dbb6d2c5983$__6304ade6d76107d9611cef565b80356000610b878261114b565b15610ba85760405163ac1e4c7760e01b81526004810183905260240161069c565b610bb183611f53565b82357f3f79cffed6655f27556642061782f30ad1196bf040a8de80eee5d526da9d0bc5610be16020860186613acb565b610bee6040880188613acb565b604051610bfe9493929190613b4d565b60405180910390a2505050565b610c13611c47565b6106d88282611fc8565b606073__$869f49b84e27953e40b9102dbb6d2c5983$__63fd3ef47f610c41611cef565b85856040518463ffffffff1660e01b8152600401610c6193929190613b7f565b600060405180830381865af4158015610c7e573d6000803e3d6000fd5b505050506040513d6000823e601f3d908101601f19168201604052610aa49190810190613b9e565b6000816001610cb482610b56565b610cd457604051633f88e60160e21b81526004810183905260240161069c565b50505060009081527f6209bdc3799f5201408f7a7d4d471bb2a0100353e618451674b93f730b006a0060205260409020546001600160a01b031690565b6000807f9016d09d72d40fdae2fd8ceac6b6234c7706214fd39c1cd1e609a0528c1993005b546001600160a01b031692915050565b6000610d50611fea565b6001600160a01b03909216600090815260209290925250604090205460ff1690565b610d7a611c47565b610d838161200e565b610d9360a0820160808301613386565b6001600160a01b031681357f2f517356721b15606e3bdde8939a6e814c9becc2fcef57d1c631893360c85736610dcc6020850185613cba565b610ddc6060870160408801613386565b610de96060880188613cba565b604051610dfa959493929190613d00565b60405180910390a350565b610e3260405180608001604052806000815260200160001515815260200160608152602001600081525090565b816001610e3e82610b56565b610e5e57604051633f88e60160e21b81526004810183905260240161069c565b73__$869f49b84e27953e40b9102dbb6d2c5983$__63bd4f4f5c610e80611cef565b6040516001600160e01b031960e084901b16815260048101919091526001600160a01b038816602482015260448101879052606401600060405180830381865af4158015610ed2573d6000803e3d6000fd5b505050506040513d6000823e601f3d908101601f19168201604052610efa9190810190613db0565b95945050505050565b6000610f0d611cef565b600b0154905090565b8033610f2182610ca6565b6001600160a01b0316816001600160a01b031614158015610f5b5750610f45610d11565b6001600160a01b0316816001600160a01b031614155b15610f7b578060405163527cade160e11b815260040161069c919061335d565b6108af8361218c565b6000610f8e611cef565b60050154919050565b600073__$869f49b84e27953e40b9102dbb6d2c5983$__636d86f1fc610fbb611cef565b846040518363ffffffff1660e01b8152600401610800929190613de4565b600073__$869f49b84e27953e40b9102dbb6d2c5983$__63cd9800df610ffd611cef565b8686866040518563ffffffff1660e01b815260040161101f9493929190613dfd565b602060405180830381865af415801561103c573d6000803e3d6000fd5b505050506040513d601f19601f820116820180604052508101906110609190613e2a565b949350505050565b611070611c47565b6107b2816121c2565b6110bd6040518060a00160405280600081526020016060815260200160006001600160a01b031681526020016060815260200160006001600160a01b031681525090565b73__$869f49b84e27953e40b9102dbb6d2c5983$__633397a11e6110df611cef565b846040518363ffffffff1660e01b8152600401611106929190918252602082015260400190565b600060405180830381865af4158015611123573d6000803e3d6000fd5b505050506040513d6000823e601f3d908101601f1916820160405261076c9190810190613e43565b600073__$869f49b84e27953e40b9102dbb6d2c5983$__6333961c086107d9611cef565b600073__$869f49b84e27953e40b9102dbb6d2c5983$__63b39ceffb611193611cef565b85856040518463ffffffff1660e01b81526004016111b393929190613b7f565b602060405180830381865af41580156111d0573d6000803e3d6000fd5b505050506040513d601f19601f82011682018060405250810190610aa491906139da565b6111fc611c47565b611205816121d6565b61120f8180613cba565b60405161121d929190613e77565b60405180910390207ff9782ba766756e9c6ca90d64bfd1978844530aae1eab911d4630ffc1720e15e28260200160208101906112599190613386565b6112666040850185613cba565b60405161127593929190613e87565b60405180910390a250565b600080610d36612216565b600081600161129982610b56565b6112b957604051633f88e60160e21b81526004810183905260240161069c565b6112c1611cef565b6000948552602090815260408086206001600160a01b03979097168652959052505050205460ff1690565b606073__$869f49b84e27953e40b9102dbb6d2c5983$__6339048d33611310611cef565b85856040518463ffffffff1660e01b815260040161133093929190613b7f565b600060405180830381865af415801561134d573d6000803e3d6000fd5b505050506040513d6000823e601f3d908101601f19168201604052610aa49190810190613eac565b6113a06040518060800160405280600081526020016060815260200160608152602001606081525090565b73__$869f49b84e27953e40b9102dbb6d2c5983$__63152dd00b6113c2611cef565b846040518363ffffffff1660e01b81526004016113e9929190918252602082015260400190565b600060405180830381865af4158015611406573d6000803e3d6000fd5b505050506040513d6000823e601f3d908101601f1916820160405261076c9190810190613fb4565b611436611c47565b6000611440612216565b80546001600160a01b0319166001600160a01b0384169081178255909150611466610d11565b6001600160a01b03167f38d16b8cac22d99fc7c124b9cd0de2d3fa1faef420bfe791d8c362d765e2270060405160405180910390a35050565b60006114a9611cef565b604051631879dc0f60e11b815290915073__$869f49b84e27953e40b9102dbb6d2c5983$__906330f3b81e906114e79084908790879060040161415b565b60006040518083038186803b1580156114ff57600080fd5b505af4158015611513573d6000803e3d6000fd5b5050505060005b8281101561066c5773__$869f49b84e27953e40b9102dbb6d2c5983$__6307568de385858481811061154e5761154e613810565b905060200281019061156091906141da565b3586868581811061157357611573613810565b905060200281019061158591906141da565b611593906060810190613cba565b8888878181106115a5576115a5613810565b90506020028101906115b791906141da565b6115c89060a0810190608001613386565b6040518563ffffffff1660e01b81526004016115e794939291906141f0565b60006040518083038186803b1580156115ff57600080fd5b505af4158015611613573d6000803e3d6000fd5b5050505073__$869f49b84e27953e40b9102dbb6d2c5983$__630507338e8386868581811061164457611644613810565b905060200281019061165691906141da565b6040518363ffffffff1660e01b8152600401611673929190614223565b60006040518083038186803b15801561168b57600080fd5b505af415801561169f573d6000803e3d6000fd5b5050505073__$869f49b84e27953e40b9102dbb6d2c5983$__6311bdf5cd838686858181106116d0576116d0613810565b90506020028101906116e291906141da565b6040518363ffffffff1660e01b81526004016116ff929190614223565b60006040518083038186803b15801561171757600080fd5b505af415801561172b573d6000803e3d6000fd5b5050505061175b84848381811061174457611744613810565b905060200281019061175691906141da565b61223a565b60010161151a565b600061176d611cef565b90506000336003830154604051630e28d24b60e41b81529192506001600160a01b03169063e28d24b0906117a59086906004016133dc565b600060405180830381600087803b1580156117bf57600080fd5b505af11580156117d3573d6000803e3d6000fd5b505050506000808360090187600001516040516117f091906137f4565b908152604051908190036020019020600281015490915060ff1661182a57865160405163aed43dab60e01b815261069c91906004016133dc565b865160405160009161183e916020016137f4565b6040516020818303038152906040528051906020012090507f1705b65020b03c348229586d10f18c357cefe577bcef3ed60fad6ecd16db04ce60001b811461195357604080516060810190915282546001600160a01b03168152600183018054611950928b929091869160208401916118b69061423c565b80601f01602080910402602001604051908101604052809291908181526020018280546118e29061423c565b801561192f5780601f106119045761010080835404028352916020019161192f565b820191906000526020600020905b81548152906001019060200180831161191257829003601f168201915b50505091835250506002919091015460ff161515602090910152898761228c565b92505b60005b8751811015611c1857600088828151811061197357611973613810565b60200260200101519050600061198c826000015161248c565b600181015460208401516040808601519051636cfcf5cd60e11b81529394506000936001600160a01b039093169263d9f9eb9a926119d4928d92600289019190600401614270565b6000604051808303816000875af11580156119f3573d6000803e3d6000fd5b505050506040513d6000823e601f3d908101601f19168201604052611a1b9190810190613b9e565b90507fe8fa49afdf4fc3cb7dd6a792ef0e73ca83101a884310c129f0529132e924fb328501611b715786600003611ac75760405163486dc4f760e11b815273__$869f49b84e27953e40b9102dbb6d2c5983$__906390db89ee90611a839084906004016143b8565b602060405180830381865af4158015611aa0573d6000803e3d6000fd5b505050506040513d601f19601f82011682018060405250810190611ac49190613e2a565b96505b60008073__$869f49b84e27953e40b9102dbb6d2c5983$__63b67a8031846040518263ffffffff1660e01b8152600401611b0191906143b8565b6040805180830381865af4158015611b1d573d6000803e3d6000fd5b505050506040513d601f19601f82011682018060405250810190611b4191906143cb565b91509150818015611b50575080155b15611b6e576040516338d5e0ad60e01b815260040160405180910390fd5b50505b60405163f03de28760e01b815273__$869f49b84e27953e40b9102dbb6d2c5983$__9063f03de28790611baa908a9085906004016143f7565b60006040518083038186803b158015611bc257600080fd5b505af4158015611bd6573d6000803e3d6000fd5b50505050611be983600001518983612497565b60408301515115611c0d576040516306575bbf60e21b815260040160405180910390fd5b505050600101611956565b505050505050505050565b7f70325635d67d74932012fa921ccb2f335d3b1d69e3a487f50d001cc65f53160090565b33611c50610d11565b6001600160a01b0316146109ec573360405163118cdaa760e01b815260040161069c919061335d565b73__$869f49b84e27953e40b9102dbb6d2c5983$__636ae9427c611c9b611cef565b84846040518463ffffffff1660e01b8152600401611cbb93929190613a1e565b60006040518083038186803b158015611cd357600080fd5b505af4158015611ce7573d6000803e3d6000fd5b505050505050565b7f11369addde4aae8af30dcf56fa25ad3d864848d3201d1e9197f8b4da18a51a0090565b80611d1c611cef565b60030180546001600160a01b0319166001600160a01b039290921691909117905550565b806001611d4c82610b56565b611d6c57604051633f88e60160e21b81526004810183905260240161069c565b6000611d76611c23565b60009485526020526040909320805460ff1916931515939093179092555050565b6000807ff0c57e16840df040f15088dc2f81fe391c3923bec73e23a9662efc9c229c6a0061076c565b611dc8612511565b6107b281612536565b611dd9612511565b6107b281612568565b6040516301ffc9a760e01b815263d125cf2d60e01b60048201526001600160a01b038216906301ffc9a790602401602060405180830381865afa158015611e2d573d6000803e3d6000fd5b505050506040513d601f19601f82011682018060405250810190611e5191906139da565b611e70578060405163019d170160e01b815260040161069c919061335d565b6001611e7a611fea565b6001600160a01b039290921660009081526020929092526040909120805460ff1916911515919091179055565b6000611e7a611fea565b6000611ebb612216565b80546001600160a01b031916815590506106d882612595565b816001611ee082610b56565b611f0057604051633f88e60160e21b81526004810183905260240161069c565b60007f6209bdc3799f5201408f7a7d4d471bb2a0100353e618451674b93f730b006a0060009586526020525050604090922080546001600160a01b0319166001600160a01b039290921691909117905550565b73__$869f49b84e27953e40b9102dbb6d2c5983$__6368957bf2611f75611cef565b83336040518463ffffffff1660e01b8152600401611f9593929190614458565b60006040518083038186803b158015611fad57600080fd5b505af4158015611fc1573d6000803e3d6000fd5b5050505050565b73__$869f49b84e27953e40b9102dbb6d2c5983$__63c6b876bc611c9b611cef565b7f76aa24e3538905838cc74060b2aa4c054b1e474aacf44741879e1850715e930090565b8035600161201b82610b56565b61203b57604051633f88e60160e21b81526004810183905260240161069c565b6000612045611cef565b905060405180608001604052808580602001906120629190613cba565b8080601f0160208091040260200160405190810160405280939291908181526020018383808284376000920191909152505050908252506020016120ac6060870160408801613386565b6001600160a01b031681526020016120c76060870187613cba565b8080601f016020809104026020016040519081016040528093929190818152602001838380828437600092018290525093855250503360209384015250863581526001840190915260409020815181906121219082614542565b5060208201516001820180546001600160a01b0319166001600160a01b039092169190911790556040820151600282019061215c9082614542565b5060609190910151600390910180546001600160a01b0319166001600160a01b0390921691909117905550505050565b80600161219882610b56565b6121b857604051633f88e60160e21b81526004810183905260240161069c565b6001611d76611c23565b60006121cc611cef565b600b019190915550565b73__$869f49b84e27953e40b9102dbb6d2c5983$__6393058e986121f8611cef565b836040518363ffffffff1660e01b8152600401611f95929190614600565b7f237e158222e3e6968b72b9db0d8043aacf074ad9f650f0d1606b4d82ee432c0090565b61224381612606565b61225360a0820160808301613386565b6001600160a01b031681357f6c42013d79e93b13536220e027462dfb104def77ecb0a75ffbe92e853fc7cf09610dcc6020850185613cba565b60006060600085600001516001600160a01b0316635ade663385896020015189602001516040518463ffffffff1660e01b81526004016122ce9392919061466e565b6000604051808303816000875af11580156122ed573d6000803e3d6000fd5b505050506040513d6000823e601f3d908101601f1916820160405261231591908101906146a4565b88516040519194509192507f380ee2d21c7a4607d113dad9e76a0bc90f5325a136d5f0e14b6ccf849d948e259161234e916020016137f4565b604051602081830303815290604052805190602001200361246157600082511180156123e057507f62357b294ca756256b576c5da68950c49d0d1823063551ffdcc1dad9d65a07a660001b826000815181106123ac576123ac613810565b6020026020010151600001516040516020016123c891906137f4565b60405160208183030381529060405280519060200120145b1561246157600084866040516020016123fa9291906147ae565b604051602081830303815290604052805190602001206001600160fc1b0360001b1690508260008151811061243157612431613810565b60200260200101516020015160001b811461245f576040516316fc17ad60e21b815260040160405180910390fd5b505b8060000361248257604051632fe2fd3f60e11b815260040160405180910390fd5b9695505050505050565b600061076c8261264b565b6124a18383612694565b73__$869f49b84e27953e40b9102dbb6d2c5983$__63516b2eb66124c3611cef565b8585856040518563ffffffff1660e01b81526004016124e59493929190614853565b60006040518083038186803b1580156124fd57600080fd5b505af41580156109af573d6000803e3d6000fd5b6125196126d6565b6109ec57604051631afcd79f60e31b815260040160405180910390fd5b61253e612511565b6001600160a01b038116610ade576000604051631e4fbdf760e01b815260040161069c919061335d565b612570612511565b61257981611d13565b600061258a6101a160f01b306126f0565b90506106d8816121c2565b7f9016d09d72d40fdae2fd8ceac6b6234c7706214fd39c1cd1e609a0528c19930080546001600160a01b031981166001600160a01b03848116918217845560405192169182907f8be0079c531659141344cd1fd0a4f28419497f9722a3daafe3b4186f6b6457e090600090a3505050565b60006126186060830160408401613386565b905061262381610d46565b612642578060405163652e158d60e01b815260040161069c919061335d565b6106d88261270e565b600061265682611079565b6040015161266381610d46565b612682578060405163652e158d60e01b815260040161069c919061335d565b61268b83612722565b91505b50919050565b73__$869f49b84e27953e40b9102dbb6d2c5983$__633e08b6f36126b6611cef565b84846040518463ffffffff1660e01b8152600401611cbb93929190613b7f565b60006126e0611d97565b54600160401b900460ff16919050565b60006001600160a01b0382166110608461270983612757565b612899565b612717816129a1565b6107b2813533611ed4565b60008161272e81610672565b61274e57604051637e12bee760e11b81526004810182905260240161069c565b61268b83612b44565b60008190506008817eff00ff00ff00ff00ff00ff00ff00ff00ff00ff00ff00ff00ff00ff00ff00ff16901b6008827fff00ff00ff00ff00ff00ff00ff00ff00ff00ff00ff00ff00ff00ff00ff00ff0016901c1790506010817dffff0000ffff0000ffff0000ffff0000ffff0000ffff0000ffff0000ffff16901b6010827fffff0000ffff0000ffff0000ffff0000ffff0000ffff0000ffff0000ffff000016901c1790506020817bffffffff00000000ffffffff00000000ffffffff00000000ffffffff16901b6020827bffffffff00000000ffffffff00000000ffffffff00000000ffffffff1916901c17905060408177ffffffffffffffff0000000000000000ffffffffffffffff16901b60408277ffffffffffffffff0000000000000000ffffffffffffffff1916901c179050608081901b608082901c179050919050565b6000806128ad6128a884612757565b612b91565b905060006128ca82601b84516128c39190614896565b601b612bbb565b6040516001600160f01b0319871660208201529091506000906128ff9060220160405160208183030381529060405283612bc8565b9050600061292361290f83612bd4565b600881811b62ffff001691901c60ff161790565b6040805160f083901b6001600160f01b0319166020820152815160028183030181526022909101909152909150600061295c8483612bc8565b90508051601f14612983576040516333b0459b60e01b8152601f600482015260240161069c565b61299461298f82612c35565b612757565b9998505050505050505050565b803560006129ae82610b56565b156129cf576040516385636b5760e01b81526004810183905260240161069c565b6129d883612c40565b60006129e2611cef565b905060405180608001604052808580602001906129ff9190613cba565b8080601f016020809104026020016040519081016040528093929190818152602001838380828437600092019190915250505090825250602001612a496060870160408801613386565b6001600160a01b03168152602001612a646060870187613cba565b8080601f01602080910402602001604051908101604052809392919081815260200183838082843760009201829052509385525050336020938401525086358152600184019091526040902081518190612abe9082614542565b5060208201516001820180546001600160a01b0319166001600160a01b0390921691909117905560408201516002820190612af99082614542565b5060609190910151600390910180546001600160a01b0319166001600160a01b0390921691909117905560020180546001810182556000918252602090912093359301929092555050565b6000816001612b5282610b56565b612b7257604051633f88e60160e21b81526004810183905260240161069c565b612b7a611cef565b600094855260010160205250506040909120919050565b60408051602080825281830190925260609160208201818036833750505060208101929092525090565b6060611060848484612c69565b6060610aa48383612d76565b60008151601d14612bfb576040516303c4ee2b60e01b8152601d600482015260240161069c565b60005b825181101561268e57828181518110612c1957612c19613810565b0160200151612c2b9060f81c836148a9565b9150600101612bfe565b600061076c826148c3565b612c48610d11565b6001600160a01b0316336001600160a01b0316146107b2576107b281612df3565b606081612c7781601f6148e7565b1015612cb65760405162461bcd60e51b815260206004820152600e60248201526d736c6963655f6f766572666c6f7760901b604482015260640161069c565b612cc082846148e7565b84511015612d045760405162461bcd60e51b8152602060048201526011602482015270736c6963655f6f75744f66426f756e647360781b604482015260640161069c565b606082158015612d235760405191506000825260208201604052612d6d565b6040519150601f8416801560200281840101858101878315602002848b0101015b81831015612d5c578051835260209283019201612d44565b5050858452601f01601f1916604052505b50949350505050565b6060806040519050835180825260208201818101602087015b81831015612da7578051835260209283019201612d8f565b50855184518101855292509050808201602086015b81831015612dd4578051835260209283019201612dbc565b508651929092011591909101601f01601f191660405250905092915050565b33612e0460a0830160808401613386565b6001600160a01b0316146107b257612e2260a0820160808301613386565b604051630cde043160e41b81526001600160a01b0391909116600482015233602482015260440161069c565b634e487b7160e01b600052604160045260246000fd5b604051606081016001600160401b0381118282101715612e8657612e86612e4e565b60405290565b604080519081016001600160401b0381118282101715612e8657612e86612e4e565b60405160a081016001600160401b0381118282101715612e8657612e86612e4e565b604051608081016001600160401b0381118282101715612e8657612e86612e4e565b604051601f8201601f191681016001600160401b0381118282101715612f1a57612f1a612e4e565b604052919050565b60006001600160401b03821115612f3b57612f3b612e4e565b50601f01601f191660200190565b600082601f830112612f5a57600080fd5b8135602083016000612f73612f6e84612f22565b612ef2565b9050828152858383011115612f8757600080fd5b82826020830137600092810160200192909252509392505050565b60006001600160401b03821115612fbb57612fbb612e4e565b5060051b60200190565b600082601f830112612fd657600080fd5b8135612fe4612f6e82612fa2565b8082825260208201915060208360051b86010192508583111561300657600080fd5b602085015b838110156130b95780356001600160401b0381111561302957600080fd5b86016060818903601f1901121561303f57600080fd5b613047612e64565b6020820135815260408201356001600160401b0381111561306757600080fd5b6130768a602083860101612f49565b60208301525060608201356001600160401b0381111561309557600080fd5b6130a48a602083860101612f49565b6040830152508452506020928301920161300b565b5095945050505050565b6000806000606084860312156130d857600080fd5b83356001600160401b038111156130ee57600080fd5b84016040818703121561310057600080fd5b613108612e8c565b81356001600160401b0381111561311e57600080fd5b61312a88828501612f49565b82525060208201356001600160401b0381111561314657600080fd5b61315288828501612f49565b602083015250809450505060208401356001600160401b0381111561317657600080fd5b61318286828701612fc5565b92505060408401356001600160401b0381111561319e57600080fd5b6131aa86828701612f49565b9150509250925092565b6000602082840312156131c657600080fd5b5035919050565b600080602083850312156131e057600080fd5b82356001600160401b038111156131f657600080fd5b8301601f8101851361320757600080fd5b80356001600160401b0381111561321d57600080fd5b85602082840101111561322f57600080fd5b6020919091019590945092505050565b60005b8381101561325a578181015183820152602001613242565b50506000910152565b6000815180845261327b81602086016020860161323f565b601f01601f19169290920160200192915050565b805182526000602082015160a060208501526132ae60a0850182613263565b905060018060a01b036040840151166040850152606083015184820360608601526132d98282613263565b6080948501516001600160a01b03169590940194909452509092915050565b6000602082016020835280845180835260408501915060408160051b86010192506020860160005b8281101561335157603f1987860301845261333c85835161328f565b94506020938401939190910190600101613320565b50929695505050505050565b6001600160a01b0391909116815260200190565b6001600160a01b03811681146107b257600080fd5b60006020828403121561339857600080fd5b8135610aa481613371565b600080604083850312156133b657600080fd5b82356133c181613371565b915060208301356133d181613371565b809150509250929050565b602081526000610aa46020830184613263565b602080825282516001600160a01b0316828201528201516060604083015260009061341d6080840182613263565b90506040840151151560608401528091505092915050565b6000806040838503121561344857600080fd5b8235915060208301356133d181613371565b60006020828403121561346c57600080fd5b81356001600160401b0381111561348257600080fd5b820160808185031215610aa457600080fd5b6000602082016020835280845180835260408501915060408160051b86010192506020860160005b8281101561335157603f1987860301845281518051606087526134e26060880182613263565b9050602082015160208801526040820151915086810360408801526135078183613263565b9650505060209384019391909101906001016134bc565b60006020828403121561353057600080fd5b81356001600160401b0381111561354657600080fd5b820160a08185031215610aa457600080fd5b6000806040838503121561356b57600080fd5b823561357681613371565b946020939093013593505050565b8051825260208101511515602083015260006040820151608060408501526135af6080850182613263565b606093840151949093019390935250919050565b602081526000610aa46020830184613584565b6000602082840312156135e857600080fd5b81356001600160401b038111156135fe57600080fd5b61106084828501612f49565b60008060006060848603121561361f57600080fd5b83359250602084013561363181613371565b915060408401356001600160401b0381111561319e57600080fd5b602081526000610aa4602083018461328f565b60006020828403121561367157600080fd5b81356001600160401b0381111561368757600080fd5b820160608185031215610aa457600080fd5b6000602082016020835280845180835260408501915060408160051b86010192506020860160005b8281101561335157603f198786030184526136dd858351613584565b945060209384019391909101906001016136c1565b600081518084526020840193506020830160005b82811015613724578151865260209586019590910190600101613706565b5093949350505050565b6020815281516020820152600060208301516080604084015261375460a08401826136f2565b90506040840151601f1984830301606085015261377182826136f2565b9150506060840151601f19848303016080850152610efa8282613263565b600080602083850312156137a257600080fd5b82356001600160401b038111156137b857600080fd5b8301601f810185136137c957600080fd5b80356001600160401b038111156137df57600080fd5b8560208260051b840101111561322f57600080fd5b6000825161380681846020870161323f565b9190910192915050565b634e487b7160e01b600052603260045260246000fd5b600082601f83011261383757600080fd5b815160208301600061384b612f6e84612f22565b905082815285838301111561385f57600080fd5b610efa83602083018461323f565b600060a0828403121561387f57600080fd5b613887612eae565b8251815260208301519091506001600160401b038111156138a757600080fd5b6138b384828501613826565b60208301525060408201516138c781613371565b604082015260608201516001600160401b038111156138e557600080fd5b6138f184828501613826565b606083015250608082015161390581613371565b608082015292915050565b60006020828403121561392257600080fd5b81516001600160401b0381111561393857600080fd5b8201601f8101841361394957600080fd5b8051613957612f6e82612fa2565b8082825260208201915060208360051b85010192508683111561397957600080fd5b602084015b838110156139ba5780516001600160401b0381111561399c57600080fd5b6139ab8960208389010161386d565b8452506020928301920161397e565b509695505050505050565b805180151581146139d557600080fd5b919050565b6000602082840312156139ec57600080fd5b610aa4826139c5565b81835281816020850137506000828201602090810191909152601f909101601f19169091010190565b838152604060208201526000610efa6040830184866139f5565b600060208284031215613a4a57600080fd5b81516001600160401b03811115613a6057600080fd5b820160608185031215613a7257600080fd5b613a7a612e64565b8151613a8581613371565b815260208201516001600160401b03811115613aa057600080fd5b613aac86828501613826565b602083015250613abe604083016139c5565b6040820152949350505050565b6000808335601e19843603018112613ae257600080fd5b8301803591506001600160401b03821115613afc57600080fd5b6020019150600581901b3603821315613b1457600080fd5b9250929050565b81835260006001600160fb1b03831115613b3457600080fd5b8260051b80836020870137939093016020019392505050565b604081526000613b61604083018688613b1b565b8281036020840152613b74818587613b1b565b979650505050505050565b92835260208301919091526001600160a01b0316604082015260600190565b600060208284031215613bb057600080fd5b81516001600160401b03811115613bc657600080fd5b8201601f81018413613bd757600080fd5b8051613be5612f6e82612fa2565b8082825260208201915060208360051b850101925086831115613c0757600080fd5b602084015b838110156139ba5780516001600160401b03811115613c2a57600080fd5b85016060818a03601f19011215613c4057600080fd5b613c48612e64565b60208201516001600160401b03811115613c6157600080fd5b613c708b602083860101613826565b8252506040820151602082015260608201516001600160401b03811115613c9657600080fd5b613ca58b602083860101613826565b60408301525084525060209283019201613c0c565b6000808335601e19843603018112613cd157600080fd5b8301803591506001600160401b03821115613ceb57600080fd5b602001915036819003821315613b1457600080fd5b606081526000613d146060830187896139f5565b6001600160a01b03861660208401528281036040840152613d368185876139f5565b98975050505050505050565b600060808284031215613d5457600080fd5b613d5c612ed0565b825181529050613d6e602083016139c5565b602082015260408201516001600160401b03811115613d8c57600080fd5b613d9884828501613826565b60408301525060609182015191810191909152919050565b600060208284031215613dc257600080fd5b81516001600160401b03811115613dd857600080fd5b61106084828501613d42565b8281526040602082015260006110606040830184613263565b84815283602082015260018060a01b03831660408201526080606082015260006124826080830184613263565b600060208284031215613e3c57600080fd5b5051919050565b600060208284031215613e5557600080fd5b81516001600160401b03811115613e6b57600080fd5b6110608482850161386d565b8183823760009101908152919050565b6001600160a01b0384168152604060208201819052600090610efa90830184866139f5565b600060208284031215613ebe57600080fd5b81516001600160401b03811115613ed457600080fd5b8201601f81018413613ee557600080fd5b8051613ef3612f6e82612fa2565b8082825260208201915060208360051b850101925086831115613f1557600080fd5b602084015b838110156139ba5780516001600160401b03811115613f3857600080fd5b613f4789602083890101613d42565b84525060209283019201613f1a565b600082601f830112613f6757600080fd5b8151613f75612f6e82612fa2565b8082825260208201915060208360051b860101925085831115613f9757600080fd5b602085015b838110156130b9578051835260209283019201613f9c565b600060208284031215613fc657600080fd5b81516001600160401b03811115613fdc57600080fd5b820160808185031215613fee57600080fd5b613ff6612ed0565b8151815260208201516001600160401b0381111561401357600080fd5b61401f86828501613f56565b60208301525060408201516001600160401b0381111561403e57600080fd5b61404a86828501613f56565b60408301525060608201516001600160401b0381111561406957600080fd5b61407586828501613826565b606083015250949350505050565b6000808335601e1984360301811261409a57600080fd5b83016020810192503590506001600160401b038111156140b957600080fd5b803603821315613b1457600080fd5b8035825260006140db6020830183614083565b60a060208601526140f060a0860182846139f5565b915050604083013561410181613371565b6001600160a01b0316604085015261411c6060840184614083565b858303606087015261412f8382846139f5565b92505050608083013561414181613371565b6001600160a01b0316608094909401939093525090919050565b838152604060208201819052810182905260006060600584901b830181019083018583609e1936839003015b878210156141cc57868503605f1901845282358181126141a657600080fd5b6141b2868b83016140c8565b955050602083019250602084019350600182019150614187565b509298975050505050505050565b60008235609e1983360301811261380657600080fd5b84815260606020820152600061420a6060830185876139f5565b905060018060a01b038316604083015295945050505050565b82815260406020820152600061106060408301846140c8565b600181811c9082168061425057607f821691505b60208210810361268e57634e487b7160e01b600052602260045260246000fd5b6001600160a01b038516815260806020820181905260009061429490830186613263565b8281036040840152600085546142a98161423c565b8084526001821680156142c357600181146142df57614316565b60ff1983166020860152602082151560051b8601019350614316565b88600052602060002060005b8381101561430d578154602082890101526001820191506020810190506142eb565b86016020019450505b5050508381036060850152613d368186613263565b600082825180855260208501945060208160051b8301016020850160005b838110156143ac57601f19858403018852815180516060855261436f6060860182613263565b9050602082015160208601526040820151915084810360408601526143948183613263565b60209a8b019a90955093909301925050600101614349565b50909695505050505050565b602081526000610aa4602083018461432b565b600080604083850312156143de57600080fd5b6143e7836139c5565b6020939093015192949293505050565b828152604060208201526000611060604083018461432b565b6000808335601e1984360301811261442757600080fd5b83016020810192503590506001600160401b0381111561444657600080fd5b8060051b3603821315613b1457600080fd5b83815260606020820152600080843590508060608401525061447d6020850185614410565b60808085015261449160e085018284613b1b565b9150506144a16040860186614410565b848303605f190160a08601526144b8838284613b1b565b925050506144c96060860186614083565b848303605f190160c08601526144e08382846139f5565b935050505060018060a01b0383166040830152949350505050565b601f8211156108af57806000526020600020601f840160051c810160208510156145225750805b601f840160051c820191505b81811015611fc1576000815560010161452e565b81516001600160401b0381111561455b5761455b612e4e565b61456f81614569845461423c565b846144fb565b6020601f8211600181146145a3576000831561458b5750848201515b600019600385901b1c1916600184901b178455611fc1565b600084815260208120601f198516915b828110156145d357878501518255602094850194600190920191016145b3565b50848210156145f15786840151600019600387901b60f8161c191681555b50505050600190811b01905550565b8281526040602082015260006146168384614083565b6060604085015261462b60a0850182846139f5565b915050602084013561463c81613371565b6001600160a01b031660608401526146576040850185614083565b848303603f19016080860152613b748382846139f5565b6001600160a01b038416815260606020820181905260009061469290830185613263565b82810360408401526124828185613263565b600080604083850312156146b757600080fd5b825160208401519092506001600160401b038111156146d557600080fd5b8301601f810185136146e657600080fd5b80516146f4612f6e82612fa2565b8082825260208201915060208360051b85010192508783111561471657600080fd5b602084015b8381101561479f5780516001600160401b0381111561473957600080fd5b85016040818b03601f1901121561474f57600080fd5b614757612e8c565b60208201516001600160401b0381111561477057600080fd5b61477f8c602083860101613826565b82525060409190910151602080830191909152908452928301920161471b565b50809450505050509250929050565b60006040820160018060a01b03851683526040602084015280845180835260608501915060608160051b86010192506020860160005b8281101561484657605f198786030184528151805186526020810151606060208801526148146060880182613263565b905060408201519150868103604088015261482f8183613263565b9650505060209384019391909101906001016147e4565b5092979650505050505050565b84815283602082015260018060a01b0383166040820152608060608201526000612482608083018461432b565b634e487b7160e01b600052601160045260246000fd5b8181038181111561076c5761076c614880565b61ffff818116838216019081111561076c5761076c614880565b8051602080830151919081101561268e5760001960209190910360031b1b16919050565b8082018082111561076c5761076c61488056fea2646970667358221220e43c97245d451a3475f367c6897eb51291cd2aaa58fa1fe7745c4db9b5ab8d7464736f6c634300081b0033",
  "linkReferences": {
    "contracts/lib/VerifierLib.sol": {
      "VerifierLib": [
        {
          "length": 20,
          "start": 1977
        },
        {
          "length": 20,
          "start": 2194
        },
        {
          "length": 20,
          "start": 2808
        },
        {
          "length": 20,
          "start": 3123
        },
        {
          "length": 20,
          "start": 3322
        },
        {
          "length": 20,
          "start": 3897
        },
        {
          "length": 20,
          "start": 4212
        },
        {
          "length": 20,
          "start": 4278
        },
        {
          "length": 20,
          "start": 4504
        },
        {
          "length": 20,
          "start": 4648
        },
        {
          "length": 20,
          "start": 4684
        },
        {
          "length": 20,
          "start": 5065
        },
        {
          "length": 20,
          "start": 5243
        },
        {
          "length": 20,
          "start": 5524
        },
        {
          "length": 20,
          "start": 5629
        },
        {
          "length": 20,
          "start": 5874
        },
        {
          "length": 20,
          "start": 6014
        },
        {
          "length": 20,
          "start": 6964
        },
        {
          "length": 20,
          "start": 7077
        },
        {
          "length": 20,
          "start": 7257
        },
        {
          "length": 20,
          "start": 7508
        },
        {
          "length": 20,
          "start": 8238
        },
        {
          "length": 20,
          "start": 8355
        },
        {
          "length": 20,
          "start": 8881
        },
        {
          "length": 20,
          "start": 9596
        },
        {
          "length": 20,
          "start": 10095
        }
      ]
    }
  },
  "deployedLinkReferences": {
    "contracts/lib/VerifierLib.sol": {
      "VerifierLib": [
        {
          "length": 20,
          "start": 1760
        },
        {
          "length": 20,
          "start": 1977
        },
        {
          "length": 20,
          "start": 2591
        },
        {
          "length": 20,
          "start": 2906
        },
        {
          "length": 20,
          "start": 3105
        },
        {
          "length": 20,
          "start": 3680
        },
        {
          "length": 20,
          "start": 3995
        },
        {
          "length": 20,
          "start": 4061
        },
        {
          "length": 20,
          "start": 4287
        },
        {
          "length": 20,
          "start": 4431
        },
        {
          "length": 20,
          "start": 4467
        },
        {
          "length": 20,
          "start": 4848
        },
        {
          "length": 20,
          "start": 5026
        },
        {
          "length": 20,
          "start": 5307
        },
        {
          "length": 20,
          "start": 5412
        },
        {
          "length": 20,
          "start": 5657
        },
        {
          "length": 20,
          "start": 5797
        },
        {
          "length": 20,
          "start": 6747
        },
        {
          "length": 20,
          "start": 6860
        },
        {
          "length": 20,
          "start": 7040
        },
        {
          "length": 20,
          "start": 7291
        },
        {
          "length": 20,
          "start": 8021
        },
        {
          "length": 20,
          "start": 8138
        },
        {
          "length": 20,
          "start": 8664
        },
        {
          "length": 20,
          "start": 9379
        },
        {
          "length": 20,
          "start": 9878
        }
      ]
    }
  }
}