{
  "_format": "hh-sol-artifact-1",
  "contractName": "VCPayment",
  "sourceName": "contracts/payment/VCPayment.sol",
  "abi": [
    {
      "inputs": [],
      "stateMutability": "nonpayable",
      "type": "constructor"
    },
    {
      "inputs": [
        {
          "internalType": "address",
          "name": "account",
          "type": "address"
        },
        {
          "internalType": "uint256",
          "name": "amount",
          "type": "uint256"
        }
      ],
      "name": "FailedToWithdraw",
      "type": "error"
    },
    {
      "inputs": [],
      "name": "InvalidInitialization",
      "type": "error"
    },
    {
      "inputs": [
        {
          "internalType": "uint256",
          "name": "percent",
          "type": "uint256"
        }
      ],
      "name": "InvalidOwnerPercentage",
      "type": "error"
    },
    {
      "inputs": [
        {
          "internalType": "uint256",
          "name": "expectedValue",
          "type": "uint256"
        },
        {
          "internalType": "uint256",
          "name": "receivedValue",
          "type": "uint256"
        }
      ],
      "name": "InvalidPaymentValue",
      "type": "error"
    },
    {
      "inputs": [
        {
          "internalType": "address",
          "name": "account",
          "type": "address"
        }
      ],
      "name": "InvalidWithdrawAddress",
      "type": "error"
    },
    {
      "inputs": [
        {
          "internalType": "address",
          "name": "account",
          "type": "address"
        }
      ],
      "name": "NoBalanceToWithdraw",
      "type": "error"
    },
    {
      "inputs": [
        {
          "internalType": "uint256",
          "name": "issuerId",
          "type": "uint256"
        },
        {
          "internalType": "uint256",
          "name": "schemaHash",
          "type": "uint256"
        }
      ],
      "name": "NoPaymentValueFound",
      "type": "error"
    },
    {
      "inputs": [],
      "name": "NotInitializing",
      "type": "error"
    },
    {
      "inputs": [
        {
          "internalType": "address",
          "name": "owner",
          "type": "address"
        }
      ],
      "name": "OwnableInvalidOwner",
      "type": "error"
    },
    {
      "inputs": [
        {
          "internalType": "address",
          "name": "account",
          "type": "address"
        }
      ],
      "name": "OwnableUnauthorizedAccount",
      "type": "error"
    },
    {
      "inputs": [
        {
          "internalType": "string",
          "name": "paymentId",
          "type": "string"
        },
        {
          "internalType": "uint256",
          "name": "issuerId",
          "type": "uint256"
        }
      ],
      "name": "PaymentAlreadyDone",
      "type": "error"
    },
    {
      "inputs": [
        {
          "internalType": "uint256",
          "name": "issuerId",
          "type": "uint256"
        },
        {
          "internalType": "uint256",
          "name": "schemaHash",
          "type": "uint256"
        }
      ],
      "name": "PaymentValueAlreadySet",
      "type": "error"
    },
    {
      "inputs": [],
      "name": "ReentrancyGuardReentrantCall",
      "type": "error"
    },
    {
      "inputs": [
        {
          "internalType": "address",
          "name": "expectedOwner",
          "type": "address"
        },
        {
          "internalType": "address",
          "name": "expectedIssuer",
          "type": "address"
        },
        {
          "internalType": "address",
          "name": "receivedAddress",
          "type": "address"
        }
      ],
      "name": "WrongOwnerOrIssuer",
      "type": "error"
    },
    {
      "anonymous": false,
      "inputs": [
        {
          "indexed": false,
          "internalType": "uint64",
          "name": "version",
          "type": "uint64"
        }
      ],
      "name": "Initialized",
      "type": "event"
    },
    {
      "anonymous": false,
      "inputs": [
        {
          "indexed": true,
          "internalType": "uint256",
          "name": "issuerId",
          "type": "uint256"
        },
        {
          "indexed": true,
          "internalType": "uint256",
          "name": "schemaHash",
          "type": "uint256"
        },
        {
          "indexed": false,
          "internalType": "uint256",
          "name": "newOwnerPercentage",
          "type": "uint256"
        }
      ],
      "name": "OwnerPercentageUpdated",
      "type": "event"
    },
    {
      "anonymous": false,
      "inputs": [
        {
          "indexed": true,
          "internalType": "address",
          "name": "previousOwner",
          "type": "address"
        },
        {
          "indexed": true,
          "internalType": "address",
          "name": "newOwner",
          "type": "address"
        }
      ],
      "name": "OwnershipTransferStarted",
      "type": "event"
    },
    {
      "anonymous": false,
      "inputs": [
        {
          "indexed": true,
          "internalType": "address",
          "name": "previousOwner",
          "type": "address"
        },
        {
          "indexed": true,
          "internalType": "address",
          "name": "newOwner",
          "type": "address"
        }
      ],
      "name": "OwnershipTransferred",
      "type": "event"
    },
    {
      "anonymous": false,
      "inputs": [
        {
          "indexed": true,
          "internalType": "uint256",
          "name": "issuerId",
          "type": "uint256"
        },
        {
          "indexed": false,
          "internalType": "string",
          "name": "paymentId",
          "type": "string"
        },
        {
          "indexed": true,
          "internalType": "uint256",
          "name": "schemaHash",
          "type": "uint256"
        }
      ],
      "name": "Payment",
      "type": "event"
    },
    {
      "anonymous": false,
      "inputs": [
        {
          "indexed": true,
          "internalType": "uint256",
          "name": "issuerId",
          "type": "uint256"
        },
        {
          "indexed": true,
          "internalType": "uint256",
          "name": "schemaHash",
          "type": "uint256"
        },
        {
          "indexed": false,
          "internalType": "uint256",
          "name": "valueToPay",
          "type": "uint256"
        },
        {
          "indexed": false,
          "internalType": "uint256",
          "name": "ownerPercentage",
          "type": "uint256"
        },
        {
          "indexed": false,
          "internalType": "address",
          "name": "withdrawAddress",
          "type": "address"
        }
      ],
      "name": "PaymentDataSet",
      "type": "event"
    },
    {
      "anonymous": false,
      "inputs": [
        {
          "indexed": true,
          "internalType": "uint256",
          "name": "issuerId",
          "type": "uint256"
        },
        {
          "indexed": true,
          "internalType": "uint256",
          "name": "schemaHash",
          "type": "uint256"
        },
        {
          "indexed": false,
          "internalType": "uint256",
          "name": "newValueToPay",
          "type": "uint256"
        }
      ],
      "name": "ValueToPayUpdated",
      "type": "event"
    },
    {
      "anonymous": false,
      "inputs": [
        {
          "indexed": true,
          "internalType": "address",
          "name": "to",
          "type": "address"
        },
        {
          "indexed": false,
          "internalType": "uint256",
          "name": "amount",
          "type": "uint256"
        }
      ],
      "name": "Withdraw",
      "type": "event"
    },
    {
      "anonymous": false,
      "inputs": [
        {
          "indexed": true,
          "internalType": "uint256",
          "name": "issuerId",
          "type": "uint256"
        },
        {
          "indexed": true,
          "internalType": "uint256",
          "name": "schemaHash",
          "type": "uint256"
        },
        {
          "indexed": false,
          "internalType": "address",
          "name": "newWithdrawAddress",
          "type": "address"
        }
      ],
      "name": "WithdrawAddressUpdated",
      "type": "event"
    },
    {
      "inputs": [],
      "name": "VERSION",
      "outputs": [
        {
          "internalType": "string",
          "name": "",
          "type": "string"
        }
      ],
      "stateMutability": "view",
      "type": "function"
    },
    {
      "inputs": [],
      "name": "acceptOwnership",
      "outputs": [],
      "stateMutability": "nonpayable",
      "type": "function"
    },
    {
      "inputs": [],
      "name": "getMyBalance",
      "outputs": [
        {
          "internalType": "uint256",
          "name": "",
          "type": "uint256"
        }
      ],
      "stateMutability": "view",
      "type": "function"
    },
    {
      "inputs": [],
      "name": "getOwnerBalance",
      "outputs": [
        {
          "internalType": "uint256",
          "name": "",
          "type": "uint256"
        }
      ],
      "stateMutability": "view",
      "type": "function"
    },
    {
      "inputs": [
        {
          "internalType": "uint256",
          "name": "issuerId",
          "type": "uint256"
        },
        {
          "internalType": "uint256",
          "name": "schemaHash",
          "type": "uint256"
        }
      ],
      "name": "getPaymentData",
      "outputs": [
        {
          "components": [
            {
              "internalType": "uint256",
              "name": "issuerId",
              "type": "uint256"
            },
            {
              "internalType": "uint256",
              "name": "schemaHash",
              "type": "uint256"
            },
            {
              "internalType": "uint256",
              "name": "valueToPay",
              "type": "uint256"
            },
            {
              "internalType": "uint256",
              "name": "ownerPercentage",
              "type": "uint256"
            },
            {
              "internalType": "address",
              "name": "withdrawAddress",
              "type": "address"
            },
            {
              "internalType": "uint256",
              "name": "totalValue",
              "type": "uint256"
            }
          ],
          "internalType": "struct VCPayment.PaymentData",
          "name": "",
          "type": "tuple"
        }
      ],
      "stateMutability": "view",
      "type": "function"
    },
    {
      "inputs": [
        {
          "internalType": "address",
          "name": "owner",
          "type": "address"
        }
      ],
      "name": "initialize",
      "outputs": [],
      "stateMutability": "nonpayable",
      "type": "function"
    },
    {
      "inputs": [
        {
          "internalType": "string",
          "name": "paymentId",
          "type": "string"
        },
        {
          "internalType": "uint256",
          "name": "issuerId",
          "type": "uint256"
        }
      ],
      "name": "isPaymentDone",
      "outputs": [
        {
          "internalType": "bool",
          "name": "",
          "type": "bool"
        }
      ],
      "stateMutability": "view",
      "type": "function"
    },
    {
      "inputs": [],
      "name": "issuerWithdraw",
      "outputs": [],
      "stateMutability": "nonpayable",
      "type": "function"
    },
    {
      "inputs": [],
      "name": "owner",
      "outputs": [
        {
          "internalType": "address",
          "name": "",
          "type": "address"
        }
      ],
      "stateMutability": "view",
      "type": "function"
    },
    {
      "inputs": [],
      "name": "ownerWithdraw",
      "outputs": [],
      "stateMutability": "nonpayable",
      "type": "function"
    },
    {
      "inputs": [
        {
          "internalType": "string",
          "name": "paymentId",
          "type": "string"
        },
        {
          "internalType": "uint256",
          "name": "issuerId",
          "type": "uint256"
        },
        {
          "internalType": "uint256",
          "name": "schemaHash",
          "type": "uint256"
        }
      ],
      "name": "pay",
      "outputs": [],
      "stateMutability": "payable",
      "type": "function"
    },
    {
      "inputs": [],
      "name": "pendingOwner",
      "outputs": [
        {
          "internalType": "address",
          "name": "",
          "type": "address"
        }
      ],
      "stateMutability": "view",
      "type": "function"
    },
    {
      "inputs": [],
      "name": "renounceOwnership",
      "outputs": [],
      "stateMutability": "nonpayable",
      "type": "function"
    },
    {
      "inputs": [
        {
          "internalType": "uint256",
          "name": "issuerId",
          "type": "uint256"
        },
        {
          "internalType": "uint256",
          "name": "schemaHash",
          "type": "uint256"
        },
        {
          "internalType": "uint256",
          "name": "value",
          "type": "uint256"
        },
        {
          "internalType": "uint256",
          "name": "ownerPercentage",
          "type": "uint256"
        },
        {
          "internalType": "address",
          "name": "withdrawAddress",
          "type": "address"
        }
      ],
      "name": "setPaymentValue",
      "outputs": [],
      "stateMutability": "nonpayable",
      "type": "function"
    },
    {
      "inputs": [
        {
          "internalType": "address",
          "name": "newOwner",
          "type": "address"
        }
      ],
      "name": "transferOwnership",
      "outputs": [],
      "stateMutability": "nonpayable",
      "type": "function"
    },
    {
      "inputs": [
        {
          "internalType": "uint256",
          "name": "issuerId",
          "type": "uint256"
        },
        {
          "internalType": "uint256",
          "name": "schemaHash",
          "type": "uint256"
        },
        {
          "internalType": "uint256",
          "name": "ownerPercentage",
          "type": "uint256"
        }
      ],
      "name": "updateOwnerPercentage",
      "outputs": [],
      "stateMutability": "nonpayable",
      "type": "function"
    },
    {
      "inputs": [
        {
          "internalType": "uint256",
          "name": "issuerId",
          "type": "uint256"
        },
        {
          "internalType": "uint256",
          "name": "schemaHash",
          "type": "uint256"
        },
        {
          "internalType": "uint256",
          "name": "value",
          "type": "uint256"
        }
      ],
      "name": "updateValueToPay",
      "outputs": [],
      "stateMutability": "nonpayable",
      "type": "function"
    },
    {
      "inputs": [
        {
          "internalType": "uint256",
          "name": "issuerId",
          "type": "uint256"
        },
        {
          "internalType": "uint256",
          "name": "schemaHash",
          "type": "uint256"
        },
        {
          "internalType": "address",
          "name": "withdrawAddress",
          "type": "address"
        }
      ],
      "name": "updateWithdrawAddress",
      "outputs": [],
      "stateMutability": "nonpayable",
      "type": "function"
    }
  ],
  "bytecode": "0x608060405234801561001057600080fd5b5061001f61002460201b60201c565b6101ab565b600061003461012860201b60201c565b90508060000160089054906101000a900460ff161561007f576040517ff92ee8a900000000000000000000000000000000000000000000000000000000815260040160405180910390fd5b67ffffffffffffffff80168160000160009054906101000a900467ffffffffffffffff1667ffffffffffffffff16146101255767ffffffffffffffff8160000160006101000a81548167ffffffffffffffff021916908367ffffffffffffffff1602179055507fc7f505b2f371ae2175ee4913f4499e1f2633a7b5936321eed1cdaeb6115181d267ffffffffffffffff60405161011c9190610190565b60405180910390a15b50565b60008061013961014260201b60201c565b90508091505090565b60007ff0c57e16840df040f15088dc2f81fe391c3923bec73e23a9662efc9c229c6a0060001b905090565b600067ffffffffffffffff82169050919050565b61018a8161016d565b82525050565b60006020820190506101a56000830184610181565b92915050565b61257e806101ba6000396000f3fe6080604052600436106101095760003560e01c806379ba509711610095578063cd9a5f2711610064578063cd9a5f27146102e8578063e000c7a714610311578063e30c39781461034e578063f2fde38b14610379578063ffa1ad74146103a257610109565b806379ba5097146102665780638da5cb5b1461027d578063c4d66de8146102a8578063cc9cd961146102d157610109565b806349f387f8116100dc57806349f387f8146101a75780634c738909146101d0578063571047c7146101fb578063590791f214610224578063715018a61461024f57610109565b806320192a771461010e578063205f34f61461012a5780633eb8c201146101675780634311de8f14610190575b600080fd5b61012860048036038101906101239190611d21565b6103cd565b005b34801561013657600080fd5b50610151600480360381019061014c9190611d95565b6106b1565b60405161015e9190611ea0565b60405180910390f35b34801561017357600080fd5b5061018e60048036038101906101899190611ee7565b6108e6565b005b34801561019c57600080fd5b506101a5610b6f565b005b3480156101b357600080fd5b506101ce60048036038101906101c99190611f3a565b610bbb565b005b3480156101dc57600080fd5b506101e5610da9565b6040516101f29190611f9c565b60405180910390f35b34801561020757600080fd5b50610222600480360381019061021d9190611f3a565b610e05565b005b34801561023057600080fd5b50610239610eeb565b6040516102469190611f9c565b60405180910390f35b34801561025b57600080fd5b50610264610f0c565b005b34801561027257600080fd5b5061027b610f20565b005b34801561028957600080fd5b50610292610faf565b60405161029f9190611fc6565b60405180910390f35b3480156102b457600080fd5b506102cf60048036038101906102ca9190611fe1565b610fe7565b005b3480156102dd57600080fd5b506102e661117e565b005b3480156102f457600080fd5b5061030f600480360381019061030a919061200e565b611242565b005b34801561031d57600080fd5b5061033860048036038101906103339190612089565b611535565b6040516103459190612104565b60405180910390f35b34801561035a57600080fd5b50610363611599565b6040516103709190611fc6565b60405180910390f35b34801561038557600080fd5b506103a0600480360381019061039b9190611fe1565b6115d1565b005b3480156103ae57600080fd5b506103b761168d565b6040516103c491906121af565b60405180910390f35b6103d56116c6565b60006103df61171d565b905060008386866040516020016103f89392919061220d565b60405160208183030381529060405280519060200120905081600101600082815260200190815260200160002060009054906101000a900460ff1615610479578585856040517f493e8c440000000000000000000000000000000000000000000000000000000081526004016104709392919061223f565b60405180910390fd5b60008260000160008686604051602001610494929190612271565b604051602081830303815290604052805190602001208152602001908152602001600020905060008160020154036105055784846040517fc25dee750000000000000000000000000000000000000000000000000000000081526004016104fc929190612271565b60405180910390fd5b34816002015414610553578060020154346040517f99b3106d00000000000000000000000000000000000000000000000000000000815260040161054a929190612271565b60405180910390fd5b600183600101600084815260200190815260200160002060006101000a81548160ff0219169083151502179055506000606482600301543461059591906122c9565b61059f919061233a565b9050600081346105af919061236b565b9050808560020160008560040160009054906101000a900473ffffffffffffffffffffffffffffffffffffffff1673ffffffffffffffffffffffffffffffffffffffff1673ffffffffffffffffffffffffffffffffffffffff1681526020019081526020016000206000828254610626919061239f565b9250508190555081856003016000828254610641919061239f565b925050819055508083600501600082825461065c919061239f565b9250508190555085877f7398675bfb80d8068656a15534a2906b06a75c6ef55a95b8674066eb3f8171868b8b6040516106969291906123d3565b60405180910390a350505050506106ab611745565b50505050565b6106b9611c30565b828260006106c561171d565b9050600081600001600085856040516020016106e2929190612271565b60405160208183030381529060405280519060200120815260200190815260200160002060040160009054906101000a900473ffffffffffffffffffffffffffffffffffffffff16905061073461175e565b73ffffffffffffffffffffffffffffffffffffffff168173ffffffffffffffffffffffffffffffffffffffff16141580156107a9575061077261175e565b73ffffffffffffffffffffffffffffffffffffffff16610790610faf565b73ffffffffffffffffffffffffffffffffffffffff1614155b156107fd576107b6610faf565b816107bf61175e565b6040517fc211c9e30000000000000000000000000000000000000000000000000000000081526004016107f4939291906123f7565b60405180910390fd5b600061080761171d565b90508060000160008989604051602001610822929190612271565b6040516020818303038152906040528051906020012081526020019081526020016000206040518060c0016040529081600082015481526020016001820154815260200160028201548152602001600382015481526020016004820160009054906101000a900473ffffffffffffffffffffffffffffffffffffffff1673ffffffffffffffffffffffffffffffffffffffff1673ffffffffffffffffffffffffffffffffffffffff1681526020016005820154815250509550505050505092915050565b6108ee611766565b80600073ffffffffffffffffffffffffffffffffffffffff168173ffffffffffffffffffffffffffffffffffffffff160361096057806040517f7be994f60000000000000000000000000000000000000000000000000000000081526004016109579190611fc6565b60405180910390fd5b6109686116c6565b600061097261171d565b90506000816000016000878760405160200161098f929190612271565b604051602081830303815290604052805190602001208152602001908152602001600020905060008260020160008360040160009054906101000a900473ffffffffffffffffffffffffffffffffffffffff1673ffffffffffffffffffffffffffffffffffffffff1673ffffffffffffffffffffffffffffffffffffffff16815260200190815260200160002054905060008360020160008460040160009054906101000a900473ffffffffffffffffffffffffffffffffffffffff1673ffffffffffffffffffffffffffffffffffffffff1673ffffffffffffffffffffffffffffffffffffffff16815260200190815260200160002081905550808360020160008773ffffffffffffffffffffffffffffffffffffffff1673ffffffffffffffffffffffffffffffffffffffff1681526020019081526020016000206000828254610adb919061239f565b92505081905550848260040160006101000a81548173ffffffffffffffffffffffffffffffffffffffff021916908373ffffffffffffffffffffffffffffffffffffffff16021790555085877f036463b63d03aa20c3b8ff4c3d9d7ab1b03abec9a3c60ac6f5a128371e44d57b87604051610b569190611fc6565b60405180910390a3505050610b69611745565b50505050565b610b77611766565b610b7f6116c6565b6000610b8961171d565b905060008160030154905060008260030181905550610baf610ba9610faf565b826117ed565b5050610bb9611745565b565b82826000610bc761171d565b905060008160000160008585604051602001610be4929190612271565b60405160208183030381529060405280519060200120815260200190815260200160002060040160009054906101000a900473ffffffffffffffffffffffffffffffffffffffff169050610c3661175e565b73ffffffffffffffffffffffffffffffffffffffff168173ffffffffffffffffffffffffffffffffffffffff1614158015610cab5750610c7461175e565b73ffffffffffffffffffffffffffffffffffffffff16610c92610faf565b73ffffffffffffffffffffffffffffffffffffffff1614155b15610cff57610cb8610faf565b81610cc161175e565b6040517fc211c9e3000000000000000000000000000000000000000000000000000000008152600401610cf6939291906123f7565b60405180910390fd5b610d076116c6565b6000610d1161171d565b905060008160000160008a8a604051602001610d2e929190612271565b604051602081830303815290604052805190602001208152602001908152602001600020905086816002018190555087897f8954324bc9925155a4bf3894da26a9d20f089d444b8b377d2e396c33ae4a9fee89604051610d8e9190611f9c565b60405180910390a35050610da0611745565b50505050505050565b600080610db461171d565b9050806002016000610dc461175e565b73ffffffffffffffffffffffffffffffffffffffff1673ffffffffffffffffffffffffffffffffffffffff1681526020019081526020016000205491505090565b610e0d611766565b806064811115610e5457806040517fe4ca51d0000000000000000000000000000000000000000000000000000000008152600401610e4b9190611f9c565b60405180910390fd5b6000610e5e61171d565b905060008160000160008787604051602001610e7b929190612271565b604051602081830303815290604052805190602001208152602001908152602001600020905083816003018190555084867fd7134262eb5f30e3bf2abee7e39615e16fd442542ee9abfbd4707dc0b2e5a87e86604051610edb9190611f9c565b60405180910390a3505050505050565b6000610ef5611766565b6000610eff61171d565b9050806003015491505090565b610f14611766565b610f1e6000611935565b565b6000610f2a61175e565b90508073ffffffffffffffffffffffffffffffffffffffff16610f4b611599565b73ffffffffffffffffffffffffffffffffffffffff1614610fa357806040517f118cdaa7000000000000000000000000000000000000000000000000000000008152600401610f9a9190611fc6565b60405180910390fd5b610fac81611935565b50565b600080610fba611975565b90508060000160009054906101000a900473ffffffffffffffffffffffffffffffffffffffff1691505090565b6000610ff161199d565b905060008160000160089054906101000a900460ff1615905060008260000160009054906101000a900467ffffffffffffffff1690506000808267ffffffffffffffff1614801561103f5750825b9050600060018367ffffffffffffffff16148015611074575060003073ffffffffffffffffffffffffffffffffffffffff163b145b905081158015611082575080155b156110b9576040517ff92ee8a900000000000000000000000000000000000000000000000000000000815260040160405180910390fd5b60018560000160006101000a81548167ffffffffffffffff021916908367ffffffffffffffff16021790555083156111095760018560000160086101000a81548160ff0219169083151502179055505b611112866119b1565b61111a6119c5565b83156111765760008560000160086101000a81548160ff0219169083151502179055507fc7f505b2f371ae2175ee4913f4499e1f2633a7b5936321eed1cdaeb6115181d2600160405161116d9190612487565b60405180910390a15b505050505050565b6111866116c6565b600061119061175e565b9050600061119c61171d565b905060008160020160008473ffffffffffffffffffffffffffffffffffffffff1673ffffffffffffffffffffffffffffffffffffffff16815260200190815260200160002054905060008260020160008573ffffffffffffffffffffffffffffffffffffffff1673ffffffffffffffffffffffffffffffffffffffff1681526020019081526020016000208190555061123583826117ed565b505050611240611745565b565b61124a611766565b81606481111561129157806040517fe4ca51d00000000000000000000000000000000000000000000000000000000081526004016112889190611f9c565b60405180910390fd5b81600073ffffffffffffffffffffffffffffffffffffffff168173ffffffffffffffffffffffffffffffffffffffff160361130357806040517f7be994f60000000000000000000000000000000000000000000000000000000081526004016112fa9190611fc6565b60405180910390fd5b60008787604051602001611318929190612271565b604051602081830303815290604052805190602001209050600061133a61171d565b905060006040518060c001604052808b81526020018a81526020018981526020018881526020018773ffffffffffffffffffffffffffffffffffffffff16815260200160008152509050600073ffffffffffffffffffffffffffffffffffffffff1682600001600085815260200190815260200160002060040160009054906101000a900473ffffffffffffffffffffffffffffffffffffffff1673ffffffffffffffffffffffffffffffffffffffff161461142f5789896040517f7cf8c63b000000000000000000000000000000000000000000000000000000008152600401611426929190612271565b60405180910390fd5b808260000160008581526020019081526020016000206000820151816000015560208201518160010155604082015181600201556060820151816003015560808201518160040160006101000a81548173ffffffffffffffffffffffffffffffffffffffff021916908373ffffffffffffffffffffffffffffffffffffffff16021790555060a0820151816005015590505081600401839080600181540180825580915050600190039060005260206000200160009091909190915055888a7fcb1f23eec66a450e16b28b1413480b7635e40103ee845a1c1dabf42b67eab3958a8a8a604051611521939291906124a2565b60405180910390a350505050505050505050565b60008061154061171d565b905080600101600084878760405160200161155d9392919061220d565b60405160208183030381529060405280519060200120815260200190815260200160002060009054906101000a900460ff169150509392505050565b6000806115a46119d7565b90508060000160009054906101000a900473ffffffffffffffffffffffffffffffffffffffff1691505090565b6115d9611766565b60006115e36119d7565b9050818160000160006101000a81548173ffffffffffffffffffffffffffffffffffffffff021916908373ffffffffffffffffffffffffffffffffffffffff1602179055508173ffffffffffffffffffffffffffffffffffffffff16611647610faf565b73ffffffffffffffffffffffffffffffffffffffff167f38d16b8cac22d99fc7c124b9cd0de2d3fa1faef420bfe791d8c362d765e2270060405160405180910390a35050565b6040518060400160405280600581526020017f312e302e3200000000000000000000000000000000000000000000000000000081525081565b60006116d06119ff565b90506002816000015403611710576040517f3ee5aeb500000000000000000000000000000000000000000000000000000000815260040160405180910390fd5b6002816000018190555050565b60007fbb49acb92ce91902600caabfefad66ed7ac2a150edbd631ab48a5501402b3300905090565b600061174f6119ff565b90506001816000018190555050565b600033905090565b61176e61175e565b73ffffffffffffffffffffffffffffffffffffffff1661178c610faf565b73ffffffffffffffffffffffffffffffffffffffff16146117eb576117af61175e565b6040517f118cdaa70000000000000000000000000000000000000000000000000000000081526004016117e29190611fc6565b60405180910390fd5b565b6000810361183257816040517fe06b2da50000000000000000000000000000000000000000000000000000000081526004016118299190611fc6565b60405180910390fd5b60008273ffffffffffffffffffffffffffffffffffffffff16826040516118589061250a565b60006040518083038185875af1925050503d8060008114611895576040519150601f19603f3d011682016040523d82523d6000602084013e61189a565b606091505b50509050806118e25782826040517ff1c34fc60000000000000000000000000000000000000000000000000000000081526004016118d992919061251f565b60405180910390fd5b8273ffffffffffffffffffffffffffffffffffffffff167f884edad9ce6fa2440d8a54cc123490eb96d2768479d49ff9c7366125a9424364836040516119289190611f9c565b60405180910390a2505050565b600061193f6119d7565b90508060000160006101000a81549073ffffffffffffffffffffffffffffffffffffffff021916905561197182611a27565b5050565b60007f9016d09d72d40fdae2fd8ceac6b6234c7706214fd39c1cd1e609a0528c199300905090565b6000806119a8611afe565b90508091505090565b6119b9611b29565b6119c281611b69565b50565b6119cd611b29565b6119d5611bef565b565b60007f237e158222e3e6968b72b9db0d8043aacf074ad9f650f0d1606b4d82ee432c00905090565b60007f9b779b17422d0df92223018b32b4d1fa46e071723d6817e2486d003becc55f00905090565b6000611a31611975565b905060008160000160009054906101000a900473ffffffffffffffffffffffffffffffffffffffff169050828260000160006101000a81548173ffffffffffffffffffffffffffffffffffffffff021916908373ffffffffffffffffffffffffffffffffffffffff1602179055508273ffffffffffffffffffffffffffffffffffffffff168173ffffffffffffffffffffffffffffffffffffffff167f8be0079c531659141344cd1fd0a4f28419497f9722a3daafe3b4186f6b6457e060405160405180910390a3505050565b60007ff0c57e16840df040f15088dc2f81fe391c3923bec73e23a9662efc9c229c6a0060001b905090565b611b31611c10565b611b67576040517fd7e6bcf800000000000000000000000000000000000000000000000000000000815260040160405180910390fd5b565b611b71611b29565b600073ffffffffffffffffffffffffffffffffffffffff168173ffffffffffffffffffffffffffffffffffffffff1603611be35760006040517f1e4fbdf7000000000000000000000000000000000000000000000000000000008152600401611bda9190611fc6565b60405180910390fd5b611bec81611935565b50565b611bf7611b29565b6000611c016119ff565b90506001816000018190555050565b6000611c1a61199d565b60000160089054906101000a900460ff16905090565b6040518060c0016040528060008152602001600081526020016000815260200160008152602001600073ffffffffffffffffffffffffffffffffffffffff168152602001600081525090565b600080fd5b600080fd5b600080fd5b600080fd5b600080fd5b60008083601f840112611cab57611caa611c86565b5b8235905067ffffffffffffffff811115611cc857611cc7611c8b565b5b602083019150836001820283011115611ce457611ce3611c90565b5b9250929050565b6000819050919050565b611cfe81611ceb565b8114611d0957600080fd5b50565b600081359050611d1b81611cf5565b92915050565b60008060008060608587031215611d3b57611d3a611c7c565b5b600085013567ffffffffffffffff811115611d5957611d58611c81565b5b611d6587828801611c95565b94509450506020611d7887828801611d0c565b9250506040611d8987828801611d0c565b91505092959194509250565b60008060408385031215611dac57611dab611c7c565b5b6000611dba85828601611d0c565b9250506020611dcb85828601611d0c565b9150509250929050565b611dde81611ceb565b82525050565b600073ffffffffffffffffffffffffffffffffffffffff82169050919050565b6000611e0f82611de4565b9050919050565b611e1f81611e04565b82525050565b60c082016000820151611e3b6000850182611dd5565b506020820151611e4e6020850182611dd5565b506040820151611e616040850182611dd5565b506060820151611e746060850182611dd5565b506080820151611e876080850182611e16565b5060a0820151611e9a60a0850182611dd5565b50505050565b600060c082019050611eb56000830184611e25565b92915050565b611ec481611e04565b8114611ecf57600080fd5b50565b600081359050611ee181611ebb565b92915050565b600080600060608486031215611f0057611eff611c7c565b5b6000611f0e86828701611d0c565b9350506020611f1f86828701611d0c565b9250506040611f3086828701611ed2565b9150509250925092565b600080600060608486031215611f5357611f52611c7c565b5b6000611f6186828701611d0c565b9350506020611f7286828701611d0c565b9250506040611f8386828701611d0c565b9150509250925092565b611f9681611ceb565b82525050565b6000602082019050611fb16000830184611f8d565b92915050565b611fc081611e04565b82525050565b6000602082019050611fdb6000830184611fb7565b92915050565b600060208284031215611ff757611ff6611c7c565b5b600061200584828501611ed2565b91505092915050565b600080600080600060a0868803121561202a57612029611c7c565b5b600061203888828901611d0c565b955050602061204988828901611d0c565b945050604061205a88828901611d0c565b935050606061206b88828901611d0c565b925050608061207c88828901611ed2565b9150509295509295909350565b6000806000604084860312156120a2576120a1611c7c565b5b600084013567ffffffffffffffff8111156120c0576120bf611c81565b5b6120cc86828701611c95565b935093505060206120df86828701611d0c565b9150509250925092565b60008115159050919050565b6120fe816120e9565b82525050565b600060208201905061211960008301846120f5565b92915050565b600081519050919050565b600082825260208201905092915050565b60005b8381101561215957808201518184015260208101905061213e565b60008484015250505050565b6000601f19601f8301169050919050565b60006121818261211f565b61218b818561212a565b935061219b81856020860161213b565b6121a481612165565b840191505092915050565b600060208201905081810360008301526121c98184612176565b905092915050565b82818337600083830152505050565b60006121ec838561212a565b93506121f98385846121d1565b61220283612165565b840190509392505050565b60006040820190506122226000830186611f8d565b81810360208301526122358184866121e0565b9050949350505050565b6000604082019050818103600083015261225a8185876121e0565b90506122696020830184611f8d565b949350505050565b60006040820190506122866000830185611f8d565b6122936020830184611f8d565b9392505050565b7f4e487b7100000000000000000000000000000000000000000000000000000000600052601160045260246000fd5b60006122d482611ceb565b91506122df83611ceb565b92508282026122ed81611ceb565b915082820484148315176123045761230361229a565b5b5092915050565b7f4e487b7100000000000000000000000000000000000000000000000000000000600052601260045260246000fd5b600061234582611ceb565b915061235083611ceb565b9250826123605761235f61230b565b5b828204905092915050565b600061237682611ceb565b915061238183611ceb565b92508282039050818111156123995761239861229a565b5b92915050565b60006123aa82611ceb565b91506123b583611ceb565b92508282019050808211156123cd576123cc61229a565b5b92915050565b600060208201905081810360008301526123ee8184866121e0565b90509392505050565b600060608201905061240c6000830186611fb7565b6124196020830185611fb7565b6124266040830184611fb7565b949350505050565b6000819050919050565b600067ffffffffffffffff82169050919050565b6000819050919050565b600061247161246c6124678461242e565b61244c565b612438565b9050919050565b61248181612456565b82525050565b600060208201905061249c6000830184612478565b92915050565b60006060820190506124b76000830186611f8d565b6124c46020830185611f8d565b6124d16040830184611fb7565b949350505050565b600081905092915050565b50565b60006124f46000836124d9565b91506124ff826124e4565b600082019050919050565b6000612515826124e7565b9150819050919050565b60006040820190506125346000830185611fb7565b6125416020830184611f8d565b939250505056fea2646970667358221220e483ce645837ae9f8743018241ce462f52fa5f6022dc3b1b878b068bcd2bbe9c64736f6c634300081b0033",
  "linkReferences": {},
  "deployedLinkReferences": {}
}