{
  "_format": "hh3-artifact-1",
  "contractName": "CrossChainProofValidator",
  "sourceName": "contracts/cross-chain/CrossChainProofValidator.sol",
  "abi": [
    {
      "inputs": [
        {
          "internalType": "string",
          "name": "domainName",
          "type": "string"
        },
        {
          "internalType": "string",
          "name": "signatureVersion",
          "type": "string"
        },
        {
          "internalType": "address",
          "name": "oracleSigningAddress",
          "type": "address"
        }
      ],
      "stateMutability": "nonpayable",
      "type": "constructor"
    },
    {
      "inputs": [],
      "name": "GlobalStateProofInvalid",
      "type": "error"
    },
    {
      "inputs": [
        {
          "internalType": "address",
          "name": "recovered",
          "type": "address"
        }
      ],
      "name": "GlobalStateProofSigningAddressInvalid",
      "type": "error"
    },
    {
      "inputs": [],
      "name": "IdentityStateProofInvalid",
      "type": "error"
    },
    {
      "inputs": [
        {
          "internalType": "address",
          "name": "recovered",
          "type": "address"
        }
      ],
      "name": "IdentityStateProofSigningAddressInvalid",
      "type": "error"
    },
    {
      "inputs": [],
      "name": "InvalidShortString",
      "type": "error"
    },
    {
      "inputs": [],
      "name": "OracleReplacedAtTimestampCannotBeInTheFuture",
      "type": "error"
    },
    {
      "inputs": [],
      "name": "OracleSigningAddressShouldNotBeZero",
      "type": "error"
    },
    {
      "inputs": [],
      "name": "OracleTimestampCannotBeInThePast",
      "type": "error"
    },
    {
      "inputs": [
        {
          "internalType": "address",
          "name": "owner",
          "type": "address"
        }
      ],
      "name": "OwnableInvalidOwner",
      "type": "error"
    },
    {
      "inputs": [
        {
          "internalType": "address",
          "name": "account",
          "type": "address"
        }
      ],
      "name": "OwnableUnauthorizedAccount",
      "type": "error"
    },
    {
      "inputs": [
        {
          "internalType": "string",
          "name": "str",
          "type": "string"
        }
      ],
      "name": "StringTooLong",
      "type": "error"
    },
    {
      "anonymous": false,
      "inputs": [],
      "name": "EIP712DomainChanged",
      "type": "event"
    },
    {
      "anonymous": false,
      "inputs": [
        {
          "indexed": true,
          "internalType": "address",
          "name": "previousOwner",
          "type": "address"
        },
        {
          "indexed": true,
          "internalType": "address",
          "name": "newOwner",
          "type": "address"
        }
      ],
      "name": "OwnershipTransferred",
      "type": "event"
    },
    {
      "inputs": [],
      "name": "DOMAIN_SEPARATOR",
      "outputs": [
        {
          "internalType": "bytes32",
          "name": "",
          "type": "bytes32"
        }
      ],
      "stateMutability": "view",
      "type": "function"
    },
    {
      "inputs": [],
      "name": "GLOBAL_STATE_MESSAGE_TYPEHASH",
      "outputs": [
        {
          "internalType": "bytes32",
          "name": "",
          "type": "bytes32"
        }
      ],
      "stateMutability": "view",
      "type": "function"
    },
    {
      "inputs": [],
      "name": "IDENTITY_STATE_MESSAGE_TYPEHASH",
      "outputs": [
        {
          "internalType": "bytes32",
          "name": "",
          "type": "bytes32"
        }
      ],
      "stateMutability": "view",
      "type": "function"
    },
    {
      "inputs": [],
      "name": "MAX_REPLACED_AT_AHEAD_OF_TIME",
      "outputs": [
        {
          "internalType": "uint256",
          "name": "",
          "type": "uint256"
        }
      ],
      "stateMutability": "view",
      "type": "function"
    },
    {
      "inputs": [],
      "name": "MAX_TIMESTAMP_LAG",
      "outputs": [
        {
          "internalType": "uint256",
          "name": "",
          "type": "uint256"
        }
      ],
      "stateMutability": "view",
      "type": "function"
    },
    {
      "inputs": [],
      "name": "TYPE_HASH",
      "outputs": [
        {
          "internalType": "bytes32",
          "name": "",
          "type": "bytes32"
        }
      ],
      "stateMutability": "view",
      "type": "function"
    },
    {
      "inputs": [],
      "name": "disableLegacyOracleSigningAddress",
      "outputs": [],
      "stateMutability": "nonpayable",
      "type": "function"
    },
    {
      "inputs": [],
      "name": "eip712Domain",
      "outputs": [
        {
          "internalType": "bytes1",
          "name": "fields",
          "type": "bytes1"
        },
        {
          "internalType": "string",
          "name": "name",
          "type": "string"
        },
        {
          "internalType": "string",
          "name": "version",
          "type": "string"
        },
        {
          "internalType": "uint256",
          "name": "chainId",
          "type": "uint256"
        },
        {
          "internalType": "address",
          "name": "verifyingContract",
          "type": "address"
        },
        {
          "internalType": "bytes32",
          "name": "salt",
          "type": "bytes32"
        },
        {
          "internalType": "uint256[]",
          "name": "extensions",
          "type": "uint256[]"
        }
      ],
      "stateMutability": "view",
      "type": "function"
    },
    {
      "inputs": [],
      "name": "getLegacyOracleSigningAddress",
      "outputs": [
        {
          "internalType": "address",
          "name": "",
          "type": "address"
        }
      ],
      "stateMutability": "view",
      "type": "function"
    },
    {
      "inputs": [],
      "name": "getOracleSigningAddress",
      "outputs": [
        {
          "internalType": "address",
          "name": "",
          "type": "address"
        }
      ],
      "stateMutability": "view",
      "type": "function"
    },
    {
      "inputs": [],
      "name": "owner",
      "outputs": [
        {
          "internalType": "address",
          "name": "",
          "type": "address"
        }
      ],
      "stateMutability": "view",
      "type": "function"
    },
    {
      "inputs": [
        {
          "internalType": "bytes",
          "name": "globalStateProof",
          "type": "bytes"
        }
      ],
      "name": "processGlobalStateProof",
      "outputs": [
        {
          "components": [
            {
              "internalType": "bytes2",
              "name": "idType",
              "type": "bytes2"
            },
            {
              "internalType": "uint256",
              "name": "root",
              "type": "uint256"
            },
            {
              "internalType": "uint256",
              "name": "replacedAtTimestamp",
              "type": "uint256"
            }
          ],
          "internalType": "struct IState.GlobalStateProcessResult",
          "name": "",
          "type": "tuple"
        }
      ],
      "stateMutability": "view",
      "type": "function"
    },
    {
      "inputs": [
        {
          "internalType": "bytes",
          "name": "identityStateProof",
          "type": "bytes"
        }
      ],
      "name": "processIdentityStateProof",
      "outputs": [
        {
          "components": [
            {
              "internalType": "uint256",
              "name": "id",
              "type": "uint256"
            },
            {
              "internalType": "uint256",
              "name": "state",
              "type": "uint256"
            },
            {
              "internalType": "uint256",
              "name": "replacedAtTimestamp",
              "type": "uint256"
            }
          ],
          "internalType": "struct IState.IdentityStateProcessResult",
          "name": "",
          "type": "tuple"
        }
      ],
      "stateMutability": "view",
      "type": "function"
    },
    {
      "inputs": [],
      "name": "renounceOwnership",
      "outputs": [],
      "stateMutability": "nonpayable",
      "type": "function"
    },
    {
      "inputs": [
        {
          "internalType": "address",
          "name": "legacyOracleSigningAddress",
          "type": "address"
        }
      ],
      "name": "setLegacyOracleSigningAddress",
      "outputs": [],
      "stateMutability": "nonpayable",
      "type": "function"
    },
    {
      "inputs": [
        {
          "internalType": "address",
          "name": "oracleSigningAddress",
          "type": "address"
        }
      ],
      "name": "setOracleSigningAddress",
      "outputs": [],
      "stateMutability": "nonpayable",
      "type": "function"
    },
    {
      "inputs": [
        {
          "internalType": "address",
          "name": "newOwner",
          "type": "address"
        }
      ],
      "name": "transferOwnership",
      "outputs": [],
      "stateMutability": "nonpayable",
      "type": "function"
    }
  ],
  "bytecode": "0x610180604052348015610010575f5ffd5b506040516127d73803806127d783398181016040528101906100329190610614565b8282335f73ffffffffffffffffffffffffffffffffffffffff168173ffffffffffffffffffffffffffffffffffffffff16036100a5575f6040517f1e4fbdf700000000000000000000000000000000000000000000000000000000815260040161009c91906106ab565b60405180910390fd5b6100b48161022f60201b60201c565b506100c96001836102f060201b90919060201c565b61012081815250506100e56002826102f060201b90919060201c565b6101408181525050818051906020012060e08181525050808051906020012061010081815250504660a0818152505061012261033d60201b60201c565b608081815250503073ffffffffffffffffffffffffffffffffffffffff1660c08173ffffffffffffffffffffffffffffffffffffffff1681525050505061016e8161039760201b60201c565b5f838051906020012090505f838051906020012090505f5f90505f5f90507f8b73c3c69bb8fe3d512ecc4cf759cc79239f7b179b0ffacaa9a75d522b39400f848484846040516020016101c59594939291906106f4565b6040516020818303038152906040528051906020012061016081815250508460035f6101000a81548173ffffffffffffffffffffffffffffffffffffffff021916908373ffffffffffffffffffffffffffffffffffffffff16021790555050505050505050610b16565b5f5f5f9054906101000a900473ffffffffffffffffffffffffffffffffffffffff169050815f5f6101000a81548173ffffffffffffffffffffffffffffffffffffffff021916908373ffffffffffffffffffffffffffffffffffffffff1602179055508173ffffffffffffffffffffffffffffffffffffffff168173ffffffffffffffffffffffffffffffffffffffff167f8be0079c531659141344cd1fd0a4f28419497f9722a3daafe3b4186f6b6457e060405160405180910390a35050565b5f6020835110156103115761030a836103ff60201b60201c565b9050610337565b826103218361046460201b60201c565b5f01908161032f919061094c565b5060ff5f1b90505b92915050565b5f7f8b73c3c69bb8fe3d512ecc4cf759cc79239f7b179b0ffacaa9a75d522b39400f60e05161010051463060405160200161037c9594939291906106f4565b60405160208183030381529060405280519060200120905090565b5f73ffffffffffffffffffffffffffffffffffffffff168173ffffffffffffffffffffffffffffffffffffffff16036103fc576040517f44e2c97f00000000000000000000000000000000000000000000000000000000815260040160405180910390fd5b50565b5f5f829050601f8151111561044b57826040517f305a27a90000000000000000000000000000000000000000000000000000000081526004016104429190610a63565b60405180910390fd5b80518161045790610ab0565b5f1c175f1b915050919050565b5f819050919050565b5f604051905090565b5f5ffd5b5f5ffd5b5f5ffd5b5f5ffd5b5f601f19601f8301169050919050565b7f4e487b71000000000000000000000000000000000000000000000000000000005f52604160045260245ffd5b6104cc82610486565b810181811067ffffffffffffffff821117156104eb576104ea610496565b5b80604052505050565b5f6104fd61046d565b905061050982826104c3565b919050565b5f67ffffffffffffffff82111561052857610527610496565b5b61053182610486565b9050602081019050919050565b8281835e5f83830152505050565b5f61055e6105598461050e565b6104f4565b90508281526020810184848401111561057a57610579610482565b5b61058584828561053e565b509392505050565b5f82601f8301126105a1576105a061047e565b5b81516105b184826020860161054c565b91505092915050565b5f73ffffffffffffffffffffffffffffffffffffffff82169050919050565b5f6105e3826105ba565b9050919050565b6105f3816105d9565b81146105fd575f5ffd5b50565b5f8151905061060e816105ea565b92915050565b5f5f5f6060848603121561062b5761062a610476565b5b5f84015167ffffffffffffffff8111156106485761064761047a565b5b6106548682870161058d565b935050602084015167ffffffffffffffff8111156106755761067461047a565b5b6106818682870161058d565b925050604061069286828701610600565b9150509250925092565b6106a5816105d9565b82525050565b5f6020820190506106be5f83018461069c565b92915050565b5f819050919050565b6106d6816106c4565b82525050565b5f819050919050565b6106ee816106dc565b82525050565b5f60a0820190506107075f8301886106cd565b61071460208301876106cd565b61072160408301866106cd565b61072e60608301856106e5565b61073b608083018461069c565b9695505050505050565b5f81519050919050565b7f4e487b71000000000000000000000000000000000000000000000000000000005f52602260045260245ffd5b5f600282049050600182168061079357607f821691505b6020821081036107a6576107a561074f565b5b50919050565b5f819050815f5260205f209050919050565b5f6020601f8301049050919050565b5f82821b905092915050565b5f600883026108087fffffffffffffffffffffffffffffffffffffffffffffffffffffffffffffffff826107cd565b61081286836107cd565b95508019841693508086168417925050509392505050565b5f819050919050565b5f61084d610848610843846106dc565b61082a565b6106dc565b9050919050565b5f819050919050565b61086683610833565b61087a61087282610854565b8484546107d9565b825550505050565b5f5f905090565b610891610882565b61089c81848461085d565b505050565b5b818110156108bf576108b45f82610889565b6001810190506108a2565b5050565b601f821115610904576108d5816107ac565b6108de846107be565b810160208510156108ed578190505b6109016108f9856107be565b8301826108a1565b50505b505050565b5f82821c905092915050565b5f6109245f1984600802610909565b1980831691505092915050565b5f61093c8383610915565b9150826002028217905092915050565b61095582610745565b67ffffffffffffffff81111561096e5761096d610496565b5b610978825461077c565b6109838282856108c3565b5f60209050601f8311600181146109b4575f84156109a2578287015190505b6109ac8582610931565b865550610a13565b601f1984166109c2866107ac565b5f5b828110156109e9578489015182556001820191506020850194506020810190506109c4565b86831015610a065784890151610a02601f891682610915565b8355505b6001600288020188555050505b505050505050565b5f82825260208201905092915050565b5f610a3582610745565b610a3f8185610a1b565b9350610a4f81856020860161053e565b610a5881610486565b840191505092915050565b5f6020820190508181035f830152610a7b8184610a2b565b905092915050565b5f81519050919050565b5f819050602082019050919050565b5f610aa782516106c4565b80915050919050565b5f610aba82610a83565b82610ac484610a8d565b9050610acf81610a9c565b92506020821015610b0f57610b0a7fffffffffffffffffffffffffffffffffffffffffffffffffffffffffffffffff836020036008026107cd565b831692505b5050919050565b60805160a05160c05160e05161010051610120516101405161016051611c6e610b695f395f818161051f0152610e0401525f610d0a01525f610ccf01525f50505f50505f50505f50505f5050611c6e5ff3fe608060405234801561000f575f5ffd5b5060043610610109575f3560e01c80637b859846116100a0578063bc54552c1161006f578063bc54552c14610263578063c40189d114610281578063f2fde38b1461029d578063f6a00025146102b9578063f89f69e7146102e957610109565b80637b859846146101f957806384b0196e146102175780638da5cb5b1461023b578063933a7b071461025957610109565b80634f85beff116100dc5780634f85beff14610195578063641714df146101b357806364d4c819146101d1578063715018a6146101ef57610109565b806302899be01461010d57806315782ce6146101295780632c8d2f45146101595780633644e51514610177575b5f5ffd5b610127600480360381019061012291906111e1565b610307565b005b610143600480360381019061013e919061126d565b61035b565b6040516101509190611310565b60405180910390f35b6101616104f9565b60405161016e9190611341565b60405180910390f35b61017f61051d565b60405161018c9190611341565b60405180910390f35b61019d610541565b6040516101aa9190611369565b60405180910390f35b6101bb610547565b6040516101c89190611391565b60405180910390f35b6101d961056f565b6040516101e69190611341565b60405180910390f35b6101f7610593565b005b6102016105a6565b60405161020e9190611391565b60405180910390f35b61021f6105ce565b60405161023297969594939291906114fc565b60405180910390f35b610243610673565b6040516102509190611391565b60405180910390f35b61026161069a565b005b61026b6106e4565b6040516102789190611341565b60405180910390f35b61029b600480360381019061029691906111e1565b610708565b005b6102b760048036038101906102b291906111e1565b61075c565b005b6102d360048036038101906102ce919061126d565b6107e0565b6040516102e091906115f8565b60405180910390f35b6102f161099f565b6040516102fe9190611369565b60405180910390f35b61030f6109a5565b61031881610a2c565b8060035f6101000a81548173ffffffffffffffffffffffffffffffffffffffff021916908373ffffffffffffffffffffffffffffffffffffffff16021790555050565b610363611119565b5f83838101906103739190611849565b90505f5f610388835f01518460200151610a94565b91509150816103c3576040517fa903d90100000000000000000000000000000000000000000000000000000000815260040160405180910390fd5b60035f9054906101000a900473ffffffffffffffffffffffffffffffffffffffff1673ffffffffffffffffffffffffffffffffffffffff168173ffffffffffffffffffffffffffffffffffffffff161415801561046d575060045f9054906101000a900473ffffffffffffffffffffffffffffffffffffffff1673ffffffffffffffffffffffffffffffffffffffff168173ffffffffffffffffffffffffffffffffffffffff1614155b156104af57806040517fba320b9c0000000000000000000000000000000000000000000000000000000081526004016104a69190611391565b60405180910390fd5b6040518060600160405280845f0151602001518152602001845f01516040015181526020016104eb855f01515f0151865f015160600151610b4f565b815250935050505092915050565b7ff81a9e017d087972f510abf0fd1b3f7b4b3e06262f624f1e02a9971671014e7581565b7f000000000000000000000000000000000000000000000000000000000000000081565b610e1081565b5f60045f9054906101000a900473ffffffffffffffffffffffffffffffffffffffff16905090565b7f8b73c3c69bb8fe3d512ecc4cf759cc79239f7b179b0ffacaa9a75d522b39400f81565b61059b6109a5565b6105a45f610c05565b565b5f60035f9054906101000a900473ffffffffffffffffffffffffffffffffffffffff16905090565b5f6060805f5f5f60606105df610cc6565b6105e7610d01565b5f5f5f5f1b5f67ffffffffffffffff81111561060657610605611615565b5b6040519080825280602002602001820160405280156106345781602001602082028036833780820191505090505b507f0f00000000000000000000000000000000000000000000000000000000000000959493929190965096509650965096509650965090919293949596565b5f5f5f9054906101000a900473ffffffffffffffffffffffffffffffffffffffff16905090565b6106a26109a5565b5f60045f6101000a81548173ffffffffffffffffffffffffffffffffffffffff021916908373ffffffffffffffffffffffffffffffffffffffff160217905550565b7ff1dadf6b7ea9b4b71084ea0485581441c95ea32c613be9b94b3666750c9fb71f81565b6107106109a5565b61071981610a2c565b8060045f6101000a81548173ffffffffffffffffffffffffffffffffffffffff021916908373ffffffffffffffffffffffffffffffffffffffff16021790555050565b6107646109a5565b5f73ffffffffffffffffffffffffffffffffffffffff168173ffffffffffffffffffffffffffffffffffffffff16036107d4575f6040517f1e4fbdf70000000000000000000000000000000000000000000000000000000081526004016107cb9190611391565b60405180910390fd5b6107dd81610c05565b50565b6107e8611137565b5f83838101906107f89190611998565b90505f5f61080d835f01518460200151610d3c565b9150915081610848576040517f4ce6516c00000000000000000000000000000000000000000000000000000000815260040160405180910390fd5b60035f9054906101000a900473ffffffffffffffffffffffffffffffffffffffff1673ffffffffffffffffffffffffffffffffffffffff168173ffffffffffffffffffffffffffffffffffffffff16141580156108f2575060045f9054906101000a900473ffffffffffffffffffffffffffffffffffffffff1673ffffffffffffffffffffffffffffffffffffffff168173ffffffffffffffffffffffffffffffffffffffff1614155b1561093457806040517feb9b92a600000000000000000000000000000000000000000000000000000000815260040161092b9190611391565b60405180910390fd5b6040518060600160405280845f0151602001517dffffffffffffffffffffffffffffffffffffffffffffffffffffffffffff19168152602001845f0151604001518152602001610991855f01515f0151865f015160600151610b4f565b815250935050505092915050565b61012c81565b6109ad610df7565b73ffffffffffffffffffffffffffffffffffffffff166109cb610673565b73ffffffffffffffffffffffffffffffffffffffff1614610a2a576109ee610df7565b6040517f118cdaa7000000000000000000000000000000000000000000000000000000008152600401610a219190611391565b60405180910390fd5b565b5f73ffffffffffffffffffffffffffffffffffffffff168173ffffffffffffffffffffffffffffffffffffffff1603610a91576040517f44e2c97f00000000000000000000000000000000000000000000000000000000815260040160405180910390fd5b50565b5f5f5f610afd7ff81a9e017d087972f510abf0fd1b3f7b4b3e06262f624f1e02a9971671014e75865f0151876020015188604001518960600151604051602001610ae29594939291906119df565b60405160208183030381529060405280519060200120610dfe565b90505f5f610b148684610e3090919063ffffffff16565b50915091505f6003811115610b2c57610b2b611a30565b5b816003811115610b3f57610b3e611a30565b5b1482945094505050509250929050565b5f610e1042610b5e9190611a8a565b831015610b97576040517f3c52425500000000000000000000000000000000000000000000000000000000815260040160405180910390fd5b5f8214610ba45781610ba6565b825b905061012c42610bb69190611abd565b811115610bef576040517f083c240800000000000000000000000000000000000000000000000000000000815260040160405180910390fd5b5f8103610bff57610bfe611af0565b5b92915050565b5f5f5f9054906101000a900473ffffffffffffffffffffffffffffffffffffffff169050815f5f6101000a81548173ffffffffffffffffffffffffffffffffffffffff021916908373ffffffffffffffffffffffffffffffffffffffff1602179055508173ffffffffffffffffffffffffffffffffffffffff168173ffffffffffffffffffffffffffffffffffffffff167f8be0079c531659141344cd1fd0a4f28419497f9722a3daafe3b4186f6b6457e060405160405180910390a35050565b6060610cfc60017f0000000000000000000000000000000000000000000000000000000000000000610e8590919063ffffffff16565b905090565b6060610d3760027f0000000000000000000000000000000000000000000000000000000000000000610e8590919063ffffffff16565b905090565b5f5f5f610da57ff1dadf6b7ea9b4b71084ea0485581441c95ea32c613be9b94b3666750c9fb71f865f0151876020015188604001518960600151604051602001610d8a959493929190611b2c565b60405160208183030381529060405280519060200120610dfe565b90505f5f610dbc8684610e3090919063ffffffff16565b50915091505f6003811115610dd457610dd3611a30565b5b816003811115610de757610de6611a30565b5b1482945094505050509250929050565b5f33905090565b5f610e297f000000000000000000000000000000000000000000000000000000000000000083610f32565b9050919050565b5f5f5f6041845103610e70575f5f5f602087015192506040870151915060608701515f1a9050610e6288828585610f72565b955095509550505050610e7e565b5f600285515f1b9250925092505b9250925092565b606060ff5f1b8314610ea157610e9a83611059565b9050610f2c565b818054610ead90611baa565b80601f0160208091040260200160405190810160405280929190818152602001828054610ed990611baa565b8015610f245780601f10610efb57610100808354040283529160200191610f24565b820191905f5260205f20905b815481529060010190602001808311610f0757829003601f168201915b505050505090505b92915050565b5f6040517f190100000000000000000000000000000000000000000000000000000000000081528360028201528260228201526042812091505092915050565b5f5f5f7f7fffffffffffffffffffffffffffffff5d576e7357a4501ddfe92f46681b20a0845f1c1115610fae575f60038592509250925061104f565b5f6001888888886040515f8152602001604052604051610fd19493929190611bf5565b6020604051602081039080840390855afa158015610ff1573d5f5f3e3d5ffd5b5050506020604051035190505f73ffffffffffffffffffffffffffffffffffffffff168173ffffffffffffffffffffffffffffffffffffffff1603611042575f60015f5f1b9350935093505061104f565b805f5f5f1b935093509350505b9450945094915050565b60605f611065836110cb565b90505f602067ffffffffffffffff81111561108357611082611615565b5b6040519080825280601f01601f1916602001820160405280156110b55781602001600182028036833780820191505090505b5090508181528360208201528092505050919050565b5f5f60ff835f1c169050601f811115611110576040517fb3512b0c00000000000000000000000000000000000000000000000000000000815260040160405180910390fd5b80915050919050565b60405180606001604052805f81526020015f81526020015f81525090565b60405180606001604052805f7dffffffffffffffffffffffffffffffffffffffffffffffffffffffffffff191681526020015f81526020015f81525090565b5f604051905090565b5f5ffd5b5f5ffd5b5f73ffffffffffffffffffffffffffffffffffffffff82169050919050565b5f6111b082611187565b9050919050565b6111c0816111a6565b81146111ca575f5ffd5b50565b5f813590506111db816111b7565b92915050565b5f602082840312156111f6576111f561117f565b5b5f611203848285016111cd565b91505092915050565b5f5ffd5b5f5ffd5b5f5ffd5b5f5f83601f84011261122d5761122c61120c565b5b8235905067ffffffffffffffff81111561124a57611249611210565b5b60208301915083600182028301111561126657611265611214565b5b9250929050565b5f5f602083850312156112835761128261117f565b5b5f83013567ffffffffffffffff8111156112a05761129f611183565b5b6112ac85828601611218565b92509250509250929050565b5f819050919050565b6112ca816112b8565b82525050565b606082015f8201516112e45f8501826112c1565b5060208201516112f760208501826112c1565b50604082015161130a60408501826112c1565b50505050565b5f6060820190506113235f8301846112d0565b92915050565b5f819050919050565b61133b81611329565b82525050565b5f6020820190506113545f830184611332565b92915050565b611363816112b8565b82525050565b5f60208201905061137c5f83018461135a565b92915050565b61138b816111a6565b82525050565b5f6020820190506113a45f830184611382565b92915050565b5f7fff0000000000000000000000000000000000000000000000000000000000000082169050919050565b6113de816113aa565b82525050565b5f81519050919050565b5f82825260208201905092915050565b8281835e5f83830152505050565b5f601f19601f8301169050919050565b5f611426826113e4565b61143081856113ee565b93506114408185602086016113fe565b6114498161140c565b840191505092915050565b5f81519050919050565b5f82825260208201905092915050565b5f819050602082019050919050565b5f61148883836112c1565b60208301905092915050565b5f602082019050919050565b5f6114aa82611454565b6114b4818561145e565b93506114bf8361146e565b805f5b838110156114ef5781516114d6888261147d565b97506114e183611494565b9250506001810190506114c2565b5085935050505092915050565b5f60e08201905061150f5f83018a6113d5565b8181036020830152611521818961141c565b90508181036040830152611535818861141c565b9050611544606083018761135a565b6115516080830186611382565b61155e60a0830185611332565b81810360c083015261157081846114a0565b905098975050505050505050565b5f7fffff00000000000000000000000000000000000000000000000000000000000082169050919050565b6115b28161157e565b82525050565b606082015f8201516115cc5f8501826115a9565b5060208201516115df60208501826112c1565b5060408201516115f260408501826112c1565b50505050565b5f60608201905061160b5f8301846115b8565b92915050565b5f5ffd5b7f4e487b71000000000000000000000000000000000000000000000000000000005f52604160045260245ffd5b61164b8261140c565b810181811067ffffffffffffffff8211171561166a57611669611615565b5b80604052505050565b5f61167c611176565b90506116888282611642565b919050565b5f5ffd5b61169a816112b8565b81146116a4575f5ffd5b50565b5f813590506116b581611691565b92915050565b5f608082840312156116d0576116cf611611565b5b6116da6080611673565b90505f6116e9848285016116a7565b5f8301525060206116fc848285016116a7565b6020830152506040611710848285016116a7565b6040830152506060611724848285016116a7565b60608301525092915050565b5f5ffd5b5f67ffffffffffffffff82111561174e5761174d611615565b5b6117578261140c565b9050602081019050919050565b828183375f83830152505050565b5f61178461177f84611734565b611673565b9050828152602081018484840111156117a05761179f611730565b5b6117ab848285611764565b509392505050565b5f82601f8301126117c7576117c661120c565b5b81356117d7848260208601611772565b91505092915050565b5f60a082840312156117f5576117f4611611565b5b6117ff6040611673565b90505f61180e848285016116bb565b5f83015250608082013567ffffffffffffffff8111156118315761183061168d565b5b61183d848285016117b3565b60208301525092915050565b5f6020828403121561185e5761185d61117f565b5b5f82013567ffffffffffffffff81111561187b5761187a611183565b5b611887848285016117e0565b91505092915050565b6118998161157e565b81146118a3575f5ffd5b50565b5f813590506118b481611890565b92915050565b5f608082840312156118cf576118ce611611565b5b6118d96080611673565b90505f6118e8848285016116a7565b5f8301525060206118fb848285016118a6565b602083015250604061190f848285016116a7565b6040830152506060611923848285016116a7565b60608301525092915050565b5f60a0828403121561194457611943611611565b5b61194e6040611673565b90505f61195d848285016118ba565b5f83015250608082013567ffffffffffffffff8111156119805761197f61168d565b5b61198c848285016117b3565b60208301525092915050565b5f602082840312156119ad576119ac61117f565b5b5f82013567ffffffffffffffff8111156119ca576119c9611183565b5b6119d68482850161192f565b91505092915050565b5f60a0820190506119f25f830188611332565b6119ff602083018761135a565b611a0c604083018661135a565b611a19606083018561135a565b611a26608083018461135a565b9695505050505050565b7f4e487b71000000000000000000000000000000000000000000000000000000005f52602160045260245ffd5b7f4e487b71000000000000000000000000000000000000000000000000000000005f52601160045260245ffd5b5f611a94826112b8565b9150611a9f836112b8565b9250828203905081811115611ab757611ab6611a5d565b5b92915050565b5f611ac7826112b8565b9150611ad2836112b8565b9250828201905080821115611aea57611ae9611a5d565b5b92915050565b7f4e487b71000000000000000000000000000000000000000000000000000000005f52600160045260245ffd5b611b268161157e565b82525050565b5f60a082019050611b3f5f830188611332565b611b4c602083018761135a565b611b596040830186611b1d565b611b66606083018561135a565b611b73608083018461135a565b9695505050505050565b7f4e487b71000000000000000000000000000000000000000000000000000000005f52602260045260245ffd5b5f6002820490506001821680611bc157607f821691505b602082108103611bd457611bd3611b7d565b5b50919050565b5f60ff82169050919050565b611bef81611bda565b82525050565b5f608082019050611c085f830187611332565b611c156020830186611be6565b611c226040830185611332565b611c2f6060830184611332565b9594505050505056fea26469706673582212200991d65de7b7ce7b9d74d66680926c752674f42413a8c23e1fb83cc67f48bf1c64736f6c634300081b0033",
  "linkReferences": {},
  "deployedLinkReferences": {},
  "immutableReferences": {
    "5929": [
      {
        "length": 32,
        "start": 3279
      }
    ],
    "5932": [
      {
        "length": 32,
        "start": 3338
      }
    ],
    "10184": [
      {
        "length": 32,
        "start": 1311
      },
      {
        "length": 32,
        "start": 3588
      }
    ]
  },
  "inputSourceName": "project/contracts/cross-chain/CrossChainProofValidator.sol",
  "buildInfoId": "solc-0_8_27-14a0e868dea699ae0fa107df6d243179c7b70d92"
}