{
  "_format": "hh3-artifact-1",
  "contractName": "Groth16VerifierLinkedMultiQuery10Wrapper",
  "sourceName": "contracts/lib/groth16-verifiers/Groth16VerifierLinkedMultiQuery10Wrapper.sol",
  "abi": [
    {
      "inputs": [
        {
          "internalType": "uint256",
          "name": "expected",
          "type": "uint256"
        },
        {
          "internalType": "uint256",
          "name": "actual",
          "type": "uint256"
        }
      ],
      "name": "ExpectedArrayLength",
      "type": "error"
    },
    {
      "inputs": [
        {
          "internalType": "uint256[2]",
          "name": "a",
          "type": "uint256[2]"
        },
        {
          "internalType": "uint256[2][2]",
          "name": "b",
          "type": "uint256[2][2]"
        },
        {
          "internalType": "uint256[2]",
          "name": "c",
          "type": "uint256[2]"
        },
        {
          "internalType": "uint256[]",
          "name": "signals",
          "type": "uint256[]"
        }
      ],
      "name": "verify",
      "outputs": [
        {
          "internalType": "bool",
          "name": "r",
          "type": "bool"
        }
      ],
      "stateMutability": "view",
      "type": "function"
    },
    {
      "inputs": [
        {
          "internalType": "uint256[2]",
          "name": "_pA",
          "type": "uint256[2]"
        },
        {
          "internalType": "uint256[2][2]",
          "name": "_pB",
          "type": "uint256[2][2]"
        },
        {
          "internalType": "uint256[2]",
          "name": "_pC",
          "type": "uint256[2]"
        },
        {
          "internalType": "uint256[22]",
          "name": "_pubSignals",
          "type": "uint256[22]"
        }
      ],
      "name": "verifyProof",
      "outputs": [
        {
          "internalType": "bool",
          "name": "",
          "type": "bool"
        }
      ],
      "stateMutability": "view",
      "type": "function"
    }
  ],
  "bytecode": "0x6080604052348015600e575f5ffd5b506112938061001c5f395ff3fe608060405234801561000f575f5ffd5b5060043610610034575f3560e01c80632612907c14610038578063c5a0fc2614610068575b5f5ffd5b610052600480360381019061004d9190610ea1565b610098565b60405161005f9190610f41565b60405180910390f35b610082600480360381019061007d9190610f7b565b6101cb565b60405161008f9190610f41565b60405180910390f35b5f6100a1610dd3565b601684849050146100ef576016848490506040517f4da7a8b70000000000000000000000000000000000000000000000000000000081526004016100e6929190610ff9565b60405180910390fd5b5f5f90505b6016811015610140578484828181106101105761010f611020565b5b9050602002013582826016811061012a57610129611020565b5b60200201818152505080806001019150506100f4565b503073ffffffffffffffffffffffffffffffffffffffff1663c5a0fc26888888856040518563ffffffff1660e01b815260040161018094939291906111c3565b602060405180830381865afa15801561019b573d5f5f3e3d5ffd5b505050506040513d601f19601f820116820180604052508101906101bf9190611232565b91505095945050505050565b5f610c88565b7f30644e72e131a029b85045b68181585d2833e84879b9709143e1f593f00000018110610200575f5f5260205ff35b50565b5f60405183815284602082015285604082015260408160608360076107d05a03fa915081610233575f5f5260205ff35b825160408201526020830151606082015260408360808360066107d05a03fa915081610261575f5f5260205ff35b505050505050565b5f608086015f87017f1b8662e44928367d988891173ef0ffe7d4e1e8a71e386a69615a6f7d4d540dc981527f0c2ddd50ce03725a40878dbb8722e8282a0cfda5b78faba0c0d70feb3af8f58860208201526103095f8801357f16a5aeb8d3b1a157f7e905b61bf71e4e1d12ae12def278dd8f9f2eb9e0824cae7f191a9cb6337049924f288e1f2ad47431f77191587c7fbc7c36d67244cdac7f8284610203565b61035960208801357f21d5c6204148321d9ee4b4c2ead600a29f2b12429c28eb4f5b465b5304f71b197f10ffbaf0d181159c8e14649e91d8ac7d13aaeecd8b32ef40786d3c57716ea5e284610203565b6103a960408801357f2ccda7fcb5c3b29cfa9d2a655fefa2d8cf1d0d77132fad7217041ac6ad5685eb7f235a5e237f8781d31c03f039ff1f9b02f338bf3c1a5210901d8429638b6a160c84610203565b6103f960608801357f1532908112761170092684db907bd49f1410e518cce920b546dedfabfe4b16717f2505209068a80ad88a751039a335c3f2a3ff20acd26bd332846b619e6595a08384610203565b61044960808801357f218eb7200acc62661b3754b48aaa9f7fac6e52799bad770054cb9691645a403a7f200dbc84381e42e28bb370b886d17355498e7016fd112b36b1836668de41ba3484610203565b61049860a08801357f2fcdae76c3472f2fe3f8c4ea8f651bdeb205cf7f9538357c90589c3d7773302d7e6693d50ad1243d5d3859ae71a0ef50c1f17487180fe17a72956206e65f7ac384610203565b6104e860c08801357f07cb6936db6f01429285b16c8f92038718a444e9913ccd95fa59d5e82701dcbd7f126cf171e9995eeff857bcff274fc919ab3f842bd6151e87bbd7c56b56cb554284610203565b61053860e08801357f0dea452d74e0abb0952a85225398d426609b316dd4b874931937abcd38cd1d067f24de80778e818be6c48e33dd34a9be7afe8032df59582e88ff085788806d9d9884610203565b6105896101008801357f18ec578f987a7d17e20cce7921e49a2ffc7cdd40a5f3c0cf0aee05d5ed3659947f1c2dcb5a39ae7b382b07663c492bd27b5664578749ad764cd8d4af017924ad0f84610203565b6105da6101208801357f21250b598fab4239d70cdf173e0468f578aa73e84090a75101fde6db08c065437f11186e93c3dd5cad364f0c03339f869970f2cc780e084d994914b042901da58784610203565b61062b6101408801357f2c88eb0d02203774f96d5b6ec804b8ef2eeef316dbe8bd59eb02a7a9804706f67f1ed9f3fd822ac815582567e32901e958e077b65b46840639e2f0f7a604d1279684610203565b61067c6101608801357f1ebff30a4beb94562632a7ef24beeccfb2c931a11b61cdeeed407d6796505e747f038314735243e4cbc068f4f7f1f42f87c62ccc3337e1ca165e939480ad19eb6084610203565b6106cd6101808801357f2f458a324a29e665641d5448178ee035857beaf9a551d5915d0c8517904de4c07f1c07ed9d5ab531b2c055a2c0f3e70b3dfb84a991cfd742f3647e34d37210e4ee84610203565b61071e6101a08801357f146ef85d75365b010ba75179553664339998231c26f362109640e9b751ecbbbd7f279fa494b206b744a19a21025c39b0debfacf2c88a59a4e22eb5a9a4d06702f884610203565b61076f6101c08801357f1c149208739910aba37dd8bb61f39078884efd5719ab9abc91151f1da56786d47f2ad1a380901206e32cb41861f3a28b1e17fa9982864ccb188a07f40ba73c2d7c84610203565b6107c06101e08801357f29cd79c3dae4417ab3f699478855637753a2423a05fbf9707e8fd2db307c5e147f21031241bfe7f20e68e79c32323abfa7d672fcbeabf3e7b72f6f7d40849bb71b84610203565b6108116102008801357f0e4eda6e7bd7f7d490ac072c70458f31f8c2616559dda8dba0a964723017b1517f2e99e8f7e72bd325540174188897321f2f088be516590f2f0a8ba2203d64a8e084610203565b6108626102208801357f226af2bd27c6f702c8f496b87efa91f464e794c6ed585adbb931bb6bb73d38587f19aec3ef6694eaff5d3ad0f4b70d29a6d490bb06392bb4fd93be6b487b6b9bff84610203565b6108b36102408801357f152cdf3363b19d8a29e51466cb6819e2b657dcc6f6616ace68f5d8a2db4074ca7f252c99e564952e3af639878a4d301ac835750e5a735fa3d297191ab21965e0da84610203565b6109046102608801357f08fbc40abb775b76ddb328a4ba480417de15ad63b94a16ef8932ab2d980fa7f27f026b038d50a0d1ad16c976a8e635351d8242301457fa0acd9dfe8d9ec9041ae084610203565b6109556102808801357f13a87239d185e0b138e3c50aaf3b15261d4a6bf26633d34d3ec3e43e16db39927f0ff364af762141d8819a40cb83355b28fc0d7604aec75595d49c5ba66378942584610203565b6109a66102a08801357f1c95da99a46181b23e7b45c17a79214f093b6a28e11ac57f9e47d30dd922d8377f08efaf95279142204ea1a39e2de27d5aa0d9ab8ed01a0553ad1c80fc7096167784610203565b833582527f30644e72e131a029b85045b68181585d97816a916871ca8d3c208c16d87cfd4760208501357f30644e72e131a029b85045b68181585d97816a916871ca8d3c208c16d87cfd4703066020830152843560408301526020850135606083015260408501356080830152606085013560a08301527f2d4d9aa7e302d9df41749d5507949d05dbea33fbb16c643b22f599a2be6df2e260c08301527f14bedd503c37ceb061d8ec60209fe345ce89830a19230301f076caff004d192660e08301527f0967032fcbf776d1afc985f88877f182d38480a653f2decaa9794cbc3bf3060c6101008301527f0e187847ad4c798374d0d6732bf501847dd68bc0e071241e0213bc7fc13db7ab6101208301527f304cfbd1e08a704a99f5e847d93f8c3caafddec46b7a0d379da69a4d112346a76101408301527f1739c1b1a457a8c7313123d24d2f9192f896b7c63eea05a9d57f06547ad0cec86101608301525f88015161018083015260205f018801516101a08301527f198e9393920d483a7260bfb731fb5d25f1aa493335a9e71297e485b7aef312c26101c08301527f1800deef121f1e76426a00665e5c4479674322d4f75edadd46debd5cd992f6ed6101e08301527f090689d0585ff075ec9e99ad690c3395bc4b313370b38ef355acdadcd122975b6102008301527f12c85ea5db8c6deb4aab71808dcb408fe3d1e7690c43d37b4ce6cc0166fa7daa610220830152853561024083015260208601356102608301527f0a8a746f84eea3d8537f7ee376b0592014a9227e7d08591fde758077db531d596102808301527f1e02af551f4130ba65485b611c8f780306134c1a1a42c8da6761a0f21fa8223b6102a08301527f1a030876ba15bfc98a2e2031b9daea93bc14bb2342032c051c4c2d2add5a19be6102c08301527f2e6a761b3b32fb5eb765951e57caf8241fd66ff100e2f8b5f59c75057c05ba466102e08301526020826103008460086107d05a03fa82518116935050505095945050505050565b6040516103808101604052610c9f5f8401356101d1565b610cac60208401356101d1565b610cb960408401356101d1565b610cc660608401356101d1565b610cd360808401356101d1565b610ce060a08401356101d1565b610ced60c08401356101d1565b610cfa60e08401356101d1565b610d086101008401356101d1565b610d166101208401356101d1565b610d246101408401356101d1565b610d326101608401356101d1565b610d406101808401356101d1565b610d4e6101a08401356101d1565b610d5c6101c08401356101d1565b610d6a6101e08401356101d1565b610d786102008401356101d1565b610d866102208401356101d1565b610d946102408401356101d1565b610da26102608401356101d1565b610db06102808401356101d1565b610dbe6102a08401356101d1565b610dcb818486888a610269565b805f5260205ff35b604051806102c00160405280601690602082028036833780820191505090505090565b5f5ffd5b5f5ffd5b5f5ffd5b5f81905082602060020282011115610e1d57610e1c610dfe565b5b92915050565b5f81905082604060020282011115610e3e57610e3d610dfe565b5b92915050565b5f5ffd5b5f5ffd5b5f5f83601f840112610e6157610e60610e44565b5b8235905067ffffffffffffffff811115610e7e57610e7d610e48565b5b602083019150836020820283011115610e9a57610e99610dfe565b5b9250929050565b5f5f5f5f5f6101208688031215610ebb57610eba610df6565b5b5f610ec888828901610e02565b9550506040610ed988828901610e23565b94505060c0610eea88828901610e02565b93505061010086013567ffffffffffffffff811115610f0c57610f0b610dfa565b5b610f1888828901610e4c565b92509250509295509295909350565b5f8115159050919050565b610f3b81610f27565b82525050565b5f602082019050610f545f830184610f32565b92915050565b5f81905082602060160282011115610f7557610f74610dfe565b5b92915050565b5f5f5f5f6103c08587031215610f9457610f93610df6565b5b5f610fa187828801610e02565b9450506040610fb287828801610e23565b93505060c0610fc387828801610e02565b925050610100610fd587828801610f5a565b91505092959194509250565b5f819050919050565b610ff381610fe1565b82525050565b5f60408201905061100c5f830185610fea565b6110196020830184610fea565b9392505050565b7f4e487b71000000000000000000000000000000000000000000000000000000005f52603260045260245ffd5b82818337505050565b6110626040838361104d565b5050565b5f60029050919050565b5f81905092915050565b5f819050919050565b61108f6040838361104d565b5050565b5f61109e8383611083565b60408301905092915050565b5f82905092915050565b5f604082019050919050565b6110c981611066565b6110d38184611070565b92506110de8261107a565b805f5b83811015611116576110f382846110aa565b6110fd8782611093565b9650611108836110b4565b9250506001810190506110e1565b505050505050565b5f60169050919050565b5f81905092915050565b5f819050919050565b61114481610fe1565b82525050565b5f611155838361113b565b60208301905092915050565b5f602082019050919050565b6111768161111e565b6111808184611128565b925061118b82611132565b805f5b838110156111bb5781516111a2878261114a565b96506111ad83611161565b92505060018101905061118e565b505050505050565b5f6103c0820190506111d75f830187611056565b6111e460408301866110c0565b6111f160c0830185611056565b6111ff61010083018461116d565b95945050505050565b61121181610f27565b811461121b575f5ffd5b50565b5f8151905061122c81611208565b92915050565b5f6020828403121561124757611246610df6565b5b5f6112548482850161121e565b9150509291505056fea2646970667358221220946a4be11318e131281164c0ec0810b759a212dfc433e533fa84d95dea6dfb0e64736f6c634300081b0033",
  "linkReferences": {},
  "deployedLinkReferences": {},
  "immutableReferences": {},
  "inputSourceName": "project/contracts/lib/groth16-verifiers/Groth16VerifierLinkedMultiQuery10Wrapper.sol",
  "buildInfoId": "solc-0_8_27-56f6b2247c3eb06cc68b43322501a386208fceaf"
}