{
  "_format": "hh3-artifact-1",
  "contractName": "StateLib",
  "sourceName": "contracts/lib/StateLib.sol",
  "abi": [
    {
      "anonymous": false,
      "inputs": [
        {
          "indexed": false,
          "internalType": "uint256",
          "name": "id",
          "type": "uint256"
        },
        {
          "indexed": false,
          "internalType": "uint256",
          "name": "blockN",
          "type": "uint256"
        },
        {
          "indexed": false,
          "internalType": "uint256",
          "name": "timestamp",
          "type": "uint256"
        },
        {
          "indexed": false,
          "internalType": "uint256",
          "name": "state",
          "type": "uint256"
        }
      ],
      "name": "StateUpdated",
      "type": "event"
    },
    {
      "inputs": [],
      "name": "ID_HISTORY_RETURN_LIMIT",
      "outputs": [
        {
          "internalType": "uint256",
          "name": "",
          "type": "uint256"
        }
      ],
      "stateMutability": "view",
      "type": "function"
    }
  ],
  "bytecode": "0x61148361004d600b8282823980515f1a6073146041577f4e487b71000000000000000000000000000000000000000000000000000000005f525f60045260245ffd5b305f52607381538281f3fe73000000000000000000000000000000000000000030146080604052600436106100b2575f3560e01c80637b87f75d1161007a5780637b87f75d14610196578063893e9739146101c65780639da68946146101f6578063b1abcc4d14610226578063b2a11b2b14610256578063eaa6b26c14610286576100b2565b80630e21d5fd146100b6578063419e76c1146100e657806344cfc45e146101165780634a2042181461013e57806365fe1b5b14610166575b5f5ffd5b6100d060048036038101906100cb9190610cc2565b6102a4565b6040516100dd9190610d0f565b60405180910390f35b61010060048036038101906100fb9190610cc2565b610310565b60405161010d9190610d42565b60405180910390f35b818015610121575f5ffd5b5061013c60048036038101906101379190610d5b565b610331565b005b818015610149575f5ffd5b50610164600480360381019061015f9190610d5b565b610343565b005b610180600480360381019061017b9190610dab565b61039f565b60405161018d9190610f52565b60405180910390f35b6101b060048036038101906101ab9190610f72565b6104d6565b6040516101bd9190610f52565b60405180910390f35b6101e060048036038101906101db9190610d5b565b610641565b6040516101ed9190611075565b60405180910390f35b610210600480360381019061020b9190610cc2565b6106ad565b60405161021d9190611075565b60405180910390f35b610240600480360381019061023b9190610d5b565b6107b9565b60405161024d9190610d42565b60405180910390f35b610270600480360381019061026b9190610d5b565b6107eb565b60405161027d9190610d0f565b60405180910390f35b61028e61081b565b60405161029b9190610d0f565b60405180910390f35b5f82826102b18282610310565b6102f0576040517f08c379a00000000000000000000000000000000000000000000000000000000081526004016102e7906110e8565b60405180910390fd5b845f015f8581526020019081526020015f20805490509250505092915050565b5f5f835f015f8481526020019081526020015f208054905011905092915050565b61033e8383834243610821565b505050565b61034d8383610310565b1561038d576040517f08c379a000000000000000000000000000000000000000000000000000000000815260040161038490611150565b60405180910390fd5b61039a8383835f5f610821565b505050565b606084846103ad8282610310565b6103ec576040517f08c379a00000000000000000000000000000000000000000000000000000000081526004016103e3906110e8565b60405180910390fd5b5f5f610411895f015f8a81526020019081526020015f208054905088886103e8610931565b915091505f8282610422919061119b565b67ffffffffffffffff81111561043b5761043a6111ce565b5b60405190808252806020026020018201604052801561047457816020015b610461610c22565b8152602001906001900390816104595790505b5090505f8390505b828110156104c55761048f8b8b83610a25565b82858361049c919061119b565b815181106104ad576104ac6111fb565b5b6020026020010181905250808060010191505061047c565b508095505050505050949350505050565b60608585856104e68383836107b9565b610525576040517f08c379a000000000000000000000000000000000000000000000000000000000815260040161051c90611272565b60405180910390fd5b5f896001015f8a81526020019081526020015f205f8981526020019081526020015f2090505f5f61055e83805490508a8a6103e8610931565b915091505f828261056f919061119b565b67ffffffffffffffff811115610588576105876111ce565b5b6040519080825280602002602001820160405280156105c157816020015b6105ae610c22565b8152602001906001900390816105a65790505b5090505f8390505b8281101561062d576105f78e8e8784815481106105e9576105e86111fb565b5b905f5260205f200154610a25565b828583610604919061119b565b81518110610615576106146111fb565b5b602002602001018190525080806001019150506105c9565b508097505050505050505095945050505050565b610649610c22565b8383836106578383836107b9565b610696576040517f08c379a000000000000000000000000000000000000000000000000000000000815260040161068d90611272565b60405180910390fd5b6106a1878787610bb0565b93505050509392505050565b6106b5610c22565b82826106c18282610310565b610700576040517f08c379a00000000000000000000000000000000000000000000000000000000081526004016106f7906110e8565b60405180910390fd5b5f855f015f8681526020019081526020015f2090505f8160018380549050610728919061119b565b81548110610739576107386111fb565b5b905f5260205f2090600302016040518060600160405290815f82015481526020016001820154815260200160028201548152505090506040518060e00160405280878152602001825f015181526020015f8152602001826020015181526020015f8152602001826040015181526020015f81525094505050505092915050565b5f5f846001015f8581526020019081526020015f205f8481526020019081526020015f20805490501190509392505050565b5f836001015f8481526020019081526020015f205f8381526020019081526020015f208054905090509392505050565b6103e881565b5f855f015f8681526020019081526020015f20905080604051806060016040528086815260200185815260200184815250908060018154018082558091505060019003905f5260205f2090600302015f909190919091505f820151815f015560208201518160010155604082015181600201555050856001015f8681526020019081526020015f205f8581526020019081526020015f20600182805490506108c9919061119b565b908060018154018082558091505060019003905f5260205f20015f90919091909150557f88aef4d78ad30d12a12a98e96007f5b09c1610b5364b2b99960b7d07e00a883885838587604051610921949392919061129f565b60405180910390a1505050505050565b5f5f5f8411610975576040517f08c379a000000000000000000000000000000000000000000000000000000000815260040161096c9061132c565b60405180910390fd5b828411156109b8576040517f08c379a00000000000000000000000000000000000000000000000000000000081526004016109af90611394565b60405180910390fd5b8585106109fa576040517f08c379a00000000000000000000000000000000000000000000000000000000081526004016109f1906113fc565b60405180910390fd5b5f8486610a07919061141a565b905086811115610a15578690505b8581925092505094509492505050565b610a2d610c22565b5f6001855f015f8681526020019081526020015f2080549050610a50919061119b565b831490505f855f015f8681526020019081526020015f208481548110610a7957610a786111fb565b5b905f5260205f20906003020190506040518060e00160405280868152602001825f0154815260200183610aea57875f015f8881526020019081526020015f20600187610ac5919061141a565b81548110610ad657610ad56111fb565b5b905f5260205f2090600302015f0154610aec565b5f5b81526020018260010154815260200183610b4557875f015f8881526020019081526020015f20600187610b1f919061141a565b81548110610b3057610b2f6111fb565b5b905f5260205f20906003020160010154610b47565b5f5b81526020018260020154815260200183610ba057875f015f8881526020019081526020015f20600187610b7a919061141a565b81548110610b8b57610b8a6111fb565b5b905f5260205f20906003020160020154610ba2565b5f5b815250925050509392505050565b610bb8610c22565b5f846001015f8581526020019081526020015f205f8481526020019081526020015f2090505f8160018380549050610bf0919061119b565b81548110610c0157610c006111fb565b5b905f5260205f2001549050610c17868683610a25565b925050509392505050565b6040518060e001604052805f81526020015f81526020015f81526020015f81526020015f81526020015f81526020015f81525090565b5f5ffd5b5f819050919050565b610c6e81610c5c565b8114610c78575f5ffd5b50565b5f81359050610c8981610c65565b92915050565b5f819050919050565b610ca181610c8f565b8114610cab575f5ffd5b50565b5f81359050610cbc81610c98565b92915050565b5f5f60408385031215610cd857610cd7610c58565b5b5f610ce585828601610c7b565b9250506020610cf685828601610cae565b9150509250929050565b610d0981610c8f565b82525050565b5f602082019050610d225f830184610d00565b92915050565b5f8115159050919050565b610d3c81610d28565b82525050565b5f602082019050610d555f830184610d33565b92915050565b5f5f5f60608486031215610d7257610d71610c58565b5b5f610d7f86828701610c7b565b9350506020610d9086828701610cae565b9250506040610da186828701610cae565b9150509250925092565b5f5f5f5f60808587031215610dc357610dc2610c58565b5b5f610dd087828801610c7b565b9450506020610de187828801610cae565b9350506040610df287828801610cae565b9250506060610e0387828801610cae565b91505092959194509250565b5f81519050919050565b5f82825260208201905092915050565b5f819050602082019050919050565b610e4181610c8f565b82525050565b60e082015f820151610e5b5f850182610e38565b506020820151610e6e6020850182610e38565b506040820151610e816040850182610e38565b506060820151610e946060850182610e38565b506080820151610ea76080850182610e38565b5060a0820151610eba60a0850182610e38565b5060c0820151610ecd60c0850182610e38565b50505050565b5f610ede8383610e47565b60e08301905092915050565b5f602082019050919050565b5f610f0082610e0f565b610f0a8185610e19565b9350610f1583610e29565b805f5b83811015610f45578151610f2c8882610ed3565b9750610f3783610eea565b925050600181019050610f18565b5085935050505092915050565b5f6020820190508181035f830152610f6a8184610ef6565b905092915050565b5f5f5f5f5f60a08688031215610f8b57610f8a610c58565b5b5f610f9888828901610c7b565b9550506020610fa988828901610cae565b9450506040610fba88828901610cae565b9350506060610fcb88828901610cae565b9250506080610fdc88828901610cae565b9150509295509295909350565b60e082015f820151610ffd5f850182610e38565b5060208201516110106020850182610e38565b5060408201516110236040850182610e38565b5060608201516110366060850182610e38565b5060808201516110496080850182610e38565b5060a082015161105c60a0850182610e38565b5060c082015161106f60c0850182610e38565b50505050565b5f60e0820190506110885f830184610fe9565b92915050565b5f82825260208201905092915050565b7f4964656e7469747920646f6573206e6f742065786973740000000000000000005f82015250565b5f6110d260178361108e565b91506110dd8261109e565b602082019050919050565b5f6020820190508181035f8301526110ff816110c6565b9050919050565b7f4964656e7469747920616c7265616479206578697374730000000000000000005f82015250565b5f61113a60178361108e565b915061114582611106565b602082019050919050565b5f6020820190508181035f8301526111678161112e565b9050919050565b7f4e487b71000000000000000000000000000000000000000000000000000000005f52601160045260245ffd5b5f6111a582610c8f565b91506111b083610c8f565b92508282039050818111156111c8576111c761116e565b5b92915050565b7f4e487b71000000000000000000000000000000000000000000000000000000005f52604160045260245ffd5b7f4e487b71000000000000000000000000000000000000000000000000000000005f52603260045260245ffd5b7f537461746520646f6573206e6f742065786973740000000000000000000000005f82015250565b5f61125c60148361108e565b915061126782611228565b602082019050919050565b5f6020820190508181035f83015261128981611250565b9050919050565b61129981610c8f565b82525050565b5f6080820190506112b25f830187611290565b6112bf6020830186611290565b6112cc6040830185611290565b6112d96060830184611290565b95945050505050565b7f4c656e6774682073686f756c642062652067726561746572207468616e2030005f82015250565b5f611316601f8361108e565b9150611321826112e2565b602082019050919050565b5f6020820190508181035f8301526113438161130a565b9050919050565b7f4c656e677468206c696d697420657863656564656400000000000000000000005f82015250565b5f61137e60158361108e565b91506113898261134a565b602082019050919050565b5f6020820190508181035f8301526113ab81611372565b9050919050565b7f537461727420696e646578206f7574206f6620626f756e6473000000000000005f82015250565b5f6113e660198361108e565b91506113f1826113b2565b602082019050919050565b5f6020820190508181035f830152611413816113da565b9050919050565b5f61142482610c8f565b915061142f83610c8f565b92508282019050808211156114475761144661116e565b5b9291505056fea264697066735822122053f64fc89e09e688366d7e9ea7f30633e28c0b4ff24e72e7f5f4e96bc9f05b7064736f6c634300081b0033",
  "linkReferences": {},
  "deployedLinkReferences": {},
  "immutableReferences": {},
  "inputSourceName": "project/contracts/lib/StateLib.sol",
  "buildInfoId": "solc-0_8_27-14a0e868dea699ae0fa107df6d243179c7b70d92"
}