{
  "_format": "hh-sol-artifact-1",
  "contractName": "EthIdentityValidator",
  "sourceName": "contracts/validators/auth/EthIdentityValidator.sol",
  "abi": [
    {
      "inputs": [],
      "stateMutability": "nonpayable",
      "type": "constructor"
    },
    {
      "inputs": [
        {
          "internalType": "uint256",
          "name": "length",
          "type": "uint256"
        }
      ],
      "name": "ChecksumLengthRequired",
      "type": "error"
    },
    {
      "inputs": [
        {
          "internalType": "uint256",
          "name": "length",
          "type": "uint256"
        }
      ],
      "name": "IdBytesLengthRequired",
      "type": "error"
    },
    {
      "inputs": [],
      "name": "InvalidInitialization",
      "type": "error"
    },
    {
      "inputs": [],
      "name": "NotInitializing",
      "type": "error"
    },
    {
      "inputs": [
        {
          "internalType": "address",
          "name": "owner",
          "type": "address"
        }
      ],
      "name": "OwnableInvalidOwner",
      "type": "error"
    },
    {
      "inputs": [
        {
          "internalType": "address",
          "name": "account",
          "type": "address"
        }
      ],
      "name": "OwnableUnauthorizedAccount",
      "type": "error"
    },
    {
      "inputs": [],
      "name": "SenderIsNotIdentityOwner",
      "type": "error"
    },
    {
      "anonymous": false,
      "inputs": [
        {
          "indexed": false,
          "internalType": "uint64",
          "name": "version",
          "type": "uint64"
        }
      ],
      "name": "Initialized",
      "type": "event"
    },
    {
      "anonymous": false,
      "inputs": [
        {
          "indexed": true,
          "internalType": "address",
          "name": "previousOwner",
          "type": "address"
        },
        {
          "indexed": true,
          "internalType": "address",
          "name": "newOwner",
          "type": "address"
        }
      ],
      "name": "OwnershipTransferStarted",
      "type": "event"
    },
    {
      "anonymous": false,
      "inputs": [
        {
          "indexed": true,
          "internalType": "address",
          "name": "previousOwner",
          "type": "address"
        },
        {
          "indexed": true,
          "internalType": "address",
          "name": "newOwner",
          "type": "address"
        }
      ],
      "name": "OwnershipTransferred",
      "type": "event"
    },
    {
      "inputs": [],
      "name": "VERSION",
      "outputs": [
        {
          "internalType": "string",
          "name": "",
          "type": "string"
        }
      ],
      "stateMutability": "view",
      "type": "function"
    },
    {
      "inputs": [],
      "name": "acceptOwnership",
      "outputs": [],
      "stateMutability": "nonpayable",
      "type": "function"
    },
    {
      "inputs": [
        {
          "internalType": "address",
          "name": "owner",
          "type": "address"
        }
      ],
      "name": "initialize",
      "outputs": [],
      "stateMutability": "nonpayable",
      "type": "function"
    },
    {
      "inputs": [],
      "name": "owner",
      "outputs": [
        {
          "internalType": "address",
          "name": "",
          "type": "address"
        }
      ],
      "stateMutability": "view",
      "type": "function"
    },
    {
      "inputs": [],
      "name": "pendingOwner",
      "outputs": [
        {
          "internalType": "address",
          "name": "",
          "type": "address"
        }
      ],
      "stateMutability": "view",
      "type": "function"
    },
    {
      "inputs": [],
      "name": "renounceOwnership",
      "outputs": [],
      "stateMutability": "nonpayable",
      "type": "function"
    },
    {
      "inputs": [
        {
          "internalType": "bytes4",
          "name": "interfaceId",
          "type": "bytes4"
        }
      ],
      "name": "supportsInterface",
      "outputs": [
        {
          "internalType": "bool",
          "name": "",
          "type": "bool"
        }
      ],
      "stateMutability": "view",
      "type": "function"
    },
    {
      "inputs": [
        {
          "internalType": "address",
          "name": "newOwner",
          "type": "address"
        }
      ],
      "name": "transferOwnership",
      "outputs": [],
      "stateMutability": "nonpayable",
      "type": "function"
    },
    {
      "inputs": [
        {
          "internalType": "address",
          "name": "sender",
          "type": "address"
        },
        {
          "internalType": "bytes",
          "name": "proof",
          "type": "bytes"
        },
        {
          "internalType": "bytes",
          "name": "params",
          "type": "bytes"
        }
      ],
      "name": "verify",
      "outputs": [
        {
          "internalType": "uint256",
          "name": "",
          "type": "uint256"
        },
        {
          "components": [
            {
              "internalType": "string",
              "name": "name",
              "type": "string"
            },
            {
              "internalType": "uint256",
              "name": "value",
              "type": "uint256"
            }
          ],
          "internalType": "struct IAuthValidator.AuthResponseField[]",
          "name": "",
          "type": "tuple[]"
        }
      ],
      "stateMutability": "view",
      "type": "function"
    },
    {
      "inputs": [],
      "name": "version",
      "outputs": [
        {
          "internalType": "string",
          "name": "",
          "type": "string"
        }
      ],
      "stateMutability": "pure",
      "type": "function"
    }
  ],
  "bytecode": "0x608060405234801561001057600080fd5b5061001f61002460201b60201c565b61018e565b600061003461012860201b60201c565b90508060000160089054906101000a900460ff161561007f576040517ff92ee8a900000000000000000000000000000000000000000000000000000000815260040160405180910390fd5b67ffffffffffffffff80168160000160009054906101000a900467ffffffffffffffff1667ffffffffffffffff16146101255767ffffffffffffffff8160000160006101000a81548167ffffffffffffffff021916908367ffffffffffffffff1602179055507fc7f505b2f371ae2175ee4913f4499e1f2633a7b5936321eed1cdaeb6115181d267ffffffffffffffff60405161011c9190610173565b60405180910390a15b50565b60007ff0c57e16840df040f15088dc2f81fe391c3923bec73e23a9662efc9c229c6a00905090565b600067ffffffffffffffff82169050919050565b61016d81610150565b82525050565b60006020820190506101886000830184610164565b92915050565b611a428061019d6000396000f3fe608060405234801561001057600080fd5b506004361061009e5760003560e01c80638da5cb5b116100665780638da5cb5b14610136578063c4d66de814610154578063e30c397814610170578063f2fde38b1461018e578063ffa1ad74146101aa5761009e565b806301ffc9a7146100a357806354fd4d50146100d35780635ade6633146100f1578063715018a61461012257806379ba50971461012c575b600080fd5b6100bd60048036038101906100b8919061103a565b6101c8565b6040516100ca9190611082565b60405180910390f35b6100db610232565b6040516100e8919061112d565b60405180910390f35b61010b60048036038101906101069190611212565b61026f565b604051610119929190611418565b60405180910390f35b61012a6102f5565b005b610134610309565b005b61013e610398565b60405161014b9190611457565b60405180910390f35b61016e60048036038101906101699190611472565b6103d0565b005b61017861055f565b6040516101859190611457565b60405180910390f35b6101a860048036038101906101a39190611472565b610597565b005b6101b2610653565b6040516101bf919061112d565b60405180910390f35b60007f01ffc9a7000000000000000000000000000000000000000000000000000000007bffffffffffffffffffffffffffffffffffffffffffffffffffffffff1916827bffffffffffffffffffffffffffffffffffffffffffffffffffffffff1916149050919050565b60606040518060400160405280600581526020017f312e302e30000000000000000000000000000000000000000000000000000000815250905090565b600060606000868681019061028491906114cb565b9050610290818961068c565b80600067ffffffffffffffff8111156102ac576102ab6114f8565b5b6040519080825280602002602001820160405280156102e557816020015b6102d2610fbe565b8152602001906001900390816102ca5790505b5092509250509550959350505050565b6102fd6106e6565b610307600061076d565b565b60006103136107ad565b90508073ffffffffffffffffffffffffffffffffffffffff1661033461055f565b73ffffffffffffffffffffffffffffffffffffffff161461038c57806040517f118cdaa70000000000000000000000000000000000000000000000000000000081526004016103839190611457565b60405180910390fd5b6103958161076d565b50565b6000806103a36107b5565b90508060000160009054906101000a900473ffffffffffffffffffffffffffffffffffffffff1691505090565b60006103da6107dd565b905060008160000160089054906101000a900460ff1615905060008260000160009054906101000a900467ffffffffffffffff1690506000808267ffffffffffffffff161480156104285750825b9050600060018367ffffffffffffffff1614801561045d575060003073ffffffffffffffffffffffffffffffffffffffff163b145b90508115801561046b575080155b156104a2576040517ff92ee8a900000000000000000000000000000000000000000000000000000000815260040160405180910390fd5b60018560000160006101000a81548167ffffffffffffffff021916908367ffffffffffffffff16021790555083156104f25760018560000160086101000a81548160ff0219169083151502179055505b6104fb86610805565b83156105575760008560000160086101000a81548160ff0219169083151502179055507fc7f505b2f371ae2175ee4913f4499e1f2633a7b5936321eed1cdaeb6115181d2600160405161054e9190611580565b60405180910390a15b505050505050565b60008061056a610819565b90508060000160009054906101000a900473ffffffffffffffffffffffffffffffffffffffff1691505090565b61059f6106e6565b60006105a9610819565b9050818160000160006101000a81548173ffffffffffffffffffffffffffffffffffffffff021916908373ffffffffffffffffffffffffffffffffffffffff1602179055508173ffffffffffffffffffffffffffffffffffffffff1661060d610398565b73ffffffffffffffffffffffffffffffffffffffff167f38d16b8cac22d99fc7c124b9cd0de2d3fa1faef420bfe791d8c362d765e2270060405160405180910390a35050565b6040518060400160405280600581526020017f312e302e3000000000000000000000000000000000000000000000000000000081525081565b600061069783610841565b905060006106a58284610864565b90508381146106e0576040517f5dc09cc200000000000000000000000000000000000000000000000000000000815260040160405180910390fd5b50505050565b6106ee6107ad565b73ffffffffffffffffffffffffffffffffffffffff1661070c610398565b73ffffffffffffffffffffffffffffffffffffffff161461076b5761072f6107ad565b6040517f118cdaa70000000000000000000000000000000000000000000000000000000081526004016107629190611457565b60405180910390fd5b565b6000610777610819565b90508060000160006101000a81549073ffffffffffffffffffffffffffffffffffffffff02191690556107a98261088d565b5050565b600033905090565b60007f9016d09d72d40fdae2fd8ceac6b6234c7706214fd39c1cd1e609a0528c199300905090565b60007ff0c57e16840df040f15088dc2f81fe391c3923bec73e23a9662efc9c229c6a00905090565b61080d610964565b610816816109a4565b50565b60007f237e158222e3e6968b72b9db0d8043aacf074ad9f650f0d1606b4d82ee432c00905090565b600061085461084f83610a2a565b610b76565b61085d90611604565b9050919050565b60008061087083610bd3565b90506108848461087f83610a2a565b610bf3565b91505092915050565b60006108976107b5565b905060008160000160009054906101000a900473ffffffffffffffffffffffffffffffffffffffff169050828260000160006101000a81548173ffffffffffffffffffffffffffffffffffffffff021916908373ffffffffffffffffffffffffffffffffffffffff1602179055508273ffffffffffffffffffffffffffffffffffffffff168173ffffffffffffffffffffffffffffffffffffffff167f8be0079c531659141344cd1fd0a4f28419497f9722a3daafe3b4186f6b6457e060405160405180910390a3505050565b61096c610d00565b6109a2576040517fd7e6bcf800000000000000000000000000000000000000000000000000000000815260040160405180910390fd5b565b6109ac610964565b600073ffffffffffffffffffffffffffffffffffffffff168173ffffffffffffffffffffffffffffffffffffffff1603610a1e5760006040517f1e4fbdf7000000000000000000000000000000000000000000000000000000008152600401610a159190611457565b60405180910390fd5b610a278161076d565b50565b600081905060087eff00ff00ff00ff00ff00ff00ff00ff00ff00ff00ff00ff00ff00ff00ff00ff8216901b60087fff00ff00ff00ff00ff00ff00ff00ff00ff00ff00ff00ff00ff00ff00ff00ff008316901c17905060107dffff0000ffff0000ffff0000ffff0000ffff0000ffff0000ffff0000ffff8216901b60107fffff0000ffff0000ffff0000ffff0000ffff0000ffff0000ffff0000ffff00008316901c17905060207bffffffff00000000ffffffff00000000ffffffff00000000ffffffff8216901b60207fffffffff00000000ffffffff00000000ffffffff00000000ffffffff000000008316901c179050604077ffffffffffffffff0000000000000000ffffffffffffffff8216901b60407fffffffffffffffff0000000000000000ffffffffffffffff00000000000000008316901c179050608081901b608082901c179050919050565b6060602067ffffffffffffffff811115610b9357610b926114f8565b5b6040519080825280601f01601f191660200182016040528015610bc55781602001600182028036833780820191505090505b509050816020820152919050565b60008173ffffffffffffffffffffffffffffffffffffffff169050919050565b600080610c07610c0284610a2a565b610b76565b90506000610c2482601b8451610c1d919061169a565b601b610d20565b90506000610c5186604051602001610c3c91906116ef565b60405160208183030381529060405283610d36565b90506000610c66610c6183610d4a565b610de1565b9050600081604051602001610c7b919061174e565b60405160208183030381529060405290506000610c988483610d36565b9050601f815114610ce157601f6040517f33b0459b000000000000000000000000000000000000000000000000000000008152600401610cd891906117a4565b60405180910390fd5b610cf2610ced82610e00565b610a2a565b965050505050505092915050565b6000610d0a6107dd565b60000160089054906101000a900460ff16905090565b6060610d2d848484610e16565b90509392505050565b6060610d428383610f34565b905092915050565b6000601d825114610d9357601d6040517f03c4ee2b000000000000000000000000000000000000000000000000000000008152600401610d8a91906117fa565b60405180910390fd5b60005b8251811015610ddb57828181518110610db257610db1611815565b5b602001015160f81c60f81b60f81c60ff1682610dce9190611844565b9150806001019050610d96565b50919050565b600081905060088161ffff16901b60088261ffff16901c179050919050565b600081610e0c90611899565b60001c9050919050565b606081601f83610e269190611900565b1015610e67576040517f08c379a0000000000000000000000000000000000000000000000000000000008152600401610e5e90611980565b60405180910390fd5b8183610e739190611900565b84511015610eb6576040517f08c379a0000000000000000000000000000000000000000000000000000000008152600401610ead906119ec565b60405180910390fd5b6060821560008114610ed75760405191506000825260208201604052610f28565b6040519150601f8416801560200281840101858101878315602002848b0101015b81831015610f155780518352602083019250602081019050610ef8565b50868552601f19601f8301166040525050505b50809150509392505050565b6060806040519050835180825260208201818101602087015b81831015610f6a5780518352602083019250602081019050610f4d565b50855192508351830184528091508282019050602086015b81831015610f9f5780518352602083019250602081019050610f82565b50601f19601f8851850115830101166040525050508091505092915050565b604051806040016040528060608152602001600081525090565b600080fd5b600080fd5b60007fffffffff0000000000000000000000000000000000000000000000000000000082169050919050565b61101781610fe2565b811461102257600080fd5b50565b6000813590506110348161100e565b92915050565b6000602082840312156110505761104f610fd8565b5b600061105e84828501611025565b91505092915050565b60008115159050919050565b61107c81611067565b82525050565b60006020820190506110976000830184611073565b92915050565b600081519050919050565b600082825260208201905092915050565b60005b838110156110d75780820151818401526020810190506110bc565b60008484015250505050565b6000601f19601f8301169050919050565b60006110ff8261109d565b61110981856110a8565b93506111198185602086016110b9565b611122816110e3565b840191505092915050565b6000602082019050818103600083015261114781846110f4565b905092915050565b600073ffffffffffffffffffffffffffffffffffffffff82169050919050565b600061117a8261114f565b9050919050565b61118a8161116f565b811461119557600080fd5b50565b6000813590506111a781611181565b92915050565b600080fd5b600080fd5b600080fd5b60008083601f8401126111d2576111d16111ad565b5b8235905067ffffffffffffffff8111156111ef576111ee6111b2565b5b60208301915083600182028301111561120b5761120a6111b7565b5b9250929050565b60008060008060006060868803121561122e5761122d610fd8565b5b600061123c88828901611198565b955050602086013567ffffffffffffffff81111561125d5761125c610fdd565b5b611269888289016111bc565b9450945050604086013567ffffffffffffffff81111561128c5761128b610fdd565b5b611298888289016111bc565b92509250509295509295909350565b6000819050919050565b6112ba816112a7565b82525050565b600081519050919050565b600082825260208201905092915050565b6000819050602082019050919050565b600082825260208201905092915050565b60006113088261109d565b61131281856112ec565b93506113228185602086016110b9565b61132b816110e3565b840191505092915050565b61133f816112a7565b82525050565b6000604083016000830151848203600086015261136282826112fd565b91505060208301516113776020860182611336565b508091505092915050565b600061138e8383611345565b905092915050565b6000602082019050919050565b60006113ae826112c0565b6113b881856112cb565b9350836020820285016113ca856112dc565b8060005b8581101561140657848403895281516113e78582611382565b94506113f283611396565b925060208a019950506001810190506113ce565b50829750879550505050505092915050565b600060408201905061142d60008301856112b1565b818103602083015261143f81846113a3565b90509392505050565b6114518161116f565b82525050565b600060208201905061146c6000830184611448565b92915050565b60006020828403121561148857611487610fd8565b5b600061149684828501611198565b91505092915050565b6114a8816112a7565b81146114b357600080fd5b50565b6000813590506114c58161149f565b92915050565b6000602082840312156114e1576114e0610fd8565b5b60006114ef848285016114b6565b91505092915050565b7f4e487b7100000000000000000000000000000000000000000000000000000000600052604160045260246000fd5b6000819050919050565b600067ffffffffffffffff82169050919050565b6000819050919050565b600061156a61156561156084611527565b611545565b611531565b9050919050565b61157a8161154f565b82525050565b60006020820190506115956000830184611571565b92915050565b600081519050919050565b6000819050602082019050919050565b60007fffff00000000000000000000000000000000000000000000000000000000000082169050919050565b60006115ee82516115b6565b80915050919050565b600082821b905092915050565b600061160f8261159b565b82611619846115a6565b9050611624816115e2565b925060028210156116645761165f7fffff000000000000000000000000000000000000000000000000000000000000836002036008026115f7565b831692505b5050919050565b7f4e487b7100000000000000000000000000000000000000000000000000000000600052601160045260246000fd5b60006116a5826112a7565b91506116b0836112a7565b92508282039050818111156116c8576116c761166b565b5b92915050565b6000819050919050565b6116e96116e4826115b6565b6116ce565b82525050565b60006116fb82846116d8565b60028201915081905092915050565b600061ffff82169050919050565b60008160f01b9050919050565b600061173082611718565b9050919050565b6117486117438261170a565b611725565b82525050565b600061175a8284611737565b60028201915081905092915050565b6000819050919050565b600061178e61178961178484611769565b611545565b6112a7565b9050919050565b61179e81611773565b82525050565b60006020820190506117b96000830184611795565b92915050565b6000819050919050565b60006117e46117df6117da846117bf565b611545565b6112a7565b9050919050565b6117f4816117c9565b82525050565b600060208201905061180f60008301846117eb565b92915050565b7f4e487b7100000000000000000000000000000000000000000000000000000000600052603260045260246000fd5b600061184f8261170a565b915061185a8361170a565b9250828201905061ffff8111156118745761187361166b565b5b92915050565b6000819050919050565b6000611890825161187a565b80915050919050565b60006118a48261159b565b826118ae846115a6565b90506118b981611884565b925060208210156118f9576118f47fffffffffffffffffffffffffffffffffffffffffffffffffffffffffffffffff836020036008026115f7565b831692505b5050919050565b600061190b826112a7565b9150611916836112a7565b925082820190508082111561192e5761192d61166b565b5b92915050565b7f736c6963655f6f766572666c6f77000000000000000000000000000000000000600082015250565b600061196a600e836110a8565b915061197582611934565b602082019050919050565b600060208201905081810360008301526119998161195d565b9050919050565b7f736c6963655f6f75744f66426f756e6473000000000000000000000000000000600082015250565b60006119d66011836110a8565b91506119e1826119a0565b602082019050919050565b60006020820190508181036000830152611a05816119c9565b905091905056fea264697066735822122085c62a00751d33f04fc6d02680741bb8690b3ff0127c9e4ce8e700fda77729fb64736f6c634300081b0033",
  "linkReferences": {},
  "deployedLinkReferences": {}
}