{
  "_format": "hh3-artifact-1",
  "contractName": "VerifierLib",
  "sourceName": "contracts/lib/VerifierLib.sol",
  "abi": [
    {
      "inputs": [
        {
          "internalType": "string",
          "name": "authMethod",
          "type": "string"
        }
      ],
      "name": "AuthMethodAlreadyExists",
      "type": "error"
    },
    {
      "inputs": [
        {
          "internalType": "string",
          "name": "authMethod",
          "type": "string"
        }
      ],
      "name": "AuthMethodNotFound",
      "type": "error"
    },
    {
      "inputs": [
        {
          "internalType": "uint256",
          "name": "groupId",
          "type": "uint256"
        }
      ],
      "name": "GroupIdAlreadyExists",
      "type": "error"
    },
    {
      "inputs": [
        {
          "internalType": "uint256",
          "name": "groupId",
          "type": "uint256"
        }
      ],
      "name": "GroupIdNotFound",
      "type": "error"
    },
    {
      "inputs": [],
      "name": "GroupIdNotValid",
      "type": "error"
    },
    {
      "inputs": [
        {
          "internalType": "uint256",
          "name": "groupId",
          "type": "uint256"
        }
      ],
      "name": "GroupMustHaveAtLeastTwoRequests",
      "type": "error"
    },
    {
      "inputs": [],
      "name": "LinkIDNotTheSameForGroupedRequests",
      "type": "error"
    },
    {
      "inputs": [
        {
          "internalType": "uint256",
          "name": "groupId",
          "type": "uint256"
        }
      ],
      "name": "MissingUserIDInGroupOfRequests",
      "type": "error"
    },
    {
      "inputs": [
        {
          "internalType": "uint256",
          "name": "requestId",
          "type": "uint256"
        }
      ],
      "name": "MissingUserIDInRequest",
      "type": "error"
    },
    {
      "inputs": [
        {
          "internalType": "uint256",
          "name": "multiRequestId",
          "type": "uint256"
        }
      ],
      "name": "MultiRequestIdAlreadyExists",
      "type": "error"
    },
    {
      "inputs": [
        {
          "internalType": "uint256",
          "name": "multiRequestId",
          "type": "uint256"
        }
      ],
      "name": "MultiRequestIdNotFound",
      "type": "error"
    },
    {
      "inputs": [
        {
          "internalType": "uint256",
          "name": "expectedMultiRequestId",
          "type": "uint256"
        },
        {
          "internalType": "uint256",
          "name": "multiRequestId",
          "type": "uint256"
        }
      ],
      "name": "MultiRequestIdNotValid",
      "type": "error"
    },
    {
      "inputs": [
        {
          "internalType": "uint256",
          "name": "nullifierSessionID",
          "type": "uint256"
        }
      ],
      "name": "NullifierSessionIDAlreadyExists",
      "type": "error"
    },
    {
      "inputs": [
        {
          "internalType": "uint256",
          "name": "requestId",
          "type": "uint256"
        },
        {
          "internalType": "address",
          "name": "sender",
          "type": "address"
        }
      ],
      "name": "ProofAlreadyVerified",
      "type": "error"
    },
    {
      "inputs": [
        {
          "internalType": "uint256",
          "name": "requestId",
          "type": "uint256"
        },
        {
          "internalType": "uint256",
          "name": "userId",
          "type": "uint256"
        }
      ],
      "name": "ProofByUserIdAlreadyVerified",
      "type": "error"
    },
    {
      "inputs": [
        {
          "internalType": "uint256",
          "name": "requestId",
          "type": "uint256"
        },
        {
          "internalType": "uint256",
          "name": "userId",
          "type": "uint256"
        }
      ],
      "name": "ProofByUserIdIsNotVerified",
      "type": "error"
    },
    {
      "inputs": [
        {
          "internalType": "uint256",
          "name": "requestId",
          "type": "uint256"
        },
        {
          "internalType": "address",
          "name": "sender",
          "type": "address"
        }
      ],
      "name": "ProofIsNotVerified",
      "type": "error"
    },
    {
      "inputs": [
        {
          "internalType": "uint256",
          "name": "requestId",
          "type": "uint256"
        }
      ],
      "name": "RequestIdAlreadyExists",
      "type": "error"
    },
    {
      "inputs": [
        {
          "internalType": "uint256",
          "name": "requestId",
          "type": "uint256"
        }
      ],
      "name": "RequestIdNotFound",
      "type": "error"
    },
    {
      "inputs": [
        {
          "internalType": "uint256",
          "name": "expectedRequestId",
          "type": "uint256"
        },
        {
          "internalType": "uint256",
          "name": "requestId",
          "type": "uint256"
        }
      ],
      "name": "RequestIdNotValid",
      "type": "error"
    },
    {
      "inputs": [],
      "name": "RequestIdTypeNotValid",
      "type": "error"
    },
    {
      "inputs": [],
      "name": "RequestIdUsesReservedBytes",
      "type": "error"
    },
    {
      "inputs": [
        {
          "internalType": "uint256",
          "name": "requestId",
          "type": "uint256"
        }
      ],
      "name": "RequestShouldNotHaveAGroup",
      "type": "error"
    },
    {
      "inputs": [
        {
          "internalType": "uint256",
          "name": "requestId",
          "type": "uint256"
        },
        {
          "internalType": "address",
          "name": "sender",
          "type": "address"
        },
        {
          "internalType": "string",
          "name": "responseFieldName",
          "type": "string"
        }
      ],
      "name": "ResponseFieldAlreadyExists",
      "type": "error"
    },
    {
      "inputs": [
        {
          "internalType": "uint256",
          "name": "requestId",
          "type": "uint256"
        },
        {
          "internalType": "uint256",
          "name": "userId",
          "type": "uint256"
        },
        {
          "internalType": "string",
          "name": "responseFieldName",
          "type": "string"
        }
      ],
      "name": "ResponseFieldByUserIdAlreadyExists",
      "type": "error"
    },
    {
      "inputs": [
        {
          "internalType": "uint256",
          "name": "requestId",
          "type": "uint256"
        },
        {
          "internalType": "uint256",
          "name": "userId",
          "type": "uint256"
        },
        {
          "internalType": "string",
          "name": "responseFieldName",
          "type": "string"
        }
      ],
      "name": "ResponseFieldByUserIdDoesNotExist",
      "type": "error"
    },
    {
      "inputs": [
        {
          "internalType": "uint256",
          "name": "requestId",
          "type": "uint256"
        },
        {
          "internalType": "address",
          "name": "sender",
          "type": "address"
        },
        {
          "internalType": "string",
          "name": "responseFieldName",
          "type": "string"
        }
      ],
      "name": "ResponseFieldDoesNotExist",
      "type": "error"
    },
    {
      "inputs": [
        {
          "internalType": "uint256",
          "name": "userIDFromAuth",
          "type": "uint256"
        },
        {
          "internalType": "uint256",
          "name": "userIDFromResponse",
          "type": "uint256"
        }
      ],
      "name": "UserIDMismatch",
      "type": "error"
    },
    {
      "inputs": [
        {
          "internalType": "uint256",
          "name": "requestVerifierID",
          "type": "uint256"
        },
        {
          "internalType": "uint256",
          "name": "expectedVerifierID",
          "type": "uint256"
        }
      ],
      "name": "VerifierIDIsNotValid",
      "type": "error"
    },
    {
      "inputs": [
        {
          "internalType": "uint256",
          "name": "requestId",
          "type": "uint256"
        },
        {
          "internalType": "bytes",
          "name": "requestParams",
          "type": "bytes"
        },
        {
          "internalType": "address",
          "name": "requestOwner",
          "type": "address"
        }
      ],
      "name": "checkRequestIdCorrectness",
      "outputs": [],
      "stateMutability": "pure",
      "type": "function"
    },
    {
      "inputs": [
        {
          "internalType": "uint256",
          "name": "userIDFromAuthResponse",
          "type": "uint256"
        },
        {
          "components": [
            {
              "internalType": "string",
              "name": "name",
              "type": "string"
            },
            {
              "internalType": "uint256",
              "name": "value",
              "type": "uint256"
            },
            {
              "internalType": "bytes",
              "name": "rawValue",
              "type": "bytes"
            }
          ],
          "internalType": "struct IRequestValidator.ResponseField[]",
          "name": "signals",
          "type": "tuple[]"
        }
      ],
      "name": "checkUserIDMatch",
      "outputs": [],
      "stateMutability": "pure",
      "type": "function"
    },
    {
      "inputs": [
        {
          "components": [
            {
              "internalType": "string",
              "name": "name",
              "type": "string"
            },
            {
              "internalType": "uint256",
              "name": "value",
              "type": "uint256"
            },
            {
              "internalType": "bytes",
              "name": "rawValue",
              "type": "bytes"
            }
          ],
          "internalType": "struct IRequestValidator.ResponseField[]",
          "name": "signals",
          "type": "tuple[]"
        }
      ],
      "name": "isEmbeddedAuthVerified",
      "outputs": [
        {
          "internalType": "bool",
          "name": "",
          "type": "bool"
        },
        {
          "internalType": "uint256",
          "name": "",
          "type": "uint256"
        }
      ],
      "stateMutability": "pure",
      "type": "function"
    },
    {
      "inputs": [
        {
          "components": [
            {
              "internalType": "string",
              "name": "name",
              "type": "string"
            },
            {
              "internalType": "uint256",
              "name": "value",
              "type": "uint256"
            },
            {
              "internalType": "bytes",
              "name": "rawValue",
              "type": "bytes"
            }
          ],
          "internalType": "struct IRequestValidator.ResponseField[]",
          "name": "signals",
          "type": "tuple[]"
        }
      ],
      "name": "userID",
      "outputs": [
        {
          "internalType": "uint256",
          "name": "",
          "type": "uint256"
        }
      ],
      "stateMutability": "pure",
      "type": "function"
    }
  ],
  "bytecode": "0x6146d7610034600b8282823980515f1a607314602857634e487b7160e01b5f525f60045260245ffd5b305f52607381538281f3fe73000000000000000000000000000000000000000030146080604052600436106101d1575f3560e01c80636b365dd311610109578063b39ceffb116100a9578063c6b876bc11610079578063c6b876bc146104a6578063cd9800df146104c5578063f03de287146104d8578063fd3ef47f146104eb575f5ffd5b8063b39ceffb14610436578063b67a803114610449578063bd4f4f5c14610473578063c2fba8e014610486575f5ffd5b80638f6174d3116100e45780638f6174d3146103c357806390db89ee146103e357806393058e9814610404578063a597138914610423575f5ffd5b80636b365dd3146103715780636d86f1fc146103915780637e832790146103a4575f5ffd5b806333961c08116101745780633e08b6f31161014f5780633e08b6f3146102fb5780635747df3d1461030e57806368957bf2146103335780636ae9427c14610352575f5ffd5b806333961c08146102965780633397a11e146102bb57806339048d33146102db575f5ffd5b806311bdf5cd116101af57806311bdf5cd14610231578063152dd00b146102445780631ec315121461026457806330f3b81e14610277575f5ffd5b806304ade6d7146101d55780630507338e146101fd57806307568de31461021e575b5f5ffd5b6101e86101e3366004613384565b61050b565b60405190151581526020015b60405180910390f35b818015610208575f5ffd5b5061021c6102173660046133a4565b610530565b005b61021c61022c366004613448565b610614565b61021c61023f3660046133a4565b6106fa565b610257610252366004613384565b6107c4565b6040516101f4919061350a565b61021c610272366004613573565b61098c565b818015610282575f5ffd5b5061021c61029136600461359c565b610a03565b6101e86102a4366004613384565b5f8181526006929092016020526040909120541490565b6102ce6102c9366004613384565b610d71565b6040516101f4919061367c565b6102ee6102e936600461368e565b610f25565b6040516101f49190613702565b61021c61030936600461368e565b610fa7565b6101e861031c366004613384565b5f9081526004919091016020526040902054151590565b81801561033e575f5ffd5b5061021c61034d366004613765565b611025565b81801561035d575f5ffd5b5061021c61036c3660046137b4565b611116565b61038461037f366004613384565b6111b9565b6040516101f491906137fb565b6101e861039f36600461395a565b611405565b8180156103af575f5ffd5b5061021c6103be366004613aae565b611445565b6103d66103d1366004613573565b6118da565b6040516101f49190613b15565b6103f66103f1366004613b27565b611a4f565b6040519081526020016101f4565b81801561040f575f5ffd5b5061021c61041e366004613b60565b611afc565b6103f6610431366004613b9e565b611c8d565b6101e861044436600461368e565b611e25565b61045c610457366004613b27565b611e95565b6040805192151583526020830191909152016101f4565b6103d6610481366004613bf3565b611f4a565b6104996104943660046137b4565b611faf565b6040516101f49190613c28565b8180156104b1575f5ffd5b5061021c6104c03660046137b4565b612127565b6103f66104d3366004613c6d565b61219e565b61021c6104e6366004613cb3565b6122f3565b6104fe6104f936600461368e565b6123d8565b6040516101f49190613cec565b5f8181526001808401602052604090912001546001600160a01b031615155b92915050565b5f6105416060830160408401613d74565b6001600160a01b031663ed4b50a861055c6060850185613d8f565b6040518363ffffffff1660e01b8152600401610579929190613df9565b5f60405180830381865afa158015610593573d5f5f3e3d5ffd5b505050506040513d5f823e601f3d908101601f191682016040526105ba9190810190613e8e565b602001519050801561060f575f818152600a84016020526040902054156105fc5760405163ca77741d60e01b8152600481018290526024015b60405180910390fd5b5f818152600a8401602052604090208190555b505050565b5f61061f8560f01c90565b905060028161ffff16106106465760405163592542d960e01b815260040160405180910390fd5b64ffffffffff60c886901c16156106705760405163226548cb60e21b815260040160405180910390fd5b8061ffff166001036106f3575f84848460405160200161069293929190613f21565b60408051601f19818403018152919052805160209091012090505f6106c46001600160c01b038316600160f01b613f5b565b90508087146106f057604051635889cec760e11b815260048101829052602481018890526044016105f3565b50505b5050505050565b5f61070b6060830160408401613d74565b6001600160a01b031663ed4b50a86107266060850185613d8f565b6040518363ffffffff1660e01b8152600401610743929190613f6e565b5f60405180830381865afa15801561075d573d5f5f3e3d5ffd5b505050506040513d5f823e601f3d908101601f191682016040526107849190810190613e8e565b602001519050801561060f5782600b0154811461060f57600b830154604051630458986560e11b81526105f3918391600401918252602082015260400190565b6107ee60405180608001604052805f81526020016060815260200160608152602001606081525090565b5f828152600684016020526040902054839083906001908214610827576040516320bf2a8f60e21b8152600481018390526024016105f3565b5f8581526006870160209081526040918290208251608081018452815481526001820180548551818602810186019096528086529194929385810193929083018282801561089257602002820191905f5260205f20905b81548152602001906001019080831161087e575b50505050508152602001600282018054806020026020016040519081016040528092919081815260200182805480156108e857602002820191905f5260205f20905b8154815260200190600101908083116108d4575b5050505050815260200160038201805461090190613fae565b80601f016020809104026020016040519081016040528092919081815260200182805461092d90613fae565b80156109785780601f1061094f57610100808354040283529160200191610978565b820191905f5260205f20905b81548152906001019060200180831161095b57829003601f168201915b505050505081525050935050505092915050565b610996838361050b565b6109b657604051633f88e60160e21b8152600481018390526024016105f3565b5f828152600c8401602090815260408083208484529091529020805460ff16156109fd5760405163b861d50560e01b815260048101849052602481018390526044016105f3565b50505050565b5f80826001600160401b03811115610a1d57610a1d613852565b604051908082528060200260200182016040528015610a6157816020015b604080518082019091525f8082526020820152815260200190600190039081610a3b5790505b5090505f5b83811015610d65575f858583818110610a8157610a81613fe6565b9050602002810190610a939190613ffa565b610aa4906060810190604001613d74565b6001600160a01b031663ed4b50a8878785818110610ac457610ac4613fe6565b9050602002810190610ad69190613ffa565b610ae4906060810190613d8f565b6040518363ffffffff1660e01b8152600401610b01929190614018565b5f60405180830381865afa158015610b1b573d5f5f3e3d5ffd5b505050506040513d5f823e601f3d908101601f19168201604052610b429190810190613e8e565b6020015190508015610d03575f5f610b5b8386886126af565b9150915081610c72575f83815260048a01602052604090205415610b9557604051631ece4c1b60e21b8152600481018490526024016105f3565b6005890180546001810182555f918252602080832090910185905584825260048b01905260409020888886818110610bcf57610bcf613fe6565b9050602002810190610be19190613ffa565b81546001810183555f928352602092839020913591015560408051808201909152848152908101610c3d8a8a88818110610c1d57610c1d613fe6565b9050602002810190610c2f9190613ffa565b610c3890614051565b612701565b1515815250858781518110610c5457610c54613fe6565b60200260200101819052508580610c6a906140ed565b965050610cfc565b5f83815260048a0160205260409020888886818110610c9357610c93613fe6565b9050602002810190610ca59190613ffa565b81546001810183555f92835260209092209035910155610cd0888886818110610c1d57610c1d613fe6565b15610cfc576001858281518110610ce957610ce9613fe6565b6020908102919091018101519115159101525b5050610d5c565b610d18868684818110610c1d57610c1d613fe6565b610d5c57858583818110610d2e57610d2e613fe6565b9050602002810190610d409190613ffa565b604051637a84338160e11b8152903560048201526024016105f3565b50600101610a66565b506106f3858284612795565b610d79613346565b82826001610d87838361050b565b610da757604051633f88e60160e21b8152600481018390526024016105f3565b5f866001015f8781526020019081526020015f2090506040518060a00160405280878152602001825f018054610ddc90613fae565b80601f0160208091040260200160405190810160405280929190818152602001828054610e0890613fae565b8015610e535780601f10610e2a57610100808354040283529160200191610e53565b820191905f5260205f20905b815481529060010190602001808311610e3657829003601f168201915b505050918352505060018301546001600160a01b03166020820152600283018054604090920191610e8390613fae565b80601f0160208091040260200160405190810160405280929190818152602001828054610eaf90613fae565b8015610efa5780601f10610ed157610100808354040283529160200191610efa565b820191905f5260205f20905b815481529060010190602001808311610edd57829003601f168201915b50505091835250506003909201546001600160a01b0316602090920191909152935050505092915050565b5f828152600684016020526040902054606090849084906001908214610f61576040516320bf2a8f60e21b8152600481018390526024016105f3565b5f610f6d8888886128e2565b90505f610f7b898989612dde565b905080610f9b5760405163141df12760e31b815260040160405180910390fd5b50979650505050505050565b610fb1838361050b565b610fd157604051633f88e60160e21b8152600481018390526024016105f3565b5f828152602084815260408083206001600160a01b03851684529091529020805460ff16156109fd5760405163dc08e05360e01b8152600481018490526001600160a01b03831660248201526044016105f3565b8282355f5f828152600684016020526040902054820361105b5760405163ac1e4c7760e01b8152600481018390526024016105f3565b5f6110696020870187614105565b6110766040890189614105565b8860405160200161108b959493929190614171565b60408051601f1981840301815291905280516020909101209050853581146110d057604051631ab60acd60e01b815260048101829052863560248201526044016105f3565b85355f908152600688016020526040902086906110ed8282614331565b50506007870180546001810182555f9182526020909120873591018190556106f0908890612f27565b8282828080601f0160208091040260200160405190810160405280939291908181526020018383808284375f920191909152506001925050506111598383611405565b61117857816040516303741db360e21b81526004016105f391906143f8565b600186600901868660405161118e92919061440a565b908152604051908190036020019020600201805491151560ff19909216919091179055505050505050565b5f818152600483016020526040812054606091906001600160401b038111156111e4576111e4613852565b60405190808252806020026020018201604052801561121d57816020015b61120a613346565b8152602001906001900390816112025790505b5090505f5b5f8481526004860160205260409020548110156113fd575f848152600486016020526040812080548390811061125a5761125a613fe6565b905f5260205f20015490505f866001015f8381526020019081526020015f2090506040518060a00160405280838152602001825f01805461129a90613fae565b80601f01602080910402602001604051908101604052809291908181526020018280546112c690613fae565b80156113115780601f106112e857610100808354040283529160200191611311565b820191905f5260205f20905b8154815290600101906020018083116112f457829003601f168201915b505050918352505060018301546001600160a01b0316602082015260028301805460409092019161134190613fae565b80601f016020809104026020016040519081016040528092919081815260200182805461136d90613fae565b80156113b85780601f1061138f576101008083540402835291602001916113b8565b820191905f5260205f20905b81548152906001019060200180831161139b57829003601f168201915b505050918352505060038301546001600160a01b031660209091015284518590859081106113e8576113e8613fe6565b60209081029190910101525050600101611222565b509392505050565b5f5f6001600160a01b031683600901836040516114229190614419565b908152604051908190036020019020546001600160a01b03161415905092915050565b61144f858561050b565b61146f57604051633f88e60160e21b8152600481018590526024016105f3565b5f848152602086815260408083206001600160a01b038088168552908352818420805460ff191660019081178255808201805482019055898652808b0190945282852090930154825163054fd4d560e41b815292519394939116916354fd4d5091600480830192869291908290030181865afa1580156114f1573d5f5f3e3d5ffd5b505050506040513d5f823e601f3d908101601f19168201604052611518919081019061442f565b600180840180549293505f92909161152f91614460565b8154811061153f5761153f613fe6565b905f5260205f20906032020190508181600301908161155e9190614473565b504260048201555f5b84518110156116d9578160020185828151811061158657611586613fe6565b60200260200101515f015160405161159e9190614419565b9081526020016040518091039020545f146115ee5787878683815181106115c7576115c7613fe6565b60200260200101515f0151604051631202ebdd60e31b81526004016105f39392919061452d565b84818151811061160057611600613fe6565b602002602001015160200151825f0186838151811061162157611621613fe6565b60200260200101515f01516040516116399190614419565b9081526020016040518091039020819055508160010185828151811061166157611661613fe6565b6020908102919091018101515182546001810184555f93845291909220019061168a9082614473565b508160010180549050826002018683815181106116a9576116a9613fe6565b60200260200101515f01516040516116c19190614419565b90815260405190819003602001902055600101611567565b5084156118d0575f878152600c8901602090815260408083208884529091528120805460ff19166001908117825580820180548201808255818552929392909161172291614460565b8154811061173257611732613fe6565b905f5260205f2090603202019050838160030190816117519190614473565b504260048201555f5b86518110156118cc578160020187828151811061177957611779613fe6565b60200260200101515f01516040516117919190614419565b9081526020016040518091039020545f146117e15789888883815181106117ba576117ba613fe6565b60200260200101515f015160405163f4b1742960e01b81526004016105f393929190614556565b8681815181106117f3576117f3613fe6565b602002602001015160200151825f0188838151811061181457611814613fe6565b60200260200101515f015160405161182c9190614419565b9081526020016040518091039020819055508160010187828151811061185457611854613fe6565b6020908102919091018101515182546001810184555f93845291909220019061187d9082614473565b5081600101805490508260020188838151811061189c5761189c613fe6565b60200260200101515f01516040516118b49190614419565b9081526040519081900360200190205560010161175a565b5050505b5050505050505050565b61190460405180608001604052805f81526020015f15158152602001606081526020015f81525090565b5f828152600c8501602090815260408083208684529091529020805460ff1615611a1357600180820180545f9261193a91614460565b8154811061194a5761194a613fe6565b905f5260205f2090603202019050604051806080016040528085815260200160011515815260200182600301805461198190613fae565b80601f01602080910402602001604051908101604052809291908181526020018280546119ad90613fae565b80156119f85780601f106119cf576101008083540402835291602001916119f8565b820191905f5260205f20905b8154815290600101906020018083116119db57829003601f168201915b50505050508152602001826004015481525092505050611a48565b60405180608001604052808481526020015f1515815260200160405180602001604052805f81525081526020015f8152509150505b9392505050565b5f805b8251811015611af4577feaa28503c24395f30163098dfa9f1e1cd296dd52252064784e65d959340073825f1b838281518110611a9057611a90613fe6565b60200260200101515f0151604051602001611aab9190614419565b6040516020818303038152906040528051906020012003611aec57828181518110611ad857611ad8613fe6565b602002602001015160200151915050919050565b600101611a52565b505f92915050565b81611b078280613d8f565b8080601f0160208091040260200160405190810160405280939291908181526020018383808284375f9201829052509250611b40915050565b611b4a8383611405565b15611b6a57816040516372a372b360e01b81526004016105f391906143f8565b60088501611b788580613d8f565b82546001810184555f938452602090932090920191611b979183614278565b506040518060600160405280856020016020810190611bb69190613d74565b6001600160a01b03168152602001611bd16040870187613d8f565b8080601f0160208091040260200160405190810160405280939291908181526020018383808284375f92019190915250505090825250600160209091015260098601611c1d8680613d8f565b604051611c2b92919061440a565b90815260405160209181900382019020825181546001600160a01b0319166001600160a01b03909116178155908201516001820190611c6a9082614473565b50604091909101516002909101805460ff19169115159190911790555050505050565b5f8484846001611c9d848461050b565b611cbd57604051633f88e60160e21b8152600481018490526024016105f3565b5f838152600c85016020908152604080832085845290915290208115611d0e57805460ff16611d0957604051630d0ad90560e41b815260048101859052602481018490526044016105f3565b611d3b565b805460ff1615611d3b5760405163b861d50560e01b815260048101859052602481018490526044016105f3565b5f898152600c8b01602090815260408083208b84529091529020600180820180549091611d6791614460565b81548110611d7757611d77613fe6565b905f5260205f20906032020160020188604051611d949190614419565b9081526020016040518091039020545f03611dc857898989604051635e26e31d60e11b81526004016105f393929190614556565b600180820180549091611dda91614460565b81548110611dea57611dea613fe6565b905f5260205f2090603202015f0188604051611e069190614419565b9081526020016040518091039020549650505050505050949350505050565b5f828152600684016020526040812054849084906001908214611e5e576040516320bf2a8f60e21b8152600481018390526024016105f3565b5f611e6a888888613201565b90508015611e8a575f611e7e898989612dde565b905080610f9b575f9150505b979650505050505050565b5f80805b8351811015611f3f577f77dbf4723b7e657d6a347bdf463068644740111c41d0cea27e25e1ff54c4b2db5f1b848281518110611ed757611ed7613fe6565b60200260200101515f0151604051602001611ef29190614419565b6040516020818303038152906040528051906020012003611f37576001848281518110611f2157611f21613fe6565b6020026020010151602001519250925050915091565b600101611e99565b505f93849350915050565b611f7460405180608001604052805f81526020015f15158152602001606081526020015f81525090565b5f828152602085815260408083206001600160a01b03871684529091529020805460ff1615611a1357600180820180545f9261193a91614460565b611fdc60405180606001604052805f6001600160a01b03168152602001606081526020015f151581525090565b8383838080601f0160208091040260200160405190810160405280939291908181526020018383808284375f9201919091525060019250505061201f8383611405565b61203e57816040516303741db360e21b81526004016105f391906143f8565b86600901868660405161205292919061440a565b9081526040805191829003602090810183206060840190925281546001600160a01b031683526001820180549184019161208b90613fae565b80601f01602080910402602001604051908101604052809291908181526020018280546120b790613fae565b80156121025780601f106120d957610100808354040283529160200191612102565b820191905f5260205f20905b8154815290600101906020018083116120e557829003601f168201915b50505091835250506002919091015460ff161515602090910152979650505050505050565b8282828080601f0160208091040260200160405190810160405280939291908181526020018383808284375f9201919091525060019250505061216a8383611405565b61218957816040516303741db360e21b81526004016105f391906143f8565b5f86600901868660405161118e92919061440a565b5f84848460016121ae848461050b565b6121ce57604051633f88e60160e21b8152600481018490526024016105f3565b5f838152602085815260408083206001600160a01b03861684529091529020811561222c57805460ff1661222757604051632e0cb61360e01b8152600481018590526001600160a01b03841660248201526044016105f3565b612261565b805460ff16156122615760405163dc08e05360e01b8152600481018590526001600160a01b03841660248201526044016105f3565b5f89815260208b815260408083206001600160a01b038c168452909152902060018082018054909161229291614460565b815481106122a2576122a2613fe6565b905f5260205f209060320201600201886040516122bf9190614419565b9081526020016040518091039020545f03611dc8578989896040516301ef312d60e41b81526004016105f39392919061452d565b5f5b815181101561060f577feaa28503c24395f30163098dfa9f1e1cd296dd52252064784e65d959340073825f1b82828151811061233357612333613fe6565b60200260200101515f015160405160200161234e9190614419565b60405160208183030381529060405280519060200120036123d05781818151811061237b5761237b613fe6565b60200260200101516020015183146123d057828282815181106123a0576123a0613fe6565b602002602001015160200151604051631bab966f60e31b81526004016105f3929190918252602082015260400190565b6001016122f5565b606083838360016123e9848461050b565b61240957604051633f88e60160e21b8152600481018490526024016105f3565b5f838152602085815260408083206001600160a01b03861684529091529020811561246757805460ff1661246257604051632e0cb61360e01b8152600481018590526001600160a01b03841660248201526044016105f3565b61249c565b805460ff161561249c5760405163dc08e05360e01b8152600481018590526001600160a01b03841660248201526044016105f3565b5f88815260208a815260408083206001600160a01b038b16845290915281206001808201805492939290916124d091614460565b815481106124e0576124e0613fe6565b905f5260205f20906032020190505f81600101805490506001600160401b0381111561250e5761250e613852565b60405190808252806020026020018201604052801561256257816020015b61254f6040518060600160405280606081526020015f8152602001606081525090565b81526020019060019003908161252c5790505b5090505f5b600183015481101561269f57604051806060016040528084600101838154811061259357612593613fe6565b905f5260205f200180546125a690613fae565b80601f01602080910402602001604051908101604052809291908181526020018280546125d290613fae565b801561261d5780601f106125f45761010080835404028352916020019161261d565b820191905f5260205f20905b81548152906001019060200180831161260057829003601f168201915b50505050508152602001845f0185600101848154811061263f5761263f613fe6565b905f5260205f20016040516126549190614574565b908152602001604051809103902054815260200160405180602001604052805f81525081525082828151811061268c5761268c613fe6565b6020908102919091010152600101612567565b509b9a5050505050505050505050565b5f80805b838110156126f157858582815181106126ce576126ce613fe6565b60200260200101515f0151036126e9576001925090506126f9565b6001016126b3565b505f5f915091505b935093915050565b6040808201518151808301835260068152651d5cd95c925160d21b6020820152915163b16a394f60e01b81525f9283926001600160a01b03169163b16a394f9161274d916004016143f8565b602060405180830381865afa925050508015612786575060408051601f3d908101601f19168201909252612783918101906145e5565b60015b1561052a575060019392505050565b5f5b818110156109fd575f8382815181106127b2576127b2613fe6565b60200260200101515f01516001600160fc1b031690508382815181106127da576127da613fe6565b60200260200101515f01518114612804576040516344e0de8560e01b815260040160405180910390fd5b6002856004015f86858151811061281d5761281d613fe6565b60200260200101515f015181526020019081526020015f208054905010156128785783828151811061285157612851613fe6565b60200260200101515f0151604051637f6d9ecf60e01b81526004016105f391815260200190565b83828151811061288a5761288a613fe6565b60200260200101516020015115155f1515036128d9578382815181106128b2576128b2613fe6565b60200260200101515f01516040516304aa0c4960e01b81526004016105f391815260200190565b50600101612797565b5f82815260068401602052604081206002810154606092901561295a575f5b6002830154811015612958575f83600201828154811061292357612923613fe6565b5f91825260208083209091015480835260048b0190915260409091205490915061294d9084613f5b565b925050600101612901565b505b60018201545f9061296c908390613f5b565b6001600160401b0381111561298357612983613852565b6040519080825280602002602001820160405280156129de57816020015b6129cb60405180608001604052805f81526020015f15158152602001606081526020015f81525090565b8152602001906001900390816129a15790505b5090505f5b6001840154811015612b9b575f846001018281548110612a0557612a05613fe6565b5f9182526020808320909101548083528b825260408084206001600160a01b038c16855283528084208151608081018352838152815460ff16151581860152825194850183528585529182019390935260608101939093528551909350909190859085908110612a7757612a77613fe6565b6020908102919091010152805460ff1615612b9157600180820180545f92612a9e91614460565b81548110612aae57612aae613fe6565b905f5260205f2090603202019050806003018054612acb90613fae565b80601f0160208091040260200160405190810160405280929190818152602001828054612af790613fae565b8015612b425780601f10612b1957610100808354040283529160200191612b42565b820191905f5260205f20905b815481529060010190602001808311612b2557829003601f168201915b5050505050858581518110612b5957612b59613fe6565b6020026020010151604001819052508060040154858581518110612b7f57612b7f613fe6565b60200260200101516060018181525050505b50506001016129e3565b505f5b6002840154811015612dd3575f846002018281548110612bc057612bc0613fe6565b5f91825260208220015491505b5f82815260048b016020526040902054811015612dc9575f82815260048b0160205260408120805483908110612c0557612c05613fe6565b5f9182526020808320909101548083528d825260408084206001600160a01b038e16855283528084208151608081018352838152815460ff161515818601528251948501835285855291820193909352606081019390935260018a01549093509091908790612c75908690613f5b565b81518110612c8557612c85613fe6565b6020908102919091010152805460ff1615612dbf57600180820180545f92612cac91614460565b81548110612cbc57612cbc613fe6565b905f5260205f2090603202019050806003018054612cd990613fae565b80601f0160208091040260200160405190810160405280929190818152602001828054612d0590613fae565b8015612d505780601f10612d2757610100808354040283529160200191612d50565b820191905f5260205f20905b815481529060010190602001808311612d3357829003601f168201915b50505060018c01548a9250612d6791508790613f5b565b81518110612d7757612d77613fe6565b602090810291909101015160400152600481015460018a01548890612d9d908790613f5b565b81518110612dad57612dad613fe6565b60200260200101516060018181525050505b5050600101612bcd565b5050600101612b9e565b509695505050505050565b5f805b5f848152600686016020526040902060020154811015612f1c575f8481526006860160205260408120600201805483908110612e1f57612e1f613fe6565b905f5260205f20015490505f612e8187886004015f8581526020019081526020015f205f81548110612e5357612e53613fe6565b905f5260205f20015487604051806040016040528060068152602001651b1a5b9ad25160d21b81525061219e565b905060015b5f838152600489016020526040902054811015612f11575f83815260048901602052604081208054612ef2918b9185908110612ec457612ec4613fe6565b905f5260205f20015489604051806040016040528060068152602001651b1a5b9ad25160d21b81525061219e565b9050808314612f08575f95505050505050611a48565b50600101612e86565b505050600101612de1565b506001949350505050565b5f818152600683016020908152604080832060010180548251818502810185019093528083529192909190830182828015612f7f57602002820191905f5260205f20905b815481526020019060010190808311612f6b575b505050505090505f836006015f8481526020019081526020015f20600201805480602002602001604051908101604052809291908181526020018280548015612fe557602002820191905f5260205f20905b815481526020019060010190808311612fd1575b509394505f93505050505b825181101561317e5761301c8584838151811061300f5761300f613fe6565b602002602001015161050b565b6130565782818151811061303257613032613fe6565b6020026020010151604051633f88e60160e21b81526004016105f391815260200190565b5f856001015f85848151811061306e5761306e613fe6565b602002602001015181526020019081526020015f206001015f9054906101000a90046001600160a01b03166001600160a01b031663ed4b50a8876001015f8786815181106130be576130be613fe6565b602002602001015181526020019081526020015f206002016040518263ffffffff1660e01b81526004016130f291906145fc565b5f60405180830381865afa15801561310c573d5f5f3e3d5ffd5b505050506040513d5f823e601f3d908101601f191682016040526131339190810190613e8e565b60200151905080156131755783828151811061315157613151613fe6565b60200260200101516040516362d5346d60e01b81526004016105f391815260200190565b50600101612ff0565b505f5b81518110156106f3576131bf858383815181106131a0576131a0613fe6565b60200260200101515f9081526004919091016020526040902054151590565b6131f9578181815181106131d5576131d5613fe6565b60200260200101516040516317b0f59160e21b81526004016105f391815260200190565b600101613181565b5f8281526006840160205260408120815b600182015481101561327c575f82600101828154811061323457613234613fe6565b5f91825260208083209091015480835289825260408084206001600160a01b038a16855290925291205490915060ff16613273575f9350505050611a48565b50600101613212565b505f5b600282015481101561333a575f8260020182815481106132a1576132a1613fe6565b5f91825260208220015491505b5f828152600489016020526040902054811015613330575f82815260048901602052604081208054839081106132e6576132e6613fe6565b5f9182526020808320909101548083528b825260408084206001600160a01b038c16855290925291205490915060ff16613327575f95505050505050611a48565b506001016132ae565b505060010161327f565b50600195945050505050565b6040518060a001604052805f8152602001606081526020015f6001600160a01b03168152602001606081526020015f6001600160a01b031681525090565b5f5f60408385031215613395575f5ffd5b50508035926020909101359150565b5f5f604083850312156133b5575f5ffd5b8235915060208301356001600160401b038111156133d1575f5ffd5b830160a081860312156133e2575f5ffd5b809150509250929050565b5f5f83601f8401126133fd575f5ffd5b5081356001600160401b03811115613413575f5ffd5b60208301915083602082850101111561342a575f5ffd5b9250929050565b6001600160a01b0381168114613445575f5ffd5b50565b5f5f5f5f6060858703121561345b575f5ffd5b8435935060208501356001600160401b03811115613477575f5ffd5b613483878288016133ed565b909450925050604085013561349781613431565b939692955090935050565b5f8151808452602084019350602083015f5b828110156134d25781518652602095860195909101906001016134b4565b5093949350505050565b5f81518084528060208401602086015e5f602082860101526020601f19601f83011685010191505092915050565b60208152815160208201525f60208301516080604084015261352f60a08401826134a2565b90506040840151601f1984830301606085015261354c82826134a2565b9150506060840151601f1984830301608085015261356a82826134dc565b95945050505050565b5f5f5f60608486031215613585575f5ffd5b505081359360208301359350604090920135919050565b5f5f5f604084860312156135ae575f5ffd5b8335925060208401356001600160401b038111156135ca575f5ffd5b8401601f810186136135da575f5ffd5b80356001600160401b038111156135ef575f5ffd5b8660208260051b8401011115613603575f5ffd5b939660209190910195509293505050565b805182525f602082015160a0602085015261363260a08501826134dc565b905060018060a01b0360408401511660408501526060830151848203606086015261365d82826134dc565b6080948501516001600160a01b03169590940194909452509092915050565b602081525f611a486020830184613614565b5f5f5f606084860312156136a0575f5ffd5b833592506020840135915060408401356136b981613431565b809150509250925092565b805182526020810151151560208301525f6040820151608060408501526136ee60808501826134dc565b606093840151949093019390935250919050565b5f602082016020835280845180835260408501915060408160051b8601019250602086015f5b8281101561375957603f198786030184526137448583516136c4565b94506020938401939190910190600101613728565b50929695505050505050565b5f5f5f60608486031215613777575f5ffd5b8335925060208401356001600160401b03811115613793575f5ffd5b8401608081870312156137a4575f5ffd5b915060408401356136b981613431565b5f5f5f604084860312156137c6575f5ffd5b8335925060208401356001600160401b038111156137e2575f5ffd5b6137ee868287016133ed565b9497909650939450505050565b5f602082016020835280845180835260408501915060408160051b8601019250602086015f5b8281101561375957603f1987860301845261383d858351613614565b94506020938401939190910190600101613821565b634e487b7160e01b5f52604160045260245ffd5b604051606081016001600160401b038111828210171561388857613888613852565b60405290565b60405160a081016001600160401b038111828210171561388857613888613852565b604051601f8201601f191681016001600160401b03811182821017156138d8576138d8613852565b604052919050565b5f6001600160401b038211156138f8576138f8613852565b50601f01601f191660200190565b5f82601f830112613915575f5ffd5b8135602083015f61392d613928846138e0565b6138b0565b9050828152858383011115613940575f5ffd5b828260208301375f92810160200192909252509392505050565b5f5f6040838503121561396b575f5ffd5b8235915060208301356001600160401b03811115613987575f5ffd5b61399385828601613906565b9150509250929050565b5f82601f8301126139ac575f5ffd5b81356001600160401b038111156139c5576139c5613852565b8060051b6139d5602082016138b0565b918252602081850181019290810190868411156139f0575f5ffd5b6020860192505b83831015613aa45782356001600160401b03811115613a14575f5ffd5b86016060818903601f19011215613a29575f5ffd5b613a31613866565b60208201356001600160401b03811115613a49575f5ffd5b613a588a602083860101613906565b8252506040820135602082015260608201356001600160401b03811115613a7d575f5ffd5b613a8c8a602083860101613906565b604083015250835250602092830192909101906139f7565b9695505050505050565b5f5f5f5f5f60a08688031215613ac2575f5ffd5b85359450602086013593506040860135613adb81613431565b92506060860135915060808601356001600160401b03811115613afc575f5ffd5b613b088882890161399d565b9150509295509295909350565b602081525f611a4860208301846136c4565b5f60208284031215613b37575f5ffd5b81356001600160401b03811115613b4c575f5ffd5b613b588482850161399d565b949350505050565b5f5f60408385031215613b71575f5ffd5b8235915060208301356001600160401b03811115613b8d575f5ffd5b8301606081860312156133e2575f5ffd5b5f5f5f5f60808587031215613bb1575f5ffd5b84359350602085013592506040850135915060608501356001600160401b03811115613bdb575f5ffd5b613be787828801613906565b91505092959194509250565b5f5f5f60608486031215613c05575f5ffd5b833592506020840135613c1781613431565b929592945050506040919091013590565b602080825282516001600160a01b031682820152820151606060408301525f90613c5560808401826134dc565b90506040840151151560608401528091505092915050565b5f5f5f5f60808587031215613c80575f5ffd5b84359350602085013592506040850135613c9981613431565b915060608501356001600160401b03811115613bdb575f5ffd5b5f5f60408385031215613cc4575f5ffd5b8235915060208301356001600160401b03811115613ce0575f5ffd5b6139938582860161399d565b5f602082016020835280845180835260408501915060408160051b8601019250602086015f5b8281101561375957603f198786030184528151805160608752613d3860608801826134dc565b905060208201516020880152604082015191508681036040880152613d5d81836134dc565b965050506020938401939190910190600101613d12565b5f60208284031215613d84575f5ffd5b8135611a4881613431565b5f5f8335601e19843603018112613da4575f5ffd5b8301803591506001600160401b03821115613dbd575f5ffd5b60200191503681900382131561342a575f5ffd5b81835281816020850137505f828201602090810191909152601f909101601f19169091010190565b604081525f613e0c604083018486613dd1565b828103602084015260128152711b9d5b1b1a599a595c94d95cdcda5bdb925160721b6020820152604081019150509392505050565b5f82601f830112613e50575f5ffd5b8151613e5e613928826138e0565b818152846020838601011115613e72575f5ffd5b8160208501602083015e5f918101602001919091529392505050565b5f60208284031215613e9e575f5ffd5b81516001600160401b03811115613eb3575f5ffd5b820160408185031215613ec4575f5ffd5b604080519081016001600160401b0381118282101715613ee657613ee6613852565b60405281516001600160401b03811115613efe575f5ffd5b613f0a86828501613e41565b825250602091820151918101919091529392505050565b8284823760609190911b6bffffffffffffffffffffffff19169101908152601401919050565b634e487b7160e01b5f52601160045260245ffd5b8082018082111561052a5761052a613f47565b604081525f613f81604083018486613dd1565b8281036020840152600a8152691d995c9a599a595c925160b21b6020820152604081019150509392505050565b600181811c90821680613fc257607f821691505b602082108103613fe057634e487b7160e01b5f52602260045260245ffd5b50919050565b634e487b7160e01b5f52603260045260245ffd5b5f8235609e1983360301811261400e575f5ffd5b9190910192915050565b604081525f61402b604083018486613dd1565b828103602084015261356a81600781526619dc9bdd5c125160ca1b602082015260400190565b5f60a08236031215614061575f5ffd5b61406961388e565b8235815260208301356001600160401b03811115614085575f5ffd5b61409136828601613906565b60208301525060408301356140a581613431565b604082015260608301356001600160401b038111156140c2575f5ffd5b6140ce36828601613906565b60608301525060808301356140e281613431565b608082015292915050565b5f600182016140fe576140fe613f47565b5060010190565b5f5f8335601e1984360301811261411a575f5ffd5b8301803591506001600160401b03821115614133575f5ffd5b6020019150600581901b360382131561342a575f5ffd5b5f6001600160fb1b0383111561415e575f5ffd5b8260051b80838637939093019392505050565b5f61418761418083888a61414a565b858761414a565b60609390931b6bffffffffffffffffffffffff191683525050601401949350505050565b5b818110156141bf575f81556001016141ac565b5050565b6001600160401b038311156141da576141da613852565b600160401b8311156141ee576141ee613852565b80548382558084101561421257815f5260205f206142108282018683016141ab565b505b5081815f5260205f205f5b858110156142395782358282015560209092019160010161421d565b505050505050565b601f82111561060f57805f5260205f20601f840160051c810160208510156142665750805b6106f3601f850160051c8301826141ab565b6001600160401b0383111561428f5761428f613852565b6142a38361429d8354613fae565b83614241565b5f601f8411600181146142d4575f85156142bd5750838201355b5f19600387901b1c1916600186901b1783556106f3565b5f83815260208120601f198716915b8281101561430357868501358255602094850194600190920191016142e3565b508682101561431f575f1960f88860031b161c19848701351681555b505060018560011b0183555050505050565b81358155600181016143466020840184614105565b6001600160401b0381111561435d5761435d613852565b600160401b81111561437157614371613852565b82548184558082101561439557835f5260205f206143938282018483016141ab565b505b505f92835260208320925b818110156143bc578235848201556020909201916001016143a0565b505050506143cd6040830183614105565b6143db8183600286016141c3565b50506143ea6060830183613d8f565b6109fd818360038601614278565b602081525f611a4860208301846134dc565b818382375f9101908152919050565b5f82518060208501845e5f920191825250919050565b5f6020828403121561443f575f5ffd5b81516001600160401b03811115614454575f5ffd5b613b5884828501613e41565b8181038181111561052a5761052a613f47565b81516001600160401b0381111561448c5761448c613852565b6144a08161449a8454613fae565b84614241565b6020601f8211600181146144d2575f83156144bb5750848201515b5f19600385901b1c1916600184901b1784556106f3565b5f84815260208120601f198516915b8281101561450157878501518255602094850194600190920191016144e1565b508482101561451e57868401515f19600387901b60f8161c191681555b50505050600190811b01905550565b8381526001600160a01b03831660208201526060604082018190525f9061356a908301846134dc565b838152826020820152606060408201525f61356a60608301846134dc565b5f5f835461458181613fae565b60018216801561459857600181146145ad576145da565b60ff19831686528115158202860193506145da565b865f5260205f205f5b838110156145d2578154888201526001909101906020016145b6565b505081860193505b509195945050505050565b5f602082840312156145f5575f5ffd5b5051919050565b604081525f5f835461460d81613fae565b806040860152600182165f811461462b576001811461464757614678565b60ff1983166060870152606082151560051b8701019350614678565b865f5260205f205f5b8381101561466f57815488820160600152600190910190602001614650565b87016060019450505b5050508281036020840152613b5881600781526619dc9bdd5c125160ca1b60208201526040019056fea264697066735822122042069599c670331757108362fcc9508e9e8306e8108242aceee4daa84e9f3b5864736f6c634300081b0033",
  "linkReferences": {},
  "deployedLinkReferences": {},
  "immutableReferences": {},
  "inputSourceName": "project/contracts/lib/VerifierLib.sol",
  "buildInfoId": "solc-0_8_27-0a5399b7c3dcdac34b38ba53c4a9d2515ad52359"
}