{
  "_format": "hh-sol-artifact-1",
  "contractName": "VerifierLib",
  "sourceName": "contracts/lib/VerifierLib.sol",
  "abi": [
    {
      "inputs": [
        {
          "internalType": "string",
          "name": "authMethod",
          "type": "string"
        }
      ],
      "name": "AuthMethodAlreadyExists",
      "type": "error"
    },
    {
      "inputs": [
        {
          "internalType": "string",
          "name": "authMethod",
          "type": "string"
        }
      ],
      "name": "AuthMethodNotFound",
      "type": "error"
    },
    {
      "inputs": [
        {
          "internalType": "uint256",
          "name": "groupId",
          "type": "uint256"
        }
      ],
      "name": "GroupIdAlreadyExists",
      "type": "error"
    },
    {
      "inputs": [
        {
          "internalType": "uint256",
          "name": "groupId",
          "type": "uint256"
        }
      ],
      "name": "GroupIdNotFound",
      "type": "error"
    },
    {
      "inputs": [],
      "name": "GroupIdNotValid",
      "type": "error"
    },
    {
      "inputs": [
        {
          "internalType": "uint256",
          "name": "groupId",
          "type": "uint256"
        }
      ],
      "name": "GroupMustHaveAtLeastTwoRequests",
      "type": "error"
    },
    {
      "inputs": [],
      "name": "LinkIDNotTheSameForGroupedRequests",
      "type": "error"
    },
    {
      "inputs": [
        {
          "internalType": "uint256",
          "name": "groupId",
          "type": "uint256"
        }
      ],
      "name": "MissingUserIDInGroupOfRequests",
      "type": "error"
    },
    {
      "inputs": [
        {
          "internalType": "uint256",
          "name": "requestId",
          "type": "uint256"
        }
      ],
      "name": "MissingUserIDInRequest",
      "type": "error"
    },
    {
      "inputs": [
        {
          "internalType": "uint256",
          "name": "multiRequestId",
          "type": "uint256"
        }
      ],
      "name": "MultiRequestIdAlreadyExists",
      "type": "error"
    },
    {
      "inputs": [
        {
          "internalType": "uint256",
          "name": "multiRequestId",
          "type": "uint256"
        }
      ],
      "name": "MultiRequestIdNotFound",
      "type": "error"
    },
    {
      "inputs": [
        {
          "internalType": "uint256",
          "name": "expectedMultiRequestId",
          "type": "uint256"
        },
        {
          "internalType": "uint256",
          "name": "multiRequestId",
          "type": "uint256"
        }
      ],
      "name": "MultiRequestIdNotValid",
      "type": "error"
    },
    {
      "inputs": [
        {
          "internalType": "uint256",
          "name": "nullifierSessionID",
          "type": "uint256"
        }
      ],
      "name": "NullifierSessionIDAlreadyExists",
      "type": "error"
    },
    {
      "inputs": [
        {
          "internalType": "uint256",
          "name": "requestId",
          "type": "uint256"
        },
        {
          "internalType": "address",
          "name": "sender",
          "type": "address"
        }
      ],
      "name": "ProofAlreadyVerified",
      "type": "error"
    },
    {
      "inputs": [
        {
          "internalType": "uint256",
          "name": "requestId",
          "type": "uint256"
        },
        {
          "internalType": "address",
          "name": "sender",
          "type": "address"
        }
      ],
      "name": "ProofIsNotVerified",
      "type": "error"
    },
    {
      "inputs": [
        {
          "internalType": "uint256",
          "name": "requestId",
          "type": "uint256"
        }
      ],
      "name": "RequestIdAlreadyExists",
      "type": "error"
    },
    {
      "inputs": [
        {
          "internalType": "uint256",
          "name": "requestId",
          "type": "uint256"
        }
      ],
      "name": "RequestIdNotFound",
      "type": "error"
    },
    {
      "inputs": [
        {
          "internalType": "uint256",
          "name": "expectedRequestId",
          "type": "uint256"
        },
        {
          "internalType": "uint256",
          "name": "requestId",
          "type": "uint256"
        }
      ],
      "name": "RequestIdNotValid",
      "type": "error"
    },
    {
      "inputs": [],
      "name": "RequestIdTypeNotValid",
      "type": "error"
    },
    {
      "inputs": [],
      "name": "RequestIdUsesReservedBytes",
      "type": "error"
    },
    {
      "inputs": [
        {
          "internalType": "uint256",
          "name": "requestId",
          "type": "uint256"
        }
      ],
      "name": "RequestShouldNotHaveAGroup",
      "type": "error"
    },
    {
      "inputs": [
        {
          "internalType": "uint256",
          "name": "requestId",
          "type": "uint256"
        },
        {
          "internalType": "address",
          "name": "sender",
          "type": "address"
        },
        {
          "internalType": "string",
          "name": "responseFieldName",
          "type": "string"
        }
      ],
      "name": "ResponseFieldAlreadyExists",
      "type": "error"
    },
    {
      "inputs": [
        {
          "internalType": "uint256",
          "name": "requestId",
          "type": "uint256"
        },
        {
          "internalType": "address",
          "name": "sender",
          "type": "address"
        },
        {
          "internalType": "string",
          "name": "responseFieldName",
          "type": "string"
        }
      ],
      "name": "ResponseFieldDoesNotExist",
      "type": "error"
    },
    {
      "inputs": [
        {
          "internalType": "uint256",
          "name": "userIDFromAuth",
          "type": "uint256"
        },
        {
          "internalType": "uint256",
          "name": "userIDFromResponse",
          "type": "uint256"
        }
      ],
      "name": "UserIDMismatch",
      "type": "error"
    },
    {
      "inputs": [
        {
          "internalType": "uint256",
          "name": "requestVerifierID",
          "type": "uint256"
        },
        {
          "internalType": "uint256",
          "name": "expectedVerifierID",
          "type": "uint256"
        }
      ],
      "name": "VerifierIDIsNotValid",
      "type": "error"
    },
    {
      "inputs": [
        {
          "internalType": "uint256",
          "name": "requestId",
          "type": "uint256"
        },
        {
          "internalType": "bytes",
          "name": "requestParams",
          "type": "bytes"
        },
        {
          "internalType": "address",
          "name": "requestOwner",
          "type": "address"
        }
      ],
      "name": "checkRequestIdCorrectness",
      "outputs": [],
      "stateMutability": "pure",
      "type": "function"
    },
    {
      "inputs": [
        {
          "internalType": "uint256",
          "name": "userIDFromAuthResponse",
          "type": "uint256"
        },
        {
          "components": [
            {
              "internalType": "string",
              "name": "name",
              "type": "string"
            },
            {
              "internalType": "uint256",
              "name": "value",
              "type": "uint256"
            },
            {
              "internalType": "bytes",
              "name": "rawValue",
              "type": "bytes"
            }
          ],
          "internalType": "struct IRequestValidator.ResponseField[]",
          "name": "signals",
          "type": "tuple[]"
        }
      ],
      "name": "checkUserIDMatch",
      "outputs": [],
      "stateMutability": "pure",
      "type": "function"
    }
  ],
  "bytecode": "0x614215610039600b82828239805160001a607314602c57634e487b7160e01b600052600060045260246000fd5b30600052607381538281f3fe73000000000000000000000000000000000000000030146080604052600436106101625760003560e01c806368957bf2116100cd578063bd4f4f5c11610086578063bd4f4f5c1461037c578063c2fba8e01461039c578063c6b876bc146103bc578063cd9800df146103dc578063f03de287146103fd578063fd3ef47f1461041057600080fd5b806368957bf2146102d65780636ae9427c146102f65780636b365dd3146103165780636d86f1fc1461033657806393058e9814610349578063b39ceffb1461036957600080fd5b806333961c081161011f57806333961c08146102175780633397a11e1461023d57806339048d331461025d5780633e08b6f31461027d578063516b2eb6146102905780635747df3d146102b057600080fd5b806304ade6d7146101675780630507338e1461018f57806307568de3146101b157806311bdf5cd146101c4578063152dd00b146101d757806330f3b81e146101f7575b600080fd5b61017a610175366004612eb7565b610430565b60405190151581526020015b60405180910390f35b81801561019b57600080fd5b506101af6101aa366004612ed9565b610456565b005b6101af6101bf366004612f86565b610541565b6101af6101d2366004612ed9565b61062a565b6101ea6101e5366004612eb7565b6106f9565b6040516101869190613070565b81801561020357600080fd5b506101af6102123660046130da565b6108ca565b61017a610225366004612eb7565b60008181526006929092016020526040909120541490565b61025061024b366004612eb7565b610d25565b60405161018691906131c2565b61027061026b3660046131d5565b610ee1565b604051610186919061324d565b6101af61028b3660046131d5565b610f66565b81801561029c57600080fd5b506101af6102ab3660046134da565b610fc1565b61017a6102be366004612eb7565b60009081526004919091016020526040902054151590565b8180156102e257600080fd5b506101af6102f136600461353c565b611238565b81801561030257600080fd5b506101af610311366004613590565b61132d565b610329610324366004612eb7565b6113d1565b60405161018691906135db565b61017a610344366004613634565b61162b565b81801561035557600080fd5b506101af61036436600461367a565b61166c565b61017a6103773660046131d5565b611800565b61038f61038a3660046136bc565b611874565b60405161018691906136f4565b6103af6103aa366004613590565b6119fa565b6040516101869190613707565b8180156103c857600080fd5b506101af6103d7366004613590565b611b77565b6103ef6103ea36600461374d565b611bf0565b604051908152602001610186565b6101af61040b3660046137a3565b611dab565b61042361041e3660046131d5565b611e93565b60405161018691906137df565b60008181526001808401602052604090912001546001600160a01b031615155b92915050565b60006104686060830160408401613869565b6001600160a01b031663ed4b50a86104836060850185613886565b6040518363ffffffff1660e01b81526004016104a09291906138f5565b600060405180830381865afa1580156104bd573d6000803e3d6000fd5b505050506040513d6000823e601f3d908101601f191682016040526104e5919081019061398b565b602001519050801561053c576000818152600a84016020526040902054156105285760405163ca77741d60e01b8152600481018290526024015b60405180910390fd5b6000818152600a8401602052604090208190555b505050565b600061054d8560f01c90565b905060028161ffff16106105745760405163592542d960e01b815260040160405180910390fd5b64ffffffffff60c886901c161561059e5760405163226548cb60e21b815260040160405180910390fd5b8061ffff166001036106235760008484846040516020016105c193929190613a23565b60408051601f198184030181529190528051602090910120905060006105f46001600160c01b038316600160f01b613a5f565b905080871461062057604051635889cec760e11b8152600481018290526024810188905260440161051f565b50505b5050505050565b600061063c6060830160408401613869565b6001600160a01b031663ed4b50a86106576060850185613886565b6040518363ffffffff1660e01b8152600401610674929190613a72565b600060405180830381865afa158015610691573d6000803e3d6000fd5b505050506040513d6000823e601f3d908101601f191682016040526106b9919081019061398b565b602001519050801561053c5782600b0154811461053c57600b830154604051630458986560e11b815261051f918391600401918252602082015260400190565b6107246040518060800160405280600081526020016060815260200160608152602001606081525090565b600082815260068401602052604090205483908390600190821461075e576040516320bf2a8f60e21b81526004810183905260240161051f565b6000858152600687016020908152604091829020825160808101845281548152600182018054855181860281018601909652808652919492938581019392908301828280156107cc57602002820191906000526020600020905b8154815260200190600101908083116107b8575b505050505081526020016002820180548060200260200160405190810160405280929190818152602001828054801561082457602002820191906000526020600020905b815481526020019060010190808311610810575b5050505050815260200160038201805461083d90613ab3565b80601f016020809104026020016040519081016040528092919081815260200182805461086990613ab3565b80156108b65780601f1061088b576101008083540402835291602001916108b6565b820191906000526020600020905b81548152906001019060200180831161089957829003601f168201915b505050505081525050935050505092915050565b600080826001600160401b038111156108e5576108e56132b2565b60405190808252806020026020018201604052801561093c57816020015b610929604051806060016040528060008152602001606081526020016000151581525090565b8152602001906001900390816109035790505b50905060005b83811015610d1957600085858381811061095e5761095e613aed565b90506020028101906109709190613b03565b610981906060810190604001613869565b6001600160a01b031663ed4b50a88787858181106109a1576109a1613aed565b90506020028101906109b39190613b03565b6109c1906060810190613886565b6040518363ffffffff1660e01b81526004016109de929190613b23565b600060405180830381865afa1580156109fb573d6000803e3d6000fd5b505050506040513d6000823e601f3d908101601f19168201604052610a23919081019061398b565b6020015190508015610cb757600080610a3d838688612179565b9150915081610b9c57600083815260048a01602052604090205415610a7857604051631ece4c1b60e21b81526004810184905260240161051f565b6005890180546001810182556000918252602080832090910185905584825260048b01905260409020888886818110610ab357610ab3613aed565b9050602002810190610ac59190613b03565b8154600181018355600092835260209283902091359101556040805160608101909152848152908101898987818110610b0057610b00613aed565b9050602002810190610b129190613b03565b6040805191356020830152016040516020818303038152906040528152602001610b678a8a88818110610b4757610b47613aed565b9050602002810190610b599190613b03565b610b6290613b5d565b6121cf565b1515815250858781518110610b7e57610b7e613aed565b60200260200101819052508580610b9490613bfd565b965050610cb0565b600083815260048a0160205260409020888886818110610bbe57610bbe613aed565b9050602002810190610bd09190613b03565b81546001810183556000928352602090922090359101558451859082908110610bfb57610bfb613aed565b602002602001015160200151888886818110610c1957610c19613aed565b9050602002810190610c2b9190613b03565b604051610c3d92913590602001613c16565b604051602081830303815290604052858281518110610c5e57610c5e613aed565b602002602001015160200181905250610c82888886818110610b4757610b47613aed565b15610cb0576001858281518110610c9b57610c9b613aed565b60209081029190910101519015156040909101525b5050610d10565b610ccc868684818110610b4757610b47613aed565b610d1057858583818110610ce257610ce2613aed565b9050602002810190610cf49190613b03565b604051637a84338160e11b81529035600482015260240161051f565b50600101610942565b50610623858284612264565b610d2d612e76565b82826001610d3b8383610430565b610d5b57604051633f88e60160e21b81526004810183905260240161051f565b600086600101600087815260200190815260200160002090506040518060a00160405280878152602001826000018054610d9490613ab3565b80601f0160208091040260200160405190810160405280929190818152602001828054610dc090613ab3565b8015610e0d5780601f10610de257610100808354040283529160200191610e0d565b820191906000526020600020905b815481529060010190602001808311610df057829003601f168201915b505050918352505060018301546001600160a01b03166020820152600283018054604090920191610e3d90613ab3565b80601f0160208091040260200160405190810160405280929190818152602001828054610e6990613ab3565b8015610eb65780601f10610e8b57610100808354040283529160200191610eb6565b820191906000526020600020905b815481529060010190602001808311610e9957829003601f168201915b50505091835250506003909201546001600160a01b0316602090920191909152935050505092915050565b6000828152600684016020526040902054606090849084906001908214610f1e576040516320bf2a8f60e21b81526004810183905260240161051f565b6000610f2b8888886123c5565b90506000610f3a8989896128de565b905080610f5a5760405163141df12760e31b815260040160405180910390fd5b50979650505050505050565b6000828152602084815260408083206001600160a01b03851684529091529020805460ff1615610fbb5760405163dc08e05360e01b8152600481018490526001600160a01b038316602482015260440161051f565b50505050565b6000838152602085815260408083206001600160a01b03861684529091528120805460ff19166001908117825580820180548201808255818552929392909161100991613c38565b8154811061101957611019613aed565b600091825260208083208884526001808b01909252604080852090920154825163054fd4d560e41b81529251603290940290910194506001600160a01b0316926354fd4d50926004808401938290030181865afa15801561107e573d6000803e3d6000fd5b505050506040513d6000823e601f3d908101601f191682016040526110a69190810190613c4b565b60038201906110b59082613cd1565b5042600482015560005b835181101561062057816002018482815181106110de576110de613aed565b6020026020010151600001516040516110f79190613d8f565b90815260200160405180910390205460001461114957858585838151811061112157611121613aed565b602002602001015160000151604051631202ebdd60e31b815260040161051f93929190613da1565b83818151811061115b5761115b613aed565b6020026020010151602001518260000185838151811061117d5761117d613aed565b6020026020010151600001516040516111969190613d8f565b908152602001604051809103902081905550816001018482815181106111be576111be613aed565b60209081029190910181015151825460018101845560009384529190922001906111e89082613cd1565b5081600101805490508260020185838151811061120757611207613aed565b6020026020010151600001516040516112209190613d8f565b908152604051908190036020019020556001016110bf565b828235600080828152600684016020526040902054820361126f5760405163ac1e4c7760e01b81526004810183905260240161051f565b600061127e6020870187613dcb565b61128b6040890189613dcb565b886040516020016112a0959493929190613e3d565b60408051601f1981840301815291905280516020909101209050853581146112e557604051631ab60acd60e01b8152600481018290528635602482015260440161051f565b85356000908152600688016020526040902086906113038282613fba565b50506007870180546001810182556000918252602090912087359101819055610620908890612a37565b8282828080601f016020809104026020016040519081016040528093929190818152602001838380828437600092019190915250600192505050611371838361162b565b61139057816040516303741db360e21b815260040161051f9190614084565b60018660090186866040516113a6929190614097565b908152604051908190036020019020600201805491151560ff19909216919091179055505050505050565b6000818152600483016020526040812054606091906001600160401b038111156113fd576113fd6132b2565b60405190808252806020026020018201604052801561143657816020015b611423612e76565b81526020019060019003908161141b5790505b50905060005b6000848152600486016020526040902054811015611623576000848152600486016020526040812080548390811061147657611476613aed565b90600052602060002001549050600086600101600083815260200190815260200160002090506040518060a001604052808381526020018260000180546114bc90613ab3565b80601f01602080910402602001604051908101604052809291908181526020018280546114e890613ab3565b80156115355780601f1061150a57610100808354040283529160200191611535565b820191906000526020600020905b81548152906001019060200180831161151857829003601f168201915b505050918352505060018301546001600160a01b0316602082015260028301805460409092019161156590613ab3565b80601f016020809104026020016040519081016040528092919081815260200182805461159190613ab3565b80156115de5780601f106115b3576101008083540402835291602001916115de565b820191906000526020600020905b8154815290600101906020018083116115c157829003601f168201915b505050918352505060038301546001600160a01b0316602090910152845185908590811061160e5761160e613aed565b6020908102919091010152505060010161143c565b509392505050565b6000806001600160a01b031683600901836040516116499190613d8f565b908152604051908190036020019020546001600160a01b03161415905092915050565b816116778280613886565b8080601f016020809104026020016040519081016040528093929190818152602001838380828437600092018290525092506116b1915050565b6116bb838361162b565b156116db57816040516372a372b360e01b815260040161051f9190614084565b600885016116e98580613886565b825460018101845560009384526020909320909201916117099183613efb565b5060405180606001604052808560200160208101906117289190613869565b6001600160a01b031681526020016117436040870187613886565b8080601f0160208091040260200160405190810160405280939291908181526020018383808284376000920191909152505050908252506001602090910152600986016117908680613886565b60405161179e929190614097565b90815260405160209181900382019020825181546001600160a01b0319166001600160a01b039091161781559082015160018201906117dd9082613cd1565b50604091909101516002909101805460ff19169115159190911790555050505050565b600082815260068401602052604081205484908490600190821461183a576040516320bf2a8f60e21b81526004810183905260240161051f565b6000611847888888612d24565b9050801561186957600061185c8989896128de565b905080610f5a5760009150505b979650505050505050565b6118a160405180608001604052806000815260200160001515815260200160608152602001600081525090565b6000828152602085815260408083206001600160a01b03871684529091529020805460ff16156119bb57600180820180546000926118de91613c38565b815481106118ee576118ee613aed565b90600052602060002090603202019050604051806080016040528085815260200160011515815260200182600301805461192790613ab3565b80601f016020809104026020016040519081016040528092919081815260200182805461195390613ab3565b80156119a05780601f10611975576101008083540402835291602001916119a0565b820191906000526020600020905b81548152906001019060200180831161198357829003601f168201915b505050505081526020018260040154815250925050506119f3565b604051806080016040528084815260200160001515815260200160405180602001604052806000815250815260200160008152509150505b9392505050565b611a29604051806060016040528060006001600160a01b03168152602001606081526020016000151581525090565b8383838080601f016020809104026020016040519081016040528093929190818152602001838380828437600092019190915250600192505050611a6d838361162b565b611a8c57816040516303741db360e21b815260040161051f9190614084565b866009018686604051611aa0929190614097565b9081526040805191829003602090810183206060840190925281546001600160a01b0316835260018201805491840191611ad990613ab3565b80601f0160208091040260200160405190810160405280929190818152602001828054611b0590613ab3565b8015611b525780601f10611b2757610100808354040283529160200191611b52565b820191906000526020600020905b815481529060010190602001808311611b3557829003601f168201915b50505091835250506002919091015460ff161515602090910152979650505050505050565b8282828080601f016020809104026020016040519081016040528093929190818152602001838380828437600092019190915250600192505050611bbb838361162b565b611bda57816040516303741db360e21b815260040161051f9190614084565b60008660090186866040516113a6929190614097565b60008484846001611c018484610430565b611c2157604051633f88e60160e21b81526004810184905260240161051f565b6000838152602085815260408083206001600160a01b038616845290915290208115611c8057805460ff16611c7b57604051632e0cb61360e01b8152600481018590526001600160a01b038416602482015260440161051f565b611cb5565b805460ff1615611cb55760405163dc08e05360e01b8152600481018590526001600160a01b038416602482015260440161051f565b600089815260208b815260408083206001600160a01b038c1684529091529020600180820180549091611ce791613c38565b81548110611cf757611cf7613aed565b906000526020600020906032020160020188604051611d169190613d8f565b908152602001604051809103902054600003611d4b578989896040516301ef312d60e41b815260040161051f93929190613da1565b600180820180549091611d5d91613c38565b81548110611d6d57611d6d613aed565b906000526020600020906032020160000188604051611d8c9190613d8f565b9081526020016040518091039020549650505050505050949350505050565b60005b815181101561053c577feaa28503c24395f30163098dfa9f1e1cd296dd52252064784e65d9593400738260001b828281518110611ded57611ded613aed565b602002602001015160000151604051602001611e099190613d8f565b6040516020818303038152906040528051906020012003611e8b57818181518110611e3657611e36613aed565b6020026020010151602001518314611e8b5782828281518110611e5b57611e5b613aed565b602002602001015160200151604051631bab966f60e31b815260040161051f929190918252602082015260400190565b600101611dae565b60608383836001611ea48484610430565b611ec457604051633f88e60160e21b81526004810184905260240161051f565b6000838152602085815260408083206001600160a01b038616845290915290208115611f2357805460ff16611f1e57604051632e0cb61360e01b8152600481018590526001600160a01b038416602482015260440161051f565b611f58565b805460ff1615611f585760405163dc08e05360e01b8152600481018590526001600160a01b038416602482015260440161051f565b600088815260208a815260408083206001600160a01b038b1684529091528120600180820180549293929091611f8d91613c38565b81548110611f9d57611f9d613aed565b90600052602060002090603202019050600081600101805490506001600160401b03811115611fce57611fce6132b2565b60405190808252806020026020018201604052801561202357816020015b61201060405180606001604052806060815260200160008152602001606081525090565b815260200190600190039081611fec5790505b50905060005b600183015481101561216957604051806060016040528084600101838154811061205557612055613aed565b90600052602060002001805461206a90613ab3565b80601f016020809104026020016040519081016040528092919081815260200182805461209690613ab3565b80156120e35780601f106120b8576101008083540402835291602001916120e3565b820191906000526020600020905b8154815290600101906020018083116120c657829003601f168201915b505050505081526020018460000185600101848154811061210657612106613aed565b9060005260206000200160405161211d91906140a7565b90815260200160405180910390205481526020016040518060200160405280600081525081525082828151811061215657612156613aed565b6020908102919091010152600101612029565b509b9a5050505050505050505050565b60008060005b838110156121be578585828151811061219a5761219a613aed565b602002602001015160000151036121b6576001925090506121c7565b60010161217f565b50600080915091505b935093915050565b6040808201518151808301835260068152651d5cd95c925160d21b6020820152915163b16a394f60e01b815260009283926001600160a01b03169163b16a394f9161221c91600401614084565b602060405180830381865afa925050508015612255575060408051601f3d908101601f191682019092526122529181019061411c565b60015b15610450575060019392505050565b60005b81811015610fbb57600083828151811061228357612283613aed565b6020026020010151602001518051906020012060001c6001600160fc1b031690508382815181106122b6576122b6613aed565b60200260200101516000015181146122e1576040516344e0de8560e01b815260040160405180910390fd5b60028560040160008685815181106122fb576122fb613aed565b60200260200101516000015181526020019081526020016000208054905010156123595783828151811061233157612331613aed565b602002602001015160000151604051637f6d9ecf60e01b815260040161051f91815260200190565b83828151811061236b5761236b613aed565b602002602001015160400151151560001515036123bc5783828151811061239457612394613aed565b6020026020010151600001516040516304aa0c4960e01b815260040161051f91815260200190565b50600101612267565b60008281526006840160205260408120600281015460609290156124415760005b600283015481101561243f57600083600201828154811061240957612409613aed565b600091825260208083209091015480835260048b019091526040909120549091506124349084613a5f565b9250506001016123e6565b505b6001820154600090612454908390613a5f565b6001600160401b0381111561246b5761246b6132b2565b6040519080825280602002602001820160405280156124c957816020015b6124b660405180608001604052806000815260200160001515815260200160608152602001600081525090565b8152602001906001900390816124895790505b50905060005b600184015481101561268e5760008460010182815481106124f2576124f2613aed565b60009182526020808320909101548083528b825260408084206001600160a01b038c16855283528084208151608081018352838152815460ff1615158186015282519485018352858552918201939093526060810193909352855190935090919085908590811061256557612565613aed565b6020908102919091010152805460ff1615612684576001808201805460009261258d91613c38565b8154811061259d5761259d613aed565b906000526020600020906032020190508060030180546125bc90613ab3565b80601f01602080910402602001604051908101604052809291908181526020018280546125e890613ab3565b80156126355780601f1061260a57610100808354040283529160200191612635565b820191906000526020600020905b81548152906001019060200180831161261857829003601f168201915b505050505085858151811061264c5761264c613aed565b602002602001015160400181905250806004015485858151811061267257612672613aed565b60200260200101516060018181525050505b50506001016124cf565b5060005b60028401548110156128d35760008460020182815481106126b5576126b5613aed565b9060005260206000200154905060005b600082815260048b0160205260409020548110156128c957600082815260048b01602052604081208054839081106126ff576126ff613aed565b60009182526020808320909101548083528d825260408084206001600160a01b038e16855283528084208151608081018352838152815460ff161515818601528251948501835285855291820193909352606081019390935260018a01549093509091908790612770908690613a5f565b8151811061278057612780613aed565b6020908102919091010152805460ff16156128bf57600180820180546000926127a891613c38565b815481106127b8576127b8613aed565b906000526020600020906032020190508060030180546127d790613ab3565b80601f016020809104026020016040519081016040528092919081815260200182805461280390613ab3565b80156128505780601f1061282557610100808354040283529160200191612850565b820191906000526020600020905b81548152906001019060200180831161283357829003601f168201915b50505060018c01548a925061286791508790613a5f565b8151811061287757612877613aed565b602090810291909101015160400152600481015460018a0154889061289d908790613a5f565b815181106128ad576128ad613aed565b60200260200101516060018181525050505b50506001016126c5565b5050600101612692565b509695505050505050565b6000805b6000848152600686016020526040902060020154811015612a2c576000848152600686016020526040812060020180548390811061292257612922613aed565b90600052602060002001549050600061298c8788600401600085815260200190815260200160002060008154811061295c5761295c613aed565b906000526020600020015487604051806040016040528060068152602001651b1a5b9ad25160d21b815250611bf0565b905060015b6000838152600489016020526040902054811015612a2157600083815260048901602052604081208054612a01918b91859081106129d1576129d1613aed565b906000526020600020015489604051806040016040528060068152602001651b1a5b9ad25160d21b815250611bf0565b9050808314612a18576000955050505050506119f3565b50600101612991565b5050506001016128e2565b506001949350505050565b6000818152600683016020908152604080832060010180548251818502810185019093528083529192909190830182828015612a9257602002820191906000526020600020905b815481526020019060010190808311612a7e575b505050505090506000836006016000848152602001908152602001600020600201805480602002602001604051908101604052809291908181526020018280548015612afd57602002820191906000526020600020905b815481526020019060010190808311612ae9575b5050505050905060005b8251811015612c9f57612b3385848381518110612b2657612b26613aed565b6020026020010151610430565b612b6d57828181518110612b4957612b49613aed565b6020026020010151604051633f88e60160e21b815260040161051f91815260200190565b6000856001016000858481518110612b8757612b87613aed565b6020026020010151815260200190815260200160002060010160009054906101000a90046001600160a01b03166001600160a01b031663ed4b50a8876001016000878681518110612bda57612bda613aed565b602002602001015181526020019081526020016000206002016040518263ffffffff1660e01b8152600401612c0f9190614135565b600060405180830381865afa158015612c2c573d6000803e3d6000fd5b505050506040513d6000823e601f3d908101601f19168201604052612c54919081019061398b565b6020015190508015612c9657838281518110612c7257612c72613aed565b60200260200101516040516362d5346d60e01b815260040161051f91815260200190565b50600101612b07565b5060005b815181101561062357612ce285838381518110612cc257612cc2613aed565b602002602001015160009081526004919091016020526040902054151590565b612d1c57818181518110612cf857612cf8613aed565b60200260200101516040516317b0f59160e21b815260040161051f91815260200190565b600101612ca3565b60008281526006840160205260408120815b6001820154811015612da3576000826001018281548110612d5957612d59613aed565b600091825260208083209091015480835289825260408084206001600160a01b038a16855290925291205490915060ff16612d9a57600093505050506119f3565b50600101612d36565b5060005b6002820154811015612e6a576000826002018281548110612dca57612dca613aed565b9060005260206000200154905060005b6000828152600489016020526040902054811015612e605760008281526004890160205260408120805483908110612e1457612e14613aed565b60009182526020808320909101548083528b825260408084206001600160a01b038c16855290925291205490915060ff16612e57576000955050505050506119f3565b50600101612dda565b5050600101612da7565b50600195945050505050565b6040518060a00160405280600081526020016060815260200160006001600160a01b031681526020016060815260200160006001600160a01b031681525090565b60008060408385031215612eca57600080fd5b50508035926020909101359150565b60008060408385031215612eec57600080fd5b8235915060208301356001600160401b03811115612f0957600080fd5b830160a08186031215612f1b57600080fd5b809150509250929050565b60008083601f840112612f3857600080fd5b5081356001600160401b03811115612f4f57600080fd5b602083019150836020828501011115612f6757600080fd5b9250929050565b6001600160a01b0381168114612f8357600080fd5b50565b60008060008060608587031215612f9c57600080fd5b8435935060208501356001600160401b03811115612fb957600080fd5b612fc587828801612f26565b9094509250506040850135612fd981612f6e565b939692955090935050565b600081518084526020840193506020830160005b82811015613016578151865260209586019590910190600101612ff8565b5093949350505050565b60005b8381101561303b578181015183820152602001613023565b50506000910152565b6000815180845261305c816020860160208601613020565b601f01601f19169290920160200192915050565b6020815281516020820152600060208301516080604084015261309660a0840182612fe4565b90506040840151601f198483030160608501526130b38282612fe4565b9150506060840151601f198483030160808501526130d18282613044565b95945050505050565b6000806000604084860312156130ef57600080fd5b8335925060208401356001600160401b0381111561310c57600080fd5b8401601f8101861361311d57600080fd5b80356001600160401b0381111561313357600080fd5b8660208260051b840101111561314857600080fd5b939660209190910195509293505050565b805182526000602082015160a0602085015261317860a0850182613044565b905060018060a01b036040840151166040850152606083015184820360608601526131a38282613044565b6080948501516001600160a01b03169590940194909452509092915050565b6020815260006119f36020830184613159565b6000806000606084860312156131ea57600080fd5b8335925060208401359150604084013561320381612f6e565b809150509250925092565b8051825260208101511515602083015260006040820151608060408501526132396080850182613044565b606093840151949093019390935250919050565b6000602082016020835280845180835260408501915060408160051b86010192506020860160005b828110156132a657603f1987860301845261329185835161320e565b94506020938401939190910190600101613275565b50929695505050505050565b634e487b7160e01b600052604160045260246000fd5b604051606081016001600160401b03811182821017156132ea576132ea6132b2565b60405290565b60405160a081016001600160401b03811182821017156132ea576132ea6132b2565b604051601f8201601f191681016001600160401b038111828210171561333a5761333a6132b2565b604052919050565b60006001600160401b0382111561335b5761335b6132b2565b50601f01601f191660200190565b600082601f83011261337a57600080fd5b813560208301600061339361338e84613342565b613312565b90508281528583830111156133a757600080fd5b82826020830137600092810160200192909252509392505050565b600082601f8301126133d357600080fd5b81356001600160401b038111156133ec576133ec6132b2565b8060051b6133fc60208201613312565b9182526020818501810192908101908684111561341857600080fd5b6020860192505b838310156134d05782356001600160401b0381111561343d57600080fd5b86016060818903601f1901121561345357600080fd5b61345b6132c8565b60208201356001600160401b0381111561347457600080fd5b6134838a602083860101613369565b8252506040820135602082015260608201356001600160401b038111156134a957600080fd5b6134b88a602083860101613369565b6040830152508352506020928301929091019061341f565b9695505050505050565b600080600080608085870312156134f057600080fd5b8435935060208501359250604085013561350981612f6e565b915060608501356001600160401b0381111561352457600080fd5b613530878288016133c2565b91505092959194509250565b60008060006060848603121561355157600080fd5b8335925060208401356001600160401b0381111561356e57600080fd5b84016080818703121561358057600080fd5b9150604084013561320381612f6e565b6000806000604084860312156135a557600080fd5b8335925060208401356001600160401b038111156135c257600080fd5b6135ce86828701612f26565b9497909650939450505050565b6000602082016020835280845180835260408501915060408160051b86010192506020860160005b828110156132a657603f1987860301845261361f858351613159565b94506020938401939190910190600101613603565b6000806040838503121561364757600080fd5b8235915060208301356001600160401b0381111561366457600080fd5b61367085828601613369565b9150509250929050565b6000806040838503121561368d57600080fd5b8235915060208301356001600160401b038111156136aa57600080fd5b830160608186031215612f1b57600080fd5b6000806000606084860312156136d157600080fd5b8335925060208401356136e381612f6e565b929592945050506040919091013590565b6020815260006119f3602083018461320e565b602080825282516001600160a01b031682820152820151606060408301526000906137356080840182613044565b90506040840151151560608401528091505092915050565b6000806000806080858703121561376357600080fd5b8435935060208501359250604085013561377c81612f6e565b915060608501356001600160401b0381111561379757600080fd5b61353087828801613369565b600080604083850312156137b657600080fd5b8235915060208301356001600160401b038111156137d357600080fd5b613670858286016133c2565b6000602082016020835280845180835260408501915060408160051b86010192506020860160005b828110156132a657603f19878603018452815180516060875261382d6060880182613044565b9050602082015160208801526040820151915086810360408801526138528183613044565b965050506020938401939190910190600101613807565b60006020828403121561387b57600080fd5b81356119f381612f6e565b6000808335601e1984360301811261389d57600080fd5b8301803591506001600160401b038211156138b757600080fd5b602001915036819003821315612f6757600080fd5b81835281816020850137506000828201602090810191909152601f909101601f19169091010190565b6040815260006139096040830184866138cc565b828103602084015260128152711b9d5b1b1a599a595c94d95cdcda5bdb925160721b6020820152604081019150509392505050565b600082601f83011261394f57600080fd5b815161395d61338e82613342565b81815284602083860101111561397257600080fd5b613983826020830160208701613020565b949350505050565b60006020828403121561399d57600080fd5b81516001600160401b038111156139b357600080fd5b8201604081850312156139c557600080fd5b604080519081016001600160401b03811182821017156139e7576139e76132b2565b60405281516001600160401b03811115613a0057600080fd5b613a0c8682850161393e565b825250602091820151918101919091529392505050565b8284823760609190911b6bffffffffffffffffffffffff19169101908152601401919050565b634e487b7160e01b600052601160045260246000fd5b8082018082111561045057610450613a49565b604081526000613a866040830184866138cc565b8281036020840152600a8152691d995c9a599a595c925160b21b6020820152604081019150509392505050565b600181811c90821680613ac757607f821691505b602082108103613ae757634e487b7160e01b600052602260045260246000fd5b50919050565b634e487b7160e01b600052603260045260246000fd5b60008235609e19833603018112613b1957600080fd5b9190910192915050565b604081526000613b376040830184866138cc565b82810360208401526130d181600781526619dc9bdd5c125160ca1b602082015260400190565b600060a08236031215613b6f57600080fd5b613b776132f0565b8235815260208301356001600160401b03811115613b9457600080fd5b613ba036828601613369565b6020830152506040830135613bb481612f6e565b604082015260608301356001600160401b03811115613bd257600080fd5b613bde36828601613369565b6060830152506080830135613bf281612f6e565b608082015292915050565b600060018201613c0f57613c0f613a49565b5060010190565b60008351613c28818460208801613020565b9190910191825250602001919050565b8181038181111561045057610450613a49565b600060208284031215613c5d57600080fd5b81516001600160401b03811115613c7357600080fd5b6139838482850161393e565b5b81811015613c945760008155600101613c80565b5050565b601f82111561053c57806000526020600020601f840160051c81016020851015613cbf5750805b610623601f850160051c830182613c7f565b81516001600160401b03811115613cea57613cea6132b2565b613cfe81613cf88454613ab3565b84613c98565b6020601f821160018114613d325760008315613d1a5750848201515b600019600385901b1c1916600184901b178455610623565b600084815260208120601f198516915b82811015613d625787850151825560209485019460019092019101613d42565b5084821015613d805786840151600019600387901b60f8161c191681555b50505050600190811b01905550565b60008251613b19818460208701613020565b8381526001600160a01b03831660208201526060604082018190526000906130d190830184613044565b6000808335601e19843603018112613de257600080fd5b8301803591506001600160401b03821115613dfc57600080fd5b6020019150600581901b3603821315612f6757600080fd5b60006001600160fb1b03831115613e2a57600080fd5b8260051b80838637939093019392505050565b6000613e54613e4d83888a613e14565b8587613e14565b60609390931b6bffffffffffffffffffffffff191683525050601401949350505050565b6001600160401b03831115613e8f57613e8f6132b2565b600160401b831115613ea357613ea36132b2565b805483825580841015613ec957816000526020600020613ec7828201868301613c7f565b505b508181600052602060002060005b85811015613ef357823582820155602090920191600101613ed7565b505050505050565b6001600160401b03831115613f1257613f126132b2565b613f2683613f208354613ab3565b83613c98565b6000601f841160018114613f5a5760008515613f425750838201355b600019600387901b1c1916600186901b178355610623565b600083815260209020601f19861690835b82811015613f8b5786850135825560209485019460019092019101613f6b565b5086821015613fa85760001960f88860031b161c19848701351681555b505060018560011b0183555050505050565b8135815560018101613fcf6020840184613dcb565b6001600160401b03811115613fe657613fe66132b2565b600160401b811115613ffa57613ffa6132b2565b8254818455808210156140205783600052602060002061401e828201848301613c7f565b505b50600092835260208320925b818110156140485782358482015560209092019160010161402c565b505050506140596040830183613dcb565b614067818360028601613e78565b50506140766060830183613886565b610fbb818360038601613efb565b6020815260006119f36020830184613044565b8183823760009101908152919050565b60008083546140b581613ab3565b6001821680156140cc57600181146140e157614111565b60ff1983168652811515820286019350614111565b86600052602060002060005b83811015614109578154888201526001909101906020016140ed565b505081860193505b509195945050505050565b60006020828403121561412e57600080fd5b5051919050565b60408152600080835461414781613ab3565b80604086015260018216600081146141665760018114614182576141b6565b60ff1983166060870152606082151560051b87010193506141b6565b86600052602060002060005b838110156141ad5781548882016060015260019091019060200161418e565b87016060019450505b505050828103602084015261398381600781526619dc9bdd5c125160ca1b60208201526040019056fea26469706673582212207b1888fa55bb35f3211b349d2f1502f1b57488d0fdcc43d8ee040e1e80a593cf64736f6c634300081b0033",
  "linkReferences": {},
  "deployedLinkReferences": {}
}