{
  "_format": "hh-sol-artifact-1",
  "contractName": "CredentialAtomicQueryV3Validator",
  "sourceName": "contracts/validators/request/CredentialAtomicQueryV3Validator.sol",
  "abi": [
    {
      "inputs": [],
      "name": "ChallengeShouldMatchTheSender",
      "type": "error"
    },
    {
      "inputs": [
        {
          "internalType": "uint256",
          "name": "length",
          "type": "uint256"
        }
      ],
      "name": "ChecksumLengthRequired",
      "type": "error"
    },
    {
      "inputs": [],
      "name": "CircuitsLengthShouldBeOne",
      "type": "error"
    },
    {
      "inputs": [],
      "name": "GeneratedProofIsOutdated",
      "type": "error"
    },
    {
      "inputs": [],
      "name": "GistRootIsExpired",
      "type": "error"
    },
    {
      "inputs": [
        {
          "internalType": "uint256",
          "name": "input",
          "type": "uint256"
        }
      ],
      "name": "GivenInputNotAnAddressRepresentation",
      "type": "error"
    },
    {
      "inputs": [
        {
          "internalType": "string",
          "name": "circuitId",
          "type": "string"
        }
      ],
      "name": "Groth16VerifierAddressIsZero",
      "type": "error"
    },
    {
      "inputs": [
        {
          "internalType": "string",
          "name": "circuitId",
          "type": "string"
        }
      ],
      "name": "Groth16VerifierAlreadySet",
      "type": "error"
    },
    {
      "inputs": [
        {
          "internalType": "uint256",
          "name": "length",
          "type": "uint256"
        }
      ],
      "name": "IdBytesLengthRequired",
      "type": "error"
    },
    {
      "inputs": [],
      "name": "InputNameNotFound",
      "type": "error"
    },
    {
      "inputs": [
        {
          "internalType": "uint256",
          "name": "groupID",
          "type": "uint256"
        },
        {
          "internalType": "uint256",
          "name": "linkID",
          "type": "uint256"
        }
      ],
      "name": "InvalidGroupIDOrLinkID",
      "type": "error"
    },
    {
      "inputs": [],
      "name": "InvalidInitialization",
      "type": "error"
    },
    {
      "inputs": [],
      "name": "InvalidNullifyPubSignal",
      "type": "error"
    },
    {
      "inputs": [],
      "name": "IssuerIsNotOnTheAllowedIssuersList",
      "type": "error"
    },
    {
      "inputs": [],
      "name": "NonRevocationStateOfIssuerIsExpired",
      "type": "error"
    },
    {
      "inputs": [],
      "name": "NotInitializing",
      "type": "error"
    },
    {
      "inputs": [
        {
          "internalType": "address",
          "name": "owner",
          "type": "address"
        }
      ],
      "name": "OwnableInvalidOwner",
      "type": "error"
    },
    {
      "inputs": [
        {
          "internalType": "address",
          "name": "account",
          "type": "address"
        }
      ],
      "name": "OwnableUnauthorizedAccount",
      "type": "error"
    },
    {
      "inputs": [],
      "name": "ProofGeneratedInTheFutureIsNotValid",
      "type": "error"
    },
    {
      "inputs": [],
      "name": "ProofIsNotValid",
      "type": "error"
    },
    {
      "inputs": [],
      "name": "ProofTypeShouldMatchTheRequestedOneInQuery",
      "type": "error"
    },
    {
      "inputs": [
        {
          "internalType": "uint256",
          "name": "expected",
          "type": "uint256"
        },
        {
          "internalType": "uint256",
          "name": "actual",
          "type": "uint256"
        }
      ],
      "name": "QueryHashDoesNotMatchTheRequestedOne",
      "type": "error"
    },
    {
      "inputs": [],
      "name": "RequestParamNameNotFound",
      "type": "error"
    },
    {
      "inputs": [],
      "name": "UserIDDoesNotCorrespondToTheSender",
      "type": "error"
    },
    {
      "inputs": [],
      "name": "VerifierAddressShouldNotBeZero",
      "type": "error"
    },
    {
      "anonymous": false,
      "inputs": [
        {
          "indexed": false,
          "internalType": "uint64",
          "name": "version",
          "type": "uint64"
        }
      ],
      "name": "Initialized",
      "type": "event"
    },
    {
      "anonymous": false,
      "inputs": [
        {
          "indexed": true,
          "internalType": "address",
          "name": "previousOwner",
          "type": "address"
        },
        {
          "indexed": true,
          "internalType": "address",
          "name": "newOwner",
          "type": "address"
        }
      ],
      "name": "OwnershipTransferStarted",
      "type": "event"
    },
    {
      "anonymous": false,
      "inputs": [
        {
          "indexed": true,
          "internalType": "address",
          "name": "previousOwner",
          "type": "address"
        },
        {
          "indexed": true,
          "internalType": "address",
          "name": "newOwner",
          "type": "address"
        }
      ],
      "name": "OwnershipTransferred",
      "type": "event"
    },
    {
      "inputs": [],
      "name": "VERSION",
      "outputs": [
        {
          "internalType": "string",
          "name": "",
          "type": "string"
        }
      ],
      "stateMutability": "view",
      "type": "function"
    },
    {
      "inputs": [],
      "name": "acceptOwnership",
      "outputs": [],
      "stateMutability": "nonpayable",
      "type": "function"
    },
    {
      "inputs": [],
      "name": "getGISTRootExpirationTimeout",
      "outputs": [
        {
          "internalType": "uint256",
          "name": "",
          "type": "uint256"
        }
      ],
      "stateMutability": "view",
      "type": "function"
    },
    {
      "inputs": [],
      "name": "getProofExpirationTimeout",
      "outputs": [
        {
          "internalType": "uint256",
          "name": "",
          "type": "uint256"
        }
      ],
      "stateMutability": "view",
      "type": "function"
    },
    {
      "inputs": [
        {
          "internalType": "bytes",
          "name": "params",
          "type": "bytes"
        },
        {
          "internalType": "string",
          "name": "paramName",
          "type": "string"
        }
      ],
      "name": "getRequestParam",
      "outputs": [
        {
          "components": [
            {
              "internalType": "string",
              "name": "name",
              "type": "string"
            },
            {
              "internalType": "uint256",
              "name": "value",
              "type": "uint256"
            }
          ],
          "internalType": "struct IRequestValidator.RequestParam",
          "name": "",
          "type": "tuple"
        }
      ],
      "stateMutability": "pure",
      "type": "function"
    },
    {
      "inputs": [],
      "name": "getRevocationStateExpirationTimeout",
      "outputs": [
        {
          "internalType": "uint256",
          "name": "",
          "type": "uint256"
        }
      ],
      "stateMutability": "view",
      "type": "function"
    },
    {
      "inputs": [],
      "name": "getStateAddress",
      "outputs": [
        {
          "internalType": "address",
          "name": "",
          "type": "address"
        }
      ],
      "stateMutability": "view",
      "type": "function"
    },
    {
      "inputs": [],
      "name": "getSupportedCircuitIds",
      "outputs": [
        {
          "internalType": "string[]",
          "name": "ids",
          "type": "string[]"
        }
      ],
      "stateMutability": "view",
      "type": "function"
    },
    {
      "inputs": [
        {
          "internalType": "string",
          "name": "circuitId",
          "type": "string"
        }
      ],
      "name": "getVerifierByCircuitId",
      "outputs": [
        {
          "internalType": "contract IGroth16Verifier",
          "name": "",
          "type": "address"
        }
      ],
      "stateMutability": "view",
      "type": "function"
    },
    {
      "inputs": [
        {
          "internalType": "address",
          "name": "_stateContractAddr",
          "type": "address"
        },
        {
          "internalType": "address",
          "name": "_verifierContractAddr",
          "type": "address"
        },
        {
          "internalType": "address",
          "name": "owner",
          "type": "address"
        }
      ],
      "name": "initialize",
      "outputs": [],
      "stateMutability": "nonpayable",
      "type": "function"
    },
    {
      "inputs": [
        {
          "internalType": "string",
          "name": "name",
          "type": "string"
        }
      ],
      "name": "inputIndexOf",
      "outputs": [
        {
          "internalType": "uint256",
          "name": "",
          "type": "uint256"
        }
      ],
      "stateMutability": "view",
      "type": "function"
    },
    {
      "inputs": [],
      "name": "owner",
      "outputs": [
        {
          "internalType": "address",
          "name": "",
          "type": "address"
        }
      ],
      "stateMutability": "view",
      "type": "function"
    },
    {
      "inputs": [
        {
          "internalType": "uint256[]",
          "name": "inputs",
          "type": "uint256[]"
        }
      ],
      "name": "parsePubSignals",
      "outputs": [
        {
          "components": [
            {
              "internalType": "uint256",
              "name": "linkID",
              "type": "uint256"
            },
            {
              "internalType": "uint256",
              "name": "nullifier",
              "type": "uint256"
            },
            {
              "internalType": "uint256",
              "name": "operatorOutput",
              "type": "uint256"
            },
            {
              "internalType": "uint256",
              "name": "proofType",
              "type": "uint256"
            },
            {
              "internalType": "uint256",
              "name": "isBJJAuthEnabled",
              "type": "uint256"
            },
            {
              "internalType": "uint256",
              "name": "userID",
              "type": "uint256"
            },
            {
              "internalType": "uint256",
              "name": "issuerState",
              "type": "uint256"
            },
            {
              "internalType": "uint256",
              "name": "circuitQueryHash",
              "type": "uint256"
            },
            {
              "internalType": "uint256",
              "name": "requestID",
              "type": "uint256"
            },
            {
              "internalType": "uint256",
              "name": "challenge",
              "type": "uint256"
            },
            {
              "internalType": "uint256",
              "name": "gistRoot",
              "type": "uint256"
            },
            {
              "internalType": "uint256",
              "name": "issuerID",
              "type": "uint256"
            },
            {
              "internalType": "uint256",
              "name": "issuerClaimNonRevState",
              "type": "uint256"
            },
            {
              "internalType": "uint256",
              "name": "timestamp",
              "type": "uint256"
            }
          ],
          "internalType": "struct CredentialAtomicQueryV3Validator.PubSignals",
          "name": "",
          "type": "tuple"
        }
      ],
      "stateMutability": "pure",
      "type": "function"
    },
    {
      "inputs": [],
      "name": "pendingOwner",
      "outputs": [
        {
          "internalType": "address",
          "name": "",
          "type": "address"
        }
      ],
      "stateMutability": "view",
      "type": "function"
    },
    {
      "inputs": [],
      "name": "renounceOwnership",
      "outputs": [],
      "stateMutability": "nonpayable",
      "type": "function"
    },
    {
      "inputs": [
        {
          "internalType": "uint256",
          "name": "expirationTimeout",
          "type": "uint256"
        }
      ],
      "name": "setGISTRootExpirationTimeout",
      "outputs": [],
      "stateMutability": "nonpayable",
      "type": "function"
    },
    {
      "inputs": [
        {
          "internalType": "uint256",
          "name": "expirationTimeout",
          "type": "uint256"
        }
      ],
      "name": "setProofExpirationTimeout",
      "outputs": [],
      "stateMutability": "nonpayable",
      "type": "function"
    },
    {
      "inputs": [
        {
          "internalType": "uint256",
          "name": "expirationTimeout",
          "type": "uint256"
        }
      ],
      "name": "setRevocationStateExpirationTimeout",
      "outputs": [],
      "stateMutability": "nonpayable",
      "type": "function"
    },
    {
      "inputs": [
        {
          "internalType": "address",
          "name": "stateContractAddr",
          "type": "address"
        }
      ],
      "name": "setStateAddress",
      "outputs": [],
      "stateMutability": "nonpayable",
      "type": "function"
    },
    {
      "inputs": [
        {
          "internalType": "bytes4",
          "name": "interfaceId",
          "type": "bytes4"
        }
      ],
      "name": "supportsInterface",
      "outputs": [
        {
          "internalType": "bool",
          "name": "",
          "type": "bool"
        }
      ],
      "stateMutability": "view",
      "type": "function"
    },
    {
      "inputs": [
        {
          "internalType": "address",
          "name": "newOwner",
          "type": "address"
        }
      ],
      "name": "transferOwnership",
      "outputs": [],
      "stateMutability": "nonpayable",
      "type": "function"
    },
    {
      "inputs": [
        {
          "internalType": "address",
          "name": "sender",
          "type": "address"
        },
        {
          "internalType": "bytes",
          "name": "proof",
          "type": "bytes"
        },
        {
          "internalType": "bytes",
          "name": "requestParams",
          "type": "bytes"
        },
        {
          "internalType": "bytes",
          "name": "responseMetadata",
          "type": "bytes"
        }
      ],
      "name": "verify",
      "outputs": [
        {
          "components": [
            {
              "internalType": "string",
              "name": "name",
              "type": "string"
            },
            {
              "internalType": "uint256",
              "name": "value",
              "type": "uint256"
            },
            {
              "internalType": "bytes",
              "name": "rawValue",
              "type": "bytes"
            }
          ],
          "internalType": "struct IRequestValidator.ResponseField[]",
          "name": "",
          "type": "tuple[]"
        }
      ],
      "stateMutability": "view",
      "type": "function"
    },
    {
      "inputs": [],
      "name": "version",
      "outputs": [
        {
          "internalType": "string",
          "name": "",
          "type": "string"
        }
      ],
      "stateMutability": "pure",
      "type": "function"
    }
  ],
  "bytecode": "0x608060405234801561001057600080fd5b5061001f61002460201b60201c565b61018e565b600061003461012860201b60201c565b90508060000160089054906101000a900460ff161561007f576040517ff92ee8a900000000000000000000000000000000000000000000000000000000815260040160405180910390fd5b67ffffffffffffffff80168160000160009054906101000a900467ffffffffffffffff1667ffffffffffffffff16146101255767ffffffffffffffff8160000160006101000a81548167ffffffffffffffff021916908367ffffffffffffffff1602179055507fc7f505b2f371ae2175ee4913f4499e1f2633a7b5936321eed1cdaeb6115181d267ffffffffffffffff60405161011c9190610173565b60405180910390a15b50565b60007ff0c57e16840df040f15088dc2f81fe391c3923bec73e23a9662efc9c229c6a00905090565b600067ffffffffffffffff82169050919050565b61016d81610150565b82525050565b60006020820190506101886000830184610164565b92915050565b61493a8061019d6000396000f3fe608060405234801561001057600080fd5b506004361061014d5760003560e01c80638da5cb5b116100c3578063e30c39781161007c578063e30c397814610366578063ed4b50a814610384578063f2fde38b146103b4578063f718c586146103d0578063fb5af2a214610400578063ffa1ad741461041e5761014d565b80638da5cb5b14610290578063af4c4fd5146102ae578063b16a394f146102cc578063ba47e32a146102fc578063c0c53b8b1461031a578063d9f9eb9a146103365761014d565b806354fd4d501161011557806354fd4d50146101f4578063652377dc14610212578063715018a61461022e57806379ba5097146102385780638c752c75146102425780638c952748146102605761014d565b806301ffc9a7146101525780631134b480146101825780631c4c7fd81461019e57806331969e57146101ba57806348d36920146101d8575b600080fd5b61016c60048036038101906101679190612c93565b61043c565b6040516101799190612cdb565b60405180910390f35b61019c60048036038101906101979190612d2c565b6104b6565b005b6101b860048036038101906101b39190612db7565b6104d1565b005b6101c2610526565b6040516101cf9190612df3565b60405180910390f35b6101f260048036038101906101ed9190612d2c565b610559565b005b6101fc610574565b6040516102099190612e9e565b60405180910390f35b61022c60048036038101906102279190612d2c565b6105b1565b005b6102366105cc565b005b6102406105e0565b005b61024a61066f565b6040516102579190612ecf565b60405180910390f35b61027a6004803603810190610275919061301f565b610682565b60405161028791906130c7565b60405180910390f35b6102986106d3565b6040516102a59190612df3565b60405180910390f35b6102b661070b565b6040516102c39190612ecf565b60405180910390f35b6102e660048036038101906102e1919061301f565b61071e565b6040516102f39190612ecf565b60405180910390f35b61030461079a565b6040516103119190612ecf565b60405180910390f35b610334600480360381019061032f91906130e2565b6107ad565b005b610350600480360381019061034b9190613195565b610cd9565b60405161035d9190613425565b60405180910390f35b61036e610d11565b60405161037b9190612df3565b60405180910390f35b61039e60048036038101906103999190613447565b610d49565b6040516103ab9190613500565b60405180910390f35b6103ce60048036038101906103c99190612db7565b610e96565b005b6103ea60048036038101906103e591906135e5565b610f52565b6040516103f7919061374e565b60405180910390f35b61040861113f565b604051610415919061382c565b60405180910390f35b610426611221565b6040516104339190612e9e565b60405180910390f35b60007fd125cf2d000000000000000000000000000000000000000000000000000000007bffffffffffffffffffffffffffffffffffffffffffffffffffffffff1916827bffffffffffffffffffffffffffffffffffffffffffffffffffffffff191614806104af57506104ae8261125a565b5b9050919050565b6104be6112c4565b806104c761134b565b6003018190555050565b6104d96112c4565b806104e261134b565b60000160006101000a81548173ffffffffffffffffffffffffffffffffffffffff021916908373ffffffffffffffffffffffffffffffffffffffff16021790555050565b600061053061134b565b60000160009054906101000a900473ffffffffffffffffffffffffffffffffffffffff16905090565b6105616112c4565b8061056a61134b565b6002018190555050565b60606040518060400160405280600c81526020017f332e302e302d626574612e310000000000000000000000000000000000000000815250905090565b6105b96112c4565b806105c261134b565b6001018190555050565b6105d46112c4565b6105de6000611373565b565b60006105ea6113b3565b90508073ffffffffffffffffffffffffffffffffffffffff1661060b610d11565b73ffffffffffffffffffffffffffffffffffffffff161461066357806040517f118cdaa700000000000000000000000000000000000000000000000000000000815260040161065a9190612df3565b60405180910390fd5b61066c81611373565b50565b600061067961134b565b60030154905090565b600061068c6113bb565b6000018260405161069d919061388a565b908152602001604051809103902060009054906101000a900473ffffffffffffffffffffffffffffffffffffffff169050919050565b6000806106de6113e3565b90508060000160009054906101000a900473ffffffffffffffffffffffffffffffffffffffff1691505090565b600061071561134b565b60010154905090565b6000806107296113bb565b6002018360405161073a919061388a565b908152602001604051809103902054905060008103610785576040517f59a674c000000000000000000000000000000000000000000000000000000000815260040160405180910390fd5b8061078f906138d0565b905080915050919050565b60006107a461134b565b60020154905090565b60006107b761140b565b905060008160000160089054906101000a900460ff1615905060008260000160009054906101000a900467ffffffffffffffff1690506000808267ffffffffffffffff161480156108055750825b9050600060018367ffffffffffffffff1614801561083a575060003073ffffffffffffffffffffffffffffffffffffffff163b145b905081158015610848575080155b1561087f576040517ff92ee8a900000000000000000000000000000000000000000000000000000000815260040160405180910390fd5b60018560000160006101000a81548167ffffffffffffffff021916908367ffffffffffffffff16021790555083156108cf5760018560000160086101000a81548160ff0219169083151502179055505b61090f6040518060400160405280600681526020017f75736572494400000000000000000000000000000000000000000000000000008152506000611433565b61094f6040518060400160405280601081526020017f63697263756974517565727948617368000000000000000000000000000000008152506001611433565b61098f6040518060400160405280600b81526020017f69737375657253746174650000000000000000000000000000000000000000008152506002611433565b6109cf6040518060400160405280600681526020017f6c696e6b494400000000000000000000000000000000000000000000000000008152506003611433565b610a0f6040518060400160405280600981526020017f6e756c6c696669657200000000000000000000000000000000000000000000008152506004611433565b610a4f6040518060400160405280600e81526020017f6f70657261746f724f75747075740000000000000000000000000000000000008152506005611433565b610a8f6040518060400160405280600981526020017f70726f6f665479706500000000000000000000000000000000000000000000008152506006611433565b610acf6040518060400160405280600981526020017f72657175657374494400000000000000000000000000000000000000000000008152506007611433565b610b0f6040518060400160405280600981526020017f6368616c6c656e676500000000000000000000000000000000000000000000008152506008611433565b610b4f6040518060400160405280600881526020017f67697374526f6f740000000000000000000000000000000000000000000000008152506009611433565b610b8f6040518060400160405280600881526020017f6973737565724944000000000000000000000000000000000000000000000000815250600a611433565b610bcf6040518060400160405280601681526020017f697373756572436c61696d4e6f6e526576537461746500000000000000000000815250600b611433565b610c0f6040518060400160405280600981526020017f74696d657374616d700000000000000000000000000000000000000000000000815250600c611433565b610c4f6040518060400160405280601081526020017f6973424a4a41757468456e61626c656400000000000000000000000000000000815250600d611433565b610c7388886040518060600160405280602581526020016148e0602591398961146f565b8315610ccf5760008560000160086101000a81548160ff0219169083151502179055507fc7f505b2f371ae2175ee4913f4499e1f2633a7b5936321eed1cdaeb6115181d26001604051610cc69190613948565b60405180910390a15b5050505050505050565b606060008585810190610cec9190613c06565b9050610d0381610cfd8a8a856114f9565b8b6116bc565b915050979650505050505050565b600080610d1c6117f1565b90508060000160009054906101000a900473ffffffffffffffffffffffffffffffffffffffff1691505090565b610d51612b7d565b60008484810190610d629190613c06565b90507fdab5ca4f3738dce0cd25851a4aa9160ebdfb1678ef20ca14c9a3e9217058455a60001b838051906020012003610db7576040518060400160405280848152602001826101200151815250915050610e8f565b7fa6ade9d39b76f319076fc4ad150ee37167dd21433b39e1d533a5d6b635762abe60001b838051906020012003610e0a576040518060400160405280848152602001826101800151815250915050610e8f565b7f24cea8e4716dcdf091e4abcbd3ea617d9a5dd308b90afb5da0d75e56b3c0bc9560001b838051906020012003610e5d576040518060400160405280848152602001826101400151815250915050610e8f565b6040517f53bebd1b00000000000000000000000000000000000000000000000000000000815260040160405180910390fd5b9392505050565b610e9e6112c4565b6000610ea86117f1565b9050818160000160006101000a81548173ffffffffffffffffffffffffffffffffffffffff021916908373ffffffffffffffffffffffffffffffffffffffff1602179055508173ffffffffffffffffffffffffffffffffffffffff16610f0c6106d3565b73ffffffffffffffffffffffffffffffffffffffff167f38d16b8cac22d99fc7c124b9cd0de2d3fa1faef420bfe791d8c362d765e2270060405160405180910390a35050565b610f5a612b97565b6000604051806101c0016040528084600381518110610f7c57610f7b613c4f565b5b6020026020010151815260200184600481518110610f9d57610f9c613c4f565b5b6020026020010151815260200184600581518110610fbe57610fbd613c4f565b5b6020026020010151815260200184600681518110610fdf57610fde613c4f565b5b6020026020010151815260200184600d8151811061100057610fff613c4f565b5b602002602001015181526020018460008151811061102157611020613c4f565b5b602002602001015181526020018460028151811061104257611041613c4f565b5b602002602001015181526020018460018151811061106357611062613c4f565b5b602002602001015181526020018460078151811061108457611083613c4f565b5b60200260200101518152602001846008815181106110a5576110a4613c4f565b5b60200260200101518152602001846009815181106110c6576110c5613c4f565b5b6020026020010151815260200184600a815181106110e7576110e6613c4f565b5b6020026020010151815260200184600b8151811061110857611107613c4f565b5b6020026020010151815260200184600c8151811061112957611128613c4f565b5b6020026020010151815250905080915050919050565b60606111496113bb565b600101805480602002602001604051908101604052809291908181526020016000905b8282101561121857838290600052602060002001805461118b90613cad565b80601f01602080910402602001604051908101604052809291908181526020018280546111b790613cad565b80156112045780601f106111d957610100808354040283529160200191611204565b820191906000526020600020905b8154815290600101906020018083116111e757829003601f168201915b50505050508152602001906001019061116c565b50505050905090565b6040518060400160405280600c81526020017f332e302e302d626574612e31000000000000000000000000000000000000000081525081565b60007f01ffc9a7000000000000000000000000000000000000000000000000000000007bffffffffffffffffffffffffffffffffffffffffffffffffffffffff1916827bffffffffffffffffffffffffffffffffffffffffffffffffffffffff1916149050919050565b6112cc6113b3565b73ffffffffffffffffffffffffffffffffffffffff166112ea6106d3565b73ffffffffffffffffffffffffffffffffffffffff16146113495761130d6113b3565b6040517f118cdaa70000000000000000000000000000000000000000000000000000000081526004016113409190612df3565b60405180910390fd5b565b60007f28c92975a30f1f2f7970a65953987652034d896ba2d3b7a4961ada9e18287500905090565b600061137d6117f1565b90508060000160006101000a81549073ffffffffffffffffffffffffffffffffffffffff02191690556113af82611819565b5050565b600033905090565b60007fd90b97ccc3cb854254aeec1e5c25748ff7146358b68741074181b650621e5d00905090565b60007f9016d09d72d40fdae2fd8ceac6b6234c7706214fd39c1cd1e609a0528c199300905090565b60007ff0c57e16840df040f15088dc2f81fe391c3923bec73e23a9662efc9c229c6a00905090565b8061143d90613cde565b9050806114486113bb565b60020183604051611459919061388a565b9081526020016040518091039020819055505050565b600061147961134b565b9050610e108160010181905550610e108160020181905550610e108160030181905550848160000160006101000a81548173ffffffffffffffffffffffffffffffffffffffff021916908373ffffffffffffffffffffffffffffffffffffffff1602179055506114e983856118f0565b6114f282611ac1565b5050505050565b611501612b97565b60018260e001515114611540576040517fdda7f5f800000000000000000000000000000000000000000000000000000000815260040160405180910390fd5b60008060008087878101906115559190613e88565b935093509350935060006115878760e0015160008151811061157a57611579613c4f565b5b6020026020010151610682565b9050600073ffffffffffffffffffffffffffffffffffffffff168173ffffffffffffffffffffffffffffffffffffffff16036115ef576040517f01924e0400000000000000000000000000000000000000000000000000000000815260040160405180910390fd5b8073ffffffffffffffffffffffffffffffffffffffff16632612907c858585896040518563ffffffff1660e01b815260040161162e949392919061413d565b602060405180830381865afa15801561164b573d6000803e3d6000fd5b505050506040513d601f19601f8201168201806040525081019061166f91906141a0565b6116a5576040517f39c40f4f00000000000000000000000000000000000000000000000000000000815260040160405180910390fd5b6116ae85610f52565b955050505050509392505050565b60606116d18361016001518560c00151611ad5565b6116df836101a00151611b56565b6116f28461012001518460000151611bf0565b6117058461016001518460600151611c5d565b6117188360200151856101400151611ca9565b61172b8361016001518460c00151611cf5565b61173f836101600151846101800151611d7d565b60018360800151036117635761175e8360a00151846101400151611e6c565b611772565b6117718360a0015183611f86565b5b61178183610120015183611fd4565b8360a001518360e00151146117d7578360a001518360e001516040517f63b31ad00000000000000000000000000000000000000000000000000000000081526004016117ce9291906141cd565b60405180910390fd5b6117e8836010866040015114612045565b90509392505050565b60007f237e158222e3e6968b72b9db0d8043aacf074ad9f650f0d1606b4d82ee432c00905090565b60006118236113e3565b905060008160000160009054906101000a900473ffffffffffffffffffffffffffffffffffffffff169050828260000160006101000a81548173ffffffffffffffffffffffffffffffffffffffff021916908373ffffffffffffffffffffffffffffffffffffffff1602179055508273ffffffffffffffffffffffffffffffffffffffff168173ffffffffffffffffffffffffffffffffffffffff167f8be0079c531659141344cd1fd0a4f28419497f9722a3daafe3b4186f6b6457e060405160405180910390a3505050565b600073ffffffffffffffffffffffffffffffffffffffff168173ffffffffffffffffffffffffffffffffffffffff160361196157816040517f5a94a35a0000000000000000000000000000000000000000000000000000000081526004016119589190612e9e565b60405180910390fd5b600073ffffffffffffffffffffffffffffffffffffffff166119816113bb565b60000183604051611992919061388a565b908152602001604051809103902060009054906101000a900473ffffffffffffffffffffffffffffffffffffffff1673ffffffffffffffffffffffffffffffffffffffff1614611a1957816040517f5b56ea99000000000000000000000000000000000000000000000000000000008152600401611a109190612e9e565b60405180910390fd5b611a216113bb565b60010182908060018154018082558091505060019003906000526020600020016000909190919091509081611a569190614398565b5080611a606113bb565b60000183604051611a71919061388a565b908152602001604051809103902060006101000a81548173ffffffffffffffffffffffffffffffffffffffff021916908373ffffffffffffffffffffffffffffffffffffffff1602179055505050565b611ac961241a565b611ad28161245a565b50565b600081510315611b525760005b8151811015611b1f57818181518110611afe57611afd613c4f565b5b60200260200101518303611b125750611b52565b8080600101915050611ae2565b506040517f2ea0be4500000000000000000000000000000000000000000000000000000000815260040160405180910390fd5b5050565b61012c42611b64919061446a565b811115611b9d576040517ff163e34200000000000000000000000000000000000000000000000000000000815260040160405180910390fd5b80611ba661134b565b60020154611bb4919061446a565b421115611bed576040517f380a0ae700000000000000000000000000000000000000000000000000000000815260040160405180910390fd5b50565b600082148015611c005750600081145b611c595760008214158015611c16575060008114155b611c595781816040517fd4038e02000000000000000000000000000000000000000000000000000000008152600401611c509291906141cd565b60405180910390fd5b5050565b60008214158015611c6e5750808214155b15611ca5576040517fad17992200000000000000000000000000000000000000000000000000000000815260040160405180910390fd5b5050565b60008114158015611cba5750600082145b15611cf1576040517fed2f72f900000000000000000000000000000000000000000000000000000000815260040160405180910390fd5b5050565b611cfd6124e0565b73ffffffffffffffffffffffffffffffffffffffff166309478aa483836040518363ffffffff1660e01b8152600401611d379291906141cd565b602060405180830381865afa158015611d54573d6000803e3d6000fd5b505050506040513d601f19601f82011682018060405250810190611d7891906144b3565b505050565b6000611d8761134b565b90506000611d936124e0565b73ffffffffffffffffffffffffffffffffffffffff166309478aa485856040518363ffffffff1660e01b8152600401611dcd9291906141cd565b602060405180830381865afa158015611dea573d6000803e3d6000fd5b505050506040513d601f19601f82011682018060405250810190611e0e91906144b3565b905060008114158015611e2f5750808260010154611e2c919061446a565b42115b15611e66576040517fd80f392600000000000000000000000000000000000000000000000000000000815260040160405180910390fd5b50505050565b6000611e7661134b565b90506000611e8384612513565b905060008260000160009054906101000a900473ffffffffffffffffffffffffffffffffffffffff1673ffffffffffffffffffffffffffffffffffffffff16630a7a546983866040518363ffffffff1660e01b8152600401611ee692919061451b565b602060405180830381865afa158015611f03573d6000803e3d6000fd5b505050506040513d601f19601f82011682018060405250810190611f2791906144b3565b905060008114158015611f485750808360030154611f45919061446a565b42115b15611f7f576040517f3e33ca0600000000000000000000000000000000000000000000000000000000815260040160405180910390fd5b5050505050565b611f98611f9283612513565b82612536565b8214611fd0576040517fa5483eeb00000000000000000000000000000000000000000000000000000000815260040160405180910390fd5b5050565b8073ffffffffffffffffffffffffffffffffffffffff16611ff48361255f565b73ffffffffffffffffffffffffffffffffffffffff1614612041576040517f5ac46d9400000000000000000000000000000000000000000000000000000000815260040160405180910390fd5b5050565b6060600082612055576005612058565b60065b60ff16905060008167ffffffffffffffff81111561207957612078612ef4565b5b6040519080825280602002602001820160405280156120b257816020015b61209f612c06565b8152602001906001900390816120975790505b509050600060405180606001604052806040518060400160405280600681526020017f757365724944000000000000000000000000000000000000000000000000000081525081526020018760a0015181526020016040518060200160405280600081525081525082828061212690613cde565b93508151811061213957612138613c4f565b5b602002602001018190525060405180606001604052806040518060400160405280600681526020017f6c696e6b49440000000000000000000000000000000000000000000000000000815250815260200187600001518152602001604051806020016040528060008152508152508282806121b390613cde565b9350815181106121c6576121c5613c4f565b5b602002602001018190525060405180606001604052806040518060400160405280600981526020017f6e756c6c696669657200000000000000000000000000000000000000000000008152508152602001876020015181526020016040518060200160405280600081525081525082828061224090613cde565b93508151811061225357612252613c4f565b5b602002602001018190525060405180606001604052806040518060400160405280600981526020017f74696d657374616d7000000000000000000000000000000000000000000000008152508152602001876101a001518152602001604051806020016040528060008152508152508282806122ce90613cde565b9350815181106122e1576122e0613c4f565b5b602002602001018190525060405180606001604052806040518060400160405280600881526020017f6973737565724944000000000000000000000000000000000000000000000000815250815260200187610160015181526020016040518060200160405280600081525081525082828061235c90613cde565b93508151811061236f5761236e613c4f565b5b6020026020010181905250841561240e5760405180606001604052806040518060400160405280600e81526020017f6f70657261746f724f7574707574000000000000000000000000000000000000815250815260200187604001518152602001604051806020016040528060008152508152508282806123ef90613cde565b93508151811061240257612401613c4f565b5b60200260200101819052505b81935050505092915050565b6124226125db565b612458576040517fd7e6bcf800000000000000000000000000000000000000000000000000000000815260040160405180910390fd5b565b61246261241a565b600073ffffffffffffffffffffffffffffffffffffffff168173ffffffffffffffffffffffffffffffffffffffff16036124d45760006040517f1e4fbdf70000000000000000000000000000000000000000000000000000000081526004016124cb9190612df3565b60405180910390fd5b6124dd81611373565b50565b60006124ea61134b565b60000160009054906101000a900473ffffffffffffffffffffffffffffffffffffffff16905090565b6000612526612521836125fb565b612747565b61252f90614569565b9050919050565b600080612542836127a4565b905061255684612551836125fb565b6127c4565b91505092915050565b60008173ffffffffffffffffffffffffffffffffffffffff1682146125bb57816040517f476265e00000000000000000000000000000000000000000000000000000000081526004016125b29190612ecf565b60405180910390fd5b6125d46125cf6125ca846125fb565b612747565b6128d1565b9050919050565b60006125e561140b565b60000160089054906101000a900460ff16905090565b600081905060087eff00ff00ff00ff00ff00ff00ff00ff00ff00ff00ff00ff00ff00ff00ff00ff8216901b60087fff00ff00ff00ff00ff00ff00ff00ff00ff00ff00ff00ff00ff00ff00ff00ff008316901c17905060107dffff0000ffff0000ffff0000ffff0000ffff0000ffff0000ffff0000ffff8216901b60107fffff0000ffff0000ffff0000ffff0000ffff0000ffff0000ffff0000ffff00008316901c17905060207bffffffff00000000ffffffff00000000ffffffff00000000ffffffff8216901b60207fffffffff00000000ffffffff00000000ffffffff00000000ffffffff000000008316901c179050604077ffffffffffffffff0000000000000000ffffffffffffffff8216901b60407fffffffffffffffff0000000000000000ffffffffffffffff00000000000000008316901c179050608081901b608082901c179050919050565b6060602067ffffffffffffffff81111561276457612763612ef4565b5b6040519080825280601f01601f1916602001820160405280156127965781602001600182028036833780820191505090505b509050816020820152919050565b60008173ffffffffffffffffffffffffffffffffffffffff169050919050565b6000806127d86127d3846125fb565b612747565b905060006127f582601b84516127ee91906145d0565b601b6128df565b905060006128228660405160200161280d9190614625565b604051602081830303815290604052836128f5565b9050600061283761283283612909565b6129a0565b905060008160405160200161284c9190614684565b6040516020818303038152906040529050600061286984836128f5565b9050601f8151146128b257601f6040517f33b0459b0000000000000000000000000000000000000000000000000000000081526004016128a991906146da565b60405180910390fd5b6128c36128be826129bf565b6125fb565b965050505050505092915050565b600060148201519050919050565b60606128ec8484846129d5565b90509392505050565b60606129018383612af3565b905092915050565b6000601d82511461295257601d6040517f03c4ee2b0000000000000000000000000000000000000000000000000000000081526004016129499190614730565b60405180910390fd5b60005b825181101561299a5782818151811061297157612970613c4f565b5b602001015160f81c60f81b60f81c60ff168261298d919061474b565b9150806001019050612955565b50919050565b600081905060088161ffff16901b60088261ffff16901c179050919050565b6000816129cb906147a0565b60001c9050919050565b606081601f836129e5919061446a565b1015612a26576040517f08c379a0000000000000000000000000000000000000000000000000000000008152600401612a1d90614853565b60405180910390fd5b8183612a32919061446a565b84511015612a75576040517f08c379a0000000000000000000000000000000000000000000000000000000008152600401612a6c906148bf565b60405180910390fd5b6060821560008114612a965760405191506000825260208201604052612ae7565b6040519150601f8416801560200281840101858101878315602002848b0101015b81831015612ad45780518352602083019250602081019050612ab7565b50868552601f19601f8301166040525050505b50809150509392505050565b6060806040519050835180825260208201818101602087015b81831015612b295780518352602083019250602081019050612b0c565b50855192508351830184528091508282019050602086015b81831015612b5e5780518352602083019250602081019050612b41565b50601f19601f8851850115830101166040525050508091505092915050565b604051806040016040528060608152602001600081525090565b604051806101c0016040528060008152602001600081526020016000815260200160008152602001600081526020016000815260200160008152602001600081526020016000815260200160008152602001600081526020016000815260200160008152602001600081525090565b60405180606001604052806060815260200160008152602001606081525090565b6000604051905090565b600080fd5b600080fd5b60007fffffffff0000000000000000000000000000000000000000000000000000000082169050919050565b612c7081612c3b565b8114612c7b57600080fd5b50565b600081359050612c8d81612c67565b92915050565b600060208284031215612ca957612ca8612c31565b5b6000612cb784828501612c7e565b91505092915050565b60008115159050919050565b612cd581612cc0565b82525050565b6000602082019050612cf06000830184612ccc565b92915050565b6000819050919050565b612d0981612cf6565b8114612d1457600080fd5b50565b600081359050612d2681612d00565b92915050565b600060208284031215612d4257612d41612c31565b5b6000612d5084828501612d17565b91505092915050565b600073ffffffffffffffffffffffffffffffffffffffff82169050919050565b6000612d8482612d59565b9050919050565b612d9481612d79565b8114612d9f57600080fd5b50565b600081359050612db181612d8b565b92915050565b600060208284031215612dcd57612dcc612c31565b5b6000612ddb84828501612da2565b91505092915050565b612ded81612d79565b82525050565b6000602082019050612e086000830184612de4565b92915050565b600081519050919050565b600082825260208201905092915050565b60005b83811015612e48578082015181840152602081019050612e2d565b60008484015250505050565b6000601f19601f8301169050919050565b6000612e7082612e0e565b612e7a8185612e19565b9350612e8a818560208601612e2a565b612e9381612e54565b840191505092915050565b60006020820190508181036000830152612eb88184612e65565b905092915050565b612ec981612cf6565b82525050565b6000602082019050612ee46000830184612ec0565b92915050565b600080fd5b600080fd5b7f4e487b7100000000000000000000000000000000000000000000000000000000600052604160045260246000fd5b612f2c82612e54565b810181811067ffffffffffffffff82111715612f4b57612f4a612ef4565b5b80604052505050565b6000612f5e612c27565b9050612f6a8282612f23565b919050565b600067ffffffffffffffff821115612f8a57612f89612ef4565b5b612f9382612e54565b9050602081019050919050565b82818337600083830152505050565b6000612fc2612fbd84612f6f565b612f54565b905082815260208101848484011115612fde57612fdd612eef565b5b612fe9848285612fa0565b509392505050565b600082601f83011261300657613005612eea565b5b8135613016848260208601612faf565b91505092915050565b60006020828403121561303557613034612c31565b5b600082013567ffffffffffffffff81111561305357613052612c36565b5b61305f84828501612ff1565b91505092915050565b6000819050919050565b600061308d61308861308384612d59565b613068565b612d59565b9050919050565b600061309f82613072565b9050919050565b60006130b182613094565b9050919050565b6130c1816130a6565b82525050565b60006020820190506130dc60008301846130b8565b92915050565b6000806000606084860312156130fb576130fa612c31565b5b600061310986828701612da2565b935050602061311a86828701612da2565b925050604061312b86828701612da2565b9150509250925092565b600080fd5b600080fd5b60008083601f84011261315557613154612eea565b5b8235905067ffffffffffffffff81111561317257613171613135565b5b60208301915083600182028301111561318e5761318d61313a565b5b9250929050565b60008060008060008060006080888a0312156131b4576131b3612c31565b5b60006131c28a828b01612da2565b975050602088013567ffffffffffffffff8111156131e3576131e2612c36565b5b6131ef8a828b0161313f565b9650965050604088013567ffffffffffffffff81111561321257613211612c36565b5b61321e8a828b0161313f565b9450945050606088013567ffffffffffffffff81111561324157613240612c36565b5b61324d8a828b0161313f565b925092505092959891949750929550565b600081519050919050565b600082825260208201905092915050565b6000819050602082019050919050565b600082825260208201905092915050565b60006132a682612e0e565b6132b0818561328a565b93506132c0818560208601612e2a565b6132c981612e54565b840191505092915050565b6132dd81612cf6565b82525050565b600081519050919050565b600082825260208201905092915050565b600061330a826132e3565b61331481856132ee565b9350613324818560208601612e2a565b61332d81612e54565b840191505092915050565b60006060830160008301518482036000860152613355828261329b565b915050602083015161336a60208601826132d4565b506040830151848203604086015261338282826132ff565b9150508091505092915050565b600061339b8383613338565b905092915050565b6000602082019050919050565b60006133bb8261325e565b6133c58185613269565b9350836020820285016133d78561327a565b8060005b8581101561341357848403895281516133f4858261338f565b94506133ff836133a3565b925060208a019950506001810190506133db565b50829750879550505050505092915050565b6000602082019050818103600083015261343f81846133b0565b905092915050565b6000806000604084860312156134605761345f612c31565b5b600084013567ffffffffffffffff81111561347e5761347d612c36565b5b61348a8682870161313f565b9350935050602084013567ffffffffffffffff8111156134ad576134ac612c36565b5b6134b986828701612ff1565b9150509250925092565b600060408301600083015184820360008601526134e0828261329b565b91505060208301516134f560208601826132d4565b508091505092915050565b6000602082019050818103600083015261351a81846134c3565b905092915050565b600067ffffffffffffffff82111561353d5761353c612ef4565b5b602082029050602081019050919050565b600061356161355c84613522565b612f54565b905080838252602082019050602084028301858111156135845761358361313a565b5b835b818110156135ad57806135998882612d17565b845260208401935050602081019050613586565b5050509392505050565b600082601f8301126135cc576135cb612eea565b5b81356135dc84826020860161354e565b91505092915050565b6000602082840312156135fb576135fa612c31565b5b600082013567ffffffffffffffff81111561361957613618612c36565b5b613625848285016135b7565b91505092915050565b6101c08201600082015161364560008501826132d4565b50602082015161365860208501826132d4565b50604082015161366b60408501826132d4565b50606082015161367e60608501826132d4565b50608082015161369160808501826132d4565b5060a08201516136a460a08501826132d4565b5060c08201516136b760c08501826132d4565b5060e08201516136ca60e08501826132d4565b506101008201516136df6101008501826132d4565b506101208201516136f46101208501826132d4565b506101408201516137096101408501826132d4565b5061016082015161371e6101608501826132d4565b506101808201516137336101808501826132d4565b506101a08201516137486101a08501826132d4565b50505050565b60006101c082019050613764600083018461362e565b92915050565b600081519050919050565b600082825260208201905092915050565b6000819050602082019050919050565b60006137a2838361329b565b905092915050565b6000602082019050919050565b60006137c28261376a565b6137cc8185613775565b9350836020820285016137de85613786565b8060005b8581101561381a57848403895281516137fb8582613796565b9450613806836137aa565b925060208a019950506001810190506137e2565b50829750879550505050505092915050565b6000602082019050818103600083015261384681846137b7565b905092915050565b600081905092915050565b600061386482612e0e565b61386e818561384e565b935061387e818560208601612e2a565b80840191505092915050565b60006138968284613859565b915081905092915050565b7f4e487b7100000000000000000000000000000000000000000000000000000000600052601160045260246000fd5b60006138db82612cf6565b9150600082036138ee576138ed6138a1565b5b600182039050919050565b6000819050919050565b600067ffffffffffffffff82169050919050565b600061393261392d613928846138f9565b613068565b613903565b9050919050565b61394281613917565b82525050565b600060208201905061395d6000830184613939565b92915050565b600080fd5b600080fd5b600067ffffffffffffffff82111561398857613987612ef4565b5b602082029050602081019050919050565b60006139ac6139a78461396d565b612f54565b905080838252602082019050602084028301858111156139cf576139ce61313a565b5b835b81811015613a1657803567ffffffffffffffff8111156139f4576139f3612eea565b5b808601613a018982612ff1565b855260208501945050506020810190506139d1565b5050509392505050565b600082601f830112613a3557613a34612eea565b5b8135613a45848260208601613999565b91505092915050565b613a5781612cc0565b8114613a6257600080fd5b50565b600081359050613a7481613a4e565b92915050565b60006101a08284031215613a9157613a90613963565b5b613a9c6101a0612f54565b90506000613aac84828501612d17565b6000830152506020613ac084828501612d17565b6020830152506040613ad484828501612d17565b6040830152506060613ae884828501612d17565b606083015250608082013567ffffffffffffffff811115613b0c57613b0b613968565b5b613b18848285016135b7565b60808301525060a0613b2c84828501612d17565b60a08301525060c082013567ffffffffffffffff811115613b5057613b4f613968565b5b613b5c848285016135b7565b60c08301525060e082013567ffffffffffffffff811115613b8057613b7f613968565b5b613b8c84828501613a20565b60e083015250610100613ba184828501613a65565b61010083015250610120613bb784828501612d17565b61012083015250610140613bcd84828501612d17565b61014083015250610160613be384828501612d17565b61016083015250610180613bf984828501612d17565b6101808301525092915050565b600060208284031215613c1c57613c1b612c31565b5b600082013567ffffffffffffffff811115613c3a57613c39612c36565b5b613c4684828501613a7a565b91505092915050565b7f4e487b7100000000000000000000000000000000000000000000000000000000600052603260045260246000fd5b7f4e487b7100000000000000000000000000000000000000000000000000000000600052602260045260246000fd5b60006002820490506001821680613cc557607f821691505b602082108103613cd857613cd7613c7e565b5b50919050565b6000613ce982612cf6565b91507fffffffffffffffffffffffffffffffffffffffffffffffffffffffffffffffff8203613d1b57613d1a6138a1565b5b600182019050919050565b600067ffffffffffffffff821115613d4157613d40612ef4565b5b602082029050919050565b6000613d5f613d5a84613d26565b612f54565b90508060208402830185811115613d7957613d7861313a565b5b835b81811015613da25780613d8e8882612d17565b845260208401935050602081019050613d7b565b5050509392505050565b600082601f830112613dc157613dc0612eea565b5b6002613dce848285613d4c565b91505092915050565b600067ffffffffffffffff821115613df257613df1612ef4565b5b602082029050919050565b6000613e10613e0b84613dd7565b612f54565b90508060408402830185811115613e2a57613e2961313a565b5b835b81811015613e535780613e3f8882613dac565b845260208401935050604081019050613e2c565b5050509392505050565b600082601f830112613e7257613e71612eea565b5b6002613e7f848285613dfd565b91505092915050565b6000806000806101208587031215613ea357613ea2612c31565b5b600085013567ffffffffffffffff811115613ec157613ec0612c36565b5b613ecd878288016135b7565b9450506020613ede87828801613dac565b9350506060613eef87828801613e5d565b92505060e0613f0087828801613dac565b91505092959194509250565b600060029050919050565b600081905092915050565b6000819050919050565b6000613f3883836132d4565b60208301905092915050565b6000602082019050919050565b613f5a81613f0c565b613f648184613f17565b9250613f6f82613f22565b8060005b83811015613fa0578151613f878782613f2c565b9650613f9283613f44565b925050600181019050613f73565b505050505050565b600060029050919050565b600081905092915050565b6000819050919050565b600081905092915050565b613fdc81613f0c565b613fe68184613fc8565b9250613ff182613f22565b8060005b838110156140225781516140098782613f2c565b965061401483613f44565b925050600181019050613ff5565b505050505050565b60006140368383613fd3565b60408301905092915050565b6000602082019050919050565b61405881613fa8565b6140628184613fb3565b925061406d82613fbe565b8060005b8381101561409e578151614085878261402a565b965061409083614042565b925050600181019050614071565b505050505050565b600081519050919050565b600082825260208201905092915050565b6000819050602082019050919050565b6000602082019050919050565b60006140ea826140a6565b6140f481856140b1565b93506140ff836140c2565b8060005b838110156141305781516141178882613f2c565b9750614122836140d2565b925050600181019050614103565b5085935050505092915050565b6000610120820190506141536000830187613f51565b614160604083018661404f565b61416d60c0830185613f51565b81810361010083015261418081846140df565b905095945050505050565b60008151905061419a81613a4e565b92915050565b6000602082840312156141b6576141b5612c31565b5b60006141c48482850161418b565b91505092915050565b60006040820190506141e26000830185612ec0565b6141ef6020830184612ec0565b9392505050565b60008190508160005260206000209050919050565b60006020601f8301049050919050565b600082821b905092915050565b6000600883026142587fffffffffffffffffffffffffffffffffffffffffffffffffffffffffffffffff8261421b565b614262868361421b565b95508019841693508086168417925050509392505050565b600061429561429061428b84612cf6565b613068565b612cf6565b9050919050565b6000819050919050565b6142af8361427a565b6142c36142bb8261429c565b848454614228565b825550505050565b600090565b6142d86142cb565b6142e38184846142a6565b505050565b5b81811015614307576142fc6000826142d0565b6001810190506142e9565b5050565b601f82111561434c5761431d816141f6565b6143268461420b565b81016020851015614335578190505b6143496143418561420b565b8301826142e8565b50505b505050565b600082821c905092915050565b600061436f60001984600802614351565b1980831691505092915050565b6000614388838361435e565b9150826002028217905092915050565b6143a182612e0e565b67ffffffffffffffff8111156143ba576143b9612ef4565b5b6143c48254613cad565b6143cf82828561430b565b600060209050601f83116001811461440257600084156143f0578287015190505b6143fa858261437c565b865550614462565b601f198416614410866141f6565b60005b8281101561443857848901518255600182019150602085019450602081019050614413565b868310156144555784890151614451601f89168261435e565b8355505b6001600288020188555050505b505050505050565b600061447582612cf6565b915061448083612cf6565b9250828201905080821115614498576144976138a1565b5b92915050565b6000815190506144ad81612d00565b92915050565b6000602082840312156144c9576144c8612c31565b5b60006144d78482850161449e565b91505092915050565b60007fffff00000000000000000000000000000000000000000000000000000000000082169050919050565b614515816144e0565b82525050565b6000604082019050614530600083018561450c565b61453d6020830184612ec0565b9392505050565b6000819050602082019050919050565b600061456082516144e0565b80915050919050565b6000614574826132e3565b8261457e84614544565b905061458981614554565b925060028210156145c9576145c47fffff0000000000000000000000000000000000000000000000000000000000008360020360080261421b565b831692505b5050919050565b60006145db82612cf6565b91506145e683612cf6565b92508282039050818111156145fe576145fd6138a1565b5b92915050565b6000819050919050565b61461f61461a826144e0565b614604565b82525050565b6000614631828461460e565b60028201915081905092915050565b600061ffff82169050919050565b60008160f01b9050919050565b60006146668261464e565b9050919050565b61467e61467982614640565b61465b565b82525050565b6000614690828461466d565b60028201915081905092915050565b6000819050919050565b60006146c46146bf6146ba8461469f565b613068565b612cf6565b9050919050565b6146d4816146a9565b82525050565b60006020820190506146ef60008301846146cb565b92915050565b6000819050919050565b600061471a614715614710846146f5565b613068565b612cf6565b9050919050565b61472a816146ff565b82525050565b60006020820190506147456000830184614721565b92915050565b600061475682614640565b915061476183614640565b9250828201905061ffff81111561477b5761477a6138a1565b5b92915050565b6000819050919050565b60006147978251614781565b80915050919050565b60006147ab826132e3565b826147b584614544565b90506147c08161478b565b92506020821015614800576147fb7fffffffffffffffffffffffffffffffffffffffffffffffffffffffffffffffff8360200360080261421b565b831692505b5050919050565b7f736c6963655f6f766572666c6f77000000000000000000000000000000000000600082015250565b600061483d600e83612e19565b915061484882614807565b602082019050919050565b6000602082019050818103600083015261486c81614830565b9050919050565b7f736c6963655f6f75744f66426f756e6473000000000000000000000000000000600082015250565b60006148a9601183612e19565b91506148b482614873565b602082019050919050565b600060208201905081810360008301526148d88161489c565b905091905056fe63726564656e7469616c41746f6d6963517565727956334f6e436861696e2d626574612e31a26469706673582212207b690e5abd3d3dd2dbebb0fdacc15e0448c7ae2aaafe545243306c3513bc0e5364736f6c634300081b0033",
  "linkReferences": {},
  "deployedLinkReferences": {}
}