{
  "_format": "hh3-artifact-1",
  "contractName": "AuthV3Validator",
  "sourceName": "contracts/validators/auth/AuthV3Validator.sol",
  "abi": [
    {
      "inputs": [],
      "stateMutability": "nonpayable",
      "type": "constructor"
    },
    {
      "inputs": [],
      "name": "GistRootIsExpired",
      "type": "error"
    },
    {
      "inputs": [],
      "name": "InvalidInitialization",
      "type": "error"
    },
    {
      "inputs": [],
      "name": "NotInitializing",
      "type": "error"
    },
    {
      "inputs": [
        {
          "internalType": "address",
          "name": "owner",
          "type": "address"
        }
      ],
      "name": "OwnableInvalidOwner",
      "type": "error"
    },
    {
      "inputs": [
        {
          "internalType": "address",
          "name": "account",
          "type": "address"
        }
      ],
      "name": "OwnableUnauthorizedAccount",
      "type": "error"
    },
    {
      "inputs": [],
      "name": "ProofIsNotValid",
      "type": "error"
    },
    {
      "inputs": [],
      "name": "VerifierAddressShouldNotBeZero",
      "type": "error"
    },
    {
      "anonymous": false,
      "inputs": [
        {
          "indexed": false,
          "internalType": "uint64",
          "name": "version",
          "type": "uint64"
        }
      ],
      "name": "Initialized",
      "type": "event"
    },
    {
      "anonymous": false,
      "inputs": [
        {
          "indexed": true,
          "internalType": "address",
          "name": "previousOwner",
          "type": "address"
        },
        {
          "indexed": true,
          "internalType": "address",
          "name": "newOwner",
          "type": "address"
        }
      ],
      "name": "OwnershipTransferStarted",
      "type": "event"
    },
    {
      "anonymous": false,
      "inputs": [
        {
          "indexed": true,
          "internalType": "address",
          "name": "previousOwner",
          "type": "address"
        },
        {
          "indexed": true,
          "internalType": "address",
          "name": "newOwner",
          "type": "address"
        }
      ],
      "name": "OwnershipTransferred",
      "type": "event"
    },
    {
      "inputs": [],
      "name": "VERSION",
      "outputs": [
        {
          "internalType": "string",
          "name": "",
          "type": "string"
        }
      ],
      "stateMutability": "view",
      "type": "function"
    },
    {
      "inputs": [],
      "name": "acceptOwnership",
      "outputs": [],
      "stateMutability": "nonpayable",
      "type": "function"
    },
    {
      "inputs": [],
      "name": "getGISTRootExpirationTimeout",
      "outputs": [
        {
          "internalType": "uint256",
          "name": "",
          "type": "uint256"
        }
      ],
      "stateMutability": "view",
      "type": "function"
    },
    {
      "inputs": [],
      "name": "getProofExpirationTimeout",
      "outputs": [
        {
          "internalType": "uint256",
          "name": "",
          "type": "uint256"
        }
      ],
      "stateMutability": "view",
      "type": "function"
    },
    {
      "inputs": [],
      "name": "getRevocationStateExpirationTimeout",
      "outputs": [
        {
          "internalType": "uint256",
          "name": "",
          "type": "uint256"
        }
      ],
      "stateMutability": "view",
      "type": "function"
    },
    {
      "inputs": [
        {
          "internalType": "string",
          "name": "circuitId",
          "type": "string"
        }
      ],
      "name": "getVerifierByCircuitId",
      "outputs": [
        {
          "internalType": "contract IGroth16Verifier",
          "name": "",
          "type": "address"
        }
      ],
      "stateMutability": "view",
      "type": "function"
    },
    {
      "inputs": [
        {
          "internalType": "address",
          "name": "_stateContractAddr",
          "type": "address"
        },
        {
          "internalType": "address",
          "name": "_verifierContractAddr",
          "type": "address"
        },
        {
          "internalType": "address",
          "name": "owner",
          "type": "address"
        }
      ],
      "name": "initialize",
      "outputs": [],
      "stateMutability": "nonpayable",
      "type": "function"
    },
    {
      "inputs": [],
      "name": "owner",
      "outputs": [
        {
          "internalType": "address",
          "name": "",
          "type": "address"
        }
      ],
      "stateMutability": "view",
      "type": "function"
    },
    {
      "inputs": [
        {
          "internalType": "uint256[]",
          "name": "inputs",
          "type": "uint256[]"
        }
      ],
      "name": "parsePubSignals",
      "outputs": [
        {
          "components": [
            {
              "internalType": "uint256",
              "name": "userID",
              "type": "uint256"
            },
            {
              "internalType": "uint256",
              "name": "challenge",
              "type": "uint256"
            },
            {
              "internalType": "uint256",
              "name": "gistRoot",
              "type": "uint256"
            }
          ],
          "internalType": "struct AuthV3Validator.PubSignals",
          "name": "",
          "type": "tuple"
        }
      ],
      "stateMutability": "pure",
      "type": "function"
    },
    {
      "inputs": [],
      "name": "pendingOwner",
      "outputs": [
        {
          "internalType": "address",
          "name": "",
          "type": "address"
        }
      ],
      "stateMutability": "view",
      "type": "function"
    },
    {
      "inputs": [],
      "name": "renounceOwnership",
      "outputs": [],
      "stateMutability": "nonpayable",
      "type": "function"
    },
    {
      "inputs": [
        {
          "internalType": "uint256",
          "name": "expirationTimeout",
          "type": "uint256"
        }
      ],
      "name": "setGISTRootExpirationTimeout",
      "outputs": [],
      "stateMutability": "nonpayable",
      "type": "function"
    },
    {
      "inputs": [
        {
          "internalType": "uint256",
          "name": "expirationTimeout",
          "type": "uint256"
        }
      ],
      "name": "setProofExpirationTimeout",
      "outputs": [],
      "stateMutability": "nonpayable",
      "type": "function"
    },
    {
      "inputs": [
        {
          "internalType": "uint256",
          "name": "expirationTimeout",
          "type": "uint256"
        }
      ],
      "name": "setRevocationStateExpirationTimeout",
      "outputs": [],
      "stateMutability": "nonpayable",
      "type": "function"
    },
    {
      "inputs": [
        {
          "internalType": "bytes4",
          "name": "interfaceId",
          "type": "bytes4"
        }
      ],
      "name": "supportsInterface",
      "outputs": [
        {
          "internalType": "bool",
          "name": "",
          "type": "bool"
        }
      ],
      "stateMutability": "view",
      "type": "function"
    },
    {
      "inputs": [
        {
          "internalType": "address",
          "name": "newOwner",
          "type": "address"
        }
      ],
      "name": "transferOwnership",
      "outputs": [],
      "stateMutability": "nonpayable",
      "type": "function"
    },
    {
      "inputs": [
        {
          "internalType": "address",
          "name": "sender",
          "type": "address"
        },
        {
          "internalType": "bytes",
          "name": "proof",
          "type": "bytes"
        },
        {
          "internalType": "bytes",
          "name": "params",
          "type": "bytes"
        }
      ],
      "name": "verify",
      "outputs": [
        {
          "internalType": "uint256",
          "name": "userID",
          "type": "uint256"
        },
        {
          "components": [
            {
              "internalType": "string",
              "name": "name",
              "type": "string"
            },
            {
              "internalType": "uint256",
              "name": "value",
              "type": "uint256"
            }
          ],
          "internalType": "struct IAuthValidator.AuthResponseField[]",
          "name": "",
          "type": "tuple[]"
        }
      ],
      "stateMutability": "view",
      "type": "function"
    },
    {
      "inputs": [],
      "name": "version",
      "outputs": [
        {
          "internalType": "string",
          "name": "",
          "type": "string"
        }
      ],
      "stateMutability": "pure",
      "type": "function"
    }
  ],
  "bytecode": "0x608060405234801561000f575f5ffd5b5061001e61002360201b60201c565b61019e565b5f61003261012160201b60201c565b9050805f0160089054906101000a900460ff161561007c576040517ff92ee8a900000000000000000000000000000000000000000000000000000000815260040160405180910390fd5b67ffffffffffffffff8016815f015f9054906101000a900467ffffffffffffffff1667ffffffffffffffff161461011e5767ffffffffffffffff815f015f6101000a81548167ffffffffffffffff021916908367ffffffffffffffff1602179055507fc7f505b2f371ae2175ee4913f4499e1f2633a7b5936321eed1cdaeb6115181d267ffffffffffffffff6040516101159190610185565b60405180910390a15b50565b5f5f61013161013a60201b60201c565b90508091505090565b5f7ff0c57e16840df040f15088dc2f81fe391c3923bec73e23a9662efc9c229c6a005f1b905090565b5f67ffffffffffffffff82169050919050565b61017f81610163565b82525050565b5f6020820190506101985f830184610176565b92915050565b6126c5806101ab5f395ff3fe608060405234801561000f575f5ffd5b5060043610610114575f3560e01c80638c952748116100a0578063c0c53b8b1161006f578063c0c53b8b146102a7578063e30c3978146102c3578063f2fde38b146102e1578063f718c586146102fd578063ffa1ad741461032d57610114565b80638c9527481461021d5780638da5cb5b1461024d578063af4c4fd51461026b578063ba47e32a1461028957610114565b80635ade6633116100e75780635ade66331461019e578063652377dc146101cf578063715018a6146101eb57806379ba5097146101f55780638c752c75146101ff57610114565b806301ffc9a7146101185780631134b4801461014857806348d369201461016457806354fd4d5014610180575b5f5ffd5b610132600480360381019061012d919061149c565b61034b565b60405161013f91906114e1565b60405180910390f35b610162600480360381019061015d919061152d565b6103c4565b005b61017e6004803603810190610179919061152d565b6103df565b005b6101886103fa565b60405161019591906115c8565b60405180910390f35b6101b860048036038101906101b391906116a3565b610437565b6040516101c692919061188f565b60405180910390f35b6101e960048036038101906101e4919061152d565b61055b565b005b6101f3610576565b005b6101fd610589565b005b610207610617565b60405161021491906118bd565b60405180910390f35b610237600480360381019061023291906119fe565b610629565b6040516102449190611aa0565b60405180910390f35b610255610677565b6040516102629190611ac8565b60405180910390f35b6102736106ac565b60405161028091906118bd565b60405180910390f35b6102916106be565b60405161029e91906118bd565b60405180910390f35b6102c160048036038101906102bc9190611ae1565b6106d0565b005b6102cb61088b565b6040516102d89190611ac8565b60405180910390f35b6102fb60048036038101906102f69190611b31565b6108c0565b005b61031760048036038101906103129190611c1c565b610979565b6040516103249190611ca3565b60405180910390f35b6103356109f8565b60405161034291906115c8565b60405180910390f35b5f7f0e232b63000000000000000000000000000000000000000000000000000000007bffffffffffffffffffffffffffffffffffffffffffffffffffffffff1916827bffffffffffffffffffffffffffffffffffffffffffffffffffffffff191614806103bd57506103bc82610a31565b5b9050919050565b6103cc610a9a565b806103d5610b21565b6005018190555050565b6103e7610a9a565b806103f0610b21565b6004018190555050565b60606040518060400160405280600581526020017f312e302e30000000000000000000000000000000000000000000000000000000815250905090565b5f60605f5f5f5f898981019061044d9190611e18565b93509350935093505f61045f85610979565b9050610472815f01518260400151610b48565b61047e85858585610c3f565b5f600167ffffffffffffffff81111561049a576104996118da565b5b6040519080825280602002602001820160405280156104d357816020015b6104c061132d565b8152602001906001900390816104b85790505b50905060405180604001604052806040518060400160405280600981526020017f6368616c6c656e6765000000000000000000000000000000000000000000000081525081526020018360200151815250815f8151811061053757610536611e99565b5b6020026020010181905250815f015181975097505050505050509550959350505050565b610563610a9a565b8061056c610b21565b6003018190555050565b61057e610a9a565b6105875f610da0565b565b5f610592610ddd565b90508073ffffffffffffffffffffffffffffffffffffffff166105b361088b565b73ffffffffffffffffffffffffffffffffffffffff161461060b57806040517f118cdaa70000000000000000000000000000000000000000000000000000000081526004016106029190611ac8565b60405180910390fd5b61061481610da0565b50565b5f610620610b21565b60050154905090565b5f610632610b21565b5f01826040516106429190611f00565b90815260200160405180910390205f9054906101000a900473ffffffffffffffffffffffffffffffffffffffff169050919050565b5f5f610681610de4565b9050805f015f9054906101000a900473ffffffffffffffffffffffffffffffffffffffff1691505090565b5f6106b5610b21565b60030154905090565b5f6106c7610b21565b60040154905090565b5f6106d9610e0b565b90505f815f0160089054906101000a900460ff161590505f825f015f9054906101000a900467ffffffffffffffff1690505f5f8267ffffffffffffffff161480156107215750825b90505f60018367ffffffffffffffff1614801561075457505f3073ffffffffffffffffffffffffffffffffffffffff163b145b905081158015610762575080155b15610799576040517ff92ee8a900000000000000000000000000000000000000000000000000000000815260040160405180910390fd5b6001855f015f6101000a81548167ffffffffffffffff021916908367ffffffffffffffff16021790555083156107e6576001855f0160086101000a81548160ff0219169083151502179055505b61082788886040518060400160405280600681526020017f617574685633000000000000000000000000000000000000000000000000000081525089610e1e565b8315610881575f855f0160086101000a81548160ff0219169083151502179055507fc7f505b2f371ae2175ee4913f4499e1f2633a7b5936321eed1cdaeb6115181d260016040516108789190611f62565b60405180910390a15b5050505050505050565b5f5f610895610f1b565b9050805f015f9054906101000a900473ffffffffffffffffffffffffffffffffffffffff1691505090565b6108c8610a9a565b5f6108d1610f1b565b905081815f015f6101000a81548173ffffffffffffffffffffffffffffffffffffffff021916908373ffffffffffffffffffffffffffffffffffffffff1602179055508173ffffffffffffffffffffffffffffffffffffffff16610933610677565b73ffffffffffffffffffffffffffffffffffffffff167f38d16b8cac22d99fc7c124b9cd0de2d3fa1faef420bfe791d8c362d765e2270060405160405180910390a35050565b610981611346565b5f6040518060600160405280845f815181106109a05761099f611e99565b5b60200260200101518152602001846001815181106109c1576109c0611e99565b5b60200260200101518152602001846002815181106109e2576109e1611e99565b5b6020026020010151815250905080915050919050565b6040518060400160405280600581526020017f312e302e3000000000000000000000000000000000000000000000000000000081525081565b5f7f01ffc9a7000000000000000000000000000000000000000000000000000000007bffffffffffffffffffffffffffffffffffffffffffffffffffffffff1916827bffffffffffffffffffffffffffffffffffffffffffffffffffffffff1916149050919050565b610aa2610ddd565b73ffffffffffffffffffffffffffffffffffffffff16610ac0610677565b73ffffffffffffffffffffffffffffffffffffffff1614610b1f57610ae3610ddd565b6040517f118cdaa7000000000000000000000000000000000000000000000000000000008152600401610b169190611ac8565b60405180910390fd5b565b5f7f7fe691da87985c64c608122bfac53db2c7a946a7d2b2047c2fbe14f540aa8800905090565b5f610b51610b21565b90505f610b5d84610f42565b90505f610b68610f64565b73ffffffffffffffffffffffffffffffffffffffff16630a7a546983866040518363ffffffff1660e01b8152600401610ba2929190611fb5565b602060405180830381865afa158015610bbd573d5f5f3e3d5ffd5b505050506040513d601f19601f82011682018060405250810190610be19190611ff0565b90505f8114158015610c015750808360050154610bfe9190612048565b42115b15610c38576040517f3e33ca0600000000000000000000000000000000000000000000000000000000815260040160405180910390fd5b5050505050565b5f610c7e6040518060400160405280600681526020017f6175746856330000000000000000000000000000000000000000000000000000815250610629565b90505f73ffffffffffffffffffffffffffffffffffffffff168173ffffffffffffffffffffffffffffffffffffffff1603610ce5576040517f01924e0400000000000000000000000000000000000000000000000000000000815260040160405180910390fd5b8073ffffffffffffffffffffffffffffffffffffffff16632612907c858585896040518563ffffffff1660e01b8152600401610d249493929190612298565b602060405180830381865afa158015610d3f573d5f5f3e3d5ffd5b505050506040513d601f19601f82011682018060405250810190610d63919061230e565b610d99576040517f39c40f4f00000000000000000000000000000000000000000000000000000000815260040160405180910390fd5b5050505050565b5f610da9610f1b565b9050805f015f6101000a81549073ffffffffffffffffffffffffffffffffffffffff0219169055610dd982610f95565b5050565b5f33905090565b5f7f9016d09d72d40fdae2fd8ceac6b6234c7706214fd39c1cd1e609a0528c199300905090565b5f5f610e15611066565b90508091505090565b5f610e27610b21565b9050610e108160030181905550610e108160040181905550610e10816005018190555060405180602001604052808481525081600101906001610e6b929190611364565b5083815f0184604051610e7e9190611f00565b90815260200160405180910390205f6101000a81548173ffffffffffffffffffffffffffffffffffffffff021916908373ffffffffffffffffffffffffffffffffffffffff16021790555084816002015f6101000a81548173ffffffffffffffffffffffffffffffffffffffff021916908373ffffffffffffffffffffffffffffffffffffffff160217905550610f148261108f565b5050505050565b5f7f237e158222e3e6968b72b9db0d8043aacf074ad9f650f0d1606b4d82ee432c00905090565b5f610f54610f4f836110a3565b6111ee565b610f5d90612372565b9050919050565b5f610f6d610b21565b6002015f9054906101000a900473ffffffffffffffffffffffffffffffffffffffff16905090565b5f610f9e610de4565b90505f815f015f9054906101000a900473ffffffffffffffffffffffffffffffffffffffff16905082825f015f6101000a81548173ffffffffffffffffffffffffffffffffffffffff021916908373ffffffffffffffffffffffffffffffffffffffff1602179055508273ffffffffffffffffffffffffffffffffffffffff168173ffffffffffffffffffffffffffffffffffffffff167f8be0079c531659141344cd1fd0a4f28419497f9722a3daafe3b4186f6b6457e060405160405180910390a3505050565b5f7ff0c57e16840df040f15088dc2f81fe391c3923bec73e23a9662efc9c229c6a005f1b905090565b61109761124b565b6110a08161128b565b50565b5f81905060087eff00ff00ff00ff00ff00ff00ff00ff00ff00ff00ff00ff00ff00ff00ff00ff8216901b60087fff00ff00ff00ff00ff00ff00ff00ff00ff00ff00ff00ff00ff00ff00ff00ff008316901c17905060107dffff0000ffff0000ffff0000ffff0000ffff0000ffff0000ffff0000ffff8216901b60107fffff0000ffff0000ffff0000ffff0000ffff0000ffff0000ffff0000ffff00008316901c17905060207bffffffff00000000ffffffff00000000ffffffff00000000ffffffff8216901b60207fffffffff00000000ffffffff00000000ffffffff00000000ffffffff000000008316901c179050604077ffffffffffffffff0000000000000000ffffffffffffffff8216901b60407fffffffffffffffff0000000000000000ffffffffffffffff00000000000000008316901c179050608081901b608082901c179050919050565b6060602067ffffffffffffffff81111561120b5761120a6118da565b5b6040519080825280601f01601f19166020018201604052801561123d5781602001600182028036833780820191505090505b509050816020820152919050565b61125361130f565b611289576040517fd7e6bcf800000000000000000000000000000000000000000000000000000000815260040160405180910390fd5b565b61129361124b565b5f73ffffffffffffffffffffffffffffffffffffffff168173ffffffffffffffffffffffffffffffffffffffff1603611303575f6040517f1e4fbdf70000000000000000000000000000000000000000000000000000000081526004016112fa9190611ac8565b60405180910390fd5b61130c81610da0565b50565b5f611318610e0b565b5f0160089054906101000a900460ff16905090565b6040518060400160405280606081526020015f81525090565b60405180606001604052805f81526020015f81526020015f81525090565b828054828255905f5260205f209081019282156113aa579160200282015b828111156113a957825182908161139991906125c0565b5091602001919060010190611382565b5b5090506113b791906113bb565b5090565b5b808211156113da575f81816113d191906113de565b506001016113bc565b5090565b5080546113ea90612405565b5f825580601f106113fb5750611418565b601f0160209004905f5260205f2090810190611417919061141b565b5b50565b5b80821115611432575f815f90555060010161141c565b5090565b5f604051905090565b5f5ffd5b5f5ffd5b5f7fffffffff0000000000000000000000000000000000000000000000000000000082169050919050565b61147b81611447565b8114611485575f5ffd5b50565b5f8135905061149681611472565b92915050565b5f602082840312156114b1576114b061143f565b5b5f6114be84828501611488565b91505092915050565b5f8115159050919050565b6114db816114c7565b82525050565b5f6020820190506114f45f8301846114d2565b92915050565b5f819050919050565b61150c816114fa565b8114611516575f5ffd5b50565b5f8135905061152781611503565b92915050565b5f602082840312156115425761154161143f565b5b5f61154f84828501611519565b91505092915050565b5f81519050919050565b5f82825260208201905092915050565b8281835e5f83830152505050565b5f601f19601f8301169050919050565b5f61159a82611558565b6115a48185611562565b93506115b4818560208601611572565b6115bd81611580565b840191505092915050565b5f6020820190508181035f8301526115e08184611590565b905092915050565b5f73ffffffffffffffffffffffffffffffffffffffff82169050919050565b5f611611826115e8565b9050919050565b61162181611607565b811461162b575f5ffd5b50565b5f8135905061163c81611618565b92915050565b5f5ffd5b5f5ffd5b5f5ffd5b5f5f83601f84011261166357611662611642565b5b8235905067ffffffffffffffff8111156116805761167f611646565b5b60208301915083600182028301111561169c5761169b61164a565b5b9250929050565b5f5f5f5f5f606086880312156116bc576116bb61143f565b5b5f6116c98882890161162e565b955050602086013567ffffffffffffffff8111156116ea576116e9611443565b5b6116f68882890161164e565b9450945050604086013567ffffffffffffffff81111561171957611718611443565b5b6117258882890161164e565b92509250509295509295909350565b61173d816114fa565b82525050565b5f81519050919050565b5f82825260208201905092915050565b5f819050602082019050919050565b5f82825260208201905092915050565b5f61178682611558565b611790818561176c565b93506117a0818560208601611572565b6117a981611580565b840191505092915050565b6117bd816114fa565b82525050565b5f604083015f8301518482035f8601526117dd828261177c565b91505060208301516117f260208601826117b4565b508091505092915050565b5f61180883836117c3565b905092915050565b5f602082019050919050565b5f61182682611743565b611830818561174d565b9350836020820285016118428561175d565b805f5b8581101561187d578484038952815161185e85826117fd565b945061186983611810565b925060208a01995050600181019050611845565b50829750879550505050505092915050565b5f6040820190506118a25f830185611734565b81810360208301526118b4818461181c565b90509392505050565b5f6020820190506118d05f830184611734565b92915050565b5f5ffd5b7f4e487b71000000000000000000000000000000000000000000000000000000005f52604160045260245ffd5b61191082611580565b810181811067ffffffffffffffff8211171561192f5761192e6118da565b5b80604052505050565b5f611941611436565b905061194d8282611907565b919050565b5f67ffffffffffffffff82111561196c5761196b6118da565b5b61197582611580565b9050602081019050919050565b828183375f83830152505050565b5f6119a261199d84611952565b611938565b9050828152602081018484840111156119be576119bd6118d6565b5b6119c9848285611982565b509392505050565b5f82601f8301126119e5576119e4611642565b5b81356119f5848260208601611990565b91505092915050565b5f60208284031215611a1357611a1261143f565b5b5f82013567ffffffffffffffff811115611a3057611a2f611443565b5b611a3c848285016119d1565b91505092915050565b5f819050919050565b5f611a68611a63611a5e846115e8565b611a45565b6115e8565b9050919050565b5f611a7982611a4e565b9050919050565b5f611a8a82611a6f565b9050919050565b611a9a81611a80565b82525050565b5f602082019050611ab35f830184611a91565b92915050565b611ac281611607565b82525050565b5f602082019050611adb5f830184611ab9565b92915050565b5f5f5f60608486031215611af857611af761143f565b5b5f611b058682870161162e565b9350506020611b168682870161162e565b9250506040611b278682870161162e565b9150509250925092565b5f60208284031215611b4657611b4561143f565b5b5f611b538482850161162e565b91505092915050565b5f67ffffffffffffffff821115611b7657611b756118da565b5b602082029050602081019050919050565b5f611b99611b9484611b5c565b611938565b90508083825260208201905060208402830185811115611bbc57611bbb61164a565b5b835b81811015611be55780611bd18882611519565b845260208401935050602081019050611bbe565b5050509392505050565b5f82601f830112611c0357611c02611642565b5b8135611c13848260208601611b87565b91505092915050565b5f60208284031215611c3157611c3061143f565b5b5f82013567ffffffffffffffff811115611c4e57611c4d611443565b5b611c5a84828501611bef565b91505092915050565b606082015f820151611c775f8501826117b4565b506020820151611c8a60208501826117b4565b506040820151611c9d60408501826117b4565b50505050565b5f606082019050611cb65f830184611c63565b92915050565b5f67ffffffffffffffff821115611cd657611cd56118da565b5b602082029050919050565b5f611cf3611cee84611cbc565b611938565b90508060208402830185811115611d0d57611d0c61164a565b5b835b81811015611d365780611d228882611519565b845260208401935050602081019050611d0f565b5050509392505050565b5f82601f830112611d5457611d53611642565b5b6002611d61848285611ce1565b91505092915050565b5f67ffffffffffffffff821115611d8457611d836118da565b5b602082029050919050565b5f611da1611d9c84611d6a565b611938565b90508060408402830185811115611dbb57611dba61164a565b5b835b81811015611de45780611dd08882611d40565b845260208401935050604081019050611dbd565b5050509392505050565b5f82601f830112611e0257611e01611642565b5b6002611e0f848285611d8f565b91505092915050565b5f5f5f5f6101208587031215611e3157611e3061143f565b5b5f85013567ffffffffffffffff811115611e4e57611e4d611443565b5b611e5a87828801611bef565b9450506020611e6b87828801611d40565b9350506060611e7c87828801611dee565b92505060e0611e8d87828801611d40565b91505092959194509250565b7f4e487b71000000000000000000000000000000000000000000000000000000005f52603260045260245ffd5b5f81905092915050565b5f611eda82611558565b611ee48185611ec6565b9350611ef4818560208601611572565b80840191505092915050565b5f611f0b8284611ed0565b915081905092915050565b5f819050919050565b5f67ffffffffffffffff82169050919050565b5f611f4c611f47611f4284611f16565b611a45565b611f1f565b9050919050565b611f5c81611f32565b82525050565b5f602082019050611f755f830184611f53565b92915050565b5f7fffff00000000000000000000000000000000000000000000000000000000000082169050919050565b611faf81611f7b565b82525050565b5f604082019050611fc85f830185611fa6565b611fd56020830184611734565b9392505050565b5f81519050611fea81611503565b92915050565b5f602082840312156120055761200461143f565b5b5f61201284828501611fdc565b91505092915050565b7f4e487b71000000000000000000000000000000000000000000000000000000005f52601160045260245ffd5b5f612052826114fa565b915061205d836114fa565b92508282019050808211156120755761207461201b565b5b92915050565b5f60029050919050565b5f81905092915050565b5f819050919050565b5f6120a383836117b4565b60208301905092915050565b5f602082019050919050565b6120c48161207b565b6120ce8184612085565b92506120d98261208f565b805f5b838110156121095781516120f08782612098565b96506120fb836120af565b9250506001810190506120dc565b505050505050565b5f60029050919050565b5f81905092915050565b5f819050919050565b5f81905092915050565b6121418161207b565b61214b818461212e565b92506121568261208f565b805f5b8381101561218657815161216d8782612098565b9650612178836120af565b925050600181019050612159565b505050505050565b5f6121998383612138565b60408301905092915050565b5f602082019050919050565b6121ba81612111565b6121c4818461211b565b92506121cf82612125565b805f5b838110156121ff5781516121e6878261218e565b96506121f1836121a5565b9250506001810190506121d2565b505050505050565b5f81519050919050565b5f82825260208201905092915050565b5f819050602082019050919050565b5f602082019050919050565b5f61224682612207565b6122508185612211565b935061225b83612221565b805f5b8381101561228b5781516122728882612098565b975061227d83612230565b92505060018101905061225e565b5085935050505092915050565b5f610120820190506122ac5f8301876120bb565b6122b960408301866121b1565b6122c660c08301856120bb565b8181036101008301526122d9818461223c565b905095945050505050565b6122ed816114c7565b81146122f7575f5ffd5b50565b5f81519050612308816122e4565b92915050565b5f602082840312156123235761232261143f565b5b5f612330848285016122fa565b91505092915050565b5f81519050919050565b5f819050602082019050919050565b5f61235d8251611f7b565b80915050919050565b5f82821b905092915050565b5f61237c82612339565b8261238684612343565b905061239181612352565b925060028210156123d1576123cc7fffff00000000000000000000000000000000000000000000000000000000000083600203600802612366565b831692505b5050919050565b7f4e487b71000000000000000000000000000000000000000000000000000000005f52602260045260245ffd5b5f600282049050600182168061241c57607f821691505b60208210810361242f5761242e6123d8565b5b50919050565b5f819050815f5260205f209050919050565b5f6020601f8301049050919050565b5f600883026124857fffffffffffffffffffffffffffffffffffffffffffffffffffffffffffffffff82612366565b61248f8683612366565b95508019841693508086168417925050509392505050565b5f6124c16124bc6124b7846114fa565b611a45565b6114fa565b9050919050565b5f819050919050565b6124da836124a7565b6124ee6124e6826124c8565b848454612456565b825550505050565b5f5f905090565b6125056124f6565b6125108184846124d1565b505050565b5b81811015612533576125285f826124fd565b600181019050612516565b5050565b601f8211156125785761254981612435565b61255284612447565b81016020851015612561578190505b61257561256d85612447565b830182612515565b50505b505050565b5f82821c905092915050565b5f6125985f198460080261257d565b1980831691505092915050565b5f6125b08383612589565b9150826002028217905092915050565b6125c982611558565b67ffffffffffffffff8111156125e2576125e16118da565b5b6125ec8254612405565b6125f7828285612537565b5f60209050601f831160018114612628575f8415612616578287015190505b61262085826125a5565b865550612687565b601f19841661263686612435565b5f5b8281101561265d57848901518255600182019150602085019450602081019050612638565b8683101561267a5784890151612676601f891682612589565b8355505b6001600288020188555050505b50505050505056fea264697066735822122048249d76a40b6298afa8580e276f18c0aed1be8948e3430f35bf7fe906025b7964736f6c634300081b0033",
  "linkReferences": {},
  "deployedLinkReferences": {},
  "immutableReferences": {},
  "inputSourceName": "project/contracts/validators/auth/AuthV3Validator.sol",
  "buildInfoId": "solc-0_8_27-b671705d74a53b6b2fe696b87862a2c2c3d03377"
}