{
  "_format": "hh-sol-artifact-1",
  "contractName": "State",
  "sourceName": "contracts/state/State.sol",
  "abi": [
    {
      "inputs": [],
      "stateMutability": "nonpayable",
      "type": "constructor"
    },
    {
      "inputs": [
        {
          "internalType": "uint256",
          "name": "length",
          "type": "uint256"
        }
      ],
      "name": "ChecksumLengthRequired",
      "type": "error"
    },
    {
      "inputs": [],
      "name": "CrossChainGistRootNotFound",
      "type": "error"
    },
    {
      "inputs": [],
      "name": "CrossChainStateNotFound",
      "type": "error"
    },
    {
      "inputs": [],
      "name": "DefaultIdTypeNotInitialized",
      "type": "error"
    },
    {
      "inputs": [],
      "name": "GistRootEntryNotFound",
      "type": "error"
    },
    {
      "inputs": [
        {
          "internalType": "uint256",
          "name": "length",
          "type": "uint256"
        }
      ],
      "name": "IdBytesLengthRequired",
      "type": "error"
    },
    {
      "inputs": [],
      "name": "IdShouldNotBeZero",
      "type": "error"
    },
    {
      "inputs": [],
      "name": "IdTypeNotSupported",
      "type": "error"
    },
    {
      "inputs": [],
      "name": "InvalidInitialization",
      "type": "error"
    },
    {
      "inputs": [],
      "name": "MethodParamsShouldBeEmpty",
      "type": "error"
    },
    {
      "inputs": [],
      "name": "NewStateAlreadyExists",
      "type": "error"
    },
    {
      "inputs": [],
      "name": "NewStateShouldNotBeZero",
      "type": "error"
    },
    {
      "inputs": [],
      "name": "NotInitializing",
      "type": "error"
    },
    {
      "inputs": [],
      "name": "OldStateDoesNotMatchTheLatestState",
      "type": "error"
    },
    {
      "inputs": [],
      "name": "OldStateIsGenesisButIdentityAlreadyExists",
      "type": "error"
    },
    {
      "inputs": [],
      "name": "OldStateIsNotGenesisButIdentityDoesNotExist",
      "type": "error"
    },
    {
      "inputs": [],
      "name": "OldStateShouldBeZero",
      "type": "error"
    },
    {
      "inputs": [
        {
          "internalType": "address",
          "name": "owner",
          "type": "address"
        }
      ],
      "name": "OwnableInvalidOwner",
      "type": "error"
    },
    {
      "inputs": [
        {
          "internalType": "address",
          "name": "account",
          "type": "address"
        }
      ],
      "name": "OwnableUnauthorizedAccount",
      "type": "error"
    },
    {
      "inputs": [],
      "name": "SenderIsNotIdentityOwner",
      "type": "error"
    },
    {
      "inputs": [],
      "name": "StateEntryNotFound",
      "type": "error"
    },
    {
      "inputs": [],
      "name": "UnknownProofType",
      "type": "error"
    },
    {
      "inputs": [],
      "name": "UnknownStateTransitionMethodId",
      "type": "error"
    },
    {
      "inputs": [],
      "name": "VerifierContractAddressShouldNotBeZero",
      "type": "error"
    },
    {
      "inputs": [],
      "name": "ZeroKnowledgeProofOfStateTransitionIsNotValid",
      "type": "error"
    },
    {
      "anonymous": false,
      "inputs": [
        {
          "indexed": false,
          "internalType": "uint64",
          "name": "version",
          "type": "uint64"
        }
      ],
      "name": "Initialized",
      "type": "event"
    },
    {
      "anonymous": false,
      "inputs": [
        {
          "indexed": true,
          "internalType": "address",
          "name": "previousOwner",
          "type": "address"
        },
        {
          "indexed": true,
          "internalType": "address",
          "name": "newOwner",
          "type": "address"
        }
      ],
      "name": "OwnershipTransferStarted",
      "type": "event"
    },
    {
      "anonymous": false,
      "inputs": [
        {
          "indexed": true,
          "internalType": "address",
          "name": "previousOwner",
          "type": "address"
        },
        {
          "indexed": true,
          "internalType": "address",
          "name": "newOwner",
          "type": "address"
        }
      ],
      "name": "OwnershipTransferred",
      "type": "event"
    },
    {
      "inputs": [],
      "name": "VERSION",
      "outputs": [
        {
          "internalType": "string",
          "name": "",
          "type": "string"
        }
      ],
      "stateMutability": "view",
      "type": "function"
    },
    {
      "inputs": [],
      "name": "acceptOwnership",
      "outputs": [],
      "stateMutability": "nonpayable",
      "type": "function"
    },
    {
      "inputs": [],
      "name": "getCrossChainProofValidator",
      "outputs": [
        {
          "internalType": "address",
          "name": "",
          "type": "address"
        }
      ],
      "stateMutability": "view",
      "type": "function"
    },
    {
      "inputs": [],
      "name": "getDefaultIdType",
      "outputs": [
        {
          "internalType": "bytes2",
          "name": "",
          "type": "bytes2"
        }
      ],
      "stateMutability": "view",
      "type": "function"
    },
    {
      "inputs": [
        {
          "internalType": "uint256",
          "name": "id",
          "type": "uint256"
        }
      ],
      "name": "getGISTProof",
      "outputs": [
        {
          "components": [
            {
              "internalType": "uint256",
              "name": "root",
              "type": "uint256"
            },
            {
              "internalType": "bool",
              "name": "existence",
              "type": "bool"
            },
            {
              "internalType": "uint256[64]",
              "name": "siblings",
              "type": "uint256[64]"
            },
            {
              "internalType": "uint256",
              "name": "index",
              "type": "uint256"
            },
            {
              "internalType": "uint256",
              "name": "value",
              "type": "uint256"
            },
            {
              "internalType": "bool",
              "name": "auxExistence",
              "type": "bool"
            },
            {
              "internalType": "uint256",
              "name": "auxIndex",
              "type": "uint256"
            },
            {
              "internalType": "uint256",
              "name": "auxValue",
              "type": "uint256"
            }
          ],
          "internalType": "struct IState.GistProof",
          "name": "",
          "type": "tuple"
        }
      ],
      "stateMutability": "view",
      "type": "function"
    },
    {
      "inputs": [
        {
          "internalType": "uint256",
          "name": "id",
          "type": "uint256"
        },
        {
          "internalType": "uint256",
          "name": "blockNumber",
          "type": "uint256"
        }
      ],
      "name": "getGISTProofByBlock",
      "outputs": [
        {
          "components": [
            {
              "internalType": "uint256",
              "name": "root",
              "type": "uint256"
            },
            {
              "internalType": "bool",
              "name": "existence",
              "type": "bool"
            },
            {
              "internalType": "uint256[64]",
              "name": "siblings",
              "type": "uint256[64]"
            },
            {
              "internalType": "uint256",
              "name": "index",
              "type": "uint256"
            },
            {
              "internalType": "uint256",
              "name": "value",
              "type": "uint256"
            },
            {
              "internalType": "bool",
              "name": "auxExistence",
              "type": "bool"
            },
            {
              "internalType": "uint256",
              "name": "auxIndex",
              "type": "uint256"
            },
            {
              "internalType": "uint256",
              "name": "auxValue",
              "type": "uint256"
            }
          ],
          "internalType": "struct IState.GistProof",
          "name": "",
          "type": "tuple"
        }
      ],
      "stateMutability": "view",
      "type": "function"
    },
    {
      "inputs": [
        {
          "internalType": "uint256",
          "name": "id",
          "type": "uint256"
        },
        {
          "internalType": "uint256",
          "name": "root",
          "type": "uint256"
        }
      ],
      "name": "getGISTProofByRoot",
      "outputs": [
        {
          "components": [
            {
              "internalType": "uint256",
              "name": "root",
              "type": "uint256"
            },
            {
              "internalType": "bool",
              "name": "existence",
              "type": "bool"
            },
            {
              "internalType": "uint256[64]",
              "name": "siblings",
              "type": "uint256[64]"
            },
            {
              "internalType": "uint256",
              "name": "index",
              "type": "uint256"
            },
            {
              "internalType": "uint256",
              "name": "value",
              "type": "uint256"
            },
            {
              "internalType": "bool",
              "name": "auxExistence",
              "type": "bool"
            },
            {
              "internalType": "uint256",
              "name": "auxIndex",
              "type": "uint256"
            },
            {
              "internalType": "uint256",
              "name": "auxValue",
              "type": "uint256"
            }
          ],
          "internalType": "struct IState.GistProof",
          "name": "",
          "type": "tuple"
        }
      ],
      "stateMutability": "view",
      "type": "function"
    },
    {
      "inputs": [
        {
          "internalType": "uint256",
          "name": "id",
          "type": "uint256"
        },
        {
          "internalType": "uint256",
          "name": "timestamp",
          "type": "uint256"
        }
      ],
      "name": "getGISTProofByTime",
      "outputs": [
        {
          "components": [
            {
              "internalType": "uint256",
              "name": "root",
              "type": "uint256"
            },
            {
              "internalType": "bool",
              "name": "existence",
              "type": "bool"
            },
            {
              "internalType": "uint256[64]",
              "name": "siblings",
              "type": "uint256[64]"
            },
            {
              "internalType": "uint256",
              "name": "index",
              "type": "uint256"
            },
            {
              "internalType": "uint256",
              "name": "value",
              "type": "uint256"
            },
            {
              "internalType": "bool",
              "name": "auxExistence",
              "type": "bool"
            },
            {
              "internalType": "uint256",
              "name": "auxIndex",
              "type": "uint256"
            },
            {
              "internalType": "uint256",
              "name": "auxValue",
              "type": "uint256"
            }
          ],
          "internalType": "struct IState.GistProof",
          "name": "",
          "type": "tuple"
        }
      ],
      "stateMutability": "view",
      "type": "function"
    },
    {
      "inputs": [],
      "name": "getGISTRoot",
      "outputs": [
        {
          "internalType": "uint256",
          "name": "",
          "type": "uint256"
        }
      ],
      "stateMutability": "view",
      "type": "function"
    },
    {
      "inputs": [
        {
          "internalType": "uint256",
          "name": "start",
          "type": "uint256"
        },
        {
          "internalType": "uint256",
          "name": "length",
          "type": "uint256"
        }
      ],
      "name": "getGISTRootHistory",
      "outputs": [
        {
          "components": [
            {
              "internalType": "uint256",
              "name": "root",
              "type": "uint256"
            },
            {
              "internalType": "uint256",
              "name": "replacedByRoot",
              "type": "uint256"
            },
            {
              "internalType": "uint256",
              "name": "createdAtTimestamp",
              "type": "uint256"
            },
            {
              "internalType": "uint256",
              "name": "replacedAtTimestamp",
              "type": "uint256"
            },
            {
              "internalType": "uint256",
              "name": "createdAtBlock",
              "type": "uint256"
            },
            {
              "internalType": "uint256",
              "name": "replacedAtBlock",
              "type": "uint256"
            }
          ],
          "internalType": "struct IState.GistRootInfo[]",
          "name": "",
          "type": "tuple[]"
        }
      ],
      "stateMutability": "view",
      "type": "function"
    },
    {
      "inputs": [],
      "name": "getGISTRootHistoryLength",
      "outputs": [
        {
          "internalType": "uint256",
          "name": "",
          "type": "uint256"
        }
      ],
      "stateMutability": "view",
      "type": "function"
    },
    {
      "inputs": [
        {
          "internalType": "uint256",
          "name": "root",
          "type": "uint256"
        }
      ],
      "name": "getGISTRootInfo",
      "outputs": [
        {
          "components": [
            {
              "internalType": "uint256",
              "name": "root",
              "type": "uint256"
            },
            {
              "internalType": "uint256",
              "name": "replacedByRoot",
              "type": "uint256"
            },
            {
              "internalType": "uint256",
              "name": "createdAtTimestamp",
              "type": "uint256"
            },
            {
              "internalType": "uint256",
              "name": "replacedAtTimestamp",
              "type": "uint256"
            },
            {
              "internalType": "uint256",
              "name": "createdAtBlock",
              "type": "uint256"
            },
            {
              "internalType": "uint256",
              "name": "replacedAtBlock",
              "type": "uint256"
            }
          ],
          "internalType": "struct IState.GistRootInfo",
          "name": "",
          "type": "tuple"
        }
      ],
      "stateMutability": "view",
      "type": "function"
    },
    {
      "inputs": [
        {
          "internalType": "uint256",
          "name": "blockNumber",
          "type": "uint256"
        }
      ],
      "name": "getGISTRootInfoByBlock",
      "outputs": [
        {
          "components": [
            {
              "internalType": "uint256",
              "name": "root",
              "type": "uint256"
            },
            {
              "internalType": "uint256",
              "name": "replacedByRoot",
              "type": "uint256"
            },
            {
              "internalType": "uint256",
              "name": "createdAtTimestamp",
              "type": "uint256"
            },
            {
              "internalType": "uint256",
              "name": "replacedAtTimestamp",
              "type": "uint256"
            },
            {
              "internalType": "uint256",
              "name": "createdAtBlock",
              "type": "uint256"
            },
            {
              "internalType": "uint256",
              "name": "replacedAtBlock",
              "type": "uint256"
            }
          ],
          "internalType": "struct IState.GistRootInfo",
          "name": "",
          "type": "tuple"
        }
      ],
      "stateMutability": "view",
      "type": "function"
    },
    {
      "inputs": [
        {
          "internalType": "uint256",
          "name": "timestamp",
          "type": "uint256"
        }
      ],
      "name": "getGISTRootInfoByTime",
      "outputs": [
        {
          "components": [
            {
              "internalType": "uint256",
              "name": "root",
              "type": "uint256"
            },
            {
              "internalType": "uint256",
              "name": "replacedByRoot",
              "type": "uint256"
            },
            {
              "internalType": "uint256",
              "name": "createdAtTimestamp",
              "type": "uint256"
            },
            {
              "internalType": "uint256",
              "name": "replacedAtTimestamp",
              "type": "uint256"
            },
            {
              "internalType": "uint256",
              "name": "createdAtBlock",
              "type": "uint256"
            },
            {
              "internalType": "uint256",
              "name": "replacedAtBlock",
              "type": "uint256"
            }
          ],
          "internalType": "struct IState.GistRootInfo",
          "name": "",
          "type": "tuple"
        }
      ],
      "stateMutability": "view",
      "type": "function"
    },
    {
      "inputs": [
        {
          "internalType": "bytes2",
          "name": "idType",
          "type": "bytes2"
        },
        {
          "internalType": "uint256",
          "name": "root",
          "type": "uint256"
        }
      ],
      "name": "getGistRootReplacedAt",
      "outputs": [
        {
          "internalType": "uint256",
          "name": "",
          "type": "uint256"
        }
      ],
      "stateMutability": "view",
      "type": "function"
    },
    {
      "inputs": [
        {
          "internalType": "uint256",
          "name": "id",
          "type": "uint256"
        }
      ],
      "name": "getIdTypeIfSupported",
      "outputs": [
        {
          "internalType": "bytes2",
          "name": "",
          "type": "bytes2"
        }
      ],
      "stateMutability": "view",
      "type": "function"
    },
    {
      "inputs": [
        {
          "internalType": "uint256",
          "name": "id",
          "type": "uint256"
        }
      ],
      "name": "getStateInfoById",
      "outputs": [
        {
          "components": [
            {
              "internalType": "uint256",
              "name": "id",
              "type": "uint256"
            },
            {
              "internalType": "uint256",
              "name": "state",
              "type": "uint256"
            },
            {
              "internalType": "uint256",
              "name": "replacedByState",
              "type": "uint256"
            },
            {
              "internalType": "uint256",
              "name": "createdAtTimestamp",
              "type": "uint256"
            },
            {
              "internalType": "uint256",
              "name": "replacedAtTimestamp",
              "type": "uint256"
            },
            {
              "internalType": "uint256",
              "name": "createdAtBlock",
              "type": "uint256"
            },
            {
              "internalType": "uint256",
              "name": "replacedAtBlock",
              "type": "uint256"
            }
          ],
          "internalType": "struct IState.StateInfo",
          "name": "",
          "type": "tuple"
        }
      ],
      "stateMutability": "view",
      "type": "function"
    },
    {
      "inputs": [
        {
          "internalType": "uint256",
          "name": "id",
          "type": "uint256"
        },
        {
          "internalType": "uint256",
          "name": "state",
          "type": "uint256"
        }
      ],
      "name": "getStateInfoByIdAndState",
      "outputs": [
        {
          "components": [
            {
              "internalType": "uint256",
              "name": "id",
              "type": "uint256"
            },
            {
              "internalType": "uint256",
              "name": "state",
              "type": "uint256"
            },
            {
              "internalType": "uint256",
              "name": "replacedByState",
              "type": "uint256"
            },
            {
              "internalType": "uint256",
              "name": "createdAtTimestamp",
              "type": "uint256"
            },
            {
              "internalType": "uint256",
              "name": "replacedAtTimestamp",
              "type": "uint256"
            },
            {
              "internalType": "uint256",
              "name": "createdAtBlock",
              "type": "uint256"
            },
            {
              "internalType": "uint256",
              "name": "replacedAtBlock",
              "type": "uint256"
            }
          ],
          "internalType": "struct IState.StateInfo",
          "name": "",
          "type": "tuple"
        }
      ],
      "stateMutability": "view",
      "type": "function"
    },
    {
      "inputs": [
        {
          "internalType": "uint256",
          "name": "id",
          "type": "uint256"
        },
        {
          "internalType": "uint256",
          "name": "startIndex",
          "type": "uint256"
        },
        {
          "internalType": "uint256",
          "name": "length",
          "type": "uint256"
        }
      ],
      "name": "getStateInfoHistoryById",
      "outputs": [
        {
          "components": [
            {
              "internalType": "uint256",
              "name": "id",
              "type": "uint256"
            },
            {
              "internalType": "uint256",
              "name": "state",
              "type": "uint256"
            },
            {
              "internalType": "uint256",
              "name": "replacedByState",
              "type": "uint256"
            },
            {
              "internalType": "uint256",
              "name": "createdAtTimestamp",
              "type": "uint256"
            },
            {
              "internalType": "uint256",
              "name": "replacedAtTimestamp",
              "type": "uint256"
            },
            {
              "internalType": "uint256",
              "name": "createdAtBlock",
              "type": "uint256"
            },
            {
              "internalType": "uint256",
              "name": "replacedAtBlock",
              "type": "uint256"
            }
          ],
          "internalType": "struct IState.StateInfo[]",
          "name": "",
          "type": "tuple[]"
        }
      ],
      "stateMutability": "view",
      "type": "function"
    },
    {
      "inputs": [
        {
          "internalType": "uint256",
          "name": "id",
          "type": "uint256"
        }
      ],
      "name": "getStateInfoHistoryLengthById",
      "outputs": [
        {
          "internalType": "uint256",
          "name": "",
          "type": "uint256"
        }
      ],
      "stateMutability": "view",
      "type": "function"
    },
    {
      "inputs": [
        {
          "internalType": "uint256",
          "name": "id",
          "type": "uint256"
        },
        {
          "internalType": "uint256",
          "name": "state",
          "type": "uint256"
        }
      ],
      "name": "getStateReplacedAt",
      "outputs": [
        {
          "internalType": "uint256",
          "name": "",
          "type": "uint256"
        }
      ],
      "stateMutability": "view",
      "type": "function"
    },
    {
      "inputs": [],
      "name": "getVerifier",
      "outputs": [
        {
          "internalType": "address",
          "name": "",
          "type": "address"
        }
      ],
      "stateMutability": "view",
      "type": "function"
    },
    {
      "inputs": [
        {
          "internalType": "uint256",
          "name": "id",
          "type": "uint256"
        }
      ],
      "name": "idExists",
      "outputs": [
        {
          "internalType": "bool",
          "name": "",
          "type": "bool"
        }
      ],
      "stateMutability": "view",
      "type": "function"
    },
    {
      "inputs": [
        {
          "internalType": "contract IStateTransitionVerifier",
          "name": "verifierContractAddr",
          "type": "address"
        },
        {
          "internalType": "bytes2",
          "name": "defaultIdType",
          "type": "bytes2"
        },
        {
          "internalType": "address",
          "name": "owner",
          "type": "address"
        },
        {
          "internalType": "contract ICrossChainProofValidator",
          "name": "validator",
          "type": "address"
        }
      ],
      "name": "initialize",
      "outputs": [],
      "stateMutability": "nonpayable",
      "type": "function"
    },
    {
      "inputs": [
        {
          "internalType": "bytes2",
          "name": "idType",
          "type": "bytes2"
        }
      ],
      "name": "isIdTypeSupported",
      "outputs": [
        {
          "internalType": "bool",
          "name": "",
          "type": "bool"
        }
      ],
      "stateMutability": "view",
      "type": "function"
    },
    {
      "inputs": [],
      "name": "owner",
      "outputs": [
        {
          "internalType": "address",
          "name": "",
          "type": "address"
        }
      ],
      "stateMutability": "view",
      "type": "function"
    },
    {
      "inputs": [],
      "name": "pendingOwner",
      "outputs": [
        {
          "internalType": "address",
          "name": "",
          "type": "address"
        }
      ],
      "stateMutability": "view",
      "type": "function"
    },
    {
      "inputs": [
        {
          "internalType": "bytes",
          "name": "crossChainProofs",
          "type": "bytes"
        }
      ],
      "name": "processCrossChainProofs",
      "outputs": [],
      "stateMutability": "nonpayable",
      "type": "function"
    },
    {
      "inputs": [],
      "name": "renounceOwnership",
      "outputs": [],
      "stateMutability": "nonpayable",
      "type": "function"
    },
    {
      "inputs": [
        {
          "internalType": "contract ICrossChainProofValidator",
          "name": "validator",
          "type": "address"
        }
      ],
      "name": "setCrossChainProofValidator",
      "outputs": [],
      "stateMutability": "nonpayable",
      "type": "function"
    },
    {
      "inputs": [
        {
          "internalType": "bytes2",
          "name": "defaultIdType",
          "type": "bytes2"
        }
      ],
      "name": "setDefaultIdType",
      "outputs": [],
      "stateMutability": "nonpayable",
      "type": "function"
    },
    {
      "inputs": [
        {
          "internalType": "bytes2",
          "name": "idType",
          "type": "bytes2"
        },
        {
          "internalType": "bool",
          "name": "supported",
          "type": "bool"
        }
      ],
      "name": "setSupportedIdType",
      "outputs": [],
      "stateMutability": "nonpayable",
      "type": "function"
    },
    {
      "inputs": [
        {
          "internalType": "address",
          "name": "newVerifierAddr",
          "type": "address"
        }
      ],
      "name": "setVerifier",
      "outputs": [],
      "stateMutability": "nonpayable",
      "type": "function"
    },
    {
      "inputs": [
        {
          "internalType": "uint256",
          "name": "id",
          "type": "uint256"
        },
        {
          "internalType": "uint256",
          "name": "state",
          "type": "uint256"
        }
      ],
      "name": "stateExists",
      "outputs": [
        {
          "internalType": "bool",
          "name": "",
          "type": "bool"
        }
      ],
      "stateMutability": "view",
      "type": "function"
    },
    {
      "inputs": [
        {
          "internalType": "address",
          "name": "newOwner",
          "type": "address"
        }
      ],
      "name": "transferOwnership",
      "outputs": [],
      "stateMutability": "nonpayable",
      "type": "function"
    },
    {
      "inputs": [
        {
          "internalType": "uint256",
          "name": "id",
          "type": "uint256"
        },
        {
          "internalType": "uint256",
          "name": "oldState",
          "type": "uint256"
        },
        {
          "internalType": "uint256",
          "name": "newState",
          "type": "uint256"
        },
        {
          "internalType": "bool",
          "name": "isOldStateGenesis",
          "type": "bool"
        },
        {
          "internalType": "uint256[2]",
          "name": "a",
          "type": "uint256[2]"
        },
        {
          "internalType": "uint256[2][2]",
          "name": "b",
          "type": "uint256[2][2]"
        },
        {
          "internalType": "uint256[2]",
          "name": "c",
          "type": "uint256[2]"
        }
      ],
      "name": "transitState",
      "outputs": [],
      "stateMutability": "nonpayable",
      "type": "function"
    },
    {
      "inputs": [
        {
          "internalType": "uint256",
          "name": "id",
          "type": "uint256"
        },
        {
          "internalType": "uint256",
          "name": "oldState",
          "type": "uint256"
        },
        {
          "internalType": "uint256",
          "name": "newState",
          "type": "uint256"
        },
        {
          "internalType": "bool",
          "name": "isOldStateGenesis",
          "type": "bool"
        },
        {
          "internalType": "uint256",
          "name": "methodId",
          "type": "uint256"
        },
        {
          "internalType": "bytes",
          "name": "methodParams",
          "type": "bytes"
        }
      ],
      "name": "transitStateGeneric",
      "outputs": [],
      "stateMutability": "nonpayable",
      "type": "function"
    }
  ],
  "bytecode": "0x6080604052348015600f57600080fd5b506016601a565b60ca565b7ff0c57e16840df040f15088dc2f81fe391c3923bec73e23a9662efc9c229c6a00805468010000000000000000900460ff161560695760405163f92ee8a960e01b815260040160405180910390fd5b80546001600160401b039081161460c75780546001600160401b0319166001600160401b0390811782556040519081527fc7f505b2f371ae2175ee4913f4499e1f2633a7b5936321eed1cdaeb6115181d29060200160405180910390a15b50565b61365a806100d96000396000f3fe608060405234801561001057600080fd5b50600436106102275760003560e01c80637c1a66de11610130578063d51afebf116100b8578063e30c39781161007c578063e30c3978146104ef578063e99858fe146104f7578063ed2f82ae14610517578063f2fde38b14610547578063ffa1ad741461055a57600080fd5b8063d51afebf1461049a578063dccbd57a146104ad578063dd16059e146104b6578063e12a36c0146104c9578063e28d24b0146104dc57600080fd5b8063a7c57eeb116100ff578063a7c57eeb1461043b578063af8452301461044e578063b1ed41f514610461578063b4bdea5514610474578063bbda96ba1461048757600080fd5b80637c1a66de146103df5780637d0dcba5146103f25780638da5cb5b14610405578063932e87a11461040d57600080fd5b80632f7670e4116101b35780635437988d116101825780635437988d146103965780635845e530146103a9578063676d5b5a146103bc578063715018a6146103cf57806379ba5097146103d757600080fd5b80632f7670e41461031d5780633025bb8c1461033d57806346657fe91461035057806353c873121461037657600080fd5b80630ef6e65b116101fa5780630ef6e65b146102ac578063133fe385146102cc578063233a4d23146102ed5780632439e3a61461030057806328f88a651461030857600080fd5b8063046ff1401461022c57806309478aa4146102555780630a7a5469146102765780630b8a295a14610289575b600080fd5b61023f61023a3660046127bf565b61058b565b60405161024c91906127e1565b60405180910390f35b6102686102633660046127bf565b6106b9565b60405190815260200161024c565b610268610284366004612878565b610874565b61029c6102973660046128a4565b610a46565b604051901515815260200161024c565b6102bf6102ba3660046128a4565b610ac5565b60405161024c91906128bd565b6102d4610b53565b6040516001600160f01b0319909116815260200161024c565b61029c6102fb3660046127bf565b610b8b565b610268610c11565b61031b610316366004612a13565b610c8e565b005b61033061032b3660046127bf565b610d77565b60405161024c9190612ad3565b61023f61034b3660046128a4565b610eb9565b61028b546001600160a01b03165b6040516001600160a01b03909116815260200161024c565b6103896103843660046127bf565b610f91565b60405161024c9190612b8f565b61031b6103a4366004612bb2565b611026565b6102bf6103b73660046128a4565b611051565b6102686103ca3660046128a4565b61109d565b61031b61111c565b61031b611130565b6102bf6103ed3660046128a4565b61117d565b61031b610400366004612c1e565b6111c9565b61035e61127b565b61029c61041b366004612c9a565b6001600160f01b031916600090815261028e602052604090205460ff1690565b61031b610449366004612c9a565b6112b0565b61031b61045c366004612bb2565b6112c1565b61031b61046f366004612cb7565b61130a565b6103896104823660046128a4565b61151a565b61031b610495366004612d13565b611566565b61023f6104a83660046127bf565b61159b565b6102bf54610268565b6102d46104c43660046128a4565b611609565b61023f6104d73660046127bf565b611653565b61031b6104ea366004612d4c565b6116c1565b61035e6119a5565b61050a610505366004612d8d565b6119ce565b60405161024c9190612db9565b7ffe6de916382846695d2555237dc6c0ef6555f4c949d4ba263e03532600778102546001600160a01b031661035e565b61031b610555366004612bb2565b611b18565b61057e6040518060400160405280600581526020016419171b171960d91b81525081565b60405161024c9190612e42565b6105936126e2565b604080516020810182528481529051631caab9a760e01b81526106b09173__$8ac835ad8d3012be129274ec595ff58680$__9163792a470f916102be9173__$bb862b2a7c85b89a310c80dce8aa59aaa7$__91631caab9a7916105f99190600401612e55565b602060405180830381865af4158015610616573d6000803e3d6000fd5b505050506040513d601f19601f8201168201806040525081019061063a9190612e86565b6040516001600160e01b031960e085901b16815260048101929092526024820152604481018690526064015b600060405180830381865af4158015610683573d6000803e3d6000fd5b505050506040513d6000823e601f3d908101601f191682016040526106ab9190810190612f35565b611b9d565b90505b92915050565b60006106c761041b84611c54565b156108125760405163b1abcc4d60e01b815261028c6004820152602481018490526044810183905273__$4c639ca777b976687a95879043001c96f4$__9063b1abcc4d90606401602060405180830381865af415801561072b573d6000803e3d6000fd5b505050506040513d601f19601f8201168201806040525081019061074f9190612ffb565b156107e25760405163893e973960e01b815261028c6004820152602481018490526044810183905273__$4c639ca777b976687a95879043001c96f4$__9063893e97399060640160e060405180830381865af41580156107b3573d6000803e3d6000fd5b505050506040513d601f19601f820116820180604052508101906107d79190613098565b6080015190506106b3565b6107ec8383611c70565b156107f9575060006106b3565b604051639472cfe160e01b815260040160405180910390fd5b60008381527ffe6de916382846695d2555237dc6c0ef6555f4c949d4ba263e035326007781006020818152604080842086855290915290912054801561085b5791506106b39050565b60405163abbafd3960e01b815260040160405180910390fd5b6001600160f01b03198216600090815261028e602052604081205460ff16156109b8576040516324bd6c1b60e21b81526102be60048201526024810183905273__$8ac835ad8d3012be129274ec595ff58680$__906392f5b06c90604401602060405180830381865af41580156108ef573d6000803e3d6000fd5b505050506040513d601f19601f820116820180604052508101906109139190612ffb565b1561099f57604051636f53b19d60e11b81526102be60048201526024810183905273__$8ac835ad8d3012be129274ec595ff58680$__9063dea7633a9060440160c060405180830381865af4158015610970573d6000803e3d6000fd5b505050506040513d601f19601f82011682018060405250810190610994919061312a565b6060015190506106b3565b60405163163715d760e21b815260040160405180910390fd5b6001600160f01b0319831660009081527ffe6de916382846695d2555237dc6c0ef6555f4c949d4ba263e03532600778101602090815260408083208584529091529020547ffe6de916382846695d2555237dc6c0ef6555f4c949d4ba263e03532600778100908015610a2d5791506106b39050565b60405163374887f360e01b815260040160405180910390fd5b60405163419e76c160e01b815261028c60048201526024810182905260009073__$4c639ca777b976687a95879043001c96f4$__9063419e76c190604401602060405180830381865af4158015610aa1573d6000803e3d6000fd5b505050506040513d601f19601f820116820180604052508101906106b39190612ffb565b610acd61272d565b60405163017c850f60e41b81526102be6004820152602481018390526106b39073__$8ac835ad8d3012be129274ec595ff58680$__906317c850f0906044015b60c060405180830381865af4158015610b2a573d6000803e3d6000fd5b505050506040513d601f19601f82011682018060405250810190610b4e919061312a565b611c95565b6102f05460009062010000900460ff16610b805760405163b9fb13cd60e01b815260040160405180910390fd5b506102f05460f01b90565b60405163b1abcc4d60e01b815261028c6004820152602481018390526044810182905260009073__$4c639ca777b976687a95879043001c96f4$__9063b1abcc4d90606401602060405180830381865af4158015610bed573d6000803e3d6000fd5b505050506040513d601f19601f820116820180604052508101906106b09190612ffb565b6040516379f9712560e01b81526102be600482015260009073__$8ac835ad8d3012be129274ec595ff58680$__906379f9712590602401602060405180830381865af4158015610c65573d6000803e3d6000fd5b505050506040513d601f19601f82011682018060405250810190610c899190612e86565b905090565b610c9787611609565b506000604051806080016040528089815260200188815260200187815260200186610cc3576000610cc6565b60015b60ff16905261028b54604051635fe8c13b60e01b81529192506001600160a01b031690635fe8c13b90610d0390879087908790879060040161316f565b602060405180830381865afa158015610d20573d6000803e3d6000fd5b505050506040513d601f19601f82011682018060405250810190610d449190612ffb565b610d6157604051636735c0ad60e11b815260040160405180910390fd5b610d6d88888888611ce9565b5050505050505050565b6040516321d6095360e01b81526102be6004820152602481018390526044810182905260609060009073__$8ac835ad8d3012be129274ec595ff58680$__906321d6095390606401600060405180830381865af4158015610ddc573d6000803e3d6000fd5b505050506040513d6000823e601f3d908101601f19168201604052610e0491908101906131f4565b9050600081516001600160401b03811115610e2157610e2161290e565b604051908082528060200260200182016040528015610e5a57816020015b610e4761272d565b815260200190600190039081610e3f5790505b50905060005b8251811015610eb057610e8b838281518110610e7e57610e7e613293565b6020026020010151611c95565b828281518110610e9d57610e9d613293565b6020908102919091010152600101610e60565b50949350505050565b610ec16126e2565b604080516020810182528381529051631caab9a760e01b81526106b39173__$8ac835ad8d3012be129274ec595ff58680$__91635db40cda916102be9173__$bb862b2a7c85b89a310c80dce8aa59aaa7$__91631caab9a791610f279190600401612e55565b602060405180830381865af4158015610f44573d6000803e3d6000fd5b505050506040513d601f19601f82011682018060405250810190610f689190612e86565b6040516001600160e01b031960e085901b16815260048101929092526024820152604401610666565b610f99612763565b60405163893e973960e01b815261028c600482015260248101849052604481018390526106b09073__$4c639ca777b976687a95879043001c96f4$__9063893e9739906064015b60e060405180830381865af4158015610ffd573d6000803e3d6000fd5b505050506040513d601f19601f820116820180604052508101906110219190613098565b61202f565b61102e61208d565b61028b80546001600160a01b0319166001600160a01b0392909216919091179055565b61105961272d565b6040516337269f2360e21b81526102be6004820152602481018390526106b39073__$8ac835ad8d3012be129274ec595ff58680$__9063dc9a7c8c90604401610b0d565b604051630e21d5fd60e01b815261028c60048201526024810182905260009073__$4c639ca777b976687a95879043001c96f4$__90630e21d5fd90604401602060405180830381865af41580156110f8573d6000803e3d6000fd5b505050506040513d601f19601f820116820180604052508101906106b39190612e86565b61112461208d565b61112e60006120bf565b565b338061113a6119a5565b6001600160a01b0316146111715760405163118cdaa760e01b81526001600160a01b03821660048201526024015b60405180910390fd5b61117a816120bf565b50565b61118561272d565b604051636f53b19d60e11b81526102be6004820152602481018390526106b39073__$8ac835ad8d3012be129274ec595ff58680$__9063dea7633a90604401610b0d565b60006111d488611609565b9050836001036112625760006111ea82336120fb565b905088811461120c57604051632ee04e6160e11b815260040160405180910390fd5b821561122b5760405163bae1a87560e01b815260040160405180910390fd5b851561125057871561125057604051636cbfff5b60e11b815260040160405180910390fd5b61125c89898989611ce9565b50610d6d565b6040516376d06bd760e01b815260040160405180910390fd5b6000807f9016d09d72d40fdae2fd8ceac6b6234c7706214fd39c1cd1e609a0528c1993005b546001600160a01b031692915050565b6112b861208d565b61117a81612121565b6112c961208d565b7ffe6de916382846695d2555237dc6c0ef6555f4c949d4ba263e0353260077810280546001600160a01b0319166001600160a01b0392909216919091179055565b7ff0c57e16840df040f15088dc2f81fe391c3923bec73e23a9662efc9c229c6a008054600160401b810460ff1615906001600160401b031660008115801561134f5750825b90506000826001600160401b0316600114801561136b5750303b155b905081158015611379575080155b156113975760405163f92ee8a960e01b815260040160405180910390fd5b845467ffffffffffffffff1916600117855583156113c157845460ff60401b1916600160401b1785555b6102c25460ff1661143a5760408051639e43b81360e01b81526102be6004820152602481019190915273__$8ac835ad8d3012be129274ec595ff58680$__90639e43b8139060440160006040518083038186803b15801561142157600080fd5b505af4158015611435573d6000803e3d6000fd5b505050505b6001600160a01b03891661146157604051630bea63ab60e21b815260040160405180910390fd5b61028b80546001600160a01b0319166001600160a01b038b1617905561148688612121565b61148f8761215f565b7ffe6de916382846695d2555237dc6c0ef6555f4c949d4ba263e0353260077810280546001600160a01b0319166001600160a01b038816179055831561150f57845460ff60401b19168555604051600181527fc7f505b2f371ae2175ee4913f4499e1f2633a7b5936321eed1cdaeb6115181d29060200160405180910390a15b505050505050505050565b611522612763565b604051634ed344a360e11b815261028c6004820152602481018390526106b39073__$4c639ca777b976687a95879043001c96f4$__90639da6894690604401610fe0565b61156e61208d565b6001600160f01b031991909116600090815261028e60205260409020805460ff1916911515919091179055565b6115a36126e2565b604080516020810182528481529051631caab9a760e01b81526106b09173__$8ac835ad8d3012be129274ec595ff58680$__916313827136916102be9173__$bb862b2a7c85b89a310c80dce8aa59aaa7$__91631caab9a7916105f99190600401612e55565b60008061161583611c54565b6001600160f01b03198116600090815261028e602052604090205490915060ff166106b35760405163522ac6d160e01b815260040160405180910390fd5b61165b6126e2565b604080516020810182528481529051631caab9a760e01b81526106b09173__$8ac835ad8d3012be129274ec595ff58680$__916379c17a96916102be9173__$bb862b2a7c85b89a310c80dce8aa59aaa7$__91631caab9a7916105f99190600401612e55565b60008190036116ce575050565b60006116dc82840184613304565b90507ffe6de916382846695d2555237dc6c0ef6555f4c949d4ba263e0353260077810060005b825181101561199e5760408051808201909152601081526f33b637b130b629ba30ba32a83937b7b360811b60209091015282517f43e577020b3fd5a27adf1884c82bfa7686978fcdfd12257602894af8f09f2e009084908390811061176957611769613293565b602002602001015160000151805190602001200361184e57600282015483516000916001600160a01b03169063f6a00025908690859081106117ad576117ad613293565b6020026020010151602001516040518263ffffffff1660e01b81526004016117d59190612e42565b6060604051808303816000875af11580156117f4573d6000803e3d6000fd5b505050506040513d601f19601f820116820180604052508101906118189190613454565b60408082015182516001600160f01b03191660009081526001870160209081528382209481015182529390935291205550611996565b60408051808201909152600a81526939ba30ba32a83937b7b360b11b60209091015282517ff7f3e4d351842baea49db0a6060903f44ddc24a1f604192dc9097bedba1ee92c908490839081106118a6576118a6613293565b602002602001015160000151805190602001200361197d57600282015483516000916001600160a01b0316906315782ce6908690859081106118ea576118ea613293565b6020026020010151602001516040518263ffffffff1660e01b81526004016119129190612e42565b6060604051808303816000875af1158015611931573d6000803e3d6000fd5b505050506040513d601f19601f82011682018060405250810190611955919061349a565b6040808201518251600090815260208781528382209481015182529390935291205550611996565b604051636dfa9d6760e11b815260040160405180910390fd5b600101611702565b5050505050565b6000807f237e158222e3e6968b72b9db0d8043aacf074ad9f650f0d1606b4d82ee432c006112a0565b6040516365fe1b5b60e01b815261028c600482015260248101849052604481018390526064810182905260609060009073__$4c639ca777b976687a95879043001c96f4$__906365fe1b5b90608401600060405180830381865af4158015611a3a573d6000803e3d6000fd5b505050506040513d6000823e601f3d908101601f19168201604052611a6291908101906134d7565b9050600081516001600160401b03811115611a7f57611a7f61290e565b604051908082528060200260200182016040528015611ab857816020015b611aa5612763565b815260200190600190039081611a9d5790505b50905060005b8251811015611b0e57611ae9838281518110611adc57611adc613293565b602002602001015161202f565b828281518110611afb57611afb613293565b6020908102919091010152600101611abe565b5095945050505050565b611b2061208d565b7f237e158222e3e6968b72b9db0d8043aacf074ad9f650f0d1606b4d82ee432c0080546001600160a01b0319166001600160a01b0383169081178255611b6461127b565b6001600160a01b03167f38d16b8cac22d99fc7c124b9cd0de2d3fa1faef420bfe791d8c362d765e2270060405160405180910390a35050565b611ba56126e2565b611bad6127a0565b60005b6040811015611bf65783604001518181518110611bcf57611bcf613293565b6020026020010151828260408110611be957611be9613293565b6020020152600101611bb0565b5060408051610100810182528451815260208086015115159082015290810191909152606080840151908201526080808401519082015260a08084015115159082015260c0808401519082015260e092830151928101929092525090565b6000611c67611c6283612170565b6122b5565b6106b39061356c565b600080611c7c84611c54565b90506000611c8a82856122df565b909414949350505050565b611c9d61272d565b6040518060c0016040528083600001518152602001836020015181526020018360400151815260200183606001518152602001836080015181526020018360a001518152509050919050565b83600003611d0a576040516376244a1b60e11b815260040160405180910390fd5b81600003611d2b5760405163e2a9ff5560e01b815260040160405180910390fd5b8015611dcf57611d3a84610a46565b15611d585760405163a805151360e01b815260040160405180910390fd5b604051630944084360e31b815261028c6004820152602481018590526044810184905273__$4c639ca777b976687a95879043001c96f4$__90634a2042189060640160006040518083038186803b158015611db257600080fd5b505af4158015611dc6573d6000803e3d6000fd5b50505050611e9c565b611dd884610a46565b611df5576040516370f4ced560e01b815260040160405180910390fd5b604051634ed344a360e11b815261028c60048201526024810185905260009073__$4c639ca777b976687a95879043001c96f4$__90639da689469060440160e060405180830381865af4158015611e50573d6000803e3d6000fd5b505050506040513d601f19601f82011682018060405250810190611e749190613098565b905083816020015114611e9a576040516353e05f3f60e01b815260040160405180910390fd5b505b611ea68483610b8b565b15611ec45760405163ca4b961360e01b815260040160405180910390fd5b604051632267e22f60e11b815261028c6004820152602481018590526044810183905273__$4c639ca777b976687a95879043001c96f4$__906344cfc45e9060640160006040518083038186803b158015611f1e57600080fd5b505af4158015611f32573d6000803e3d6000fd5b5050604080516020810182528781529051631caab9a760e01b815273__$8ac835ad8d3012be129274ec595ff58680$__935063c1d29f0192506102be9173__$bb862b2a7c85b89a310c80dce8aa59aaa7$__91631caab9a791611f9791600401612e55565b602060405180830381865af4158015611fb4573d6000803e3d6000fd5b505050506040513d601f19601f82011682018060405250810190611fd89190612e86565b6040516001600160e01b031960e085901b168152600481019290925260248201526044810185905260640160006040518083038186803b15801561201b57600080fd5b505af4158015610d6d573d6000803e3d6000fd5b612037612763565b6040518060e0016040528083600001518152602001836020015181526020018360400151815260200183606001518152602001836080015181526020018360a0015181526020018360c001518152509050919050565b3361209661127b565b6001600160a01b03161461112e5760405163118cdaa760e01b8152336004820152602401611168565b7f237e158222e3e6968b72b9db0d8043aacf074ad9f650f0d1606b4d82ee432c0080546001600160a01b03191681556120f7826123e2565b5050565b60006001600160a01b0382166121198461211483612170565b6122df565b949350505050565b6102f0805462ffffff191660f083901c17620100001790556001600160f01b031916600090815261028e60205260409020805460ff19166001179055565b612167612453565b61117a8161249c565b60008190506008817eff00ff00ff00ff00ff00ff00ff00ff00ff00ff00ff00ff00ff00ff00ff00ff16901b6008827fff00ff00ff00ff00ff00ff00ff00ff00ff00ff00ff00ff00ff00ff00ff00ff0016901c1790506010817dffff0000ffff0000ffff0000ffff0000ffff0000ffff0000ffff0000ffff16901b6010827fffff0000ffff0000ffff0000ffff0000ffff0000ffff0000ffff0000ffff000016901c1790506020817bffffffff00000000ffffffff00000000ffffffff00000000ffffffff16901b6020827fffffffff00000000ffffffff00000000ffffffff00000000ffffffff0000000016901c17905060408177ffffffffffffffff0000000000000000ffffffffffffffff16901b60408277ffffffffffffffff0000000000000000ffffffffffffffff1916901c179050608081901b608082901c179050919050565b60408051602080825281830190925260609160208201818036833750505060208101929092525090565b6000806122ee611c6284612170565b9050600061230b82601b845161230491906135c0565b601b6124ce565b6040516001600160f01b03198716602082015290915060009061234090602201604051602081830303815290604052836124db565b90506000612364612350836124e7565b600881811b62ffff001691901c60ff161790565b6040805160f083901b6001600160f01b0319166020820152815160028183030181526022909101909152909150600061239d84836124db565b90508051601f146123c4576040516333b0459b60e01b8152601f6004820152602401611168565b6123d56123d08261254e565b612170565b9998505050505050505050565b7f9016d09d72d40fdae2fd8ceac6b6234c7706214fd39c1cd1e609a0528c19930080546001600160a01b031981166001600160a01b03848116918217845560405192169182907f8be0079c531659141344cd1fd0a4f28419497f9722a3daafe3b4186f6b6457e090600090a3505050565b7ff0c57e16840df040f15088dc2f81fe391c3923bec73e23a9662efc9c229c6a0054600160401b900460ff1661112e57604051631afcd79f60e31b815260040160405180910390fd5b6124a4612453565b6001600160a01b03811661117157604051631e4fbdf760e01b815260006004820152602401611168565b6060612119848484612559565b60606106b08383612665565b60008151601d1461250e576040516303c4ee2b60e01b8152601d6004820152602401611168565b60005b82518110156125485782818151811061252c5761252c613293565b016020015161253e9060f81c836135d3565b9150600101612511565b50919050565b60006106b3826135ed565b60608161256781601f613611565b10156125a65760405162461bcd60e51b815260206004820152600e60248201526d736c6963655f6f766572666c6f7760901b6044820152606401611168565b6125b08284613611565b845110156125f45760405162461bcd60e51b8152602060048201526011602482015270736c6963655f6f75744f66426f756e647360781b6044820152606401611168565b6060821580156126135760405191506000825260208201604052610eb0565b6040519150601f8416801560200281840101858101878315602002848b0101015b8183101561264c578051835260209283019201612634565b5050858452601f01601f19166040525050949350505050565b6060806040519050835180825260208201818101602087015b8183101561269657805183526020928301920161267e565b50855184518101855292509050808201602086015b818310156126c35780518352602092830192016126ab565b508651929092011591909101601f01601f191660405250905092915050565b6040805161010081018252600080825260208201529081016127026127a0565b8152602001600081526020016000815260200160001515815260200160008152602001600081525090565b6040518060c001604052806000815260200160008152602001600081526020016000815260200160008152602001600081525090565b6040518060e00160405280600081526020016000815260200160008152602001600081526020016000815260200160008152602001600081525090565b6040518061080001604052806040906020820280368337509192915050565b600080604083850312156127d257600080fd5b50508035926020909101359150565b815181526020808301511515908201526040808301516108e0830191830160005b6040811015612821578251825260209283019290910190600101612802565b5050506060830151610840830152608083015161086083015260a0830151151561088083015260c08301516108a083015260e0909201516108c09091015290565b6001600160f01b03198116811461117a57600080fd5b6000806040838503121561288b57600080fd5b823561289681612862565b946020939093013593505050565b6000602082840312156128b657600080fd5b5035919050565b60c081016106b38284805182526020810151602083015260408101516040830152606081015160608301526080810151608083015260a081015160a08301525050565b801515811461117a57600080fd5b634e487b7160e01b600052604160045260246000fd5b60405161010081016001600160401b03811182821017156129475761294761290e565b60405290565b604080519081016001600160401b03811182821017156129475761294761290e565b604051606081016001600160401b03811182821017156129475761294761290e565b604051601f8201601f191681016001600160401b03811182821017156129b9576129b961290e565b604052919050565b600082601f8301126129d257600080fd5b6129dc6040612991565b8060408401858111156129ee57600080fd5b845b81811015612a085780358452602093840193016129f0565b509095945050505050565b6000806000806000806000610180888a031215612a2f57600080fd5b8735965060208801359550604088013594506060880135612a4f81612900565b9350612a5e8960808a016129c1565b92508860df890112612a6f57600080fd5b6040612a7a81612991565b806101408b018c811115612a8d57600080fd5b60c08c015b81811015612ab357612aa48e826129c1565b84526020909301928401612a92565b50819550612ac18d826129c1565b94505050505092959891949750929550565b602080825282518282018190526000918401906040840190835b81811015612a0857612b35838551805182526020810151602083015260408101516040830152606081015160608301526080810151608083015260a081015160a08301525050565b6020939093019260c09290920191600101612aed565b805182526020810151602083015260408101516040830152606081015160608301526080810151608083015260a081015160a083015260c081015160c08301525050565b60e081016106b38284612b4b565b6001600160a01b038116811461117a57600080fd5b600060208284031215612bc457600080fd5b8135612bcf81612b9d565b9392505050565b60008083601f840112612be857600080fd5b5081356001600160401b03811115612bff57600080fd5b602083019150836020828501011115612c1757600080fd5b9250929050565b600080600080600080600060c0888a031215612c3957600080fd5b8735965060208801359550604088013594506060880135612c5981612900565b93506080880135925060a08801356001600160401b03811115612c7b57600080fd5b612c878a828b01612bd6565b989b979a50959850939692959293505050565b600060208284031215612cac57600080fd5b8135612bcf81612862565b60008060008060808587031215612ccd57600080fd5b8435612cd881612b9d565b93506020850135612ce881612862565b92506040850135612cf881612b9d565b91506060850135612d0881612b9d565b939692955090935050565b60008060408385031215612d2657600080fd5b8235612d3181612862565b91506020830135612d4181612900565b809150509250929050565b60008060208385031215612d5f57600080fd5b82356001600160401b03811115612d7557600080fd5b612d8185828601612bd6565b90969095509350505050565b600080600060608486031215612da257600080fd5b505081359360208301359350604090920135919050565b602080825282518282018190526000918401906040840190835b81811015612a0857612de6838551612b4b565b6020939093019260e09290920191600101612dd3565b6000815180845260005b81811015612e2257602081850181015186830182015201612e06565b506000602082860101526020601f19601f83011685010191505092915050565b6020815260006106b06020830184612dfc565b60208101818360005b6001811015612e7d578151835260209283019290910190600101612e5e565b50505092915050565b600060208284031215612e9857600080fd5b5051919050565b8051612eaa81612900565b919050565b60006001600160401b03821115612ec857612ec861290e565b5060051b60200190565b600082601f830112612ee357600080fd5b8151612ef6612ef182612eaf565b612991565b8082825260208201915060208360051b860101925085831115612f1857600080fd5b602085015b83811015611b0e578051835260209283019201612f1d565b600060208284031215612f4757600080fd5b81516001600160401b03811115612f5d57600080fd5b82016101008185031215612f7057600080fd5b612f78612924565b81518152612f8860208301612e9f565b602082015260408201516001600160401b03811115612fa657600080fd5b612fb286828501612ed2565b6040830152506060828101519082015260808083015190820152612fd860a08301612e9f565b60a082015260c0828101519082015260e091820151918101919091529392505050565b60006020828403121561300d57600080fd5b8151612bcf81612900565b600060e0828403121561302a57600080fd5b60405160e081016001600160401b038111828210171561304c5761304c61290e565b604090815283518252602080850151908301528381015190820152606080840151908201526080808401519082015260a0808401519082015260c0928301519281019290925250919050565b600060e082840312156130aa57600080fd5b6106b08383613018565b600060c082840312156130c657600080fd5b60405160c081016001600160401b03811182821017156130e8576130e861290e565b604090815283518252602080850151908301528381015190820152606080840151908201526080808401519082015260a0928301519281019290925250919050565b600060c0828403121561313c57600080fd5b6106b083836130b4565b8060005b600281101561316957815184526020938401939091019060010161314a565b50505050565b610180810161317e8287613146565b604082018560005b60028110156131b05761319a838351613146565b6040929092019160209190910190600101613186565b5050506131c060c0830185613146565b61010082018360005b60048110156131e85781518352602092830192909101906001016131c9565b50505095945050505050565b60006020828403121561320657600080fd5b81516001600160401b0381111561321c57600080fd5b8201601f8101841361322d57600080fd5b805161323b612ef182612eaf565b80828252602082019150602060c0840285010192508683111561325d57600080fd5b6020840193505b828410156132895761327687856130b4565b825260208201915060c084019350613264565b9695505050505050565b634e487b7160e01b600052603260045260246000fd5b6000806001600160401b038411156132c3576132c361290e565b50601f8301601f19166020016132d881612991565b9150508281528383830111156132ed57600080fd5b828260208301376000602084830101529392505050565b60006020828403121561331657600080fd5b81356001600160401b0381111561332c57600080fd5b8201601f8101841361333d57600080fd5b803561334b612ef182612eaf565b8082825260208201915060208360051b85010192508683111561336d57600080fd5b602084015b838110156134495780356001600160401b0381111561339057600080fd5b85016040818a03601f190112156133a657600080fd5b6133ae61294d565b60208201356001600160401b038111156133c757600080fd5b82016020810190603f018b136133dc57600080fd5b6133eb8b8235602084016132a9565b82525060408201356001600160401b0381111561340757600080fd5b60208184010192505089601f83011261341f57600080fd5b61342e8a8335602085016132a9565b60208201528085525050602083019250602081019050613372565b509695505050505050565b6000606082840312801561346757600080fd5b5061347061296f565b825161347b81612862565b8152602083810151908201526040928301519281019290925250919050565b600060608284031280156134ad57600080fd5b506134b661296f565b82518152602080840151908201526040928301519281019290925250919050565b6000602082840312156134e957600080fd5b81516001600160401b038111156134ff57600080fd5b8201601f8101841361351057600080fd5b805161351e612ef182612eaf565b80828252602082019150602060e0840285010192508683111561354057600080fd5b6020840193505b82841015613289576135598785613018565b825260208201915060e084019350613547565b805160208201516001600160f01b03198116919060028210156135a3576001600160f01b0319600283900360031b81901b82161692505b5050919050565b634e487b7160e01b600052601160045260246000fd5b818103818111156106b3576106b36135aa565b61ffff81811683821601908111156106b3576106b36135aa565b805160208083015191908110156125485760001960209190910360031b1b16919050565b808201808211156106b3576106b36135aa56fea264697066735822122007db880fb1407cc16d8f229b4a4ad7cefa6a82d97dd06926e6849b84810f285564736f6c634300081b0033",
  "linkReferences": {
    "contracts/lib/Poseidon.sol": {
      "PoseidonUnit1L": [
        {
          "length": 20,
          "start": 1707
        },
        {
          "length": 20,
          "start": 4057
        },
        {
          "length": 20,
          "start": 5819
        },
        {
          "length": 20,
          "start": 6003
        },
        {
          "length": 20,
          "start": 8266
        }
      ]
    },
    "contracts/lib/SmtLib.sol": {
      "SmtLib": [
        {
          "length": 20,
          "start": 1675
        },
        {
          "length": 20,
          "start": 2446
        },
        {
          "length": 20,
          "start": 2575
        },
        {
          "length": 20,
          "start": 3016
        },
        {
          "length": 20,
          "start": 3332
        },
        {
          "length": 20,
          "start": 3707
        },
        {
          "length": 20,
          "start": 4025
        },
        {
          "length": 20,
          "start": 4436
        },
        {
          "length": 20,
          "start": 4736
        },
        {
          "length": 20,
          "start": 5317
        },
        {
          "length": 20,
          "start": 5787
        },
        {
          "length": 20,
          "start": 5971
        },
        {
          "length": 20,
          "start": 8232
        }
      ]
    },
    "contracts/lib/StateLib.sol": {
      "StateLib": [
        {
          "length": 20,
          "start": 1994
        },
        {
          "length": 20,
          "start": 2130
        },
        {
          "length": 20,
          "start": 2880
        },
        {
          "length": 20,
          "start": 3212
        },
        {
          "length": 20,
          "start": 4251
        },
        {
          "length": 20,
          "start": 4503
        },
        {
          "length": 20,
          "start": 5661
        },
        {
          "length": 20,
          "start": 6873
        },
        {
          "length": 20,
          "start": 7766
        },
        {
          "length": 20,
          "start": 7919
        },
        {
          "length": 20,
          "start": 8130
        }
      ]
    }
  },
  "deployedLinkReferences": {
    "contracts/lib/Poseidon.sol": {
      "PoseidonUnit1L": [
        {
          "length": 20,
          "start": 1490
        },
        {
          "length": 20,
          "start": 3840
        },
        {
          "length": 20,
          "start": 5602
        },
        {
          "length": 20,
          "start": 5786
        },
        {
          "length": 20,
          "start": 8049
        }
      ]
    },
    "contracts/lib/SmtLib.sol": {
      "SmtLib": [
        {
          "length": 20,
          "start": 1458
        },
        {
          "length": 20,
          "start": 2229
        },
        {
          "length": 20,
          "start": 2358
        },
        {
          "length": 20,
          "start": 2799
        },
        {
          "length": 20,
          "start": 3115
        },
        {
          "length": 20,
          "start": 3490
        },
        {
          "length": 20,
          "start": 3808
        },
        {
          "length": 20,
          "start": 4219
        },
        {
          "length": 20,
          "start": 4519
        },
        {
          "length": 20,
          "start": 5100
        },
        {
          "length": 20,
          "start": 5570
        },
        {
          "length": 20,
          "start": 5754
        },
        {
          "length": 20,
          "start": 8015
        }
      ]
    },
    "contracts/lib/StateLib.sol": {
      "StateLib": [
        {
          "length": 20,
          "start": 1777
        },
        {
          "length": 20,
          "start": 1913
        },
        {
          "length": 20,
          "start": 2663
        },
        {
          "length": 20,
          "start": 2995
        },
        {
          "length": 20,
          "start": 4034
        },
        {
          "length": 20,
          "start": 4286
        },
        {
          "length": 20,
          "start": 5444
        },
        {
          "length": 20,
          "start": 6656
        },
        {
          "length": 20,
          "start": 7549
        },
        {
          "length": 20,
          "start": 7702
        },
        {
          "length": 20,
          "start": 7913
        }
      ]
    }
  }
}