{
  "_format": "hh-sol-artifact-1",
  "contractName": "CrossChainProofValidator",
  "sourceName": "contracts/cross-chain/CrossChainProofValidator.sol",
  "abi": [
    {
      "inputs": [
        {
          "internalType": "string",
          "name": "domainName",
          "type": "string"
        },
        {
          "internalType": "string",
          "name": "signatureVersion",
          "type": "string"
        },
        {
          "internalType": "address",
          "name": "oracleSigningAddress",
          "type": "address"
        }
      ],
      "stateMutability": "nonpayable",
      "type": "constructor"
    },
    {
      "inputs": [],
      "name": "GlobalStateProofInvalid",
      "type": "error"
    },
    {
      "inputs": [
        {
          "internalType": "address",
          "name": "recovered",
          "type": "address"
        }
      ],
      "name": "GlobalStateProofSigningAddressInvalid",
      "type": "error"
    },
    {
      "inputs": [],
      "name": "IdentityStateProofInvalid",
      "type": "error"
    },
    {
      "inputs": [
        {
          "internalType": "address",
          "name": "recovered",
          "type": "address"
        }
      ],
      "name": "IdentityStateProofSigningAddressInvalid",
      "type": "error"
    },
    {
      "inputs": [],
      "name": "InvalidShortString",
      "type": "error"
    },
    {
      "inputs": [],
      "name": "OracleReplacedAtTimestampCannotBeInTheFuture",
      "type": "error"
    },
    {
      "inputs": [],
      "name": "OracleSigningAddressShouldNotBeZero",
      "type": "error"
    },
    {
      "inputs": [],
      "name": "OracleTimestampCannotBeInThePast",
      "type": "error"
    },
    {
      "inputs": [
        {
          "internalType": "address",
          "name": "owner",
          "type": "address"
        }
      ],
      "name": "OwnableInvalidOwner",
      "type": "error"
    },
    {
      "inputs": [
        {
          "internalType": "address",
          "name": "account",
          "type": "address"
        }
      ],
      "name": "OwnableUnauthorizedAccount",
      "type": "error"
    },
    {
      "inputs": [
        {
          "internalType": "string",
          "name": "str",
          "type": "string"
        }
      ],
      "name": "StringTooLong",
      "type": "error"
    },
    {
      "anonymous": false,
      "inputs": [],
      "name": "EIP712DomainChanged",
      "type": "event"
    },
    {
      "anonymous": false,
      "inputs": [
        {
          "indexed": true,
          "internalType": "address",
          "name": "previousOwner",
          "type": "address"
        },
        {
          "indexed": true,
          "internalType": "address",
          "name": "newOwner",
          "type": "address"
        }
      ],
      "name": "OwnershipTransferred",
      "type": "event"
    },
    {
      "inputs": [],
      "name": "DOMAIN_SEPARATOR",
      "outputs": [
        {
          "internalType": "bytes32",
          "name": "",
          "type": "bytes32"
        }
      ],
      "stateMutability": "view",
      "type": "function"
    },
    {
      "inputs": [],
      "name": "GLOBAL_STATE_MESSAGE_TYPEHASH",
      "outputs": [
        {
          "internalType": "bytes32",
          "name": "",
          "type": "bytes32"
        }
      ],
      "stateMutability": "view",
      "type": "function"
    },
    {
      "inputs": [],
      "name": "IDENTITY_STATE_MESSAGE_TYPEHASH",
      "outputs": [
        {
          "internalType": "bytes32",
          "name": "",
          "type": "bytes32"
        }
      ],
      "stateMutability": "view",
      "type": "function"
    },
    {
      "inputs": [],
      "name": "MAX_REPLACED_AT_AHEAD_OF_TIME",
      "outputs": [
        {
          "internalType": "uint256",
          "name": "",
          "type": "uint256"
        }
      ],
      "stateMutability": "view",
      "type": "function"
    },
    {
      "inputs": [],
      "name": "MAX_TIMESTAMP_LAG",
      "outputs": [
        {
          "internalType": "uint256",
          "name": "",
          "type": "uint256"
        }
      ],
      "stateMutability": "view",
      "type": "function"
    },
    {
      "inputs": [],
      "name": "TYPE_HASH",
      "outputs": [
        {
          "internalType": "bytes32",
          "name": "",
          "type": "bytes32"
        }
      ],
      "stateMutability": "view",
      "type": "function"
    },
    {
      "inputs": [],
      "name": "disableLegacyOracleSigningAddress",
      "outputs": [],
      "stateMutability": "nonpayable",
      "type": "function"
    },
    {
      "inputs": [],
      "name": "eip712Domain",
      "outputs": [
        {
          "internalType": "bytes1",
          "name": "fields",
          "type": "bytes1"
        },
        {
          "internalType": "string",
          "name": "name",
          "type": "string"
        },
        {
          "internalType": "string",
          "name": "version",
          "type": "string"
        },
        {
          "internalType": "uint256",
          "name": "chainId",
          "type": "uint256"
        },
        {
          "internalType": "address",
          "name": "verifyingContract",
          "type": "address"
        },
        {
          "internalType": "bytes32",
          "name": "salt",
          "type": "bytes32"
        },
        {
          "internalType": "uint256[]",
          "name": "extensions",
          "type": "uint256[]"
        }
      ],
      "stateMutability": "view",
      "type": "function"
    },
    {
      "inputs": [],
      "name": "getLegacyOracleSigningAddress",
      "outputs": [
        {
          "internalType": "address",
          "name": "",
          "type": "address"
        }
      ],
      "stateMutability": "view",
      "type": "function"
    },
    {
      "inputs": [],
      "name": "getOracleSigningAddress",
      "outputs": [
        {
          "internalType": "address",
          "name": "",
          "type": "address"
        }
      ],
      "stateMutability": "view",
      "type": "function"
    },
    {
      "inputs": [],
      "name": "owner",
      "outputs": [
        {
          "internalType": "address",
          "name": "",
          "type": "address"
        }
      ],
      "stateMutability": "view",
      "type": "function"
    },
    {
      "inputs": [
        {
          "internalType": "bytes",
          "name": "globalStateProof",
          "type": "bytes"
        }
      ],
      "name": "processGlobalStateProof",
      "outputs": [
        {
          "components": [
            {
              "internalType": "bytes2",
              "name": "idType",
              "type": "bytes2"
            },
            {
              "internalType": "uint256",
              "name": "root",
              "type": "uint256"
            },
            {
              "internalType": "uint256",
              "name": "replacedAtTimestamp",
              "type": "uint256"
            }
          ],
          "internalType": "struct IState.GlobalStateProcessResult",
          "name": "",
          "type": "tuple"
        }
      ],
      "stateMutability": "view",
      "type": "function"
    },
    {
      "inputs": [
        {
          "internalType": "bytes",
          "name": "identityStateProof",
          "type": "bytes"
        }
      ],
      "name": "processIdentityStateProof",
      "outputs": [
        {
          "components": [
            {
              "internalType": "uint256",
              "name": "id",
              "type": "uint256"
            },
            {
              "internalType": "uint256",
              "name": "state",
              "type": "uint256"
            },
            {
              "internalType": "uint256",
              "name": "replacedAtTimestamp",
              "type": "uint256"
            }
          ],
          "internalType": "struct IState.IdentityStateProcessResult",
          "name": "",
          "type": "tuple"
        }
      ],
      "stateMutability": "view",
      "type": "function"
    },
    {
      "inputs": [],
      "name": "renounceOwnership",
      "outputs": [],
      "stateMutability": "nonpayable",
      "type": "function"
    },
    {
      "inputs": [
        {
          "internalType": "address",
          "name": "legacyOracleSigningAddress",
          "type": "address"
        }
      ],
      "name": "setLegacyOracleSigningAddress",
      "outputs": [],
      "stateMutability": "nonpayable",
      "type": "function"
    },
    {
      "inputs": [
        {
          "internalType": "address",
          "name": "oracleSigningAddress",
          "type": "address"
        }
      ],
      "name": "setOracleSigningAddress",
      "outputs": [],
      "stateMutability": "nonpayable",
      "type": "function"
    },
    {
      "inputs": [
        {
          "internalType": "address",
          "name": "newOwner",
          "type": "address"
        }
      ],
      "name": "transferOwnership",
      "outputs": [],
      "stateMutability": "nonpayable",
      "type": "function"
    }
  ],
  "bytecode": "0x61018060405234801561001157600080fd5b506040516129173803806129178339818101604052810190610033919061064d565b828233600073ffffffffffffffffffffffffffffffffffffffff168173ffffffffffffffffffffffffffffffffffffffff16036100a85760006040517f1e4fbdf700000000000000000000000000000000000000000000000000000000815260040161009f91906106e7565b60405180910390fd5b6100b78161023060201b60201c565b506100cc6001836102f460201b90919060201c565b61012081815250506100e86002826102f460201b90919060201c565b6101408181525050818051906020012060e08181525050808051906020012061010081815250504660a0818152505061012561034460201b60201c565b608081815250503073ffffffffffffffffffffffffffffffffffffffff1660c08173ffffffffffffffffffffffffffffffffffffffff168152505050506101718161039f60201b60201c565b6000838051906020012090506000838051906020012090506000807f8b73c3c69bb8fe3d512ecc4cf759cc79239f7b179b0ffacaa9a75d522b39400f848484846040516020016101c5959493929190610734565b60405160208183030381529060405280519060200120610160818152505084600360006101000a81548173ffffffffffffffffffffffffffffffffffffffff021916908373ffffffffffffffffffffffffffffffffffffffff16021790555050505050505050610b73565b60008060009054906101000a900473ffffffffffffffffffffffffffffffffffffffff169050816000806101000a81548173ffffffffffffffffffffffffffffffffffffffff021916908373ffffffffffffffffffffffffffffffffffffffff1602179055508173ffffffffffffffffffffffffffffffffffffffff168173ffffffffffffffffffffffffffffffffffffffff167f8be0079c531659141344cd1fd0a4f28419497f9722a3daafe3b4186f6b6457e060405160405180910390a35050565b60006020835110156103165761030f8361040860201b60201c565b905061033e565b826103268361047060201b60201c565b6000019081610335919061099e565b5060ff60001b90505b92915050565b60007f8b73c3c69bb8fe3d512ecc4cf759cc79239f7b179b0ffacaa9a75d522b39400f60e051610100514630604051602001610384959493929190610734565b60405160208183030381529060405280519060200120905090565b600073ffffffffffffffffffffffffffffffffffffffff168173ffffffffffffffffffffffffffffffffffffffff1603610405576040517f44e2c97f00000000000000000000000000000000000000000000000000000000815260040160405180910390fd5b50565b600080829050601f8151111561045557826040517f305a27a900000000000000000000000000000000000000000000000000000000815260040161044c9190610aba565b60405180910390fd5b80518161046190610b0c565b60001c1760001b915050919050565b6000819050919050565b6000604051905090565b600080fd5b600080fd5b600080fd5b600080fd5b6000601f19601f8301169050919050565b7f4e487b7100000000000000000000000000000000000000000000000000000000600052604160045260246000fd5b6104e182610498565b810181811067ffffffffffffffff82111715610500576104ff6104a9565b5b80604052505050565b600061051361047a565b905061051f82826104d8565b919050565b600067ffffffffffffffff82111561053f5761053e6104a9565b5b61054882610498565b9050602081019050919050565b60005b83811015610573578082015181840152602081019050610558565b60008484015250505050565b600061059261058d84610524565b610509565b9050828152602081018484840111156105ae576105ad610493565b5b6105b9848285610555565b509392505050565b600082601f8301126105d6576105d561048e565b5b81516105e684826020860161057f565b91505092915050565b600073ffffffffffffffffffffffffffffffffffffffff82169050919050565b600061061a826105ef565b9050919050565b61062a8161060f565b811461063557600080fd5b50565b60008151905061064781610621565b92915050565b60008060006060848603121561066657610665610484565b5b600084015167ffffffffffffffff81111561068457610683610489565b5b610690868287016105c1565b935050602084015167ffffffffffffffff8111156106b1576106b0610489565b5b6106bd868287016105c1565b92505060406106ce86828701610638565b9150509250925092565b6106e18161060f565b82525050565b60006020820190506106fc60008301846106d8565b92915050565b6000819050919050565b61071581610702565b82525050565b6000819050919050565b61072e8161071b565b82525050565b600060a082019050610749600083018861070c565b610756602083018761070c565b610763604083018661070c565b6107706060830185610725565b61077d60808301846106d8565b9695505050505050565b600081519050919050565b7f4e487b7100000000000000000000000000000000000000000000000000000000600052602260045260246000fd5b600060028204905060018216806107d957607f821691505b6020821081036107ec576107eb610792565b5b50919050565b60008190508160005260206000209050919050565b60006020601f8301049050919050565b600082821b905092915050565b6000600883026108547fffffffffffffffffffffffffffffffffffffffffffffffffffffffffffffffff82610817565b61085e8683610817565b95508019841693508086168417925050509392505050565b6000819050919050565b600061089b6108966108918461071b565b610876565b61071b565b9050919050565b6000819050919050565b6108b583610880565b6108c96108c1826108a2565b848454610824565b825550505050565b600090565b6108de6108d1565b6108e98184846108ac565b505050565b5b8181101561090d576109026000826108d6565b6001810190506108ef565b5050565b601f82111561095257610923816107f2565b61092c84610807565b8101602085101561093b578190505b61094f61094785610807565b8301826108ee565b50505b505050565b600082821c905092915050565b600061097560001984600802610957565b1980831691505092915050565b600061098e8383610964565b9150826002028217905092915050565b6109a782610787565b67ffffffffffffffff8111156109c0576109bf6104a9565b5b6109ca82546107c1565b6109d5828285610911565b600060209050601f831160018114610a0857600084156109f6578287015190505b610a008582610982565b865550610a68565b601f198416610a16866107f2565b60005b82811015610a3e57848901518255600182019150602085019450602081019050610a19565b86831015610a5b5784890151610a57601f891682610964565b8355505b6001600288020188555050505b505050505050565b600082825260208201905092915050565b6000610a8c82610787565b610a968185610a70565b9350610aa6818560208601610555565b610aaf81610498565b840191505092915050565b60006020820190508181036000830152610ad48184610a81565b905092915050565b600081519050919050565b6000819050602082019050919050565b6000610b038251610702565b80915050919050565b6000610b1782610adc565b82610b2184610ae7565b9050610b2c81610af7565b92506020821015610b6c57610b677fffffffffffffffffffffffffffffffffffffffffffffffffffffffffffffffff83602003600802610817565b831692505b5050919050565b60805160a05160c05160e05161010051610120516101405161016051611d47610bd06000396000818161052d0152610e4101526000610d4001526000610d0501526000505060005050600050506000505060005050611d476000f3fe608060405234801561001057600080fd5b506004361061010b5760003560e01c80637b859846116100a2578063bc54552c11610071578063bc54552c14610266578063c40189d114610284578063f2fde38b146102a0578063f6a00025146102bc578063f89f69e7146102ec5761010b565b80637b859846146101fc57806384b0196e1461021a5780638da5cb5b1461023e578063933a7b071461025c5761010b565b80634f85beff116100de5780634f85beff14610198578063641714df146101b657806364d4c819146101d4578063715018a6146101f25761010b565b806302899be01461011057806315782ce61461012c5780632c8d2f451461015c5780633644e5151461017a575b600080fd5b61012a60048036038101906101259190611247565b61030a565b005b610146600480360381019061014191906112d9565b61035f565b6040516101539190611381565b60405180910390f35b610164610507565b60405161017191906113b5565b60405180910390f35b61018261052b565b60405161018f91906113b5565b60405180910390f35b6101a061054f565b6040516101ad91906113df565b60405180910390f35b6101be610555565b6040516101cb9190611409565b60405180910390f35b6101dc61057f565b6040516101e991906113b5565b60405180910390f35b6101fa6105a3565b005b6102046105b7565b6040516102119190611409565b60405180910390f35b6102226105e1565b604051610235979695949392919061159e565b60405180910390f35b61024661068c565b6040516102539190611409565b60405180910390f35b6102646106b5565b005b61026e610701565b60405161027b91906113b5565b60405180910390f35b61029e60048036038101906102999190611247565b610725565b005b6102ba60048036038101906102b59190611247565b61077a565b005b6102d660048036038101906102d191906112d9565b610800565b6040516102e3919061169f565b60405180910390f35b6102f46109c9565b60405161030191906113df565b60405180910390f35b6103126109cf565b61031b81610a56565b80600360006101000a81548173ffffffffffffffffffffffffffffffffffffffff021916908373ffffffffffffffffffffffffffffffffffffffff16021790555050565b610367611172565b600083838101906103789190611904565b905060008061038f83600001518460200151610abf565b91509150816103ca576040517fa903d90100000000000000000000000000000000000000000000000000000000815260040160405180910390fd5b600360009054906101000a900473ffffffffffffffffffffffffffffffffffffffff1673ffffffffffffffffffffffffffffffffffffffff168173ffffffffffffffffffffffffffffffffffffffff16141580156104765750600460009054906101000a900473ffffffffffffffffffffffffffffffffffffffff1673ffffffffffffffffffffffffffffffffffffffff168173ffffffffffffffffffffffffffffffffffffffff1614155b156104b857806040517fba320b9c0000000000000000000000000000000000000000000000000000000081526004016104af9190611409565b60405180910390fd5b6040518060600160405280846000015160200151815260200184600001516040015181526020016104f9856000015160000151866000015160600151610b7f565b815250935050505092915050565b7ff81a9e017d087972f510abf0fd1b3f7b4b3e06262f624f1e02a9971671014e7581565b7f000000000000000000000000000000000000000000000000000000000000000081565b610e1081565b6000600460009054906101000a900473ffffffffffffffffffffffffffffffffffffffff16905090565b7f8b73c3c69bb8fe3d512ecc4cf759cc79239f7b179b0ffacaa9a75d522b39400f81565b6105ab6109cf565b6105b56000610c38565b565b6000600360009054906101000a900473ffffffffffffffffffffffffffffffffffffffff16905090565b6000606080600080600060606105f5610cfc565b6105fd610d37565b6000806000801b600067ffffffffffffffff81111561061f5761061e6116bf565b5b60405190808252806020026020018201604052801561064d5781602001602082028036833780820191505090505b507f0f00000000000000000000000000000000000000000000000000000000000000959493929190965096509650965096509650965090919293949596565b60008060009054906101000a900473ffffffffffffffffffffffffffffffffffffffff16905090565b6106bd6109cf565b6000600460006101000a81548173ffffffffffffffffffffffffffffffffffffffff021916908373ffffffffffffffffffffffffffffffffffffffff160217905550565b7ff1dadf6b7ea9b4b71084ea0485581441c95ea32c613be9b94b3666750c9fb71f81565b61072d6109cf565b61073681610a56565b80600460006101000a81548173ffffffffffffffffffffffffffffffffffffffff021916908373ffffffffffffffffffffffffffffffffffffffff16021790555050565b6107826109cf565b600073ffffffffffffffffffffffffffffffffffffffff168173ffffffffffffffffffffffffffffffffffffffff16036107f45760006040517f1e4fbdf70000000000000000000000000000000000000000000000000000000081526004016107eb9190611409565b60405180910390fd5b6107fd81610c38565b50565b610808611193565b600083838101906108199190611a5d565b905060008061083083600001518460200151610d72565b915091508161086b576040517f4ce6516c00000000000000000000000000000000000000000000000000000000815260040160405180910390fd5b600360009054906101000a900473ffffffffffffffffffffffffffffffffffffffff1673ffffffffffffffffffffffffffffffffffffffff168173ffffffffffffffffffffffffffffffffffffffff16141580156109175750600460009054906101000a900473ffffffffffffffffffffffffffffffffffffffff1673ffffffffffffffffffffffffffffffffffffffff168173ffffffffffffffffffffffffffffffffffffffff1614155b1561095957806040517feb9b92a60000000000000000000000000000000000000000000000000000000081526004016109509190611409565b60405180910390fd5b60405180606001604052808460000151602001517dffffffffffffffffffffffffffffffffffffffffffffffffffffffffffff1916815260200184600001516040015181526020016109bb856000015160000151866000015160600151610b7f565b815250935050505092915050565b61012c81565b6109d7610e32565b73ffffffffffffffffffffffffffffffffffffffff166109f561068c565b73ffffffffffffffffffffffffffffffffffffffff1614610a5457610a18610e32565b6040517f118cdaa7000000000000000000000000000000000000000000000000000000008152600401610a4b9190611409565b60405180910390fd5b565b600073ffffffffffffffffffffffffffffffffffffffff168173ffffffffffffffffffffffffffffffffffffffff1603610abc576040517f44e2c97f00000000000000000000000000000000000000000000000000000000815260040160405180910390fd5b50565b6000806000610b2b7ff81a9e017d087972f510abf0fd1b3f7b4b3e06262f624f1e02a9971671014e758660000151876020015188604001518960600151604051602001610b10959493929190611aa6565b60405160208183030381529060405280519060200120610e3a565b9050600080610b438684610e6d90919063ffffffff16565b509150915060006003811115610b5c57610b5b611af9565b5b816003811115610b6f57610b6e611af9565b5b1482945094505050509250929050565b6000610e1042610b8f9190611b57565b831015610bc8576040517f3c52425500000000000000000000000000000000000000000000000000000000815260040160405180910390fd5b60008214610bd65781610bd8565b825b905061012c42610be89190611b8b565b811115610c21576040517f083c240800000000000000000000000000000000000000000000000000000000815260040160405180910390fd5b60008103610c3257610c31611bbf565b5b92915050565b60008060009054906101000a900473ffffffffffffffffffffffffffffffffffffffff169050816000806101000a81548173ffffffffffffffffffffffffffffffffffffffff021916908373ffffffffffffffffffffffffffffffffffffffff1602179055508173ffffffffffffffffffffffffffffffffffffffff168173ffffffffffffffffffffffffffffffffffffffff167f8be0079c531659141344cd1fd0a4f28419497f9722a3daafe3b4186f6b6457e060405160405180910390a35050565b6060610d3260017f0000000000000000000000000000000000000000000000000000000000000000610ec990919063ffffffff16565b905090565b6060610d6d60027f0000000000000000000000000000000000000000000000000000000000000000610ec990919063ffffffff16565b905090565b6000806000610dde7ff1dadf6b7ea9b4b71084ea0485581441c95ea32c613be9b94b3666750c9fb71f8660000151876020015188604001518960600151604051602001610dc3959493929190611bfd565b60405160208183030381529060405280519060200120610e3a565b9050600080610df68684610e6d90919063ffffffff16565b509150915060006003811115610e0f57610e0e611af9565b5b816003811115610e2257610e21611af9565b5b1482945094505050509250929050565b600033905090565b6000610e667f000000000000000000000000000000000000000000000000000000000000000083610f79565b9050919050565b60008060006041845103610eb25760008060006020870151925060408701519150606087015160001a9050610ea488828585610fba565b955095509550505050610ec2565b60006002855160001b9250925092505b9250925092565b606060ff60001b8314610ee657610edf836110ae565b9050610f73565b818054610ef290611c7f565b80601f0160208091040260200160405190810160405280929190818152602001828054610f1e90611c7f565b8015610f6b5780601f10610f4057610100808354040283529160200191610f6b565b820191906000526020600020905b815481529060010190602001808311610f4e57829003601f168201915b505050505090505b92915050565b60006040517f190100000000000000000000000000000000000000000000000000000000000081528360028201528260228201526042812091505092915050565b60008060007f7fffffffffffffffffffffffffffffff5d576e7357a4501ddfe92f46681b20a08460001c1115610ffa5760006003859250925092506110a4565b60006001888888886040516000815260200160405260405161101f9493929190611ccc565b6020604051602081039080840390855afa158015611041573d6000803e3d6000fd5b505050602060405103519050600073ffffffffffffffffffffffffffffffffffffffff168173ffffffffffffffffffffffffffffffffffffffff160361109557600060016000801b935093509350506110a4565b8060008060001b935093509350505b9450945094915050565b606060006110bb83611122565b90506000602067ffffffffffffffff8111156110da576110d96116bf565b5b6040519080825280601f01601f19166020018201604052801561110c5781602001600182028036833780820191505090505b5090508181528360208201528092505050919050565b60008060ff8360001c169050601f811115611169576040517fb3512b0c00000000000000000000000000000000000000000000000000000000815260040160405180910390fd5b80915050919050565b60405180606001604052806000815260200160008152602001600081525090565b604051806060016040528060007dffffffffffffffffffffffffffffffffffffffffffffffffffffffffffff1916815260200160008152602001600081525090565b6000604051905090565b600080fd5b600080fd5b600073ffffffffffffffffffffffffffffffffffffffff82169050919050565b6000611214826111e9565b9050919050565b61122481611209565b811461122f57600080fd5b50565b6000813590506112418161121b565b92915050565b60006020828403121561125d5761125c6111df565b5b600061126b84828501611232565b91505092915050565b600080fd5b600080fd5b600080fd5b60008083601f84011261129957611298611274565b5b8235905067ffffffffffffffff8111156112b6576112b5611279565b5b6020830191508360018202830111156112d2576112d161127e565b5b9250929050565b600080602083850312156112f0576112ef6111df565b5b600083013567ffffffffffffffff81111561130e5761130d6111e4565b5b61131a85828601611283565b92509250509250929050565b6000819050919050565b61133981611326565b82525050565b6060820160008201516113556000850182611330565b5060208201516113686020850182611330565b50604082015161137b6040850182611330565b50505050565b6000606082019050611396600083018461133f565b92915050565b6000819050919050565b6113af8161139c565b82525050565b60006020820190506113ca60008301846113a6565b92915050565b6113d981611326565b82525050565b60006020820190506113f460008301846113d0565b92915050565b61140381611209565b82525050565b600060208201905061141e60008301846113fa565b92915050565b60007fff0000000000000000000000000000000000000000000000000000000000000082169050919050565b61145981611424565b82525050565b600081519050919050565b600082825260208201905092915050565b60005b8381101561149957808201518184015260208101905061147e565b60008484015250505050565b6000601f19601f8301169050919050565b60006114c18261145f565b6114cb818561146a565b93506114db81856020860161147b565b6114e4816114a5565b840191505092915050565b600081519050919050565b600082825260208201905092915050565b6000819050602082019050919050565b60006115278383611330565b60208301905092915050565b6000602082019050919050565b600061154b826114ef565b61155581856114fa565b93506115608361150b565b8060005b83811015611591578151611578888261151b565b975061158383611533565b925050600181019050611564565b5085935050505092915050565b600060e0820190506115b3600083018a611450565b81810360208301526115c581896114b6565b905081810360408301526115d981886114b6565b90506115e860608301876113d0565b6115f560808301866113fa565b61160260a08301856113a6565b81810360c08301526116148184611540565b905098975050505050505050565b60007fffff00000000000000000000000000000000000000000000000000000000000082169050919050565b61165781611622565b82525050565b606082016000820151611673600085018261164e565b5060208201516116866020850182611330565b5060408201516116996040850182611330565b50505050565b60006060820190506116b4600083018461165d565b92915050565b600080fd5b7f4e487b7100000000000000000000000000000000000000000000000000000000600052604160045260246000fd5b6116f7826114a5565b810181811067ffffffffffffffff82111715611716576117156116bf565b5b80604052505050565b60006117296111d5565b905061173582826116ee565b919050565b600080fd5b61174881611326565b811461175357600080fd5b50565b6000813590506117658161173f565b92915050565b600060808284031215611781576117806116ba565b5b61178b608061171f565b9050600061179b84828501611756565b60008301525060206117af84828501611756565b60208301525060406117c384828501611756565b60408301525060606117d784828501611756565b60608301525092915050565b600080fd5b600067ffffffffffffffff821115611803576118026116bf565b5b61180c826114a5565b9050602081019050919050565b82818337600083830152505050565b600061183b611836846117e8565b61171f565b905082815260208101848484011115611857576118566117e3565b5b611862848285611819565b509392505050565b600082601f83011261187f5761187e611274565b5b813561188f848260208601611828565b91505092915050565b600060a082840312156118ae576118ad6116ba565b5b6118b8604061171f565b905060006118c88482850161176b565b600083015250608082013567ffffffffffffffff8111156118ec576118eb61173a565b5b6118f88482850161186a565b60208301525092915050565b60006020828403121561191a576119196111df565b5b600082013567ffffffffffffffff811115611938576119376111e4565b5b61194484828501611898565b91505092915050565b61195681611622565b811461196157600080fd5b50565b6000813590506119738161194d565b92915050565b60006080828403121561198f5761198e6116ba565b5b611999608061171f565b905060006119a984828501611756565b60008301525060206119bd84828501611964565b60208301525060406119d184828501611756565b60408301525060606119e584828501611756565b60608301525092915050565b600060a08284031215611a0757611a066116ba565b5b611a11604061171f565b90506000611a2184828501611979565b600083015250608082013567ffffffffffffffff811115611a4557611a4461173a565b5b611a518482850161186a565b60208301525092915050565b600060208284031215611a7357611a726111df565b5b600082013567ffffffffffffffff811115611a9157611a906111e4565b5b611a9d848285016119f1565b91505092915050565b600060a082019050611abb60008301886113a6565b611ac860208301876113d0565b611ad560408301866113d0565b611ae260608301856113d0565b611aef60808301846113d0565b9695505050505050565b7f4e487b7100000000000000000000000000000000000000000000000000000000600052602160045260246000fd5b7f4e487b7100000000000000000000000000000000000000000000000000000000600052601160045260246000fd5b6000611b6282611326565b9150611b6d83611326565b9250828203905081811115611b8557611b84611b28565b5b92915050565b6000611b9682611326565b9150611ba183611326565b9250828201905080821115611bb957611bb8611b28565b5b92915050565b7f4e487b7100000000000000000000000000000000000000000000000000000000600052600160045260246000fd5b611bf781611622565b82525050565b600060a082019050611c1260008301886113a6565b611c1f60208301876113d0565b611c2c6040830186611bee565b611c3960608301856113d0565b611c4660808301846113d0565b9695505050505050565b7f4e487b7100000000000000000000000000000000000000000000000000000000600052602260045260246000fd5b60006002820490506001821680611c9757607f821691505b602082108103611caa57611ca9611c50565b5b50919050565b600060ff82169050919050565b611cc681611cb0565b82525050565b6000608082019050611ce160008301876113a6565b611cee6020830186611cbd565b611cfb60408301856113a6565b611d0860608301846113a6565b9594505050505056fea264697066735822122066039326547a3c889e28720bb0a2dd564c8da83e1e77bc634b507f73de7caa6664736f6c634300081b0033",
  "linkReferences": {},
  "deployedLinkReferences": {}
}