{
  "_format": "hh-sol-artifact-1",
  "contractName": "CrossChainProofValidator",
  "sourceName": "contracts/cross-chain/CrossChainProofValidator.sol",
  "abi": [
    {
      "inputs": [
        {
          "internalType": "string",
          "name": "domainName",
          "type": "string"
        },
        {
          "internalType": "string",
          "name": "signatureVersion",
          "type": "string"
        },
        {
          "internalType": "address",
          "name": "oracleSigningAddress",
          "type": "address"
        }
      ],
      "stateMutability": "nonpayable",
      "type": "constructor"
    },
    {
      "inputs": [],
      "name": "GlobalStateProofInvalid",
      "type": "error"
    },
    {
      "inputs": [
        {
          "internalType": "address",
          "name": "recovered",
          "type": "address"
        }
      ],
      "name": "GlobalStateProofSigningAddressInvalid",
      "type": "error"
    },
    {
      "inputs": [],
      "name": "IdentityStateProofInvalid",
      "type": "error"
    },
    {
      "inputs": [
        {
          "internalType": "address",
          "name": "recovered",
          "type": "address"
        }
      ],
      "name": "IdentityStateProofSigningAddressInvalid",
      "type": "error"
    },
    {
      "inputs": [],
      "name": "InvalidShortString",
      "type": "error"
    },
    {
      "inputs": [],
      "name": "OracleReplacedAtTimestampCannotBeInTheFuture",
      "type": "error"
    },
    {
      "inputs": [],
      "name": "OracleSigningAddressShouldNotBeZero",
      "type": "error"
    },
    {
      "inputs": [],
      "name": "OracleTimestampCannotBeInThePast",
      "type": "error"
    },
    {
      "inputs": [
        {
          "internalType": "address",
          "name": "owner",
          "type": "address"
        }
      ],
      "name": "OwnableInvalidOwner",
      "type": "error"
    },
    {
      "inputs": [
        {
          "internalType": "address",
          "name": "account",
          "type": "address"
        }
      ],
      "name": "OwnableUnauthorizedAccount",
      "type": "error"
    },
    {
      "inputs": [
        {
          "internalType": "string",
          "name": "str",
          "type": "string"
        }
      ],
      "name": "StringTooLong",
      "type": "error"
    },
    {
      "anonymous": false,
      "inputs": [],
      "name": "EIP712DomainChanged",
      "type": "event"
    },
    {
      "anonymous": false,
      "inputs": [
        {
          "indexed": true,
          "internalType": "address",
          "name": "previousOwner",
          "type": "address"
        },
        {
          "indexed": true,
          "internalType": "address",
          "name": "newOwner",
          "type": "address"
        }
      ],
      "name": "OwnershipTransferred",
      "type": "event"
    },
    {
      "inputs": [],
      "name": "DOMAIN_SEPARATOR",
      "outputs": [
        {
          "internalType": "bytes32",
          "name": "",
          "type": "bytes32"
        }
      ],
      "stateMutability": "view",
      "type": "function"
    },
    {
      "inputs": [],
      "name": "GLOBAL_STATE_MESSAGE_TYPEHASH",
      "outputs": [
        {
          "internalType": "bytes32",
          "name": "",
          "type": "bytes32"
        }
      ],
      "stateMutability": "view",
      "type": "function"
    },
    {
      "inputs": [],
      "name": "IDENTITY_STATE_MESSAGE_TYPEHASH",
      "outputs": [
        {
          "internalType": "bytes32",
          "name": "",
          "type": "bytes32"
        }
      ],
      "stateMutability": "view",
      "type": "function"
    },
    {
      "inputs": [],
      "name": "MAX_REPLACED_AT_AHEAD_OF_TIME",
      "outputs": [
        {
          "internalType": "uint256",
          "name": "",
          "type": "uint256"
        }
      ],
      "stateMutability": "view",
      "type": "function"
    },
    {
      "inputs": [],
      "name": "MAX_TIMESTAMP_LAG",
      "outputs": [
        {
          "internalType": "uint256",
          "name": "",
          "type": "uint256"
        }
      ],
      "stateMutability": "view",
      "type": "function"
    },
    {
      "inputs": [],
      "name": "TYPE_HASH",
      "outputs": [
        {
          "internalType": "bytes32",
          "name": "",
          "type": "bytes32"
        }
      ],
      "stateMutability": "view",
      "type": "function"
    },
    {
      "inputs": [],
      "name": "eip712Domain",
      "outputs": [
        {
          "internalType": "bytes1",
          "name": "fields",
          "type": "bytes1"
        },
        {
          "internalType": "string",
          "name": "name",
          "type": "string"
        },
        {
          "internalType": "string",
          "name": "version",
          "type": "string"
        },
        {
          "internalType": "uint256",
          "name": "chainId",
          "type": "uint256"
        },
        {
          "internalType": "address",
          "name": "verifyingContract",
          "type": "address"
        },
        {
          "internalType": "bytes32",
          "name": "salt",
          "type": "bytes32"
        },
        {
          "internalType": "uint256[]",
          "name": "extensions",
          "type": "uint256[]"
        }
      ],
      "stateMutability": "view",
      "type": "function"
    },
    {
      "inputs": [],
      "name": "getOracleSigningAddress",
      "outputs": [
        {
          "internalType": "address",
          "name": "",
          "type": "address"
        }
      ],
      "stateMutability": "view",
      "type": "function"
    },
    {
      "inputs": [],
      "name": "owner",
      "outputs": [
        {
          "internalType": "address",
          "name": "",
          "type": "address"
        }
      ],
      "stateMutability": "view",
      "type": "function"
    },
    {
      "inputs": [
        {
          "internalType": "bytes",
          "name": "globalStateProof",
          "type": "bytes"
        }
      ],
      "name": "processGlobalStateProof",
      "outputs": [
        {
          "components": [
            {
              "internalType": "bytes2",
              "name": "idType",
              "type": "bytes2"
            },
            {
              "internalType": "uint256",
              "name": "root",
              "type": "uint256"
            },
            {
              "internalType": "uint256",
              "name": "replacedAtTimestamp",
              "type": "uint256"
            }
          ],
          "internalType": "struct IState.GlobalStateProcessResult",
          "name": "",
          "type": "tuple"
        }
      ],
      "stateMutability": "view",
      "type": "function"
    },
    {
      "inputs": [
        {
          "internalType": "bytes",
          "name": "identityStateProof",
          "type": "bytes"
        }
      ],
      "name": "processIdentityStateProof",
      "outputs": [
        {
          "components": [
            {
              "internalType": "uint256",
              "name": "id",
              "type": "uint256"
            },
            {
              "internalType": "uint256",
              "name": "state",
              "type": "uint256"
            },
            {
              "internalType": "uint256",
              "name": "replacedAtTimestamp",
              "type": "uint256"
            }
          ],
          "internalType": "struct IState.IdentityStateProcessResult",
          "name": "",
          "type": "tuple"
        }
      ],
      "stateMutability": "view",
      "type": "function"
    },
    {
      "inputs": [],
      "name": "renounceOwnership",
      "outputs": [],
      "stateMutability": "nonpayable",
      "type": "function"
    },
    {
      "inputs": [
        {
          "internalType": "address",
          "name": "oracleSigningAddress",
          "type": "address"
        }
      ],
      "name": "setOracleSigningAddress",
      "outputs": [],
      "stateMutability": "nonpayable",
      "type": "function"
    },
    {
      "inputs": [
        {
          "internalType": "address",
          "name": "newOwner",
          "type": "address"
        }
      ],
      "name": "transferOwnership",
      "outputs": [],
      "stateMutability": "nonpayable",
      "type": "function"
    }
  ],
  "bytecode": "0x61018060405234801561001157600080fd5b5060405161272f38038061272f8339818101604052810190610033919061064d565b828233600073ffffffffffffffffffffffffffffffffffffffff168173ffffffffffffffffffffffffffffffffffffffff16036100a85760006040517f1e4fbdf700000000000000000000000000000000000000000000000000000000815260040161009f91906106e7565b60405180910390fd5b6100b78161023060201b60201c565b506100cc6001836102f460201b90919060201c565b61012081815250506100e86002826102f460201b90919060201c565b6101408181525050818051906020012060e08181525050808051906020012061010081815250504660a0818152505061012561034460201b60201c565b608081815250503073ffffffffffffffffffffffffffffffffffffffff1660c08173ffffffffffffffffffffffffffffffffffffffff168152505050506101718161039f60201b60201c565b6000838051906020012090506000838051906020012090506000807f8b73c3c69bb8fe3d512ecc4cf759cc79239f7b179b0ffacaa9a75d522b39400f848484846040516020016101c5959493929190610734565b60405160208183030381529060405280519060200120610160818152505084600360006101000a81548173ffffffffffffffffffffffffffffffffffffffff021916908373ffffffffffffffffffffffffffffffffffffffff16021790555050505050505050610b73565b60008060009054906101000a900473ffffffffffffffffffffffffffffffffffffffff169050816000806101000a81548173ffffffffffffffffffffffffffffffffffffffff021916908373ffffffffffffffffffffffffffffffffffffffff1602179055508173ffffffffffffffffffffffffffffffffffffffff168173ffffffffffffffffffffffffffffffffffffffff167f8be0079c531659141344cd1fd0a4f28419497f9722a3daafe3b4186f6b6457e060405160405180910390a35050565b60006020835110156103165761030f8361040860201b60201c565b905061033e565b826103268361047060201b60201c565b6000019081610335919061099e565b5060ff60001b90505b92915050565b60007f8b73c3c69bb8fe3d512ecc4cf759cc79239f7b179b0ffacaa9a75d522b39400f60e051610100514630604051602001610384959493929190610734565b60405160208183030381529060405280519060200120905090565b600073ffffffffffffffffffffffffffffffffffffffff168173ffffffffffffffffffffffffffffffffffffffff1603610405576040517f44e2c97f00000000000000000000000000000000000000000000000000000000815260040160405180910390fd5b50565b600080829050601f8151111561045557826040517f305a27a900000000000000000000000000000000000000000000000000000000815260040161044c9190610aba565b60405180910390fd5b80518161046190610b0c565b60001c1760001b915050919050565b6000819050919050565b6000604051905090565b600080fd5b600080fd5b600080fd5b600080fd5b6000601f19601f8301169050919050565b7f4e487b7100000000000000000000000000000000000000000000000000000000600052604160045260246000fd5b6104e182610498565b810181811067ffffffffffffffff82111715610500576104ff6104a9565b5b80604052505050565b600061051361047a565b905061051f82826104d8565b919050565b600067ffffffffffffffff82111561053f5761053e6104a9565b5b61054882610498565b9050602081019050919050565b60005b83811015610573578082015181840152602081019050610558565b60008484015250505050565b600061059261058d84610524565b610509565b9050828152602081018484840111156105ae576105ad610493565b5b6105b9848285610555565b509392505050565b600082601f8301126105d6576105d561048e565b5b81516105e684826020860161057f565b91505092915050565b600073ffffffffffffffffffffffffffffffffffffffff82169050919050565b600061061a826105ef565b9050919050565b61062a8161060f565b811461063557600080fd5b50565b60008151905061064781610621565b92915050565b60008060006060848603121561066657610665610484565b5b600084015167ffffffffffffffff81111561068457610683610489565b5b610690868287016105c1565b935050602084015167ffffffffffffffff8111156106b1576106b0610489565b5b6106bd868287016105c1565b92505060406106ce86828701610638565b9150509250925092565b6106e18161060f565b82525050565b60006020820190506106fc60008301846106d8565b92915050565b6000819050919050565b61071581610702565b82525050565b6000819050919050565b61072e8161071b565b82525050565b600060a082019050610749600083018861070c565b610756602083018761070c565b610763604083018661070c565b6107706060830185610725565b61077d60808301846106d8565b9695505050505050565b600081519050919050565b7f4e487b7100000000000000000000000000000000000000000000000000000000600052602260045260246000fd5b600060028204905060018216806107d957607f821691505b6020821081036107ec576107eb610792565b5b50919050565b60008190508160005260206000209050919050565b60006020601f8301049050919050565b600082821b905092915050565b6000600883026108547fffffffffffffffffffffffffffffffffffffffffffffffffffffffffffffffff82610817565b61085e8683610817565b95508019841693508086168417925050509392505050565b6000819050919050565b600061089b6108966108918461071b565b610876565b61071b565b9050919050565b6000819050919050565b6108b583610880565b6108c96108c1826108a2565b848454610824565b825550505050565b600090565b6108de6108d1565b6108e98184846108ac565b505050565b5b8181101561090d576109026000826108d6565b6001810190506108ef565b5050565b601f82111561095257610923816107f2565b61092c84610807565b8101602085101561093b578190505b61094f61094785610807565b8301826108ee565b50505b505050565b600082821c905092915050565b600061097560001984600802610957565b1980831691505092915050565b600061098e8383610964565b9150826002028217905092915050565b6109a782610787565b67ffffffffffffffff8111156109c0576109bf6104a9565b5b6109ca82546107c1565b6109d5828285610911565b600060209050601f831160018114610a0857600084156109f6578287015190505b610a008582610982565b865550610a68565b601f198416610a16866107f2565b60005b82811015610a3e57848901518255600182019150602085019450602081019050610a19565b86831015610a5b5784890151610a57601f891682610964565b8355505b6001600288020188555050505b505050505050565b600082825260208201905092915050565b6000610a8c82610787565b610a968185610a70565b9350610aa6818560208601610555565b610aaf81610498565b840191505092915050565b60006020820190508181036000830152610ad48184610a81565b905092915050565b600081519050919050565b6000819050602082019050919050565b6000610b038251610702565b80915050919050565b6000610b1782610adc565b82610b2184610ae7565b9050610b2c81610af7565b92506020821015610b6c57610b677fffffffffffffffffffffffffffffffffffffffffffffffffffffffffffffffff83602003600802610817565b831692505b5050919050565b60805160a05160c05160e05161010051610120516101405161016051611b5f610bd06000396000818161046c0152610c5901526000610b5801526000610b1d01526000505060005050600050506000505060005050611b5f6000f3fe608060405234801561001057600080fd5b50600436106100ea5760003560e01c80637b8598461161008c578063bc54552c11610066578063bc54552c1461021d578063f2fde38b1461023b578063f6a0002514610257578063f89f69e714610287576100ea565b80637b859846146101bd57806384b0196e146101db5780638da5cb5b146101ff576100ea565b80633644e515116100c85780633644e515146101595780634f85beff1461017757806364d4c81914610195578063715018a6146101b3576100ea565b806302899be0146100ef57806315782ce61461010b5780632c8d2f451461013b575b600080fd5b6101096004803603810190610104919061105f565b6102a5565b005b610125600480360381019061012091906110f1565b6102fa565b6040516101329190611199565b60405180910390f35b610143610446565b60405161015091906111cd565b60405180910390f35b61016161046a565b60405161016e91906111cd565b60405180910390f35b61017f61048e565b60405161018c91906111f7565b60405180910390f35b61019d610494565b6040516101aa91906111cd565b60405180910390f35b6101bb6104b8565b005b6101c56104cc565b6040516101d29190611221565b60405180910390f35b6101e36104f6565b6040516101f697969594939291906113b6565b60405180910390f35b6102076105a1565b6040516102149190611221565b60405180910390f35b6102256105ca565b60405161023291906111cd565b60405180910390f35b6102556004803603810190610250919061105f565b6105ee565b005b610271600480360381019061026c91906110f1565b610674565b60405161027e91906114b7565b60405180910390f35b61028f6107e1565b60405161029c91906111f7565b60405180910390f35b6102ad6107e7565b6102b68161086e565b80600360006101000a81548173ffffffffffffffffffffffffffffffffffffffff021916908373ffffffffffffffffffffffffffffffffffffffff16021790555050565b610302610f8a565b60008383810190610313919061171c565b905060008061032a836000015184602001516108d7565b9150915081610365576040517fa903d90100000000000000000000000000000000000000000000000000000000815260040160405180910390fd5b600360009054906101000a900473ffffffffffffffffffffffffffffffffffffffff1673ffffffffffffffffffffffffffffffffffffffff168173ffffffffffffffffffffffffffffffffffffffff16146103f757806040517fba320b9c0000000000000000000000000000000000000000000000000000000081526004016103ee9190611221565b60405180910390fd5b604051806060016040528084600001516020015181526020018460000151604001518152602001610438856000015160000151866000015160600151610997565b815250935050505092915050565b7ff81a9e017d087972f510abf0fd1b3f7b4b3e06262f624f1e02a9971671014e7581565b7f000000000000000000000000000000000000000000000000000000000000000081565b610e1081565b7f8b73c3c69bb8fe3d512ecc4cf759cc79239f7b179b0ffacaa9a75d522b39400f81565b6104c06107e7565b6104ca6000610a50565b565b6000600360009054906101000a900473ffffffffffffffffffffffffffffffffffffffff16905090565b60006060806000806000606061050a610b14565b610512610b4f565b6000806000801b600067ffffffffffffffff811115610534576105336114d7565b5b6040519080825280602002602001820160405280156105625781602001602082028036833780820191505090505b507f0f00000000000000000000000000000000000000000000000000000000000000959493929190965096509650965096509650965090919293949596565b60008060009054906101000a900473ffffffffffffffffffffffffffffffffffffffff16905090565b7ff1dadf6b7ea9b4b71084ea0485581441c95ea32c613be9b94b3666750c9fb71f81565b6105f66107e7565b600073ffffffffffffffffffffffffffffffffffffffff168173ffffffffffffffffffffffffffffffffffffffff16036106685760006040517f1e4fbdf700000000000000000000000000000000000000000000000000000000815260040161065f9190611221565b60405180910390fd5b61067181610a50565b50565b61067c610fab565b6000838381019061068d9190611875565b90506000806106a483600001518460200151610b8a565b91509150816106df576040517f4ce6516c00000000000000000000000000000000000000000000000000000000815260040160405180910390fd5b600360009054906101000a900473ffffffffffffffffffffffffffffffffffffffff1673ffffffffffffffffffffffffffffffffffffffff168173ffffffffffffffffffffffffffffffffffffffff161461077157806040517feb9b92a60000000000000000000000000000000000000000000000000000000081526004016107689190611221565b60405180910390fd5b60405180606001604052808460000151602001517dffffffffffffffffffffffffffffffffffffffffffffffffffffffffffff1916815260200184600001516040015181526020016107d3856000015160000151866000015160600151610997565b815250935050505092915050565b61012c81565b6107ef610c4a565b73ffffffffffffffffffffffffffffffffffffffff1661080d6105a1565b73ffffffffffffffffffffffffffffffffffffffff161461086c57610830610c4a565b6040517f118cdaa70000000000000000000000000000000000000000000000000000000081526004016108639190611221565b60405180910390fd5b565b600073ffffffffffffffffffffffffffffffffffffffff168173ffffffffffffffffffffffffffffffffffffffff16036108d4576040517f44e2c97f00000000000000000000000000000000000000000000000000000000815260040160405180910390fd5b50565b60008060006109437ff81a9e017d087972f510abf0fd1b3f7b4b3e06262f624f1e02a9971671014e7586600001518760200151886040015189606001516040516020016109289594939291906118be565b60405160208183030381529060405280519060200120610c52565b905060008061095b8684610c8590919063ffffffff16565b50915091506000600381111561097457610973611911565b5b81600381111561098757610986611911565b5b1482945094505050509250929050565b6000610e10426109a7919061196f565b8310156109e0576040517f3c52425500000000000000000000000000000000000000000000000000000000815260040160405180910390fd5b600082146109ee57816109f0565b825b905061012c42610a0091906119a3565b811115610a39576040517f083c240800000000000000000000000000000000000000000000000000000000815260040160405180910390fd5b60008103610a4a57610a496119d7565b5b92915050565b60008060009054906101000a900473ffffffffffffffffffffffffffffffffffffffff169050816000806101000a81548173ffffffffffffffffffffffffffffffffffffffff021916908373ffffffffffffffffffffffffffffffffffffffff1602179055508173ffffffffffffffffffffffffffffffffffffffff168173ffffffffffffffffffffffffffffffffffffffff167f8be0079c531659141344cd1fd0a4f28419497f9722a3daafe3b4186f6b6457e060405160405180910390a35050565b6060610b4a60017f0000000000000000000000000000000000000000000000000000000000000000610ce190919063ffffffff16565b905090565b6060610b8560027f0000000000000000000000000000000000000000000000000000000000000000610ce190919063ffffffff16565b905090565b6000806000610bf67ff1dadf6b7ea9b4b71084ea0485581441c95ea32c613be9b94b3666750c9fb71f8660000151876020015188604001518960600151604051602001610bdb959493929190611a15565b60405160208183030381529060405280519060200120610c52565b9050600080610c0e8684610c8590919063ffffffff16565b509150915060006003811115610c2757610c26611911565b5b816003811115610c3a57610c39611911565b5b1482945094505050509250929050565b600033905090565b6000610c7e7f000000000000000000000000000000000000000000000000000000000000000083610d91565b9050919050565b60008060006041845103610cca5760008060006020870151925060408701519150606087015160001a9050610cbc88828585610dd2565b955095509550505050610cda565b60006002855160001b9250925092505b9250925092565b606060ff60001b8314610cfe57610cf783610ec6565b9050610d8b565b818054610d0a90611a97565b80601f0160208091040260200160405190810160405280929190818152602001828054610d3690611a97565b8015610d835780601f10610d5857610100808354040283529160200191610d83565b820191906000526020600020905b815481529060010190602001808311610d6657829003601f168201915b505050505090505b92915050565b60006040517f190100000000000000000000000000000000000000000000000000000000000081528360028201528260228201526042812091505092915050565b60008060007f7fffffffffffffffffffffffffffffff5d576e7357a4501ddfe92f46681b20a08460001c1115610e12576000600385925092509250610ebc565b600060018888888860405160008152602001604052604051610e379493929190611ae4565b6020604051602081039080840390855afa158015610e59573d6000803e3d6000fd5b505050602060405103519050600073ffffffffffffffffffffffffffffffffffffffff168173ffffffffffffffffffffffffffffffffffffffff1603610ead57600060016000801b93509350935050610ebc565b8060008060001b935093509350505b9450945094915050565b60606000610ed383610f3a565b90506000602067ffffffffffffffff811115610ef257610ef16114d7565b5b6040519080825280601f01601f191660200182016040528015610f245781602001600182028036833780820191505090505b5090508181528360208201528092505050919050565b60008060ff8360001c169050601f811115610f81576040517fb3512b0c00000000000000000000000000000000000000000000000000000000815260040160405180910390fd5b80915050919050565b60405180606001604052806000815260200160008152602001600081525090565b604051806060016040528060007dffffffffffffffffffffffffffffffffffffffffffffffffffffffffffff1916815260200160008152602001600081525090565b6000604051905090565b600080fd5b600080fd5b600073ffffffffffffffffffffffffffffffffffffffff82169050919050565b600061102c82611001565b9050919050565b61103c81611021565b811461104757600080fd5b50565b60008135905061105981611033565b92915050565b60006020828403121561107557611074610ff7565b5b60006110838482850161104a565b91505092915050565b600080fd5b600080fd5b600080fd5b60008083601f8401126110b1576110b061108c565b5b8235905067ffffffffffffffff8111156110ce576110cd611091565b5b6020830191508360018202830111156110ea576110e9611096565b5b9250929050565b6000806020838503121561110857611107610ff7565b5b600083013567ffffffffffffffff81111561112657611125610ffc565b5b6111328582860161109b565b92509250509250929050565b6000819050919050565b6111518161113e565b82525050565b60608201600082015161116d6000850182611148565b5060208201516111806020850182611148565b5060408201516111936040850182611148565b50505050565b60006060820190506111ae6000830184611157565b92915050565b6000819050919050565b6111c7816111b4565b82525050565b60006020820190506111e260008301846111be565b92915050565b6111f18161113e565b82525050565b600060208201905061120c60008301846111e8565b92915050565b61121b81611021565b82525050565b60006020820190506112366000830184611212565b92915050565b60007fff0000000000000000000000000000000000000000000000000000000000000082169050919050565b6112718161123c565b82525050565b600081519050919050565b600082825260208201905092915050565b60005b838110156112b1578082015181840152602081019050611296565b60008484015250505050565b6000601f19601f8301169050919050565b60006112d982611277565b6112e38185611282565b93506112f3818560208601611293565b6112fc816112bd565b840191505092915050565b600081519050919050565b600082825260208201905092915050565b6000819050602082019050919050565b600061133f8383611148565b60208301905092915050565b6000602082019050919050565b600061136382611307565b61136d8185611312565b935061137883611323565b8060005b838110156113a95781516113908882611333565b975061139b8361134b565b92505060018101905061137c565b5085935050505092915050565b600060e0820190506113cb600083018a611268565b81810360208301526113dd81896112ce565b905081810360408301526113f181886112ce565b905061140060608301876111e8565b61140d6080830186611212565b61141a60a08301856111be565b81810360c083015261142c8184611358565b905098975050505050505050565b60007fffff00000000000000000000000000000000000000000000000000000000000082169050919050565b61146f8161143a565b82525050565b60608201600082015161148b6000850182611466565b50602082015161149e6020850182611148565b5060408201516114b16040850182611148565b50505050565b60006060820190506114cc6000830184611475565b92915050565b600080fd5b7f4e487b7100000000000000000000000000000000000000000000000000000000600052604160045260246000fd5b61150f826112bd565b810181811067ffffffffffffffff8211171561152e5761152d6114d7565b5b80604052505050565b6000611541610fed565b905061154d8282611506565b919050565b600080fd5b6115608161113e565b811461156b57600080fd5b50565b60008135905061157d81611557565b92915050565b600060808284031215611599576115986114d2565b5b6115a36080611537565b905060006115b38482850161156e565b60008301525060206115c78482850161156e565b60208301525060406115db8482850161156e565b60408301525060606115ef8482850161156e565b60608301525092915050565b600080fd5b600067ffffffffffffffff82111561161b5761161a6114d7565b5b611624826112bd565b9050602081019050919050565b82818337600083830152505050565b600061165361164e84611600565b611537565b90508281526020810184848401111561166f5761166e6115fb565b5b61167a848285611631565b509392505050565b600082601f8301126116975761169661108c565b5b81356116a7848260208601611640565b91505092915050565b600060a082840312156116c6576116c56114d2565b5b6116d06040611537565b905060006116e084828501611583565b600083015250608082013567ffffffffffffffff81111561170457611703611552565b5b61171084828501611682565b60208301525092915050565b60006020828403121561173257611731610ff7565b5b600082013567ffffffffffffffff8111156117505761174f610ffc565b5b61175c848285016116b0565b91505092915050565b61176e8161143a565b811461177957600080fd5b50565b60008135905061178b81611765565b92915050565b6000608082840312156117a7576117a66114d2565b5b6117b16080611537565b905060006117c18482850161156e565b60008301525060206117d58482850161177c565b60208301525060406117e98482850161156e565b60408301525060606117fd8482850161156e565b60608301525092915050565b600060a0828403121561181f5761181e6114d2565b5b6118296040611537565b9050600061183984828501611791565b600083015250608082013567ffffffffffffffff81111561185d5761185c611552565b5b61186984828501611682565b60208301525092915050565b60006020828403121561188b5761188a610ff7565b5b600082013567ffffffffffffffff8111156118a9576118a8610ffc565b5b6118b584828501611809565b91505092915050565b600060a0820190506118d360008301886111be565b6118e060208301876111e8565b6118ed60408301866111e8565b6118fa60608301856111e8565b61190760808301846111e8565b9695505050505050565b7f4e487b7100000000000000000000000000000000000000000000000000000000600052602160045260246000fd5b7f4e487b7100000000000000000000000000000000000000000000000000000000600052601160045260246000fd5b600061197a8261113e565b91506119858361113e565b925082820390508181111561199d5761199c611940565b5b92915050565b60006119ae8261113e565b91506119b98361113e565b92508282019050808211156119d1576119d0611940565b5b92915050565b7f4e487b7100000000000000000000000000000000000000000000000000000000600052600160045260246000fd5b611a0f8161143a565b82525050565b600060a082019050611a2a60008301886111be565b611a3760208301876111e8565b611a446040830186611a06565b611a5160608301856111e8565b611a5e60808301846111e8565b9695505050505050565b7f4e487b7100000000000000000000000000000000000000000000000000000000600052602260045260246000fd5b60006002820490506001821680611aaf57607f821691505b602082108103611ac257611ac1611a68565b5b50919050565b600060ff82169050919050565b611ade81611ac8565b82525050565b6000608082019050611af960008301876111be565b611b066020830186611ad5565b611b1360408301856111be565b611b2060608301846111be565b9594505050505056fea2646970667358221220ef8fc6e074f2a27dc2c5f4a59da6c8ca3f70ee5ead17876187fccefec731fe9964736f6c634300081b0033",
  "linkReferences": {},
  "deployedLinkReferences": {}
}