{
  "_format": "hh-sol-artifact-1",
  "contractName": "State",
  "sourceName": "contracts/state/State.sol",
  "abi": [
    {
      "inputs": [],
      "stateMutability": "nonpayable",
      "type": "constructor"
    },
    {
      "inputs": [
        {
          "internalType": "uint256",
          "name": "length",
          "type": "uint256"
        }
      ],
      "name": "ChecksumLengthRequired",
      "type": "error"
    },
    {
      "inputs": [
        {
          "internalType": "uint256",
          "name": "length",
          "type": "uint256"
        }
      ],
      "name": "IdBytesLengthRequired",
      "type": "error"
    },
    {
      "inputs": [],
      "name": "InvalidInitialization",
      "type": "error"
    },
    {
      "inputs": [],
      "name": "NotInitializing",
      "type": "error"
    },
    {
      "inputs": [
        {
          "internalType": "address",
          "name": "owner",
          "type": "address"
        }
      ],
      "name": "OwnableInvalidOwner",
      "type": "error"
    },
    {
      "inputs": [
        {
          "internalType": "address",
          "name": "account",
          "type": "address"
        }
      ],
      "name": "OwnableUnauthorizedAccount",
      "type": "error"
    },
    {
      "anonymous": false,
      "inputs": [
        {
          "indexed": false,
          "internalType": "uint64",
          "name": "version",
          "type": "uint64"
        }
      ],
      "name": "Initialized",
      "type": "event"
    },
    {
      "anonymous": false,
      "inputs": [
        {
          "indexed": true,
          "internalType": "address",
          "name": "previousOwner",
          "type": "address"
        },
        {
          "indexed": true,
          "internalType": "address",
          "name": "newOwner",
          "type": "address"
        }
      ],
      "name": "OwnershipTransferStarted",
      "type": "event"
    },
    {
      "anonymous": false,
      "inputs": [
        {
          "indexed": true,
          "internalType": "address",
          "name": "previousOwner",
          "type": "address"
        },
        {
          "indexed": true,
          "internalType": "address",
          "name": "newOwner",
          "type": "address"
        }
      ],
      "name": "OwnershipTransferred",
      "type": "event"
    },
    {
      "inputs": [],
      "name": "VERSION",
      "outputs": [
        {
          "internalType": "string",
          "name": "",
          "type": "string"
        }
      ],
      "stateMutability": "view",
      "type": "function"
    },
    {
      "inputs": [],
      "name": "acceptOwnership",
      "outputs": [],
      "stateMutability": "nonpayable",
      "type": "function"
    },
    {
      "inputs": [],
      "name": "getCrossChainProofValidator",
      "outputs": [
        {
          "internalType": "address",
          "name": "",
          "type": "address"
        }
      ],
      "stateMutability": "view",
      "type": "function"
    },
    {
      "inputs": [],
      "name": "getDefaultIdType",
      "outputs": [
        {
          "internalType": "bytes2",
          "name": "",
          "type": "bytes2"
        }
      ],
      "stateMutability": "view",
      "type": "function"
    },
    {
      "inputs": [
        {
          "internalType": "uint256",
          "name": "id",
          "type": "uint256"
        }
      ],
      "name": "getGISTProof",
      "outputs": [
        {
          "components": [
            {
              "internalType": "uint256",
              "name": "root",
              "type": "uint256"
            },
            {
              "internalType": "bool",
              "name": "existence",
              "type": "bool"
            },
            {
              "internalType": "uint256[64]",
              "name": "siblings",
              "type": "uint256[64]"
            },
            {
              "internalType": "uint256",
              "name": "index",
              "type": "uint256"
            },
            {
              "internalType": "uint256",
              "name": "value",
              "type": "uint256"
            },
            {
              "internalType": "bool",
              "name": "auxExistence",
              "type": "bool"
            },
            {
              "internalType": "uint256",
              "name": "auxIndex",
              "type": "uint256"
            },
            {
              "internalType": "uint256",
              "name": "auxValue",
              "type": "uint256"
            }
          ],
          "internalType": "struct IState.GistProof",
          "name": "",
          "type": "tuple"
        }
      ],
      "stateMutability": "view",
      "type": "function"
    },
    {
      "inputs": [
        {
          "internalType": "uint256",
          "name": "id",
          "type": "uint256"
        },
        {
          "internalType": "uint256",
          "name": "blockNumber",
          "type": "uint256"
        }
      ],
      "name": "getGISTProofByBlock",
      "outputs": [
        {
          "components": [
            {
              "internalType": "uint256",
              "name": "root",
              "type": "uint256"
            },
            {
              "internalType": "bool",
              "name": "existence",
              "type": "bool"
            },
            {
              "internalType": "uint256[64]",
              "name": "siblings",
              "type": "uint256[64]"
            },
            {
              "internalType": "uint256",
              "name": "index",
              "type": "uint256"
            },
            {
              "internalType": "uint256",
              "name": "value",
              "type": "uint256"
            },
            {
              "internalType": "bool",
              "name": "auxExistence",
              "type": "bool"
            },
            {
              "internalType": "uint256",
              "name": "auxIndex",
              "type": "uint256"
            },
            {
              "internalType": "uint256",
              "name": "auxValue",
              "type": "uint256"
            }
          ],
          "internalType": "struct IState.GistProof",
          "name": "",
          "type": "tuple"
        }
      ],
      "stateMutability": "view",
      "type": "function"
    },
    {
      "inputs": [
        {
          "internalType": "uint256",
          "name": "id",
          "type": "uint256"
        },
        {
          "internalType": "uint256",
          "name": "root",
          "type": "uint256"
        }
      ],
      "name": "getGISTProofByRoot",
      "outputs": [
        {
          "components": [
            {
              "internalType": "uint256",
              "name": "root",
              "type": "uint256"
            },
            {
              "internalType": "bool",
              "name": "existence",
              "type": "bool"
            },
            {
              "internalType": "uint256[64]",
              "name": "siblings",
              "type": "uint256[64]"
            },
            {
              "internalType": "uint256",
              "name": "index",
              "type": "uint256"
            },
            {
              "internalType": "uint256",
              "name": "value",
              "type": "uint256"
            },
            {
              "internalType": "bool",
              "name": "auxExistence",
              "type": "bool"
            },
            {
              "internalType": "uint256",
              "name": "auxIndex",
              "type": "uint256"
            },
            {
              "internalType": "uint256",
              "name": "auxValue",
              "type": "uint256"
            }
          ],
          "internalType": "struct IState.GistProof",
          "name": "",
          "type": "tuple"
        }
      ],
      "stateMutability": "view",
      "type": "function"
    },
    {
      "inputs": [
        {
          "internalType": "uint256",
          "name": "id",
          "type": "uint256"
        },
        {
          "internalType": "uint256",
          "name": "timestamp",
          "type": "uint256"
        }
      ],
      "name": "getGISTProofByTime",
      "outputs": [
        {
          "components": [
            {
              "internalType": "uint256",
              "name": "root",
              "type": "uint256"
            },
            {
              "internalType": "bool",
              "name": "existence",
              "type": "bool"
            },
            {
              "internalType": "uint256[64]",
              "name": "siblings",
              "type": "uint256[64]"
            },
            {
              "internalType": "uint256",
              "name": "index",
              "type": "uint256"
            },
            {
              "internalType": "uint256",
              "name": "value",
              "type": "uint256"
            },
            {
              "internalType": "bool",
              "name": "auxExistence",
              "type": "bool"
            },
            {
              "internalType": "uint256",
              "name": "auxIndex",
              "type": "uint256"
            },
            {
              "internalType": "uint256",
              "name": "auxValue",
              "type": "uint256"
            }
          ],
          "internalType": "struct IState.GistProof",
          "name": "",
          "type": "tuple"
        }
      ],
      "stateMutability": "view",
      "type": "function"
    },
    {
      "inputs": [],
      "name": "getGISTRoot",
      "outputs": [
        {
          "internalType": "uint256",
          "name": "",
          "type": "uint256"
        }
      ],
      "stateMutability": "view",
      "type": "function"
    },
    {
      "inputs": [
        {
          "internalType": "uint256",
          "name": "start",
          "type": "uint256"
        },
        {
          "internalType": "uint256",
          "name": "length",
          "type": "uint256"
        }
      ],
      "name": "getGISTRootHistory",
      "outputs": [
        {
          "components": [
            {
              "internalType": "uint256",
              "name": "root",
              "type": "uint256"
            },
            {
              "internalType": "uint256",
              "name": "replacedByRoot",
              "type": "uint256"
            },
            {
              "internalType": "uint256",
              "name": "createdAtTimestamp",
              "type": "uint256"
            },
            {
              "internalType": "uint256",
              "name": "replacedAtTimestamp",
              "type": "uint256"
            },
            {
              "internalType": "uint256",
              "name": "createdAtBlock",
              "type": "uint256"
            },
            {
              "internalType": "uint256",
              "name": "replacedAtBlock",
              "type": "uint256"
            }
          ],
          "internalType": "struct IState.GistRootInfo[]",
          "name": "",
          "type": "tuple[]"
        }
      ],
      "stateMutability": "view",
      "type": "function"
    },
    {
      "inputs": [],
      "name": "getGISTRootHistoryLength",
      "outputs": [
        {
          "internalType": "uint256",
          "name": "",
          "type": "uint256"
        }
      ],
      "stateMutability": "view",
      "type": "function"
    },
    {
      "inputs": [
        {
          "internalType": "uint256",
          "name": "root",
          "type": "uint256"
        }
      ],
      "name": "getGISTRootInfo",
      "outputs": [
        {
          "components": [
            {
              "internalType": "uint256",
              "name": "root",
              "type": "uint256"
            },
            {
              "internalType": "uint256",
              "name": "replacedByRoot",
              "type": "uint256"
            },
            {
              "internalType": "uint256",
              "name": "createdAtTimestamp",
              "type": "uint256"
            },
            {
              "internalType": "uint256",
              "name": "replacedAtTimestamp",
              "type": "uint256"
            },
            {
              "internalType": "uint256",
              "name": "createdAtBlock",
              "type": "uint256"
            },
            {
              "internalType": "uint256",
              "name": "replacedAtBlock",
              "type": "uint256"
            }
          ],
          "internalType": "struct IState.GistRootInfo",
          "name": "",
          "type": "tuple"
        }
      ],
      "stateMutability": "view",
      "type": "function"
    },
    {
      "inputs": [
        {
          "internalType": "uint256",
          "name": "blockNumber",
          "type": "uint256"
        }
      ],
      "name": "getGISTRootInfoByBlock",
      "outputs": [
        {
          "components": [
            {
              "internalType": "uint256",
              "name": "root",
              "type": "uint256"
            },
            {
              "internalType": "uint256",
              "name": "replacedByRoot",
              "type": "uint256"
            },
            {
              "internalType": "uint256",
              "name": "createdAtTimestamp",
              "type": "uint256"
            },
            {
              "internalType": "uint256",
              "name": "replacedAtTimestamp",
              "type": "uint256"
            },
            {
              "internalType": "uint256",
              "name": "createdAtBlock",
              "type": "uint256"
            },
            {
              "internalType": "uint256",
              "name": "replacedAtBlock",
              "type": "uint256"
            }
          ],
          "internalType": "struct IState.GistRootInfo",
          "name": "",
          "type": "tuple"
        }
      ],
      "stateMutability": "view",
      "type": "function"
    },
    {
      "inputs": [
        {
          "internalType": "uint256",
          "name": "timestamp",
          "type": "uint256"
        }
      ],
      "name": "getGISTRootInfoByTime",
      "outputs": [
        {
          "components": [
            {
              "internalType": "uint256",
              "name": "root",
              "type": "uint256"
            },
            {
              "internalType": "uint256",
              "name": "replacedByRoot",
              "type": "uint256"
            },
            {
              "internalType": "uint256",
              "name": "createdAtTimestamp",
              "type": "uint256"
            },
            {
              "internalType": "uint256",
              "name": "replacedAtTimestamp",
              "type": "uint256"
            },
            {
              "internalType": "uint256",
              "name": "createdAtBlock",
              "type": "uint256"
            },
            {
              "internalType": "uint256",
              "name": "replacedAtBlock",
              "type": "uint256"
            }
          ],
          "internalType": "struct IState.GistRootInfo",
          "name": "",
          "type": "tuple"
        }
      ],
      "stateMutability": "view",
      "type": "function"
    },
    {
      "inputs": [
        {
          "internalType": "bytes2",
          "name": "idType",
          "type": "bytes2"
        },
        {
          "internalType": "uint256",
          "name": "root",
          "type": "uint256"
        }
      ],
      "name": "getGistRootReplacedAt",
      "outputs": [
        {
          "internalType": "uint256",
          "name": "",
          "type": "uint256"
        }
      ],
      "stateMutability": "view",
      "type": "function"
    },
    {
      "inputs": [
        {
          "internalType": "uint256",
          "name": "id",
          "type": "uint256"
        }
      ],
      "name": "getIdTypeIfSupported",
      "outputs": [
        {
          "internalType": "bytes2",
          "name": "",
          "type": "bytes2"
        }
      ],
      "stateMutability": "view",
      "type": "function"
    },
    {
      "inputs": [
        {
          "internalType": "uint256",
          "name": "id",
          "type": "uint256"
        }
      ],
      "name": "getStateInfoById",
      "outputs": [
        {
          "components": [
            {
              "internalType": "uint256",
              "name": "id",
              "type": "uint256"
            },
            {
              "internalType": "uint256",
              "name": "state",
              "type": "uint256"
            },
            {
              "internalType": "uint256",
              "name": "replacedByState",
              "type": "uint256"
            },
            {
              "internalType": "uint256",
              "name": "createdAtTimestamp",
              "type": "uint256"
            },
            {
              "internalType": "uint256",
              "name": "replacedAtTimestamp",
              "type": "uint256"
            },
            {
              "internalType": "uint256",
              "name": "createdAtBlock",
              "type": "uint256"
            },
            {
              "internalType": "uint256",
              "name": "replacedAtBlock",
              "type": "uint256"
            }
          ],
          "internalType": "struct IState.StateInfo",
          "name": "",
          "type": "tuple"
        }
      ],
      "stateMutability": "view",
      "type": "function"
    },
    {
      "inputs": [
        {
          "internalType": "uint256",
          "name": "id",
          "type": "uint256"
        },
        {
          "internalType": "uint256",
          "name": "state",
          "type": "uint256"
        }
      ],
      "name": "getStateInfoByIdAndState",
      "outputs": [
        {
          "components": [
            {
              "internalType": "uint256",
              "name": "id",
              "type": "uint256"
            },
            {
              "internalType": "uint256",
              "name": "state",
              "type": "uint256"
            },
            {
              "internalType": "uint256",
              "name": "replacedByState",
              "type": "uint256"
            },
            {
              "internalType": "uint256",
              "name": "createdAtTimestamp",
              "type": "uint256"
            },
            {
              "internalType": "uint256",
              "name": "replacedAtTimestamp",
              "type": "uint256"
            },
            {
              "internalType": "uint256",
              "name": "createdAtBlock",
              "type": "uint256"
            },
            {
              "internalType": "uint256",
              "name": "replacedAtBlock",
              "type": "uint256"
            }
          ],
          "internalType": "struct IState.StateInfo",
          "name": "",
          "type": "tuple"
        }
      ],
      "stateMutability": "view",
      "type": "function"
    },
    {
      "inputs": [
        {
          "internalType": "uint256",
          "name": "id",
          "type": "uint256"
        },
        {
          "internalType": "uint256",
          "name": "startIndex",
          "type": "uint256"
        },
        {
          "internalType": "uint256",
          "name": "length",
          "type": "uint256"
        }
      ],
      "name": "getStateInfoHistoryById",
      "outputs": [
        {
          "components": [
            {
              "internalType": "uint256",
              "name": "id",
              "type": "uint256"
            },
            {
              "internalType": "uint256",
              "name": "state",
              "type": "uint256"
            },
            {
              "internalType": "uint256",
              "name": "replacedByState",
              "type": "uint256"
            },
            {
              "internalType": "uint256",
              "name": "createdAtTimestamp",
              "type": "uint256"
            },
            {
              "internalType": "uint256",
              "name": "replacedAtTimestamp",
              "type": "uint256"
            },
            {
              "internalType": "uint256",
              "name": "createdAtBlock",
              "type": "uint256"
            },
            {
              "internalType": "uint256",
              "name": "replacedAtBlock",
              "type": "uint256"
            }
          ],
          "internalType": "struct IState.StateInfo[]",
          "name": "",
          "type": "tuple[]"
        }
      ],
      "stateMutability": "view",
      "type": "function"
    },
    {
      "inputs": [
        {
          "internalType": "uint256",
          "name": "id",
          "type": "uint256"
        }
      ],
      "name": "getStateInfoHistoryLengthById",
      "outputs": [
        {
          "internalType": "uint256",
          "name": "",
          "type": "uint256"
        }
      ],
      "stateMutability": "view",
      "type": "function"
    },
    {
      "inputs": [
        {
          "internalType": "uint256",
          "name": "id",
          "type": "uint256"
        },
        {
          "internalType": "uint256",
          "name": "state",
          "type": "uint256"
        }
      ],
      "name": "getStateReplacedAt",
      "outputs": [
        {
          "internalType": "uint256",
          "name": "",
          "type": "uint256"
        }
      ],
      "stateMutability": "view",
      "type": "function"
    },
    {
      "inputs": [],
      "name": "getVerifier",
      "outputs": [
        {
          "internalType": "address",
          "name": "",
          "type": "address"
        }
      ],
      "stateMutability": "view",
      "type": "function"
    },
    {
      "inputs": [
        {
          "internalType": "uint256",
          "name": "id",
          "type": "uint256"
        }
      ],
      "name": "idExists",
      "outputs": [
        {
          "internalType": "bool",
          "name": "",
          "type": "bool"
        }
      ],
      "stateMutability": "view",
      "type": "function"
    },
    {
      "inputs": [
        {
          "internalType": "contract IStateTransitionVerifier",
          "name": "verifierContractAddr",
          "type": "address"
        },
        {
          "internalType": "bytes2",
          "name": "defaultIdType",
          "type": "bytes2"
        },
        {
          "internalType": "address",
          "name": "owner",
          "type": "address"
        },
        {
          "internalType": "contract ICrossChainProofValidator",
          "name": "validator",
          "type": "address"
        }
      ],
      "name": "initialize",
      "outputs": [],
      "stateMutability": "nonpayable",
      "type": "function"
    },
    {
      "inputs": [
        {
          "internalType": "bytes2",
          "name": "idType",
          "type": "bytes2"
        }
      ],
      "name": "isIdTypeSupported",
      "outputs": [
        {
          "internalType": "bool",
          "name": "",
          "type": "bool"
        }
      ],
      "stateMutability": "view",
      "type": "function"
    },
    {
      "inputs": [],
      "name": "owner",
      "outputs": [
        {
          "internalType": "address",
          "name": "",
          "type": "address"
        }
      ],
      "stateMutability": "view",
      "type": "function"
    },
    {
      "inputs": [],
      "name": "pendingOwner",
      "outputs": [
        {
          "internalType": "address",
          "name": "",
          "type": "address"
        }
      ],
      "stateMutability": "view",
      "type": "function"
    },
    {
      "inputs": [
        {
          "internalType": "bytes",
          "name": "crossChainProofs",
          "type": "bytes"
        }
      ],
      "name": "processCrossChainProofs",
      "outputs": [],
      "stateMutability": "nonpayable",
      "type": "function"
    },
    {
      "inputs": [],
      "name": "renounceOwnership",
      "outputs": [],
      "stateMutability": "nonpayable",
      "type": "function"
    },
    {
      "inputs": [
        {
          "internalType": "contract ICrossChainProofValidator",
          "name": "validator",
          "type": "address"
        }
      ],
      "name": "setCrossChainProofValidator",
      "outputs": [],
      "stateMutability": "nonpayable",
      "type": "function"
    },
    {
      "inputs": [
        {
          "internalType": "bytes2",
          "name": "defaultIdType",
          "type": "bytes2"
        }
      ],
      "name": "setDefaultIdType",
      "outputs": [],
      "stateMutability": "nonpayable",
      "type": "function"
    },
    {
      "inputs": [
        {
          "internalType": "bytes2",
          "name": "idType",
          "type": "bytes2"
        },
        {
          "internalType": "bool",
          "name": "supported",
          "type": "bool"
        }
      ],
      "name": "setSupportedIdType",
      "outputs": [],
      "stateMutability": "nonpayable",
      "type": "function"
    },
    {
      "inputs": [
        {
          "internalType": "address",
          "name": "newVerifierAddr",
          "type": "address"
        }
      ],
      "name": "setVerifier",
      "outputs": [],
      "stateMutability": "nonpayable",
      "type": "function"
    },
    {
      "inputs": [
        {
          "internalType": "uint256",
          "name": "id",
          "type": "uint256"
        },
        {
          "internalType": "uint256",
          "name": "state",
          "type": "uint256"
        }
      ],
      "name": "stateExists",
      "outputs": [
        {
          "internalType": "bool",
          "name": "",
          "type": "bool"
        }
      ],
      "stateMutability": "view",
      "type": "function"
    },
    {
      "inputs": [
        {
          "internalType": "address",
          "name": "newOwner",
          "type": "address"
        }
      ],
      "name": "transferOwnership",
      "outputs": [],
      "stateMutability": "nonpayable",
      "type": "function"
    },
    {
      "inputs": [
        {
          "internalType": "uint256",
          "name": "id",
          "type": "uint256"
        },
        {
          "internalType": "uint256",
          "name": "oldState",
          "type": "uint256"
        },
        {
          "internalType": "uint256",
          "name": "newState",
          "type": "uint256"
        },
        {
          "internalType": "bool",
          "name": "isOldStateGenesis",
          "type": "bool"
        },
        {
          "internalType": "uint256[2]",
          "name": "a",
          "type": "uint256[2]"
        },
        {
          "internalType": "uint256[2][2]",
          "name": "b",
          "type": "uint256[2][2]"
        },
        {
          "internalType": "uint256[2]",
          "name": "c",
          "type": "uint256[2]"
        }
      ],
      "name": "transitState",
      "outputs": [],
      "stateMutability": "nonpayable",
      "type": "function"
    },
    {
      "inputs": [
        {
          "internalType": "uint256",
          "name": "id",
          "type": "uint256"
        },
        {
          "internalType": "uint256",
          "name": "oldState",
          "type": "uint256"
        },
        {
          "internalType": "uint256",
          "name": "newState",
          "type": "uint256"
        },
        {
          "internalType": "bool",
          "name": "isOldStateGenesis",
          "type": "bool"
        },
        {
          "internalType": "uint256",
          "name": "methodId",
          "type": "uint256"
        },
        {
          "internalType": "bytes",
          "name": "methodParams",
          "type": "bytes"
        }
      ],
      "name": "transitStateGeneric",
      "outputs": [],
      "stateMutability": "nonpayable",
      "type": "function"
    }
  ],
  "bytecode": "0x6080604052348015600f57600080fd5b506016601a565b60ca565b7ff0c57e16840df040f15088dc2f81fe391c3923bec73e23a9662efc9c229c6a00805468010000000000000000900460ff161560695760405163f92ee8a960e01b815260040160405180910390fd5b80546001600160401b039081161460c75780546001600160401b0319166001600160401b0390811782556040519081527fc7f505b2f371ae2175ee4913f4499e1f2633a7b5936321eed1cdaeb6115181d29060200160405180910390a15b50565b613a66806100d96000396000f3fe608060405234801561001057600080fd5b50600436106102275760003560e01c80637c1a66de11610130578063d51afebf116100b8578063e30c39781161007c578063e30c3978146104ef578063e99858fe146104f7578063ed2f82ae14610517578063f2fde38b14610547578063ffa1ad741461055a57600080fd5b8063d51afebf1461049a578063dccbd57a146104ad578063dd16059e146104b6578063e12a36c0146104c9578063e28d24b0146104dc57600080fd5b8063a7c57eeb116100ff578063a7c57eeb1461043b578063af8452301461044e578063b1ed41f514610461578063b4bdea5514610474578063bbda96ba1461048757600080fd5b80637c1a66de146103df5780637d0dcba5146103f25780638da5cb5b14610405578063932e87a11461040d57600080fd5b80632f7670e4116101b35780635437988d116101825780635437988d146103965780635845e530146103a9578063676d5b5a146103bc578063715018a6146103cf57806379ba5097146103d757600080fd5b80632f7670e41461031d5780633025bb8c1461033d57806346657fe91461035057806353c873121461037657600080fd5b80630ef6e65b116101fa5780630ef6e65b146102ac578063133fe385146102cc578063233a4d23146102ed5780632439e3a61461030057806328f88a651461030857600080fd5b8063046ff1401461022c57806309478aa4146102555780630a7a5469146102765780630b8a295a14610289575b600080fd5b61023f61023a366004612bcb565b61058b565b60405161024c9190612bed565b60405180910390f35b610268610263366004612bcb565b6106b9565b60405190815260200161024c565b610268610284366004612c84565b6108cf565b61029c610297366004612cb0565b610aff565b604051901515815260200161024c565b6102bf6102ba366004612cb0565b610b7e565b60405161024c9190612cc9565b6102d4610c0c565b6040516001600160f01b0319909116815260200161024c565b61029c6102fb366004612bcb565b610c7e565b610268610d04565b61031b610316366004612e1f565b610d81565b005b61033061032b366004612bcb565b610eb7565b60405161024c9190612edf565b61023f61034b366004612cb0565b610ff9565b61028b546001600160a01b03165b6040516001600160a01b03909116815260200161024c565b610389610384366004612bcb565b6110d1565b60405161024c9190612f9b565b61031b6103a4366004612fbe565b611166565b6102bf6103b7366004612cb0565b611191565b6102686103ca366004612cb0565b6111dd565b61031b61125c565b61031b611270565b6102bf6103ed366004612cb0565b6112b8565b61031b61040036600461302a565b611304565b61035e61148d565b61029c61041b3660046130a6565b6001600160f01b031916600090815261028e602052604090205460ff1690565b61031b6104493660046130a6565b6114c2565b61031b61045c366004612fbe565b6114d3565b61031b61046f3660046130c3565b61151c565b610389610482366004612cb0565b611770565b61031b61049536600461311f565b6117bc565b61023f6104a8366004612bcb565b6117f1565b6102bf54610268565b6102d46104c4366004612cb0565b61185f565b61023f6104d7366004612bcb565b6118d8565b61031b6104ea366004613158565b611946565b61035e611c4e565b61050a610505366004613199565b611c77565b60405161024c91906131c5565b7ffe6de916382846695d2555237dc6c0ef6555f4c949d4ba263e03532600778102546001600160a01b031661035e565b61031b610555366004612fbe565b611dc1565b61057e60405180604001604052806005815260200164322e362e3360d81b81525081565b60405161024c919061324e565b610593612aee565b604080516020810182528481529051631caab9a760e01b81526106b09173__$8ac835ad8d3012be129274ec595ff58680$__9163792a470f916102be9173__$bb862b2a7c85b89a310c80dce8aa59aaa7$__91631caab9a7916105f99190600401613261565b602060405180830381865af4158015610616573d6000803e3d6000fd5b505050506040513d601f19601f8201168201806040525081019061063a9190613292565b6040516001600160e01b031960e085901b16815260048101929092526024820152604481018690526064015b600060405180830381865af4158015610683573d6000803e3d6000fd5b505050506040513d6000823e601f3d908101601f191682016040526106ab9190810190613341565b611e46565b90505b92915050565b60006106c761041b84611efd565b1561083e5760405163b1abcc4d60e01b815261028c6004820152602481018490526044810183905273__$4c639ca777b976687a95879043001c96f4$__9063b1abcc4d90606401602060405180830381865af415801561072b573d6000803e3d6000fd5b505050506040513d601f19601f8201168201806040525081019061074f9190613407565b156107e25760405163893e973960e01b815261028c6004820152602481018490526044810183905273__$4c639ca777b976687a95879043001c96f4$__9063893e97399060640160e060405180830381865af41580156107b3573d6000803e3d6000fd5b505050506040513d601f19601f820116820180604052508101906107d791906134a4565b6080015190506106b3565b6107ec8383611f19565b156107f9575060006106b3565b60405162461bcd60e51b815260206004820152601560248201527414dd185d1948195b9d1c9e481b9bdd08199bdd5b99605a1b60448201526064015b60405180910390fd5b60008381527ffe6de916382846695d2555237dc6c0ef6555f4c949d4ba263e03532600778100602081815260408084208685529091529091205480156108875791506106b39050565b60405162461bcd60e51b815260206004820152601b60248201527f43726f73732d636861696e207374617465206e6f7420666f756e6400000000006044820152606401610835565b6001600160f01b03198216600090815261028e602052604081205460ff1615610a42576040516324bd6c1b60e21b81526102be60048201526024810183905273__$8ac835ad8d3012be129274ec595ff58680$__906392f5b06c90604401602060405180830381865af415801561094a573d6000803e3d6000fd5b505050506040513d601f19601f8201168201806040525081019061096e9190613407565b156109fa57604051636f53b19d60e11b81526102be60048201526024810183905273__$8ac835ad8d3012be129274ec595ff58680$__9063dea7633a9060440160c060405180830381865af41580156109cb573d6000803e3d6000fd5b505050506040513d601f19601f820116820180604052508101906109ef9190613536565b6060015190506106b3565b60405162461bcd60e51b815260206004820152601960248201527f4749535420726f6f7420656e747279206e6f7420666f756e64000000000000006044820152606401610835565b6001600160f01b0319831660009081527ffe6de916382846695d2555237dc6c0ef6555f4c949d4ba263e03532600778101602090815260408083208584529091529020547ffe6de916382846695d2555237dc6c0ef6555f4c949d4ba263e03532600778100908015610ab75791506106b39050565b60405162461bcd60e51b815260206004820152601f60248201527f43726f73732d636861696e204749535420726f6f74206e6f7420666f756e64006044820152606401610835565b60405163419e76c160e01b815261028c60048201526024810182905260009073__$4c639ca777b976687a95879043001c96f4$__9063419e76c190604401602060405180830381865af4158015610b5a573d6000803e3d6000fd5b505050506040513d601f19601f820116820180604052508101906106b39190613407565b610b86612b39565b60405163017c850f60e41b81526102be6004820152602481018390526106b39073__$8ac835ad8d3012be129274ec595ff58680$__906317c850f0906044015b60c060405180830381865af4158015610be3573d6000803e3d6000fd5b505050506040513d601f19601f82011682018060405250810190610c079190613536565b611f3e565b6102f05460009062010000900460ff16610c735760405162461bcd60e51b815260206004820152602260248201527f44656661756c742049642054797065206973206e6f7420696e697469616c697a604482015261195960f21b6064820152608401610835565b506102f05460f01b90565b60405163b1abcc4d60e01b815261028c6004820152602481018390526044810182905260009073__$4c639ca777b976687a95879043001c96f4$__9063b1abcc4d90606401602060405180830381865af4158015610ce0573d6000803e3d6000fd5b505050506040513d601f19601f820116820180604052508101906106b09190613407565b6040516379f9712560e01b81526102be600482015260009073__$8ac835ad8d3012be129274ec595ff58680$__906379f9712590602401602060405180830381865af4158015610d58573d6000803e3d6000fd5b505050506040513d601f19601f82011682018060405250810190610d7c9190613292565b905090565b610d8a8761185f565b506000604051806080016040528089815260200188815260200187815260200186610db6576000610db9565b60015b60ff16905261028b54604051635fe8c13b60e01b81529192506001600160a01b031690635fe8c13b90610df690879087908790879060040161357b565b602060405180830381865afa158015610e13573d6000803e3d6000fd5b505050506040513d601f19601f82011682018060405250810190610e379190613407565b610ea15760405162461bcd60e51b815260206004820152603560248201527f5a65726f2d6b6e6f776c656467652070726f6f66206f66207374617465207472604482015274185b9cda5d1a5bdb881a5cc81b9bdd081d985b1a59605a1b6064820152608401610835565b610ead88888888611f92565b5050505050505050565b6040516321d6095360e01b81526102be6004820152602481018390526044810182905260609060009073__$8ac835ad8d3012be129274ec595ff58680$__906321d6095390606401600060405180830381865af4158015610f1c573d6000803e3d6000fd5b505050506040513d6000823e601f3d908101601f19168201604052610f449190810190613600565b9050600081516001600160401b03811115610f6157610f61612d1a565b604051908082528060200260200182016040528015610f9a57816020015b610f87612b39565b815260200190600190039081610f7f5790505b50905060005b8251811015610ff057610fcb838281518110610fbe57610fbe61369f565b6020026020010151611f3e565b828281518110610fdd57610fdd61369f565b6020908102919091010152600101610fa0565b50949350505050565b611001612aee565b604080516020810182528381529051631caab9a760e01b81526106b39173__$8ac835ad8d3012be129274ec595ff58680$__91635db40cda916102be9173__$bb862b2a7c85b89a310c80dce8aa59aaa7$__91631caab9a7916110679190600401613261565b602060405180830381865af4158015611084573d6000803e3d6000fd5b505050506040513d601f19601f820116820180604052508101906110a89190613292565b6040516001600160e01b031960e085901b16815260048101929092526024820152604401610666565b6110d9612b6f565b60405163893e973960e01b815261028c600482015260248101849052604481018390526106b09073__$4c639ca777b976687a95879043001c96f4$__9063893e9739906064015b60e060405180830381865af415801561113d573d6000803e3d6000fd5b505050506040513d601f19601f8201168201806040525081019061116191906134a4565b61243b565b61116e612499565b61028b80546001600160a01b0319166001600160a01b0392909216919091179055565b611199612b39565b6040516337269f2360e21b81526102be6004820152602481018390526106b39073__$8ac835ad8d3012be129274ec595ff58680$__9063dc9a7c8c90604401610bc6565b604051630e21d5fd60e01b815261028c60048201526024810182905260009073__$4c639ca777b976687a95879043001c96f4$__90630e21d5fd90604401602060405180830381865af4158015611238573d6000803e3d6000fd5b505050506040513d601f19601f820116820180604052508101906106b39190613292565b611264612499565b61126e60006124cb565b565b338061127a611c4e565b6001600160a01b0316146112ac5760405163118cdaa760e01b81526001600160a01b0382166004820152602401610835565b6112b5816124cb565b50565b6112c0612b39565b604051636f53b19d60e11b81526102be6004820152602481018390526106b39073__$8ac835ad8d3012be129274ec595ff58680$__9063dea7633a90604401610bc6565b600061130f8861185f565b90508360010361143a5760006113258233612507565b90508881146113865760405162461bcd60e51b815260206004820152602760248201527f6d73672e73656e646572206973206e6f74206f776e6572206f6620746865206960448201526664656e7469747960c81b6064820152608401610835565b82156113d45760405162461bcd60e51b815260206004820152601c60248201527f6d6574686f64506172616d732073686f756c6420626520656d707479000000006044820152606401610835565b85156114285787156114285760405162461bcd60e51b815260206004820152601860248201527f4f6c642073746174652073686f756c64206265207a65726f00000000000000006044820152606401610835565b61143489898989611f92565b50610ead565b60405162461bcd60e51b815260206004820152602260248201527f556e6b6e6f776e207374617465207472616e736974696f6e206d6574686f64206044820152611a5960f21b6064820152608401610835565b6000807f9016d09d72d40fdae2fd8ceac6b6234c7706214fd39c1cd1e609a0528c1993005b546001600160a01b031692915050565b6114ca612499565b6112b58161252d565b6114db612499565b7ffe6de916382846695d2555237dc6c0ef6555f4c949d4ba263e0353260077810280546001600160a01b0319166001600160a01b0392909216919091179055565b7ff0c57e16840df040f15088dc2f81fe391c3923bec73e23a9662efc9c229c6a008054600160401b810460ff1615906001600160401b03166000811580156115615750825b90506000826001600160401b0316600114801561157d5750303b155b90508115801561158b575080155b156115a95760405163f92ee8a960e01b815260040160405180910390fd5b845467ffffffffffffffff1916600117855583156115d357845460ff60401b1916600160401b1785555b6102c25460ff1661164c5760408051639e43b81360e01b81526102be6004820152602481019190915273__$8ac835ad8d3012be129274ec595ff58680$__90639e43b8139060440160006040518083038186803b15801561163357600080fd5b505af4158015611647573d6000803e3d6000fd5b505050505b6001600160a01b0389166116b75760405162461bcd60e51b815260206004820152602c60248201527f566572696669657220636f6e747261637420616464726573732073686f756c6460448201526b206e6f74206265207a65726f60a01b6064820152608401610835565b61028b80546001600160a01b0319166001600160a01b038b161790556116dc8861252d565b6116e58761256b565b7ffe6de916382846695d2555237dc6c0ef6555f4c949d4ba263e0353260077810280546001600160a01b0319166001600160a01b038816179055831561176557845460ff60401b19168555604051600181527fc7f505b2f371ae2175ee4913f4499e1f2633a7b5936321eed1cdaeb6115181d29060200160405180910390a15b505050505050505050565b611778612b6f565b604051634ed344a360e11b815261028c6004820152602481018390526106b39073__$4c639ca777b976687a95879043001c96f4$__90639da6894690604401611120565b6117c4612499565b6001600160f01b031991909116600090815261028e60205260409020805460ff1916911515919091179055565b6117f9612aee565b604080516020810182528481529051631caab9a760e01b81526106b09173__$8ac835ad8d3012be129274ec595ff58680$__916313827136916102be9173__$bb862b2a7c85b89a310c80dce8aa59aaa7$__91631caab9a7916105f99190600401613261565b60008061186b83611efd565b6001600160f01b03198116600090815261028e602052604090205490915060ff166106b35760405162461bcd60e51b815260206004820152601860248201527f69642074797065206973206e6f7420737570706f7274656400000000000000006044820152606401610835565b6118e0612aee565b604080516020810182528481529051631caab9a760e01b81526106b09173__$8ac835ad8d3012be129274ec595ff58680$__916379c17a96916102be9173__$bb862b2a7c85b89a310c80dce8aa59aaa7$__91631caab9a7916105f99190600401613261565b6000819003611953575050565b600061196182840184613710565b90507ffe6de916382846695d2555237dc6c0ef6555f4c949d4ba263e0353260077810060005b8251811015611c475760408051808201909152601081526f33b637b130b629ba30ba32a83937b7b360811b60209091015282517f43e577020b3fd5a27adf1884c82bfa7686978fcdfd12257602894af8f09f2e00908490839081106119ee576119ee61369f565b6020026020010151600001518051906020012003611ad357600282015483516000916001600160a01b03169063f6a0002590869085908110611a3257611a3261369f565b6020026020010151602001516040518263ffffffff1660e01b8152600401611a5a919061324e565b6060604051808303816000875af1158015611a79573d6000803e3d6000fd5b505050506040513d601f19601f82011682018060405250810190611a9d9190613860565b60408082015182516001600160f01b03191660009081526001870160209081528382209481015182529390935291205550611c3f565b60408051808201909152600a81526939ba30ba32a83937b7b360b11b60209091015282517ff7f3e4d351842baea49db0a6060903f44ddc24a1f604192dc9097bedba1ee92c90849083908110611b2b57611b2b61369f565b6020026020010151600001518051906020012003611c0257600282015483516000916001600160a01b0316906315782ce690869085908110611b6f57611b6f61369f565b6020026020010151602001516040518263ffffffff1660e01b8152600401611b97919061324e565b6060604051808303816000875af1158015611bb6573d6000803e3d6000fd5b505050506040513d601f19601f82011682018060405250810190611bda91906138a6565b6040808201518251600090815260208781528382209481015182529390935291205550611c3f565b60405162461bcd60e51b8152602060048201526012602482015271556e6b6e6f776e2070726f6f66207479706560701b6044820152606401610835565b600101611987565b5050505050565b6000807f237e158222e3e6968b72b9db0d8043aacf074ad9f650f0d1606b4d82ee432c006114b2565b6040516365fe1b5b60e01b815261028c600482015260248101849052604481018390526064810182905260609060009073__$4c639ca777b976687a95879043001c96f4$__906365fe1b5b90608401600060405180830381865af4158015611ce3573d6000803e3d6000fd5b505050506040513d6000823e601f3d908101601f19168201604052611d0b91908101906138e3565b9050600081516001600160401b03811115611d2857611d28612d1a565b604051908082528060200260200182016040528015611d6157816020015b611d4e612b6f565b815260200190600190039081611d465790505b50905060005b8251811015611db757611d92838281518110611d8557611d8561369f565b602002602001015161243b565b828281518110611da457611da461369f565b6020908102919091010152600101611d67565b5095945050505050565b611dc9612499565b7f237e158222e3e6968b72b9db0d8043aacf074ad9f650f0d1606b4d82ee432c0080546001600160a01b0319166001600160a01b0383169081178255611e0d61148d565b6001600160a01b03167f38d16b8cac22d99fc7c124b9cd0de2d3fa1faef420bfe791d8c362d765e2270060405160405180910390a35050565b611e4e612aee565b611e56612bac565b60005b6040811015611e9f5783604001518181518110611e7857611e7861369f565b6020026020010151828260408110611e9257611e9261369f565b6020020152600101611e59565b5060408051610100810182528451815260208086015115159082015290810191909152606080840151908201526080808401519082015260a08084015115159082015260c0808401519082015260e092830151928101929092525090565b6000611f10611f0b8361257c565b6126c1565b6106b390613978565b600080611f2584611efd565b90506000611f3382856126eb565b909414949350505050565b611f46612b39565b6040518060c0016040528083600001518152602001836020015181526020018360400151815260200183606001518152602001836080015181526020018360a001518152509050919050565b83600003611fda5760405162461bcd60e51b815260206004820152601560248201527449442073686f756c64206e6f74206265207a65726f60581b6044820152606401610835565b8160000361202a5760405162461bcd60e51b815260206004820152601c60248201527f4e65772073746174652073686f756c64206e6f74206265207a65726f000000006044820152606401610835565b80156121165761203984610aff565b1561209f5760405162461bcd60e51b815260206004820152603060248201527f4f6c642073746174652069732067656e6573697320627574206964656e74697460448201526f7920616c72656164792065786973747360801b6064820152608401610835565b604051630944084360e31b815261028c6004820152602481018590526044810184905273__$4c639ca777b976687a95879043001c96f4$__90634a2042189060640160006040518083038186803b1580156120f957600080fd5b505af415801561210d573d6000803e3d6000fd5b50505050612279565b61211f84610aff565b6121915760405162461bcd60e51b815260206004820152603860248201527f4f6c64207374617465206973206e6f742067656e65736973206275742069646560448201527f6e7469747920646f6573206e6f742079657420657869737400000000000000006064820152608401610835565b604051634ed344a360e11b815261028c60048201526024810185905260009073__$4c639ca777b976687a95879043001c96f4$__90639da689469060440160e060405180830381865af41580156121ec573d6000803e3d6000fd5b505050506040513d601f19601f8201168201806040525081019061221091906134a4565b9050838160200151146122775760405162461bcd60e51b815260206004820152602960248201527f4f6c6420737461746520646f6573206e6f74206d6174636820746865206c617460448201526865737420737461746560b81b6064820152608401610835565b505b6122838483610c7e565b156122d05760405162461bcd60e51b815260206004820152601860248201527f4e657720737461746520616c72656164792065786973747300000000000000006044820152606401610835565b604051632267e22f60e11b815261028c6004820152602481018590526044810183905273__$4c639ca777b976687a95879043001c96f4$__906344cfc45e9060640160006040518083038186803b15801561232a57600080fd5b505af415801561233e573d6000803e3d6000fd5b5050604080516020810182528781529051631caab9a760e01b815273__$8ac835ad8d3012be129274ec595ff58680$__935063c1d29f0192506102be9173__$bb862b2a7c85b89a310c80dce8aa59aaa7$__91631caab9a7916123a391600401613261565b602060405180830381865af41580156123c0573d6000803e3d6000fd5b505050506040513d601f19601f820116820180604052508101906123e49190613292565b6040516001600160e01b031960e085901b168152600481019290925260248201526044810185905260640160006040518083038186803b15801561242757600080fd5b505af4158015610ead573d6000803e3d6000fd5b612443612b6f565b6040518060e0016040528083600001518152602001836020015181526020018360400151815260200183606001518152602001836080015181526020018360a0015181526020018360c001518152509050919050565b336124a261148d565b6001600160a01b03161461126e5760405163118cdaa760e01b8152336004820152602401610835565b7f237e158222e3e6968b72b9db0d8043aacf074ad9f650f0d1606b4d82ee432c0080546001600160a01b0319168155612503826127ee565b5050565b60006001600160a01b038216612525846125208361257c565b6126eb565b949350505050565b6102f0805462ffffff191660f083901c17620100001790556001600160f01b031916600090815261028e60205260409020805460ff19166001179055565b61257361285f565b6112b5816128a8565b60008190506008817eff00ff00ff00ff00ff00ff00ff00ff00ff00ff00ff00ff00ff00ff00ff00ff16901b6008827fff00ff00ff00ff00ff00ff00ff00ff00ff00ff00ff00ff00ff00ff00ff00ff0016901c1790506010817dffff0000ffff0000ffff0000ffff0000ffff0000ffff0000ffff0000ffff16901b6010827fffff0000ffff0000ffff0000ffff0000ffff0000ffff0000ffff0000ffff000016901c1790506020817bffffffff00000000ffffffff00000000ffffffff00000000ffffffff16901b6020827fffffffff00000000ffffffff00000000ffffffff00000000ffffffff0000000016901c17905060408177ffffffffffffffff0000000000000000ffffffffffffffff16901b60408277ffffffffffffffff0000000000000000ffffffffffffffff1916901c179050608081901b608082901c179050919050565b60408051602080825281830190925260609160208201818036833750505060208101929092525090565b6000806126fa611f0b8461257c565b9050600061271782601b845161271091906139cc565b601b6128da565b6040516001600160f01b03198716602082015290915060009061274c90602201604051602081830303815290604052836128e7565b9050600061277061275c836128f3565b600881811b62ffff001691901c60ff161790565b6040805160f083901b6001600160f01b031916602082015281516002818303018152602290910190915290915060006127a984836128e7565b90508051601f146127d0576040516333b0459b60e01b8152601f6004820152602401610835565b6127e16127dc8261295a565b61257c565b9998505050505050505050565b7f9016d09d72d40fdae2fd8ceac6b6234c7706214fd39c1cd1e609a0528c19930080546001600160a01b031981166001600160a01b03848116918217845560405192169182907f8be0079c531659141344cd1fd0a4f28419497f9722a3daafe3b4186f6b6457e090600090a3505050565b7ff0c57e16840df040f15088dc2f81fe391c3923bec73e23a9662efc9c229c6a0054600160401b900460ff1661126e57604051631afcd79f60e31b815260040160405180910390fd5b6128b061285f565b6001600160a01b0381166112ac57604051631e4fbdf760e01b815260006004820152602401610835565b6060612525848484612965565b60606106b08383612a71565b60008151601d1461291a576040516303c4ee2b60e01b8152601d6004820152602401610835565b60005b8251811015612954578281815181106129385761293861369f565b016020015161294a9060f81c836139df565b915060010161291d565b50919050565b60006106b3826139f9565b60608161297381601f613a1d565b10156129b25760405162461bcd60e51b815260206004820152600e60248201526d736c6963655f6f766572666c6f7760901b6044820152606401610835565b6129bc8284613a1d565b84511015612a005760405162461bcd60e51b8152602060048201526011602482015270736c6963655f6f75744f66426f756e647360781b6044820152606401610835565b606082158015612a1f5760405191506000825260208201604052610ff0565b6040519150601f8416801560200281840101858101878315602002848b0101015b81831015612a58578051835260209283019201612a40565b5050858452601f01601f19166040525050949350505050565b6060806040519050835180825260208201818101602087015b81831015612aa2578051835260209283019201612a8a565b50855184518101855292509050808201602086015b81831015612acf578051835260209283019201612ab7565b508651929092011591909101601f01601f191660405250905092915050565b604080516101008101825260008082526020820152908101612b0e612bac565b8152602001600081526020016000815260200160001515815260200160008152602001600081525090565b6040518060c001604052806000815260200160008152602001600081526020016000815260200160008152602001600081525090565b6040518060e00160405280600081526020016000815260200160008152602001600081526020016000815260200160008152602001600081525090565b6040518061080001604052806040906020820280368337509192915050565b60008060408385031215612bde57600080fd5b50508035926020909101359150565b815181526020808301511515908201526040808301516108e0830191830160005b6040811015612c2d578251825260209283019290910190600101612c0e565b5050506060830151610840830152608083015161086083015260a0830151151561088083015260c08301516108a083015260e0909201516108c09091015290565b6001600160f01b0319811681146112b557600080fd5b60008060408385031215612c9757600080fd5b8235612ca281612c6e565b946020939093013593505050565b600060208284031215612cc257600080fd5b5035919050565b60c081016106b38284805182526020810151602083015260408101516040830152606081015160608301526080810151608083015260a081015160a08301525050565b80151581146112b557600080fd5b634e487b7160e01b600052604160045260246000fd5b60405161010081016001600160401b0381118282101715612d5357612d53612d1a565b60405290565b604080519081016001600160401b0381118282101715612d5357612d53612d1a565b604051606081016001600160401b0381118282101715612d5357612d53612d1a565b604051601f8201601f191681016001600160401b0381118282101715612dc557612dc5612d1a565b604052919050565b600082601f830112612dde57600080fd5b612de86040612d9d565b806040840185811115612dfa57600080fd5b845b81811015612e14578035845260209384019301612dfc565b509095945050505050565b6000806000806000806000610180888a031215612e3b57600080fd5b8735965060208801359550604088013594506060880135612e5b81612d0c565b9350612e6a8960808a01612dcd565b92508860df890112612e7b57600080fd5b6040612e8681612d9d565b806101408b018c811115612e9957600080fd5b60c08c015b81811015612ebf57612eb08e82612dcd565b84526020909301928401612e9e565b50819550612ecd8d82612dcd565b94505050505092959891949750929550565b602080825282518282018190526000918401906040840190835b81811015612e1457612f41838551805182526020810151602083015260408101516040830152606081015160608301526080810151608083015260a081015160a08301525050565b6020939093019260c09290920191600101612ef9565b805182526020810151602083015260408101516040830152606081015160608301526080810151608083015260a081015160a083015260c081015160c08301525050565b60e081016106b38284612f57565b6001600160a01b03811681146112b557600080fd5b600060208284031215612fd057600080fd5b8135612fdb81612fa9565b9392505050565b60008083601f840112612ff457600080fd5b5081356001600160401b0381111561300b57600080fd5b60208301915083602082850101111561302357600080fd5b9250929050565b600080600080600080600060c0888a03121561304557600080fd5b873596506020880135955060408801359450606088013561306581612d0c565b93506080880135925060a08801356001600160401b0381111561308757600080fd5b6130938a828b01612fe2565b989b979a50959850939692959293505050565b6000602082840312156130b857600080fd5b8135612fdb81612c6e565b600080600080608085870312156130d957600080fd5b84356130e481612fa9565b935060208501356130f481612c6e565b9250604085013561310481612fa9565b9150606085013561311481612fa9565b939692955090935050565b6000806040838503121561313257600080fd5b823561313d81612c6e565b9150602083013561314d81612d0c565b809150509250929050565b6000806020838503121561316b57600080fd5b82356001600160401b0381111561318157600080fd5b61318d85828601612fe2565b90969095509350505050565b6000806000606084860312156131ae57600080fd5b505081359360208301359350604090920135919050565b602080825282518282018190526000918401906040840190835b81811015612e14576131f2838551612f57565b6020939093019260e092909201916001016131df565b6000815180845260005b8181101561322e57602081850181015186830182015201613212565b506000602082860101526020601f19601f83011685010191505092915050565b6020815260006106b06020830184613208565b60208101818360005b600181101561328957815183526020928301929091019060010161326a565b50505092915050565b6000602082840312156132a457600080fd5b5051919050565b80516132b681612d0c565b919050565b60006001600160401b038211156132d4576132d4612d1a565b5060051b60200190565b600082601f8301126132ef57600080fd5b81516133026132fd826132bb565b612d9d565b8082825260208201915060208360051b86010192508583111561332457600080fd5b602085015b83811015611db7578051835260209283019201613329565b60006020828403121561335357600080fd5b81516001600160401b0381111561336957600080fd5b8201610100818503121561337c57600080fd5b613384612d30565b81518152613394602083016132ab565b602082015260408201516001600160401b038111156133b257600080fd5b6133be868285016132de565b60408301525060608281015190820152608080830151908201526133e460a083016132ab565b60a082015260c0828101519082015260e091820151918101919091529392505050565b60006020828403121561341957600080fd5b8151612fdb81612d0c565b600060e0828403121561343657600080fd5b60405160e081016001600160401b038111828210171561345857613458612d1a565b604090815283518252602080850151908301528381015190820152606080840151908201526080808401519082015260a0808401519082015260c0928301519281019290925250919050565b600060e082840312156134b657600080fd5b6106b08383613424565b600060c082840312156134d257600080fd5b60405160c081016001600160401b03811182821017156134f4576134f4612d1a565b604090815283518252602080850151908301528381015190820152606080840151908201526080808401519082015260a0928301519281019290925250919050565b600060c0828403121561354857600080fd5b6106b083836134c0565b8060005b6002811015613575578151845260209384019390910190600101613556565b50505050565b610180810161358a8287613552565b604082018560005b60028110156135bc576135a6838351613552565b6040929092019160209190910190600101613592565b5050506135cc60c0830185613552565b61010082018360005b60048110156135f45781518352602092830192909101906001016135d5565b50505095945050505050565b60006020828403121561361257600080fd5b81516001600160401b0381111561362857600080fd5b8201601f8101841361363957600080fd5b80516136476132fd826132bb565b80828252602082019150602060c0840285010192508683111561366957600080fd5b6020840193505b828410156136955761368287856134c0565b825260208201915060c084019350613670565b9695505050505050565b634e487b7160e01b600052603260045260246000fd5b6000806001600160401b038411156136cf576136cf612d1a565b50601f8301601f19166020016136e481612d9d565b9150508281528383830111156136f957600080fd5b828260208301376000602084830101529392505050565b60006020828403121561372257600080fd5b81356001600160401b0381111561373857600080fd5b8201601f8101841361374957600080fd5b80356137576132fd826132bb565b8082825260208201915060208360051b85010192508683111561377957600080fd5b602084015b838110156138555780356001600160401b0381111561379c57600080fd5b85016040818a03601f190112156137b257600080fd5b6137ba612d59565b60208201356001600160401b038111156137d357600080fd5b82016020810190603f018b136137e857600080fd5b6137f78b8235602084016136b5565b82525060408201356001600160401b0381111561381357600080fd5b60208184010192505089601f83011261382b57600080fd5b61383a8a8335602085016136b5565b6020820152808552505060208301925060208101905061377e565b509695505050505050565b6000606082840312801561387357600080fd5b5061387c612d7b565b825161388781612c6e565b8152602083810151908201526040928301519281019290925250919050565b600060608284031280156138b957600080fd5b506138c2612d7b565b82518152602080840151908201526040928301519281019290925250919050565b6000602082840312156138f557600080fd5b81516001600160401b0381111561390b57600080fd5b8201601f8101841361391c57600080fd5b805161392a6132fd826132bb565b80828252602082019150602060e0840285010192508683111561394c57600080fd5b6020840193505b82841015613695576139658785613424565b825260208201915060e084019350613953565b805160208201516001600160f01b03198116919060028210156139af576001600160f01b0319600283900360031b81901b82161692505b5050919050565b634e487b7160e01b600052601160045260246000fd5b818103818111156106b3576106b36139b6565b61ffff81811683821601908111156106b3576106b36139b6565b805160208083015191908110156129545760001960209190910360031b1b16919050565b808201808211156106b3576106b36139b656fea26469706673582212208d9885e7edcce32a60212d4607704df43c1dca80eec0018fb98067eaa80dd82664736f6c634300081b0033",
  "linkReferences": {
    "contracts/lib/Poseidon.sol": {
      "PoseidonUnit1L": [
        {
          "length": 20,
          "start": 1707
        },
        {
          "length": 20,
          "start": 4377
        },
        {
          "length": 20,
          "start": 6417
        },
        {
          "length": 20,
          "start": 6648
        },
        {
          "length": 20,
          "start": 9302
        }
      ]
    },
    "contracts/lib/SmtLib.sol": {
      "SmtLib": [
        {
          "length": 20,
          "start": 1675
        },
        {
          "length": 20,
          "start": 2537
        },
        {
          "length": 20,
          "start": 2666
        },
        {
          "length": 20,
          "start": 3201
        },
        {
          "length": 20,
          "start": 3575
        },
        {
          "length": 20,
          "start": 4027
        },
        {
          "length": 20,
          "start": 4345
        },
        {
          "length": 20,
          "start": 4756
        },
        {
          "length": 20,
          "start": 5051
        },
        {
          "length": 20,
          "start": 5847
        },
        {
          "length": 20,
          "start": 6385
        },
        {
          "length": 20,
          "start": 6616
        },
        {
          "length": 20,
          "start": 9268
        }
      ]
    },
    "contracts/lib/StateLib.sol": {
      "StateLib": [
        {
          "length": 20,
          "start": 1994
        },
        {
          "length": 20,
          "start": 2130
        },
        {
          "length": 20,
          "start": 3065
        },
        {
          "length": 20,
          "start": 3455
        },
        {
          "length": 20,
          "start": 4571
        },
        {
          "length": 20,
          "start": 4823
        },
        {
          "length": 20,
          "start": 6259
        },
        {
          "length": 20,
          "start": 7554
        },
        {
          "length": 20,
          "start": 8605
        },
        {
          "length": 20,
          "start": 8843
        },
        {
          "length": 20,
          "start": 9166
        }
      ]
    }
  },
  "deployedLinkReferences": {
    "contracts/lib/Poseidon.sol": {
      "PoseidonUnit1L": [
        {
          "length": 20,
          "start": 1490
        },
        {
          "length": 20,
          "start": 4160
        },
        {
          "length": 20,
          "start": 6200
        },
        {
          "length": 20,
          "start": 6431
        },
        {
          "length": 20,
          "start": 9085
        }
      ]
    },
    "contracts/lib/SmtLib.sol": {
      "SmtLib": [
        {
          "length": 20,
          "start": 1458
        },
        {
          "length": 20,
          "start": 2320
        },
        {
          "length": 20,
          "start": 2449
        },
        {
          "length": 20,
          "start": 2984
        },
        {
          "length": 20,
          "start": 3358
        },
        {
          "length": 20,
          "start": 3810
        },
        {
          "length": 20,
          "start": 4128
        },
        {
          "length": 20,
          "start": 4539
        },
        {
          "length": 20,
          "start": 4834
        },
        {
          "length": 20,
          "start": 5630
        },
        {
          "length": 20,
          "start": 6168
        },
        {
          "length": 20,
          "start": 6399
        },
        {
          "length": 20,
          "start": 9051
        }
      ]
    },
    "contracts/lib/StateLib.sol": {
      "StateLib": [
        {
          "length": 20,
          "start": 1777
        },
        {
          "length": 20,
          "start": 1913
        },
        {
          "length": 20,
          "start": 2848
        },
        {
          "length": 20,
          "start": 3238
        },
        {
          "length": 20,
          "start": 4354
        },
        {
          "length": 20,
          "start": 4606
        },
        {
          "length": 20,
          "start": 6042
        },
        {
          "length": 20,
          "start": 7337
        },
        {
          "length": 20,
          "start": 8388
        },
        {
          "length": 20,
          "start": 8626
        },
        {
          "length": 20,
          "start": 8949
        }
      ]
    }
  }
}