{
  "_format": "hh3-artifact-1",
  "contractName": "Groth16VerifierLinkedMultiQuery5Wrapper",
  "sourceName": "contracts/lib/groth16-verifiers/Groth16VerifierLinkedMultiQuery5Wrapper .sol",
  "abi": [
    {
      "inputs": [
        {
          "internalType": "uint256",
          "name": "expected",
          "type": "uint256"
        },
        {
          "internalType": "uint256",
          "name": "actual",
          "type": "uint256"
        }
      ],
      "name": "ExpectedArrayLength",
      "type": "error"
    },
    {
      "inputs": [
        {
          "internalType": "uint256[2]",
          "name": "a",
          "type": "uint256[2]"
        },
        {
          "internalType": "uint256[2][2]",
          "name": "b",
          "type": "uint256[2][2]"
        },
        {
          "internalType": "uint256[2]",
          "name": "c",
          "type": "uint256[2]"
        },
        {
          "internalType": "uint256[]",
          "name": "signals",
          "type": "uint256[]"
        }
      ],
      "name": "verify",
      "outputs": [
        {
          "internalType": "bool",
          "name": "r",
          "type": "bool"
        }
      ],
      "stateMutability": "view",
      "type": "function"
    },
    {
      "inputs": [
        {
          "internalType": "uint256[2]",
          "name": "_pA",
          "type": "uint256[2]"
        },
        {
          "internalType": "uint256[2][2]",
          "name": "_pB",
          "type": "uint256[2][2]"
        },
        {
          "internalType": "uint256[2]",
          "name": "_pC",
          "type": "uint256[2]"
        },
        {
          "internalType": "uint256[12]",
          "name": "_pubSignals",
          "type": "uint256[12]"
        }
      ],
      "name": "verifyProof",
      "outputs": [
        {
          "internalType": "bool",
          "name": "",
          "type": "bool"
        }
      ],
      "stateMutability": "view",
      "type": "function"
    }
  ],
  "bytecode": "0x6080604052348015600e575f5ffd5b50610edb8061001c5f395ff3fe608060405234801561000f575f5ffd5b5060043610610034575f3560e01c80632612907c146100385780638cbac0fa14610068575b5f5ffd5b610052600480360381019061004d9190610ae9565b610098565b60405161005f9190610b89565b60405180910390f35b610082600480360381019061007d9190610bc3565b6101cb565b60405161008f9190610b89565b60405180910390f35b5f6100a1610a1b565b600c84849050146100ef57600c848490506040517f4da7a8b70000000000000000000000000000000000000000000000000000000081526004016100e6929190610c41565b60405180910390fd5b5f5f90505b600c811015610140578484828181106101105761010f610c68565b5b905060200201358282600c811061012a57610129610c68565b5b60200201818152505080806001019150506100f4565b503073ffffffffffffffffffffffffffffffffffffffff16638cbac0fa888888856040518563ffffffff1660e01b81526004016101809493929190610e0b565b602060405180830381865afa15801561019b573d5f5f3e3d5ffd5b505050506040513d601f19601f820116820180604052508101906101bf9190610e7a565b91505095945050505050565b5f61095c565b7f30644e72e131a029b85045b68181585d2833e84879b9709143e1f593f00000018110610200575f5f5260205ff35b50565b5f60405183815284602082015285604082015260408160608360076107d05a03fa915081610233575f5f5260205ff35b825160408201526020830151606082015260408360808360066107d05a03fa915081610261575f5f5260205ff35b505050505050565b5f608086015f87017e40ec546c69622cdc54483cb4a72b2783722835bbe7124696285032fb16429881527f056c4fb8d0bed51cb7a705c8ebcc58e760efe5ef907a2b4d282df563385f832560208201526103085f8801357f1d2eccbfc7d7b1413db76c1b47661c034b39c5d6a2c81f831922f349795706787f1ee89660259af93a4c9440aaa222519e6f244bc8e571456c32ddac6b37e1997584610203565b61035860208801357f1553904ee5538f0a936a8ba4d53eb068b5f02f97ef14f3a4971c95f1588138e77f2319ba8e0f28290033b3778ddb4165f590770f9d2fae20d9e32ecceb153aa2be84610203565b6103a860408801357f0c99bfee317d4fa2e9b3b0f5074e443c61cba170b516147e19cba0a762f7f90d7f151f004d9f471b77d16e5e50255f3607794e7c432e361407c5dfb40eff42822784610203565b6103f760608801357e3fbf4d8d3ce516d4e5c5e4ae6134d9893b76f34ed6ea4748be14c45a9eba827f209f89a82ae3a17a04d5e4a0e268ac64fe51ffcda24daeef21a0435aa2ebf47f84610203565b61044660808801357f11b5668f1f918f51416c6e9e56bff715a554528b1ae3495cbc3a8ffafdeb73f87e89f072aefa7cea8102b67e7a472df5204638a404318869ce635be56ee5408f84610203565b61049660a08801357f2f14f9bd9d36a3fe4e9de59033fecaaf168ab4d8d611d2d16297bb8eba7f32617f07d5b7ad1e8c7b96f52f98e6f28a928877d2ed6f57725b870d9eadd1e065898484610203565b6104e660c08801357f056fecb7b192bd004358a73b62e49b163b0d39a688c603a0e43255e346da83b67f0d2530bf51be13386e861877bbc9a199cb679913f1953bb3da80ee914ba64c3d84610203565b61053660e08801357f1aea23374745a00a394405bca49d9e789d0f21c8d03c61a94367fc7458f0c62b7f17737091a5653983f3c6c3a5b8ce1c52d88f8e07c7ec4eda3293e7fa0fd2bc5384610203565b6105876101008801357f174ab4e584e43f7149ee820deb13907bdb82654eb8ac9502e4ef4799650e84b97f0571e02cbc1671f6ea14aadf2d3abf620c8c41da04b922457f92ba5efd6ffaa984610203565b6105d86101208801357f16a74722a530c4ecb203fdab2c7adf104dd7472c6f4c1b2d5700b32d5551a0067f10161d38f6e0f4711eaf7e9004a7661da60252434b30ed04244e1717944732de84610203565b6106296101408801357f1291158fc2e6b7c0d33741e5a7a078a0076ab2ee005af87ea0f9380435c4fd9e7f255c5f10386181acf47ec0dc6fe4945abc77023b8778f8a5283bb90746f48b0984610203565b61067a6101608801357f1dff776e9d43ede4354922da7d272f446caf73acd1133d3779bac159c113f2b17f28501b5e22330197ec5e773871cf52565c6eff1044b1af7c50b32d2edbd481c284610203565b833582527f30644e72e131a029b85045b68181585d97816a916871ca8d3c208c16d87cfd4760208501357f30644e72e131a029b85045b68181585d97816a916871ca8d3c208c16d87cfd4703066020830152843560408301526020850135606083015260408501356080830152606085013560a08301527f245229d9b076b3c0e8a4d70bde8c1cccffa08a9fae7557b165b3b0dbd653e2c760c08301527f253ec85988dbb84e46e94b5efa3373b47a000b4ac6c86b2d4b798d274a18230260e08301527f07090a82e8fabbd39299be24705b92cf208ee8b3487f6f2b39ff27978a29a1db6101008301527f2424bcc1f60a5472685fd50705b2809626e170120acaf441e133a2bd5e61d2446101208301527f0ae1135cffdaf227c5dc266740607aa930bc3bd92ddc2b135086d9da2dfd3e2a6101408301527f2b86859fd3d55c9d150fb3f0aeba798826493dd73d357ab0f9fdaced9fc818296101608301525f88015161018083015260205f018801516101a08301527f198e9393920d483a7260bfb731fb5d25f1aa493335a9e71297e485b7aef312c26101c08301527f1800deef121f1e76426a00665e5c4479674322d4f75edadd46debd5cd992f6ed6101e08301527f090689d0585ff075ec9e99ad690c3395bc4b313370b38ef355acdadcd122975b6102008301527f12c85ea5db8c6deb4aab71808dcb408fe3d1e7690c43d37b4ce6cc0166fa7daa610220830152853561024083015260208601356102608301527f0d6822813f1410696c8d749caf51a1e3beee9a46a8cd6ef9c54bba035165a1ea6102808301527f0512d3abe0b8d4ee22ada7e0b0360507f2cd4bac4864885843720b0d8726a8b96102a08301527f2f3cd89aef8724dd4de46ce4bd3e118384273659db1d97cd4bb104a69ba732cb6102c08301527f185d2f55c9ece0ae2fa4690f44c7809d2d7370f25d5fe44621cd8e2402a11f466102e08301526020826103008460086107d05a03fa82518116935050505095945050505050565b60405161038081016040526109735f8401356101d1565b61098060208401356101d1565b61098d60408401356101d1565b61099a60608401356101d1565b6109a760808401356101d1565b6109b460a08401356101d1565b6109c160c08401356101d1565b6109ce60e08401356101d1565b6109dc6101008401356101d1565b6109ea6101208401356101d1565b6109f86101408401356101d1565b610a066101608401356101d1565b610a13818486888a610269565b805f5260205ff35b604051806101800160405280600c90602082028036833780820191505090505090565b5f5ffd5b5f5ffd5b5f5ffd5b5f81905082602060020282011115610a6557610a64610a46565b5b92915050565b5f81905082604060020282011115610a8657610a85610a46565b5b92915050565b5f5ffd5b5f5ffd5b5f5f83601f840112610aa957610aa8610a8c565b5b8235905067ffffffffffffffff811115610ac657610ac5610a90565b5b602083019150836020820283011115610ae257610ae1610a46565b5b9250929050565b5f5f5f5f5f6101208688031215610b0357610b02610a3e565b5b5f610b1088828901610a4a565b9550506040610b2188828901610a6b565b94505060c0610b3288828901610a4a565b93505061010086013567ffffffffffffffff811115610b5457610b53610a42565b5b610b6088828901610a94565b92509250509295509295909350565b5f8115159050919050565b610b8381610b6f565b82525050565b5f602082019050610b9c5f830184610b7a565b92915050565b5f819050826020600c0282011115610bbd57610bbc610a46565b5b92915050565b5f5f5f5f6102808587031215610bdc57610bdb610a3e565b5b5f610be987828801610a4a565b9450506040610bfa87828801610a6b565b93505060c0610c0b87828801610a4a565b925050610100610c1d87828801610ba2565b91505092959194509250565b5f819050919050565b610c3b81610c29565b82525050565b5f604082019050610c545f830185610c32565b610c616020830184610c32565b9392505050565b7f4e487b71000000000000000000000000000000000000000000000000000000005f52603260045260245ffd5b82818337505050565b610caa60408383610c95565b5050565b5f60029050919050565b5f81905092915050565b5f819050919050565b610cd760408383610c95565b5050565b5f610ce68383610ccb565b60408301905092915050565b5f82905092915050565b5f604082019050919050565b610d1181610cae565b610d1b8184610cb8565b9250610d2682610cc2565b805f5b83811015610d5e57610d3b8284610cf2565b610d458782610cdb565b9650610d5083610cfc565b925050600181019050610d29565b505050505050565b5f600c9050919050565b5f81905092915050565b5f819050919050565b610d8c81610c29565b82525050565b5f610d9d8383610d83565b60208301905092915050565b5f602082019050919050565b610dbe81610d66565b610dc88184610d70565b9250610dd382610d7a565b805f5b83811015610e03578151610dea8782610d92565b9650610df583610da9565b925050600181019050610dd6565b505050505050565b5f61028082019050610e1f5f830187610c9e565b610e2c6040830186610d08565b610e3960c0830185610c9e565b610e47610100830184610db5565b95945050505050565b610e5981610b6f565b8114610e63575f5ffd5b50565b5f81519050610e7481610e50565b92915050565b5f60208284031215610e8f57610e8e610a3e565b5b5f610e9c84828501610e66565b9150509291505056fea26469706673582212205ee38748e08b0248de95564f0922ee373b0973dbbfa65b84343dcbf8bc31b28f64736f6c634300081b0033",
  "linkReferences": {},
  "deployedLinkReferences": {},
  "immutableReferences": {},
  "inputSourceName": "project/contracts/lib/groth16-verifiers/Groth16VerifierLinkedMultiQuery5Wrapper .sol",
  "buildInfoId": "solc-0_8_27-ea14d5db4890f54206f16cf8a38faca860a752c5"
}