{
  "_format": "hh3-artifact-1",
  "contractName": "Groth16VerifierV3StableWrapper",
  "sourceName": "contracts/lib/groth16-verifiers/Groth16VerifierV3StableWrapper.sol",
  "abi": [
    {
      "inputs": [
        {
          "internalType": "uint256",
          "name": "expected",
          "type": "uint256"
        },
        {
          "internalType": "uint256",
          "name": "actual",
          "type": "uint256"
        }
      ],
      "name": "ExpectedArrayLength",
      "type": "error"
    },
    {
      "inputs": [
        {
          "internalType": "uint256[2]",
          "name": "a",
          "type": "uint256[2]"
        },
        {
          "internalType": "uint256[2][2]",
          "name": "b",
          "type": "uint256[2][2]"
        },
        {
          "internalType": "uint256[2]",
          "name": "c",
          "type": "uint256[2]"
        },
        {
          "internalType": "uint256[]",
          "name": "signals",
          "type": "uint256[]"
        }
      ],
      "name": "verify",
      "outputs": [
        {
          "internalType": "bool",
          "name": "r",
          "type": "bool"
        }
      ],
      "stateMutability": "view",
      "type": "function"
    },
    {
      "inputs": [
        {
          "internalType": "uint256[2]",
          "name": "_pA",
          "type": "uint256[2]"
        },
        {
          "internalType": "uint256[2][2]",
          "name": "_pB",
          "type": "uint256[2][2]"
        },
        {
          "internalType": "uint256[2]",
          "name": "_pC",
          "type": "uint256[2]"
        },
        {
          "internalType": "uint256[14]",
          "name": "_pubSignals",
          "type": "uint256[14]"
        }
      ],
      "name": "verifyProof",
      "outputs": [
        {
          "internalType": "bool",
          "name": "",
          "type": "bool"
        }
      ],
      "stateMutability": "view",
      "type": "function"
    }
  ],
  "bytecode": "0x6080604052348015600e575f5ffd5b50610f998061001c5f395ff3fe608060405234801561000f575f5ffd5b5060043610610034575f3560e01c80632612907c146100385780638d15f88f14610068575b5f5ffd5b610052600480360381019061004d9190610ba7565b610098565b60405161005f9190610c47565b60405180910390f35b610082600480360381019061007d9190610c81565b6101cb565b60405161008f9190610c47565b60405180910390f35b5f6100a1610ad9565b600e84849050146100ef57600e848490506040517f4da7a8b70000000000000000000000000000000000000000000000000000000081526004016100e6929190610cff565b60405180910390fd5b5f5f90505b600e811015610140578484828181106101105761010f610d26565b5b905060200201358282600e811061012a57610129610d26565b5b60200201818152505080806001019150506100f4565b503073ffffffffffffffffffffffffffffffffffffffff16638d15f88f888888856040518563ffffffff1660e01b81526004016101809493929190610ec9565b602060405180830381865afa15801561019b573d5f5f3e3d5ffd5b505050506040513d601f19601f820116820180604052508101906101bf9190610f38565b91505095945050505050565b5f6109fe565b7f30644e72e131a029b85045b68181585d2833e84879b9709143e1f593f00000018110610200575f5f5260205ff35b50565b5f60405183815284602082015285604082015260408160608360076107d05a03fa915081610233575f5f5260205ff35b825160408201526020830151606082015260408360808360066107d05a03fa915081610261575f5f5260205ff35b505050505050565b5f608086015f87017f1579a16eaf749504e5a3dd2ebbdc4f321f7bd42bc1bd9308daceaa8662d7ee8781527f03f686a94f8c34395fe0ce568a5897ff9cf0a975371a557581a65a5b2b894ba760208201526103095f8801357f17336fcb7301ec63d73321b3b3cf7eea43c221e2bb26583f38772ea26aa2244b7f295809a033e634ddabf8cba0983e0bef477d97cdccf0281115de029b6b37575c84610203565b61035960208801357f1145b8293fca6422c4aa8ba67a26034b1574f80168beb6118e7d54921efa71867f2279833f7b52d4075c2ce76fa23110dbdd08316e92d0dd42fdbcd0b90b6e0e1784610203565b6103a960408801357f06f71a94781f77b8dfbe092acca74cb09f448b82a6ece8e2925154f3862c7d3f7f293abd7690f9d8f7fe42cd1d4860dd0b97f91cdf983b472613cb86a74afd036f84610203565b6103f960608801357f027fe68585687a23ae567858674ca8ffdb8bf5ec2b4f17b91b837fe41ac552d87f2f3c6c4b4b9a25b4b16d8fc0c47a3b2e979d6ceb88e35eb57b07e4282dc23f0f84610203565b61044960808801357f0d73f4cead8f834e85d6a65a6b2effc5fac7d160b3ca28f8ad5db09a6cf1a7ef7f13abc9e9fb5c78418013378703c2370f2e4477d2da40ebc7e0dcb35048d52f4684610203565b61049860a08801357e07a30cb104b03c1fdad8c8f08bed8c1185386ae16a3db532d86ef3428d9ecb7f18a8e0dcb9afb7f81bb2e17d3deddbafe8338aa7effb9995360ba35b915cbf3384610203565b6104e760c08801357ea1c8fc60e99d4e214ea4697b8e7a0dd50575888130c9852bc37164f4cbb0fd7f028eca2c7f3d06d25dbebb0a89670ac467ae8707ec137979cc8c06b5117be0f784610203565b61053760e08801357f09e89beb8f35d836edcc7cc23db2437a17597562af7d4f29265b48e465c89f7f7f2b516df717c7cef72cbb473f31ee8a8a57d4e1b0ec76c8c3b25aba1875593bb684610203565b6105886101008801357f27f1b4adbc9420742cbc8be0061f219cdae624fdc2f875ede9f5aaa360b0c1187f0391c410f966743f6c022b934123962860e767bd417648d2761b6ccd2fe94f4b84610203565b6105d86101208801357f0f17899db40895e9ce0f6c3dc0d5ea1f69630d847e7e60be8384d603a9f8279b7e6be05f701d85452127eef6dc2a72a1c9976c1698820cefd2253bcd48f85f3684610203565b6106296101408801357f0beb1daf422badca39b73581f1dc9d25e813337689e977f4a0bf0936e0f963da7f2929207d3e5fa3a802246d1e49b0c5dc6792578b526b93cb643e8cddd30cd32e84610203565b61067a6101608801357f025f6a949b74b3b805e478b31d66673d72e9d84c903c048eb772dcecaf23b71f7f18cbf992adda49fc9c8c71b830105800d3107f41520a0af0dff17551d655fca684610203565b6106cb6101808801357f0af8b1d06b5e74ce68817d82a20011bd389bf77bcb61f936c952d894e04fc6617f294bdcb53f3a9eabb35f91094c2ba4efe4145675dc4b2af02fd0a1bbdafb7aaf84610203565b61071c6101a08801357f2bb9a63e54188bc0588d675fab35feeb927e618f18d2b81ffa0b25bd96bef5477f1dbe0e2d7defe549d93ac5eb4f2aa23e041e467d7d60fc17a9c7b38da9311f4184610203565b833582527f30644e72e131a029b85045b68181585d97816a916871ca8d3c208c16d87cfd4760208501357f30644e72e131a029b85045b68181585d97816a916871ca8d3c208c16d87cfd4703066020830152843560408301526020850135606083015260408501356080830152606085013560a08301527f245229d9b076b3c0e8a4d70bde8c1cccffa08a9fae7557b165b3b0dbd653e2c760c08301527f253ec85988dbb84e46e94b5efa3373b47a000b4ac6c86b2d4b798d274a18230260e08301527f07090a82e8fabbd39299be24705b92cf208ee8b3487f6f2b39ff27978a29a1db6101008301527f2424bcc1f60a5472685fd50705b2809626e170120acaf441e133a2bd5e61d2446101208301527f0ae1135cffdaf227c5dc266740607aa930bc3bd92ddc2b135086d9da2dfd3e2a6101408301527f2b86859fd3d55c9d150fb3f0aeba798826493dd73d357ab0f9fdaced9fc818296101608301525f88015161018083015260205f018801516101a08301527f198e9393920d483a7260bfb731fb5d25f1aa493335a9e71297e485b7aef312c26101c08301527f1800deef121f1e76426a00665e5c4479674322d4f75edadd46debd5cd992f6ed6101e08301527f090689d0585ff075ec9e99ad690c3395bc4b313370b38ef355acdadcd122975b6102008301527f12c85ea5db8c6deb4aab71808dcb408fe3d1e7690c43d37b4ce6cc0166fa7daa610220830152853561024083015260208601356102608301527f17a3581f181a9cc40bf7e84bf52cad537bf53743615dc2598bb2c2c4009dad976102808301527f1bc742919f66baea7cfa91317e8cc57dc54c724bfc04f19ab6f0e9fe77f93e046102a08301527f0fb4e2a0c60f42f72ff678033a6199626d5c66c1200abe2f2dfb00b1de940c316102c08301527f24cfda3e1fe8744853bf3945baaacf0b205fb6d23dc1b39cc800ece531610d186102e08301526020826103008460086107d05a03fa82518116935050505095945050505050565b6040516103808101604052610a155f8401356101d1565b610a2260208401356101d1565b610a2f60408401356101d1565b610a3c60608401356101d1565b610a4960808401356101d1565b610a5660a08401356101d1565b610a6360c08401356101d1565b610a7060e08401356101d1565b610a7e6101008401356101d1565b610a8c6101208401356101d1565b610a9a6101408401356101d1565b610aa86101608401356101d1565b610ab66101808401356101d1565b610ac46101a08401356101d1565b610ad1818486888a610269565b805f5260205ff35b604051806101c00160405280600e90602082028036833780820191505090505090565b5f5ffd5b5f5ffd5b5f5ffd5b5f81905082602060020282011115610b2357610b22610b04565b5b92915050565b5f81905082604060020282011115610b4457610b43610b04565b5b92915050565b5f5ffd5b5f5ffd5b5f5f83601f840112610b6757610b66610b4a565b5b8235905067ffffffffffffffff811115610b8457610b83610b4e565b5b602083019150836020820283011115610ba057610b9f610b04565b5b9250929050565b5f5f5f5f5f6101208688031215610bc157610bc0610afc565b5b5f610bce88828901610b08565b9550506040610bdf88828901610b29565b94505060c0610bf088828901610b08565b93505061010086013567ffffffffffffffff811115610c1257610c11610b00565b5b610c1e88828901610b52565b92509250509295509295909350565b5f8115159050919050565b610c4181610c2d565b82525050565b5f602082019050610c5a5f830184610c38565b92915050565b5f819050826020600e0282011115610c7b57610c7a610b04565b5b92915050565b5f5f5f5f6102c08587031215610c9a57610c99610afc565b5b5f610ca787828801610b08565b9450506040610cb887828801610b29565b93505060c0610cc987828801610b08565b925050610100610cdb87828801610c60565b91505092959194509250565b5f819050919050565b610cf981610ce7565b82525050565b5f604082019050610d125f830185610cf0565b610d1f6020830184610cf0565b9392505050565b7f4e487b71000000000000000000000000000000000000000000000000000000005f52603260045260245ffd5b82818337505050565b610d6860408383610d53565b5050565b5f60029050919050565b5f81905092915050565b5f819050919050565b610d9560408383610d53565b5050565b5f610da48383610d89565b60408301905092915050565b5f82905092915050565b5f604082019050919050565b610dcf81610d6c565b610dd98184610d76565b9250610de482610d80565b805f5b83811015610e1c57610df98284610db0565b610e038782610d99565b9650610e0e83610dba565b925050600181019050610de7565b505050505050565b5f600e9050919050565b5f81905092915050565b5f819050919050565b610e4a81610ce7565b82525050565b5f610e5b8383610e41565b60208301905092915050565b5f602082019050919050565b610e7c81610e24565b610e868184610e2e565b9250610e9182610e38565b805f5b83811015610ec1578151610ea88782610e50565b9650610eb383610e67565b925050600181019050610e94565b505050505050565b5f6102c082019050610edd5f830187610d5c565b610eea6040830186610dc6565b610ef760c0830185610d5c565b610f05610100830184610e73565b95945050505050565b610f1781610c2d565b8114610f21575f5ffd5b50565b5f81519050610f3281610f0e565b92915050565b5f60208284031215610f4d57610f4c610afc565b5b5f610f5a84828501610f24565b9150509291505056fea264697066735822122036050e84583f541ce57e238a2eee52b9cfa944ae46a35072e9feeeb24969a5c164736f6c634300081b0033",
  "linkReferences": {},
  "deployedLinkReferences": {},
  "immutableReferences": {},
  "inputSourceName": "project/contracts/lib/groth16-verifiers/Groth16VerifierV3StableWrapper.sol",
  "buildInfoId": "solc-0_8_27-ea14d5db4890f54206f16cf8a38faca860a752c5"
}