{
  "_format": "hh3-artifact-1",
  "contractName": "LinkedMultiQueryStableValidator",
  "sourceName": "contracts/validators/request/LinkedMultiQueryStableValidator.sol",
  "abi": [
    {
      "inputs": [],
      "stateMutability": "nonpayable",
      "type": "constructor"
    },
    {
      "inputs": [
        {
          "internalType": "string",
          "name": "circuitId",
          "type": "string"
        }
      ],
      "name": "Groth16VerifierAddressIsZero",
      "type": "error"
    },
    {
      "inputs": [
        {
          "internalType": "string",
          "name": "circuitId",
          "type": "string"
        }
      ],
      "name": "Groth16VerifierAlreadySet",
      "type": "error"
    },
    {
      "inputs": [],
      "name": "GroupIDCannotBeZero",
      "type": "error"
    },
    {
      "inputs": [],
      "name": "InputNameNotFound",
      "type": "error"
    },
    {
      "inputs": [],
      "name": "InvalidGroth16Proof",
      "type": "error"
    },
    {
      "inputs": [],
      "name": "InvalidInitialization",
      "type": "error"
    },
    {
      "inputs": [
        {
          "internalType": "uint256",
          "name": "expectedQueryHash",
          "type": "uint256"
        },
        {
          "internalType": "uint256",
          "name": "actualQueryHash",
          "type": "uint256"
        }
      ],
      "name": "InvalidQueryHash",
      "type": "error"
    },
    {
      "inputs": [],
      "name": "LinkIDCannotBeZero",
      "type": "error"
    },
    {
      "inputs": [],
      "name": "NotInitializing",
      "type": "error"
    },
    {
      "inputs": [
        {
          "internalType": "address",
          "name": "owner",
          "type": "address"
        }
      ],
      "name": "OwnableInvalidOwner",
      "type": "error"
    },
    {
      "inputs": [
        {
          "internalType": "address",
          "name": "account",
          "type": "address"
        }
      ],
      "name": "OwnableUnauthorizedAccount",
      "type": "error"
    },
    {
      "inputs": [],
      "name": "RequestParamNameNotFound",
      "type": "error"
    },
    {
      "inputs": [
        {
          "internalType": "uint256",
          "name": "operatorCount",
          "type": "uint256"
        }
      ],
      "name": "TooManyQueries",
      "type": "error"
    },
    {
      "inputs": [
        {
          "internalType": "string",
          "name": "circuitID",
          "type": "string"
        }
      ],
      "name": "WrongCircuitID",
      "type": "error"
    },
    {
      "anonymous": false,
      "inputs": [
        {
          "indexed": false,
          "internalType": "uint64",
          "name": "version",
          "type": "uint64"
        }
      ],
      "name": "Initialized",
      "type": "event"
    },
    {
      "anonymous": false,
      "inputs": [
        {
          "indexed": true,
          "internalType": "address",
          "name": "previousOwner",
          "type": "address"
        },
        {
          "indexed": true,
          "internalType": "address",
          "name": "newOwner",
          "type": "address"
        }
      ],
      "name": "OwnershipTransferStarted",
      "type": "event"
    },
    {
      "anonymous": false,
      "inputs": [
        {
          "indexed": true,
          "internalType": "address",
          "name": "previousOwner",
          "type": "address"
        },
        {
          "indexed": true,
          "internalType": "address",
          "name": "newOwner",
          "type": "address"
        }
      ],
      "name": "OwnershipTransferred",
      "type": "event"
    },
    {
      "inputs": [],
      "name": "VERSION",
      "outputs": [
        {
          "internalType": "string",
          "name": "",
          "type": "string"
        }
      ],
      "stateMutability": "view",
      "type": "function"
    },
    {
      "inputs": [],
      "name": "acceptOwnership",
      "outputs": [],
      "stateMutability": "nonpayable",
      "type": "function"
    },
    {
      "inputs": [
        {
          "internalType": "string",
          "name": "",
          "type": "string"
        }
      ],
      "name": "circuitIdToQueriesCount",
      "outputs": [
        {
          "internalType": "uint256",
          "name": "",
          "type": "uint256"
        }
      ],
      "stateMutability": "view",
      "type": "function"
    },
    {
      "inputs": [
        {
          "internalType": "bytes",
          "name": "params",
          "type": "bytes"
        },
        {
          "internalType": "string",
          "name": "paramName",
          "type": "string"
        }
      ],
      "name": "getRequestParam",
      "outputs": [
        {
          "components": [
            {
              "internalType": "string",
              "name": "name",
              "type": "string"
            },
            {
              "internalType": "uint256",
              "name": "value",
              "type": "uint256"
            }
          ],
          "internalType": "struct IRequestValidator.RequestParam",
          "name": "",
          "type": "tuple"
        }
      ],
      "stateMutability": "pure",
      "type": "function"
    },
    {
      "inputs": [],
      "name": "getSupportedCircuitIds",
      "outputs": [
        {
          "internalType": "string[]",
          "name": "ids",
          "type": "string[]"
        }
      ],
      "stateMutability": "view",
      "type": "function"
    },
    {
      "inputs": [
        {
          "internalType": "string",
          "name": "circuitId",
          "type": "string"
        }
      ],
      "name": "getVerifierByCircuitId",
      "outputs": [
        {
          "internalType": "contract IGroth16Verifier",
          "name": "",
          "type": "address"
        }
      ],
      "stateMutability": "view",
      "type": "function"
    },
    {
      "inputs": [
        {
          "components": [
            {
              "internalType": "string",
              "name": "circuitId",
              "type": "string"
            },
            {
              "internalType": "address",
              "name": "verifierAddress",
              "type": "address"
            },
            {
              "internalType": "uint256",
              "name": "queriesCount",
              "type": "uint256"
            }
          ],
          "internalType": "struct LinkedMultiQueryStableValidator.VerifierInfo[]",
          "name": "verifiersInfo",
          "type": "tuple[]"
        },
        {
          "internalType": "address",
          "name": "owner",
          "type": "address"
        }
      ],
      "name": "initialize",
      "outputs": [],
      "stateMutability": "nonpayable",
      "type": "function"
    },
    {
      "inputs": [
        {
          "internalType": "string",
          "name": "name",
          "type": "string"
        }
      ],
      "name": "inputIndexOf",
      "outputs": [
        {
          "internalType": "uint256",
          "name": "",
          "type": "uint256"
        }
      ],
      "stateMutability": "view",
      "type": "function"
    },
    {
      "inputs": [],
      "name": "owner",
      "outputs": [
        {
          "internalType": "address",
          "name": "",
          "type": "address"
        }
      ],
      "stateMutability": "view",
      "type": "function"
    },
    {
      "inputs": [],
      "name": "pendingOwner",
      "outputs": [
        {
          "internalType": "address",
          "name": "",
          "type": "address"
        }
      ],
      "stateMutability": "view",
      "type": "function"
    },
    {
      "inputs": [],
      "name": "renounceOwnership",
      "outputs": [],
      "stateMutability": "nonpayable",
      "type": "function"
    },
    {
      "inputs": [
        {
          "internalType": "bytes4",
          "name": "interfaceId",
          "type": "bytes4"
        }
      ],
      "name": "supportsInterface",
      "outputs": [
        {
          "internalType": "bool",
          "name": "",
          "type": "bool"
        }
      ],
      "stateMutability": "view",
      "type": "function"
    },
    {
      "inputs": [
        {
          "internalType": "address",
          "name": "newOwner",
          "type": "address"
        }
      ],
      "name": "transferOwnership",
      "outputs": [],
      "stateMutability": "nonpayable",
      "type": "function"
    },
    {
      "inputs": [
        {
          "internalType": "address",
          "name": "sender",
          "type": "address"
        },
        {
          "internalType": "bytes",
          "name": "proof",
          "type": "bytes"
        },
        {
          "internalType": "bytes",
          "name": "requestParams",
          "type": "bytes"
        },
        {
          "internalType": "bytes",
          "name": "responseMetadata",
          "type": "bytes"
        }
      ],
      "name": "verify",
      "outputs": [
        {
          "components": [
            {
              "internalType": "string",
              "name": "name",
              "type": "string"
            },
            {
              "internalType": "uint256",
              "name": "value",
              "type": "uint256"
            },
            {
              "internalType": "bytes",
              "name": "rawValue",
              "type": "bytes"
            }
          ],
          "internalType": "struct IRequestValidator.ResponseField[]",
          "name": "",
          "type": "tuple[]"
        }
      ],
      "stateMutability": "view",
      "type": "function"
    },
    {
      "inputs": [],
      "name": "version",
      "outputs": [
        {
          "internalType": "string",
          "name": "",
          "type": "string"
        }
      ],
      "stateMutability": "pure",
      "type": "function"
    }
  ],
  "bytecode": "0x608060405234801561000f575f5ffd5b5061001e61002360201b60201c565b61019e565b5f61003261012160201b60201c565b9050805f0160089054906101000a900460ff161561007c576040517ff92ee8a900000000000000000000000000000000000000000000000000000000815260040160405180910390fd5b67ffffffffffffffff8016815f015f9054906101000a900467ffffffffffffffff1667ffffffffffffffff161461011e5767ffffffffffffffff815f015f6101000a81548167ffffffffffffffff021916908367ffffffffffffffff1602179055507fc7f505b2f371ae2175ee4913f4499e1f2633a7b5936321eed1cdaeb6115181d267ffffffffffffffff6040516101159190610185565b60405180910390a15b50565b5f5f61013161013a60201b60201c565b90508091505090565b5f7ff0c57e16840df040f15088dc2f81fe391c3923bec73e23a9662efc9c229c6a005f1b905090565b5f67ffffffffffffffff82169050919050565b61017f81610163565b82525050565b5f6020820190506101985f830184610176565b92915050565b61353d806101ab5f395ff3fe608060405234801561000f575f5ffd5b50600436106100f3575f3560e01c8063b16a394f11610095578063f2fde38b11610064578063f2fde38b14610271578063f6e273121461028d578063fb5af2a2146102bd578063ffa1ad74146102db576100f3565b8063b16a394f146101c3578063d9f9eb9a146101f3578063e30c397814610223578063ed4b50a814610241576100f3565b8063760c170b116100d1578063760c170b1461014f57806379ba50971461016b5780638c952748146101755780638da5cb5b146101a5576100f3565b806301ffc9a7146100f757806354fd4d5014610127578063715018a614610145575b5f5ffd5b610111600480360381019061010c9190611c8e565b6102f9565b60405161011e9190611cd3565b60405180910390f35b61012f610372565b60405161013c9190611d5c565b60405180910390f35b61014d6103af565b005b61016960048036038101906101649190611e37565b6103c2565b005b6101736107a9565b005b61018f600480360381019061018a9190611fbc565b610837565b60405161019c919061205e565b60405180910390f35b6101ad610885565b6040516101ba9190612086565b60405180910390f35b6101dd60048036038101906101d89190611fbc565b6108ba565b6040516101ea91906120b7565b60405180910390f35b61020d60048036038101906102089190612125565b610934565b60405161021a91906123a1565b60405180910390f35b61022b610b09565b6040516102389190612086565b60405180910390f35b61025b600480360381019061025691906123c1565b610b3e565b6040516102689190612474565b60405180910390f35b61028b60048036038101906102869190612494565b610c80565b005b6102a760048036038101906102a29190611fbc565b610d39565b6040516102b491906120b7565b60405180910390f35b6102c5610d65565b6040516102d2919061257a565b60405180910390f35b6102e3610e42565b6040516102f09190611d5c565b60405180910390f35b5f7fd125cf2d000000000000000000000000000000000000000000000000000000007bffffffffffffffffffffffffffffffffffffffffffffffffffffffff1916827bffffffffffffffffffffffffffffffffffffffffffffffffffffffff1916148061036b575061036a82610e7b565b5b9050919050565b60606040518060400160405280600581526020017f312e302e30000000000000000000000000000000000000000000000000000000815250905090565b6103b7610ee4565b6103c05f610f6b565b565b5f6103cb610fa8565b90505f815f0160089054906101000a900460ff161590505f825f015f9054906101000a900467ffffffffffffffff1690505f5f8267ffffffffffffffff161480156104135750825b90505f60018367ffffffffffffffff1614801561044657505f3073ffffffffffffffffffffffffffffffffffffffff163b145b905081158015610454575080155b1561048b576040517ff92ee8a900000000000000000000000000000000000000000000000000000000815260040160405180910390fd5b6001855f015f6101000a81548167ffffffffffffffff021916908367ffffffffffffffff16021790555083156104d8576001855f0160086101000a81548160ff0219169083151502179055505b5f5f90505b888890508110156106265761059c8989838181106104fe576104fd61259a565b5b905060200281019061051091906125d3565b805f019061051e91906125fa565b8080601f0160208091040260200160405190810160405280939291908181526020018383808284375f81840152601f19601f820116905080830192505050505050508a8a848181106105735761057261259a565b5b905060200281019061058591906125d3565b60200160208101906105979190612494565b610fbb565b8888828181106105af576105ae61259a565b5b90506020028101906105c191906125d3565b604001355f8a8a848181106105d9576105d861259a565b5b90506020028101906105eb91906125d3565b805f01906105f991906125fa565b60405161060792919061268a565b90815260200160405180910390208190555080806001019150506104dd565b506106666040518060400160405280600681526020017f6c696e6b494400000000000000000000000000000000000000000000000000008152505f611183565b6106a66040518060400160405280600981526020017f6d65726b6c697a656400000000000000000000000000000000000000000000008152506001611183565b5f5f90505b600a81101561073b576106f16106c0826111bf565b6040516020016106d0919061271c565b6040516020818303038152906040528260026106ec919061276a565b611183565b61072e6106fd826111bf565b60405160200161070d91906127e7565b60405160208183030381529060405282600c610729919061276a565b611183565b80806001019150506106ab565b5061074586611289565b831561079f575f855f0160086101000a81548160ff0219169083151502179055507fc7f505b2f371ae2175ee4913f4499e1f2633a7b5936321eed1cdaeb6115181d260016040516107969190612854565b60405180910390a15b5050505050505050565b5f6107b261129d565b90508073ffffffffffffffffffffffffffffffffffffffff166107d3610b09565b73ffffffffffffffffffffffffffffffffffffffff161461082b57806040517f118cdaa70000000000000000000000000000000000000000000000000000000081526004016108229190612086565b60405180910390fd5b61083481610f6b565b50565b5f6108406112a4565b5f0182604051610850919061286d565b90815260200160405180910390205f9054906101000a900473ffffffffffffffffffffffffffffffffffffffff169050919050565b5f5f61088f6112cb565b9050805f015f9054906101000a900473ffffffffffffffffffffffffffffffffffffffff1691505090565b5f5f6108c46112a4565b600201836040516108d5919061286d565b90815260200160405180910390205490505f810361091f576040517f59a674c000000000000000000000000000000000000000000000000000000000815260040160405180910390fd5b8061092990612883565b905080915050919050565b60605f85858101906109469190612cc7565b90505f5f5f5f8b8b81019061095b9190612e6a565b93509350935093505f88888101906109739190611fbc565b90505f61097f82610837565b90505f73ffffffffffffffffffffffffffffffffffffffff168173ffffffffffffffffffffffffffffffffffffffff16036109f157816040517feca2d7ad0000000000000000000000000000000000000000000000000000000081526004016109e89190611d5c565b60405180910390fd5b5f610a19875f85604051610a05919061286d565b9081526020016040518091039020546112f2565b9050610a258882611436565b610a368860c00151825f01516115a1565b8173ffffffffffffffffffffffffffffffffffffffff16632612907c8787878b6040518563ffffffff1660e01b8152600401610a759493929190613108565b602060405180830381865afa158015610a90573d5f5f3e3d5ffd5b505050506040513d601f19601f82011682018060405250810190610ab4919061317e565b610aea576040517fb4e0708100000000000000000000000000000000000000000000000000000000815260040160405180910390fd5b610af48189611617565b98505050505050505050979650505050505050565b5f5f610b13611846565b9050805f015f9054906101000a900473ffffffffffffffffffffffffffffffffffffffff1691505090565b610b46611b9a565b5f8484810190610b569190612cc7565b90507fdab5ca4f3738dce0cd25851a4aa9160ebdfb1678ef20ca14c9a3e9217058455a5f1b838051906020012003610ba95760405180604001604052808481526020018260c00151815250915050610c79565b7fa6ade9d39b76f319076fc4ad150ee37167dd21433b39e1d533a5d6b635762abe5f1b838051906020012003610bfa5760405180604001604052808481526020018260e00151815250915050610c79565b7f24cea8e4716dcdf091e4abcbd3ea617d9a5dd308b90afb5da0d75e56b3c0bc955f1b838051906020012003610c475760405180604001604052808481526020015f815250915050610c79565b6040517f53bebd1b00000000000000000000000000000000000000000000000000000000815260040160405180910390fd5b9392505050565b610c88610ee4565b5f610c91611846565b905081815f015f6101000a81548173ffffffffffffffffffffffffffffffffffffffff021916908373ffffffffffffffffffffffffffffffffffffffff1602179055508173ffffffffffffffffffffffffffffffffffffffff16610cf3610885565b73ffffffffffffffffffffffffffffffffffffffff167f38d16b8cac22d99fc7c124b9cd0de2d3fa1faef420bfe791d8c362d765e2270060405160405180910390a35050565b5f818051602081018201805184825260208301602085012081835280955050505050505f915090505481565b6060610d6f6112a4565b600101805480602002602001604051908101604052809291908181526020015f905b82821015610e39578382905f5260205f20018054610dae906131d6565b80601f0160208091040260200160405190810160405280929190818152602001828054610dda906131d6565b8015610e255780601f10610dfc57610100808354040283529160200191610e25565b820191905f5260205f20905b815481529060010190602001808311610e0857829003601f168201915b505050505081526020019060010190610d91565b50505050905090565b6040518060400160405280600581526020017f312e302e3000000000000000000000000000000000000000000000000000000081525081565b5f7f01ffc9a7000000000000000000000000000000000000000000000000000000007bffffffffffffffffffffffffffffffffffffffffffffffffffffffff1916827bffffffffffffffffffffffffffffffffffffffffffffffffffffffff1916149050919050565b610eec61129d565b73ffffffffffffffffffffffffffffffffffffffff16610f0a610885565b73ffffffffffffffffffffffffffffffffffffffff1614610f6957610f2d61129d565b6040517f118cdaa7000000000000000000000000000000000000000000000000000000008152600401610f609190612086565b60405180910390fd5b565b5f610f74611846565b9050805f015f6101000a81549073ffffffffffffffffffffffffffffffffffffffff0219169055610fa48261186d565b5050565b5f5f610fb261193e565b90508091505090565b5f73ffffffffffffffffffffffffffffffffffffffff168173ffffffffffffffffffffffffffffffffffffffff160361102b57816040517f5a94a35a0000000000000000000000000000000000000000000000000000000081526004016110229190611d5c565b60405180910390fd5b5f73ffffffffffffffffffffffffffffffffffffffff1661104a6112a4565b5f018360405161105a919061286d565b90815260200160405180910390205f9054906101000a900473ffffffffffffffffffffffffffffffffffffffff1673ffffffffffffffffffffffffffffffffffffffff16146110e057816040517f5b56ea990000000000000000000000000000000000000000000000000000000081526004016110d79190611d5c565b60405180910390fd5b6110e86112a4565b60010182908060018154018082558091505060019003905f5260205f20015f90919091909150908161111a919061339d565b50806111246112a4565b5f0183604051611134919061286d565b90815260200160405180910390205f6101000a81548173ffffffffffffffffffffffffffffffffffffffff021916908373ffffffffffffffffffffffffffffffffffffffff1602179055505050565b8061118d9061346c565b9050806111986112a4565b600201836040516111a9919061286d565b9081526020016040518091039020819055505050565b60605f60016111cd84611967565b0190505f8167ffffffffffffffff8111156111eb576111ea611e98565b5b6040519080825280601f01601f19166020018201604052801561121d5781602001600182028036833780820191505090505b5090505f82602083010190505b60011561127e578080600190039150507f3031323334353637383961626364656600000000000000000000000000000000600a86061a8153600a8581611273576112726134b3565b5b0494505f850361122a575b819350505050919050565b611291611ab8565b61129a81611af8565b50565b5f33905090565b5f7fd90b97ccc3cb854254aeec1e5c25748ff7146358b68741074181b650621e5d00905090565b5f7f9016d09d72d40fdae2fd8ceac6b6234c7706214fd39c1cd1e609a0528c199300905090565b6112fa611bb3565b611302611be5565b61130a611be5565b5f60405180608001604052805f81526020015f8152602001848152602001838152509050855f815181106113415761134061259a565b5b6020026020010151815f018181525050856001815181106113655761136461259a565b5b60200260200101518160200181815250505f5f90505b858110156114295786816002611391919061276a565b815181106113a2576113a161259a565b5b6020026020010151826040015182600a81106113c1576113c061259a565b5b60200201818152505086818760026113d9919061276a565b6113e3919061276a565b815181106113f4576113f361259a565b5b6020026020010151826060015182600a81106114135761141261259a565b5b602002018181525050808060010191505061137b565b5080935050505092915050565b5f5f8360a001515f8151811061144f5761144e61259a565b5b6020026020010151604051611464919061286d565b90815260200160405180910390205490508083608001515111156114c4578260800151516040517f751a29b60000000000000000000000000000000000000000000000000000000081526004016114bb91906120b7565b60405180910390fd5b5f5f90505b83608001515181101561159b57826060015181600a81106114ed576114ec61259a565b5b6020020151846080015182815181106115095761150861259a565b5b60200260200101511461158e578360800151818151811061152d5761152c61259a565b5b6020026020010151836060015182600a811061154c5761154b61259a565b5b60200201516040517f583729590000000000000000000000000000000000000000000000000000000081526004016115859291906134e0565b60405180910390fd5b80806001019150506114c9565b50505050565b5f82036115da576040517f02698baf00000000000000000000000000000000000000000000000000000000815260040160405180910390fd5b5f8103611613576040517f1e5164f400000000000000000000000000000000000000000000000000000000815260040160405180910390fd5b5050565b60605f5f90505f5f90505b836020015151811015611671576010846020015182815181106116485761164761259a565b5b6020026020010151036116645781806116609061346c565b9250505b8080600101915050611622565b505f600190505f8282611684919061276a565b67ffffffffffffffff81111561169d5761169c611e98565b5b6040519080825280602002602001820160405280156116d657816020015b6116c3611c08565b8152602001906001900390816116bb5790505b50905060405180606001604052806040518060400160405280600681526020017f6c696e6b494400000000000000000000000000000000000000000000000000008152508152602001875f0151815260200160405180602001604052805f815250815250815f8151811061174d5761174c61259a565b5b60200260200101819052505f600190505f5f90505b866020015151811015611838576010876020015182815181106117885761178761259a565b5b60200260200101510361182b5760405180606001604052806117a9836111bf565b6040516020016117b9919061271c565b6040516020818303038152906040528152602001896040015183600a81106117e4576117e361259a565b5b6020020151815260200160405180602001604052805f81525081525083838061180c9061346c565b94508151811061181f5761181e61259a565b5b60200260200101819052505b8080600101915050611762565b508194505050505092915050565b5f7f237e158222e3e6968b72b9db0d8043aacf074ad9f650f0d1606b4d82ee432c00905090565b5f6118766112cb565b90505f815f015f9054906101000a900473ffffffffffffffffffffffffffffffffffffffff16905082825f015f6101000a81548173ffffffffffffffffffffffffffffffffffffffff021916908373ffffffffffffffffffffffffffffffffffffffff1602179055508273ffffffffffffffffffffffffffffffffffffffff168173ffffffffffffffffffffffffffffffffffffffff167f8be0079c531659141344cd1fd0a4f28419497f9722a3daafe3b4186f6b6457e060405160405180910390a3505050565b5f7ff0c57e16840df040f15088dc2f81fe391c3923bec73e23a9662efc9c229c6a005f1b905090565b5f5f5f90507a184f03e93ff9f4daa797ed6e38ed64bf6a1f01000000000000000083106119c3577a184f03e93ff9f4daa797ed6e38ed64bf6a1f01000000000000000083816119b9576119b86134b3565b5b0492506040810190505b6d04ee2d6d415b85acef81000000008310611a00576d04ee2d6d415b85acef810000000083816119f6576119f56134b3565b5b0492506020810190505b662386f26fc100008310611a2f57662386f26fc100008381611a2557611a246134b3565b5b0492506010810190505b6305f5e1008310611a58576305f5e1008381611a4e57611a4d6134b3565b5b0492506008810190505b6127108310611a7d576127108381611a7357611a726134b3565b5b0492506004810190505b60648310611aa05760648381611a9657611a956134b3565b5b0492506002810190505b600a8310611aaf576001810190505b80915050919050565b611ac0611b7c565b611af6576040517fd7e6bcf800000000000000000000000000000000000000000000000000000000815260040160405180910390fd5b565b611b00611ab8565b5f73ffffffffffffffffffffffffffffffffffffffff168173ffffffffffffffffffffffffffffffffffffffff1603611b70575f6040517f1e4fbdf7000000000000000000000000000000000000000000000000000000008152600401611b679190612086565b60405180910390fd5b611b7981610f6b565b50565b5f611b85610fa8565b5f0160089054906101000a900460ff16905090565b6040518060400160405280606081526020015f81525090565b60405180608001604052805f81526020015f8152602001611bd2611be5565b8152602001611bdf611be5565b81525090565b604051806101400160405280600a90602082028036833780820191505090505090565b6040518060600160405280606081526020015f8152602001606081525090565b5f604051905090565b5f5ffd5b5f5ffd5b5f7fffffffff0000000000000000000000000000000000000000000000000000000082169050919050565b611c6d81611c39565b8114611c77575f5ffd5b50565b5f81359050611c8881611c64565b92915050565b5f60208284031215611ca357611ca2611c31565b5b5f611cb084828501611c7a565b91505092915050565b5f8115159050919050565b611ccd81611cb9565b82525050565b5f602082019050611ce65f830184611cc4565b92915050565b5f81519050919050565b5f82825260208201905092915050565b8281835e5f83830152505050565b5f601f19601f8301169050919050565b5f611d2e82611cec565b611d388185611cf6565b9350611d48818560208601611d06565b611d5181611d14565b840191505092915050565b5f6020820190508181035f830152611d748184611d24565b905092915050565b5f5ffd5b5f5ffd5b5f5ffd5b5f5f83601f840112611d9d57611d9c611d7c565b5b8235905067ffffffffffffffff811115611dba57611db9611d80565b5b602083019150836020820283011115611dd657611dd5611d84565b5b9250929050565b5f73ffffffffffffffffffffffffffffffffffffffff82169050919050565b5f611e0682611ddd565b9050919050565b611e1681611dfc565b8114611e20575f5ffd5b50565b5f81359050611e3181611e0d565b92915050565b5f5f5f60408486031215611e4e57611e4d611c31565b5b5f84013567ffffffffffffffff811115611e6b57611e6a611c35565b5b611e7786828701611d88565b93509350506020611e8a86828701611e23565b9150509250925092565b5f5ffd5b7f4e487b71000000000000000000000000000000000000000000000000000000005f52604160045260245ffd5b611ece82611d14565b810181811067ffffffffffffffff82111715611eed57611eec611e98565b5b80604052505050565b5f611eff611c28565b9050611f0b8282611ec5565b919050565b5f67ffffffffffffffff821115611f2a57611f29611e98565b5b611f3382611d14565b9050602081019050919050565b828183375f83830152505050565b5f611f60611f5b84611f10565b611ef6565b905082815260208101848484011115611f7c57611f7b611e94565b5b611f87848285611f40565b509392505050565b5f82601f830112611fa357611fa2611d7c565b5b8135611fb3848260208601611f4e565b91505092915050565b5f60208284031215611fd157611fd0611c31565b5b5f82013567ffffffffffffffff811115611fee57611fed611c35565b5b611ffa84828501611f8f565b91505092915050565b5f819050919050565b5f61202661202161201c84611ddd565b612003565b611ddd565b9050919050565b5f6120378261200c565b9050919050565b5f6120488261202d565b9050919050565b6120588161203e565b82525050565b5f6020820190506120715f83018461204f565b92915050565b61208081611dfc565b82525050565b5f6020820190506120995f830184612077565b92915050565b5f819050919050565b6120b18161209f565b82525050565b5f6020820190506120ca5f8301846120a8565b92915050565b5f5f83601f8401126120e5576120e4611d7c565b5b8235905067ffffffffffffffff81111561210257612101611d80565b5b60208301915083600182028301111561211e5761211d611d84565b5b9250929050565b5f5f5f5f5f5f5f6080888a0312156121405761213f611c31565b5b5f61214d8a828b01611e23565b975050602088013567ffffffffffffffff81111561216e5761216d611c35565b5b61217a8a828b016120d0565b9650965050604088013567ffffffffffffffff81111561219d5761219c611c35565b5b6121a98a828b016120d0565b9450945050606088013567ffffffffffffffff8111156121cc576121cb611c35565b5b6121d88a828b016120d0565b925092505092959891949750929550565b5f81519050919050565b5f82825260208201905092915050565b5f819050602082019050919050565b5f82825260208201905092915050565b5f61222c82611cec565b6122368185612212565b9350612246818560208601611d06565b61224f81611d14565b840191505092915050565b6122638161209f565b82525050565b5f81519050919050565b5f82825260208201905092915050565b5f61228d82612269565b6122978185612273565b93506122a7818560208601611d06565b6122b081611d14565b840191505092915050565b5f606083015f8301518482035f8601526122d58282612222565b91505060208301516122ea602086018261225a565b50604083015184820360408601526123028282612283565b9150508091505092915050565b5f61231a83836122bb565b905092915050565b5f602082019050919050565b5f612338826121e9565b61234281856121f3565b93508360208202850161235485612203565b805f5b8581101561238f5784840389528151612370858261230f565b945061237b83612322565b925060208a01995050600181019050612357565b50829750879550505050505092915050565b5f6020820190508181035f8301526123b9818461232e565b905092915050565b5f5f5f604084860312156123d8576123d7611c31565b5b5f84013567ffffffffffffffff8111156123f5576123f4611c35565b5b612401868287016120d0565b9350935050602084013567ffffffffffffffff81111561242457612423611c35565b5b61243086828701611f8f565b9150509250925092565b5f604083015f8301518482035f8601526124548282612222565b9150506020830151612469602086018261225a565b508091505092915050565b5f6020820190508181035f83015261248c818461243a565b905092915050565b5f602082840312156124a9576124a8611c31565b5b5f6124b684828501611e23565b91505092915050565b5f81519050919050565b5f82825260208201905092915050565b5f819050602082019050919050565b5f6124f38383612222565b905092915050565b5f602082019050919050565b5f612511826124bf565b61251b81856124c9565b93508360208202850161252d856124d9565b805f5b85811015612568578484038952815161254985826124e8565b9450612554836124fb565b925060208a01995050600181019050612530565b50829750879550505050505092915050565b5f6020820190508181035f8301526125928184612507565b905092915050565b7f4e487b71000000000000000000000000000000000000000000000000000000005f52603260045260245ffd5b5f5ffd5b5f5ffd5b5f5ffd5b5f823560016060038336030381126125ee576125ed6125c7565b5b80830191505092915050565b5f5f83356001602003843603038112612616576126156125c7565b5b80840192508235915067ffffffffffffffff821115612638576126376125cb565b5b602083019250600182023603831315612654576126536125cf565b5b509250929050565b5f81905092915050565b5f612671838561265c565b935061267e838584611f40565b82840190509392505050565b5f612696828486612666565b91508190509392505050565b7f6f70657261746f724f75747075745f00000000000000000000000000000000005f82015250565b5f6126d6600f8361265c565b91506126e1826126a2565b600f82019050919050565b5f6126f682611cec565b612700818561265c565b9350612710818560208601611d06565b80840191505092915050565b5f612726826126ca565b915061273282846126ec565b915081905092915050565b7f4e487b71000000000000000000000000000000000000000000000000000000005f52601160045260245ffd5b5f6127748261209f565b915061277f8361209f565b92508282019050808211156127975761279661273d565b5b92915050565b7f636972637569745175657279486173685f0000000000000000000000000000005f82015250565b5f6127d160118361265c565b91506127dc8261279d565b601182019050919050565b5f6127f1826127c5565b91506127fd82846126ec565b915081905092915050565b5f819050919050565b5f67ffffffffffffffff82169050919050565b5f61283e61283961283484612808565b612003565b612811565b9050919050565b61284e81612824565b82525050565b5f6020820190506128675f830184612845565b92915050565b5f61287882846126ec565b915081905092915050565b5f61288d8261209f565b91505f820361289f5761289e61273d565b5b600182039050919050565b5f5ffd5b5f5ffd5b5f67ffffffffffffffff8211156128cc576128cb611e98565b5b602082029050602081019050919050565b6128e68161209f565b81146128f0575f5ffd5b50565b5f81359050612901816128dd565b92915050565b5f612919612914846128b2565b611ef6565b9050808382526020820190506020840283018581111561293c5761293b611d84565b5b835b81811015612965578061295188826128f3565b84526020840193505060208101905061293e565b5050509392505050565b5f82601f83011261298357612982611d7c565b5b8135612993848260208601612907565b91505092915050565b5f67ffffffffffffffff8211156129b6576129b5611e98565b5b602082029050602081019050919050565b5f6129d96129d48461299c565b611ef6565b905080838252602082019050602084028301858111156129fc576129fb611d84565b5b835b81811015612a4357803567ffffffffffffffff811115612a2157612a20611d7c565b5b808601612a2e898261296f565b855260208501945050506020810190506129fe565b5050509392505050565b5f82601f830112612a6157612a60611d7c565b5b8135612a718482602086016129c7565b91505092915050565b5f67ffffffffffffffff821115612a9457612a93611e98565b5b602082029050602081019050919050565b5f612ab7612ab284612a7a565b611ef6565b90508083825260208201905060208402830185811115612ada57612ad9611d84565b5b835b81811015612b2157803567ffffffffffffffff811115612aff57612afe611d7c565b5b808601612b0c8982611f8f565b85526020850194505050602081019050612adc565b5050509392505050565b5f82601f830112612b3f57612b3e611d7c565b5b8135612b4f848260208601612aa5565b91505092915050565b5f6101008284031215612b6e57612b6d6128aa565b5b612b79610100611ef6565b90505f82013567ffffffffffffffff811115612b9857612b976128ae565b5b612ba48482850161296f565b5f83015250602082013567ffffffffffffffff811115612bc757612bc66128ae565b5b612bd38482850161296f565b602083015250604082013567ffffffffffffffff811115612bf757612bf66128ae565b5b612c038482850161296f565b604083015250606082013567ffffffffffffffff811115612c2757612c266128ae565b5b612c3384828501612a4d565b606083015250608082013567ffffffffffffffff811115612c5757612c566128ae565b5b612c638482850161296f565b60808301525060a082013567ffffffffffffffff811115612c8757612c866128ae565b5b612c9384828501612b2b565b60a08301525060c0612ca7848285016128f3565b60c08301525060e0612cbb848285016128f3565b60e08301525092915050565b5f60208284031215612cdc57612cdb611c31565b5b5f82013567ffffffffffffffff811115612cf957612cf8611c35565b5b612d0584828501612b58565b91505092915050565b5f67ffffffffffffffff821115612d2857612d27611e98565b5b602082029050919050565b5f612d45612d4084612d0e565b611ef6565b90508060208402830185811115612d5f57612d5e611d84565b5b835b81811015612d885780612d7488826128f3565b845260208401935050602081019050612d61565b5050509392505050565b5f82601f830112612da657612da5611d7c565b5b6002612db3848285612d33565b91505092915050565b5f67ffffffffffffffff821115612dd657612dd5611e98565b5b602082029050919050565b5f612df3612dee84612dbc565b611ef6565b90508060408402830185811115612e0d57612e0c611d84565b5b835b81811015612e365780612e228882612d92565b845260208401935050604081019050612e0f565b5050509392505050565b5f82601f830112612e5457612e53611d7c565b5b6002612e61848285612de1565b91505092915050565b5f5f5f5f6101208587031215612e8357612e82611c31565b5b5f85013567ffffffffffffffff811115612ea057612e9f611c35565b5b612eac8782880161296f565b9450506020612ebd87828801612d92565b9350506060612ece87828801612e40565b92505060e0612edf87828801612d92565b91505092959194509250565b5f60029050919050565b5f81905092915050565b5f819050919050565b5f612f13838361225a565b60208301905092915050565b5f602082019050919050565b612f3481612eeb565b612f3e8184612ef5565b9250612f4982612eff565b805f5b83811015612f79578151612f608782612f08565b9650612f6b83612f1f565b925050600181019050612f4c565b505050505050565b5f60029050919050565b5f81905092915050565b5f819050919050565b5f81905092915050565b612fb181612eeb565b612fbb8184612f9e565b9250612fc682612eff565b805f5b83811015612ff6578151612fdd8782612f08565b9650612fe883612f1f565b925050600181019050612fc9565b505050505050565b5f6130098383612fa8565b60408301905092915050565b5f602082019050919050565b61302a81612f81565b6130348184612f8b565b925061303f82612f95565b805f5b8381101561306f5781516130568782612ffe565b965061306183613015565b925050600181019050613042565b505050505050565b5f81519050919050565b5f82825260208201905092915050565b5f819050602082019050919050565b5f602082019050919050565b5f6130b682613077565b6130c08185613081565b93506130cb83613091565b805f5b838110156130fb5781516130e28882612f08565b97506130ed836130a0565b9250506001810190506130ce565b5085935050505092915050565b5f6101208201905061311c5f830187612f2b565b6131296040830186613021565b61313660c0830185612f2b565b81810361010083015261314981846130ac565b905095945050505050565b61315d81611cb9565b8114613167575f5ffd5b50565b5f8151905061317881613154565b92915050565b5f6020828403121561319357613192611c31565b5b5f6131a08482850161316a565b91505092915050565b7f4e487b71000000000000000000000000000000000000000000000000000000005f52602260045260245ffd5b5f60028204905060018216806131ed57607f821691505b602082108103613200576131ff6131a9565b5b50919050565b5f819050815f5260205f209050919050565b5f6020601f8301049050919050565b5f82821b905092915050565b5f600883026132627fffffffffffffffffffffffffffffffffffffffffffffffffffffffffffffffff82613227565b61326c8683613227565b95508019841693508086168417925050509392505050565b5f61329e6132996132948461209f565b612003565b61209f565b9050919050565b5f819050919050565b6132b783613284565b6132cb6132c3826132a5565b848454613233565b825550505050565b5f5f905090565b6132e26132d3565b6132ed8184846132ae565b505050565b5b81811015613310576133055f826132da565b6001810190506132f3565b5050565b601f8211156133555761332681613206565b61332f84613218565b8101602085101561333e578190505b61335261334a85613218565b8301826132f2565b50505b505050565b5f82821c905092915050565b5f6133755f198460080261335a565b1980831691505092915050565b5f61338d8383613366565b9150826002028217905092915050565b6133a682611cec565b67ffffffffffffffff8111156133bf576133be611e98565b5b6133c982546131d6565b6133d4828285613314565b5f60209050601f831160018114613405575f84156133f3578287015190505b6133fd8582613382565b865550613464565b601f19841661341386613206565b5f5b8281101561343a57848901518255600182019150602085019450602081019050613415565b868310156134575784890151613453601f891682613366565b8355505b6001600288020188555050505b505050505050565b5f6134768261209f565b91507fffffffffffffffffffffffffffffffffffffffffffffffffffffffffffffffff82036134a8576134a761273d565b5b600182019050919050565b7f4e487b71000000000000000000000000000000000000000000000000000000005f52601260045260245ffd5b5f6040820190506134f35f8301856120a8565b61350060208301846120a8565b939250505056fea26469706673582212206adce0ad2e76f0530f4cedf0d53f5ce4445326172cc41724cd4763a8dd4a4fc464736f6c634300081b0033",
  "linkReferences": {},
  "deployedLinkReferences": {},
  "immutableReferences": {},
  "inputSourceName": "project/contracts/validators/request/LinkedMultiQueryStableValidator.sol",
  "buildInfoId": "solc-0_8_27-b671705d74a53b6b2fe696b87862a2c2c3d03377"
}