{
  "_format": "hh3-artifact-1",
  "contractName": "Groth16VerifierSigWrapper",
  "sourceName": "contracts/lib/groth16-verifiers/Groth16VerifierSigWrapper.sol",
  "abi": [
    {
      "inputs": [
        {
          "internalType": "uint256",
          "name": "expected",
          "type": "uint256"
        },
        {
          "internalType": "uint256",
          "name": "actual",
          "type": "uint256"
        }
      ],
      "name": "ExpectedArrayLength",
      "type": "error"
    },
    {
      "inputs": [
        {
          "internalType": "uint256[2]",
          "name": "a",
          "type": "uint256[2]"
        },
        {
          "internalType": "uint256[2][2]",
          "name": "b",
          "type": "uint256[2][2]"
        },
        {
          "internalType": "uint256[2]",
          "name": "c",
          "type": "uint256[2]"
        },
        {
          "internalType": "uint256[]",
          "name": "signals",
          "type": "uint256[]"
        }
      ],
      "name": "verify",
      "outputs": [
        {
          "internalType": "bool",
          "name": "r",
          "type": "bool"
        }
      ],
      "stateMutability": "view",
      "type": "function"
    },
    {
      "inputs": [
        {
          "internalType": "uint256[2]",
          "name": "_pA",
          "type": "uint256[2]"
        },
        {
          "internalType": "uint256[2][2]",
          "name": "_pB",
          "type": "uint256[2][2]"
        },
        {
          "internalType": "uint256[2]",
          "name": "_pC",
          "type": "uint256[2]"
        },
        {
          "internalType": "uint256[11]",
          "name": "_pubSignals",
          "type": "uint256[11]"
        }
      ],
      "name": "verifyProof",
      "outputs": [
        {
          "internalType": "bool",
          "name": "",
          "type": "bool"
        }
      ],
      "stateMutability": "view",
      "type": "function"
    }
  ],
  "bytecode": "0x6080604052348015600e575f5ffd5b50610e8c8061001c5f395ff3fe608060405234801561000f575f5ffd5b5060043610610034575f3560e01c80632612907c14610038578063b9c6ea8714610068575b5f5ffd5b610052600480360381019061004d9190610a9a565b610098565b60405161005f9190610b3a565b60405180910390f35b610082600480360381019061007d9190610b74565b6101cb565b60405161008f9190610b3a565b60405180910390f35b5f6100a16109cc565b600b84849050146100ef57600b848490506040517f4da7a8b70000000000000000000000000000000000000000000000000000000081526004016100e6929190610bf2565b60405180910390fd5b5f5f90505b600b811015610140578484828181106101105761010f610c19565b5b905060200201358282600b811061012a57610129610c19565b5b60200201818152505080806001019150506100f4565b503073ffffffffffffffffffffffffffffffffffffffff1663b9c6ea87888888856040518563ffffffff1660e01b81526004016101809493929190610dbc565b602060405180830381865afa15801561019b573d5f5f3e3d5ffd5b505050506040513d601f19601f820116820180604052508101906101bf9190610e2b565b91505095945050505050565b5f61090d565b7f30644e72e131a029b85045b68181585d97816a916871ca8d3c208c16d87cfd478110610200575f5f5260205ff35b50565b5f60405183815284602082015285604082015260408160608360076107d05a03fa915081610233575f5f5260205ff35b825160408201526020830151606082015260408360808360066107d05a03fa915081610261575f5f5260205ff35b505050505050565b5f608086015f87017f0992267e58f93dac7a7beb752274c98029cfc357435f878ea72b030d1085100a81527ea1152a41bb3aa4fbe1aa7882c2e2a8e1b6e968f077ff4af210d42e0d7072b560208201526103085f8801357f1622d9ce6cd690e847704358fe99032bcf337ba5c8f17181b36216c8a61b89b47f11788a050c473369bbac1d2e011ec3236dc2e426bf33950035d783539419e03b84610203565b61035860208801357f0b70d29ed3ae4b77ab974d5624d17cef7bc8a6c91d157a36637dbc85a311a5977f19dcba7a8a64168495e184fa3ce0be0d08ab53712d2bb51ebd016cab0679c89b84610203565b6103a860408801357f10412904e7135f93df873a768f47e26eaf7649cf526233820d4e705ee7cc81687f03d16811819c4ff82df949af146566ada7540c0e620d0a3a243927b0a4f6b0db84610203565b6103f860608801357f0a837cd8825cf5fa6feeb51b4b85f3c411db9db2df64da913a0fedc14d12d77d7f161628f234fb50ecce9c863ea7a616d4790276ed14f410062964ce932e77bf0684610203565b61044860808801357f10a808acd38d95f293e7595ac1d254314023fe5a4b417d46a457216250683b1a7f233e0ce24b641fa92543e2251944350e1ba373aff7a2f6296403855ba1163b2d84610203565b61049860a08801357f20cf4b8faf4cc3ddef5428e3ec7ac6ab8fac15d3a408ab9be92c7c3636959bff7f0c2d90736caddcdbe291f31a2543dd6edaa258a516960ffb9c3cea7e2da18d1584610203565b6104e860c08801357f24ea85494a29b0493f759cdecc86f90166567ba7fa3dfafc612441df821298707f2af675475a9a8c80732328cca338fdc7b0d082049982557e0e663a9fd85ce44484610203565b61053860e08801357f070d9dbbd07134b5bbee59c1d7f8e3d631430dd6394698fbba5f53384848bdf07f0da6d80e9f321df5ac17ec71cf7b1d5a7564f79b51be0c74bedb8c2266a4ba8e84610203565b6105896101008801357f1d6c48d0c956333d81951c4ec0240786f431aa7899010a6360bd50a063dd50977f2d23bb3f195568e6d21110df201b9520e2a0e49f433ac618afc3536ebef3adb884610203565b6105da6101208801357f105e3dd896cb03b12043762dce2f72ea2a58a985fea546ba5bbd115d0bef7aaa7f032eda83efb2182f8abd68311a50bd1c1acde67ab2959d45fbc26941639e5ad484610203565b61062b6101408801357f21ef8dfeae61f0040d207a37d86209217a484587294fcde52f50d2095167820f7f293ec4a0dd36216f02bcdc9c329cffaa450d2b5a44f55b61cabfc8300929a92a84610203565b833582527f30644e72e131a029b85045b68181585d97816a916871ca8d3c208c16d87cfd4760208501357f30644e72e131a029b85045b68181585d97816a916871ca8d3c208c16d87cfd4703066020830152843560408301526020850135606083015260408501356080830152606085013560a08301527f2d4d9aa7e302d9df41749d5507949d05dbea33fbb16c643b22f599a2be6df2e260c08301527f14bedd503c37ceb061d8ec60209fe345ce89830a19230301f076caff004d192660e08301527f0967032fcbf776d1afc985f88877f182d38480a653f2decaa9794cbc3bf3060c6101008301527f0e187847ad4c798374d0d6732bf501847dd68bc0e071241e0213bc7fc13db7ab6101208301527f304cfbd1e08a704a99f5e847d93f8c3caafddec46b7a0d379da69a4d112346a76101408301527f1739c1b1a457a8c7313123d24d2f9192f896b7c63eea05a9d57f06547ad0cec86101608301525f88015161018083015260205f018801516101a08301527f198e9393920d483a7260bfb731fb5d25f1aa493335a9e71297e485b7aef312c26101c08301527f1800deef121f1e76426a00665e5c4479674322d4f75edadd46debd5cd992f6ed6101e08301527f090689d0585ff075ec9e99ad690c3395bc4b313370b38ef355acdadcd122975b6102008301527f12c85ea5db8c6deb4aab71808dcb408fe3d1e7690c43d37b4ce6cc0166fa7daa610220830152853561024083015260208601356102608301527f1469e40d51ed9ca8f5677275a3111e52ef96f34c58c29d156f870870109074296102808301527f03c7e502253d6cfe7a9314775ac2d0fe4704763560fd70e78bec59fd4f6da94b6102a08301527f2b90580b4fd31c34ac334b8581fd0de1b6d8af80163ae34b60a5fc851797a24b6102c08301527f2a1bf8e0abf527ccfb58440a7364da4944f71aac2c9b5faa5c9a26f37034f2cc6102e08301526020826103008460086107d05a03fa82518116935050505095945050505050565b60405161038081016040526109245f8401356101d1565b61093160208401356101d1565b61093e60408401356101d1565b61094b60608401356101d1565b61095860808401356101d1565b61096560a08401356101d1565b61097260c08401356101d1565b61097f60e08401356101d1565b61098d6101008401356101d1565b61099b6101208401356101d1565b6109a96101408401356101d1565b6109b76101608401356101d1565b6109c4818486888a610269565b805f5260205ff35b604051806101600160405280600b90602082028036833780820191505090505090565b5f5ffd5b5f5ffd5b5f5ffd5b5f81905082602060020282011115610a1657610a156109f7565b5b92915050565b5f81905082604060020282011115610a3757610a366109f7565b5b92915050565b5f5ffd5b5f5ffd5b5f5f83601f840112610a5a57610a59610a3d565b5b8235905067ffffffffffffffff811115610a7757610a76610a41565b5b602083019150836020820283011115610a9357610a926109f7565b5b9250929050565b5f5f5f5f5f6101208688031215610ab457610ab36109ef565b5b5f610ac1888289016109fb565b9550506040610ad288828901610a1c565b94505060c0610ae3888289016109fb565b93505061010086013567ffffffffffffffff811115610b0557610b046109f3565b5b610b1188828901610a45565b92509250509295509295909350565b5f8115159050919050565b610b3481610b20565b82525050565b5f602082019050610b4d5f830184610b2b565b92915050565b5f819050826020600b0282011115610b6e57610b6d6109f7565b5b92915050565b5f5f5f5f6102608587031215610b8d57610b8c6109ef565b5b5f610b9a878288016109fb565b9450506040610bab87828801610a1c565b93505060c0610bbc878288016109fb565b925050610100610bce87828801610b53565b91505092959194509250565b5f819050919050565b610bec81610bda565b82525050565b5f604082019050610c055f830185610be3565b610c126020830184610be3565b9392505050565b7f4e487b71000000000000000000000000000000000000000000000000000000005f52603260045260245ffd5b82818337505050565b610c5b60408383610c46565b5050565b5f60029050919050565b5f81905092915050565b5f819050919050565b610c8860408383610c46565b5050565b5f610c978383610c7c565b60408301905092915050565b5f82905092915050565b5f604082019050919050565b610cc281610c5f565b610ccc8184610c69565b9250610cd782610c73565b805f5b83811015610d0f57610cec8284610ca3565b610cf68782610c8c565b9650610d0183610cad565b925050600181019050610cda565b505050505050565b5f600b9050919050565b5f81905092915050565b5f819050919050565b610d3d81610bda565b82525050565b5f610d4e8383610d34565b60208301905092915050565b5f602082019050919050565b610d6f81610d17565b610d798184610d21565b9250610d8482610d2b565b805f5b83811015610db4578151610d9b8782610d43565b9650610da683610d5a565b925050600181019050610d87565b505050505050565b5f61026082019050610dd05f830187610c4f565b610ddd6040830186610cb9565b610dea60c0830185610c4f565b610df8610100830184610d66565b95945050505050565b610e0a81610b20565b8114610e14575f5ffd5b50565b5f81519050610e2581610e01565b92915050565b5f60208284031215610e4057610e3f6109ef565b5b5f610e4d84828501610e17565b9150509291505056fea26469706673582212204943119de1d81c46e84056d2f3c10c968d0770c8d6895b14d126a92719dedfad64736f6c634300081b0033",
  "linkReferences": {},
  "deployedLinkReferences": {},
  "immutableReferences": {},
  "inputSourceName": "project/contracts/lib/groth16-verifiers/Groth16VerifierSigWrapper.sol",
  "buildInfoId": "solc-0_8_27-b671705d74a53b6b2fe696b87862a2c2c3d03377"
}