{
  "_format": "hh3-artifact-1",
  "contractName": "CredentialAtomicQueryV3StableValidator",
  "sourceName": "contracts/validators/request/CredentialAtomicQueryV3StableValidator.sol",
  "abi": [
    {
      "inputs": [],
      "name": "ChallengeShouldMatchTheSender",
      "type": "error"
    },
    {
      "inputs": [
        {
          "internalType": "uint256",
          "name": "length",
          "type": "uint256"
        }
      ],
      "name": "ChecksumLengthRequired",
      "type": "error"
    },
    {
      "inputs": [],
      "name": "CircuitsLengthShouldBeOne",
      "type": "error"
    },
    {
      "inputs": [],
      "name": "GeneratedProofIsOutdated",
      "type": "error"
    },
    {
      "inputs": [],
      "name": "GistRootIsExpired",
      "type": "error"
    },
    {
      "inputs": [
        {
          "internalType": "uint256",
          "name": "input",
          "type": "uint256"
        }
      ],
      "name": "GivenInputNotAnAddressRepresentation",
      "type": "error"
    },
    {
      "inputs": [
        {
          "internalType": "string",
          "name": "circuitId",
          "type": "string"
        }
      ],
      "name": "Groth16VerifierAddressIsZero",
      "type": "error"
    },
    {
      "inputs": [
        {
          "internalType": "string",
          "name": "circuitId",
          "type": "string"
        }
      ],
      "name": "Groth16VerifierAlreadySet",
      "type": "error"
    },
    {
      "inputs": [
        {
          "internalType": "uint256",
          "name": "length",
          "type": "uint256"
        }
      ],
      "name": "IdBytesLengthRequired",
      "type": "error"
    },
    {
      "inputs": [],
      "name": "InputNameNotFound",
      "type": "error"
    },
    {
      "inputs": [
        {
          "internalType": "uint256",
          "name": "groupID",
          "type": "uint256"
        },
        {
          "internalType": "uint256",
          "name": "linkID",
          "type": "uint256"
        }
      ],
      "name": "InvalidGroupIDOrLinkID",
      "type": "error"
    },
    {
      "inputs": [],
      "name": "InvalidInitialization",
      "type": "error"
    },
    {
      "inputs": [],
      "name": "InvalidNullifyPubSignal",
      "type": "error"
    },
    {
      "inputs": [],
      "name": "IssuerIsNotOnTheAllowedIssuersList",
      "type": "error"
    },
    {
      "inputs": [],
      "name": "NonRevocationStateOfIssuerIsExpired",
      "type": "error"
    },
    {
      "inputs": [],
      "name": "NotInitializing",
      "type": "error"
    },
    {
      "inputs": [
        {
          "internalType": "address",
          "name": "owner",
          "type": "address"
        }
      ],
      "name": "OwnableInvalidOwner",
      "type": "error"
    },
    {
      "inputs": [
        {
          "internalType": "address",
          "name": "account",
          "type": "address"
        }
      ],
      "name": "OwnableUnauthorizedAccount",
      "type": "error"
    },
    {
      "inputs": [],
      "name": "ProofGeneratedInTheFutureIsNotValid",
      "type": "error"
    },
    {
      "inputs": [],
      "name": "ProofIsNotValid",
      "type": "error"
    },
    {
      "inputs": [],
      "name": "ProofTypeShouldMatchTheRequestedOneInQuery",
      "type": "error"
    },
    {
      "inputs": [
        {
          "internalType": "uint256",
          "name": "expected",
          "type": "uint256"
        },
        {
          "internalType": "uint256",
          "name": "actual",
          "type": "uint256"
        }
      ],
      "name": "QueryHashDoesNotMatchTheRequestedOne",
      "type": "error"
    },
    {
      "inputs": [],
      "name": "RequestParamNameNotFound",
      "type": "error"
    },
    {
      "inputs": [],
      "name": "UserIDDoesNotCorrespondToTheSender",
      "type": "error"
    },
    {
      "inputs": [],
      "name": "VerifierAddressShouldNotBeZero",
      "type": "error"
    },
    {
      "inputs": [],
      "name": "VerifierAddressesAndCircuitIDsMismatch",
      "type": "error"
    },
    {
      "anonymous": false,
      "inputs": [
        {
          "indexed": false,
          "internalType": "uint64",
          "name": "version",
          "type": "uint64"
        }
      ],
      "name": "Initialized",
      "type": "event"
    },
    {
      "anonymous": false,
      "inputs": [
        {
          "indexed": true,
          "internalType": "address",
          "name": "previousOwner",
          "type": "address"
        },
        {
          "indexed": true,
          "internalType": "address",
          "name": "newOwner",
          "type": "address"
        }
      ],
      "name": "OwnershipTransferStarted",
      "type": "event"
    },
    {
      "anonymous": false,
      "inputs": [
        {
          "indexed": true,
          "internalType": "address",
          "name": "previousOwner",
          "type": "address"
        },
        {
          "indexed": true,
          "internalType": "address",
          "name": "newOwner",
          "type": "address"
        }
      ],
      "name": "OwnershipTransferred",
      "type": "event"
    },
    {
      "inputs": [],
      "name": "VERSION",
      "outputs": [
        {
          "internalType": "string",
          "name": "",
          "type": "string"
        }
      ],
      "stateMutability": "view",
      "type": "function"
    },
    {
      "inputs": [],
      "name": "acceptOwnership",
      "outputs": [],
      "stateMutability": "nonpayable",
      "type": "function"
    },
    {
      "inputs": [],
      "name": "getGISTRootExpirationTimeout",
      "outputs": [
        {
          "internalType": "uint256",
          "name": "",
          "type": "uint256"
        }
      ],
      "stateMutability": "view",
      "type": "function"
    },
    {
      "inputs": [],
      "name": "getProofExpirationTimeout",
      "outputs": [
        {
          "internalType": "uint256",
          "name": "",
          "type": "uint256"
        }
      ],
      "stateMutability": "view",
      "type": "function"
    },
    {
      "inputs": [
        {
          "internalType": "bytes",
          "name": "params",
          "type": "bytes"
        },
        {
          "internalType": "string",
          "name": "paramName",
          "type": "string"
        }
      ],
      "name": "getRequestParam",
      "outputs": [
        {
          "components": [
            {
              "internalType": "string",
              "name": "name",
              "type": "string"
            },
            {
              "internalType": "uint256",
              "name": "value",
              "type": "uint256"
            }
          ],
          "internalType": "struct IRequestValidator.RequestParam",
          "name": "",
          "type": "tuple"
        }
      ],
      "stateMutability": "pure",
      "type": "function"
    },
    {
      "inputs": [],
      "name": "getRevocationStateExpirationTimeout",
      "outputs": [
        {
          "internalType": "uint256",
          "name": "",
          "type": "uint256"
        }
      ],
      "stateMutability": "view",
      "type": "function"
    },
    {
      "inputs": [],
      "name": "getStateAddress",
      "outputs": [
        {
          "internalType": "address",
          "name": "",
          "type": "address"
        }
      ],
      "stateMutability": "view",
      "type": "function"
    },
    {
      "inputs": [],
      "name": "getSupportedCircuitIds",
      "outputs": [
        {
          "internalType": "string[]",
          "name": "ids",
          "type": "string[]"
        }
      ],
      "stateMutability": "view",
      "type": "function"
    },
    {
      "inputs": [
        {
          "internalType": "string",
          "name": "circuitId",
          "type": "string"
        }
      ],
      "name": "getVerifierByCircuitId",
      "outputs": [
        {
          "internalType": "contract IGroth16Verifier",
          "name": "",
          "type": "address"
        }
      ],
      "stateMutability": "view",
      "type": "function"
    },
    {
      "inputs": [
        {
          "internalType": "address",
          "name": "stateContractAddr",
          "type": "address"
        },
        {
          "internalType": "address[]",
          "name": "verifierContractAddresses",
          "type": "address[]"
        },
        {
          "internalType": "string[]",
          "name": "circuitIds",
          "type": "string[]"
        },
        {
          "internalType": "address",
          "name": "owner",
          "type": "address"
        }
      ],
      "name": "initialize",
      "outputs": [],
      "stateMutability": "nonpayable",
      "type": "function"
    },
    {
      "inputs": [
        {
          "internalType": "string",
          "name": "name",
          "type": "string"
        }
      ],
      "name": "inputIndexOf",
      "outputs": [
        {
          "internalType": "uint256",
          "name": "",
          "type": "uint256"
        }
      ],
      "stateMutability": "view",
      "type": "function"
    },
    {
      "inputs": [],
      "name": "owner",
      "outputs": [
        {
          "internalType": "address",
          "name": "",
          "type": "address"
        }
      ],
      "stateMutability": "view",
      "type": "function"
    },
    {
      "inputs": [
        {
          "internalType": "uint256[]",
          "name": "inputs",
          "type": "uint256[]"
        }
      ],
      "name": "parsePubSignals",
      "outputs": [
        {
          "components": [
            {
              "internalType": "uint256",
              "name": "linkID",
              "type": "uint256"
            },
            {
              "internalType": "uint256",
              "name": "nullifier",
              "type": "uint256"
            },
            {
              "internalType": "uint256",
              "name": "operatorOutput",
              "type": "uint256"
            },
            {
              "internalType": "uint256",
              "name": "proofType",
              "type": "uint256"
            },
            {
              "internalType": "uint256",
              "name": "isBJJAuthEnabled",
              "type": "uint256"
            },
            {
              "internalType": "uint256",
              "name": "userID",
              "type": "uint256"
            },
            {
              "internalType": "uint256",
              "name": "issuerState",
              "type": "uint256"
            },
            {
              "internalType": "uint256",
              "name": "circuitQueryHash",
              "type": "uint256"
            },
            {
              "internalType": "uint256",
              "name": "requestID",
              "type": "uint256"
            },
            {
              "internalType": "uint256",
              "name": "challenge",
              "type": "uint256"
            },
            {
              "internalType": "uint256",
              "name": "gistRoot",
              "type": "uint256"
            },
            {
              "internalType": "uint256",
              "name": "issuerID",
              "type": "uint256"
            },
            {
              "internalType": "uint256",
              "name": "issuerClaimNonRevState",
              "type": "uint256"
            },
            {
              "internalType": "uint256",
              "name": "timestamp",
              "type": "uint256"
            }
          ],
          "internalType": "struct CredentialAtomicQueryV3StableValidator.PubSignals",
          "name": "",
          "type": "tuple"
        }
      ],
      "stateMutability": "pure",
      "type": "function"
    },
    {
      "inputs": [],
      "name": "pendingOwner",
      "outputs": [
        {
          "internalType": "address",
          "name": "",
          "type": "address"
        }
      ],
      "stateMutability": "view",
      "type": "function"
    },
    {
      "inputs": [],
      "name": "renounceOwnership",
      "outputs": [],
      "stateMutability": "nonpayable",
      "type": "function"
    },
    {
      "inputs": [
        {
          "internalType": "uint256",
          "name": "expirationTimeout",
          "type": "uint256"
        }
      ],
      "name": "setGISTRootExpirationTimeout",
      "outputs": [],
      "stateMutability": "nonpayable",
      "type": "function"
    },
    {
      "inputs": [
        {
          "internalType": "uint256",
          "name": "expirationTimeout",
          "type": "uint256"
        }
      ],
      "name": "setProofExpirationTimeout",
      "outputs": [],
      "stateMutability": "nonpayable",
      "type": "function"
    },
    {
      "inputs": [
        {
          "internalType": "uint256",
          "name": "expirationTimeout",
          "type": "uint256"
        }
      ],
      "name": "setRevocationStateExpirationTimeout",
      "outputs": [],
      "stateMutability": "nonpayable",
      "type": "function"
    },
    {
      "inputs": [
        {
          "internalType": "address",
          "name": "stateContractAddr",
          "type": "address"
        }
      ],
      "name": "setStateAddress",
      "outputs": [],
      "stateMutability": "nonpayable",
      "type": "function"
    },
    {
      "inputs": [
        {
          "internalType": "bytes4",
          "name": "interfaceId",
          "type": "bytes4"
        }
      ],
      "name": "supportsInterface",
      "outputs": [
        {
          "internalType": "bool",
          "name": "",
          "type": "bool"
        }
      ],
      "stateMutability": "view",
      "type": "function"
    },
    {
      "inputs": [
        {
          "internalType": "address",
          "name": "newOwner",
          "type": "address"
        }
      ],
      "name": "transferOwnership",
      "outputs": [],
      "stateMutability": "nonpayable",
      "type": "function"
    },
    {
      "inputs": [
        {
          "internalType": "address",
          "name": "sender",
          "type": "address"
        },
        {
          "internalType": "bytes",
          "name": "proof",
          "type": "bytes"
        },
        {
          "internalType": "bytes",
          "name": "requestParams",
          "type": "bytes"
        },
        {
          "internalType": "bytes",
          "name": "responseMetadata",
          "type": "bytes"
        }
      ],
      "name": "verify",
      "outputs": [
        {
          "components": [
            {
              "internalType": "string",
              "name": "name",
              "type": "string"
            },
            {
              "internalType": "uint256",
              "name": "value",
              "type": "uint256"
            },
            {
              "internalType": "bytes",
              "name": "rawValue",
              "type": "bytes"
            }
          ],
          "internalType": "struct IRequestValidator.ResponseField[]",
          "name": "",
          "type": "tuple[]"
        }
      ],
      "stateMutability": "view",
      "type": "function"
    },
    {
      "inputs": [],
      "name": "version",
      "outputs": [
        {
          "internalType": "string",
          "name": "",
          "type": "string"
        }
      ],
      "stateMutability": "pure",
      "type": "function"
    }
  ],
  "bytecode": "0x608060405234801561000f575f5ffd5b5061001e61002360201b60201c565b61019e565b5f61003261012160201b60201c565b9050805f0160089054906101000a900460ff161561007c576040517ff92ee8a900000000000000000000000000000000000000000000000000000000815260040160405180910390fd5b67ffffffffffffffff8016815f015f9054906101000a900467ffffffffffffffff1667ffffffffffffffff161461011e5767ffffffffffffffff815f015f6101000a81548167ffffffffffffffff021916908367ffffffffffffffff1602179055507fc7f505b2f371ae2175ee4913f4499e1f2633a7b5936321eed1cdaeb6115181d267ffffffffffffffff6040516101159190610185565b60405180910390a15b50565b5f5f61013161013a60201b60201c565b90508091505090565b5f7ff0c57e16840df040f15088dc2f81fe391c3923bec73e23a9662efc9c229c6a005f1b905090565b5f67ffffffffffffffff82169050919050565b61017f81610163565b82525050565b5f6020820190506101985f830184610176565b92915050565b6149e9806101ab5f395ff3fe608060405234801561000f575f5ffd5b506004361061014b575f3560e01c80638da5cb5b116100c1578063e30c39781161007a578063e30c397814610363578063ed4b50a814610381578063f2fde38b146103b1578063f718c586146103cd578063fb5af2a2146103fd578063ffa1ad741461041b5761014b565b80638da5cb5b1461028d578063af4c4fd5146102ab578063b16a394f146102c9578063ba47e32a146102f9578063c528a7ba14610317578063d9f9eb9a146103335761014b565b806354fd4d501161011357806354fd4d50146101f1578063652377dc1461020f578063715018a61461022b57806379ba5097146102355780638c752c751461023f5780638c9527481461025d5761014b565b806301ffc9a71461014f5780631134b4801461017f5780631c4c7fd81461019b57806331969e57146101b757806348d36920146101d5575b5f5ffd5b61016960048036038101906101649190612d48565b610439565b6040516101769190612d8d565b60405180910390f35b61019960048036038101906101949190612dd9565b6104b2565b005b6101b560048036038101906101b09190612e5e565b6104cd565b005b6101bf610520565b6040516101cc9190612e98565b60405180910390f35b6101ef60048036038101906101ea9190612dd9565b610550565b005b6101f961056b565b6040516102069190612f21565b60405180910390f35b61022960048036038101906102249190612dd9565b6105a8565b005b6102336105c3565b005b61023d6105d6565b005b610247610664565b6040516102549190612f50565b60405180910390f35b61027760048036038101906102729190613095565b610676565b6040516102849190613137565b60405180910390f35b6102956106c4565b6040516102a29190612e98565b60405180910390f35b6102b36106f9565b6040516102c09190612f50565b60405180910390f35b6102e360048036038101906102de9190613095565b61070b565b6040516102f09190612f50565b60405180910390f35b610301610785565b60405161030e9190612f50565b60405180910390f35b610331600480360381019061032c9190613202565b610797565b005b61034d600480360381019061034891906132fa565b610ceb565b60405161035a9190613576565b60405180910390f35b61036b610d24565b6040516103789190612e98565b60405180910390f35b61039b60048036038101906103969190613596565b610d59565b6040516103a89190613649565b60405180910390f35b6103cb60048036038101906103c69190612e5e565b610ea2565b005b6103e760048036038101906103e29190613729565b610f5b565b6040516103f4919061388e565b60405180910390f35b610405611146565b6040516104129190613963565b60405180910390f35b610423611223565b6040516104309190612f21565b60405180910390f35b5f7fd125cf2d000000000000000000000000000000000000000000000000000000007bffffffffffffffffffffffffffffffffffffffffffffffffffffffff1916827bffffffffffffffffffffffffffffffffffffffffffffffffffffffff191614806104ab57506104aa8261125c565b5b9050919050565b6104ba6112c5565b806104c361134c565b6003018190555050565b6104d56112c5565b806104de61134c565b5f015f6101000a81548173ffffffffffffffffffffffffffffffffffffffff021916908373ffffffffffffffffffffffffffffffffffffffff16021790555050565b5f61052961134c565b5f015f9054906101000a900473ffffffffffffffffffffffffffffffffffffffff16905090565b6105586112c5565b8061056161134c565b6002018190555050565b60606040518060400160405280600581526020017f312e302e30000000000000000000000000000000000000000000000000000000815250905090565b6105b06112c5565b806105b961134c565b6001018190555050565b6105cb6112c5565b6105d45f611373565b565b5f6105df6113b0565b90508073ffffffffffffffffffffffffffffffffffffffff16610600610d24565b73ffffffffffffffffffffffffffffffffffffffff161461065857806040517f118cdaa700000000000000000000000000000000000000000000000000000000815260040161064f9190612e98565b60405180910390fd5b61066181611373565b50565b5f61066d61134c565b60030154905090565b5f61067f6113b7565b5f018260405161068f91906139bd565b90815260200160405180910390205f9054906101000a900473ffffffffffffffffffffffffffffffffffffffff169050919050565b5f5f6106ce6113de565b9050805f015f9054906101000a900473ffffffffffffffffffffffffffffffffffffffff1691505090565b5f61070261134c565b60010154905090565b5f5f6107156113b7565b6002018360405161072691906139bd565b90815260200160405180910390205490505f8103610770576040517f59a674c000000000000000000000000000000000000000000000000000000000815260040160405180910390fd5b8061077a90613a00565b905080915050919050565b5f61078e61134c565b60020154905090565b5f6107a0611405565b90505f815f0160089054906101000a900460ff161590505f825f015f9054906101000a900467ffffffffffffffff1690505f5f8267ffffffffffffffff161480156107e85750825b90505f60018367ffffffffffffffff1614801561081b57505f3073ffffffffffffffffffffffffffffffffffffffff163b145b905081158015610829575080155b15610860576040517ff92ee8a900000000000000000000000000000000000000000000000000000000815260040160405180910390fd5b6001855f015f6101000a81548167ffffffffffffffff021916908367ffffffffffffffff16021790555083156108ad576001855f0160086101000a81548160ff0219169083151502179055505b6108ec6040518060400160405280600681526020017f75736572494400000000000000000000000000000000000000000000000000008152505f611418565b61092c6040518060400160405280601081526020017f63697263756974517565727948617368000000000000000000000000000000008152506001611418565b61096c6040518060400160405280600b81526020017f69737375657253746174650000000000000000000000000000000000000000008152506002611418565b6109ac6040518060400160405280600681526020017f6c696e6b494400000000000000000000000000000000000000000000000000008152506003611418565b6109ec6040518060400160405280600981526020017f6e756c6c696669657200000000000000000000000000000000000000000000008152506004611418565b610a2c6040518060400160405280600e81526020017f6f70657261746f724f75747075740000000000000000000000000000000000008152506005611418565b610a6c6040518060400160405280600981526020017f70726f6f665479706500000000000000000000000000000000000000000000008152506006611418565b610aac6040518060400160405280600981526020017f72657175657374494400000000000000000000000000000000000000000000008152506007611418565b610aec6040518060400160405280600981526020017f6368616c6c656e676500000000000000000000000000000000000000000000008152506008611418565b610b2c6040518060400160405280600881526020017f67697374526f6f740000000000000000000000000000000000000000000000008152506009611418565b610b6c6040518060400160405280600881526020017f6973737565724944000000000000000000000000000000000000000000000000815250600a611418565b610bac6040518060400160405280601681526020017f697373756572436c61696d4e6f6e526576537461746500000000000000000000815250600b611418565b610bec6040518060400160405280600981526020017f74696d657374616d700000000000000000000000000000000000000000000000815250600c611418565b610c2c6040518060400160405280601081526020017f6973424a4a41757468456e61626c656400000000000000000000000000000000815250600d611418565b610c848b8b8b808060200260200160405190810160405280939291908181526020018383602002808284375f81840152601f19601f820116905080830192505050505050508a8a90610c7e9190613ad8565b89611454565b8315610cde575f855f0160086101000a81548160ff0219169083151502179055507fc7f505b2f371ae2175ee4913f4499e1f2633a7b5936321eed1cdaeb6115181d26001604051610cd59190613b38565b60405180910390a15b5050505050505050505050565b60605f8585810190610cfd9190613d39565b9050610d1681610d108a8a858989611566565b8b611719565b915050979650505050505050565b5f5f610d2e61184d565b9050805f015f9054906101000a900473ffffffffffffffffffffffffffffffffffffffff1691505090565b610d61612c48565b5f8484810190610d719190613d39565b90507fdab5ca4f3738dce0cd25851a4aa9160ebdfb1678ef20ca14c9a3e9217058455a5f1b838051906020012003610dc5576040518060400160405280848152602001826101200151815250915050610e9b565b7fa6ade9d39b76f319076fc4ad150ee37167dd21433b39e1d533a5d6b635762abe5f1b838051906020012003610e17576040518060400160405280848152602001826101800151815250915050610e9b565b7f24cea8e4716dcdf091e4abcbd3ea617d9a5dd308b90afb5da0d75e56b3c0bc955f1b838051906020012003610e69576040518060400160405280848152602001826101400151815250915050610e9b565b6040517f53bebd1b00000000000000000000000000000000000000000000000000000000815260040160405180910390fd5b9392505050565b610eaa6112c5565b5f610eb361184d565b905081815f015f6101000a81548173ffffffffffffffffffffffffffffffffffffffff021916908373ffffffffffffffffffffffffffffffffffffffff1602179055508173ffffffffffffffffffffffffffffffffffffffff16610f156106c4565b73ffffffffffffffffffffffffffffffffffffffff167f38d16b8cac22d99fc7c124b9cd0de2d3fa1faef420bfe791d8c362d765e2270060405160405180910390a35050565b610f63612c61565b5f604051806101c0016040528084600381518110610f8457610f83613d80565b5b6020026020010151815260200184600481518110610fa557610fa4613d80565b5b6020026020010151815260200184600581518110610fc657610fc5613d80565b5b6020026020010151815260200184600681518110610fe757610fe6613d80565b5b6020026020010151815260200184600d8151811061100857611007613d80565b5b60200260200101518152602001845f8151811061102857611027613d80565b5b602002602001015181526020018460028151811061104957611048613d80565b5b602002602001015181526020018460018151811061106a57611069613d80565b5b602002602001015181526020018460078151811061108b5761108a613d80565b5b60200260200101518152602001846008815181106110ac576110ab613d80565b5b60200260200101518152602001846009815181106110cd576110cc613d80565b5b6020026020010151815260200184600a815181106110ee576110ed613d80565b5b6020026020010151815260200184600b8151811061110f5761110e613d80565b5b6020026020010151815260200184600c815181106111305761112f613d80565b5b6020026020010151815250905080915050919050565b60606111506113b7565b600101805480602002602001604051908101604052809291908181526020015f905b8282101561121a578382905f5260205f2001805461118f90613dda565b80601f01602080910402602001604051908101604052809291908181526020018280546111bb90613dda565b80156112065780601f106111dd57610100808354040283529160200191611206565b820191905f5260205f20905b8154815290600101906020018083116111e957829003601f168201915b505050505081526020019060010190611172565b50505050905090565b6040518060400160405280600581526020017f312e302e3000000000000000000000000000000000000000000000000000000081525081565b5f7f01ffc9a7000000000000000000000000000000000000000000000000000000007bffffffffffffffffffffffffffffffffffffffffffffffffffffffff1916827bffffffffffffffffffffffffffffffffffffffffffffffffffffffff1916149050919050565b6112cd6113b0565b73ffffffffffffffffffffffffffffffffffffffff166112eb6106c4565b73ffffffffffffffffffffffffffffffffffffffff161461134a5761130e6113b0565b6040517f118cdaa70000000000000000000000000000000000000000000000000000000081526004016113419190612e98565b60405180910390fd5b565b5f7f28c92975a30f1f2f7970a65953987652034d896ba2d3b7a4961ada9e18287500905090565b5f61137c61184d565b9050805f015f6101000a81549073ffffffffffffffffffffffffffffffffffffffff02191690556113ac82611874565b5050565b5f33905090565b5f7fd90b97ccc3cb854254aeec1e5c25748ff7146358b68741074181b650621e5d00905090565b5f7f9016d09d72d40fdae2fd8ceac6b6234c7706214fd39c1cd1e609a0528c199300905090565b5f5f61140f611945565b90508091505090565b8061142290613e0a565b90508061142d6113b7565b6002018360405161143e91906139bd565b9081526020016040518091039020819055505050565b815183511461148f576040517f3b26697a00000000000000000000000000000000000000000000000000000000815260040160405180910390fd5b5f61149861134c565b9050610e108160010181905550610e108160020181905550610e10816003018190555084815f015f6101000a81548173ffffffffffffffffffffffffffffffffffffffff021916908373ffffffffffffffffffffffffffffffffffffffff1602179055505f5f90505b8351811015611555576115488482815181106115205761151f613d80565b5b602002602001015186838151811061153b5761153a613d80565b5b602002602001015161196e565b8080600101915050611501565b5061155f82611b36565b5050505050565b61156e612c61565b60018460e0015151146115ad576040517fdda7f5f800000000000000000000000000000000000000000000000000000000815260040160405180910390fd5b5f5f5f5f89898101906115c09190613fad565b93509350935093505f87878101906115d89190613095565b90505f6115e482610676565b90505f73ffffffffffffffffffffffffffffffffffffffff168173ffffffffffffffffffffffffffffffffffffffff160361164b576040517f01924e0400000000000000000000000000000000000000000000000000000000815260040160405180910390fd5b8073ffffffffffffffffffffffffffffffffffffffff16632612907c8686868a6040518563ffffffff1660e01b815260040161168a949392919061424b565b602060405180830381865afa1580156116a5573d5f5f3e3d5ffd5b505050506040513d601f19601f820116820180604052508101906116c991906142ab565b6116ff576040517f39c40f4f00000000000000000000000000000000000000000000000000000000815260040160405180910390fd5b61170886610f5b565b965050505050505095945050505050565b606061172e8361016001518560c00151611b4a565b61173c836101a00151611bcc565b61174e846101200151845f0151611c66565b6117618461016001518460600151611ccf565b6117748360200151856101400151611d1a565b6117878361016001518460c00151611d64565b61179b836101600151846101800151611dea565b60018360800151036117bf576117ba8360a00151846101400151611ed4565b6117ce565b6117cd8360a0015183611fe6565b5b6117dd83610120015183612034565b8360a001518360e0015114611833578360a001518360e001516040517f63b31ad000000000000000000000000000000000000000000000000000000000815260040161182a9291906142d6565b60405180910390fd5b6118448360108660400151146120a5565b90509392505050565b5f7f237e158222e3e6968b72b9db0d8043aacf074ad9f650f0d1606b4d82ee432c00905090565b5f61187d6113de565b90505f815f015f9054906101000a900473ffffffffffffffffffffffffffffffffffffffff16905082825f015f6101000a81548173ffffffffffffffffffffffffffffffffffffffff021916908373ffffffffffffffffffffffffffffffffffffffff1602179055508273ffffffffffffffffffffffffffffffffffffffff168173ffffffffffffffffffffffffffffffffffffffff167f8be0079c531659141344cd1fd0a4f28419497f9722a3daafe3b4186f6b6457e060405160405180910390a3505050565b5f7ff0c57e16840df040f15088dc2f81fe391c3923bec73e23a9662efc9c229c6a005f1b905090565b5f73ffffffffffffffffffffffffffffffffffffffff168173ffffffffffffffffffffffffffffffffffffffff16036119de57816040517f5a94a35a0000000000000000000000000000000000000000000000000000000081526004016119d59190612f21565b60405180910390fd5b5f73ffffffffffffffffffffffffffffffffffffffff166119fd6113b7565b5f0183604051611a0d91906139bd565b90815260200160405180910390205f9054906101000a900473ffffffffffffffffffffffffffffffffffffffff1673ffffffffffffffffffffffffffffffffffffffff1614611a9357816040517f5b56ea99000000000000000000000000000000000000000000000000000000008152600401611a8a9190612f21565b60405180910390fd5b611a9b6113b7565b60010182908060018154018082558091505060019003905f5260205f20015f909190919091509081611acd9190614494565b5080611ad76113b7565b5f0183604051611ae791906139bd565b90815260200160405180910390205f6101000a81548173ffffffffffffffffffffffffffffffffffffffff021916908373ffffffffffffffffffffffffffffffffffffffff1602179055505050565b611b3e6124fc565b611b478161253c565b50565b5f81510315611bc8575f5f90505b8151811015611b9557818181518110611b7457611b73613d80565b5b60200260200101518303611b885750611bc8565b8080600101915050611b58565b506040517f2ea0be4500000000000000000000000000000000000000000000000000000000815260040160405180910390fd5b5050565b61012c42611bda9190614563565b811115611c13576040517ff163e34200000000000000000000000000000000000000000000000000000000815260040160405180910390fd5b80611c1c61134c565b60020154611c2a9190614563565b421115611c63576040517f380a0ae700000000000000000000000000000000000000000000000000000000815260040160405180910390fd5b50565b5f82148015611c7457505f81145b611ccb575f8214158015611c8857505f8114155b611ccb5781816040517fd4038e02000000000000000000000000000000000000000000000000000000008152600401611cc29291906142d6565b60405180910390fd5b5050565b5f8214158015611cdf5750808214155b15611d16576040517fad17992200000000000000000000000000000000000000000000000000000000815260040160405180910390fd5b5050565b5f8114158015611d2957505f82145b15611d60576040517fed2f72f900000000000000000000000000000000000000000000000000000000815260040160405180910390fd5b5050565b611d6c6125c0565b73ffffffffffffffffffffffffffffffffffffffff166309478aa483836040518363ffffffff1660e01b8152600401611da69291906142d6565b602060405180830381865afa158015611dc1573d5f5f3e3d5ffd5b505050506040513d601f19601f82011682018060405250810190611de591906145aa565b505050565b5f611df361134c565b90505f611dfe6125c0565b73ffffffffffffffffffffffffffffffffffffffff166309478aa485856040518363ffffffff1660e01b8152600401611e389291906142d6565b602060405180830381865afa158015611e53573d5f5f3e3d5ffd5b505050506040513d601f19601f82011682018060405250810190611e7791906145aa565b90505f8114158015611e975750808260010154611e949190614563565b42115b15611ece576040517fd80f392600000000000000000000000000000000000000000000000000000000815260040160405180910390fd5b50505050565b5f611edd61134c565b90505f611ee9846125f0565b90505f825f015f9054906101000a900473ffffffffffffffffffffffffffffffffffffffff1673ffffffffffffffffffffffffffffffffffffffff16630a7a546983866040518363ffffffff1660e01b8152600401611f4992919061460f565b602060405180830381865afa158015611f64573d5f5f3e3d5ffd5b505050506040513d601f19601f82011682018060405250810190611f8891906145aa565b90505f8114158015611fa85750808360030154611fa59190614563565b42115b15611fdf576040517f3e33ca0600000000000000000000000000000000000000000000000000000000815260040160405180910390fd5b5050505050565b611ff8611ff2836125f0565b82612612565b8214612030576040517fa5483eeb00000000000000000000000000000000000000000000000000000000815260040160405180910390fd5b5050565b8073ffffffffffffffffffffffffffffffffffffffff166120548361263a565b73ffffffffffffffffffffffffffffffffffffffff16146120a1576040517f5ac46d9400000000000000000000000000000000000000000000000000000000815260040160405180910390fd5b5050565b60605f826120b45760066120b7565b60075b60ff1690505f8167ffffffffffffffff8111156120d7576120d6612f71565b5b60405190808252806020026020018201604052801561211057816020015b6120fd612cc2565b8152602001906001900390816120f55790505b5090505f5f905060405180606001604052806040518060400160405280600681526020017f757365724944000000000000000000000000000000000000000000000000000081525081526020018760a00151815260200160405180602001604052805f81525081525082828061218590613e0a565b93508151811061219857612197613d80565b5b602002602001018190525060405180606001604052806040518060400160405280600681526020017f6c696e6b494400000000000000000000000000000000000000000000000000008152508152602001875f0151815260200160405180602001604052805f81525081525082828061221090613e0a565b93508151811061222357612222613d80565b5b602002602001018190525060405180606001604052806040518060400160405280600981526020017f6e756c6c6966696572000000000000000000000000000000000000000000000081525081526020018760200151815260200160405180602001604052805f81525081525082828061229c90613e0a565b9350815181106122af576122ae613d80565b5b602002602001018190525060405180606001604052806040518060400160405280600981526020017f74696d657374616d7000000000000000000000000000000000000000000000008152508152602001876101a00151815260200160405180602001604052805f81525081525082828061232990613e0a565b93508151811061233c5761233b613d80565b5b602002602001018190525060405180606001604052806040518060400160405280600881526020017f69737375657249440000000000000000000000000000000000000000000000008152508152602001876101600151815260200160405180602001604052805f8152508152508282806123b690613e0a565b9350815181106123c9576123c8613d80565b5b602002602001018190525060405180606001604052806040518060400160405280601681526020017f6973456d6265646465644175746856657269666965640000000000000000000081525081526020016001815260200160405180602001604052805f81525081525082828061243f90613e0a565b93508151811061245257612451613d80565b5b602002602001018190525084156124f05760405180606001604052806040518060400160405280600e81526020017f6f70657261746f724f757470757400000000000000000000000000000000000081525081526020018760400151815260200160405180602001604052805f8152508152508282806124d190613e0a565b9350815181106124e4576124e3613d80565b5b60200260200101819052505b81935050505092915050565b6125046126b5565b61253a576040517fd7e6bcf800000000000000000000000000000000000000000000000000000000815260040160405180910390fd5b565b6125446124fc565b5f73ffffffffffffffffffffffffffffffffffffffff168173ffffffffffffffffffffffffffffffffffffffff16036125b4575f6040517f1e4fbdf70000000000000000000000000000000000000000000000000000000081526004016125ab9190612e98565b60405180910390fd5b6125bd81611373565b50565b5f6125c961134c565b5f015f9054906101000a900473ffffffffffffffffffffffffffffffffffffffff16905090565b5f6126026125fd836126d3565b61281e565b61260b90614659565b9050919050565b5f5f61261d8361287b565b90506126318461262c836126d3565b61289a565b91505092915050565b5f8173ffffffffffffffffffffffffffffffffffffffff16821461269557816040517f476265e000000000000000000000000000000000000000000000000000000000815260040161268c9190612f50565b60405180910390fd5b6126ae6126a96126a4846126d3565b61281e565b6129a1565b9050919050565b5f6126be611405565b5f0160089054906101000a900460ff16905090565b5f81905060087eff00ff00ff00ff00ff00ff00ff00ff00ff00ff00ff00ff00ff00ff00ff00ff8216901b60087fff00ff00ff00ff00ff00ff00ff00ff00ff00ff00ff00ff00ff00ff00ff00ff008316901c17905060107dffff0000ffff0000ffff0000ffff0000ffff0000ffff0000ffff0000ffff8216901b60107fffff0000ffff0000ffff0000ffff0000ffff0000ffff0000ffff0000ffff00008316901c17905060207bffffffff00000000ffffffff00000000ffffffff00000000ffffffff8216901b60207fffffffff00000000ffffffff00000000ffffffff00000000ffffffff000000008316901c179050604077ffffffffffffffff0000000000000000ffffffffffffffff8216901b60407fffffffffffffffff0000000000000000ffffffffffffffff00000000000000008316901c179050608081901b608082901c179050919050565b6060602067ffffffffffffffff81111561283b5761283a612f71565b5b6040519080825280601f01601f19166020018201604052801561286d5781602001600182028036833780820191505090505b509050816020820152919050565b5f8173ffffffffffffffffffffffffffffffffffffffff169050919050565b5f5f6128ad6128a8846126d3565b61281e565b90505f6128c982601b84516128c291906146bf565b601b6129ae565b90505f6128f5866040516020016128e09190614712565b604051602081830303815290604052836129c4565b90505f612909612904836129d8565b612a70565b90505f8160405160200161291d919061476d565b60405160208183030381529060405290505f61293984836129c4565b9050601f81511461298257601f6040517f33b0459b00000000000000000000000000000000000000000000000000000000815260040161297991906147c0565b60405180910390fd5b61299361298e82612a8e565b6126d3565b965050505050505092915050565b5f60148201519050919050565b60606129bb848484612aa2565b90509392505050565b60606129d08383612bbe565b905092915050565b5f601d825114612a2057601d6040517f03c4ee2b000000000000000000000000000000000000000000000000000000008152600401612a179190614812565b60405180910390fd5b5f5f90505b8251811015612a6a57828181518110612a4157612a40613d80565b5b602001015160f81c60f81b60f81c60ff1682612a5d919061482b565b9150806001019050612a25565b50919050565b5f81905060088161ffff16901b60088261ffff16901c179050919050565b5f81612a999061487d565b5f1c9050919050565b606081601f83612ab29190614563565b1015612af3576040517f08c379a0000000000000000000000000000000000000000000000000000000008152600401612aea9061492d565b60405180910390fd5b8183612aff9190614563565b84511015612b42576040517f08c379a0000000000000000000000000000000000000000000000000000000008152600401612b3990614995565b60405180910390fd5b606082155f8114612b615760405191505f825260208201604052612bb2565b6040519150601f8416801560200281840101858101878315602002848b0101015b81831015612b9f5780518352602083019250602081019050612b82565b50868552601f19601f8301166040525050505b50809150509392505050565b6060806040519050835180825260208201818101602087015b81831015612bf45780518352602083019250602081019050612bd7565b50855192508351830184528091508282019050602086015b81831015612c295780518352602083019250602081019050612c0c565b50601f19601f8851850115830101166040525050508091505092915050565b6040518060400160405280606081526020015f81525090565b604051806101c001604052805f81526020015f81526020015f81526020015f81526020015f81526020015f81526020015f81526020015f81526020015f81526020015f81526020015f81526020015f81526020015f81526020015f81525090565b6040518060600160405280606081526020015f8152602001606081525090565b5f604051905090565b5f5ffd5b5f5ffd5b5f7fffffffff0000000000000000000000000000000000000000000000000000000082169050919050565b612d2781612cf3565b8114612d31575f5ffd5b50565b5f81359050612d4281612d1e565b92915050565b5f60208284031215612d5d57612d5c612ceb565b5b5f612d6a84828501612d34565b91505092915050565b5f8115159050919050565b612d8781612d73565b82525050565b5f602082019050612da05f830184612d7e565b92915050565b5f819050919050565b612db881612da6565b8114612dc2575f5ffd5b50565b5f81359050612dd381612daf565b92915050565b5f60208284031215612dee57612ded612ceb565b5b5f612dfb84828501612dc5565b91505092915050565b5f73ffffffffffffffffffffffffffffffffffffffff82169050919050565b5f612e2d82612e04565b9050919050565b612e3d81612e23565b8114612e47575f5ffd5b50565b5f81359050612e5881612e34565b92915050565b5f60208284031215612e7357612e72612ceb565b5b5f612e8084828501612e4a565b91505092915050565b612e9281612e23565b82525050565b5f602082019050612eab5f830184612e89565b92915050565b5f81519050919050565b5f82825260208201905092915050565b8281835e5f83830152505050565b5f601f19601f8301169050919050565b5f612ef382612eb1565b612efd8185612ebb565b9350612f0d818560208601612ecb565b612f1681612ed9565b840191505092915050565b5f6020820190508181035f830152612f398184612ee9565b905092915050565b612f4a81612da6565b82525050565b5f602082019050612f635f830184612f41565b92915050565b5f5ffd5b5f5ffd5b7f4e487b71000000000000000000000000000000000000000000000000000000005f52604160045260245ffd5b612fa782612ed9565b810181811067ffffffffffffffff82111715612fc657612fc5612f71565b5b80604052505050565b5f612fd8612ce2565b9050612fe48282612f9e565b919050565b5f67ffffffffffffffff82111561300357613002612f71565b5b61300c82612ed9565b9050602081019050919050565b828183375f83830152505050565b5f61303961303484612fe9565b612fcf565b90508281526020810184848401111561305557613054612f6d565b5b613060848285613019565b509392505050565b5f82601f83011261307c5761307b612f69565b5b813561308c848260208601613027565b91505092915050565b5f602082840312156130aa576130a9612ceb565b5b5f82013567ffffffffffffffff8111156130c7576130c6612cef565b5b6130d384828501613068565b91505092915050565b5f819050919050565b5f6130ff6130fa6130f584612e04565b6130dc565b612e04565b9050919050565b5f613110826130e5565b9050919050565b5f61312182613106565b9050919050565b61313181613117565b82525050565b5f60208201905061314a5f830184613128565b92915050565b5f5ffd5b5f5ffd5b5f5f83601f84011261316d5761316c612f69565b5b8235905067ffffffffffffffff81111561318a57613189613150565b5b6020830191508360208202830111156131a6576131a5613154565b5b9250929050565b5f5f83601f8401126131c2576131c1612f69565b5b8235905067ffffffffffffffff8111156131df576131de613150565b5b6020830191508360208202830111156131fb576131fa613154565b5b9250929050565b5f5f5f5f5f5f6080878903121561321c5761321b612ceb565b5b5f61322989828a01612e4a565b965050602087013567ffffffffffffffff81111561324a57613249612cef565b5b61325689828a01613158565b9550955050604087013567ffffffffffffffff81111561327957613278612cef565b5b61328589828a016131ad565b9350935050606061329889828a01612e4a565b9150509295509295509295565b5f5f83601f8401126132ba576132b9612f69565b5b8235905067ffffffffffffffff8111156132d7576132d6613150565b5b6020830191508360018202830111156132f3576132f2613154565b5b9250929050565b5f5f5f5f5f5f5f6080888a03121561331557613314612ceb565b5b5f6133228a828b01612e4a565b975050602088013567ffffffffffffffff81111561334357613342612cef565b5b61334f8a828b016132a5565b9650965050604088013567ffffffffffffffff81111561337257613371612cef565b5b61337e8a828b016132a5565b9450945050606088013567ffffffffffffffff8111156133a1576133a0612cef565b5b6133ad8a828b016132a5565b925092505092959891949750929550565b5f81519050919050565b5f82825260208201905092915050565b5f819050602082019050919050565b5f82825260208201905092915050565b5f61340182612eb1565b61340b81856133e7565b935061341b818560208601612ecb565b61342481612ed9565b840191505092915050565b61343881612da6565b82525050565b5f81519050919050565b5f82825260208201905092915050565b5f6134628261343e565b61346c8185613448565b935061347c818560208601612ecb565b61348581612ed9565b840191505092915050565b5f606083015f8301518482035f8601526134aa82826133f7565b91505060208301516134bf602086018261342f565b50604083015184820360408601526134d78282613458565b9150508091505092915050565b5f6134ef8383613490565b905092915050565b5f602082019050919050565b5f61350d826133be565b61351781856133c8565b935083602082028501613529856133d8565b805f5b85811015613564578484038952815161354585826134e4565b9450613550836134f7565b925060208a0199505060018101905061352c565b50829750879550505050505092915050565b5f6020820190508181035f83015261358e8184613503565b905092915050565b5f5f5f604084860312156135ad576135ac612ceb565b5b5f84013567ffffffffffffffff8111156135ca576135c9612cef565b5b6135d6868287016132a5565b9350935050602084013567ffffffffffffffff8111156135f9576135f8612cef565b5b61360586828701613068565b9150509250925092565b5f604083015f8301518482035f86015261362982826133f7565b915050602083015161363e602086018261342f565b508091505092915050565b5f6020820190508181035f830152613661818461360f565b905092915050565b5f67ffffffffffffffff82111561368357613682612f71565b5b602082029050602081019050919050565b5f6136a66136a184613669565b612fcf565b905080838252602082019050602084028301858111156136c9576136c8613154565b5b835b818110156136f257806136de8882612dc5565b8452602084019350506020810190506136cb565b5050509392505050565b5f82601f8301126137105761370f612f69565b5b8135613720848260208601613694565b91505092915050565b5f6020828403121561373e5761373d612ceb565b5b5f82013567ffffffffffffffff81111561375b5761375a612cef565b5b613767848285016136fc565b91505092915050565b6101c082015f8201516137855f85018261342f565b506020820151613798602085018261342f565b5060408201516137ab604085018261342f565b5060608201516137be606085018261342f565b5060808201516137d1608085018261342f565b5060a08201516137e460a085018261342f565b5060c08201516137f760c085018261342f565b5060e082015161380a60e085018261342f565b5061010082015161381f61010085018261342f565b5061012082015161383461012085018261342f565b5061014082015161384961014085018261342f565b5061016082015161385e61016085018261342f565b5061018082015161387361018085018261342f565b506101a08201516138886101a085018261342f565b50505050565b5f6101c0820190506138a25f830184613770565b92915050565b5f81519050919050565b5f82825260208201905092915050565b5f819050602082019050919050565b5f6138dc83836133f7565b905092915050565b5f602082019050919050565b5f6138fa826138a8565b61390481856138b2565b935083602082028501613916856138c2565b805f5b85811015613951578484038952815161393285826138d1565b945061393d836138e4565b925060208a01995050600181019050613919565b50829750879550505050505092915050565b5f6020820190508181035f83015261397b81846138f0565b905092915050565b5f81905092915050565b5f61399782612eb1565b6139a18185613983565b93506139b1818560208601612ecb565b80840191505092915050565b5f6139c8828461398d565b915081905092915050565b7f4e487b71000000000000000000000000000000000000000000000000000000005f52601160045260245ffd5b5f613a0a82612da6565b91505f8203613a1c57613a1b6139d3565b5b600182039050919050565b5f67ffffffffffffffff821115613a4157613a40612f71565b5b602082029050602081019050919050565b5f613a64613a5f84613a27565b612fcf565b90508083825260208201905060208402830185811115613a8757613a86613154565b5b835b81811015613ace57803567ffffffffffffffff811115613aac57613aab612f69565b5b808601613ab98982613068565b85526020850194505050602081019050613a89565b5050509392505050565b5f613ae4368484613a52565b905092915050565b5f819050919050565b5f67ffffffffffffffff82169050919050565b5f613b22613b1d613b1884613aec565b6130dc565b613af5565b9050919050565b613b3281613b08565b82525050565b5f602082019050613b4b5f830184613b29565b92915050565b5f5ffd5b5f5ffd5b5f82601f830112613b6d57613b6c612f69565b5b8135613b7d848260208601613a52565b91505092915050565b613b8f81612d73565b8114613b99575f5ffd5b50565b5f81359050613baa81613b86565b92915050565b5f6101a08284031215613bc657613bc5613b51565b5b613bd16101a0612fcf565b90505f613be084828501612dc5565b5f830152506020613bf384828501612dc5565b6020830152506040613c0784828501612dc5565b6040830152506060613c1b84828501612dc5565b606083015250608082013567ffffffffffffffff811115613c3f57613c3e613b55565b5b613c4b848285016136fc565b60808301525060a0613c5f84828501612dc5565b60a08301525060c082013567ffffffffffffffff811115613c8357613c82613b55565b5b613c8f848285016136fc565b60c08301525060e082013567ffffffffffffffff811115613cb357613cb2613b55565b5b613cbf84828501613b59565b60e083015250610100613cd484828501613b9c565b61010083015250610120613cea84828501612dc5565b61012083015250610140613d0084828501612dc5565b61014083015250610160613d1684828501612dc5565b61016083015250610180613d2c84828501612dc5565b6101808301525092915050565b5f60208284031215613d4e57613d4d612ceb565b5b5f82013567ffffffffffffffff811115613d6b57613d6a612cef565b5b613d7784828501613bb0565b91505092915050565b7f4e487b71000000000000000000000000000000000000000000000000000000005f52603260045260245ffd5b7f4e487b71000000000000000000000000000000000000000000000000000000005f52602260045260245ffd5b5f6002820490506001821680613df157607f821691505b602082108103613e0457613e03613dad565b5b50919050565b5f613e1482612da6565b91507fffffffffffffffffffffffffffffffffffffffffffffffffffffffffffffffff8203613e4657613e456139d3565b5b600182019050919050565b5f67ffffffffffffffff821115613e6b57613e6a612f71565b5b602082029050919050565b5f613e88613e8384613e51565b612fcf565b90508060208402830185811115613ea257613ea1613154565b5b835b81811015613ecb5780613eb78882612dc5565b845260208401935050602081019050613ea4565b5050509392505050565b5f82601f830112613ee957613ee8612f69565b5b6002613ef6848285613e76565b91505092915050565b5f67ffffffffffffffff821115613f1957613f18612f71565b5b602082029050919050565b5f613f36613f3184613eff565b612fcf565b90508060408402830185811115613f5057613f4f613154565b5b835b81811015613f795780613f658882613ed5565b845260208401935050604081019050613f52565b5050509392505050565b5f82601f830112613f9757613f96612f69565b5b6002613fa4848285613f24565b91505092915050565b5f5f5f5f6101208587031215613fc657613fc5612ceb565b5b5f85013567ffffffffffffffff811115613fe357613fe2612cef565b5b613fef878288016136fc565b945050602061400087828801613ed5565b935050606061401187828801613f83565b92505060e061402287828801613ed5565b91505092959194509250565b5f60029050919050565b5f81905092915050565b5f819050919050565b5f614056838361342f565b60208301905092915050565b5f602082019050919050565b6140778161402e565b6140818184614038565b925061408c82614042565b805f5b838110156140bc5781516140a3878261404b565b96506140ae83614062565b92505060018101905061408f565b505050505050565b5f60029050919050565b5f81905092915050565b5f819050919050565b5f81905092915050565b6140f48161402e565b6140fe81846140e1565b925061410982614042565b805f5b83811015614139578151614120878261404b565b965061412b83614062565b92505060018101905061410c565b505050505050565b5f61414c83836140eb565b60408301905092915050565b5f602082019050919050565b61416d816140c4565b61417781846140ce565b9250614182826140d8565b805f5b838110156141b25781516141998782614141565b96506141a483614158565b925050600181019050614185565b505050505050565b5f81519050919050565b5f82825260208201905092915050565b5f819050602082019050919050565b5f602082019050919050565b5f6141f9826141ba565b61420381856141c4565b935061420e836141d4565b805f5b8381101561423e578151614225888261404b565b9750614230836141e3565b925050600181019050614211565b5085935050505092915050565b5f6101208201905061425f5f83018761406e565b61426c6040830186614164565b61427960c083018561406e565b81810361010083015261428c81846141ef565b905095945050505050565b5f815190506142a581613b86565b92915050565b5f602082840312156142c0576142bf612ceb565b5b5f6142cd84828501614297565b91505092915050565b5f6040820190506142e95f830185612f41565b6142f66020830184612f41565b9392505050565b5f819050815f5260205f209050919050565b5f6020601f8301049050919050565b5f82821b905092915050565b5f600883026143597fffffffffffffffffffffffffffffffffffffffffffffffffffffffffffffffff8261431e565b614363868361431e565b95508019841693508086168417925050509392505050565b5f61439561439061438b84612da6565b6130dc565b612da6565b9050919050565b5f819050919050565b6143ae8361437b565b6143c26143ba8261439c565b84845461432a565b825550505050565b5f5f905090565b6143d96143ca565b6143e48184846143a5565b505050565b5b81811015614407576143fc5f826143d1565b6001810190506143ea565b5050565b601f82111561444c5761441d816142fd565b6144268461430f565b81016020851015614435578190505b6144496144418561430f565b8301826143e9565b50505b505050565b5f82821c905092915050565b5f61446c5f1984600802614451565b1980831691505092915050565b5f614484838361445d565b9150826002028217905092915050565b61449d82612eb1565b67ffffffffffffffff8111156144b6576144b5612f71565b5b6144c08254613dda565b6144cb82828561440b565b5f60209050601f8311600181146144fc575f84156144ea578287015190505b6144f48582614479565b86555061455b565b601f19841661450a866142fd565b5f5b828110156145315784890151825560018201915060208501945060208101905061450c565b8683101561454e578489015161454a601f89168261445d565b8355505b6001600288020188555050505b505050505050565b5f61456d82612da6565b915061457883612da6565b92508282019050808211156145905761458f6139d3565b5b92915050565b5f815190506145a481612daf565b92915050565b5f602082840312156145bf576145be612ceb565b5b5f6145cc84828501614596565b91505092915050565b5f7fffff00000000000000000000000000000000000000000000000000000000000082169050919050565b614609816145d5565b82525050565b5f6040820190506146225f830185614600565b61462f6020830184612f41565b9392505050565b5f819050602082019050919050565b5f61465082516145d5565b80915050919050565b5f6146638261343e565b8261466d84614636565b905061467881614645565b925060028210156146b8576146b37fffff0000000000000000000000000000000000000000000000000000000000008360020360080261431e565b831692505b5050919050565b5f6146c982612da6565b91506146d483612da6565b92508282039050818111156146ec576146eb6139d3565b5b92915050565b5f819050919050565b61470c614707826145d5565b6146f2565b82525050565b5f61471d82846146fb565b60028201915081905092915050565b5f61ffff82169050919050565b5f8160f01b9050919050565b5f61474f82614739565b9050919050565b6147676147628261472c565b614745565b82525050565b5f6147788284614756565b60028201915081905092915050565b5f819050919050565b5f6147aa6147a56147a084614787565b6130dc565b612da6565b9050919050565b6147ba81614790565b82525050565b5f6020820190506147d35f8301846147b1565b92915050565b5f819050919050565b5f6147fc6147f76147f2846147d9565b6130dc565b612da6565b9050919050565b61480c816147e2565b82525050565b5f6020820190506148255f830184614803565b92915050565b5f6148358261472c565b91506148408361472c565b9250828201905061ffff81111561485a576148596139d3565b5b92915050565b5f819050919050565b5f6148748251614860565b80915050919050565b5f6148878261343e565b8261489184614636565b905061489c81614869565b925060208210156148dc576148d77fffffffffffffffffffffffffffffffffffffffffffffffffffffffffffffffff8360200360080261431e565b831692505b5050919050565b7f736c6963655f6f766572666c6f770000000000000000000000000000000000005f82015250565b5f614917600e83612ebb565b9150614922826148e3565b602082019050919050565b5f6020820190508181035f8301526149448161490b565b9050919050565b7f736c6963655f6f75744f66426f756e64730000000000000000000000000000005f82015250565b5f61497f601183612ebb565b915061498a8261494b565b602082019050919050565b5f6020820190508181035f8301526149ac81614973565b905091905056fea26469706673582212201283195eef473e11db82f157e23599f192eea6d559bd8f3f2d254694d247b47d64736f6c634300081b0033",
  "linkReferences": {},
  "deployedLinkReferences": {},
  "immutableReferences": {},
  "inputSourceName": "project/contracts/validators/request/CredentialAtomicQueryV3StableValidator.sol",
  "buildInfoId": "solc-0_8_27-d5a9a12fa4f92a89d0bbc854c3d6131afe1df269"
}