{
  "_format": "hh3-artifact-1",
  "contractName": "Groth16VerifierAuthV3_8_32Wrapper",
  "sourceName": "contracts/lib/groth16-verifiers/Groth16VerifierAuthV3_8_32Wrapper.sol",
  "abi": [
    {
      "inputs": [
        {
          "internalType": "uint256",
          "name": "expected",
          "type": "uint256"
        },
        {
          "internalType": "uint256",
          "name": "actual",
          "type": "uint256"
        }
      ],
      "name": "ExpectedArrayLength",
      "type": "error"
    },
    {
      "inputs": [
        {
          "internalType": "uint256[2]",
          "name": "a",
          "type": "uint256[2]"
        },
        {
          "internalType": "uint256[2][2]",
          "name": "b",
          "type": "uint256[2][2]"
        },
        {
          "internalType": "uint256[2]",
          "name": "c",
          "type": "uint256[2]"
        },
        {
          "internalType": "uint256[]",
          "name": "signals",
          "type": "uint256[]"
        }
      ],
      "name": "verify",
      "outputs": [
        {
          "internalType": "bool",
          "name": "r",
          "type": "bool"
        }
      ],
      "stateMutability": "view",
      "type": "function"
    },
    {
      "inputs": [
        {
          "internalType": "uint256[2]",
          "name": "_pA",
          "type": "uint256[2]"
        },
        {
          "internalType": "uint256[2][2]",
          "name": "_pB",
          "type": "uint256[2][2]"
        },
        {
          "internalType": "uint256[2]",
          "name": "_pC",
          "type": "uint256[2]"
        },
        {
          "internalType": "uint256[3]",
          "name": "_pubSignals",
          "type": "uint256[3]"
        }
      ],
      "name": "verifyProof",
      "outputs": [
        {
          "internalType": "bool",
          "name": "",
          "type": "bool"
        }
      ],
      "stateMutability": "view",
      "type": "function"
    }
  ],
  "bytecode": "0x6080604052348015600e575f5ffd5b50610b908061001c5f395ff3fe608060405234801561000f575f5ffd5b5060043610610034575f3560e01c806311479fea146100385780632612907c14610068575b5f5ffd5b610052600480360381019061004d9190610762565b610098565b60405161005f91906107e2565b60405180910390f35b610082600480360381019061007d9190610858565b61059e565b60405161008f91906107e2565b60405180910390f35b5f610558565b7f30644e72e131a029b85045b68181585d2833e84879b9709143e1f593f000000181106100cd575f5f5260205ff35b50565b5f60405183815284602082015285604082015260408160608360076107d05a03fa915081610100575f5f5260205ff35b825160408201526020830151606082015260408360808360066107d05a03fa91508161012e575f5f5260205ff35b505050505050565b5f608086015f87017f1cc44b8efbd1d7b5edf9a3d0205212ec946de9dd03685988009bf92a9ec64d2181527f0246731dc72469a1527575c97e8de66ae203c5c60703926b9b3a8237f3d648ff60208201526101d65f8801357f197ed71b2959c109642b073ab35eaf2967760fb7d81a542d83f25bf38413ac657f2d94d9ba247894965166036f0e58386823cfdae228b77696c91ed1f82453a37a846100d0565b61022660208801357f101033ecefc011d83e24907c1e952de42f5784ca2ca275f4c7a01839f079168d7f153b311b3fba087c871a559e191277fdf9060bba6238695fe570a7804a0c8fcd846100d0565b61027660408801357f2e1ab6fcf64a0a8fb1d9b51b64eb04fe6eec8a3380e02d926e1b8ed0075f68157f2a3053383be206e7871b20eda804a96facb3ae2d5dbf995240f09224671cb9d0846100d0565b833582527f30644e72e131a029b85045b68181585d97816a916871ca8d3c208c16d87cfd4760208501357f30644e72e131a029b85045b68181585d97816a916871ca8d3c208c16d87cfd4703066020830152843560408301526020850135606083015260408501356080830152606085013560a08301527f245229d9b076b3c0e8a4d70bde8c1cccffa08a9fae7557b165b3b0dbd653e2c760c08301527f253ec85988dbb84e46e94b5efa3373b47a000b4ac6c86b2d4b798d274a18230260e08301527f07090a82e8fabbd39299be24705b92cf208ee8b3487f6f2b39ff27978a29a1db6101008301527f2424bcc1f60a5472685fd50705b2809626e170120acaf441e133a2bd5e61d2446101208301527f0ae1135cffdaf227c5dc266740607aa930bc3bd92ddc2b135086d9da2dfd3e2a6101408301527f2b86859fd3d55c9d150fb3f0aeba798826493dd73d357ab0f9fdaced9fc818296101608301525f88015161018083015260205f018801516101a08301527f198e9393920d483a7260bfb731fb5d25f1aa493335a9e71297e485b7aef312c26101c08301527f1800deef121f1e76426a00665e5c4479674322d4f75edadd46debd5cd992f6ed6101e08301527f090689d0585ff075ec9e99ad690c3395bc4b313370b38ef355acdadcd122975b6102008301527f12c85ea5db8c6deb4aab71808dcb408fe3d1e7690c43d37b4ce6cc0166fa7daa610220830152853561024083015260208601356102608301527f08a3e5e97869e0cd96c5df3795d99361cdb6809dd8900305afd557726dbc19e76102808301527f0a062a3d3497645e080dbee250a5fd692f7a83b2fae5d7af4b66fc85d33f45a76102a08301527f1054012e2497491af0038d56c3b32a867664c3a5bfdaada33b4cc680ff7ff4ae6102c08301527f06f46b690fbee4479b460e94fd3b97c5e274bb3a594be08f597fb4563ee858f36102e08301526020826103008460086107d05a03fa82518116935050505095945050505050565b604051610380810160405261056f5f84013561009e565b61057c602084013561009e565b610589604084013561009e565b610596818486888a610136565b805f5260205ff35b5f6105a76106d1565b600384849050146105f5576003848490506040517f4da7a8b70000000000000000000000000000000000000000000000000000000081526004016105ec9291906108f6565b60405180910390fd5b5f5f90505b6003811015610646578484828181106106165761061561091d565b5b905060200201358282600381106106305761062f61091d565b5b60200201818152505080806001019150506105fa565b503073ffffffffffffffffffffffffffffffffffffffff166311479fea888888856040518563ffffffff1660e01b81526004016106869493929190610ac0565b602060405180830381865afa1580156106a1573d5f5f3e3d5ffd5b505050506040513d601f19601f820116820180604052508101906106c59190610b2f565b91505095945050505050565b6040518060600160405280600390602082028036833780820191505090505090565b5f5ffd5b5f5ffd5b5f5ffd5b5f8190508260206002028201111561071a576107196106fb565b5b92915050565b5f8190508260406002028201111561073b5761073a6106fb565b5b92915050565b5f8190508260206003028201111561075c5761075b6106fb565b5b92915050565b5f5f5f5f610160858703121561077b5761077a6106f3565b5b5f610788878288016106ff565b945050604061079987828801610720565b93505060c06107aa878288016106ff565b9250506101006107bc87828801610741565b91505092959194509250565b5f8115159050919050565b6107dc816107c8565b82525050565b5f6020820190506107f55f8301846107d3565b92915050565b5f5ffd5b5f5ffd5b5f5f83601f840112610818576108176107fb565b5b8235905067ffffffffffffffff811115610835576108346107ff565b5b602083019150836020820283011115610851576108506106fb565b5b9250929050565b5f5f5f5f5f6101208688031215610872576108716106f3565b5b5f61087f888289016106ff565b955050604061089088828901610720565b94505060c06108a1888289016106ff565b93505061010086013567ffffffffffffffff8111156108c3576108c26106f7565b5b6108cf88828901610803565b92509250509295509295909350565b5f819050919050565b6108f0816108de565b82525050565b5f6040820190506109095f8301856108e7565b61091660208301846108e7565b9392505050565b7f4e487b71000000000000000000000000000000000000000000000000000000005f52603260045260245ffd5b82818337505050565b61095f6040838361094a565b5050565b5f60029050919050565b5f81905092915050565b5f819050919050565b61098c6040838361094a565b5050565b5f61099b8383610980565b60408301905092915050565b5f82905092915050565b5f604082019050919050565b6109c681610963565b6109d0818461096d565b92506109db82610977565b805f5b83811015610a13576109f082846109a7565b6109fa8782610990565b9650610a05836109b1565b9250506001810190506109de565b505050505050565b5f60039050919050565b5f81905092915050565b5f819050919050565b610a41816108de565b82525050565b5f610a528383610a38565b60208301905092915050565b5f602082019050919050565b610a7381610a1b565b610a7d8184610a25565b9250610a8882610a2f565b805f5b83811015610ab8578151610a9f8782610a47565b9650610aaa83610a5e565b925050600181019050610a8b565b505050505050565b5f61016082019050610ad45f830187610953565b610ae160408301866109bd565b610aee60c0830185610953565b610afc610100830184610a6a565b95945050505050565b610b0e816107c8565b8114610b18575f5ffd5b50565b5f81519050610b2981610b05565b92915050565b5f60208284031215610b4457610b436106f3565b5b5f610b5184828501610b1b565b9150509291505056fea2646970667358221220d76b0d8decb20be9fbeec18eae7d6e46e6acc0fc6560f0c786796e51113c3cf064736f6c634300081b0033",
  "linkReferences": {},
  "deployedLinkReferences": {},
  "immutableReferences": {},
  "inputSourceName": "project/contracts/lib/groth16-verifiers/Groth16VerifierAuthV3_8_32Wrapper.sol",
  "buildInfoId": "solc-0_8_27-ea14d5db4890f54206f16cf8a38faca860a752c5"
}