{
  "_format": "hh3-artifact-1",
  "contractName": "Groth16VerifierV3Stable_16_16_64_16_32Wrapper",
  "sourceName": "contracts/lib/groth16-verifiers/Groth16VerifierV3Stable_16_16_64_16_32Wrapper.sol",
  "abi": [
    {
      "inputs": [
        {
          "internalType": "uint256",
          "name": "expected",
          "type": "uint256"
        },
        {
          "internalType": "uint256",
          "name": "actual",
          "type": "uint256"
        }
      ],
      "name": "ExpectedArrayLength",
      "type": "error"
    },
    {
      "inputs": [
        {
          "internalType": "uint256[2]",
          "name": "a",
          "type": "uint256[2]"
        },
        {
          "internalType": "uint256[2][2]",
          "name": "b",
          "type": "uint256[2][2]"
        },
        {
          "internalType": "uint256[2]",
          "name": "c",
          "type": "uint256[2]"
        },
        {
          "internalType": "uint256[]",
          "name": "signals",
          "type": "uint256[]"
        }
      ],
      "name": "verify",
      "outputs": [
        {
          "internalType": "bool",
          "name": "r",
          "type": "bool"
        }
      ],
      "stateMutability": "view",
      "type": "function"
    },
    {
      "inputs": [
        {
          "internalType": "uint256[2]",
          "name": "_pA",
          "type": "uint256[2]"
        },
        {
          "internalType": "uint256[2][2]",
          "name": "_pB",
          "type": "uint256[2][2]"
        },
        {
          "internalType": "uint256[2]",
          "name": "_pC",
          "type": "uint256[2]"
        },
        {
          "internalType": "uint256[14]",
          "name": "_pubSignals",
          "type": "uint256[14]"
        }
      ],
      "name": "verifyProof",
      "outputs": [
        {
          "internalType": "bool",
          "name": "",
          "type": "bool"
        }
      ],
      "stateMutability": "view",
      "type": "function"
    }
  ],
  "bytecode": "0x6080604052348015600e575f5ffd5b50610f9b8061001c5f395ff3fe608060405234801561000f575f5ffd5b5060043610610034575f3560e01c80632612907c146100385780638d15f88f14610068575b5f5ffd5b610052600480360381019061004d9190610ba9565b610098565b60405161005f9190610c49565b60405180910390f35b610082600480360381019061007d9190610c83565b6101cb565b60405161008f9190610c49565b60405180910390f35b5f6100a1610adb565b600e84849050146100ef57600e848490506040517f4da7a8b70000000000000000000000000000000000000000000000000000000081526004016100e6929190610d01565b60405180910390fd5b5f5f90505b600e811015610140578484828181106101105761010f610d28565b5b905060200201358282600e811061012a57610129610d28565b5b60200201818152505080806001019150506100f4565b503073ffffffffffffffffffffffffffffffffffffffff16638d15f88f888888856040518563ffffffff1660e01b81526004016101809493929190610ecb565b602060405180830381865afa15801561019b573d5f5f3e3d5ffd5b505050506040513d601f19601f820116820180604052508101906101bf9190610f3a565b91505095945050505050565b5f610a00565b7f30644e72e131a029b85045b68181585d2833e84879b9709143e1f593f00000018110610200575f5f5260205ff35b50565b5f60405183815284602082015285604082015260408160608360076107d05a03fa915081610233575f5f5260205ff35b825160408201526020830151606082015260408360808360066107d05a03fa915081610261575f5f5260205ff35b505050505050565b5f608086015f87017f03cbd2ed2d77941992c885423fdaa808f275ce6b471fbacfb3677e080c7a106681527f0f52cedb65d076bce078abb2b81a5cffb49f5645a60a98d74d22770656ddbb5260208201526103095f8801357f12d47d7f09e084fdd4108c01200cddcc13eadafeb56ff1ddc28d1621ea079a9a7f1e10cf6a117962ae4f6804ff78b5b52d2b07a963ab26ccc69883da74f61243ca84610203565b61035960208801357f14497a442d0320add2880f023cc600965551d671d75d4a6d3a6c20feb80814657f15de6e2cb9fd72a2fd7ffef16f74af07ed763cd66959b61dbe4b06366e41767784610203565b6103a960408801357f06927663a275973269f0e97f9c77fa3817606c3a2c55649989348820ce5504257f2b6453ec7ebf19cfff6bb76fce5d6626cca34e2d582ae9d6ffb32c7900942d1684610203565b6103f960608801357f204da10ed6a210ee880b9345660434462fa91a13213938ea0098556dc62d29b07f0fd41f9b7974d92c4da35152f0ba9d976854125c255eeeb253bcfe48a186f47684610203565b61044960808801357f2d75c867a899dbef6c982bbccd573ca31126c1cec53454e7158c5a3970232fc87f1761773554fa51fca30b8758c7c04f657845a0d67f877f070e981568c8c91eaa84610203565b61049960a08801357f24844977d8f6b256103640f0367af8abe1ee96fc1f504cf6f9610403c30502c57f064228eaf2af4e448f74e067cb81426b36ae18ab63d79d6255d0a9b33e3f2c1684610203565b6104e960c08801357f1fb9593f1f3679508673d7b84b0ecf988a79f4407a42001f826f8ee69511733b7f103db88d7d3a950095bdf2474822801d1dcd158a90f9eb7a3034d0edda502f9584610203565b61053960e08801357f18a3101568f41c69d575ef56c282de2b5a6ec009052ac7d79fd0843909ce211d7f13b4b08987fc9e654f19c09841bc01e5a65ec538c5e531a510bbea7deda459ef84610203565b61058a6101008801357f0176b3a06210a72de1a344f91672e698328c3f46da38f098271f2cdfcf6e02897f0de82692dde04a23a45e62a537bd4cce64e56a303aaca3afe62b9b202b55246684610203565b6105db6101208801357f065de0d53c69eae002ac1832afb10de79738a1b69dbbf18a799dbee7f714000d7f26955dc8ae9731c476193cc63ffd9898abdc307762b238e23092f61ecd254d5284610203565b61062c6101408801357f0aad76df36b347dac22e78ae4f4dc2458f0db9c8fcc11ba892f791ce443f6e947f2fa51e89dbdf0476e808e4f4f208d11662501730c490fef0d5d3e865a3785b8784610203565b61067d6101608801357f1797e65c3ccf7c77a632d12ee1a300948b376586b1ddcec3ab54380eaf22cd4e7f186c743756e8ebda016fe4df29aa11a6f43934939533e0807358c28d71b74ccc84610203565b6106cd6101808801357f0cab585a5e6450ccdf4857dd941a7f7839395e5e82058d8d4060cddb5739a99a7ebffc31fd0070da1832008e3d3c409a90f7b58ce30c08b59e04bdc805c0caf484610203565b61071e6101a08801357f0d0e4632a54e634a6fdb8afa600cdac66811b05f0563cb591b7c2900e64da4637f0349884c3a04e2654777fb0a97a7df8299725d028f4c5380b4b1cbe01b11a84d84610203565b833582527f30644e72e131a029b85045b68181585d97816a916871ca8d3c208c16d87cfd4760208501357f30644e72e131a029b85045b68181585d97816a916871ca8d3c208c16d87cfd4703066020830152843560408301526020850135606083015260408501356080830152606085013560a08301527f245229d9b076b3c0e8a4d70bde8c1cccffa08a9fae7557b165b3b0dbd653e2c760c08301527f253ec85988dbb84e46e94b5efa3373b47a000b4ac6c86b2d4b798d274a18230260e08301527f07090a82e8fabbd39299be24705b92cf208ee8b3487f6f2b39ff27978a29a1db6101008301527f2424bcc1f60a5472685fd50705b2809626e170120acaf441e133a2bd5e61d2446101208301527f0ae1135cffdaf227c5dc266740607aa930bc3bd92ddc2b135086d9da2dfd3e2a6101408301527f2b86859fd3d55c9d150fb3f0aeba798826493dd73d357ab0f9fdaced9fc818296101608301525f88015161018083015260205f018801516101a08301527f198e9393920d483a7260bfb731fb5d25f1aa493335a9e71297e485b7aef312c26101c08301527f1800deef121f1e76426a00665e5c4479674322d4f75edadd46debd5cd992f6ed6101e08301527f090689d0585ff075ec9e99ad690c3395bc4b313370b38ef355acdadcd122975b6102008301527f12c85ea5db8c6deb4aab71808dcb408fe3d1e7690c43d37b4ce6cc0166fa7daa610220830152853561024083015260208601356102608301527f0d8df2cbbfa92a1c8ee19751d274e4b145bb3e46f43b32463bd714f07c01f0db6102808301527f1c166566c9b93adf917fd849a7389e186ddb47a602f34abc113ab255683abca26102a08301527f2c64b61729142e70b0f43a0f2121bec723ba8f5cfffbdc640c3839f85fc3e9e76102c08301527f07ee70e1c3f8149701384da370ee26fe631b41ee8e2fc81594b9bafd3222af836102e08301526020826103008460086107d05a03fa82518116935050505095945050505050565b6040516103808101604052610a175f8401356101d1565b610a2460208401356101d1565b610a3160408401356101d1565b610a3e60608401356101d1565b610a4b60808401356101d1565b610a5860a08401356101d1565b610a6560c08401356101d1565b610a7260e08401356101d1565b610a806101008401356101d1565b610a8e6101208401356101d1565b610a9c6101408401356101d1565b610aaa6101608401356101d1565b610ab86101808401356101d1565b610ac66101a08401356101d1565b610ad3818486888a610269565b805f5260205ff35b604051806101c00160405280600e90602082028036833780820191505090505090565b5f5ffd5b5f5ffd5b5f5ffd5b5f81905082602060020282011115610b2557610b24610b06565b5b92915050565b5f81905082604060020282011115610b4657610b45610b06565b5b92915050565b5f5ffd5b5f5ffd5b5f5f83601f840112610b6957610b68610b4c565b5b8235905067ffffffffffffffff811115610b8657610b85610b50565b5b602083019150836020820283011115610ba257610ba1610b06565b5b9250929050565b5f5f5f5f5f6101208688031215610bc357610bc2610afe565b5b5f610bd088828901610b0a565b9550506040610be188828901610b2b565b94505060c0610bf288828901610b0a565b93505061010086013567ffffffffffffffff811115610c1457610c13610b02565b5b610c2088828901610b54565b92509250509295509295909350565b5f8115159050919050565b610c4381610c2f565b82525050565b5f602082019050610c5c5f830184610c3a565b92915050565b5f819050826020600e0282011115610c7d57610c7c610b06565b5b92915050565b5f5f5f5f6102c08587031215610c9c57610c9b610afe565b5b5f610ca987828801610b0a565b9450506040610cba87828801610b2b565b93505060c0610ccb87828801610b0a565b925050610100610cdd87828801610c62565b91505092959194509250565b5f819050919050565b610cfb81610ce9565b82525050565b5f604082019050610d145f830185610cf2565b610d216020830184610cf2565b9392505050565b7f4e487b71000000000000000000000000000000000000000000000000000000005f52603260045260245ffd5b82818337505050565b610d6a60408383610d55565b5050565b5f60029050919050565b5f81905092915050565b5f819050919050565b610d9760408383610d55565b5050565b5f610da68383610d8b565b60408301905092915050565b5f82905092915050565b5f604082019050919050565b610dd181610d6e565b610ddb8184610d78565b9250610de682610d82565b805f5b83811015610e1e57610dfb8284610db2565b610e058782610d9b565b9650610e1083610dbc565b925050600181019050610de9565b505050505050565b5f600e9050919050565b5f81905092915050565b5f819050919050565b610e4c81610ce9565b82525050565b5f610e5d8383610e43565b60208301905092915050565b5f602082019050919050565b610e7e81610e26565b610e888184610e30565b9250610e9382610e3a565b805f5b83811015610ec3578151610eaa8782610e52565b9650610eb583610e69565b925050600181019050610e96565b505050505050565b5f6102c082019050610edf5f830187610d5e565b610eec6040830186610dc8565b610ef960c0830185610d5e565b610f07610100830184610e75565b95945050505050565b610f1981610c2f565b8114610f23575f5ffd5b50565b5f81519050610f3481610f10565b92915050565b5f60208284031215610f4f57610f4e610afe565b5b5f610f5c84828501610f26565b9150509291505056fea2646970667358221220cdd31d072051e52e995c33d07ad69ba93bcdff0a330ac511b67e62507ddb4a1164736f6c634300081b0033",
  "linkReferences": {},
  "deployedLinkReferences": {},
  "immutableReferences": {},
  "inputSourceName": "project/contracts/lib/groth16-verifiers/Groth16VerifierV3Stable_16_16_64_16_32Wrapper.sol",
  "buildInfoId": "solc-0_8_27-d5a9a12fa4f92a89d0bbc854c3d6131afe1df269"
}