{
  "_format": "hh3-artifact-1",
  "contractName": "IdentityTreeStore",
  "sourceName": "contracts/identitytreestore/IdentityTreeStore.sol",
  "abi": [
    {
      "inputs": [],
      "name": "InvalidInitialization",
      "type": "error"
    },
    {
      "inputs": [],
      "name": "InvalidNodeType",
      "type": "error"
    },
    {
      "inputs": [],
      "name": "InvalidStateNode",
      "type": "error"
    },
    {
      "inputs": [],
      "name": "NodeNotFound",
      "type": "error"
    },
    {
      "inputs": [],
      "name": "NotInitializing",
      "type": "error"
    },
    {
      "inputs": [],
      "name": "UnsupportedLength",
      "type": "error"
    },
    {
      "anonymous": false,
      "inputs": [
        {
          "indexed": false,
          "internalType": "uint64",
          "name": "version",
          "type": "uint64"
        }
      ],
      "name": "Initialized",
      "type": "event"
    },
    {
      "inputs": [],
      "name": "MAX_SMT_DEPTH",
      "outputs": [
        {
          "internalType": "uint256",
          "name": "",
          "type": "uint256"
        }
      ],
      "stateMutability": "view",
      "type": "function"
    },
    {
      "inputs": [],
      "name": "VERSION",
      "outputs": [
        {
          "internalType": "string",
          "name": "",
          "type": "string"
        }
      ],
      "stateMutability": "view",
      "type": "function"
    },
    {
      "inputs": [
        {
          "internalType": "uint256",
          "name": "key",
          "type": "uint256"
        }
      ],
      "name": "getNode",
      "outputs": [
        {
          "internalType": "uint256[]",
          "name": "",
          "type": "uint256[]"
        }
      ],
      "stateMutability": "view",
      "type": "function"
    },
    {
      "inputs": [
        {
          "internalType": "uint256",
          "name": "id",
          "type": "uint256"
        },
        {
          "internalType": "uint64",
          "name": "nonce",
          "type": "uint64"
        }
      ],
      "name": "getRevocationStatus",
      "outputs": [
        {
          "components": [
            {
              "components": [
                {
                  "internalType": "uint256",
                  "name": "state",
                  "type": "uint256"
                },
                {
                  "internalType": "uint256",
                  "name": "claimsTreeRoot",
                  "type": "uint256"
                },
                {
                  "internalType": "uint256",
                  "name": "revocationTreeRoot",
                  "type": "uint256"
                },
                {
                  "internalType": "uint256",
                  "name": "rootOfRoots",
                  "type": "uint256"
                }
              ],
              "internalType": "struct IOnchainCredentialStatusResolver.IdentityStateRoots",
              "name": "issuer",
              "type": "tuple"
            },
            {
              "components": [
                {
                  "internalType": "uint256",
                  "name": "root",
                  "type": "uint256"
                },
                {
                  "internalType": "bool",
                  "name": "existence",
                  "type": "bool"
                },
                {
                  "internalType": "uint256[]",
                  "name": "siblings",
                  "type": "uint256[]"
                },
                {
                  "internalType": "uint256",
                  "name": "index",
                  "type": "uint256"
                },
                {
                  "internalType": "uint256",
                  "name": "value",
                  "type": "uint256"
                },
                {
                  "internalType": "bool",
                  "name": "auxExistence",
                  "type": "bool"
                },
                {
                  "internalType": "uint256",
                  "name": "auxIndex",
                  "type": "uint256"
                },
                {
                  "internalType": "uint256",
                  "name": "auxValue",
                  "type": "uint256"
                }
              ],
              "internalType": "struct IOnchainCredentialStatusResolver.Proof",
              "name": "mtp",
              "type": "tuple"
            }
          ],
          "internalType": "struct IOnchainCredentialStatusResolver.CredentialStatus",
          "name": "",
          "type": "tuple"
        }
      ],
      "stateMutability": "view",
      "type": "function"
    },
    {
      "inputs": [
        {
          "internalType": "uint256",
          "name": "id",
          "type": "uint256"
        },
        {
          "internalType": "uint256",
          "name": "state",
          "type": "uint256"
        },
        {
          "internalType": "uint64",
          "name": "nonce",
          "type": "uint64"
        }
      ],
      "name": "getRevocationStatusByIdAndState",
      "outputs": [
        {
          "components": [
            {
              "components": [
                {
                  "internalType": "uint256",
                  "name": "state",
                  "type": "uint256"
                },
                {
                  "internalType": "uint256",
                  "name": "claimsTreeRoot",
                  "type": "uint256"
                },
                {
                  "internalType": "uint256",
                  "name": "revocationTreeRoot",
                  "type": "uint256"
                },
                {
                  "internalType": "uint256",
                  "name": "rootOfRoots",
                  "type": "uint256"
                }
              ],
              "internalType": "struct IOnchainCredentialStatusResolver.IdentityStateRoots",
              "name": "issuer",
              "type": "tuple"
            },
            {
              "components": [
                {
                  "internalType": "uint256",
                  "name": "root",
                  "type": "uint256"
                },
                {
                  "internalType": "bool",
                  "name": "existence",
                  "type": "bool"
                },
                {
                  "internalType": "uint256[]",
                  "name": "siblings",
                  "type": "uint256[]"
                },
                {
                  "internalType": "uint256",
                  "name": "index",
                  "type": "uint256"
                },
                {
                  "internalType": "uint256",
                  "name": "value",
                  "type": "uint256"
                },
                {
                  "internalType": "bool",
                  "name": "auxExistence",
                  "type": "bool"
                },
                {
                  "internalType": "uint256",
                  "name": "auxIndex",
                  "type": "uint256"
                },
                {
                  "internalType": "uint256",
                  "name": "auxValue",
                  "type": "uint256"
                }
              ],
              "internalType": "struct IOnchainCredentialStatusResolver.Proof",
              "name": "mtp",
              "type": "tuple"
            }
          ],
          "internalType": "struct IOnchainCredentialStatusResolver.CredentialStatus",
          "name": "",
          "type": "tuple"
        }
      ],
      "stateMutability": "view",
      "type": "function"
    },
    {
      "inputs": [
        {
          "internalType": "address",
          "name": "state",
          "type": "address"
        }
      ],
      "name": "initialize",
      "outputs": [],
      "stateMutability": "nonpayable",
      "type": "function"
    },
    {
      "inputs": [
        {
          "internalType": "uint256[][]",
          "name": "nodes",
          "type": "uint256[][]"
        }
      ],
      "name": "saveNodes",
      "outputs": [],
      "stateMutability": "nonpayable",
      "type": "function"
    }
  ],
  "bytecode": "0x6080604052348015600e575f5ffd5b50611abf8061001c5f395ff3fe608060405234801561000f575f5ffd5b506004361061007b575f3560e01c8063879957f711610059578063879957f7146100fd578063aad7292114610119578063c4d66de814610149578063ffa1ad74146101655761007b565b8063110c96a71461007f5780634f0f4aa9146100af5780636d15867c146100df575b5f5ffd5b61009960048036038101906100949190610fac565b610183565b6040516100a691906111f5565b60405180910390f35b6100c960048036038101906100c49190611215565b610246565b6040516100d691906112ac565b60405180910390f35b6100e76102a8565b6040516100f491906112db565b60405180910390f35b61011760048036038101906101129190611522565b6102ad565b005b610133600480360381019061012e9190611569565b6102ca565b60405161014091906111f5565b60405180910390f35b610163600480360381019061015e9190611613565b6102e5565b005b61016d6104e2565b60405161017a919061169e565b60405180910390f35b61018b610e2f565b5f61019461051b565b5f015f9054906101000a900473ffffffffffffffffffffffffffffffffffffffff1673ffffffffffffffffffffffffffffffffffffffff1663b4bdea55856040518263ffffffff1660e01b81526004016101ee91906112db565b60e060405180830381865afa158015610209573d5f5f3e3d5ffd5b505050506040513d601f19601f8201168201806040525081019061022d9190611787565b60200151905061023d8184610542565b91505092915050565b60605f6102638361025561067d565b6106a490919063ffffffff16565b90505f81510361029f576040517f4825e09300000000000000000000000000000000000000000000000000000000815260040160405180910390fd5b80915050919050565b602881565b6102c7816102b961067d565b61070d90919063ffffffff16565b50565b6102d2610e2f565b6102dc8383610542565b90509392505050565b5f6102ee6107b7565b90505f815f0160089054906101000a900460ff161590505f825f015f9054906101000a900467ffffffffffffffff1690505f5f8267ffffffffffffffff161480156103365750825b90505f60018367ffffffffffffffff1614801561036957505f3073ffffffffffffffffffffffffffffffffffffffff163b145b905081158015610377575080155b156103ae576040517ff92ee8a900000000000000000000000000000000000000000000000000000000815260040160405180910390fd5b6001855f015f6101000a81548167ffffffffffffffff021916908367ffffffffffffffff16021790555083156103fb576001855f0160086101000a81548160ff0219169083151502179055505b5f61040461051b565b90505f61040f61067d565b905087825f015f6101000a81548173ffffffffffffffffffffffffffffffffffffffff021916908373ffffffffffffffffffffffffffffffffffffffff1602179055506107ca816001015f6101000a81548167ffffffffffffffff021916908367ffffffffffffffff160217905550505083156104da575f855f0160086101000a81548160ff0219169083151502179055507fc7f505b2f371ae2175ee4913f4499e1f2633a7b5936321eed1cdaeb6115181d260016040516104d191906117f4565b60405180910390a15b505050505050565b6040518060400160405280600581526020017f312e312e3000000000000000000000000000000000000000000000000000000081525081565b5f7f95ca427007e091a13a7ccfcb233b8a2ed19d987330a248c445b1b483a35bb800905090565b61054a610e2f565b5f61055484610246565b90506003600481111561056a5761056961180d565b5b610573826109c1565b60048111156105855761058461180d565b5b146105bc576040517f90cb1da300000000000000000000000000000000000000000000000000000000815260040160405180910390fd5b5f60405180604001604052806040518060800160405280888152602001855f815181106105ec576105eb61183a565b5b602002602001015181526020018560018151811061060d5761060c61183a565b5b602002602001015181526020018560028151811061062e5761062d61183a565b5b6020026020010151815250815260200161066d846001815181106106555761065461183a565b5b60200260200101518767ffffffffffffffff16610a3a565b8152509050809250505092915050565b5f7f0f7e3bdc6cc0e880d509aa1f6b8d1a88e5fcb7274e18dfba772424a36fe9b400905090565b6060825f015f8381526020019081526020015f2080548060200260200160405190810160405280929190818152602001828054801561070057602002820191905f5260205f20905b8154815260200190600101908083116106ec575b5050505050905092915050565b5f5f90505b81518110156107b2575f6107618383815181106107325761073161183a565b5b6020026020010151856001015f9054906101000a90048015610e55021767ffffffffffffffff1663ffffffff16565b90508282815181106107765761077561183a565b5b6020026020010151845f015f8381526020019081526020015f2090805190602001906107a3929190610e5f565b50508080600101915050610712565b505050565b5f5f6107c1610e06565b90508091505090565b5f600282510361089a5773__$53301c79d9832e9ed47fa4e9b64c5749d6$__6329a5f2f66040518060400160405280855f8151811061080c5761080b61183a565b5b602002602001015181526020018560018151811061082d5761082c61183a565b5b60200260200101518152506040518263ffffffff1660e01b8152600401610854919061190c565b602060405180830381865af415801561086f573d5f5f3e3d5ffd5b505050506040513d601f19601f820116820180604052508101906108939190611925565b90506109bc565b600382510361098a5773__$4e31a1067af539af00e032cb1606aaaa51$__6325cc70e86040518060600160405280855f815181106108db576108da61183a565b5b60200260200101518152602001856001815181106108fc576108fb61183a565b5b602002602001015181526020018560028151811061091d5761091c61183a565b5b60200260200101518152506040518263ffffffff1660e01b815260040161094491906119cf565b602060405180830381865af415801561095f573d5f5f3e3d5ffd5b505050506040513d601f19601f820116820180604052508101906109839190611925565b90506109bc565b6040517f1747868100000000000000000000000000000000000000000000000000000000815260040160405180910390fd5b919050565b5f60028251036109d45760019050610a35565b60038251148015610a0057506001826002815181106109f6576109f561183a565b5b6020026020010151145b15610a0e5760029050610a35565b6003825103610a205760039050610a35565b5f825103610a315760049050610a35565b5f90505b919050565b610a42610eaa565b5f602867ffffffffffffffff811115610a5e57610a5d611308565b5b604051908082528060200260200182016040528015610a8c5781602001602082028036833780820191505090505b5090505f5f90505b6028811015610aca575f828281518110610ab157610ab061183a565b5b6020026020010181815250508080600101915050610a94565b505f6040518061010001604052808681526020015f151581526020018381526020018581526020015f81526020015f151581526020015f81526020015f81525090505f85905060605f610b1b61067d565b90505f5f90505b60288111610df757815f015f8581526020019081526020015f20805480602002602001604051908101604052809291908181526020018280548015610b8457602002820191905f5260205f20905b815481526020019060010190808311610b70575b505050505092505f610b95846109c1565b9050600480811115610baa57610ba961180d565b5b816004811115610bbd57610bbc61180d565b5b03610bc85750610df7565b60026004811115610bdc57610bdb61180d565b5b816004811115610bef57610bee61180d565b5b03610cb15788845f81518110610c0857610c0761183a565b5b602002602001015103610c5157600186602001901515908115158152505083600181518110610c3a57610c3961183a565b5b602002602001015186608001818152505050610df7565b60018660a0019015159081151581525050835f81518110610c7557610c7461183a565b5b60200260200101518660c001818152505083600181518110610c9a57610c9961183a565b5b60200260200101518660e001818152505050610df7565b60016004811115610cc557610cc461180d565b5b816004811115610cd857610cd761180d565b5b03610db157600180838860600151901c1603610d4f5783600181518110610d0257610d0161183a565b5b60200260200101519450835f81518110610d1f57610d1e61183a565b5b602002602001015186604001518381518110610d3e57610d3d61183a565b5b602002602001018181525050610dac565b835f81518110610d6257610d6161183a565b5b6020026020010151945083600181518110610d8057610d7f61183a565b5b602002602001015186604001518381518110610d9f57610d9e61183a565b5b6020026020010181815250505b610de3565b6040517f740148ad00000000000000000000000000000000000000000000000000000000815260040160405180910390fd5b508080610def90611a15565b915050610b22565b50839550505050505092915050565b5f7ff0c57e16840df040f15088dc2f81fe391c3923bec73e23a9662efc9c229c6a005f1b905090565b6040518060400160405280610e42610eec565b8152602001610e4f610eaa565b81525090565b610e5d611a5c565b565b828054828255905f5260205f20908101928215610e99579160200282015b82811115610e98578251825591602001919060010190610e7d565b5b509050610ea69190610f10565b5090565b6040518061010001604052805f81526020015f15158152602001606081526020015f81526020015f81526020015f151581526020015f81526020015f81525090565b60405180608001604052805f81526020015f81526020015f81526020015f81525090565b5b80821115610f27575f815f905550600101610f11565b5090565b5f604051905090565b5f5ffd5b5f5ffd5b5f819050919050565b610f4e81610f3c565b8114610f58575f5ffd5b50565b5f81359050610f6981610f45565b92915050565b5f67ffffffffffffffff82169050919050565b610f8b81610f6f565b8114610f95575f5ffd5b50565b5f81359050610fa681610f82565b92915050565b5f5f60408385031215610fc257610fc1610f34565b5b5f610fcf85828601610f5b565b9250506020610fe085828601610f98565b9150509250929050565b610ff381610f3c565b82525050565b608082015f82015161100d5f850182610fea565b5060208201516110206020850182610fea565b5060408201516110336040850182610fea565b5060608201516110466060850182610fea565b50505050565b5f8115159050919050565b6110608161104c565b82525050565b5f81519050919050565b5f82825260208201905092915050565b5f819050602082019050919050565b5f61109a8383610fea565b60208301905092915050565b5f602082019050919050565b5f6110bc82611066565b6110c68185611070565b93506110d183611080565b805f5b838110156111015781516110e8888261108f565b97506110f3836110a6565b9250506001810190506110d4565b5085935050505092915050565b5f61010083015f8301516111245f860182610fea565b5060208301516111376020860182611057565b506040830151848203604086015261114f82826110b2565b91505060608301516111646060860182610fea565b5060808301516111776080860182610fea565b5060a083015161118a60a0860182611057565b5060c083015161119d60c0860182610fea565b5060e08301516111b060e0860182610fea565b508091505092915050565b5f60a083015f8301516111d05f860182610ff9565b50602083015184820360808601526111e8828261110e565b9150508091505092915050565b5f6020820190508181035f83015261120d81846111bb565b905092915050565b5f6020828403121561122a57611229610f34565b5b5f61123784828501610f5b565b91505092915050565b5f82825260208201905092915050565b5f61125a82611066565b6112648185611240565b935061126f83611080565b805f5b8381101561129f578151611286888261108f565b9750611291836110a6565b925050600181019050611272565b5085935050505092915050565b5f6020820190508181035f8301526112c48184611250565b905092915050565b6112d581610f3c565b82525050565b5f6020820190506112ee5f8301846112cc565b92915050565b5f5ffd5b5f601f19601f8301169050919050565b7f4e487b71000000000000000000000000000000000000000000000000000000005f52604160045260245ffd5b61133e826112f8565b810181811067ffffffffffffffff8211171561135d5761135c611308565b5b80604052505050565b5f61136f610f2b565b905061137b8282611335565b919050565b5f67ffffffffffffffff82111561139a57611399611308565b5b602082029050602081019050919050565b5f5ffd5b5f67ffffffffffffffff8211156113c9576113c8611308565b5b602082029050602081019050919050565b5f6113ec6113e7846113af565b611366565b9050808382526020820190506020840283018581111561140f5761140e6113ab565b5b835b8181101561143857806114248882610f5b565b845260208401935050602081019050611411565b5050509392505050565b5f82601f830112611456576114556112f4565b5b81356114668482602086016113da565b91505092915050565b5f61148161147c84611380565b611366565b905080838252602082019050602084028301858111156114a4576114a36113ab565b5b835b818110156114eb57803567ffffffffffffffff8111156114c9576114c86112f4565b5b8086016114d68982611442565b855260208501945050506020810190506114a6565b5050509392505050565b5f82601f830112611509576115086112f4565b5b813561151984826020860161146f565b91505092915050565b5f6020828403121561153757611536610f34565b5b5f82013567ffffffffffffffff81111561155457611553610f38565b5b611560848285016114f5565b91505092915050565b5f5f5f606084860312156115805761157f610f34565b5b5f61158d86828701610f5b565b935050602061159e86828701610f5b565b92505060406115af86828701610f98565b9150509250925092565b5f73ffffffffffffffffffffffffffffffffffffffff82169050919050565b5f6115e2826115b9565b9050919050565b6115f2816115d8565b81146115fc575f5ffd5b50565b5f8135905061160d816115e9565b92915050565b5f6020828403121561162857611627610f34565b5b5f611635848285016115ff565b91505092915050565b5f81519050919050565b5f82825260208201905092915050565b8281835e5f83830152505050565b5f6116708261163e565b61167a8185611648565b935061168a818560208601611658565b611693816112f8565b840191505092915050565b5f6020820190508181035f8301526116b68184611666565b905092915050565b5f5ffd5b5f815190506116d081610f45565b92915050565b5f60e082840312156116eb576116ea6116be565b5b6116f560e0611366565b90505f611704848285016116c2565b5f830152506020611717848285016116c2565b602083015250604061172b848285016116c2565b604083015250606061173f848285016116c2565b6060830152506080611753848285016116c2565b60808301525060a0611767848285016116c2565b60a08301525060c061177b848285016116c2565b60c08301525092915050565b5f60e0828403121561179c5761179b610f34565b5b5f6117a9848285016116d6565b91505092915050565b5f819050919050565b5f819050919050565b5f6117de6117d96117d4846117b2565b6117bb565b610f6f565b9050919050565b6117ee816117c4565b82525050565b5f6020820190506118075f8301846117e5565b92915050565b7f4e487b71000000000000000000000000000000000000000000000000000000005f52602160045260245ffd5b7f4e487b71000000000000000000000000000000000000000000000000000000005f52603260045260245ffd5b5f60029050919050565b5f81905092915050565b5f819050919050565b61188d81610f3c565b82525050565b5f61189e8383611884565b60208301905092915050565b5f602082019050919050565b6118bf81611867565b6118c98184611871565b92506118d48261187b565b805f5b838110156119045781516118eb8782611893565b96506118f6836118aa565b9250506001810190506118d7565b505050505050565b5f60408201905061191f5f8301846118b6565b92915050565b5f6020828403121561193a57611939610f34565b5b5f611947848285016116c2565b91505092915050565b5f60039050919050565b5f81905092915050565b5f819050919050565b5f602082019050919050565b61198281611950565b61198c818461195a565b925061199782611964565b805f5b838110156119c75781516119ae8782611893565b96506119b98361196d565b92505060018101905061199a565b505050505050565b5f6060820190506119e25f830184611979565b92915050565b7f4e487b71000000000000000000000000000000000000000000000000000000005f52601160045260245ffd5b5f611a1f82610f3c565b91507fffffffffffffffffffffffffffffffffffffffffffffffffffffffffffffffff8203611a5157611a506119e8565b5b600182019050919050565b7f4e487b71000000000000000000000000000000000000000000000000000000005f52605160045260245ffdfea264697066735822122010e7ae726fe4daefe3b4bc34c7c2adc6b3b04f8ee74a09ea61c8681f1269781e64736f6c634300081b0033",
  "linkReferences": {
    "project/contracts/lib/Poseidon.sol": {
      "PoseidonUnit2L": [
        {
          "length": 20,
          "start": 2034
        }
      ],
      "PoseidonUnit3L": [
        {
          "length": 20,
          "start": 2241
        }
      ]
    }
  },
  "deployedLinkReferences": {
    "project/contracts/lib/Poseidon.sol": {
      "PoseidonUnit2L": [
        {
          "length": 20,
          "start": 2006
        }
      ],
      "PoseidonUnit3L": [
        {
          "length": 20,
          "start": 2213
        }
      ]
    }
  },
  "immutableReferences": {},
  "inputSourceName": "project/contracts/identitytreestore/IdentityTreeStore.sol",
  "buildInfoId": "solc-0_8_27-ea14d5db4890f54206f16cf8a38faca860a752c5"
}