{
  "_format": "hh-sol-artifact-1",
  "contractName": "PoseidonUnit3L",
  "sourceName": "contracts/lib/Poseidon.sol",
  "abi": [
    {
      "inputs": [
        {
          "internalType": "uint256[3]",
          "name": "",
          "type": "uint256[3]"
        }
      ],
      "name": "poseidon",
      "outputs": [
        {
          "internalType": "uint256",
          "name": "",
          "type": "uint256"
        }
      ],
      "stateMutability": "pure",
      "type": "function"
    }
  ],
  "bytecode": "0x610120610052600b82828239805160001a6073146045577f4e487b7100000000000000000000000000000000000000000000000000000000600052600060045260246000fd5b30600052607381538281f3fe730000000000000000000000000000000000000000301460806040526004361060335760003560e01c806325cc70e8146038575b600080fd5b604e6004803603810190604a91906092565b6062565b6040516059919060d1565b60405180910390f35b6000919050565b600080fd5b600080fd5b600081905082602060030282011115608c57608b606e565b5b92915050565b60006060828403121560a55760a46069565b5b600060b1848285016073565b91505092915050565b6000819050919050565b60cb8160ba565b82525050565b600060208201905060e4600083018460c4565b9291505056fea264697066735822122082fdfab35b2646566a9a4a673b3caa59ffc04dfb1d2548cf290674f5e6053eeb64736f6c634300081b0033",
  "linkReferences": {},
  "deployedLinkReferences": {}
}