{
  "_format": "hh3-artifact-1",
  "contractName": "MCPayment",
  "sourceName": "contracts/payment/MCPayment.sol",
  "abi": [
    {
      "inputs": [],
      "stateMutability": "nonpayable",
      "type": "constructor"
    },
    {
      "inputs": [],
      "name": "ECDSAInvalidSignatureLength",
      "type": "error"
    },
    {
      "inputs": [],
      "name": "InsufficientAllowanceOnPermit",
      "type": "error"
    },
    {
      "inputs": [],
      "name": "InvalidInitialization",
      "type": "error"
    },
    {
      "inputs": [],
      "name": "InvalidOwnerPercentage",
      "type": "error"
    },
    {
      "inputs": [],
      "name": "InvalidSignature",
      "type": "error"
    },
    {
      "inputs": [],
      "name": "NotInitializing",
      "type": "error"
    },
    {
      "inputs": [
        {
          "internalType": "address",
          "name": "owner",
          "type": "address"
        }
      ],
      "name": "OwnableInvalidOwner",
      "type": "error"
    },
    {
      "inputs": [
        {
          "internalType": "address",
          "name": "account",
          "type": "address"
        }
      ],
      "name": "OwnableUnauthorizedAccount",
      "type": "error"
    },
    {
      "inputs": [
        {
          "internalType": "address",
          "name": "recipient",
          "type": "address"
        },
        {
          "internalType": "uint256",
          "name": "nonce",
          "type": "uint256"
        },
        {
          "internalType": "string",
          "name": "message",
          "type": "string"
        }
      ],
      "name": "PaymentError",
      "type": "error"
    },
    {
      "inputs": [],
      "name": "ReentrancyGuardReentrantCall",
      "type": "error"
    },
    {
      "inputs": [
        {
          "internalType": "address",
          "name": "token",
          "type": "address"
        }
      ],
      "name": "SafeERC20FailedOperation",
      "type": "error"
    },
    {
      "inputs": [],
      "name": "WithdrawError",
      "type": "error"
    },
    {
      "inputs": [],
      "name": "WithdrawErrorInvalidAddress",
      "type": "error"
    },
    {
      "inputs": [],
      "name": "WithdrawErrorNoBalance",
      "type": "error"
    },
    {
      "anonymous": false,
      "inputs": [],
      "name": "EIP712DomainChanged",
      "type": "event"
    },
    {
      "anonymous": false,
      "inputs": [
        {
          "indexed": false,
          "internalType": "uint64",
          "name": "version",
          "type": "uint64"
        }
      ],
      "name": "Initialized",
      "type": "event"
    },
    {
      "anonymous": false,
      "inputs": [
        {
          "indexed": true,
          "internalType": "address",
          "name": "previousOwner",
          "type": "address"
        },
        {
          "indexed": true,
          "internalType": "address",
          "name": "newOwner",
          "type": "address"
        }
      ],
      "name": "OwnershipTransferStarted",
      "type": "event"
    },
    {
      "anonymous": false,
      "inputs": [
        {
          "indexed": true,
          "internalType": "address",
          "name": "previousOwner",
          "type": "address"
        },
        {
          "indexed": true,
          "internalType": "address",
          "name": "newOwner",
          "type": "address"
        }
      ],
      "name": "OwnershipTransferred",
      "type": "event"
    },
    {
      "anonymous": false,
      "inputs": [
        {
          "indexed": true,
          "internalType": "address",
          "name": "recipient",
          "type": "address"
        },
        {
          "indexed": true,
          "internalType": "uint256",
          "name": "nonce",
          "type": "uint256"
        }
      ],
      "name": "Payment",
      "type": "event"
    },
    {
      "inputs": [],
      "name": "DOMAIN_VERSION",
      "outputs": [
        {
          "internalType": "string",
          "name": "",
          "type": "string"
        }
      ],
      "stateMutability": "view",
      "type": "function"
    },
    {
      "inputs": [],
      "name": "ERC_20_PAYMENT_DATA_TYPE_HASH",
      "outputs": [
        {
          "internalType": "bytes32",
          "name": "",
          "type": "bytes32"
        }
      ],
      "stateMutability": "view",
      "type": "function"
    },
    {
      "inputs": [],
      "name": "PAYMENT_DATA_TYPE_HASH",
      "outputs": [
        {
          "internalType": "bytes32",
          "name": "",
          "type": "bytes32"
        }
      ],
      "stateMutability": "view",
      "type": "function"
    },
    {
      "inputs": [],
      "name": "VERSION",
      "outputs": [
        {
          "internalType": "string",
          "name": "",
          "type": "string"
        }
      ],
      "stateMutability": "view",
      "type": "function"
    },
    {
      "inputs": [],
      "name": "acceptOwnership",
      "outputs": [],
      "stateMutability": "nonpayable",
      "type": "function"
    },
    {
      "inputs": [],
      "name": "eip712Domain",
      "outputs": [
        {
          "internalType": "bytes1",
          "name": "fields",
          "type": "bytes1"
        },
        {
          "internalType": "string",
          "name": "name",
          "type": "string"
        },
        {
          "internalType": "string",
          "name": "version",
          "type": "string"
        },
        {
          "internalType": "uint256",
          "name": "chainId",
          "type": "uint256"
        },
        {
          "internalType": "address",
          "name": "verifyingContract",
          "type": "address"
        },
        {
          "internalType": "bytes32",
          "name": "salt",
          "type": "bytes32"
        },
        {
          "internalType": "uint256[]",
          "name": "extensions",
          "type": "uint256[]"
        }
      ],
      "stateMutability": "view",
      "type": "function"
    },
    {
      "inputs": [
        {
          "internalType": "address",
          "name": "issuer",
          "type": "address"
        }
      ],
      "name": "getBalance",
      "outputs": [
        {
          "internalType": "uint256",
          "name": "",
          "type": "uint256"
        }
      ],
      "stateMutability": "view",
      "type": "function"
    },
    {
      "inputs": [
        {
          "internalType": "address",
          "name": "recipient",
          "type": "address"
        }
      ],
      "name": "getIssuerOwnerPercentage",
      "outputs": [
        {
          "internalType": "uint8",
          "name": "",
          "type": "uint8"
        }
      ],
      "stateMutability": "view",
      "type": "function"
    },
    {
      "inputs": [],
      "name": "getOwnerBalance",
      "outputs": [
        {
          "internalType": "uint256",
          "name": "",
          "type": "uint256"
        }
      ],
      "stateMutability": "view",
      "type": "function"
    },
    {
      "inputs": [
        {
          "internalType": "address",
          "name": "token",
          "type": "address"
        }
      ],
      "name": "getOwnerERC20Balance",
      "outputs": [
        {
          "internalType": "uint256",
          "name": "",
          "type": "uint256"
        }
      ],
      "stateMutability": "view",
      "type": "function"
    },
    {
      "inputs": [],
      "name": "getOwnerPercentage",
      "outputs": [
        {
          "internalType": "uint8",
          "name": "",
          "type": "uint8"
        }
      ],
      "stateMutability": "view",
      "type": "function"
    },
    {
      "inputs": [
        {
          "internalType": "address",
          "name": "owner",
          "type": "address"
        },
        {
          "internalType": "uint8",
          "name": "ownerPercentage",
          "type": "uint8"
        }
      ],
      "name": "initialize",
      "outputs": [],
      "stateMutability": "nonpayable",
      "type": "function"
    },
    {
      "inputs": [
        {
          "internalType": "address",
          "name": "issuer",
          "type": "address"
        },
        {
          "internalType": "uint256",
          "name": "nonce",
          "type": "uint256"
        }
      ],
      "name": "isPaymentDone",
      "outputs": [
        {
          "internalType": "bool",
          "name": "",
          "type": "bool"
        }
      ],
      "stateMutability": "view",
      "type": "function"
    },
    {
      "inputs": [],
      "name": "issuerWithdraw",
      "outputs": [],
      "stateMutability": "nonpayable",
      "type": "function"
    },
    {
      "inputs": [],
      "name": "owner",
      "outputs": [
        {
          "internalType": "address",
          "name": "",
          "type": "address"
        }
      ],
      "stateMutability": "view",
      "type": "function"
    },
    {
      "inputs": [
        {
          "internalType": "address",
          "name": "token",
          "type": "address"
        }
      ],
      "name": "ownerERC20Withdraw",
      "outputs": [],
      "stateMutability": "nonpayable",
      "type": "function"
    },
    {
      "inputs": [],
      "name": "ownerWithdraw",
      "outputs": [],
      "stateMutability": "nonpayable",
      "type": "function"
    },
    {
      "inputs": [
        {
          "components": [
            {
              "internalType": "address",
              "name": "recipient",
              "type": "address"
            },
            {
              "internalType": "uint256",
              "name": "amount",
              "type": "uint256"
            },
            {
              "internalType": "uint256",
              "name": "expirationDate",
              "type": "uint256"
            },
            {
              "internalType": "uint256",
              "name": "nonce",
              "type": "uint256"
            },
            {
              "internalType": "bytes",
              "name": "metadata",
              "type": "bytes"
            }
          ],
          "internalType": "struct MCPayment.Iden3PaymentRailsRequestV1",
          "name": "paymentData",
          "type": "tuple"
        },
        {
          "internalType": "bytes",
          "name": "signature",
          "type": "bytes"
        }
      ],
      "name": "pay",
      "outputs": [],
      "stateMutability": "payable",
      "type": "function"
    },
    {
      "inputs": [
        {
          "components": [
            {
              "internalType": "address",
              "name": "tokenAddress",
              "type": "address"
            },
            {
              "internalType": "address",
              "name": "recipient",
              "type": "address"
            },
            {
              "internalType": "uint256",
              "name": "amount",
              "type": "uint256"
            },
            {
              "internalType": "uint256",
              "name": "expirationDate",
              "type": "uint256"
            },
            {
              "internalType": "uint256",
              "name": "nonce",
              "type": "uint256"
            },
            {
              "internalType": "bytes",
              "name": "metadata",
              "type": "bytes"
            }
          ],
          "internalType": "struct MCPayment.Iden3PaymentRailsERC20RequestV1",
          "name": "paymentData",
          "type": "tuple"
        },
        {
          "internalType": "bytes",
          "name": "signature",
          "type": "bytes"
        }
      ],
      "name": "payERC20",
      "outputs": [],
      "stateMutability": "nonpayable",
      "type": "function"
    },
    {
      "inputs": [
        {
          "internalType": "bytes",
          "name": "permitSignature",
          "type": "bytes"
        },
        {
          "components": [
            {
              "internalType": "address",
              "name": "tokenAddress",
              "type": "address"
            },
            {
              "internalType": "address",
              "name": "recipient",
              "type": "address"
            },
            {
              "internalType": "uint256",
              "name": "amount",
              "type": "uint256"
            },
            {
              "internalType": "uint256",
              "name": "expirationDate",
              "type": "uint256"
            },
            {
              "internalType": "uint256",
              "name": "nonce",
              "type": "uint256"
            },
            {
              "internalType": "bytes",
              "name": "metadata",
              "type": "bytes"
            }
          ],
          "internalType": "struct MCPayment.Iden3PaymentRailsERC20RequestV1",
          "name": "paymentData",
          "type": "tuple"
        },
        {
          "internalType": "bytes",
          "name": "signature",
          "type": "bytes"
        }
      ],
      "name": "payERC20Permit",
      "outputs": [],
      "stateMutability": "nonpayable",
      "type": "function"
    },
    {
      "inputs": [],
      "name": "pendingOwner",
      "outputs": [
        {
          "internalType": "address",
          "name": "",
          "type": "address"
        }
      ],
      "stateMutability": "view",
      "type": "function"
    },
    {
      "inputs": [
        {
          "components": [
            {
              "internalType": "address",
              "name": "tokenAddress",
              "type": "address"
            },
            {
              "internalType": "address",
              "name": "recipient",
              "type": "address"
            },
            {
              "internalType": "uint256",
              "name": "amount",
              "type": "uint256"
            },
            {
              "internalType": "uint256",
              "name": "expirationDate",
              "type": "uint256"
            },
            {
              "internalType": "uint256",
              "name": "nonce",
              "type": "uint256"
            },
            {
              "internalType": "bytes",
              "name": "metadata",
              "type": "bytes"
            }
          ],
          "internalType": "struct MCPayment.Iden3PaymentRailsERC20RequestV1",
          "name": "paymentData",
          "type": "tuple"
        },
        {
          "internalType": "bytes",
          "name": "signature",
          "type": "bytes"
        }
      ],
      "name": "recoverIden3PaymentRailsERC20RequestV1Signature",
      "outputs": [
        {
          "internalType": "address",
          "name": "",
          "type": "address"
        }
      ],
      "stateMutability": "view",
      "type": "function"
    },
    {
      "inputs": [
        {
          "components": [
            {
              "internalType": "address",
              "name": "recipient",
              "type": "address"
            },
            {
              "internalType": "uint256",
              "name": "amount",
              "type": "uint256"
            },
            {
              "internalType": "uint256",
              "name": "expirationDate",
              "type": "uint256"
            },
            {
              "internalType": "uint256",
              "name": "nonce",
              "type": "uint256"
            },
            {
              "internalType": "bytes",
              "name": "metadata",
              "type": "bytes"
            }
          ],
          "internalType": "struct MCPayment.Iden3PaymentRailsRequestV1",
          "name": "paymentData",
          "type": "tuple"
        },
        {
          "internalType": "bytes",
          "name": "signature",
          "type": "bytes"
        }
      ],
      "name": "recoverIden3PaymentRailsRequestV1Signature",
      "outputs": [
        {
          "internalType": "address",
          "name": "",
          "type": "address"
        }
      ],
      "stateMutability": "view",
      "type": "function"
    },
    {
      "inputs": [],
      "name": "renounceOwnership",
      "outputs": [],
      "stateMutability": "nonpayable",
      "type": "function"
    },
    {
      "inputs": [
        {
          "internalType": "address",
          "name": "newOwner",
          "type": "address"
        }
      ],
      "name": "transferOwnership",
      "outputs": [],
      "stateMutability": "nonpayable",
      "type": "function"
    },
    {
      "inputs": [
        {
          "internalType": "address",
          "name": "recipient",
          "type": "address"
        },
        {
          "internalType": "uint8",
          "name": "ownerPercentage",
          "type": "uint8"
        }
      ],
      "name": "updateIssuerOwnerPercentage",
      "outputs": [],
      "stateMutability": "nonpayable",
      "type": "function"
    },
    {
      "inputs": [
        {
          "internalType": "uint8",
          "name": "ownerPercentage",
          "type": "uint8"
        }
      ],
      "name": "updateOwnerPercentage",
      "outputs": [],
      "stateMutability": "nonpayable",
      "type": "function"
    }
  ],
  "bytecode": "0x608060405234801561000f575f5ffd5b5061001e61002360201b60201c565b61019e565b5f61003261012160201b60201c565b9050805f0160089054906101000a900460ff161561007c576040517ff92ee8a900000000000000000000000000000000000000000000000000000000815260040160405180910390fd5b67ffffffffffffffff8016815f015f9054906101000a900467ffffffffffffffff1667ffffffffffffffff161461011e5767ffffffffffffffff815f015f6101000a81548167ffffffffffffffff021916908367ffffffffffffffff1602179055507fc7f505b2f371ae2175ee4913f4499e1f2633a7b5936321eed1cdaeb6115181d267ffffffffffffffff6040516101159190610185565b60405180910390a15b50565b5f5f61013161013a60201b60201c565b90508091505090565b5f7ff0c57e16840df040f15088dc2f81fe391c3923bec73e23a9662efc9c229c6a005f1b905090565b5f67ffffffffffffffff82169050919050565b61017f81610163565b82525050565b5f6020820190506101985f830184610176565b92915050565b6138c9806101ab5f395ff3fe60806040526004361061019b575f3560e01c8063aa021669116100eb578063dbe295e711610089578063f0dd689911610063578063f0dd68991461055b578063f2fde38b14610585578063f8b2cb4f146105ad578063ffa1ad74146105e95761019b565b8063dbe295e7146104cd578063e30c397814610509578063ef0c4532146105335761019b565b8063c5fd08d1116100c5578063c5fd08d114610415578063c6bfaa3f14610451578063cbec75bb1461047b578063cc9cd961146104b75761019b565b8063aa02166914610393578063acb8cc49146103af578063c52f5c83146103d95761019b565b8063590791f21161015857806384b0196e1161013257806384b0196e146102d55780638da5cb5b14610305578063943b24b21461032f5780639d9c12b7146103575761019b565b8063590791f21461027f578063715018a6146102a957806379ba5097146102bf5761019b565b80630cea58aa1461019f5780631af6de2b146101c7578063309a042c146101ef5780633dbbdbe5146102195780634311de8f1461024157806357615a3a14610257575b5f5ffd5b3480156101aa575f5ffd5b506101c560048036038101906101c091906126e0565b610613565b005b3480156101d2575f5ffd5b506101ed60048036038101906101e89190612765565b610686565b005b3480156101fa575f5ffd5b50610203610788565b604051610210919061279f565b60405180910390f35b348015610224575f5ffd5b5061023f600480360381019061023a91906129e8565b6107ab565b005b34801561024c575f5ffd5b50610255610973565b005b348015610262575f5ffd5b5061027d60048036038101906102789190612a8c565b6109f9565b005b34801561028a575f5ffd5b50610293610a25565b6040516102a09190612b11565b60405180910390f35b3480156102b4575f5ffd5b506102bd610a44565b005b3480156102ca575f5ffd5b506102d3610a57565b005b3480156102e0575f5ffd5b506102e9610ae5565b6040516102fc9796959493929190612ca2565b60405180910390f35b348015610310575f5ffd5b50610319610bee565b6040516103269190612d24565b60405180910390f35b34801561033a575f5ffd5b5061035560048036038101906103509190612d3d565b610c23565b005b348015610362575f5ffd5b5061037d60048036038101906103789190612d7b565b610e89565b60405161038a9190612dd3565b60405180910390f35b6103ad60048036038101906103a89190612e91565b610ee5565b005b3480156103ba575f5ffd5b506103c3611174565b6040516103d09190612f07565b60405180910390f35b3480156103e4575f5ffd5b506103ff60048036038101906103fa9190612a8c565b6111ad565b60405161040c9190612d24565b60405180910390f35b348015610420575f5ffd5b5061043b60048036038101906104369190612e91565b611275565b6040516104489190612d24565b60405180910390f35b34801561045c575f5ffd5b50610465611337565b6040516104729190612f27565b60405180910390f35b348015610486575f5ffd5b506104a1600480360381019061049c9190612765565b61135b565b6040516104ae9190612b11565b60405180910390f35b3480156104c2575f5ffd5b506104cb6113e3565b005b3480156104d8575f5ffd5b506104f360048036038101906104ee9190612765565b611405565b604051610500919061279f565b60405180910390f35b348015610514575f5ffd5b5061051d6114d5565b60405161052a9190612d24565b60405180910390f35b34801561053e575f5ffd5b5061055960048036038101906105549190612d3d565b61150a565b005b348015610566575f5ffd5b5061056f611610565b60405161057c9190612f27565b60405180910390f35b348015610590575f5ffd5b506105ab60048036038101906105a69190612765565b611634565b005b3480156105b8575f5ffd5b506105d360048036038101906105ce9190612765565b6116ed565b6040516105e09190612b11565b60405180910390f35b3480156105f4575f5ffd5b506105fd611741565b60405161060a9190612f07565b60405180910390f35b61061b61177a565b8060ff16606481111561065a576040517f95bde96e00000000000000000000000000000000000000000000000000000000815260040160405180910390fd5b5f610663611801565b905082816002015f6101000a81548160ff021916908360ff160217905550505050565b61068e61177a565b610696611828565b5f8173ffffffffffffffffffffffffffffffffffffffff166370a08231306040518263ffffffff1660e01b81526004016106d09190612d24565b602060405180830381865afa1580156106eb573d5f5f3e3d5ffd5b505050506040513d601f19601f8201168201806040525081019061070f9190612f54565b90505f810361074a576040517f2c8d747600000000000000000000000000000000000000000000000000000000815260040160405180910390fd5b61077c610755610bee565b828473ffffffffffffffffffffffffffffffffffffffff1661187c9092919063ffffffff16565b506107856118fb565b50565b5f5f610792611801565b9050806002015f9054906101000a900460ff1691505090565b6107b3611828565b5f6107be8383611912565b90505f835f015190506041855114610802576040517f377d96dd00000000000000000000000000000000000000000000000000000000815260040160405180910390fd5b5f5f5f602088015192506040880151915060608801515f1a90508373ffffffffffffffffffffffffffffffffffffffff1663d505accf33308a604001518b606001518689896040518863ffffffff1660e01b81526004016108699796959493929190612f7f565b5f604051808303815f87803b158015610880575f5ffd5b505af1925050508015610891575060015b610956575f8473ffffffffffffffffffffffffffffffffffffffff1663dd62ed3e33306040518363ffffffff1660e01b81526004016108d1929190612fec565b602060405180830381865afa1580156108ec573d5f5f3e3d5ffd5b505050506040513d601f19601f820116820180604052508101906109109190612f54565b90508760400151811015610950576040517f7f46728400000000000000000000000000000000000000000000000000000000815260040160405180910390fd5b50610957565b5b6109618786611a25565b505050505061096e6118fb565b505050565b61097b61177a565b610983611828565b5f61098c611801565b90505f8160030154036109cb576040517f2c8d747600000000000000000000000000000000000000000000000000000000815260040160405180910390fd5b5f816003015490505f82600301819055506109ed816109e8610bee565b611b91565b50506109f76118fb565b565b610a01611828565b5f610a0c8383611912565b9050610a188382611a25565b50610a216118fb565b5050565b5f610a2e61177a565b5f610a37611801565b9050806003015491505090565b610a4c61177a565b610a555f611c9a565b565b5f610a60611cd7565b90508073ffffffffffffffffffffffffffffffffffffffff16610a816114d5565b73ffffffffffffffffffffffffffffffffffffffff1614610ad957806040517f118cdaa7000000000000000000000000000000000000000000000000000000008152600401610ad09190612d24565b60405180910390fd5b610ae281611c9a565b50565b5f6060805f5f5f60605f610af7611cde565b90505f5f1b815f0154148015610b1257505f5f1b8160010154145b610b51576040517f08c379a0000000000000000000000000000000000000000000000000000000008152600401610b489061305d565b60405180910390fd5b610b59611d05565b610b61611da3565b46305f5f1b5f67ffffffffffffffff811115610b8057610b7f6127d0565b5b604051908082528060200260200182016040528015610bae5781602001602082028036833780820191505090505b507f0f0000000000000000000000000000000000000000000000000000000000000095949392919097509750975097509750975097505090919293949596565b5f5f610bf8611e41565b9050805f015f9054906101000a900473ffffffffffffffffffffffffffffffffffffffff1691505090565b5f610c2c611e68565b90505f815f0160089054906101000a900460ff161590505f825f015f9054906101000a900467ffffffffffffffff1690505f5f8267ffffffffffffffff16148015610c745750825b90505f60018367ffffffffffffffff16148015610ca757505f3073ffffffffffffffffffffffffffffffffffffffff163b145b905081158015610cb5575080155b15610cec576040517ff92ee8a900000000000000000000000000000000000000000000000000000000815260040160405180910390fd5b6001855f015f6101000a81548167ffffffffffffffff021916908367ffffffffffffffff1602179055508315610d39576001855f0160086101000a81548160ff0219169083151502179055505b8560ff166064811115610d78576040517f95bde96e00000000000000000000000000000000000000000000000000000000815260040160405180910390fd5b5f610d81611801565b905087816002015f6101000a81548160ff021916908360ff160217905550610da889611e7b565b610e1c6040518060400160405280600981526020017f4d435061796d656e7400000000000000000000000000000000000000000000008152506040518060400160405280600581526020017f312e302e30000000000000000000000000000000000000000000000000000000815250611e8f565b610e24611ea5565b50508315610e80575f855f0160086101000a81548160ff0219169083151502179055507fc7f505b2f371ae2175ee4913f4499e1f2633a7b5936321eed1cdaeb6115181d26001604051610e7791906130d0565b60405180910390a15b50505050505050565b5f5f610e93611801565b9050805f015f8585604051602001610eac9291906130e9565b6040516020818303038152906040528051906020012081526020019081526020015f205f9054906101000a900460ff1691505092915050565b610eed611828565b5f610ef88383611275565b90505f818460600151604051602001610f129291906130e9565b6040516020818303038152906040528051906020012090505f610f33611801565b9050805f015f8381526020019081526020015f205f9054906101000a900460ff1615610f9f57845f015185606001516040517fa7758488000000000000000000000000000000000000000000000000000000008152600401610f9692919061315a565b60405180910390fd5b34856020015114610ff057845f015185606001516040517fa7758488000000000000000000000000000000000000000000000000000000008152600401610fe79291906131de565b60405180910390fd5b428560400151101561104257845f015185606001516040517fa7758488000000000000000000000000000000000000000000000000000000008152600401611039929190613262565b60405180910390fd5b5f61104f865f0151611405565b90505f60648260ff163461106391906132c9565b61106d9190613337565b90505f813461107c9190613367565b905080846001015f8a5f015173ffffffffffffffffffffffffffffffffffffffff1673ffffffffffffffffffffffffffffffffffffffff1681526020019081526020015f205f8282546110cf919061339a565b9250508190555081846003015f8282546110e9919061339a565b9250508190555087606001518673ffffffffffffffffffffffffffffffffffffffff167fd4f43975feb89f48dd30cabbb32011045be187d1e11c8ea9faa43efc3528251960405160405180910390a36001845f015f8781526020019081526020015f205f6101000a81548160ff0219169083151502179055505050505050506111706118fb565b5050565b6040518060400160405280600581526020017f312e302e3000000000000000000000000000000000000000000000000000000081525081565b5f5f7f9ee4c216116cee4389c2d10394489895776e570cfad57a54ddc9f2d5a2f462b4845f015185602001518660400151876060015188608001518960a001518051906020012060405160200161120a97969594939291906133cd565b6040516020818303038152906040528051906020012090505f5f61122e8386611eb7565b9150915081611269576040517f8baa579f00000000000000000000000000000000000000000000000000000000815260040160405180910390fd5b80935050505092915050565b5f5f7f7d9b223c9f364814bf77fd331ce600482bed3df6cd9a9f7c4fec9cb56d046a12845f01518560200151866040015187606001518860800151805190602001206040516020016112cc9695949392919061343a565b6040516020818303038152906040528051906020012090505f5f6112f08386611eb7565b915091508161132b576040517f8baa579f00000000000000000000000000000000000000000000000000000000815260040160405180910390fd5b80935050505092915050565b7f9ee4c216116cee4389c2d10394489895776e570cfad57a54ddc9f2d5a2f462b481565b5f61136461177a565b8173ffffffffffffffffffffffffffffffffffffffff166370a08231306040518263ffffffff1660e01b815260040161139d9190612d24565b602060405180830381865afa1580156113b8573d5f5f3e3d5ffd5b505050506040513d601f19601f820116820180604052508101906113dc9190612f54565b9050919050565b6113eb611828565b6113fb6113f6611cd7565b611f15565b6114036118fb565b565b5f5f61140f611801565b90505f816004015f8573ffffffffffffffffffffffffffffffffffffffff1673ffffffffffffffffffffffffffffffffffffffff1681526020019081526020015f205f9054906101000a900460ff1690508061147f57816002015f9054906101000a900460ff16925050506114d0565b816005015f8573ffffffffffffffffffffffffffffffffffffffff1673ffffffffffffffffffffffffffffffffffffffff1681526020019081526020015f205f9054906101000a900460ff16925050505b919050565b5f5f6114df611fef565b9050805f015f9054906101000a900473ffffffffffffffffffffffffffffffffffffffff1691505090565b61151261177a565b8060ff166064811115611551576040517f95bde96e00000000000000000000000000000000000000000000000000000000815260040160405180910390fd5b5f61155a611801565b905082816005015f8673ffffffffffffffffffffffffffffffffffffffff1673ffffffffffffffffffffffffffffffffffffffff1681526020019081526020015f205f6101000a81548160ff021916908360ff1602179055506001816004015f8673ffffffffffffffffffffffffffffffffffffffff1673ffffffffffffffffffffffffffffffffffffffff1681526020019081526020015f205f6101000a81548160ff02191690831515021790555050505050565b7f7d9b223c9f364814bf77fd331ce600482bed3df6cd9a9f7c4fec9cb56d046a1281565b61163c61177a565b5f611645611fef565b905081815f015f6101000a81548173ffffffffffffffffffffffffffffffffffffffff021916908373ffffffffffffffffffffffffffffffffffffffff1602179055508173ffffffffffffffffffffffffffffffffffffffff166116a7610bee565b73ffffffffffffffffffffffffffffffffffffffff167f38d16b8cac22d99fc7c124b9cd0de2d3fa1faef420bfe791d8c362d765e2270060405160405180910390a35050565b5f5f6116f7611801565b9050806001015f8473ffffffffffffffffffffffffffffffffffffffff1673ffffffffffffffffffffffffffffffffffffffff1681526020019081526020015f2054915050919050565b6040518060400160405280600581526020017f312e302e3700000000000000000000000000000000000000000000000000000081525081565b611782611cd7565b73ffffffffffffffffffffffffffffffffffffffff166117a0610bee565b73ffffffffffffffffffffffffffffffffffffffff16146117ff576117c3611cd7565b6040517f118cdaa70000000000000000000000000000000000000000000000000000000081526004016117f69190612d24565b60405180910390fd5b565b5f7f843c93f996398391e581389b674681e6ea27a4f9a96390a9d8ecb41cf0226300905090565b5f611831612016565b90506002815f015403611870576040517f3ee5aeb500000000000000000000000000000000000000000000000000000000815260040160405180910390fd5b6002815f018190555050565b6118f6838473ffffffffffffffffffffffffffffffffffffffff1663a9059cbb85856040516024016118af9291906130e9565b604051602081830303815290604052915060e01b6020820180517bffffffffffffffffffffffffffffffffffffffffffffffffffffffff838183161783525050505061203d565b505050565b5f611904612016565b90506001815f018190555050565b5f5f61191e84846111ad565b90505f8185608001516040516020016119389291906130e9565b6040516020818303038152906040528051906020012090505f611959611801565b9050805f015f8381526020019081526020015f205f9054906101000a900460ff16156119c657856020015186608001516040517fa77584880000000000000000000000000000000000000000000000000000000081526004016119bd92919061315a565b60405180910390fd5b4286606001511015611a1957856020015186608001516040517fa7758488000000000000000000000000000000000000000000000000000000008152600401611a10929190613262565b60405180910390fd5b82935050505092915050565b5f825f01519050611a5d333085604001518473ffffffffffffffffffffffffffffffffffffffff166120d8909392919063ffffffff16565b5f611a66611801565b90505f611a768560200151611405565b90505f60648260ff168760400151611a8e91906132c9565b611a989190613337565b90505f818760400151611aab9190613367565b90505f811115611ae557611ae48760200151828773ffffffffffffffffffffffffffffffffffffffff1661187c9092919063ffffffff16565b5b86608001518673ffffffffffffffffffffffffffffffffffffffff167fd4f43975feb89f48dd30cabbb32011045be187d1e11c8ea9faa43efc3528251960405160405180910390a35f868860800151604051602001611b459291906130e9565b6040516020818303038152906040528051906020012090506001855f015f8381526020019081526020015f205f6101000a81548160ff0219169083151502179055505050505050505050565b5f73ffffffffffffffffffffffffffffffffffffffff168173ffffffffffffffffffffffffffffffffffffffff1603611bf6576040517f3093ea0700000000000000000000000000000000000000000000000000000000815260040160405180910390fd5b5f8173ffffffffffffffffffffffffffffffffffffffff1683604051611c1b906134c6565b5f6040518083038185875af1925050503d805f8114611c55576040519150601f19603f3d011682016040523d82523d5f602084013e611c5a565b606091505b5050905080611c95576040517fd477157400000000000000000000000000000000000000000000000000000000815260040160405180910390fd5b505050565b5f611ca3611fef565b9050805f015f6101000a81549073ffffffffffffffffffffffffffffffffffffffff0219169055611cd38261215a565b5050565b5f33905090565b5f7fa16a46d94261c7517cc8ff89f61c0ce93598e3c849801011dee649a6a557d100905090565b60605f611d10611cde565b9050806002018054611d2190613507565b80601f0160208091040260200160405190810160405280929190818152602001828054611d4d90613507565b8015611d985780601f10611d6f57610100808354040283529160200191611d98565b820191905f5260205f20905b815481529060010190602001808311611d7b57829003601f168201915b505050505091505090565b60605f611dae611cde565b9050806003018054611dbf90613507565b80601f0160208091040260200160405190810160405280929190818152602001828054611deb90613507565b8015611e365780601f10611e0d57610100808354040283529160200191611e36565b820191905f5260205f20905b815481529060010190602001808311611e1957829003601f168201915b505050505091505090565b5f7f9016d09d72d40fdae2fd8ceac6b6234c7706214fd39c1cd1e609a0528c199300905090565b5f5f611e7261222b565b90508091505090565b611e83612254565b611e8c81612294565b50565b611e97612254565b611ea18282612318565b5050565b611ead612254565b611eb5612369565b565b5f5f5f611ec385612388565b90505f5f611eda86846123a190919063ffffffff16565b50915091505f6003811115611ef257611ef1613537565b5b816003811115611f0557611f04613537565b5b1482945094505050509250929050565b5f611f1e611801565b90505f816001015f8473ffffffffffffffffffffffffffffffffffffffff1673ffffffffffffffffffffffffffffffffffffffff1681526020019081526020015f205490505f8103611f9c576040517f2c8d747600000000000000000000000000000000000000000000000000000000815260040160405180910390fd5b5f826001015f8573ffffffffffffffffffffffffffffffffffffffff1673ffffffffffffffffffffffffffffffffffffffff1681526020019081526020015f2081905550611fea8184611b91565b505050565b5f7f237e158222e3e6968b72b9db0d8043aacf074ad9f650f0d1606b4d82ee432c00905090565b5f7f9b779b17422d0df92223018b32b4d1fa46e071723d6817e2486d003becc55f00905090565b5f5f60205f8451602086015f885af18061205c576040513d5f823e3d81fd5b3d92505f519150505f8214612075576001811415612090565b5f8473ffffffffffffffffffffffffffffffffffffffff163b145b156120d257836040517f5274afe70000000000000000000000000000000000000000000000000000000081526004016120c99190612d24565b60405180910390fd5b50505050565b612154848573ffffffffffffffffffffffffffffffffffffffff166323b872dd86868660405160240161210d93929190613564565b604051602081830303815290604052915060e01b6020820180517bffffffffffffffffffffffffffffffffffffffffffffffffffffffff838183161783525050505061203d565b50505050565b5f612163611e41565b90505f815f015f9054906101000a900473ffffffffffffffffffffffffffffffffffffffff16905082825f015f6101000a81548173ffffffffffffffffffffffffffffffffffffffff021916908373ffffffffffffffffffffffffffffffffffffffff1602179055508273ffffffffffffffffffffffffffffffffffffffff168173ffffffffffffffffffffffffffffffffffffffff167f8be0079c531659141344cd1fd0a4f28419497f9722a3daafe3b4186f6b6457e060405160405180910390a3505050565b5f7ff0c57e16840df040f15088dc2f81fe391c3923bec73e23a9662efc9c229c6a005f1b905090565b61225c6123f6565b612292576040517fd7e6bcf800000000000000000000000000000000000000000000000000000000815260040160405180910390fd5b565b61229c612254565b5f73ffffffffffffffffffffffffffffffffffffffff168173ffffffffffffffffffffffffffffffffffffffff160361230c575f6040517f1e4fbdf70000000000000000000000000000000000000000000000000000000081526004016123039190612d24565b60405180910390fd5b61231581611c9a565b50565b612320612254565b5f612329611cde565b90508281600201908161233c9190613730565b508181600301908161234e9190613730565b505f5f1b815f01819055505f5f1b8160010181905550505050565b612371612254565b5f61237a612016565b90506001815f018190555050565b5f61239a612394612414565b83612422565b9050919050565b5f5f5f60418451036123e1575f5f5f602087015192506040870151915060608701515f1a90506123d388828585612462565b9550955095505050506123ef565b5f600285515f1b9250925092505b9250925092565b5f6123ff611e68565b5f0160089054906101000a900460ff16905090565b5f61241d612549565b905090565b5f6040517f190100000000000000000000000000000000000000000000000000000000000081528360028201528260228201526042812091505092915050565b5f5f5f7f7fffffffffffffffffffffffffffffff5d576e7357a4501ddfe92f46681b20a0845f1c111561249e575f60038592509250925061253f565b5f6001888888886040515f81526020016040526040516124c194939291906137ff565b6020604051602081039080840390855afa1580156124e1573d5f5f3e3d5ffd5b5050506020604051035190505f73ffffffffffffffffffffffffffffffffffffffff168173ffffffffffffffffffffffffffffffffffffffff1603612532575f60015f5f1b9350935093505061253f565b805f5f5f1b935093509350505b9450945094915050565b5f7f8b73c3c69bb8fe3d512ecc4cf759cc79239f7b179b0ffacaa9a75d522b39400f6125736125ac565b61257b612622565b4630604051602001612591959493929190613842565b60405160208183030381529060405280519060200120905090565b5f5f6125b6611cde565b90505f6125c1611d05565b90505f815111156125dd5780805190602001209250505061261f565b5f825f015490505f5f1b81146125f85780935050505061261f565b7fc5d2460186f7233c927e7db2dcc703c0e500b653ca82273b7bfad8045d85a47093505050505b90565b5f5f61262c611cde565b90505f612637611da3565b90505f8151111561265357808051906020012092505050612696565b5f826001015490505f5f1b811461266f57809350505050612696565b7fc5d2460186f7233c927e7db2dcc703c0e500b653ca82273b7bfad8045d85a47093505050505b90565b5f604051905090565b5f5ffd5b5f5ffd5b5f60ff82169050919050565b6126bf816126aa565b81146126c9575f5ffd5b50565b5f813590506126da816126b6565b92915050565b5f602082840312156126f5576126f46126a2565b5b5f612702848285016126cc565b91505092915050565b5f73ffffffffffffffffffffffffffffffffffffffff82169050919050565b5f6127348261270b565b9050919050565b6127448161272a565b811461274e575f5ffd5b50565b5f8135905061275f8161273b565b92915050565b5f6020828403121561277a576127796126a2565b5b5f61278784828501612751565b91505092915050565b612799816126aa565b82525050565b5f6020820190506127b25f830184612790565b92915050565b5f5ffd5b5f5ffd5b5f601f19601f8301169050919050565b7f4e487b71000000000000000000000000000000000000000000000000000000005f52604160045260245ffd5b612806826127c0565b810181811067ffffffffffffffff82111715612825576128246127d0565b5b80604052505050565b5f612837612699565b905061284382826127fd565b919050565b5f67ffffffffffffffff821115612862576128616127d0565b5b61286b826127c0565b9050602081019050919050565b828183375f83830152505050565b5f61289861289384612848565b61282e565b9050828152602081018484840111156128b4576128b36127bc565b5b6128bf848285612878565b509392505050565b5f82601f8301126128db576128da6127b8565b5b81356128eb848260208601612886565b91505092915050565b5f5ffd5b5f5ffd5b5f819050919050565b61290e816128fc565b8114612918575f5ffd5b50565b5f8135905061292981612905565b92915050565b5f60c08284031215612944576129436128f4565b5b61294e60c061282e565b90505f61295d84828501612751565b5f83015250602061297084828501612751565b60208301525060406129848482850161291b565b60408301525060606129988482850161291b565b60608301525060806129ac8482850161291b565b60808301525060a082013567ffffffffffffffff8111156129d0576129cf6128f8565b5b6129dc848285016128c7565b60a08301525092915050565b5f5f5f606084860312156129ff576129fe6126a2565b5b5f84013567ffffffffffffffff811115612a1c57612a1b6126a6565b5b612a28868287016128c7565b935050602084013567ffffffffffffffff811115612a4957612a486126a6565b5b612a558682870161292f565b925050604084013567ffffffffffffffff811115612a7657612a756126a6565b5b612a82868287016128c7565b9150509250925092565b5f5f60408385031215612aa257612aa16126a2565b5b5f83013567ffffffffffffffff811115612abf57612abe6126a6565b5b612acb8582860161292f565b925050602083013567ffffffffffffffff811115612aec57612aeb6126a6565b5b612af8858286016128c7565b9150509250929050565b612b0b816128fc565b82525050565b5f602082019050612b245f830184612b02565b92915050565b5f7fff0000000000000000000000000000000000000000000000000000000000000082169050919050565b612b5e81612b2a565b82525050565b5f81519050919050565b5f82825260208201905092915050565b8281835e5f83830152505050565b5f612b9682612b64565b612ba08185612b6e565b9350612bb0818560208601612b7e565b612bb9816127c0565b840191505092915050565b612bcd8161272a565b82525050565b5f819050919050565b612be581612bd3565b82525050565b5f81519050919050565b5f82825260208201905092915050565b5f819050602082019050919050565b612c1d816128fc565b82525050565b5f612c2e8383612c14565b60208301905092915050565b5f602082019050919050565b5f612c5082612beb565b612c5a8185612bf5565b9350612c6583612c05565b805f5b83811015612c95578151612c7c8882612c23565b9750612c8783612c3a565b925050600181019050612c68565b5085935050505092915050565b5f60e082019050612cb55f83018a612b55565b8181036020830152612cc78189612b8c565b90508181036040830152612cdb8188612b8c565b9050612cea6060830187612b02565b612cf76080830186612bc4565b612d0460a0830185612bdc565b81810360c0830152612d168184612c46565b905098975050505050505050565b5f602082019050612d375f830184612bc4565b92915050565b5f5f60408385031215612d5357612d526126a2565b5b5f612d6085828601612751565b9250506020612d71858286016126cc565b9150509250929050565b5f5f60408385031215612d9157612d906126a2565b5b5f612d9e85828601612751565b9250506020612daf8582860161291b565b9150509250929050565b5f8115159050919050565b612dcd81612db9565b82525050565b5f602082019050612de65f830184612dc4565b92915050565b5f60a08284031215612e0157612e006128f4565b5b612e0b60a061282e565b90505f612e1a84828501612751565b5f830152506020612e2d8482850161291b565b6020830152506040612e418482850161291b565b6040830152506060612e558482850161291b565b606083015250608082013567ffffffffffffffff811115612e7957612e786128f8565b5b612e85848285016128c7565b60808301525092915050565b5f5f60408385031215612ea757612ea66126a2565b5b5f83013567ffffffffffffffff811115612ec457612ec36126a6565b5b612ed085828601612dec565b925050602083013567ffffffffffffffff811115612ef157612ef06126a6565b5b612efd858286016128c7565b9150509250929050565b5f6020820190508181035f830152612f1f8184612b8c565b905092915050565b5f602082019050612f3a5f830184612bdc565b92915050565b5f81519050612f4e81612905565b92915050565b5f60208284031215612f6957612f686126a2565b5b5f612f7684828501612f40565b91505092915050565b5f60e082019050612f925f83018a612bc4565b612f9f6020830189612bc4565b612fac6040830188612b02565b612fb96060830187612b02565b612fc66080830186612790565b612fd360a0830185612bdc565b612fe060c0830184612bdc565b98975050505050505050565b5f604082019050612fff5f830185612bc4565b61300c6020830184612bc4565b9392505050565b7f4549503731323a20556e696e697469616c697a656400000000000000000000005f82015250565b5f613047601583612b6e565b915061305282613013565b602082019050919050565b5f6020820190508181035f8301526130748161303b565b9050919050565b5f819050919050565b5f67ffffffffffffffff82169050919050565b5f819050919050565b5f6130ba6130b56130b08461307b565b613097565b613084565b9050919050565b6130ca816130a0565b82525050565b5f6020820190506130e35f8301846130c1565b92915050565b5f6040820190506130fc5f830185612bc4565b6131096020830184612b02565b9392505050565b7f4d435061796d656e743a207061796d656e7420616c72656164792070616964005f82015250565b5f613144601f83612b6e565b915061314f82613110565b602082019050919050565b5f60608201905061316d5f830185612bc4565b61317a6020830184612b02565b818103604083015261318b81613138565b90509392505050565b7f4d435061796d656e743a20696e76616c6964207061796d656e742076616c75655f82015250565b5f6131c8602083612b6e565b91506131d382613194565b602082019050919050565b5f6060820190506131f15f830185612bc4565b6131fe6020830184612b02565b818103604083015261320f816131bc565b90509392505050565b7f4d435061796d656e743a207061796d656e7420657870697265640000000000005f82015250565b5f61324c601a83612b6e565b915061325782613218565b602082019050919050565b5f6060820190506132755f830185612bc4565b6132826020830184612b02565b818103604083015261329381613240565b90509392505050565b7f4e487b71000000000000000000000000000000000000000000000000000000005f52601160045260245ffd5b5f6132d3826128fc565b91506132de836128fc565b92508282026132ec816128fc565b915082820484148315176133035761330261329c565b5b5092915050565b7f4e487b71000000000000000000000000000000000000000000000000000000005f52601260045260245ffd5b5f613341826128fc565b915061334c836128fc565b92508261335c5761335b61330a565b5b828204905092915050565b5f613371826128fc565b915061337c836128fc565b92508282039050818111156133945761339361329c565b5b92915050565b5f6133a4826128fc565b91506133af836128fc565b92508282019050808211156133c7576133c661329c565b5b92915050565b5f60e0820190506133e05f83018a612bdc565b6133ed6020830189612bc4565b6133fa6040830188612bc4565b6134076060830187612b02565b6134146080830186612b02565b61342160a0830185612b02565b61342e60c0830184612bdc565b98975050505050505050565b5f60c08201905061344d5f830189612bdc565b61345a6020830188612bc4565b6134676040830187612b02565b6134746060830186612b02565b6134816080830185612b02565b61348e60a0830184612bdc565b979650505050505050565b5f81905092915050565b50565b5f6134b15f83613499565b91506134bc826134a3565b5f82019050919050565b5f6134d0826134a6565b9150819050919050565b7f4e487b71000000000000000000000000000000000000000000000000000000005f52602260045260245ffd5b5f600282049050600182168061351e57607f821691505b602082108103613531576135306134da565b5b50919050565b7f4e487b71000000000000000000000000000000000000000000000000000000005f52602160045260245ffd5b5f6060820190506135775f830186612bc4565b6135846020830185612bc4565b6135916040830184612b02565b949350505050565b5f819050815f5260205f209050919050565b5f6020601f8301049050919050565b5f82821b905092915050565b5f600883026135f57fffffffffffffffffffffffffffffffffffffffffffffffffffffffffffffffff826135ba565b6135ff86836135ba565b95508019841693508086168417925050509392505050565b5f61363161362c613627846128fc565b613097565b6128fc565b9050919050565b5f819050919050565b61364a83613617565b61365e61365682613638565b8484546135c6565b825550505050565b5f5f905090565b613675613666565b613680818484613641565b505050565b5b818110156136a3576136985f8261366d565b600181019050613686565b5050565b601f8211156136e8576136b981613599565b6136c2846135ab565b810160208510156136d1578190505b6136e56136dd856135ab565b830182613685565b50505b505050565b5f82821c905092915050565b5f6137085f19846008026136ed565b1980831691505092915050565b5f61372083836136f9565b9150826002028217905092915050565b61373982612b64565b67ffffffffffffffff811115613752576137516127d0565b5b61375c8254613507565b6137678282856136a7565b5f60209050601f831160018114613798575f8415613786578287015190505b6137908582613715565b8655506137f7565b601f1984166137a686613599565b5f5b828110156137cd578489015182556001820191506020850194506020810190506137a8565b868310156137ea57848901516137e6601f8916826136f9565b8355505b6001600288020188555050505b505050505050565b5f6080820190506138125f830187612bdc565b61381f6020830186612790565b61382c6040830185612bdc565b6138396060830184612bdc565b95945050505050565b5f60a0820190506138555f830188612bdc565b6138626020830187612bdc565b61386f6040830186612bdc565b61387c6060830185612b02565b6138896080830184612bc4565b969550505050505056fea2646970667358221220221850d4e7db993017ceb6d1325187034d78410aefc6d2c26f41de45536f819564736f6c634300081b0033",
  "linkReferences": {},
  "deployedLinkReferences": {},
  "immutableReferences": {},
  "inputSourceName": "project/contracts/payment/MCPayment.sol",
  "buildInfoId": "solc-0_8_27-e74f25056c603da5b6334242bf0c4763e72b8faa"
}