{
  "_format": "hh-sol-artifact-1",
  "contractName": "VCPayment",
  "sourceName": "contracts/payment/VCPayment.sol",
  "abi": [
    {
      "inputs": [],
      "stateMutability": "nonpayable",
      "type": "constructor"
    },
    {
      "inputs": [
        {
          "internalType": "address",
          "name": "account",
          "type": "address"
        },
        {
          "internalType": "uint256",
          "name": "amount",
          "type": "uint256"
        }
      ],
      "name": "FailedToWithdraw",
      "type": "error"
    },
    {
      "inputs": [],
      "name": "InvalidInitialization",
      "type": "error"
    },
    {
      "inputs": [
        {
          "internalType": "uint256",
          "name": "percent",
          "type": "uint256"
        }
      ],
      "name": "InvalidOwnerPercentage",
      "type": "error"
    },
    {
      "inputs": [
        {
          "internalType": "uint256",
          "name": "expectedValue",
          "type": "uint256"
        },
        {
          "internalType": "uint256",
          "name": "receivedValue",
          "type": "uint256"
        }
      ],
      "name": "InvalidPaymentValue",
      "type": "error"
    },
    {
      "inputs": [
        {
          "internalType": "address",
          "name": "account",
          "type": "address"
        }
      ],
      "name": "InvalidWithdrawAddress",
      "type": "error"
    },
    {
      "inputs": [
        {
          "internalType": "address",
          "name": "account",
          "type": "address"
        }
      ],
      "name": "NoBalanceToWithdraw",
      "type": "error"
    },
    {
      "inputs": [
        {
          "internalType": "uint256",
          "name": "issuerId",
          "type": "uint256"
        },
        {
          "internalType": "uint256",
          "name": "schemaHash",
          "type": "uint256"
        }
      ],
      "name": "NoPaymentValueFound",
      "type": "error"
    },
    {
      "inputs": [],
      "name": "NotInitializing",
      "type": "error"
    },
    {
      "inputs": [
        {
          "internalType": "address",
          "name": "owner",
          "type": "address"
        }
      ],
      "name": "OwnableInvalidOwner",
      "type": "error"
    },
    {
      "inputs": [
        {
          "internalType": "address",
          "name": "account",
          "type": "address"
        }
      ],
      "name": "OwnableUnauthorizedAccount",
      "type": "error"
    },
    {
      "inputs": [
        {
          "internalType": "string",
          "name": "paymentId",
          "type": "string"
        },
        {
          "internalType": "uint256",
          "name": "issuerId",
          "type": "uint256"
        }
      ],
      "name": "PaymentAlreadyDone",
      "type": "error"
    },
    {
      "inputs": [
        {
          "internalType": "uint256",
          "name": "issuerId",
          "type": "uint256"
        },
        {
          "internalType": "uint256",
          "name": "schemaHash",
          "type": "uint256"
        }
      ],
      "name": "PaymentValueAlreadySet",
      "type": "error"
    },
    {
      "inputs": [],
      "name": "ReentrancyGuardReentrantCall",
      "type": "error"
    },
    {
      "inputs": [
        {
          "internalType": "address",
          "name": "expectedOwner",
          "type": "address"
        },
        {
          "internalType": "address",
          "name": "expectedIssuer",
          "type": "address"
        },
        {
          "internalType": "address",
          "name": "receivedAddress",
          "type": "address"
        }
      ],
      "name": "WrongOwnerOrIssuer",
      "type": "error"
    },
    {
      "anonymous": false,
      "inputs": [
        {
          "indexed": false,
          "internalType": "uint64",
          "name": "version",
          "type": "uint64"
        }
      ],
      "name": "Initialized",
      "type": "event"
    },
    {
      "anonymous": false,
      "inputs": [
        {
          "indexed": true,
          "internalType": "uint256",
          "name": "issuerId",
          "type": "uint256"
        },
        {
          "indexed": true,
          "internalType": "uint256",
          "name": "schemaHash",
          "type": "uint256"
        },
        {
          "indexed": false,
          "internalType": "uint256",
          "name": "newOwnerPercentage",
          "type": "uint256"
        }
      ],
      "name": "OwnerPercentageUpdated",
      "type": "event"
    },
    {
      "anonymous": false,
      "inputs": [
        {
          "indexed": true,
          "internalType": "address",
          "name": "previousOwner",
          "type": "address"
        },
        {
          "indexed": true,
          "internalType": "address",
          "name": "newOwner",
          "type": "address"
        }
      ],
      "name": "OwnershipTransferStarted",
      "type": "event"
    },
    {
      "anonymous": false,
      "inputs": [
        {
          "indexed": true,
          "internalType": "address",
          "name": "previousOwner",
          "type": "address"
        },
        {
          "indexed": true,
          "internalType": "address",
          "name": "newOwner",
          "type": "address"
        }
      ],
      "name": "OwnershipTransferred",
      "type": "event"
    },
    {
      "anonymous": false,
      "inputs": [
        {
          "indexed": true,
          "internalType": "uint256",
          "name": "issuerId",
          "type": "uint256"
        },
        {
          "indexed": false,
          "internalType": "string",
          "name": "paymentId",
          "type": "string"
        },
        {
          "indexed": true,
          "internalType": "uint256",
          "name": "schemaHash",
          "type": "uint256"
        }
      ],
      "name": "Payment",
      "type": "event"
    },
    {
      "anonymous": false,
      "inputs": [
        {
          "indexed": true,
          "internalType": "uint256",
          "name": "issuerId",
          "type": "uint256"
        },
        {
          "indexed": true,
          "internalType": "uint256",
          "name": "schemaHash",
          "type": "uint256"
        },
        {
          "indexed": false,
          "internalType": "uint256",
          "name": "valueToPay",
          "type": "uint256"
        },
        {
          "indexed": false,
          "internalType": "uint256",
          "name": "ownerPercentage",
          "type": "uint256"
        },
        {
          "indexed": false,
          "internalType": "address",
          "name": "withdrawAddress",
          "type": "address"
        }
      ],
      "name": "PaymentDataSet",
      "type": "event"
    },
    {
      "anonymous": false,
      "inputs": [
        {
          "indexed": true,
          "internalType": "uint256",
          "name": "issuerId",
          "type": "uint256"
        },
        {
          "indexed": true,
          "internalType": "uint256",
          "name": "schemaHash",
          "type": "uint256"
        },
        {
          "indexed": false,
          "internalType": "uint256",
          "name": "newValueToPay",
          "type": "uint256"
        }
      ],
      "name": "ValueToPayUpdated",
      "type": "event"
    },
    {
      "anonymous": false,
      "inputs": [
        {
          "indexed": true,
          "internalType": "address",
          "name": "to",
          "type": "address"
        },
        {
          "indexed": false,
          "internalType": "uint256",
          "name": "amount",
          "type": "uint256"
        }
      ],
      "name": "Withdraw",
      "type": "event"
    },
    {
      "anonymous": false,
      "inputs": [
        {
          "indexed": true,
          "internalType": "uint256",
          "name": "issuerId",
          "type": "uint256"
        },
        {
          "indexed": true,
          "internalType": "uint256",
          "name": "schemaHash",
          "type": "uint256"
        },
        {
          "indexed": false,
          "internalType": "address",
          "name": "newWithdrawAddress",
          "type": "address"
        }
      ],
      "name": "WithdrawAddressUpdated",
      "type": "event"
    },
    {
      "inputs": [],
      "name": "VERSION",
      "outputs": [
        {
          "internalType": "string",
          "name": "",
          "type": "string"
        }
      ],
      "stateMutability": "view",
      "type": "function"
    },
    {
      "inputs": [],
      "name": "acceptOwnership",
      "outputs": [],
      "stateMutability": "nonpayable",
      "type": "function"
    },
    {
      "inputs": [],
      "name": "getMyBalance",
      "outputs": [
        {
          "internalType": "uint256",
          "name": "",
          "type": "uint256"
        }
      ],
      "stateMutability": "view",
      "type": "function"
    },
    {
      "inputs": [],
      "name": "getOwnerBalance",
      "outputs": [
        {
          "internalType": "uint256",
          "name": "",
          "type": "uint256"
        }
      ],
      "stateMutability": "view",
      "type": "function"
    },
    {
      "inputs": [
        {
          "internalType": "uint256",
          "name": "issuerId",
          "type": "uint256"
        },
        {
          "internalType": "uint256",
          "name": "schemaHash",
          "type": "uint256"
        }
      ],
      "name": "getPaymentData",
      "outputs": [
        {
          "components": [
            {
              "internalType": "uint256",
              "name": "issuerId",
              "type": "uint256"
            },
            {
              "internalType": "uint256",
              "name": "schemaHash",
              "type": "uint256"
            },
            {
              "internalType": "uint256",
              "name": "valueToPay",
              "type": "uint256"
            },
            {
              "internalType": "uint256",
              "name": "ownerPercentage",
              "type": "uint256"
            },
            {
              "internalType": "address",
              "name": "withdrawAddress",
              "type": "address"
            },
            {
              "internalType": "uint256",
              "name": "totalValue",
              "type": "uint256"
            }
          ],
          "internalType": "struct VCPayment.PaymentData",
          "name": "",
          "type": "tuple"
        }
      ],
      "stateMutability": "view",
      "type": "function"
    },
    {
      "inputs": [
        {
          "internalType": "address",
          "name": "owner",
          "type": "address"
        }
      ],
      "name": "initialize",
      "outputs": [],
      "stateMutability": "nonpayable",
      "type": "function"
    },
    {
      "inputs": [
        {
          "internalType": "string",
          "name": "paymentId",
          "type": "string"
        },
        {
          "internalType": "uint256",
          "name": "issuerId",
          "type": "uint256"
        }
      ],
      "name": "isPaymentDone",
      "outputs": [
        {
          "internalType": "bool",
          "name": "",
          "type": "bool"
        }
      ],
      "stateMutability": "view",
      "type": "function"
    },
    {
      "inputs": [],
      "name": "issuerWithdraw",
      "outputs": [],
      "stateMutability": "nonpayable",
      "type": "function"
    },
    {
      "inputs": [],
      "name": "owner",
      "outputs": [
        {
          "internalType": "address",
          "name": "",
          "type": "address"
        }
      ],
      "stateMutability": "view",
      "type": "function"
    },
    {
      "inputs": [],
      "name": "ownerWithdraw",
      "outputs": [],
      "stateMutability": "nonpayable",
      "type": "function"
    },
    {
      "inputs": [
        {
          "internalType": "string",
          "name": "paymentId",
          "type": "string"
        },
        {
          "internalType": "uint256",
          "name": "issuerId",
          "type": "uint256"
        },
        {
          "internalType": "uint256",
          "name": "schemaHash",
          "type": "uint256"
        }
      ],
      "name": "pay",
      "outputs": [],
      "stateMutability": "payable",
      "type": "function"
    },
    {
      "inputs": [],
      "name": "pendingOwner",
      "outputs": [
        {
          "internalType": "address",
          "name": "",
          "type": "address"
        }
      ],
      "stateMutability": "view",
      "type": "function"
    },
    {
      "inputs": [],
      "name": "renounceOwnership",
      "outputs": [],
      "stateMutability": "nonpayable",
      "type": "function"
    },
    {
      "inputs": [
        {
          "internalType": "uint256",
          "name": "issuerId",
          "type": "uint256"
        },
        {
          "internalType": "uint256",
          "name": "schemaHash",
          "type": "uint256"
        },
        {
          "internalType": "uint256",
          "name": "value",
          "type": "uint256"
        },
        {
          "internalType": "uint256",
          "name": "ownerPercentage",
          "type": "uint256"
        },
        {
          "internalType": "address",
          "name": "withdrawAddress",
          "type": "address"
        }
      ],
      "name": "setPaymentValue",
      "outputs": [],
      "stateMutability": "nonpayable",
      "type": "function"
    },
    {
      "inputs": [
        {
          "internalType": "address",
          "name": "newOwner",
          "type": "address"
        }
      ],
      "name": "transferOwnership",
      "outputs": [],
      "stateMutability": "nonpayable",
      "type": "function"
    },
    {
      "inputs": [
        {
          "internalType": "uint256",
          "name": "issuerId",
          "type": "uint256"
        },
        {
          "internalType": "uint256",
          "name": "schemaHash",
          "type": "uint256"
        },
        {
          "internalType": "uint256",
          "name": "ownerPercentage",
          "type": "uint256"
        }
      ],
      "name": "updateOwnerPercentage",
      "outputs": [],
      "stateMutability": "nonpayable",
      "type": "function"
    },
    {
      "inputs": [
        {
          "internalType": "uint256",
          "name": "issuerId",
          "type": "uint256"
        },
        {
          "internalType": "uint256",
          "name": "schemaHash",
          "type": "uint256"
        },
        {
          "internalType": "uint256",
          "name": "value",
          "type": "uint256"
        }
      ],
      "name": "updateValueToPay",
      "outputs": [],
      "stateMutability": "nonpayable",
      "type": "function"
    },
    {
      "inputs": [
        {
          "internalType": "uint256",
          "name": "issuerId",
          "type": "uint256"
        },
        {
          "internalType": "uint256",
          "name": "schemaHash",
          "type": "uint256"
        },
        {
          "internalType": "address",
          "name": "withdrawAddress",
          "type": "address"
        }
      ],
      "name": "updateWithdrawAddress",
      "outputs": [],
      "stateMutability": "nonpayable",
      "type": "function"
    }
  ],
  "bytecode": "0x608060405234801561001057600080fd5b5061001f61002460201b60201c565b61018e565b600061003461012860201b60201c565b90508060000160089054906101000a900460ff161561007f576040517ff92ee8a900000000000000000000000000000000000000000000000000000000815260040160405180910390fd5b67ffffffffffffffff80168160000160009054906101000a900467ffffffffffffffff1667ffffffffffffffff16146101255767ffffffffffffffff8160000160006101000a81548167ffffffffffffffff021916908367ffffffffffffffff1602179055507fc7f505b2f371ae2175ee4913f4499e1f2633a7b5936321eed1cdaeb6115181d267ffffffffffffffff60405161011c9190610173565b60405180910390a15b50565b60007ff0c57e16840df040f15088dc2f81fe391c3923bec73e23a9662efc9c229c6a00905090565b600067ffffffffffffffff82169050919050565b61016d81610150565b82525050565b60006020820190506101886000830184610164565b92915050565b6125678061019d6000396000f3fe6080604052600436106101095760003560e01c806379ba509711610095578063cd9a5f2711610064578063cd9a5f27146102e8578063e000c7a714610311578063e30c39781461034e578063f2fde38b14610379578063ffa1ad74146103a257610109565b806379ba5097146102665780638da5cb5b1461027d578063c4d66de8146102a8578063cc9cd961146102d157610109565b806349f387f8116100dc57806349f387f8146101a75780634c738909146101d0578063571047c7146101fb578063590791f214610224578063715018a61461024f57610109565b806320192a771461010e578063205f34f61461012a5780633eb8c201146101675780634311de8f14610190575b600080fd5b61012860048036038101906101239190611d0a565b6103cd565b005b34801561013657600080fd5b50610151600480360381019061014c9190611d7e565b6106b1565b60405161015e9190611e89565b60405180910390f35b34801561017357600080fd5b5061018e60048036038101906101899190611ed0565b6108e6565b005b34801561019c57600080fd5b506101a5610b6f565b005b3480156101b357600080fd5b506101ce60048036038101906101c99190611f23565b610bbb565b005b3480156101dc57600080fd5b506101e5610da9565b6040516101f29190611f85565b60405180910390f35b34801561020757600080fd5b50610222600480360381019061021d9190611f23565b610e05565b005b34801561023057600080fd5b50610239610eeb565b6040516102469190611f85565b60405180910390f35b34801561025b57600080fd5b50610264610f0c565b005b34801561027257600080fd5b5061027b610f20565b005b34801561028957600080fd5b50610292610faf565b60405161029f9190611faf565b60405180910390f35b3480156102b457600080fd5b506102cf60048036038101906102ca9190611fca565b610fe7565b005b3480156102dd57600080fd5b506102e661117e565b005b3480156102f457600080fd5b5061030f600480360381019061030a9190611ff7565b611242565b005b34801561031d57600080fd5b5061033860048036038101906103339190612072565b611535565b60405161034591906120ed565b60405180910390f35b34801561035a57600080fd5b50610363611599565b6040516103709190611faf565b60405180910390f35b34801561038557600080fd5b506103a0600480360381019061039b9190611fca565b6115d1565b005b3480156103ae57600080fd5b506103b761168d565b6040516103c49190612198565b60405180910390f35b6103d56116c6565b60006103df61171d565b905060008386866040516020016103f8939291906121f6565b60405160208183030381529060405280519060200120905081600101600082815260200190815260200160002060009054906101000a900460ff1615610479578585856040517f493e8c4400000000000000000000000000000000000000000000000000000000815260040161047093929190612228565b60405180910390fd5b6000826000016000868660405160200161049492919061225a565b604051602081830303815290604052805190602001208152602001908152602001600020905060008160020154036105055784846040517fc25dee750000000000000000000000000000000000000000000000000000000081526004016104fc92919061225a565b60405180910390fd5b34816002015414610553578060020154346040517f99b3106d00000000000000000000000000000000000000000000000000000000815260040161054a92919061225a565b60405180910390fd5b600183600101600084815260200190815260200160002060006101000a81548160ff0219169083151502179055506000606482600301543461059591906122b2565b61059f9190612323565b9050600081346105af9190612354565b9050808560020160008560040160009054906101000a900473ffffffffffffffffffffffffffffffffffffffff1673ffffffffffffffffffffffffffffffffffffffff1673ffffffffffffffffffffffffffffffffffffffff16815260200190815260200160002060008282546106269190612388565b92505081905550818560030160008282546106419190612388565b925050819055508083600501600082825461065c9190612388565b9250508190555085877f7398675bfb80d8068656a15534a2906b06a75c6ef55a95b8674066eb3f8171868b8b6040516106969291906123bc565b60405180910390a350505050506106ab611745565b50505050565b6106b9611c19565b828260006106c561171d565b9050600081600001600085856040516020016106e292919061225a565b60405160208183030381529060405280519060200120815260200190815260200160002060040160009054906101000a900473ffffffffffffffffffffffffffffffffffffffff16905061073461175e565b73ffffffffffffffffffffffffffffffffffffffff168173ffffffffffffffffffffffffffffffffffffffff16141580156107a9575061077261175e565b73ffffffffffffffffffffffffffffffffffffffff16610790610faf565b73ffffffffffffffffffffffffffffffffffffffff1614155b156107fd576107b6610faf565b816107bf61175e565b6040517fc211c9e30000000000000000000000000000000000000000000000000000000081526004016107f4939291906123e0565b60405180910390fd5b600061080761171d565b9050806000016000898960405160200161082292919061225a565b6040516020818303038152906040528051906020012081526020019081526020016000206040518060c0016040529081600082015481526020016001820154815260200160028201548152602001600382015481526020016004820160009054906101000a900473ffffffffffffffffffffffffffffffffffffffff1673ffffffffffffffffffffffffffffffffffffffff1673ffffffffffffffffffffffffffffffffffffffff1681526020016005820154815250509550505050505092915050565b6108ee611766565b80600073ffffffffffffffffffffffffffffffffffffffff168173ffffffffffffffffffffffffffffffffffffffff160361096057806040517f7be994f60000000000000000000000000000000000000000000000000000000081526004016109579190611faf565b60405180910390fd5b6109686116c6565b600061097261171d565b90506000816000016000878760405160200161098f92919061225a565b604051602081830303815290604052805190602001208152602001908152602001600020905060008260020160008360040160009054906101000a900473ffffffffffffffffffffffffffffffffffffffff1673ffffffffffffffffffffffffffffffffffffffff1673ffffffffffffffffffffffffffffffffffffffff16815260200190815260200160002054905060008360020160008460040160009054906101000a900473ffffffffffffffffffffffffffffffffffffffff1673ffffffffffffffffffffffffffffffffffffffff1673ffffffffffffffffffffffffffffffffffffffff16815260200190815260200160002081905550808360020160008773ffffffffffffffffffffffffffffffffffffffff1673ffffffffffffffffffffffffffffffffffffffff1681526020019081526020016000206000828254610adb9190612388565b92505081905550848260040160006101000a81548173ffffffffffffffffffffffffffffffffffffffff021916908373ffffffffffffffffffffffffffffffffffffffff16021790555085877f036463b63d03aa20c3b8ff4c3d9d7ab1b03abec9a3c60ac6f5a128371e44d57b87604051610b569190611faf565b60405180910390a3505050610b69611745565b50505050565b610b77611766565b610b7f6116c6565b6000610b8961171d565b905060008160030154905060008260030181905550610baf610ba9610faf565b826117ed565b5050610bb9611745565b565b82826000610bc761171d565b905060008160000160008585604051602001610be492919061225a565b60405160208183030381529060405280519060200120815260200190815260200160002060040160009054906101000a900473ffffffffffffffffffffffffffffffffffffffff169050610c3661175e565b73ffffffffffffffffffffffffffffffffffffffff168173ffffffffffffffffffffffffffffffffffffffff1614158015610cab5750610c7461175e565b73ffffffffffffffffffffffffffffffffffffffff16610c92610faf565b73ffffffffffffffffffffffffffffffffffffffff1614155b15610cff57610cb8610faf565b81610cc161175e565b6040517fc211c9e3000000000000000000000000000000000000000000000000000000008152600401610cf6939291906123e0565b60405180910390fd5b610d076116c6565b6000610d1161171d565b905060008160000160008a8a604051602001610d2e92919061225a565b604051602081830303815290604052805190602001208152602001908152602001600020905086816002018190555087897f8954324bc9925155a4bf3894da26a9d20f089d444b8b377d2e396c33ae4a9fee89604051610d8e9190611f85565b60405180910390a35050610da0611745565b50505050505050565b600080610db461171d565b9050806002016000610dc461175e565b73ffffffffffffffffffffffffffffffffffffffff1673ffffffffffffffffffffffffffffffffffffffff1681526020019081526020016000205491505090565b610e0d611766565b806064811115610e5457806040517fe4ca51d0000000000000000000000000000000000000000000000000000000008152600401610e4b9190611f85565b60405180910390fd5b6000610e5e61171d565b905060008160000160008787604051602001610e7b92919061225a565b604051602081830303815290604052805190602001208152602001908152602001600020905083816003018190555084867fd7134262eb5f30e3bf2abee7e39615e16fd442542ee9abfbd4707dc0b2e5a87e86604051610edb9190611f85565b60405180910390a3505050505050565b6000610ef5611766565b6000610eff61171d565b9050806003015491505090565b610f14611766565b610f1e6000611935565b565b6000610f2a61175e565b90508073ffffffffffffffffffffffffffffffffffffffff16610f4b611599565b73ffffffffffffffffffffffffffffffffffffffff1614610fa357806040517f118cdaa7000000000000000000000000000000000000000000000000000000008152600401610f9a9190611faf565b60405180910390fd5b610fac81611935565b50565b600080610fba611975565b90508060000160009054906101000a900473ffffffffffffffffffffffffffffffffffffffff1691505090565b6000610ff161199d565b905060008160000160089054906101000a900460ff1615905060008260000160009054906101000a900467ffffffffffffffff1690506000808267ffffffffffffffff1614801561103f5750825b9050600060018367ffffffffffffffff16148015611074575060003073ffffffffffffffffffffffffffffffffffffffff163b145b905081158015611082575080155b156110b9576040517ff92ee8a900000000000000000000000000000000000000000000000000000000815260040160405180910390fd5b60018560000160006101000a81548167ffffffffffffffff021916908367ffffffffffffffff16021790555083156111095760018560000160086101000a81548160ff0219169083151502179055505b611112866119c5565b61111a6119d9565b83156111765760008560000160086101000a81548160ff0219169083151502179055507fc7f505b2f371ae2175ee4913f4499e1f2633a7b5936321eed1cdaeb6115181d2600160405161116d9190612470565b60405180910390a15b505050505050565b6111866116c6565b600061119061175e565b9050600061119c61171d565b905060008160020160008473ffffffffffffffffffffffffffffffffffffffff1673ffffffffffffffffffffffffffffffffffffffff16815260200190815260200160002054905060008260020160008573ffffffffffffffffffffffffffffffffffffffff1673ffffffffffffffffffffffffffffffffffffffff1681526020019081526020016000208190555061123583826117ed565b505050611240611745565b565b61124a611766565b81606481111561129157806040517fe4ca51d00000000000000000000000000000000000000000000000000000000081526004016112889190611f85565b60405180910390fd5b81600073ffffffffffffffffffffffffffffffffffffffff168173ffffffffffffffffffffffffffffffffffffffff160361130357806040517f7be994f60000000000000000000000000000000000000000000000000000000081526004016112fa9190611faf565b60405180910390fd5b6000878760405160200161131892919061225a565b604051602081830303815290604052805190602001209050600061133a61171d565b905060006040518060c001604052808b81526020018a81526020018981526020018881526020018773ffffffffffffffffffffffffffffffffffffffff16815260200160008152509050600073ffffffffffffffffffffffffffffffffffffffff1682600001600085815260200190815260200160002060040160009054906101000a900473ffffffffffffffffffffffffffffffffffffffff1673ffffffffffffffffffffffffffffffffffffffff161461142f5789896040517f7cf8c63b00000000000000000000000000000000000000000000000000000000815260040161142692919061225a565b60405180910390fd5b808260000160008581526020019081526020016000206000820151816000015560208201518160010155604082015181600201556060820151816003015560808201518160040160006101000a81548173ffffffffffffffffffffffffffffffffffffffff021916908373ffffffffffffffffffffffffffffffffffffffff16021790555060a0820151816005015590505081600401839080600181540180825580915050600190039060005260206000200160009091909190915055888a7fcb1f23eec66a450e16b28b1413480b7635e40103ee845a1c1dabf42b67eab3958a8a8a6040516115219392919061248b565b60405180910390a350505050505050505050565b60008061154061171d565b905080600101600084878760405160200161155d939291906121f6565b60405160208183030381529060405280519060200120815260200190815260200160002060009054906101000a900460ff169150509392505050565b6000806115a46119eb565b90508060000160009054906101000a900473ffffffffffffffffffffffffffffffffffffffff1691505090565b6115d9611766565b60006115e36119eb565b9050818160000160006101000a81548173ffffffffffffffffffffffffffffffffffffffff021916908373ffffffffffffffffffffffffffffffffffffffff1602179055508173ffffffffffffffffffffffffffffffffffffffff16611647610faf565b73ffffffffffffffffffffffffffffffffffffffff167f38d16b8cac22d99fc7c124b9cd0de2d3fa1faef420bfe791d8c362d765e2270060405160405180910390a35050565b6040518060400160405280600581526020017f312e302e3200000000000000000000000000000000000000000000000000000081525081565b60006116d0611a13565b90506002816000015403611710576040517f3ee5aeb500000000000000000000000000000000000000000000000000000000815260040160405180910390fd5b6002816000018190555050565b60007fbb49acb92ce91902600caabfefad66ed7ac2a150edbd631ab48a5501402b3300905090565b600061174f611a13565b90506001816000018190555050565b600033905090565b61176e61175e565b73ffffffffffffffffffffffffffffffffffffffff1661178c610faf565b73ffffffffffffffffffffffffffffffffffffffff16146117eb576117af61175e565b6040517f118cdaa70000000000000000000000000000000000000000000000000000000081526004016117e29190611faf565b60405180910390fd5b565b6000810361183257816040517fe06b2da50000000000000000000000000000000000000000000000000000000081526004016118299190611faf565b60405180910390fd5b60008273ffffffffffffffffffffffffffffffffffffffff1682604051611858906124f3565b60006040518083038185875af1925050503d8060008114611895576040519150601f19603f3d011682016040523d82523d6000602084013e61189a565b606091505b50509050806118e25782826040517ff1c34fc60000000000000000000000000000000000000000000000000000000081526004016118d9929190612508565b60405180910390fd5b8273ffffffffffffffffffffffffffffffffffffffff167f884edad9ce6fa2440d8a54cc123490eb96d2768479d49ff9c7366125a9424364836040516119289190611f85565b60405180910390a2505050565b600061193f6119eb565b90508060000160006101000a81549073ffffffffffffffffffffffffffffffffffffffff021916905561197182611a3b565b5050565b60007f9016d09d72d40fdae2fd8ceac6b6234c7706214fd39c1cd1e609a0528c199300905090565b60007ff0c57e16840df040f15088dc2f81fe391c3923bec73e23a9662efc9c229c6a00905090565b6119cd611b12565b6119d681611b52565b50565b6119e1611b12565b6119e9611bd8565b565b60007f237e158222e3e6968b72b9db0d8043aacf074ad9f650f0d1606b4d82ee432c00905090565b60007f9b779b17422d0df92223018b32b4d1fa46e071723d6817e2486d003becc55f00905090565b6000611a45611975565b905060008160000160009054906101000a900473ffffffffffffffffffffffffffffffffffffffff169050828260000160006101000a81548173ffffffffffffffffffffffffffffffffffffffff021916908373ffffffffffffffffffffffffffffffffffffffff1602179055508273ffffffffffffffffffffffffffffffffffffffff168173ffffffffffffffffffffffffffffffffffffffff167f8be0079c531659141344cd1fd0a4f28419497f9722a3daafe3b4186f6b6457e060405160405180910390a3505050565b611b1a611bf9565b611b50576040517fd7e6bcf800000000000000000000000000000000000000000000000000000000815260040160405180910390fd5b565b611b5a611b12565b600073ffffffffffffffffffffffffffffffffffffffff168173ffffffffffffffffffffffffffffffffffffffff1603611bcc5760006040517f1e4fbdf7000000000000000000000000000000000000000000000000000000008152600401611bc39190611faf565b60405180910390fd5b611bd581611935565b50565b611be0611b12565b6000611bea611a13565b90506001816000018190555050565b6000611c0361199d565b60000160089054906101000a900460ff16905090565b6040518060c0016040528060008152602001600081526020016000815260200160008152602001600073ffffffffffffffffffffffffffffffffffffffff168152602001600081525090565b600080fd5b600080fd5b600080fd5b600080fd5b600080fd5b60008083601f840112611c9457611c93611c6f565b5b8235905067ffffffffffffffff811115611cb157611cb0611c74565b5b602083019150836001820283011115611ccd57611ccc611c79565b5b9250929050565b6000819050919050565b611ce781611cd4565b8114611cf257600080fd5b50565b600081359050611d0481611cde565b92915050565b60008060008060608587031215611d2457611d23611c65565b5b600085013567ffffffffffffffff811115611d4257611d41611c6a565b5b611d4e87828801611c7e565b94509450506020611d6187828801611cf5565b9250506040611d7287828801611cf5565b91505092959194509250565b60008060408385031215611d9557611d94611c65565b5b6000611da385828601611cf5565b9250506020611db485828601611cf5565b9150509250929050565b611dc781611cd4565b82525050565b600073ffffffffffffffffffffffffffffffffffffffff82169050919050565b6000611df882611dcd565b9050919050565b611e0881611ded565b82525050565b60c082016000820151611e246000850182611dbe565b506020820151611e376020850182611dbe565b506040820151611e4a6040850182611dbe565b506060820151611e5d6060850182611dbe565b506080820151611e706080850182611dff565b5060a0820151611e8360a0850182611dbe565b50505050565b600060c082019050611e9e6000830184611e0e565b92915050565b611ead81611ded565b8114611eb857600080fd5b50565b600081359050611eca81611ea4565b92915050565b600080600060608486031215611ee957611ee8611c65565b5b6000611ef786828701611cf5565b9350506020611f0886828701611cf5565b9250506040611f1986828701611ebb565b9150509250925092565b600080600060608486031215611f3c57611f3b611c65565b5b6000611f4a86828701611cf5565b9350506020611f5b86828701611cf5565b9250506040611f6c86828701611cf5565b9150509250925092565b611f7f81611cd4565b82525050565b6000602082019050611f9a6000830184611f76565b92915050565b611fa981611ded565b82525050565b6000602082019050611fc46000830184611fa0565b92915050565b600060208284031215611fe057611fdf611c65565b5b6000611fee84828501611ebb565b91505092915050565b600080600080600060a0868803121561201357612012611c65565b5b600061202188828901611cf5565b955050602061203288828901611cf5565b945050604061204388828901611cf5565b935050606061205488828901611cf5565b925050608061206588828901611ebb565b9150509295509295909350565b60008060006040848603121561208b5761208a611c65565b5b600084013567ffffffffffffffff8111156120a9576120a8611c6a565b5b6120b586828701611c7e565b935093505060206120c886828701611cf5565b9150509250925092565b60008115159050919050565b6120e7816120d2565b82525050565b600060208201905061210260008301846120de565b92915050565b600081519050919050565b600082825260208201905092915050565b60005b83811015612142578082015181840152602081019050612127565b60008484015250505050565b6000601f19601f8301169050919050565b600061216a82612108565b6121748185612113565b9350612184818560208601612124565b61218d8161214e565b840191505092915050565b600060208201905081810360008301526121b2818461215f565b905092915050565b82818337600083830152505050565b60006121d58385612113565b93506121e28385846121ba565b6121eb8361214e565b840190509392505050565b600060408201905061220b6000830186611f76565b818103602083015261221e8184866121c9565b9050949350505050565b600060408201905081810360008301526122438185876121c9565b90506122526020830184611f76565b949350505050565b600060408201905061226f6000830185611f76565b61227c6020830184611f76565b9392505050565b7f4e487b7100000000000000000000000000000000000000000000000000000000600052601160045260246000fd5b60006122bd82611cd4565b91506122c883611cd4565b92508282026122d681611cd4565b915082820484148315176122ed576122ec612283565b5b5092915050565b7f4e487b7100000000000000000000000000000000000000000000000000000000600052601260045260246000fd5b600061232e82611cd4565b915061233983611cd4565b925082612349576123486122f4565b5b828204905092915050565b600061235f82611cd4565b915061236a83611cd4565b925082820390508181111561238257612381612283565b5b92915050565b600061239382611cd4565b915061239e83611cd4565b92508282019050808211156123b6576123b5612283565b5b92915050565b600060208201905081810360008301526123d78184866121c9565b90509392505050565b60006060820190506123f56000830186611fa0565b6124026020830185611fa0565b61240f6040830184611fa0565b949350505050565b6000819050919050565b600067ffffffffffffffff82169050919050565b6000819050919050565b600061245a61245561245084612417565b612435565b612421565b9050919050565b61246a8161243f565b82525050565b60006020820190506124856000830184612461565b92915050565b60006060820190506124a06000830186611f76565b6124ad6020830185611f76565b6124ba6040830184611fa0565b949350505050565b600081905092915050565b50565b60006124dd6000836124c2565b91506124e8826124cd565b600082019050919050565b60006124fe826124d0565b9150819050919050565b600060408201905061251d6000830185611fa0565b61252a6020830184611f76565b939250505056fea2646970667358221220a40a3dfa622e4ed8dd4b9a20bfd27313d262214bb8a12e7855cd87f343315f4d64736f6c634300081b0033",
  "linkReferences": {},
  "deployedLinkReferences": {}
}