{
  "contracts/test-helpers/StateLibTestWrapper.sol": {
    "StateLibTestWrapper": {
      "abi": [
        {
          "inputs": [
            {
              "internalType": "uint256",
              "name": "id",
              "type": "uint256"
            },
            {
              "internalType": "uint256",
              "name": "state",
              "type": "uint256"
            }
          ],
          "name": "addGenesisState",
          "outputs": [],
          "stateMutability": "nonpayable",
          "type": "function"
        },
        {
          "inputs": [
            {
              "internalType": "uint256",
              "name": "id",
              "type": "uint256"
            },
            {
              "internalType": "uint256",
              "name": "state",
              "type": "uint256"
            }
          ],
          "name": "addState",
          "outputs": [],
          "stateMutability": "nonpayable",
          "type": "function"
        },
        {
          "inputs": [
            {
              "internalType": "uint256",
              "name": "id",
              "type": "uint256"
            }
          ],
          "name": "getStateInfoById",
          "outputs": [
            {
              "components": [
                {
                  "internalType": "uint256",
                  "name": "id",
                  "type": "uint256"
                },
                {
                  "internalType": "uint256",
                  "name": "state",
                  "type": "uint256"
                },
                {
                  "internalType": "uint256",
                  "name": "replacedByState",
                  "type": "uint256"
                },
                {
                  "internalType": "uint256",
                  "name": "createdAtTimestamp",
                  "type": "uint256"
                },
                {
                  "internalType": "uint256",
                  "name": "replacedAtTimestamp",
                  "type": "uint256"
                },
                {
                  "internalType": "uint256",
                  "name": "createdAtBlock",
                  "type": "uint256"
                },
                {
                  "internalType": "uint256",
                  "name": "replacedAtBlock",
                  "type": "uint256"
                }
              ],
              "internalType": "struct StateLib.EntryInfo",
              "name": "",
              "type": "tuple"
            }
          ],
          "stateMutability": "view",
          "type": "function"
        },
        {
          "inputs": [
            {
              "internalType": "uint256",
              "name": "id",
              "type": "uint256"
            },
            {
              "internalType": "uint256",
              "name": "state",
              "type": "uint256"
            }
          ],
          "name": "getStateInfoByIdAndState",
          "outputs": [
            {
              "components": [
                {
                  "internalType": "uint256",
                  "name": "id",
                  "type": "uint256"
                },
                {
                  "internalType": "uint256",
                  "name": "state",
                  "type": "uint256"
                },
                {
                  "internalType": "uint256",
                  "name": "replacedByState",
                  "type": "uint256"
                },
                {
                  "internalType": "uint256",
                  "name": "createdAtTimestamp",
                  "type": "uint256"
                },
                {
                  "internalType": "uint256",
                  "name": "replacedAtTimestamp",
                  "type": "uint256"
                },
                {
                  "internalType": "uint256",
                  "name": "createdAtBlock",
                  "type": "uint256"
                },
                {
                  "internalType": "uint256",
                  "name": "replacedAtBlock",
                  "type": "uint256"
                }
              ],
              "internalType": "struct StateLib.EntryInfo",
              "name": "",
              "type": "tuple"
            }
          ],
          "stateMutability": "view",
          "type": "function"
        },
        {
          "inputs": [
            {
              "internalType": "uint256",
              "name": "id",
              "type": "uint256"
            },
            {
              "internalType": "uint256",
              "name": "startIndex",
              "type": "uint256"
            },
            {
              "internalType": "uint256",
              "name": "length",
              "type": "uint256"
            }
          ],
          "name": "getStateInfoHistoryById",
          "outputs": [
            {
              "components": [
                {
                  "internalType": "uint256",
                  "name": "id",
                  "type": "uint256"
                },
                {
                  "internalType": "uint256",
                  "name": "state",
                  "type": "uint256"
                },
                {
                  "internalType": "uint256",
                  "name": "replacedByState",
                  "type": "uint256"
                },
                {
                  "internalType": "uint256",
                  "name": "createdAtTimestamp",
                  "type": "uint256"
                },
                {
                  "internalType": "uint256",
                  "name": "replacedAtTimestamp",
                  "type": "uint256"
                },
                {
                  "internalType": "uint256",
                  "name": "createdAtBlock",
                  "type": "uint256"
                },
                {
                  "internalType": "uint256",
                  "name": "replacedAtBlock",
                  "type": "uint256"
                }
              ],
              "internalType": "struct StateLib.EntryInfo[]",
              "name": "",
              "type": "tuple[]"
            }
          ],
          "stateMutability": "view",
          "type": "function"
        },
        {
          "inputs": [
            {
              "internalType": "uint256",
              "name": "id",
              "type": "uint256"
            }
          ],
          "name": "getStateInfoHistoryLengthById",
          "outputs": [
            {
              "internalType": "uint256",
              "name": "",
              "type": "uint256"
            }
          ],
          "stateMutability": "view",
          "type": "function"
        },
        {
          "inputs": [
            {
              "internalType": "uint256",
              "name": "id",
              "type": "uint256"
            },
            {
              "internalType": "uint256",
              "name": "state",
              "type": "uint256"
            },
            {
              "internalType": "uint256",
              "name": "startIndex",
              "type": "uint256"
            },
            {
              "internalType": "uint256",
              "name": "length",
              "type": "uint256"
            }
          ],
          "name": "getStateInfoListByIdAndState",
          "outputs": [
            {
              "components": [
                {
                  "internalType": "uint256",
                  "name": "id",
                  "type": "uint256"
                },
                {
                  "internalType": "uint256",
                  "name": "state",
                  "type": "uint256"
                },
                {
                  "internalType": "uint256",
                  "name": "replacedByState",
                  "type": "uint256"
                },
                {
                  "internalType": "uint256",
                  "name": "createdAtTimestamp",
                  "type": "uint256"
                },
                {
                  "internalType": "uint256",
                  "name": "replacedAtTimestamp",
                  "type": "uint256"
                },
                {
                  "internalType": "uint256",
                  "name": "createdAtBlock",
                  "type": "uint256"
                },
                {
                  "internalType": "uint256",
                  "name": "replacedAtBlock",
                  "type": "uint256"
                }
              ],
              "internalType": "struct StateLib.EntryInfo[]",
              "name": "",
              "type": "tuple[]"
            }
          ],
          "stateMutability": "view",
          "type": "function"
        },
        {
          "inputs": [
            {
              "internalType": "uint256",
              "name": "id",
              "type": "uint256"
            },
            {
              "internalType": "uint256",
              "name": "state",
              "type": "uint256"
            }
          ],
          "name": "getStateInfoListLengthByIdAndState",
          "outputs": [
            {
              "internalType": "uint256",
              "name": "",
              "type": "uint256"
            }
          ],
          "stateMutability": "view",
          "type": "function"
        },
        {
          "inputs": [
            {
              "internalType": "uint256",
              "name": "id",
              "type": "uint256"
            }
          ],
          "name": "idExists",
          "outputs": [
            {
              "internalType": "bool",
              "name": "",
              "type": "bool"
            }
          ],
          "stateMutability": "view",
          "type": "function"
        },
        {
          "inputs": [
            {
              "internalType": "uint256",
              "name": "id",
              "type": "uint256"
            },
            {
              "internalType": "uint256",
              "name": "state",
              "type": "uint256"
            }
          ],
          "name": "stateExists",
          "outputs": [
            {
              "internalType": "bool",
              "name": "",
              "type": "bool"
            }
          ],
          "stateMutability": "view",
          "type": "function"
        }
      ],
      "evm": {
        "bytecode": {
          "linkReferences": {
            "contracts/lib/StateLib.sol": {
              "StateLib": [
                {
                  "length": 20,
                  "start": 639
                },
                {
                  "length": 20,
                  "start": 771
                },
                {
                  "length": 20,
                  "start": 886
                },
                {
                  "length": 20,
                  "start": 1023
                },
                {
                  "length": 20,
                  "start": 1177
                },
                {
                  "length": 20,
                  "start": 1313
                },
                {
                  "length": 20,
                  "start": 1446
                },
                {
                  "length": 20,
                  "start": 1589
                },
                {
                  "length": 20,
                  "start": 1723
                },
                {
                  "length": 20,
                  "start": 1866
                }
              ]
            }
          },
          "object": "6080604052348015600f57600080fd5b506110258061001f6000396000f3fe608060405234801561001057600080fd5b506004361061009e5760003560e01c8063676d5b5a11610066578063676d5b5a1461017f5780637e136781146101af578063b4bdea55146101df578063e99858fe1461020f578063fe3dee6a1461023f5761009e565b80630b8a295a146100a35780631f562dc0146100d3578063233a4d23146100ef57806325a0537a1461011f57806353c873121461014f575b600080fd5b6100bd60048036038101906100b89190610820565b61025b565b6040516100ca9190610868565b60405180910390f35b6100ed60048036038101906100e89190610883565b6102e0565b005b61010960048036038101906101049190610883565b610352565b6040516101169190610868565b60405180910390f35b610139600480360381019061013491906108c3565b6103da565b6040516101469190610a76565b60405180910390f35b61016960048036038101906101649190610883565b61046e565b6040516101769190610b26565b60405180910390f35b61019960048036038101906101949190610820565b6104fd565b6040516101a69190610b50565b60405180910390f35b6101c960048036038101906101c49190610883565b610582565b6040516101d69190610b50565b60405180910390f35b6101f960048036038101906101f49190610820565b61060a565b6040516102069190610b26565b60405180910390f35b61022960048036038101906102249190610b6b565b610696565b6040516102369190610a76565b60405180910390f35b61025960048036038101906102549190610883565b610727565b005b60008073__$4c639ca777b976687a95879043001c96f4$__63419e76c19091846040518363ffffffff1660e01b8152600401610298929190610bd4565b602060405180830381865af41580156102b5573d6000803e3d6000fd5b505050506040513d601f19601f820116820180604052508101906102d99190610c29565b9050919050565b600073__$4c639ca777b976687a95879043001c96f4$__6344cfc45e909184846040518463ffffffff1660e01b815260040161031e93929190610c56565b60006040518083038186803b15801561033657600080fd5b505af415801561034a573d6000803e3d6000fd5b505050505050565b60008073__$4c639ca777b976687a95879043001c96f4$__63b1abcc4d909185856040518463ffffffff1660e01b815260040161039193929190610c56565b602060405180830381865af41580156103ae573d6000803e3d6000fd5b505050506040513d601f19601f820116820180604052508101906103d29190610c29565b905092915050565b6060600073__$4c639ca777b976687a95879043001c96f4$__637b87f75d9091878787876040518663ffffffff1660e01b815260040161041e959493929190610c8d565b600060405180830381865af415801561043b573d6000803e3d6000fd5b505050506040513d6000823e3d601f19601f820116820180604052508101906104649190610f07565b9050949350505050565b610476610799565b600073__$4c639ca777b976687a95879043001c96f4$__63893e9739909185856040518463ffffffff1660e01b81526004016104b493929190610c56565b60e060405180830381865af41580156104d1573d6000803e3d6000fd5b505050506040513d601f19601f820116820180604052508101906104f59190610f50565b905092915050565b60008073__$4c639ca777b976687a95879043001c96f4$__630e21d5fd9091846040518363ffffffff1660e01b815260040161053a929190610bd4565b602060405180830381865af4158015610557573d6000803e3d6000fd5b505050506040513d601f19601f8201168201806040525081019061057b9190610f7d565b9050919050565b60008073__$4c639ca777b976687a95879043001c96f4$__63b2a11b2b909185856040518463ffffffff1660e01b81526004016105c193929190610c56565b602060405180830381865af41580156105de573d6000803e3d6000fd5b505050506040513d601f19601f820116820180604052508101906106029190610f7d565b905092915050565b610612610799565b600073__$4c639ca777b976687a95879043001c96f4$__639da689469091846040518363ffffffff1660e01b815260040161064e929190610bd4565b60e060405180830381865af415801561066b573d6000803e3d6000fd5b505050506040513d601f19601f8201168201806040525081019061068f9190610f50565b9050919050565b6060600073__$4c639ca777b976687a95879043001c96f4$__6365fe1b5b90918686866040518563ffffffff1660e01b81526004016106d89493929190610faa565b600060405180830381865af41580156106f5573d6000803e3d6000fd5b505050506040513d6000823e3d601f19601f8201168201806040525081019061071e9190610f07565b90509392505050565b600073__$4c639ca777b976687a95879043001c96f4$__634a204218909184846040518463ffffffff1660e01b815260040161076593929190610c56565b60006040518083038186803b15801561077d57600080fd5b505af4158015610791573d6000803e3d6000fd5b505050505050565b6040518060e00160405280600081526020016000815260200160008152602001600081526020016000815260200160008152602001600081525090565b6000604051905090565b600080fd5b600080fd5b6000819050919050565b6107fd816107ea565b811461080857600080fd5b50565b60008135905061081a816107f4565b92915050565b600060208284031215610836576108356107e0565b5b60006108448482850161080b565b91505092915050565b60008115159050919050565b6108628161084d565b82525050565b600060208201905061087d6000830184610859565b92915050565b6000806040838503121561089a576108996107e0565b5b60006108a88582860161080b565b92505060206108b98582860161080b565b9150509250929050565b600080600080608085870312156108dd576108dc6107e0565b5b60006108eb8782880161080b565b94505060206108fc8782880161080b565b935050604061090d8782880161080b565b925050606061091e8782880161080b565b91505092959194509250565b600081519050919050565b600082825260208201905092915050565b6000819050602082019050919050565b61095f816107ea565b82525050565b60e08201600082015161097b6000850182610956565b50602082015161098e6020850182610956565b5060408201516109a16040850182610956565b5060608201516109b46060850182610956565b5060808201516109c76080850182610956565b5060a08201516109da60a0850182610956565b5060c08201516109ed60c0850182610956565b50505050565b60006109ff8383610965565b60e08301905092915050565b6000602082019050919050565b6000610a238261092a565b610a2d8185610935565b9350610a3883610946565b8060005b83811015610a69578151610a5088826109f3565b9750610a5b83610a0b565b925050600181019050610a3c565b5085935050505092915050565b60006020820190508181036000830152610a908184610a18565b905092915050565b60e082016000820151610aae6000850182610956565b506020820151610ac16020850182610956565b506040820151610ad46040850182610956565b506060820151610ae76060850182610956565b506080820151610afa6080850182610956565b5060a0820151610b0d60a0850182610956565b5060c0820151610b2060c0850182610956565b50505050565b600060e082019050610b3b6000830184610a98565b92915050565b610b4a816107ea565b82525050565b6000602082019050610b656000830184610b41565b92915050565b600080600060608486031215610b8457610b836107e0565b5b6000610b928682870161080b565b9350506020610ba38682870161080b565b9250506040610bb48682870161080b565b9150509250925092565b8082525050565b610bce816107ea565b82525050565b6000604082019050610be96000830185610bbe565b610bf66020830184610bc5565b9392505050565b610c068161084d565b8114610c1157600080fd5b50565b600081519050610c2381610bfd565b92915050565b600060208284031215610c3f57610c3e6107e0565b5b6000610c4d84828501610c14565b91505092915050565b6000606082019050610c6b6000830186610bbe565b610c786020830185610bc5565b610c856040830184610bc5565b949350505050565b600060a082019050610ca26000830188610bbe565b610caf6020830187610bc5565b610cbc6040830186610bc5565b610cc96060830185610bc5565b610cd66080830184610bc5565b9695505050505050565b600080fd5b6000601f19601f8301169050919050565b7f4e487b7100000000000000000000000000000000000000000000000000000000600052604160045260246000fd5b610d2e82610ce5565b810181811067ffffffffffffffff82111715610d4d57610d4c610cf6565b5b80604052505050565b6000610d606107d6565b9050610d6c8282610d25565b919050565b600067ffffffffffffffff821115610d8c57610d8b610cf6565b5b602082029050602081019050919050565b600080fd5b600080fd5b600081519050610db6816107f4565b92915050565b600060e08284031215610dd257610dd1610da2565b5b610ddc60e0610d56565b90506000610dec84828501610da7565b6000830152506020610e0084828501610da7565b6020830152506040610e1484828501610da7565b6040830152506060610e2884828501610da7565b6060830152506080610e3c84828501610da7565b60808301525060a0610e5084828501610da7565b60a08301525060c0610e6484828501610da7565b60c08301525092915050565b6000610e83610e7e84610d71565b610d56565b90508083825260208201905060e08402830185811115610ea657610ea5610d9d565b5b835b81811015610ecf5780610ebb8882610dbc565b84526020840193505060e081019050610ea8565b5050509392505050565b600082601f830112610eee57610eed610ce0565b5b8151610efe848260208601610e70565b91505092915050565b600060208284031215610f1d57610f1c6107e0565b5b600082015167ffffffffffffffff811115610f3b57610f3a6107e5565b5b610f4784828501610ed9565b91505092915050565b600060e08284031215610f6657610f656107e0565b5b6000610f7484828501610dbc565b91505092915050565b600060208284031215610f9357610f926107e0565b5b6000610fa184828501610da7565b91505092915050565b6000608082019050610fbf6000830187610bbe565b610fcc6020830186610bc5565b610fd96040830185610bc5565b610fe66060830184610bc5565b9594505050505056fea26469706673582212203ebdc8386c22da4bc0cdd67a5d16b829f99ebda6aa53c2f50b12b76fcfe1938564736f6c634300081b0033",
          "opcodes": "PUSH1 0x80 PUSH1 0x40 MSTORE CALLVALUE DUP1 ISZERO PUSH1 0xF JUMPI PUSH1 0x0 DUP1 REVERT JUMPDEST POP PUSH2 0x1025 DUP1 PUSH2 0x1F PUSH1 0x0 CODECOPY PUSH1 0x0 RETURN INVALID PUSH1 0x80 PUSH1 0x40 MSTORE CALLVALUE DUP1 ISZERO PUSH2 0x10 JUMPI PUSH1 0x0 DUP1 REVERT JUMPDEST POP PUSH1 0x4 CALLDATASIZE LT PUSH2 0x9E JUMPI PUSH1 0x0 CALLDATALOAD PUSH1 0xE0 SHR DUP1 PUSH4 0x676D5B5A GT PUSH2 0x66 JUMPI DUP1 PUSH4 0x676D5B5A EQ PUSH2 0x17F JUMPI DUP1 PUSH4 0x7E136781 EQ PUSH2 0x1AF JUMPI DUP1 PUSH4 0xB4BDEA55 EQ PUSH2 0x1DF JUMPI DUP1 PUSH4 0xE99858FE EQ PUSH2 0x20F JUMPI DUP1 PUSH4 0xFE3DEE6A EQ PUSH2 0x23F JUMPI PUSH2 0x9E JUMP JUMPDEST DUP1 PUSH4 0xB8A295A EQ PUSH2 0xA3 JUMPI DUP1 PUSH4 0x1F562DC0 EQ PUSH2 0xD3 JUMPI DUP1 PUSH4 0x233A4D23 EQ PUSH2 0xEF JUMPI DUP1 PUSH4 0x25A0537A EQ PUSH2 0x11F JUMPI DUP1 PUSH4 0x53C87312 EQ PUSH2 0x14F JUMPI JUMPDEST PUSH1 0x0 DUP1 REVERT JUMPDEST PUSH2 0xBD PUSH1 0x4 DUP1 CALLDATASIZE SUB DUP2 ADD SWAP1 PUSH2 0xB8 SWAP2 SWAP1 PUSH2 0x820 JUMP JUMPDEST PUSH2 0x25B JUMP JUMPDEST PUSH1 0x40 MLOAD PUSH2 0xCA SWAP2 SWAP1 PUSH2 0x868 JUMP JUMPDEST PUSH1 0x40 MLOAD DUP1 SWAP2 SUB SWAP1 RETURN JUMPDEST PUSH2 0xED PUSH1 0x4 DUP1 CALLDATASIZE SUB DUP2 ADD SWAP1 PUSH2 0xE8 SWAP2 SWAP1 PUSH2 0x883 JUMP JUMPDEST PUSH2 0x2E0 JUMP JUMPDEST STOP JUMPDEST PUSH2 0x109 PUSH1 0x4 DUP1 CALLDATASIZE SUB DUP2 ADD SWAP1 PUSH2 0x104 SWAP2 SWAP1 PUSH2 0x883 JUMP JUMPDEST PUSH2 0x352 JUMP JUMPDEST PUSH1 0x40 MLOAD PUSH2 0x116 SWAP2 SWAP1 PUSH2 0x868 JUMP JUMPDEST PUSH1 0x40 MLOAD DUP1 SWAP2 SUB SWAP1 RETURN JUMPDEST PUSH2 0x139 PUSH1 0x4 DUP1 CALLDATASIZE SUB DUP2 ADD SWAP1 PUSH2 0x134 SWAP2 SWAP1 PUSH2 0x8C3 JUMP JUMPDEST PUSH2 0x3DA JUMP JUMPDEST PUSH1 0x40 MLOAD PUSH2 0x146 SWAP2 SWAP1 PUSH2 0xA76 JUMP JUMPDEST PUSH1 0x40 MLOAD DUP1 SWAP2 SUB SWAP1 RETURN JUMPDEST PUSH2 0x169 PUSH1 0x4 DUP1 CALLDATASIZE SUB DUP2 ADD SWAP1 PUSH2 0x164 SWAP2 SWAP1 PUSH2 0x883 JUMP JUMPDEST PUSH2 0x46E JUMP JUMPDEST PUSH1 0x40 MLOAD PUSH2 0x176 SWAP2 SWAP1 PUSH2 0xB26 JUMP JUMPDEST PUSH1 0x40 MLOAD DUP1 SWAP2 SUB SWAP1 RETURN JUMPDEST PUSH2 0x199 PUSH1 0x4 DUP1 CALLDATASIZE SUB DUP2 ADD SWAP1 PUSH2 0x194 SWAP2 SWAP1 PUSH2 0x820 JUMP JUMPDEST PUSH2 0x4FD JUMP JUMPDEST PUSH1 0x40 MLOAD PUSH2 0x1A6 SWAP2 SWAP1 PUSH2 0xB50 JUMP JUMPDEST PUSH1 0x40 MLOAD DUP1 SWAP2 SUB SWAP1 RETURN JUMPDEST PUSH2 0x1C9 PUSH1 0x4 DUP1 CALLDATASIZE SUB DUP2 ADD SWAP1 PUSH2 0x1C4 SWAP2 SWAP1 PUSH2 0x883 JUMP JUMPDEST PUSH2 0x582 JUMP JUMPDEST PUSH1 0x40 MLOAD PUSH2 0x1D6 SWAP2 SWAP1 PUSH2 0xB50 JUMP JUMPDEST PUSH1 0x40 MLOAD DUP1 SWAP2 SUB SWAP1 RETURN JUMPDEST PUSH2 0x1F9 PUSH1 0x4 DUP1 CALLDATASIZE SUB DUP2 ADD SWAP1 PUSH2 0x1F4 SWAP2 SWAP1 PUSH2 0x820 JUMP JUMPDEST PUSH2 0x60A JUMP JUMPDEST PUSH1 0x40 MLOAD PUSH2 0x206 SWAP2 SWAP1 PUSH2 0xB26 JUMP JUMPDEST PUSH1 0x40 MLOAD DUP1 SWAP2 SUB SWAP1 RETURN JUMPDEST PUSH2 0x229 PUSH1 0x4 DUP1 CALLDATASIZE SUB DUP2 ADD SWAP1 PUSH2 0x224 SWAP2 SWAP1 PUSH2 0xB6B JUMP JUMPDEST PUSH2 0x696 JUMP JUMPDEST PUSH1 0x40 MLOAD PUSH2 0x236 SWAP2 SWAP1 PUSH2 0xA76 JUMP JUMPDEST PUSH1 0x40 MLOAD DUP1 SWAP2 SUB SWAP1 RETURN JUMPDEST PUSH2 0x259 PUSH1 0x4 DUP1 CALLDATASIZE SUB DUP2 ADD SWAP1 PUSH2 0x254 SWAP2 SWAP1 PUSH2 0x883 JUMP JUMPDEST PUSH2 0x727 JUMP JUMPDEST STOP JUMPDEST PUSH1 0x0 DUP1 PUSH20 0x0 PUSH4 0x419E76C1 SWAP1 SWAP2 DUP5 PUSH1 0x40 MLOAD DUP4 PUSH4 0xFFFFFFFF AND PUSH1 0xE0 SHL DUP2 MSTORE PUSH1 0x4 ADD PUSH2 0x298 SWAP3 SWAP2 SWAP1 PUSH2 0xBD4 JUMP JUMPDEST PUSH1 0x20 PUSH1 0x40 MLOAD DUP1 DUP4 SUB DUP2 DUP7 GAS DELEGATECALL ISZERO DUP1 ISZERO PUSH2 0x2B5 JUMPI RETURNDATASIZE PUSH1 0x0 DUP1 RETURNDATACOPY RETURNDATASIZE PUSH1 0x0 REVERT JUMPDEST POP POP POP POP PUSH1 0x40 MLOAD RETURNDATASIZE PUSH1 0x1F NOT PUSH1 0x1F DUP3 ADD AND DUP3 ADD DUP1 PUSH1 0x40 MSTORE POP DUP2 ADD SWAP1 PUSH2 0x2D9 SWAP2 SWAP1 PUSH2 0xC29 JUMP JUMPDEST SWAP1 POP SWAP2 SWAP1 POP JUMP JUMPDEST PUSH1 0x0 PUSH20 0x0 PUSH4 0x44CFC45E SWAP1 SWAP2 DUP5 DUP5 PUSH1 0x40 MLOAD DUP5 PUSH4 0xFFFFFFFF AND PUSH1 0xE0 SHL DUP2 MSTORE PUSH1 0x4 ADD PUSH2 0x31E SWAP4 SWAP3 SWAP2 SWAP1 PUSH2 0xC56 JUMP JUMPDEST PUSH1 0x0 PUSH1 0x40 MLOAD DUP1 DUP4 SUB DUP2 DUP7 DUP1 EXTCODESIZE ISZERO DUP1 ISZERO PUSH2 0x336 JUMPI PUSH1 0x0 DUP1 REVERT JUMPDEST POP GAS DELEGATECALL ISZERO DUP1 ISZERO PUSH2 0x34A JUMPI RETURNDATASIZE PUSH1 0x0 DUP1 RETURNDATACOPY RETURNDATASIZE PUSH1 0x0 REVERT JUMPDEST POP POP POP POP POP POP JUMP JUMPDEST PUSH1 0x0 DUP1 PUSH20 0x0 PUSH4 0xB1ABCC4D SWAP1 SWAP2 DUP6 DUP6 PUSH1 0x40 MLOAD DUP5 PUSH4 0xFFFFFFFF AND PUSH1 0xE0 SHL DUP2 MSTORE PUSH1 0x4 ADD PUSH2 0x391 SWAP4 SWAP3 SWAP2 SWAP1 PUSH2 0xC56 JUMP JUMPDEST PUSH1 0x20 PUSH1 0x40 MLOAD DUP1 DUP4 SUB DUP2 DUP7 GAS DELEGATECALL ISZERO DUP1 ISZERO PUSH2 0x3AE JUMPI RETURNDATASIZE PUSH1 0x0 DUP1 RETURNDATACOPY RETURNDATASIZE PUSH1 0x0 REVERT JUMPDEST POP POP POP POP PUSH1 0x40 MLOAD RETURNDATASIZE PUSH1 0x1F NOT PUSH1 0x1F DUP3 ADD AND DUP3 ADD DUP1 PUSH1 0x40 MSTORE POP DUP2 ADD SWAP1 PUSH2 0x3D2 SWAP2 SWAP1 PUSH2 0xC29 JUMP JUMPDEST SWAP1 POP SWAP3 SWAP2 POP POP JUMP JUMPDEST PUSH1 0x60 PUSH1 0x0 PUSH20 0x0 PUSH4 0x7B87F75D SWAP1 SWAP2 DUP8 DUP8 DUP8 DUP8 PUSH1 0x40 MLOAD DUP7 PUSH4 0xFFFFFFFF AND PUSH1 0xE0 SHL DUP2 MSTORE PUSH1 0x4 ADD PUSH2 0x41E SWAP6 SWAP5 SWAP4 SWAP3 SWAP2 SWAP1 PUSH2 0xC8D JUMP JUMPDEST PUSH1 0x0 PUSH1 0x40 MLOAD DUP1 DUP4 SUB DUP2 DUP7 GAS DELEGATECALL ISZERO DUP1 ISZERO PUSH2 0x43B JUMPI RETURNDATASIZE PUSH1 0x0 DUP1 RETURNDATACOPY RETURNDATASIZE PUSH1 0x0 REVERT JUMPDEST POP POP POP POP PUSH1 0x40 MLOAD RETURNDATASIZE PUSH1 0x0 DUP3 RETURNDATACOPY RETURNDATASIZE PUSH1 0x1F NOT PUSH1 0x1F DUP3 ADD AND DUP3 ADD DUP1 PUSH1 0x40 MSTORE POP DUP2 ADD SWAP1 PUSH2 0x464 SWAP2 SWAP1 PUSH2 0xF07 JUMP JUMPDEST SWAP1 POP SWAP5 SWAP4 POP POP POP POP JUMP JUMPDEST PUSH2 0x476 PUSH2 0x799 JUMP JUMPDEST PUSH1 0x0 PUSH20 0x0 PUSH4 0x893E9739 SWAP1 SWAP2 DUP6 DUP6 PUSH1 0x40 MLOAD DUP5 PUSH4 0xFFFFFFFF AND PUSH1 0xE0 SHL DUP2 MSTORE PUSH1 0x4 ADD PUSH2 0x4B4 SWAP4 SWAP3 SWAP2 SWAP1 PUSH2 0xC56 JUMP JUMPDEST PUSH1 0xE0 PUSH1 0x40 MLOAD DUP1 DUP4 SUB DUP2 DUP7 GAS DELEGATECALL ISZERO DUP1 ISZERO PUSH2 0x4D1 JUMPI RETURNDATASIZE PUSH1 0x0 DUP1 RETURNDATACOPY RETURNDATASIZE PUSH1 0x0 REVERT JUMPDEST POP POP POP POP PUSH1 0x40 MLOAD RETURNDATASIZE PUSH1 0x1F NOT PUSH1 0x1F DUP3 ADD AND DUP3 ADD DUP1 PUSH1 0x40 MSTORE POP DUP2 ADD SWAP1 PUSH2 0x4F5 SWAP2 SWAP1 PUSH2 0xF50 JUMP JUMPDEST SWAP1 POP SWAP3 SWAP2 POP POP JUMP JUMPDEST PUSH1 0x0 DUP1 PUSH20 0x0 PUSH4 0xE21D5FD SWAP1 SWAP2 DUP5 PUSH1 0x40 MLOAD DUP4 PUSH4 0xFFFFFFFF AND PUSH1 0xE0 SHL DUP2 MSTORE PUSH1 0x4 ADD PUSH2 0x53A SWAP3 SWAP2 SWAP1 PUSH2 0xBD4 JUMP JUMPDEST PUSH1 0x20 PUSH1 0x40 MLOAD DUP1 DUP4 SUB DUP2 DUP7 GAS DELEGATECALL ISZERO DUP1 ISZERO PUSH2 0x557 JUMPI RETURNDATASIZE PUSH1 0x0 DUP1 RETURNDATACOPY RETURNDATASIZE PUSH1 0x0 REVERT JUMPDEST POP POP POP POP PUSH1 0x40 MLOAD RETURNDATASIZE PUSH1 0x1F NOT PUSH1 0x1F DUP3 ADD AND DUP3 ADD DUP1 PUSH1 0x40 MSTORE POP DUP2 ADD SWAP1 PUSH2 0x57B SWAP2 SWAP1 PUSH2 0xF7D JUMP JUMPDEST SWAP1 POP SWAP2 SWAP1 POP JUMP JUMPDEST PUSH1 0x0 DUP1 PUSH20 0x0 PUSH4 0xB2A11B2B SWAP1 SWAP2 DUP6 DUP6 PUSH1 0x40 MLOAD DUP5 PUSH4 0xFFFFFFFF AND PUSH1 0xE0 SHL DUP2 MSTORE PUSH1 0x4 ADD PUSH2 0x5C1 SWAP4 SWAP3 SWAP2 SWAP1 PUSH2 0xC56 JUMP JUMPDEST PUSH1 0x20 PUSH1 0x40 MLOAD DUP1 DUP4 SUB DUP2 DUP7 GAS DELEGATECALL ISZERO DUP1 ISZERO PUSH2 0x5DE JUMPI RETURNDATASIZE PUSH1 0x0 DUP1 RETURNDATACOPY RETURNDATASIZE PUSH1 0x0 REVERT JUMPDEST POP POP POP POP PUSH1 0x40 MLOAD RETURNDATASIZE PUSH1 0x1F NOT PUSH1 0x1F DUP3 ADD AND DUP3 ADD DUP1 PUSH1 0x40 MSTORE POP DUP2 ADD SWAP1 PUSH2 0x602 SWAP2 SWAP1 PUSH2 0xF7D JUMP JUMPDEST SWAP1 POP SWAP3 SWAP2 POP POP JUMP JUMPDEST PUSH2 0x612 PUSH2 0x799 JUMP JUMPDEST PUSH1 0x0 PUSH20 0x0 PUSH4 0x9DA68946 SWAP1 SWAP2 DUP5 PUSH1 0x40 MLOAD DUP4 PUSH4 0xFFFFFFFF AND PUSH1 0xE0 SHL DUP2 MSTORE PUSH1 0x4 ADD PUSH2 0x64E SWAP3 SWAP2 SWAP1 PUSH2 0xBD4 JUMP JUMPDEST PUSH1 0xE0 PUSH1 0x40 MLOAD DUP1 DUP4 SUB DUP2 DUP7 GAS DELEGATECALL ISZERO DUP1 ISZERO PUSH2 0x66B JUMPI RETURNDATASIZE PUSH1 0x0 DUP1 RETURNDATACOPY RETURNDATASIZE PUSH1 0x0 REVERT JUMPDEST POP POP POP POP PUSH1 0x40 MLOAD RETURNDATASIZE PUSH1 0x1F NOT PUSH1 0x1F DUP3 ADD AND DUP3 ADD DUP1 PUSH1 0x40 MSTORE POP DUP2 ADD SWAP1 PUSH2 0x68F SWAP2 SWAP1 PUSH2 0xF50 JUMP JUMPDEST SWAP1 POP SWAP2 SWAP1 POP JUMP JUMPDEST PUSH1 0x60 PUSH1 0x0 PUSH20 0x0 PUSH4 0x65FE1B5B SWAP1 SWAP2 DUP7 DUP7 DUP7 PUSH1 0x40 MLOAD DUP6 PUSH4 0xFFFFFFFF AND PUSH1 0xE0 SHL DUP2 MSTORE PUSH1 0x4 ADD PUSH2 0x6D8 SWAP5 SWAP4 SWAP3 SWAP2 SWAP1 PUSH2 0xFAA JUMP JUMPDEST PUSH1 0x0 PUSH1 0x40 MLOAD DUP1 DUP4 SUB DUP2 DUP7 GAS DELEGATECALL ISZERO DUP1 ISZERO PUSH2 0x6F5 JUMPI RETURNDATASIZE PUSH1 0x0 DUP1 RETURNDATACOPY RETURNDATASIZE PUSH1 0x0 REVERT JUMPDEST POP POP POP POP PUSH1 0x40 MLOAD RETURNDATASIZE PUSH1 0x0 DUP3 RETURNDATACOPY RETURNDATASIZE PUSH1 0x1F NOT PUSH1 0x1F DUP3 ADD AND DUP3 ADD DUP1 PUSH1 0x40 MSTORE POP DUP2 ADD SWAP1 PUSH2 0x71E SWAP2 SWAP1 PUSH2 0xF07 JUMP JUMPDEST SWAP1 POP SWAP4 SWAP3 POP POP POP JUMP JUMPDEST PUSH1 0x0 PUSH20 0x0 PUSH4 0x4A204218 SWAP1 SWAP2 DUP5 DUP5 PUSH1 0x40 MLOAD DUP5 PUSH4 0xFFFFFFFF AND PUSH1 0xE0 SHL DUP2 MSTORE PUSH1 0x4 ADD PUSH2 0x765 SWAP4 SWAP3 SWAP2 SWAP1 PUSH2 0xC56 JUMP JUMPDEST PUSH1 0x0 PUSH1 0x40 MLOAD DUP1 DUP4 SUB DUP2 DUP7 DUP1 EXTCODESIZE ISZERO DUP1 ISZERO PUSH2 0x77D JUMPI PUSH1 0x0 DUP1 REVERT JUMPDEST POP GAS DELEGATECALL ISZERO DUP1 ISZERO PUSH2 0x791 JUMPI RETURNDATASIZE PUSH1 0x0 DUP1 RETURNDATACOPY RETURNDATASIZE PUSH1 0x0 REVERT JUMPDEST POP POP POP POP POP POP JUMP JUMPDEST PUSH1 0x40 MLOAD DUP1 PUSH1 0xE0 ADD PUSH1 0x40 MSTORE DUP1 PUSH1 0x0 DUP2 MSTORE PUSH1 0x20 ADD PUSH1 0x0 DUP2 MSTORE PUSH1 0x20 ADD PUSH1 0x0 DUP2 MSTORE PUSH1 0x20 ADD PUSH1 0x0 DUP2 MSTORE PUSH1 0x20 ADD PUSH1 0x0 DUP2 MSTORE PUSH1 0x20 ADD PUSH1 0x0 DUP2 MSTORE PUSH1 0x20 ADD PUSH1 0x0 DUP2 MSTORE POP SWAP1 JUMP JUMPDEST PUSH1 0x0 PUSH1 0x40 MLOAD SWAP1 POP SWAP1 JUMP JUMPDEST PUSH1 0x0 DUP1 REVERT JUMPDEST PUSH1 0x0 DUP1 REVERT JUMPDEST PUSH1 0x0 DUP2 SWAP1 POP SWAP2 SWAP1 POP JUMP JUMPDEST PUSH2 0x7FD DUP2 PUSH2 0x7EA JUMP JUMPDEST DUP2 EQ PUSH2 0x808 JUMPI PUSH1 0x0 DUP1 REVERT JUMPDEST POP JUMP JUMPDEST PUSH1 0x0 DUP2 CALLDATALOAD SWAP1 POP PUSH2 0x81A DUP2 PUSH2 0x7F4 JUMP JUMPDEST SWAP3 SWAP2 POP POP JUMP JUMPDEST PUSH1 0x0 PUSH1 0x20 DUP3 DUP5 SUB SLT ISZERO PUSH2 0x836 JUMPI PUSH2 0x835 PUSH2 0x7E0 JUMP JUMPDEST JUMPDEST PUSH1 0x0 PUSH2 0x844 DUP5 DUP3 DUP6 ADD PUSH2 0x80B JUMP JUMPDEST SWAP2 POP POP SWAP3 SWAP2 POP POP JUMP JUMPDEST PUSH1 0x0 DUP2 ISZERO ISZERO SWAP1 POP SWAP2 SWAP1 POP JUMP JUMPDEST PUSH2 0x862 DUP2 PUSH2 0x84D JUMP JUMPDEST DUP3 MSTORE POP POP JUMP JUMPDEST PUSH1 0x0 PUSH1 0x20 DUP3 ADD SWAP1 POP PUSH2 0x87D PUSH1 0x0 DUP4 ADD DUP5 PUSH2 0x859 JUMP JUMPDEST SWAP3 SWAP2 POP POP JUMP JUMPDEST PUSH1 0x0 DUP1 PUSH1 0x40 DUP4 DUP6 SUB SLT ISZERO PUSH2 0x89A JUMPI PUSH2 0x899 PUSH2 0x7E0 JUMP JUMPDEST JUMPDEST PUSH1 0x0 PUSH2 0x8A8 DUP6 DUP3 DUP7 ADD PUSH2 0x80B JUMP JUMPDEST SWAP3 POP POP PUSH1 0x20 PUSH2 0x8B9 DUP6 DUP3 DUP7 ADD PUSH2 0x80B JUMP JUMPDEST SWAP2 POP POP SWAP3 POP SWAP3 SWAP1 POP JUMP JUMPDEST PUSH1 0x0 DUP1 PUSH1 0x0 DUP1 PUSH1 0x80 DUP6 DUP8 SUB SLT ISZERO PUSH2 0x8DD JUMPI PUSH2 0x8DC PUSH2 0x7E0 JUMP JUMPDEST JUMPDEST PUSH1 0x0 PUSH2 0x8EB DUP8 DUP3 DUP9 ADD PUSH2 0x80B JUMP JUMPDEST SWAP5 POP POP PUSH1 0x20 PUSH2 0x8FC DUP8 DUP3 DUP9 ADD PUSH2 0x80B JUMP JUMPDEST SWAP4 POP POP PUSH1 0x40 PUSH2 0x90D DUP8 DUP3 DUP9 ADD PUSH2 0x80B JUMP JUMPDEST SWAP3 POP POP PUSH1 0x60 PUSH2 0x91E DUP8 DUP3 DUP9 ADD PUSH2 0x80B JUMP JUMPDEST SWAP2 POP POP SWAP3 SWAP6 SWAP2 SWAP5 POP SWAP3 POP JUMP JUMPDEST PUSH1 0x0 DUP2 MLOAD SWAP1 POP SWAP2 SWAP1 POP JUMP JUMPDEST PUSH1 0x0 DUP3 DUP3 MSTORE PUSH1 0x20 DUP3 ADD SWAP1 POP SWAP3 SWAP2 POP POP JUMP JUMPDEST PUSH1 0x0 DUP2 SWAP1 POP PUSH1 0x20 DUP3 ADD SWAP1 POP SWAP2 SWAP1 POP JUMP JUMPDEST PUSH2 0x95F DUP2 PUSH2 0x7EA JUMP JUMPDEST DUP3 MSTORE POP POP JUMP JUMPDEST PUSH1 0xE0 DUP3 ADD PUSH1 0x0 DUP3 ADD MLOAD PUSH2 0x97B PUSH1 0x0 DUP6 ADD DUP3 PUSH2 0x956 JUMP JUMPDEST POP PUSH1 0x20 DUP3 ADD MLOAD PUSH2 0x98E PUSH1 0x20 DUP6 ADD DUP3 PUSH2 0x956 JUMP JUMPDEST POP PUSH1 0x40 DUP3 ADD MLOAD PUSH2 0x9A1 PUSH1 0x40 DUP6 ADD DUP3 PUSH2 0x956 JUMP JUMPDEST POP PUSH1 0x60 DUP3 ADD MLOAD PUSH2 0x9B4 PUSH1 0x60 DUP6 ADD DUP3 PUSH2 0x956 JUMP JUMPDEST POP PUSH1 0x80 DUP3 ADD MLOAD PUSH2 0x9C7 PUSH1 0x80 DUP6 ADD DUP3 PUSH2 0x956 JUMP JUMPDEST POP PUSH1 0xA0 DUP3 ADD MLOAD PUSH2 0x9DA PUSH1 0xA0 DUP6 ADD DUP3 PUSH2 0x956 JUMP JUMPDEST POP PUSH1 0xC0 DUP3 ADD MLOAD PUSH2 0x9ED PUSH1 0xC0 DUP6 ADD DUP3 PUSH2 0x956 JUMP JUMPDEST POP POP POP POP JUMP JUMPDEST PUSH1 0x0 PUSH2 0x9FF DUP4 DUP4 PUSH2 0x965 JUMP JUMPDEST PUSH1 0xE0 DUP4 ADD SWAP1 POP SWAP3 SWAP2 POP POP JUMP JUMPDEST PUSH1 0x0 PUSH1 0x20 DUP3 ADD SWAP1 POP SWAP2 SWAP1 POP JUMP JUMPDEST PUSH1 0x0 PUSH2 0xA23 DUP3 PUSH2 0x92A JUMP JUMPDEST PUSH2 0xA2D DUP2 DUP6 PUSH2 0x935 JUMP JUMPDEST SWAP4 POP PUSH2 0xA38 DUP4 PUSH2 0x946 JUMP JUMPDEST DUP1 PUSH1 0x0 JUMPDEST DUP4 DUP2 LT ISZERO PUSH2 0xA69 JUMPI DUP2 MLOAD PUSH2 0xA50 DUP9 DUP3 PUSH2 0x9F3 JUMP JUMPDEST SWAP8 POP PUSH2 0xA5B DUP4 PUSH2 0xA0B JUMP JUMPDEST SWAP3 POP POP PUSH1 0x1 DUP2 ADD SWAP1 POP PUSH2 0xA3C JUMP JUMPDEST POP DUP6 SWAP4 POP POP POP POP SWAP3 SWAP2 POP POP JUMP JUMPDEST PUSH1 0x0 PUSH1 0x20 DUP3 ADD SWAP1 POP DUP2 DUP2 SUB PUSH1 0x0 DUP4 ADD MSTORE PUSH2 0xA90 DUP2 DUP5 PUSH2 0xA18 JUMP JUMPDEST SWAP1 POP SWAP3 SWAP2 POP POP JUMP JUMPDEST PUSH1 0xE0 DUP3 ADD PUSH1 0x0 DUP3 ADD MLOAD PUSH2 0xAAE PUSH1 0x0 DUP6 ADD DUP3 PUSH2 0x956 JUMP JUMPDEST POP PUSH1 0x20 DUP3 ADD MLOAD PUSH2 0xAC1 PUSH1 0x20 DUP6 ADD DUP3 PUSH2 0x956 JUMP JUMPDEST POP PUSH1 0x40 DUP3 ADD MLOAD PUSH2 0xAD4 PUSH1 0x40 DUP6 ADD DUP3 PUSH2 0x956 JUMP JUMPDEST POP PUSH1 0x60 DUP3 ADD MLOAD PUSH2 0xAE7 PUSH1 0x60 DUP6 ADD DUP3 PUSH2 0x956 JUMP JUMPDEST POP PUSH1 0x80 DUP3 ADD MLOAD PUSH2 0xAFA PUSH1 0x80 DUP6 ADD DUP3 PUSH2 0x956 JUMP JUMPDEST POP PUSH1 0xA0 DUP3 ADD MLOAD PUSH2 0xB0D PUSH1 0xA0 DUP6 ADD DUP3 PUSH2 0x956 JUMP JUMPDEST POP PUSH1 0xC0 DUP3 ADD MLOAD PUSH2 0xB20 PUSH1 0xC0 DUP6 ADD DUP3 PUSH2 0x956 JUMP JUMPDEST POP POP POP POP JUMP JUMPDEST PUSH1 0x0 PUSH1 0xE0 DUP3 ADD SWAP1 POP PUSH2 0xB3B PUSH1 0x0 DUP4 ADD DUP5 PUSH2 0xA98 JUMP JUMPDEST SWAP3 SWAP2 POP POP JUMP JUMPDEST PUSH2 0xB4A DUP2 PUSH2 0x7EA JUMP JUMPDEST DUP3 MSTORE POP POP JUMP JUMPDEST PUSH1 0x0 PUSH1 0x20 DUP3 ADD SWAP1 POP PUSH2 0xB65 PUSH1 0x0 DUP4 ADD DUP5 PUSH2 0xB41 JUMP JUMPDEST SWAP3 SWAP2 POP POP JUMP JUMPDEST PUSH1 0x0 DUP1 PUSH1 0x0 PUSH1 0x60 DUP5 DUP7 SUB SLT ISZERO PUSH2 0xB84 JUMPI PUSH2 0xB83 PUSH2 0x7E0 JUMP JUMPDEST JUMPDEST PUSH1 0x0 PUSH2 0xB92 DUP7 DUP3 DUP8 ADD PUSH2 0x80B JUMP JUMPDEST SWAP4 POP POP PUSH1 0x20 PUSH2 0xBA3 DUP7 DUP3 DUP8 ADD PUSH2 0x80B JUMP JUMPDEST SWAP3 POP POP PUSH1 0x40 PUSH2 0xBB4 DUP7 DUP3 DUP8 ADD PUSH2 0x80B JUMP JUMPDEST SWAP2 POP POP SWAP3 POP SWAP3 POP SWAP3 JUMP JUMPDEST DUP1 DUP3 MSTORE POP POP JUMP JUMPDEST PUSH2 0xBCE DUP2 PUSH2 0x7EA JUMP JUMPDEST DUP3 MSTORE POP POP JUMP JUMPDEST PUSH1 0x0 PUSH1 0x40 DUP3 ADD SWAP1 POP PUSH2 0xBE9 PUSH1 0x0 DUP4 ADD DUP6 PUSH2 0xBBE JUMP JUMPDEST PUSH2 0xBF6 PUSH1 0x20 DUP4 ADD DUP5 PUSH2 0xBC5 JUMP JUMPDEST SWAP4 SWAP3 POP POP POP JUMP JUMPDEST PUSH2 0xC06 DUP2 PUSH2 0x84D JUMP JUMPDEST DUP2 EQ PUSH2 0xC11 JUMPI PUSH1 0x0 DUP1 REVERT JUMPDEST POP JUMP JUMPDEST PUSH1 0x0 DUP2 MLOAD SWAP1 POP PUSH2 0xC23 DUP2 PUSH2 0xBFD JUMP JUMPDEST SWAP3 SWAP2 POP POP JUMP JUMPDEST PUSH1 0x0 PUSH1 0x20 DUP3 DUP5 SUB SLT ISZERO PUSH2 0xC3F JUMPI PUSH2 0xC3E PUSH2 0x7E0 JUMP JUMPDEST JUMPDEST PUSH1 0x0 PUSH2 0xC4D DUP5 DUP3 DUP6 ADD PUSH2 0xC14 JUMP JUMPDEST SWAP2 POP POP SWAP3 SWAP2 POP POP JUMP JUMPDEST PUSH1 0x0 PUSH1 0x60 DUP3 ADD SWAP1 POP PUSH2 0xC6B PUSH1 0x0 DUP4 ADD DUP7 PUSH2 0xBBE JUMP JUMPDEST PUSH2 0xC78 PUSH1 0x20 DUP4 ADD DUP6 PUSH2 0xBC5 JUMP JUMPDEST PUSH2 0xC85 PUSH1 0x40 DUP4 ADD DUP5 PUSH2 0xBC5 JUMP JUMPDEST SWAP5 SWAP4 POP POP POP POP JUMP JUMPDEST PUSH1 0x0 PUSH1 0xA0 DUP3 ADD SWAP1 POP PUSH2 0xCA2 PUSH1 0x0 DUP4 ADD DUP9 PUSH2 0xBBE JUMP JUMPDEST PUSH2 0xCAF PUSH1 0x20 DUP4 ADD DUP8 PUSH2 0xBC5 JUMP JUMPDEST PUSH2 0xCBC PUSH1 0x40 DUP4 ADD DUP7 PUSH2 0xBC5 JUMP JUMPDEST PUSH2 0xCC9 PUSH1 0x60 DUP4 ADD DUP6 PUSH2 0xBC5 JUMP JUMPDEST PUSH2 0xCD6 PUSH1 0x80 DUP4 ADD DUP5 PUSH2 0xBC5 JUMP JUMPDEST SWAP7 SWAP6 POP POP POP POP POP POP JUMP JUMPDEST PUSH1 0x0 DUP1 REVERT JUMPDEST PUSH1 0x0 PUSH1 0x1F NOT PUSH1 0x1F DUP4 ADD AND SWAP1 POP SWAP2 SWAP1 POP JUMP JUMPDEST PUSH32 0x4E487B7100000000000000000000000000000000000000000000000000000000 PUSH1 0x0 MSTORE PUSH1 0x41 PUSH1 0x4 MSTORE PUSH1 0x24 PUSH1 0x0 REVERT JUMPDEST PUSH2 0xD2E DUP3 PUSH2 0xCE5 JUMP JUMPDEST DUP2 ADD DUP2 DUP2 LT PUSH8 0xFFFFFFFFFFFFFFFF DUP3 GT OR ISZERO PUSH2 0xD4D JUMPI PUSH2 0xD4C PUSH2 0xCF6 JUMP JUMPDEST JUMPDEST DUP1 PUSH1 0x40 MSTORE POP POP POP JUMP JUMPDEST PUSH1 0x0 PUSH2 0xD60 PUSH2 0x7D6 JUMP JUMPDEST SWAP1 POP PUSH2 0xD6C DUP3 DUP3 PUSH2 0xD25 JUMP JUMPDEST SWAP2 SWAP1 POP JUMP JUMPDEST PUSH1 0x0 PUSH8 0xFFFFFFFFFFFFFFFF DUP3 GT ISZERO PUSH2 0xD8C JUMPI PUSH2 0xD8B PUSH2 0xCF6 JUMP JUMPDEST JUMPDEST PUSH1 0x20 DUP3 MUL SWAP1 POP PUSH1 0x20 DUP2 ADD SWAP1 POP SWAP2 SWAP1 POP JUMP JUMPDEST PUSH1 0x0 DUP1 REVERT JUMPDEST PUSH1 0x0 DUP1 REVERT JUMPDEST PUSH1 0x0 DUP2 MLOAD SWAP1 POP PUSH2 0xDB6 DUP2 PUSH2 0x7F4 JUMP JUMPDEST SWAP3 SWAP2 POP POP JUMP JUMPDEST PUSH1 0x0 PUSH1 0xE0 DUP3 DUP5 SUB SLT ISZERO PUSH2 0xDD2 JUMPI PUSH2 0xDD1 PUSH2 0xDA2 JUMP JUMPDEST JUMPDEST PUSH2 0xDDC PUSH1 0xE0 PUSH2 0xD56 JUMP JUMPDEST SWAP1 POP PUSH1 0x0 PUSH2 0xDEC DUP5 DUP3 DUP6 ADD PUSH2 0xDA7 JUMP JUMPDEST PUSH1 0x0 DUP4 ADD MSTORE POP PUSH1 0x20 PUSH2 0xE00 DUP5 DUP3 DUP6 ADD PUSH2 0xDA7 JUMP JUMPDEST PUSH1 0x20 DUP4 ADD MSTORE POP PUSH1 0x40 PUSH2 0xE14 DUP5 DUP3 DUP6 ADD PUSH2 0xDA7 JUMP JUMPDEST PUSH1 0x40 DUP4 ADD MSTORE POP PUSH1 0x60 PUSH2 0xE28 DUP5 DUP3 DUP6 ADD PUSH2 0xDA7 JUMP JUMPDEST PUSH1 0x60 DUP4 ADD MSTORE POP PUSH1 0x80 PUSH2 0xE3C DUP5 DUP3 DUP6 ADD PUSH2 0xDA7 JUMP JUMPDEST PUSH1 0x80 DUP4 ADD MSTORE POP PUSH1 0xA0 PUSH2 0xE50 DUP5 DUP3 DUP6 ADD PUSH2 0xDA7 JUMP JUMPDEST PUSH1 0xA0 DUP4 ADD MSTORE POP PUSH1 0xC0 PUSH2 0xE64 DUP5 DUP3 DUP6 ADD PUSH2 0xDA7 JUMP JUMPDEST PUSH1 0xC0 DUP4 ADD MSTORE POP SWAP3 SWAP2 POP POP JUMP JUMPDEST PUSH1 0x0 PUSH2 0xE83 PUSH2 0xE7E DUP5 PUSH2 0xD71 JUMP JUMPDEST PUSH2 0xD56 JUMP JUMPDEST SWAP1 POP DUP1 DUP4 DUP3 MSTORE PUSH1 0x20 DUP3 ADD SWAP1 POP PUSH1 0xE0 DUP5 MUL DUP4 ADD DUP6 DUP2 GT ISZERO PUSH2 0xEA6 JUMPI PUSH2 0xEA5 PUSH2 0xD9D JUMP JUMPDEST JUMPDEST DUP4 JUMPDEST DUP2 DUP2 LT ISZERO PUSH2 0xECF JUMPI DUP1 PUSH2 0xEBB DUP9 DUP3 PUSH2 0xDBC JUMP JUMPDEST DUP5 MSTORE PUSH1 0x20 DUP5 ADD SWAP4 POP POP PUSH1 0xE0 DUP2 ADD SWAP1 POP PUSH2 0xEA8 JUMP JUMPDEST POP POP POP SWAP4 SWAP3 POP POP POP JUMP JUMPDEST PUSH1 0x0 DUP3 PUSH1 0x1F DUP4 ADD SLT PUSH2 0xEEE JUMPI PUSH2 0xEED PUSH2 0xCE0 JUMP JUMPDEST JUMPDEST DUP2 MLOAD PUSH2 0xEFE DUP5 DUP3 PUSH1 0x20 DUP7 ADD PUSH2 0xE70 JUMP JUMPDEST SWAP2 POP POP SWAP3 SWAP2 POP POP JUMP JUMPDEST PUSH1 0x0 PUSH1 0x20 DUP3 DUP5 SUB SLT ISZERO PUSH2 0xF1D JUMPI PUSH2 0xF1C PUSH2 0x7E0 JUMP JUMPDEST JUMPDEST PUSH1 0x0 DUP3 ADD MLOAD PUSH8 0xFFFFFFFFFFFFFFFF DUP2 GT ISZERO PUSH2 0xF3B JUMPI PUSH2 0xF3A PUSH2 0x7E5 JUMP JUMPDEST JUMPDEST PUSH2 0xF47 DUP5 DUP3 DUP6 ADD PUSH2 0xED9 JUMP JUMPDEST SWAP2 POP POP SWAP3 SWAP2 POP POP JUMP JUMPDEST PUSH1 0x0 PUSH1 0xE0 DUP3 DUP5 SUB SLT ISZERO PUSH2 0xF66 JUMPI PUSH2 0xF65 PUSH2 0x7E0 JUMP JUMPDEST JUMPDEST PUSH1 0x0 PUSH2 0xF74 DUP5 DUP3 DUP6 ADD PUSH2 0xDBC JUMP JUMPDEST SWAP2 POP POP SWAP3 SWAP2 POP POP JUMP JUMPDEST PUSH1 0x0 PUSH1 0x20 DUP3 DUP5 SUB SLT ISZERO PUSH2 0xF93 JUMPI PUSH2 0xF92 PUSH2 0x7E0 JUMP JUMPDEST JUMPDEST PUSH1 0x0 PUSH2 0xFA1 DUP5 DUP3 DUP6 ADD PUSH2 0xDA7 JUMP JUMPDEST SWAP2 POP POP SWAP3 SWAP2 POP POP JUMP JUMPDEST PUSH1 0x0 PUSH1 0x80 DUP3 ADD SWAP1 POP PUSH2 0xFBF PUSH1 0x0 DUP4 ADD DUP8 PUSH2 0xBBE JUMP JUMPDEST PUSH2 0xFCC PUSH1 0x20 DUP4 ADD DUP7 PUSH2 0xBC5 JUMP JUMPDEST PUSH2 0xFD9 PUSH1 0x40 DUP4 ADD DUP6 PUSH2 0xBC5 JUMP JUMPDEST PUSH2 0xFE6 PUSH1 0x60 DUP4 ADD DUP5 PUSH2 0xBC5 JUMP JUMPDEST SWAP6 SWAP5 POP POP POP POP POP JUMP INVALID LOG2 PUSH5 0x6970667358 0x22 SLT KECCAK256 RETURNDATACOPY 0xBD 0xC8 CODESIZE PUSH13 0x22DA4BC0CDD67A5D16B829F99E 0xBD 0xA6 0xAA MSTORE8 0xC2 CREATE2 SIGNEXTEND SLT 0xB7 PUSH16 0xCFE1938564736F6C634300081B003300 "
        },
        "methodIdentifiers": {
          "addGenesisState(uint256,uint256)": "fe3dee6a",
          "addState(uint256,uint256)": "1f562dc0",
          "getStateInfoById(uint256)": "b4bdea55",
          "getStateInfoByIdAndState(uint256,uint256)": "53c87312",
          "getStateInfoHistoryById(uint256,uint256,uint256)": "e99858fe",
          "getStateInfoHistoryLengthById(uint256)": "676d5b5a",
          "getStateInfoListByIdAndState(uint256,uint256,uint256,uint256)": "25a0537a",
          "getStateInfoListLengthByIdAndState(uint256,uint256)": "7e136781",
          "idExists(uint256)": "0b8a295a",
          "stateExists(uint256,uint256)": "233a4d23"
        }
      },
      "storageLayout": {
        "storage": [
          {
            "astId": 743,
            "contract": "contracts/test-helpers/StateLibTestWrapper.sol:StateLibTestWrapper",
            "label": "stateData",
            "offset": 0,
            "slot": "0",
            "type": "t_struct(Data)116_storage"
          }
        ],
        "types": {
          "t_array(t_struct(Entry)93_storage)dyn_storage": {
            "base": "t_struct(Entry)93_storage",
            "encoding": "dynamic_array",
            "label": "struct StateLib.Entry[]",
            "numberOfBytes": "32"
          },
          "t_array(t_uint256)47_storage": {
            "base": "t_uint256",
            "encoding": "inplace",
            "label": "uint256[47]",
            "numberOfBytes": "1504"
          },
          "t_array(t_uint256)dyn_storage": {
            "base": "t_uint256",
            "encoding": "dynamic_array",
            "label": "uint256[]",
            "numberOfBytes": "32"
          },
          "t_bool": {
            "encoding": "inplace",
            "label": "bool",
            "numberOfBytes": "1"
          },
          "t_bytes2": {
            "encoding": "inplace",
            "label": "bytes2",
            "numberOfBytes": "2"
          },
          "t_mapping(t_bytes2,t_bool)": {
            "encoding": "mapping",
            "key": "t_bytes2",
            "label": "mapping(bytes2 => bool)",
            "numberOfBytes": "32",
            "value": "t_bool"
          },
          "t_mapping(t_uint256,t_array(t_struct(Entry)93_storage)dyn_storage)": {
            "encoding": "mapping",
            "key": "t_uint256",
            "label": "mapping(uint256 => struct StateLib.Entry[])",
            "numberOfBytes": "32",
            "value": "t_array(t_struct(Entry)93_storage)dyn_storage"
          },
          "t_mapping(t_uint256,t_array(t_uint256)dyn_storage)": {
            "encoding": "mapping",
            "key": "t_uint256",
            "label": "mapping(uint256 => uint256[])",
            "numberOfBytes": "32",
            "value": "t_array(t_uint256)dyn_storage"
          },
          "t_mapping(t_uint256,t_mapping(t_uint256,t_array(t_uint256)dyn_storage))": {
            "encoding": "mapping",
            "key": "t_uint256",
            "label": "mapping(uint256 => mapping(uint256 => uint256[]))",
            "numberOfBytes": "32",
            "value": "t_mapping(t_uint256,t_array(t_uint256)dyn_storage)"
          },
          "t_struct(Data)116_storage": {
            "encoding": "inplace",
            "label": "struct StateLib.Data",
            "members": [
              {
                "astId": 100,
                "contract": "contracts/test-helpers/StateLibTestWrapper.sol:StateLibTestWrapper",
                "label": "stateEntries",
                "offset": 0,
                "slot": "0",
                "type": "t_mapping(t_uint256,t_array(t_struct(Entry)93_storage)dyn_storage)"
              },
              {
                "astId": 107,
                "contract": "contracts/test-helpers/StateLibTestWrapper.sol:StateLibTestWrapper",
                "label": "stateIndexes",
                "offset": 0,
                "slot": "1",
                "type": "t_mapping(t_uint256,t_mapping(t_uint256,t_array(t_uint256)dyn_storage))"
              },
              {
                "astId": 111,
                "contract": "contracts/test-helpers/StateLibTestWrapper.sol:StateLibTestWrapper",
                "label": "isIdTypeSupported",
                "offset": 0,
                "slot": "2",
                "type": "t_mapping(t_bytes2,t_bool)"
              },
              {
                "astId": 115,
                "contract": "contracts/test-helpers/StateLibTestWrapper.sol:StateLibTestWrapper",
                "label": "__gap",
                "offset": 0,
                "slot": "3",
                "type": "t_array(t_uint256)47_storage"
              }
            ],
            "numberOfBytes": "1600"
          },
          "t_struct(Entry)93_storage": {
            "encoding": "inplace",
            "label": "struct StateLib.Entry",
            "members": [
              {
                "astId": 88,
                "contract": "contracts/test-helpers/StateLibTestWrapper.sol:StateLibTestWrapper",
                "label": "state",
                "offset": 0,
                "slot": "0",
                "type": "t_uint256"
              },
              {
                "astId": 90,
                "contract": "contracts/test-helpers/StateLibTestWrapper.sol:StateLibTestWrapper",
                "label": "timestamp",
                "offset": 0,
                "slot": "1",
                "type": "t_uint256"
              },
              {
                "astId": 92,
                "contract": "contracts/test-helpers/StateLibTestWrapper.sol:StateLibTestWrapper",
                "label": "block",
                "offset": 0,
                "slot": "2",
                "type": "t_uint256"
              }
            ],
            "numberOfBytes": "96"
          },
          "t_uint256": {
            "encoding": "inplace",
            "label": "uint256",
            "numberOfBytes": "32"
          }
        }
      }
    }
  }
}