{
  "contracts/lib/StateLib.sol": {
    "StateLib": {
      "abi": [
        {
          "anonymous": false,
          "inputs": [
            {
              "indexed": false,
              "internalType": "uint256",
              "name": "id",
              "type": "uint256"
            },
            {
              "indexed": false,
              "internalType": "uint256",
              "name": "blockN",
              "type": "uint256"
            },
            {
              "indexed": false,
              "internalType": "uint256",
              "name": "timestamp",
              "type": "uint256"
            },
            {
              "indexed": false,
              "internalType": "uint256",
              "name": "state",
              "type": "uint256"
            }
          ],
          "name": "StateUpdated",
          "type": "event"
        },
        {
          "inputs": [],
          "name": "ID_HISTORY_RETURN_LIMIT",
          "outputs": [
            {
              "internalType": "uint256",
              "name": "",
              "type": "uint256"
            }
          ],
          "stateMutability": "view",
          "type": "function"
        }
      ],
      "evm": {
        "bytecode": {
          "linkReferences": {},
          "object": "611540610052600b82828239805160001a6073146045577f4e487b7100000000000000000000000000000000000000000000000000000000600052600060045260246000fd5b30600052607381538281f3fe73000000000000000000000000000000000000000030146080604052600436106100b35760003560e01c80637b87f75d1161007b5780637b87f75d1461019a578063893e9739146101ca5780639da68946146101fa578063b1abcc4d1461022a578063b2a11b2b1461025a578063eaa6b26c1461028a576100b3565b80630e21d5fd146100b8578063419e76c1146100e857806344cfc45e146101185780634a2042181461014157806365fe1b5b1461016a575b600080fd5b6100d260048036038101906100cd9190610d3c565b6102a8565b6040516100df9190610d8b565b60405180910390f35b61010260048036038101906100fd9190610d3c565b610318565b60405161010f9190610dc1565b60405180910390f35b81801561012457600080fd5b5061013f600480360381019061013a9190610ddc565b61033d565b005b81801561014d57600080fd5b5061016860048036038101906101639190610ddc565b61034f565b005b610184600480360381019061017f9190610e2f565b6103ac565b6040516101919190610fe2565b60405180910390f35b6101b460048036038101906101af9190611004565b6104e9565b6040516101c19190610fe2565b60405180910390f35b6101e460048036038101906101df9190610ddc565b61065e565b6040516101f1919061110d565b60405180910390f35b610214600480360381019061020f9190610d3c565b6106ca565b604051610221919061110d565b60405180910390f35b610244600480360381019061023f9190610ddc565b6107e2565b6040516102519190610dc1565b60405180910390f35b610274600480360381019061026f9190610ddc565b610819565b6040516102819190610d8b565b60405180910390f35b61029261084e565b60405161029f9190610d8b565b60405180910390f35b600082826102b68282610318565b6102f5576040517f08c379a00000000000000000000000000000000000000000000000000000000081526004016102ec90611185565b60405180910390fd5b846000016000858152602001908152602001600020805490509250505092915050565b6000808360000160008481526020019081526020016000208054905011905092915050565b61034a8383834243610854565b505050565b6103598383610318565b15610399576040517f08c379a0000000000000000000000000000000000000000000000000000000008152600401610390906111f1565b60405180910390fd5b6103a7838383600080610854565b505050565b606084846103ba8282610318565b6103f9576040517f08c379a00000000000000000000000000000000000000000000000000000000081526004016103f090611185565b60405180910390fd5b6000806104228960000160008a81526020019081526020016000208054905088886103e8610974565b91509150600082826104349190611240565b67ffffffffffffffff81111561044d5761044c611274565b5b60405190808252806020026020018201604052801561048657816020015b610473610c8e565b81526020019060019003908161046b5790505b50905060008390505b828110156104d8576104a28b8b83610a6b565b8285836104af9190611240565b815181106104c0576104bf6112a3565b5b6020026020010181905250808060010191505061048f565b508095505050505050949350505050565b60608585856104f98383836107e2565b610538576040517f08c379a000000000000000000000000000000000000000000000000000000000815260040161052f9061131e565b60405180910390fd5b60008960010160008a81526020019081526020016000206000898152602001908152602001600020905060008061057783805490508a8a6103e8610974565b91509150600082826105899190611240565b67ffffffffffffffff8111156105a2576105a1611274565b5b6040519080825280602002602001820160405280156105db57816020015b6105c8610c8e565b8152602001906001900390816105c05790505b50905060008390505b8281101561064a576106148e8e878481548110610604576106036112a3565b5b9060005260206000200154610a6b565b8285836106219190611240565b81518110610632576106316112a3565b5b602002602001018190525080806001019150506105e4565b508097505050505050505095945050505050565b610666610c8e565b8383836106748383836107e2565b6106b3576040517f08c379a00000000000000000000000000000000000000000000000000000000081526004016106aa9061131e565b60405180910390fd5b6106be878787610c14565b93505050509392505050565b6106d2610c8e565b82826106de8282610318565b61071d576040517f08c379a000000000000000000000000000000000000000000000000000000000815260040161071490611185565b60405180910390fd5b600085600001600086815260200190815260200160002090506000816001838054905061074a9190611240565b8154811061075b5761075a6112a3565b5b9060005260206000209060030201604051806060016040529081600082015481526020016001820154815260200160028201548152505090506040518060e001604052808781526020018260000151815260200160008152602001826020015181526020016000815260200182604001518152602001600081525094505050505092915050565b6000808460010160008581526020019081526020016000206000848152602001908152602001600020805490501190509392505050565b600083600101600084815260200190815260200160002060008381526020019081526020016000208054905090509392505050565b6103e881565b6000856000016000868152602001908152602001600020905080604051806060016040528086815260200185815260200184815250908060018154018082558091505060019003906000526020600020906003020160009091909190915060008201518160000155602082015181600101556040820151816002015550508560010160008681526020019081526020016000206000858152602001908152602001600020600182805490506109099190611240565b90806001815401808255809150506001900390600052602060002001600090919091909150557f88aef4d78ad30d12a12a98e96007f5b09c1610b5364b2b99960b7d07e00a883885838587604051610964949392919061134d565b60405180910390a1505050505050565b600080600084116109ba576040517f08c379a00000000000000000000000000000000000000000000000000000000081526004016109b1906113de565b60405180910390fd5b828411156109fd576040517f08c379a00000000000000000000000000000000000000000000000000000000081526004016109f49061144a565b60405180910390fd5b858510610a3f576040517f08c379a0000000000000000000000000000000000000000000000000000000008152600401610a36906114b6565b60405180910390fd5b60008486610a4d91906114d6565b905086811115610a5b578690505b8581925092505094509492505050565b610a73610c8e565b6000600185600001600086815260200190815260200160002080549050610a9a9190611240565b8314905060008560000160008681526020019081526020016000208481548110610ac757610ac66112a3565b5b906000526020600020906003020190506040518060e001604052808681526020018260000154815260200183610b4157876000016000888152602001908152602001600020600187610b1991906114d6565b81548110610b2a57610b296112a3565b5b906000526020600020906003020160000154610b44565b60005b81526020018260010154815260200183610ba257876000016000888152602001908152602001600020600187610b7a91906114d6565b81548110610b8b57610b8a6112a3565b5b906000526020600020906003020160010154610ba5565b60005b81526020018260020154815260200183610c0357876000016000888152602001908152602001600020600187610bdb91906114d6565b81548110610bec57610beb6112a3565b5b906000526020600020906003020160020154610c06565b60005b815250925050509392505050565b610c1c610c8e565b60008460010160008581526020019081526020016000206000848152602001908152602001600020905060008160018380549050610c5a9190611240565b81548110610c6b57610c6a6112a3565b5b90600052602060002001549050610c83868683610a6b565b925050509392505050565b6040518060e00160405280600081526020016000815260200160008152602001600081526020016000815260200160008152602001600081525090565b600080fd5b6000819050919050565b610ce381610cd0565b8114610cee57600080fd5b50565b600081359050610d0081610cda565b92915050565b6000819050919050565b610d1981610d06565b8114610d2457600080fd5b50565b600081359050610d3681610d10565b92915050565b60008060408385031215610d5357610d52610ccb565b5b6000610d6185828601610cf1565b9250506020610d7285828601610d27565b9150509250929050565b610d8581610d06565b82525050565b6000602082019050610da06000830184610d7c565b92915050565b60008115159050919050565b610dbb81610da6565b82525050565b6000602082019050610dd66000830184610db2565b92915050565b600080600060608486031215610df557610df4610ccb565b5b6000610e0386828701610cf1565b9350506020610e1486828701610d27565b9250506040610e2586828701610d27565b9150509250925092565b60008060008060808587031215610e4957610e48610ccb565b5b6000610e5787828801610cf1565b9450506020610e6887828801610d27565b9350506040610e7987828801610d27565b9250506060610e8a87828801610d27565b91505092959194509250565b600081519050919050565b600082825260208201905092915050565b6000819050602082019050919050565b610ecb81610d06565b82525050565b60e082016000820151610ee76000850182610ec2565b506020820151610efa6020850182610ec2565b506040820151610f0d6040850182610ec2565b506060820151610f206060850182610ec2565b506080820151610f336080850182610ec2565b5060a0820151610f4660a0850182610ec2565b5060c0820151610f5960c0850182610ec2565b50505050565b6000610f6b8383610ed1565b60e08301905092915050565b6000602082019050919050565b6000610f8f82610e96565b610f998185610ea1565b9350610fa483610eb2565b8060005b83811015610fd5578151610fbc8882610f5f565b9750610fc783610f77565b925050600181019050610fa8565b5085935050505092915050565b60006020820190508181036000830152610ffc8184610f84565b905092915050565b600080600080600060a086880312156110205761101f610ccb565b5b600061102e88828901610cf1565b955050602061103f88828901610d27565b945050604061105088828901610d27565b935050606061106188828901610d27565b925050608061107288828901610d27565b9150509295509295909350565b60e0820160008201516110956000850182610ec2565b5060208201516110a86020850182610ec2565b5060408201516110bb6040850182610ec2565b5060608201516110ce6060850182610ec2565b5060808201516110e16080850182610ec2565b5060a08201516110f460a0850182610ec2565b5060c082015161110760c0850182610ec2565b50505050565b600060e082019050611122600083018461107f565b92915050565b600082825260208201905092915050565b7f4964656e7469747920646f6573206e6f74206578697374000000000000000000600082015250565b600061116f601783611128565b915061117a82611139565b602082019050919050565b6000602082019050818103600083015261119e81611162565b9050919050565b7f4964656e7469747920616c726561647920657869737473000000000000000000600082015250565b60006111db601783611128565b91506111e6826111a5565b602082019050919050565b6000602082019050818103600083015261120a816111ce565b9050919050565b7f4e487b7100000000000000000000000000000000000000000000000000000000600052601160045260246000fd5b600061124b82610d06565b915061125683610d06565b925082820390508181111561126e5761126d611211565b5b92915050565b7f4e487b7100000000000000000000000000000000000000000000000000000000600052604160045260246000fd5b7f4e487b7100000000000000000000000000000000000000000000000000000000600052603260045260246000fd5b7f537461746520646f6573206e6f74206578697374000000000000000000000000600082015250565b6000611308601483611128565b9150611313826112d2565b602082019050919050565b60006020820190508181036000830152611337816112fb565b9050919050565b61134781610d06565b82525050565b6000608082019050611362600083018761133e565b61136f602083018661133e565b61137c604083018561133e565b611389606083018461133e565b95945050505050565b7f4c656e6774682073686f756c642062652067726561746572207468616e203000600082015250565b60006113c8601f83611128565b91506113d382611392565b602082019050919050565b600060208201905081810360008301526113f7816113bb565b9050919050565b7f4c656e677468206c696d69742065786365656465640000000000000000000000600082015250565b6000611434601583611128565b915061143f826113fe565b602082019050919050565b6000602082019050818103600083015261146381611427565b9050919050565b7f537461727420696e646578206f7574206f6620626f756e647300000000000000600082015250565b60006114a0601983611128565b91506114ab8261146a565b602082019050919050565b600060208201905081810360008301526114cf81611493565b9050919050565b60006114e182610d06565b91506114ec83610d06565b925082820190508082111561150457611503611211565b5b9291505056fea2646970667358221220fa21fcce3b6d564e1f9ed4ba06d91094e1d984c650fa9a4ec073d1050f4a360d64736f6c634300081b0033",
          "opcodes": "PUSH2 0x1540 PUSH2 0x52 PUSH1 0xB DUP3 DUP3 DUP3 CODECOPY DUP1 MLOAD PUSH1 0x0 BYTE PUSH1 0x73 EQ PUSH1 0x45 JUMPI PUSH32 0x4E487B7100000000000000000000000000000000000000000000000000000000 PUSH1 0x0 MSTORE PUSH1 0x0 PUSH1 0x4 MSTORE PUSH1 0x24 PUSH1 0x0 REVERT JUMPDEST ADDRESS PUSH1 0x0 MSTORE PUSH1 0x73 DUP2 MSTORE8 DUP3 DUP2 RETURN INVALID PUSH20 0x0 ADDRESS EQ PUSH1 0x80 PUSH1 0x40 MSTORE PUSH1 0x4 CALLDATASIZE LT PUSH2 0xB3 JUMPI PUSH1 0x0 CALLDATALOAD PUSH1 0xE0 SHR DUP1 PUSH4 0x7B87F75D GT PUSH2 0x7B JUMPI DUP1 PUSH4 0x7B87F75D EQ PUSH2 0x19A JUMPI DUP1 PUSH4 0x893E9739 EQ PUSH2 0x1CA JUMPI DUP1 PUSH4 0x9DA68946 EQ PUSH2 0x1FA JUMPI DUP1 PUSH4 0xB1ABCC4D EQ PUSH2 0x22A JUMPI DUP1 PUSH4 0xB2A11B2B EQ PUSH2 0x25A JUMPI DUP1 PUSH4 0xEAA6B26C EQ PUSH2 0x28A JUMPI PUSH2 0xB3 JUMP JUMPDEST DUP1 PUSH4 0xE21D5FD EQ PUSH2 0xB8 JUMPI DUP1 PUSH4 0x419E76C1 EQ PUSH2 0xE8 JUMPI DUP1 PUSH4 0x44CFC45E EQ PUSH2 0x118 JUMPI DUP1 PUSH4 0x4A204218 EQ PUSH2 0x141 JUMPI DUP1 PUSH4 0x65FE1B5B EQ PUSH2 0x16A JUMPI JUMPDEST PUSH1 0x0 DUP1 REVERT JUMPDEST PUSH2 0xD2 PUSH1 0x4 DUP1 CALLDATASIZE SUB DUP2 ADD SWAP1 PUSH2 0xCD SWAP2 SWAP1 PUSH2 0xD3C JUMP JUMPDEST PUSH2 0x2A8 JUMP JUMPDEST PUSH1 0x40 MLOAD PUSH2 0xDF SWAP2 SWAP1 PUSH2 0xD8B JUMP JUMPDEST PUSH1 0x40 MLOAD DUP1 SWAP2 SUB SWAP1 RETURN JUMPDEST PUSH2 0x102 PUSH1 0x4 DUP1 CALLDATASIZE SUB DUP2 ADD SWAP1 PUSH2 0xFD SWAP2 SWAP1 PUSH2 0xD3C JUMP JUMPDEST PUSH2 0x318 JUMP JUMPDEST PUSH1 0x40 MLOAD PUSH2 0x10F SWAP2 SWAP1 PUSH2 0xDC1 JUMP JUMPDEST PUSH1 0x40 MLOAD DUP1 SWAP2 SUB SWAP1 RETURN JUMPDEST DUP2 DUP1 ISZERO PUSH2 0x124 JUMPI PUSH1 0x0 DUP1 REVERT JUMPDEST POP PUSH2 0x13F PUSH1 0x4 DUP1 CALLDATASIZE SUB DUP2 ADD SWAP1 PUSH2 0x13A SWAP2 SWAP1 PUSH2 0xDDC JUMP JUMPDEST PUSH2 0x33D JUMP JUMPDEST STOP JUMPDEST DUP2 DUP1 ISZERO PUSH2 0x14D JUMPI PUSH1 0x0 DUP1 REVERT JUMPDEST POP PUSH2 0x168 PUSH1 0x4 DUP1 CALLDATASIZE SUB DUP2 ADD SWAP1 PUSH2 0x163 SWAP2 SWAP1 PUSH2 0xDDC JUMP JUMPDEST PUSH2 0x34F JUMP JUMPDEST STOP JUMPDEST PUSH2 0x184 PUSH1 0x4 DUP1 CALLDATASIZE SUB DUP2 ADD SWAP1 PUSH2 0x17F SWAP2 SWAP1 PUSH2 0xE2F JUMP JUMPDEST PUSH2 0x3AC JUMP JUMPDEST PUSH1 0x40 MLOAD PUSH2 0x191 SWAP2 SWAP1 PUSH2 0xFE2 JUMP JUMPDEST PUSH1 0x40 MLOAD DUP1 SWAP2 SUB SWAP1 RETURN JUMPDEST PUSH2 0x1B4 PUSH1 0x4 DUP1 CALLDATASIZE SUB DUP2 ADD SWAP1 PUSH2 0x1AF SWAP2 SWAP1 PUSH2 0x1004 JUMP JUMPDEST PUSH2 0x4E9 JUMP JUMPDEST PUSH1 0x40 MLOAD PUSH2 0x1C1 SWAP2 SWAP1 PUSH2 0xFE2 JUMP JUMPDEST PUSH1 0x40 MLOAD DUP1 SWAP2 SUB SWAP1 RETURN JUMPDEST PUSH2 0x1E4 PUSH1 0x4 DUP1 CALLDATASIZE SUB DUP2 ADD SWAP1 PUSH2 0x1DF SWAP2 SWAP1 PUSH2 0xDDC JUMP JUMPDEST PUSH2 0x65E JUMP JUMPDEST PUSH1 0x40 MLOAD PUSH2 0x1F1 SWAP2 SWAP1 PUSH2 0x110D JUMP JUMPDEST PUSH1 0x40 MLOAD DUP1 SWAP2 SUB SWAP1 RETURN JUMPDEST PUSH2 0x214 PUSH1 0x4 DUP1 CALLDATASIZE SUB DUP2 ADD SWAP1 PUSH2 0x20F SWAP2 SWAP1 PUSH2 0xD3C JUMP JUMPDEST PUSH2 0x6CA JUMP JUMPDEST PUSH1 0x40 MLOAD PUSH2 0x221 SWAP2 SWAP1 PUSH2 0x110D JUMP JUMPDEST PUSH1 0x40 MLOAD DUP1 SWAP2 SUB SWAP1 RETURN JUMPDEST PUSH2 0x244 PUSH1 0x4 DUP1 CALLDATASIZE SUB DUP2 ADD SWAP1 PUSH2 0x23F SWAP2 SWAP1 PUSH2 0xDDC JUMP JUMPDEST PUSH2 0x7E2 JUMP JUMPDEST PUSH1 0x40 MLOAD PUSH2 0x251 SWAP2 SWAP1 PUSH2 0xDC1 JUMP JUMPDEST PUSH1 0x40 MLOAD DUP1 SWAP2 SUB SWAP1 RETURN JUMPDEST PUSH2 0x274 PUSH1 0x4 DUP1 CALLDATASIZE SUB DUP2 ADD SWAP1 PUSH2 0x26F SWAP2 SWAP1 PUSH2 0xDDC JUMP JUMPDEST PUSH2 0x819 JUMP JUMPDEST PUSH1 0x40 MLOAD PUSH2 0x281 SWAP2 SWAP1 PUSH2 0xD8B JUMP JUMPDEST PUSH1 0x40 MLOAD DUP1 SWAP2 SUB SWAP1 RETURN JUMPDEST PUSH2 0x292 PUSH2 0x84E JUMP JUMPDEST PUSH1 0x40 MLOAD PUSH2 0x29F SWAP2 SWAP1 PUSH2 0xD8B JUMP JUMPDEST PUSH1 0x40 MLOAD DUP1 SWAP2 SUB SWAP1 RETURN JUMPDEST PUSH1 0x0 DUP3 DUP3 PUSH2 0x2B6 DUP3 DUP3 PUSH2 0x318 JUMP JUMPDEST PUSH2 0x2F5 JUMPI PUSH1 0x40 MLOAD PUSH32 0x8C379A000000000000000000000000000000000000000000000000000000000 DUP2 MSTORE PUSH1 0x4 ADD PUSH2 0x2EC SWAP1 PUSH2 0x1185 JUMP JUMPDEST PUSH1 0x40 MLOAD DUP1 SWAP2 SUB SWAP1 REVERT JUMPDEST DUP5 PUSH1 0x0 ADD PUSH1 0x0 DUP6 DUP2 MSTORE PUSH1 0x20 ADD SWAP1 DUP2 MSTORE PUSH1 0x20 ADD PUSH1 0x0 KECCAK256 DUP1 SLOAD SWAP1 POP SWAP3 POP POP POP SWAP3 SWAP2 POP POP JUMP JUMPDEST PUSH1 0x0 DUP1 DUP4 PUSH1 0x0 ADD PUSH1 0x0 DUP5 DUP2 MSTORE PUSH1 0x20 ADD SWAP1 DUP2 MSTORE PUSH1 0x20 ADD PUSH1 0x0 KECCAK256 DUP1 SLOAD SWAP1 POP GT SWAP1 POP SWAP3 SWAP2 POP POP JUMP JUMPDEST PUSH2 0x34A DUP4 DUP4 DUP4 TIMESTAMP NUMBER PUSH2 0x854 JUMP JUMPDEST POP POP POP JUMP JUMPDEST PUSH2 0x359 DUP4 DUP4 PUSH2 0x318 JUMP JUMPDEST ISZERO PUSH2 0x399 JUMPI PUSH1 0x40 MLOAD PUSH32 0x8C379A000000000000000000000000000000000000000000000000000000000 DUP2 MSTORE PUSH1 0x4 ADD PUSH2 0x390 SWAP1 PUSH2 0x11F1 JUMP JUMPDEST PUSH1 0x40 MLOAD DUP1 SWAP2 SUB SWAP1 REVERT JUMPDEST PUSH2 0x3A7 DUP4 DUP4 DUP4 PUSH1 0x0 DUP1 PUSH2 0x854 JUMP JUMPDEST POP POP POP JUMP JUMPDEST PUSH1 0x60 DUP5 DUP5 PUSH2 0x3BA DUP3 DUP3 PUSH2 0x318 JUMP JUMPDEST PUSH2 0x3F9 JUMPI PUSH1 0x40 MLOAD PUSH32 0x8C379A000000000000000000000000000000000000000000000000000000000 DUP2 MSTORE PUSH1 0x4 ADD PUSH2 0x3F0 SWAP1 PUSH2 0x1185 JUMP JUMPDEST PUSH1 0x40 MLOAD DUP1 SWAP2 SUB SWAP1 REVERT JUMPDEST PUSH1 0x0 DUP1 PUSH2 0x422 DUP10 PUSH1 0x0 ADD PUSH1 0x0 DUP11 DUP2 MSTORE PUSH1 0x20 ADD SWAP1 DUP2 MSTORE PUSH1 0x20 ADD PUSH1 0x0 KECCAK256 DUP1 SLOAD SWAP1 POP DUP9 DUP9 PUSH2 0x3E8 PUSH2 0x974 JUMP JUMPDEST SWAP2 POP SWAP2 POP PUSH1 0x0 DUP3 DUP3 PUSH2 0x434 SWAP2 SWAP1 PUSH2 0x1240 JUMP JUMPDEST PUSH8 0xFFFFFFFFFFFFFFFF DUP2 GT ISZERO PUSH2 0x44D JUMPI PUSH2 0x44C PUSH2 0x1274 JUMP JUMPDEST JUMPDEST PUSH1 0x40 MLOAD SWAP1 DUP1 DUP3 MSTORE DUP1 PUSH1 0x20 MUL PUSH1 0x20 ADD DUP3 ADD PUSH1 0x40 MSTORE DUP1 ISZERO PUSH2 0x486 JUMPI DUP2 PUSH1 0x20 ADD JUMPDEST PUSH2 0x473 PUSH2 0xC8E JUMP JUMPDEST DUP2 MSTORE PUSH1 0x20 ADD SWAP1 PUSH1 0x1 SWAP1 SUB SWAP1 DUP2 PUSH2 0x46B JUMPI SWAP1 POP JUMPDEST POP SWAP1 POP PUSH1 0x0 DUP4 SWAP1 POP JUMPDEST DUP3 DUP2 LT ISZERO PUSH2 0x4D8 JUMPI PUSH2 0x4A2 DUP12 DUP12 DUP4 PUSH2 0xA6B JUMP JUMPDEST DUP3 DUP6 DUP4 PUSH2 0x4AF SWAP2 SWAP1 PUSH2 0x1240 JUMP JUMPDEST DUP2 MLOAD DUP2 LT PUSH2 0x4C0 JUMPI PUSH2 0x4BF PUSH2 0x12A3 JUMP JUMPDEST JUMPDEST PUSH1 0x20 MUL PUSH1 0x20 ADD ADD DUP2 SWAP1 MSTORE POP DUP1 DUP1 PUSH1 0x1 ADD SWAP2 POP POP PUSH2 0x48F JUMP JUMPDEST POP DUP1 SWAP6 POP POP POP POP POP POP SWAP5 SWAP4 POP POP POP POP JUMP JUMPDEST PUSH1 0x60 DUP6 DUP6 DUP6 PUSH2 0x4F9 DUP4 DUP4 DUP4 PUSH2 0x7E2 JUMP JUMPDEST PUSH2 0x538 JUMPI PUSH1 0x40 MLOAD PUSH32 0x8C379A000000000000000000000000000000000000000000000000000000000 DUP2 MSTORE PUSH1 0x4 ADD PUSH2 0x52F SWAP1 PUSH2 0x131E JUMP JUMPDEST PUSH1 0x40 MLOAD DUP1 SWAP2 SUB SWAP1 REVERT JUMPDEST PUSH1 0x0 DUP10 PUSH1 0x1 ADD PUSH1 0x0 DUP11 DUP2 MSTORE PUSH1 0x20 ADD SWAP1 DUP2 MSTORE PUSH1 0x20 ADD PUSH1 0x0 KECCAK256 PUSH1 0x0 DUP10 DUP2 MSTORE PUSH1 0x20 ADD SWAP1 DUP2 MSTORE PUSH1 0x20 ADD PUSH1 0x0 KECCAK256 SWAP1 POP PUSH1 0x0 DUP1 PUSH2 0x577 DUP4 DUP1 SLOAD SWAP1 POP DUP11 DUP11 PUSH2 0x3E8 PUSH2 0x974 JUMP JUMPDEST SWAP2 POP SWAP2 POP PUSH1 0x0 DUP3 DUP3 PUSH2 0x589 SWAP2 SWAP1 PUSH2 0x1240 JUMP JUMPDEST PUSH8 0xFFFFFFFFFFFFFFFF DUP2 GT ISZERO PUSH2 0x5A2 JUMPI PUSH2 0x5A1 PUSH2 0x1274 JUMP JUMPDEST JUMPDEST PUSH1 0x40 MLOAD SWAP1 DUP1 DUP3 MSTORE DUP1 PUSH1 0x20 MUL PUSH1 0x20 ADD DUP3 ADD PUSH1 0x40 MSTORE DUP1 ISZERO PUSH2 0x5DB JUMPI DUP2 PUSH1 0x20 ADD JUMPDEST PUSH2 0x5C8 PUSH2 0xC8E JUMP JUMPDEST DUP2 MSTORE PUSH1 0x20 ADD SWAP1 PUSH1 0x1 SWAP1 SUB SWAP1 DUP2 PUSH2 0x5C0 JUMPI SWAP1 POP JUMPDEST POP SWAP1 POP PUSH1 0x0 DUP4 SWAP1 POP JUMPDEST DUP3 DUP2 LT ISZERO PUSH2 0x64A JUMPI PUSH2 0x614 DUP15 DUP15 DUP8 DUP5 DUP2 SLOAD DUP2 LT PUSH2 0x604 JUMPI PUSH2 0x603 PUSH2 0x12A3 JUMP JUMPDEST JUMPDEST SWAP1 PUSH1 0x0 MSTORE PUSH1 0x20 PUSH1 0x0 KECCAK256 ADD SLOAD PUSH2 0xA6B JUMP JUMPDEST DUP3 DUP6 DUP4 PUSH2 0x621 SWAP2 SWAP1 PUSH2 0x1240 JUMP JUMPDEST DUP2 MLOAD DUP2 LT PUSH2 0x632 JUMPI PUSH2 0x631 PUSH2 0x12A3 JUMP JUMPDEST JUMPDEST PUSH1 0x20 MUL PUSH1 0x20 ADD ADD DUP2 SWAP1 MSTORE POP DUP1 DUP1 PUSH1 0x1 ADD SWAP2 POP POP PUSH2 0x5E4 JUMP JUMPDEST POP DUP1 SWAP8 POP POP POP POP POP POP POP POP SWAP6 SWAP5 POP POP POP POP POP JUMP JUMPDEST PUSH2 0x666 PUSH2 0xC8E JUMP JUMPDEST DUP4 DUP4 DUP4 PUSH2 0x674 DUP4 DUP4 DUP4 PUSH2 0x7E2 JUMP JUMPDEST PUSH2 0x6B3 JUMPI PUSH1 0x40 MLOAD PUSH32 0x8C379A000000000000000000000000000000000000000000000000000000000 DUP2 MSTORE PUSH1 0x4 ADD PUSH2 0x6AA SWAP1 PUSH2 0x131E JUMP JUMPDEST PUSH1 0x40 MLOAD DUP1 SWAP2 SUB SWAP1 REVERT JUMPDEST PUSH2 0x6BE DUP8 DUP8 DUP8 PUSH2 0xC14 JUMP JUMPDEST SWAP4 POP POP POP POP SWAP4 SWAP3 POP POP POP JUMP JUMPDEST PUSH2 0x6D2 PUSH2 0xC8E JUMP JUMPDEST DUP3 DUP3 PUSH2 0x6DE DUP3 DUP3 PUSH2 0x318 JUMP JUMPDEST PUSH2 0x71D JUMPI PUSH1 0x40 MLOAD PUSH32 0x8C379A000000000000000000000000000000000000000000000000000000000 DUP2 MSTORE PUSH1 0x4 ADD PUSH2 0x714 SWAP1 PUSH2 0x1185 JUMP JUMPDEST PUSH1 0x40 MLOAD DUP1 SWAP2 SUB SWAP1 REVERT JUMPDEST PUSH1 0x0 DUP6 PUSH1 0x0 ADD PUSH1 0x0 DUP7 DUP2 MSTORE PUSH1 0x20 ADD SWAP1 DUP2 MSTORE PUSH1 0x20 ADD PUSH1 0x0 KECCAK256 SWAP1 POP PUSH1 0x0 DUP2 PUSH1 0x1 DUP4 DUP1 SLOAD SWAP1 POP PUSH2 0x74A SWAP2 SWAP1 PUSH2 0x1240 JUMP JUMPDEST DUP2 SLOAD DUP2 LT PUSH2 0x75B JUMPI PUSH2 0x75A PUSH2 0x12A3 JUMP JUMPDEST JUMPDEST SWAP1 PUSH1 0x0 MSTORE PUSH1 0x20 PUSH1 0x0 KECCAK256 SWAP1 PUSH1 0x3 MUL ADD PUSH1 0x40 MLOAD DUP1 PUSH1 0x60 ADD PUSH1 0x40 MSTORE SWAP1 DUP2 PUSH1 0x0 DUP3 ADD SLOAD DUP2 MSTORE PUSH1 0x20 ADD PUSH1 0x1 DUP3 ADD SLOAD DUP2 MSTORE PUSH1 0x20 ADD PUSH1 0x2 DUP3 ADD SLOAD DUP2 MSTORE POP POP SWAP1 POP PUSH1 0x40 MLOAD DUP1 PUSH1 0xE0 ADD PUSH1 0x40 MSTORE DUP1 DUP8 DUP2 MSTORE PUSH1 0x20 ADD DUP3 PUSH1 0x0 ADD MLOAD DUP2 MSTORE PUSH1 0x20 ADD PUSH1 0x0 DUP2 MSTORE PUSH1 0x20 ADD DUP3 PUSH1 0x20 ADD MLOAD DUP2 MSTORE PUSH1 0x20 ADD PUSH1 0x0 DUP2 MSTORE PUSH1 0x20 ADD DUP3 PUSH1 0x40 ADD MLOAD DUP2 MSTORE PUSH1 0x20 ADD PUSH1 0x0 DUP2 MSTORE POP SWAP5 POP POP POP POP POP SWAP3 SWAP2 POP POP JUMP JUMPDEST PUSH1 0x0 DUP1 DUP5 PUSH1 0x1 ADD PUSH1 0x0 DUP6 DUP2 MSTORE PUSH1 0x20 ADD SWAP1 DUP2 MSTORE PUSH1 0x20 ADD PUSH1 0x0 KECCAK256 PUSH1 0x0 DUP5 DUP2 MSTORE PUSH1 0x20 ADD SWAP1 DUP2 MSTORE PUSH1 0x20 ADD PUSH1 0x0 KECCAK256 DUP1 SLOAD SWAP1 POP GT SWAP1 POP SWAP4 SWAP3 POP POP POP JUMP JUMPDEST PUSH1 0x0 DUP4 PUSH1 0x1 ADD PUSH1 0x0 DUP5 DUP2 MSTORE PUSH1 0x20 ADD SWAP1 DUP2 MSTORE PUSH1 0x20 ADD PUSH1 0x0 KECCAK256 PUSH1 0x0 DUP4 DUP2 MSTORE PUSH1 0x20 ADD SWAP1 DUP2 MSTORE PUSH1 0x20 ADD PUSH1 0x0 KECCAK256 DUP1 SLOAD SWAP1 POP SWAP1 POP SWAP4 SWAP3 POP POP POP JUMP JUMPDEST PUSH2 0x3E8 DUP2 JUMP JUMPDEST PUSH1 0x0 DUP6 PUSH1 0x0 ADD PUSH1 0x0 DUP7 DUP2 MSTORE PUSH1 0x20 ADD SWAP1 DUP2 MSTORE PUSH1 0x20 ADD PUSH1 0x0 KECCAK256 SWAP1 POP DUP1 PUSH1 0x40 MLOAD DUP1 PUSH1 0x60 ADD PUSH1 0x40 MSTORE DUP1 DUP7 DUP2 MSTORE PUSH1 0x20 ADD DUP6 DUP2 MSTORE PUSH1 0x20 ADD DUP5 DUP2 MSTORE POP SWAP1 DUP1 PUSH1 0x1 DUP2 SLOAD ADD DUP1 DUP3 SSTORE DUP1 SWAP2 POP POP PUSH1 0x1 SWAP1 SUB SWAP1 PUSH1 0x0 MSTORE PUSH1 0x20 PUSH1 0x0 KECCAK256 SWAP1 PUSH1 0x3 MUL ADD PUSH1 0x0 SWAP1 SWAP2 SWAP1 SWAP2 SWAP1 SWAP2 POP PUSH1 0x0 DUP3 ADD MLOAD DUP2 PUSH1 0x0 ADD SSTORE PUSH1 0x20 DUP3 ADD MLOAD DUP2 PUSH1 0x1 ADD SSTORE PUSH1 0x40 DUP3 ADD MLOAD DUP2 PUSH1 0x2 ADD SSTORE POP POP DUP6 PUSH1 0x1 ADD PUSH1 0x0 DUP7 DUP2 MSTORE PUSH1 0x20 ADD SWAP1 DUP2 MSTORE PUSH1 0x20 ADD PUSH1 0x0 KECCAK256 PUSH1 0x0 DUP6 DUP2 MSTORE PUSH1 0x20 ADD SWAP1 DUP2 MSTORE PUSH1 0x20 ADD PUSH1 0x0 KECCAK256 PUSH1 0x1 DUP3 DUP1 SLOAD SWAP1 POP PUSH2 0x909 SWAP2 SWAP1 PUSH2 0x1240 JUMP JUMPDEST SWAP1 DUP1 PUSH1 0x1 DUP2 SLOAD ADD DUP1 DUP3 SSTORE DUP1 SWAP2 POP POP PUSH1 0x1 SWAP1 SUB SWAP1 PUSH1 0x0 MSTORE PUSH1 0x20 PUSH1 0x0 KECCAK256 ADD PUSH1 0x0 SWAP1 SWAP2 SWAP1 SWAP2 SWAP1 SWAP2 POP SSTORE PUSH32 0x88AEF4D78AD30D12A12A98E96007F5B09C1610B5364B2B99960B7D07E00A8838 DUP6 DUP4 DUP6 DUP8 PUSH1 0x40 MLOAD PUSH2 0x964 SWAP5 SWAP4 SWAP3 SWAP2 SWAP1 PUSH2 0x134D JUMP JUMPDEST PUSH1 0x40 MLOAD DUP1 SWAP2 SUB SWAP1 LOG1 POP POP POP POP POP POP JUMP JUMPDEST PUSH1 0x0 DUP1 PUSH1 0x0 DUP5 GT PUSH2 0x9BA JUMPI PUSH1 0x40 MLOAD PUSH32 0x8C379A000000000000000000000000000000000000000000000000000000000 DUP2 MSTORE PUSH1 0x4 ADD PUSH2 0x9B1 SWAP1 PUSH2 0x13DE JUMP JUMPDEST PUSH1 0x40 MLOAD DUP1 SWAP2 SUB SWAP1 REVERT JUMPDEST DUP3 DUP5 GT ISZERO PUSH2 0x9FD JUMPI PUSH1 0x40 MLOAD PUSH32 0x8C379A000000000000000000000000000000000000000000000000000000000 DUP2 MSTORE PUSH1 0x4 ADD PUSH2 0x9F4 SWAP1 PUSH2 0x144A JUMP JUMPDEST PUSH1 0x40 MLOAD DUP1 SWAP2 SUB SWAP1 REVERT JUMPDEST DUP6 DUP6 LT PUSH2 0xA3F JUMPI PUSH1 0x40 MLOAD PUSH32 0x8C379A000000000000000000000000000000000000000000000000000000000 DUP2 MSTORE PUSH1 0x4 ADD PUSH2 0xA36 SWAP1 PUSH2 0x14B6 JUMP JUMPDEST PUSH1 0x40 MLOAD DUP1 SWAP2 SUB SWAP1 REVERT JUMPDEST PUSH1 0x0 DUP5 DUP7 PUSH2 0xA4D SWAP2 SWAP1 PUSH2 0x14D6 JUMP JUMPDEST SWAP1 POP DUP7 DUP2 GT ISZERO PUSH2 0xA5B JUMPI DUP7 SWAP1 POP JUMPDEST DUP6 DUP2 SWAP3 POP SWAP3 POP POP SWAP5 POP SWAP5 SWAP3 POP POP POP JUMP JUMPDEST PUSH2 0xA73 PUSH2 0xC8E JUMP JUMPDEST PUSH1 0x0 PUSH1 0x1 DUP6 PUSH1 0x0 ADD PUSH1 0x0 DUP7 DUP2 MSTORE PUSH1 0x20 ADD SWAP1 DUP2 MSTORE PUSH1 0x20 ADD PUSH1 0x0 KECCAK256 DUP1 SLOAD SWAP1 POP PUSH2 0xA9A SWAP2 SWAP1 PUSH2 0x1240 JUMP JUMPDEST DUP4 EQ SWAP1 POP PUSH1 0x0 DUP6 PUSH1 0x0 ADD PUSH1 0x0 DUP7 DUP2 MSTORE PUSH1 0x20 ADD SWAP1 DUP2 MSTORE PUSH1 0x20 ADD PUSH1 0x0 KECCAK256 DUP5 DUP2 SLOAD DUP2 LT PUSH2 0xAC7 JUMPI PUSH2 0xAC6 PUSH2 0x12A3 JUMP JUMPDEST JUMPDEST SWAP1 PUSH1 0x0 MSTORE PUSH1 0x20 PUSH1 0x0 KECCAK256 SWAP1 PUSH1 0x3 MUL ADD SWAP1 POP PUSH1 0x40 MLOAD DUP1 PUSH1 0xE0 ADD PUSH1 0x40 MSTORE DUP1 DUP7 DUP2 MSTORE PUSH1 0x20 ADD DUP3 PUSH1 0x0 ADD SLOAD DUP2 MSTORE PUSH1 0x20 ADD DUP4 PUSH2 0xB41 JUMPI DUP8 PUSH1 0x0 ADD PUSH1 0x0 DUP9 DUP2 MSTORE PUSH1 0x20 ADD SWAP1 DUP2 MSTORE PUSH1 0x20 ADD PUSH1 0x0 KECCAK256 PUSH1 0x1 DUP8 PUSH2 0xB19 SWAP2 SWAP1 PUSH2 0x14D6 JUMP JUMPDEST DUP2 SLOAD DUP2 LT PUSH2 0xB2A JUMPI PUSH2 0xB29 PUSH2 0x12A3 JUMP JUMPDEST JUMPDEST SWAP1 PUSH1 0x0 MSTORE PUSH1 0x20 PUSH1 0x0 KECCAK256 SWAP1 PUSH1 0x3 MUL ADD PUSH1 0x0 ADD SLOAD PUSH2 0xB44 JUMP JUMPDEST PUSH1 0x0 JUMPDEST DUP2 MSTORE PUSH1 0x20 ADD DUP3 PUSH1 0x1 ADD SLOAD DUP2 MSTORE PUSH1 0x20 ADD DUP4 PUSH2 0xBA2 JUMPI DUP8 PUSH1 0x0 ADD PUSH1 0x0 DUP9 DUP2 MSTORE PUSH1 0x20 ADD SWAP1 DUP2 MSTORE PUSH1 0x20 ADD PUSH1 0x0 KECCAK256 PUSH1 0x1 DUP8 PUSH2 0xB7A SWAP2 SWAP1 PUSH2 0x14D6 JUMP JUMPDEST DUP2 SLOAD DUP2 LT PUSH2 0xB8B JUMPI PUSH2 0xB8A PUSH2 0x12A3 JUMP JUMPDEST JUMPDEST SWAP1 PUSH1 0x0 MSTORE PUSH1 0x20 PUSH1 0x0 KECCAK256 SWAP1 PUSH1 0x3 MUL ADD PUSH1 0x1 ADD SLOAD PUSH2 0xBA5 JUMP JUMPDEST PUSH1 0x0 JUMPDEST DUP2 MSTORE PUSH1 0x20 ADD DUP3 PUSH1 0x2 ADD SLOAD DUP2 MSTORE PUSH1 0x20 ADD DUP4 PUSH2 0xC03 JUMPI DUP8 PUSH1 0x0 ADD PUSH1 0x0 DUP9 DUP2 MSTORE PUSH1 0x20 ADD SWAP1 DUP2 MSTORE PUSH1 0x20 ADD PUSH1 0x0 KECCAK256 PUSH1 0x1 DUP8 PUSH2 0xBDB SWAP2 SWAP1 PUSH2 0x14D6 JUMP JUMPDEST DUP2 SLOAD DUP2 LT PUSH2 0xBEC JUMPI PUSH2 0xBEB PUSH2 0x12A3 JUMP JUMPDEST JUMPDEST SWAP1 PUSH1 0x0 MSTORE PUSH1 0x20 PUSH1 0x0 KECCAK256 SWAP1 PUSH1 0x3 MUL ADD PUSH1 0x2 ADD SLOAD PUSH2 0xC06 JUMP JUMPDEST PUSH1 0x0 JUMPDEST DUP2 MSTORE POP SWAP3 POP POP POP SWAP4 SWAP3 POP POP POP JUMP JUMPDEST PUSH2 0xC1C PUSH2 0xC8E JUMP JUMPDEST PUSH1 0x0 DUP5 PUSH1 0x1 ADD PUSH1 0x0 DUP6 DUP2 MSTORE PUSH1 0x20 ADD SWAP1 DUP2 MSTORE PUSH1 0x20 ADD PUSH1 0x0 KECCAK256 PUSH1 0x0 DUP5 DUP2 MSTORE PUSH1 0x20 ADD SWAP1 DUP2 MSTORE PUSH1 0x20 ADD PUSH1 0x0 KECCAK256 SWAP1 POP PUSH1 0x0 DUP2 PUSH1 0x1 DUP4 DUP1 SLOAD SWAP1 POP PUSH2 0xC5A SWAP2 SWAP1 PUSH2 0x1240 JUMP JUMPDEST DUP2 SLOAD DUP2 LT PUSH2 0xC6B JUMPI PUSH2 0xC6A PUSH2 0x12A3 JUMP JUMPDEST JUMPDEST SWAP1 PUSH1 0x0 MSTORE PUSH1 0x20 PUSH1 0x0 KECCAK256 ADD SLOAD SWAP1 POP PUSH2 0xC83 DUP7 DUP7 DUP4 PUSH2 0xA6B JUMP JUMPDEST SWAP3 POP POP POP SWAP4 SWAP3 POP POP POP JUMP JUMPDEST PUSH1 0x40 MLOAD DUP1 PUSH1 0xE0 ADD PUSH1 0x40 MSTORE DUP1 PUSH1 0x0 DUP2 MSTORE PUSH1 0x20 ADD PUSH1 0x0 DUP2 MSTORE PUSH1 0x20 ADD PUSH1 0x0 DUP2 MSTORE PUSH1 0x20 ADD PUSH1 0x0 DUP2 MSTORE PUSH1 0x20 ADD PUSH1 0x0 DUP2 MSTORE PUSH1 0x20 ADD PUSH1 0x0 DUP2 MSTORE PUSH1 0x20 ADD PUSH1 0x0 DUP2 MSTORE POP SWAP1 JUMP JUMPDEST PUSH1 0x0 DUP1 REVERT JUMPDEST PUSH1 0x0 DUP2 SWAP1 POP SWAP2 SWAP1 POP JUMP JUMPDEST PUSH2 0xCE3 DUP2 PUSH2 0xCD0 JUMP JUMPDEST DUP2 EQ PUSH2 0xCEE JUMPI PUSH1 0x0 DUP1 REVERT JUMPDEST POP JUMP JUMPDEST PUSH1 0x0 DUP2 CALLDATALOAD SWAP1 POP PUSH2 0xD00 DUP2 PUSH2 0xCDA JUMP JUMPDEST SWAP3 SWAP2 POP POP JUMP JUMPDEST PUSH1 0x0 DUP2 SWAP1 POP SWAP2 SWAP1 POP JUMP JUMPDEST PUSH2 0xD19 DUP2 PUSH2 0xD06 JUMP JUMPDEST DUP2 EQ PUSH2 0xD24 JUMPI PUSH1 0x0 DUP1 REVERT JUMPDEST POP JUMP JUMPDEST PUSH1 0x0 DUP2 CALLDATALOAD SWAP1 POP PUSH2 0xD36 DUP2 PUSH2 0xD10 JUMP JUMPDEST SWAP3 SWAP2 POP POP JUMP JUMPDEST PUSH1 0x0 DUP1 PUSH1 0x40 DUP4 DUP6 SUB SLT ISZERO PUSH2 0xD53 JUMPI PUSH2 0xD52 PUSH2 0xCCB JUMP JUMPDEST JUMPDEST PUSH1 0x0 PUSH2 0xD61 DUP6 DUP3 DUP7 ADD PUSH2 0xCF1 JUMP JUMPDEST SWAP3 POP POP PUSH1 0x20 PUSH2 0xD72 DUP6 DUP3 DUP7 ADD PUSH2 0xD27 JUMP JUMPDEST SWAP2 POP POP SWAP3 POP SWAP3 SWAP1 POP JUMP JUMPDEST PUSH2 0xD85 DUP2 PUSH2 0xD06 JUMP JUMPDEST DUP3 MSTORE POP POP JUMP JUMPDEST PUSH1 0x0 PUSH1 0x20 DUP3 ADD SWAP1 POP PUSH2 0xDA0 PUSH1 0x0 DUP4 ADD DUP5 PUSH2 0xD7C JUMP JUMPDEST SWAP3 SWAP2 POP POP JUMP JUMPDEST PUSH1 0x0 DUP2 ISZERO ISZERO SWAP1 POP SWAP2 SWAP1 POP JUMP JUMPDEST PUSH2 0xDBB DUP2 PUSH2 0xDA6 JUMP JUMPDEST DUP3 MSTORE POP POP JUMP JUMPDEST PUSH1 0x0 PUSH1 0x20 DUP3 ADD SWAP1 POP PUSH2 0xDD6 PUSH1 0x0 DUP4 ADD DUP5 PUSH2 0xDB2 JUMP JUMPDEST SWAP3 SWAP2 POP POP JUMP JUMPDEST PUSH1 0x0 DUP1 PUSH1 0x0 PUSH1 0x60 DUP5 DUP7 SUB SLT ISZERO PUSH2 0xDF5 JUMPI PUSH2 0xDF4 PUSH2 0xCCB JUMP JUMPDEST JUMPDEST PUSH1 0x0 PUSH2 0xE03 DUP7 DUP3 DUP8 ADD PUSH2 0xCF1 JUMP JUMPDEST SWAP4 POP POP PUSH1 0x20 PUSH2 0xE14 DUP7 DUP3 DUP8 ADD PUSH2 0xD27 JUMP JUMPDEST SWAP3 POP POP PUSH1 0x40 PUSH2 0xE25 DUP7 DUP3 DUP8 ADD PUSH2 0xD27 JUMP JUMPDEST SWAP2 POP POP SWAP3 POP SWAP3 POP SWAP3 JUMP JUMPDEST PUSH1 0x0 DUP1 PUSH1 0x0 DUP1 PUSH1 0x80 DUP6 DUP8 SUB SLT ISZERO PUSH2 0xE49 JUMPI PUSH2 0xE48 PUSH2 0xCCB JUMP JUMPDEST JUMPDEST PUSH1 0x0 PUSH2 0xE57 DUP8 DUP3 DUP9 ADD PUSH2 0xCF1 JUMP JUMPDEST SWAP5 POP POP PUSH1 0x20 PUSH2 0xE68 DUP8 DUP3 DUP9 ADD PUSH2 0xD27 JUMP JUMPDEST SWAP4 POP POP PUSH1 0x40 PUSH2 0xE79 DUP8 DUP3 DUP9 ADD PUSH2 0xD27 JUMP JUMPDEST SWAP3 POP POP PUSH1 0x60 PUSH2 0xE8A DUP8 DUP3 DUP9 ADD PUSH2 0xD27 JUMP JUMPDEST SWAP2 POP POP SWAP3 SWAP6 SWAP2 SWAP5 POP SWAP3 POP JUMP JUMPDEST PUSH1 0x0 DUP2 MLOAD SWAP1 POP SWAP2 SWAP1 POP JUMP JUMPDEST PUSH1 0x0 DUP3 DUP3 MSTORE PUSH1 0x20 DUP3 ADD SWAP1 POP SWAP3 SWAP2 POP POP JUMP JUMPDEST PUSH1 0x0 DUP2 SWAP1 POP PUSH1 0x20 DUP3 ADD SWAP1 POP SWAP2 SWAP1 POP JUMP JUMPDEST PUSH2 0xECB DUP2 PUSH2 0xD06 JUMP JUMPDEST DUP3 MSTORE POP POP JUMP JUMPDEST PUSH1 0xE0 DUP3 ADD PUSH1 0x0 DUP3 ADD MLOAD PUSH2 0xEE7 PUSH1 0x0 DUP6 ADD DUP3 PUSH2 0xEC2 JUMP JUMPDEST POP PUSH1 0x20 DUP3 ADD MLOAD PUSH2 0xEFA PUSH1 0x20 DUP6 ADD DUP3 PUSH2 0xEC2 JUMP JUMPDEST POP PUSH1 0x40 DUP3 ADD MLOAD PUSH2 0xF0D PUSH1 0x40 DUP6 ADD DUP3 PUSH2 0xEC2 JUMP JUMPDEST POP PUSH1 0x60 DUP3 ADD MLOAD PUSH2 0xF20 PUSH1 0x60 DUP6 ADD DUP3 PUSH2 0xEC2 JUMP JUMPDEST POP PUSH1 0x80 DUP3 ADD MLOAD PUSH2 0xF33 PUSH1 0x80 DUP6 ADD DUP3 PUSH2 0xEC2 JUMP JUMPDEST POP PUSH1 0xA0 DUP3 ADD MLOAD PUSH2 0xF46 PUSH1 0xA0 DUP6 ADD DUP3 PUSH2 0xEC2 JUMP JUMPDEST POP PUSH1 0xC0 DUP3 ADD MLOAD PUSH2 0xF59 PUSH1 0xC0 DUP6 ADD DUP3 PUSH2 0xEC2 JUMP JUMPDEST POP POP POP POP JUMP JUMPDEST PUSH1 0x0 PUSH2 0xF6B DUP4 DUP4 PUSH2 0xED1 JUMP JUMPDEST PUSH1 0xE0 DUP4 ADD SWAP1 POP SWAP3 SWAP2 POP POP JUMP JUMPDEST PUSH1 0x0 PUSH1 0x20 DUP3 ADD SWAP1 POP SWAP2 SWAP1 POP JUMP JUMPDEST PUSH1 0x0 PUSH2 0xF8F DUP3 PUSH2 0xE96 JUMP JUMPDEST PUSH2 0xF99 DUP2 DUP6 PUSH2 0xEA1 JUMP JUMPDEST SWAP4 POP PUSH2 0xFA4 DUP4 PUSH2 0xEB2 JUMP JUMPDEST DUP1 PUSH1 0x0 JUMPDEST DUP4 DUP2 LT ISZERO PUSH2 0xFD5 JUMPI DUP2 MLOAD PUSH2 0xFBC DUP9 DUP3 PUSH2 0xF5F JUMP JUMPDEST SWAP8 POP PUSH2 0xFC7 DUP4 PUSH2 0xF77 JUMP JUMPDEST SWAP3 POP POP PUSH1 0x1 DUP2 ADD SWAP1 POP PUSH2 0xFA8 JUMP JUMPDEST POP DUP6 SWAP4 POP POP POP POP SWAP3 SWAP2 POP POP JUMP JUMPDEST PUSH1 0x0 PUSH1 0x20 DUP3 ADD SWAP1 POP DUP2 DUP2 SUB PUSH1 0x0 DUP4 ADD MSTORE PUSH2 0xFFC DUP2 DUP5 PUSH2 0xF84 JUMP JUMPDEST SWAP1 POP SWAP3 SWAP2 POP POP JUMP JUMPDEST PUSH1 0x0 DUP1 PUSH1 0x0 DUP1 PUSH1 0x0 PUSH1 0xA0 DUP7 DUP9 SUB SLT ISZERO PUSH2 0x1020 JUMPI PUSH2 0x101F PUSH2 0xCCB JUMP JUMPDEST JUMPDEST PUSH1 0x0 PUSH2 0x102E DUP9 DUP3 DUP10 ADD PUSH2 0xCF1 JUMP JUMPDEST SWAP6 POP POP PUSH1 0x20 PUSH2 0x103F DUP9 DUP3 DUP10 ADD PUSH2 0xD27 JUMP JUMPDEST SWAP5 POP POP PUSH1 0x40 PUSH2 0x1050 DUP9 DUP3 DUP10 ADD PUSH2 0xD27 JUMP JUMPDEST SWAP4 POP POP PUSH1 0x60 PUSH2 0x1061 DUP9 DUP3 DUP10 ADD PUSH2 0xD27 JUMP JUMPDEST SWAP3 POP POP PUSH1 0x80 PUSH2 0x1072 DUP9 DUP3 DUP10 ADD PUSH2 0xD27 JUMP JUMPDEST SWAP2 POP POP SWAP3 SWAP6 POP SWAP3 SWAP6 SWAP1 SWAP4 POP JUMP JUMPDEST PUSH1 0xE0 DUP3 ADD PUSH1 0x0 DUP3 ADD MLOAD PUSH2 0x1095 PUSH1 0x0 DUP6 ADD DUP3 PUSH2 0xEC2 JUMP JUMPDEST POP PUSH1 0x20 DUP3 ADD MLOAD PUSH2 0x10A8 PUSH1 0x20 DUP6 ADD DUP3 PUSH2 0xEC2 JUMP JUMPDEST POP PUSH1 0x40 DUP3 ADD MLOAD PUSH2 0x10BB PUSH1 0x40 DUP6 ADD DUP3 PUSH2 0xEC2 JUMP JUMPDEST POP PUSH1 0x60 DUP3 ADD MLOAD PUSH2 0x10CE PUSH1 0x60 DUP6 ADD DUP3 PUSH2 0xEC2 JUMP JUMPDEST POP PUSH1 0x80 DUP3 ADD MLOAD PUSH2 0x10E1 PUSH1 0x80 DUP6 ADD DUP3 PUSH2 0xEC2 JUMP JUMPDEST POP PUSH1 0xA0 DUP3 ADD MLOAD PUSH2 0x10F4 PUSH1 0xA0 DUP6 ADD DUP3 PUSH2 0xEC2 JUMP JUMPDEST POP PUSH1 0xC0 DUP3 ADD MLOAD PUSH2 0x1107 PUSH1 0xC0 DUP6 ADD DUP3 PUSH2 0xEC2 JUMP JUMPDEST POP POP POP POP JUMP JUMPDEST PUSH1 0x0 PUSH1 0xE0 DUP3 ADD SWAP1 POP PUSH2 0x1122 PUSH1 0x0 DUP4 ADD DUP5 PUSH2 0x107F JUMP JUMPDEST SWAP3 SWAP2 POP POP JUMP JUMPDEST PUSH1 0x0 DUP3 DUP3 MSTORE PUSH1 0x20 DUP3 ADD SWAP1 POP SWAP3 SWAP2 POP POP JUMP JUMPDEST PUSH32 0x4964656E7469747920646F6573206E6F74206578697374000000000000000000 PUSH1 0x0 DUP3 ADD MSTORE POP JUMP JUMPDEST PUSH1 0x0 PUSH2 0x116F PUSH1 0x17 DUP4 PUSH2 0x1128 JUMP JUMPDEST SWAP2 POP PUSH2 0x117A DUP3 PUSH2 0x1139 JUMP JUMPDEST PUSH1 0x20 DUP3 ADD SWAP1 POP SWAP2 SWAP1 POP JUMP JUMPDEST PUSH1 0x0 PUSH1 0x20 DUP3 ADD SWAP1 POP DUP2 DUP2 SUB PUSH1 0x0 DUP4 ADD MSTORE PUSH2 0x119E DUP2 PUSH2 0x1162 JUMP JUMPDEST SWAP1 POP SWAP2 SWAP1 POP JUMP JUMPDEST PUSH32 0x4964656E7469747920616C726561647920657869737473000000000000000000 PUSH1 0x0 DUP3 ADD MSTORE POP JUMP JUMPDEST PUSH1 0x0 PUSH2 0x11DB PUSH1 0x17 DUP4 PUSH2 0x1128 JUMP JUMPDEST SWAP2 POP PUSH2 0x11E6 DUP3 PUSH2 0x11A5 JUMP JUMPDEST PUSH1 0x20 DUP3 ADD SWAP1 POP SWAP2 SWAP1 POP JUMP JUMPDEST PUSH1 0x0 PUSH1 0x20 DUP3 ADD SWAP1 POP DUP2 DUP2 SUB PUSH1 0x0 DUP4 ADD MSTORE PUSH2 0x120A DUP2 PUSH2 0x11CE JUMP JUMPDEST SWAP1 POP SWAP2 SWAP1 POP JUMP JUMPDEST PUSH32 0x4E487B7100000000000000000000000000000000000000000000000000000000 PUSH1 0x0 MSTORE PUSH1 0x11 PUSH1 0x4 MSTORE PUSH1 0x24 PUSH1 0x0 REVERT JUMPDEST PUSH1 0x0 PUSH2 0x124B DUP3 PUSH2 0xD06 JUMP JUMPDEST SWAP2 POP PUSH2 0x1256 DUP4 PUSH2 0xD06 JUMP JUMPDEST SWAP3 POP DUP3 DUP3 SUB SWAP1 POP DUP2 DUP2 GT ISZERO PUSH2 0x126E JUMPI PUSH2 0x126D PUSH2 0x1211 JUMP JUMPDEST JUMPDEST SWAP3 SWAP2 POP POP JUMP JUMPDEST PUSH32 0x4E487B7100000000000000000000000000000000000000000000000000000000 PUSH1 0x0 MSTORE PUSH1 0x41 PUSH1 0x4 MSTORE PUSH1 0x24 PUSH1 0x0 REVERT JUMPDEST PUSH32 0x4E487B7100000000000000000000000000000000000000000000000000000000 PUSH1 0x0 MSTORE PUSH1 0x32 PUSH1 0x4 MSTORE PUSH1 0x24 PUSH1 0x0 REVERT JUMPDEST PUSH32 0x537461746520646F6573206E6F74206578697374000000000000000000000000 PUSH1 0x0 DUP3 ADD MSTORE POP JUMP JUMPDEST PUSH1 0x0 PUSH2 0x1308 PUSH1 0x14 DUP4 PUSH2 0x1128 JUMP JUMPDEST SWAP2 POP PUSH2 0x1313 DUP3 PUSH2 0x12D2 JUMP JUMPDEST PUSH1 0x20 DUP3 ADD SWAP1 POP SWAP2 SWAP1 POP JUMP JUMPDEST PUSH1 0x0 PUSH1 0x20 DUP3 ADD SWAP1 POP DUP2 DUP2 SUB PUSH1 0x0 DUP4 ADD MSTORE PUSH2 0x1337 DUP2 PUSH2 0x12FB JUMP JUMPDEST SWAP1 POP SWAP2 SWAP1 POP JUMP JUMPDEST PUSH2 0x1347 DUP2 PUSH2 0xD06 JUMP JUMPDEST DUP3 MSTORE POP POP JUMP JUMPDEST PUSH1 0x0 PUSH1 0x80 DUP3 ADD SWAP1 POP PUSH2 0x1362 PUSH1 0x0 DUP4 ADD DUP8 PUSH2 0x133E JUMP JUMPDEST PUSH2 0x136F PUSH1 0x20 DUP4 ADD DUP7 PUSH2 0x133E JUMP JUMPDEST PUSH2 0x137C PUSH1 0x40 DUP4 ADD DUP6 PUSH2 0x133E JUMP JUMPDEST PUSH2 0x1389 PUSH1 0x60 DUP4 ADD DUP5 PUSH2 0x133E JUMP JUMPDEST SWAP6 SWAP5 POP POP POP POP POP JUMP JUMPDEST PUSH32 0x4C656E6774682073686F756C642062652067726561746572207468616E203000 PUSH1 0x0 DUP3 ADD MSTORE POP JUMP JUMPDEST PUSH1 0x0 PUSH2 0x13C8 PUSH1 0x1F DUP4 PUSH2 0x1128 JUMP JUMPDEST SWAP2 POP PUSH2 0x13D3 DUP3 PUSH2 0x1392 JUMP JUMPDEST PUSH1 0x20 DUP3 ADD SWAP1 POP SWAP2 SWAP1 POP JUMP JUMPDEST PUSH1 0x0 PUSH1 0x20 DUP3 ADD SWAP1 POP DUP2 DUP2 SUB PUSH1 0x0 DUP4 ADD MSTORE PUSH2 0x13F7 DUP2 PUSH2 0x13BB JUMP JUMPDEST SWAP1 POP SWAP2 SWAP1 POP JUMP JUMPDEST PUSH32 0x4C656E677468206C696D69742065786365656465640000000000000000000000 PUSH1 0x0 DUP3 ADD MSTORE POP JUMP JUMPDEST PUSH1 0x0 PUSH2 0x1434 PUSH1 0x15 DUP4 PUSH2 0x1128 JUMP JUMPDEST SWAP2 POP PUSH2 0x143F DUP3 PUSH2 0x13FE JUMP JUMPDEST PUSH1 0x20 DUP3 ADD SWAP1 POP SWAP2 SWAP1 POP JUMP JUMPDEST PUSH1 0x0 PUSH1 0x20 DUP3 ADD SWAP1 POP DUP2 DUP2 SUB PUSH1 0x0 DUP4 ADD MSTORE PUSH2 0x1463 DUP2 PUSH2 0x1427 JUMP JUMPDEST SWAP1 POP SWAP2 SWAP1 POP JUMP JUMPDEST PUSH32 0x537461727420696E646578206F7574206F6620626F756E647300000000000000 PUSH1 0x0 DUP3 ADD MSTORE POP JUMP JUMPDEST PUSH1 0x0 PUSH2 0x14A0 PUSH1 0x19 DUP4 PUSH2 0x1128 JUMP JUMPDEST SWAP2 POP PUSH2 0x14AB DUP3 PUSH2 0x146A JUMP JUMPDEST PUSH1 0x20 DUP3 ADD SWAP1 POP SWAP2 SWAP1 POP JUMP JUMPDEST PUSH1 0x0 PUSH1 0x20 DUP3 ADD SWAP1 POP DUP2 DUP2 SUB PUSH1 0x0 DUP4 ADD MSTORE PUSH2 0x14CF DUP2 PUSH2 0x1493 JUMP JUMPDEST SWAP1 POP SWAP2 SWAP1 POP JUMP JUMPDEST PUSH1 0x0 PUSH2 0x14E1 DUP3 PUSH2 0xD06 JUMP JUMPDEST SWAP2 POP PUSH2 0x14EC DUP4 PUSH2 0xD06 JUMP JUMPDEST SWAP3 POP DUP3 DUP3 ADD SWAP1 POP DUP1 DUP3 GT ISZERO PUSH2 0x1504 JUMPI PUSH2 0x1503 PUSH2 0x1211 JUMP JUMPDEST JUMPDEST SWAP3 SWAP2 POP POP JUMP INVALID LOG2 PUSH5 0x6970667358 0x22 SLT KECCAK256 STATICCALL 0x21 0xFC 0xCE EXTCODESIZE PUSH14 0x564E1F9ED4BA06D91094E1D984C6 POP STATICCALL SWAP11 0x4E 0xC0 PUSH20 0xD1050F4A360D64736F6C634300081B0033000000 "
        },
        "methodIdentifiers": {
          "ID_HISTORY_RETURN_LIMIT()": "eaa6b26c",
          "addGenesisState(StateLib.Data storage,uint256,uint256)": "4a204218",
          "addState(StateLib.Data storage,uint256,uint256)": "44cfc45e",
          "getStateInfoById(StateLib.Data storage,uint256)": "9da68946",
          "getStateInfoByIdAndState(StateLib.Data storage,uint256,uint256)": "893e9739",
          "getStateInfoHistoryById(StateLib.Data storage,uint256,uint256,uint256)": "65fe1b5b",
          "getStateInfoHistoryLengthById(StateLib.Data storage,uint256)": "0e21d5fd",
          "getStateInfoListByIdAndState(StateLib.Data storage,uint256,uint256,uint256,uint256)": "7b87f75d",
          "getStateInfoListLengthByIdAndState(StateLib.Data storage,uint256,uint256)": "b2a11b2b",
          "idExists(StateLib.Data storage,uint256)": "419e76c1",
          "stateExists(StateLib.Data storage,uint256,uint256)": "b1abcc4d"
        }
      },
      "storageLayout": {
        "storage": [],
        "types": null
      }
    }
  }
}