{
  "_format": "hh3-artifact-1",
  "contractName": "Groth16VerifierLinkedMultiQuery3Wrapper",
  "sourceName": "contracts/lib/groth16-verifiers/Groth16VerifierLinkedMultiQuery3Wrapper .sol",
  "abi": [
    {
      "inputs": [
        {
          "internalType": "uint256",
          "name": "expected",
          "type": "uint256"
        },
        {
          "internalType": "uint256",
          "name": "actual",
          "type": "uint256"
        }
      ],
      "name": "ExpectedArrayLength",
      "type": "error"
    },
    {
      "inputs": [
        {
          "internalType": "uint256[2]",
          "name": "a",
          "type": "uint256[2]"
        },
        {
          "internalType": "uint256[2][2]",
          "name": "b",
          "type": "uint256[2][2]"
        },
        {
          "internalType": "uint256[2]",
          "name": "c",
          "type": "uint256[2]"
        },
        {
          "internalType": "uint256[]",
          "name": "signals",
          "type": "uint256[]"
        }
      ],
      "name": "verify",
      "outputs": [
        {
          "internalType": "bool",
          "name": "r",
          "type": "bool"
        }
      ],
      "stateMutability": "view",
      "type": "function"
    },
    {
      "inputs": [
        {
          "internalType": "uint256[2]",
          "name": "_pA",
          "type": "uint256[2]"
        },
        {
          "internalType": "uint256[2][2]",
          "name": "_pB",
          "type": "uint256[2][2]"
        },
        {
          "internalType": "uint256[2]",
          "name": "_pC",
          "type": "uint256[2]"
        },
        {
          "internalType": "uint256[8]",
          "name": "_pubSignals",
          "type": "uint256[8]"
        }
      ],
      "name": "verifyProof",
      "outputs": [
        {
          "internalType": "bool",
          "name": "",
          "type": "bool"
        }
      ],
      "stateMutability": "view",
      "type": "function"
    }
  ],
  "bytecode": "0x6080604052348015600e575f5ffd5b50610d618061001c5f395ff3fe608060405234801561000f575f5ffd5b5060043610610034575f3560e01c80632612907c14610038578063c9219a7a14610068575b5f5ffd5b610052600480360381019061004d919061096f565b610098565b60405161005f9190610a0f565b60405180910390f35b610082600480360381019061007d9190610a49565b6101cb565b60405161008f9190610a0f565b60405180910390f35b5f6100a16108a1565b600884849050146100ef576008848490506040517f4da7a8b70000000000000000000000000000000000000000000000000000000081526004016100e6929190610ac7565b60405180910390fd5b5f5f90505b6008811015610140578484828181106101105761010f610aee565b5b9050602002013582826008811061012a57610129610aee565b5b60200201818152505080806001019150506100f4565b503073ffffffffffffffffffffffffffffffffffffffff1663c9219a7a888888856040518563ffffffff1660e01b81526004016101809493929190610c91565b602060405180830381865afa15801561019b573d5f5f3e3d5ffd5b505050506040513d601f19601f820116820180604052508101906101bf9190610d00565b91505095945050505050565b5f61081a565b7f30644e72e131a029b85045b68181585d2833e84879b9709143e1f593f00000018110610200575f5f5260205ff35b50565b5f60405183815284602082015285604082015260408160608360076107d05a03fa915081610233575f5f5260205ff35b825160408201526020830151606082015260408360808360066107d05a03fa915081610261575f5f5260205ff35b505050505050565b5f608086015f87017f13e6714f1b3399f8d8eb8646e787f08a215e044c702a27c8c75e0f99bda0da1d81527f2d94fab72a61e67f8ffb96254c17e7600112d5e7ba908c78d516f4da7b7d657b60208201526103095f8801357f1b0b8b964ce8be29e1e0fc57f82bc6b8e15b853f2af4bec6b2b5a8e348c7355e7f14bffea96412b958f0b0c8d5e1cd6f18bb748089afdc7e22312a1e69755af64584610203565b61035960208801357f19cd8be426a74da643f093c210d1d7ee7e25b8aae52ab296b3aa03e5971410e47f2e1a0898a33a197918ba606a34957e212dcd0c53986ffb1e30c74fdd5a12527184610203565b6103a960408801357f0c6ba24419a7d0212f297b7aa6ea5afb80093a87a5dd1e19af43fedb9b4d11f47f045c211b9ab7e1a98ed6ce6b5decbb1f858f4d01602960ab43055c79d31d25bd84610203565b6103f960608801357f24e9533b973c75633a864364541723c169f5dd25f6aec937ff4a97782261749d7f231e800a0409681d9e44a3c53d5a3c9e61bc22bb2741aa577da154982b84e9a384610203565b61044960808801357f27734a8bb67cd456d09ebfa529021a17931a9181d73c559f1c2724e8336096be7f112e065b446973092b306567dbd0f5cb42e1ab7f66607b79c85d02a4b8d2a33184610203565b61049960a08801357f2cb695ac5b5f0fa9343c17c7f9be39fd14e7928b20ce7ecfd3973f398f2edf967f258a9f10eedfa200f8a799045de56aa21bd30337611d5e2186325daaa2c40aed84610203565b6104e960c08801357f2e2d156da509602fb5c8b6513445e18af6cb20453845c2bb7dcbfe853a0705db7f3039ad3456f5dcb68caba04a9ed6f150c0c603e6c92e690b27380256e922709b84610203565b61053860e08801357e5d79d224a3c2dfa1b35709b78a4df8e79daee069074eb87860e22f66bd5b907f1976f6df5e8ffab901608e072c4ba2b12dc0a66ec59b12da4a7dcd46938971f284610203565b833582527f30644e72e131a029b85045b68181585d97816a916871ca8d3c208c16d87cfd4760208501357f30644e72e131a029b85045b68181585d97816a916871ca8d3c208c16d87cfd4703066020830152843560408301526020850135606083015260408501356080830152606085013560a08301527f245229d9b076b3c0e8a4d70bde8c1cccffa08a9fae7557b165b3b0dbd653e2c760c08301527f253ec85988dbb84e46e94b5efa3373b47a000b4ac6c86b2d4b798d274a18230260e08301527f07090a82e8fabbd39299be24705b92cf208ee8b3487f6f2b39ff27978a29a1db6101008301527f2424bcc1f60a5472685fd50705b2809626e170120acaf441e133a2bd5e61d2446101208301527f0ae1135cffdaf227c5dc266740607aa930bc3bd92ddc2b135086d9da2dfd3e2a6101408301527f2b86859fd3d55c9d150fb3f0aeba798826493dd73d357ab0f9fdaced9fc818296101608301525f88015161018083015260205f018801516101a08301527f198e9393920d483a7260bfb731fb5d25f1aa493335a9e71297e485b7aef312c26101c08301527f1800deef121f1e76426a00665e5c4479674322d4f75edadd46debd5cd992f6ed6101e08301527f090689d0585ff075ec9e99ad690c3395bc4b313370b38ef355acdadcd122975b6102008301527f12c85ea5db8c6deb4aab71808dcb408fe3d1e7690c43d37b4ce6cc0166fa7daa610220830152853561024083015260208601356102608301527f1c7bb9b533c0321a111b4b67d0a707cd295147974dbe63a8d51227f520c6b1a96102808301527f29e47454bb4ba1c66bcdd0409ed927f650c17ac0f8362abd0075ba190dbcbadb6102a08301527f237266557f680743446f1ec6d75add76d4c220d7ebdeb405ec8bb7de0054ac6e6102c08301527f19dde53c9f923c4dec16ea153b43833744cea7e1e7844030d873e990dbecca246102e08301526020826103008460086107d05a03fa82518116935050505095945050505050565b60405161038081016040526108315f8401356101d1565b61083e60208401356101d1565b61084b60408401356101d1565b61085860608401356101d1565b61086560808401356101d1565b61087260a08401356101d1565b61087f60c08401356101d1565b61088c60e08401356101d1565b610899818486888a610269565b805f5260205ff35b604051806101000160405280600890602082028036833780820191505090505090565b5f5ffd5b5f5ffd5b5f5ffd5b5f819050826020600202820111156108eb576108ea6108cc565b5b92915050565b5f8190508260406002028201111561090c5761090b6108cc565b5b92915050565b5f5ffd5b5f5ffd5b5f5f83601f84011261092f5761092e610912565b5b8235905067ffffffffffffffff81111561094c5761094b610916565b5b602083019150836020820283011115610968576109676108cc565b5b9250929050565b5f5f5f5f5f6101208688031215610989576109886108c4565b5b5f610996888289016108d0565b95505060406109a7888289016108f1565b94505060c06109b8888289016108d0565b93505061010086013567ffffffffffffffff8111156109da576109d96108c8565b5b6109e68882890161091a565b92509250509295509295909350565b5f8115159050919050565b610a09816109f5565b82525050565b5f602082019050610a225f830184610a00565b92915050565b5f81905082602060080282011115610a4357610a426108cc565b5b92915050565b5f5f5f5f6102008587031215610a6257610a616108c4565b5b5f610a6f878288016108d0565b9450506040610a80878288016108f1565b93505060c0610a91878288016108d0565b925050610100610aa387828801610a28565b91505092959194509250565b5f819050919050565b610ac181610aaf565b82525050565b5f604082019050610ada5f830185610ab8565b610ae76020830184610ab8565b9392505050565b7f4e487b71000000000000000000000000000000000000000000000000000000005f52603260045260245ffd5b82818337505050565b610b3060408383610b1b565b5050565b5f60029050919050565b5f81905092915050565b5f819050919050565b610b5d60408383610b1b565b5050565b5f610b6c8383610b51565b60408301905092915050565b5f82905092915050565b5f604082019050919050565b610b9781610b34565b610ba18184610b3e565b9250610bac82610b48565b805f5b83811015610be457610bc18284610b78565b610bcb8782610b61565b9650610bd683610b82565b925050600181019050610baf565b505050505050565b5f60089050919050565b5f81905092915050565b5f819050919050565b610c1281610aaf565b82525050565b5f610c238383610c09565b60208301905092915050565b5f602082019050919050565b610c4481610bec565b610c4e8184610bf6565b9250610c5982610c00565b805f5b83811015610c89578151610c708782610c18565b9650610c7b83610c2f565b925050600181019050610c5c565b505050505050565b5f61020082019050610ca55f830187610b24565b610cb26040830186610b8e565b610cbf60c0830185610b24565b610ccd610100830184610c3b565b95945050505050565b610cdf816109f5565b8114610ce9575f5ffd5b50565b5f81519050610cfa81610cd6565b92915050565b5f60208284031215610d1557610d146108c4565b5b5f610d2284828501610cec565b9150509291505056fea2646970667358221220aa29db2b141a4736641d1269d1440ae169913eb7bd17da8306289d110456f4e264736f6c634300081b0033",
  "linkReferences": {},
  "deployedLinkReferences": {},
  "immutableReferences": {},
  "inputSourceName": "project/contracts/lib/groth16-verifiers/Groth16VerifierLinkedMultiQuery3Wrapper .sol",
  "buildInfoId": "solc-0_8_27-b671705d74a53b6b2fe696b87862a2c2c3d03377"
}