{
  "_format": "hh-sol-artifact-1",
  "contractName": "LinkedMultiQueryValidator",
  "sourceName": "contracts/validators/request/LinkedMultiQueryValidator.sol",
  "abi": [
    {
      "inputs": [],
      "stateMutability": "nonpayable",
      "type": "constructor"
    },
    {
      "inputs": [
        {
          "internalType": "string",
          "name": "circuitId",
          "type": "string"
        }
      ],
      "name": "Groth16VerifierAddressIsZero",
      "type": "error"
    },
    {
      "inputs": [
        {
          "internalType": "string",
          "name": "circuitId",
          "type": "string"
        }
      ],
      "name": "Groth16VerifierAlreadySet",
      "type": "error"
    },
    {
      "inputs": [],
      "name": "GroupIDCannotBeZero",
      "type": "error"
    },
    {
      "inputs": [],
      "name": "InputNameNotFound",
      "type": "error"
    },
    {
      "inputs": [],
      "name": "InvalidGroth16Proof",
      "type": "error"
    },
    {
      "inputs": [],
      "name": "InvalidInitialization",
      "type": "error"
    },
    {
      "inputs": [
        {
          "internalType": "uint256",
          "name": "expectedQueryHash",
          "type": "uint256"
        },
        {
          "internalType": "uint256",
          "name": "actualQueryHash",
          "type": "uint256"
        }
      ],
      "name": "InvalidQueryHash",
      "type": "error"
    },
    {
      "inputs": [],
      "name": "LinkIDCannotBeZero",
      "type": "error"
    },
    {
      "inputs": [],
      "name": "NotInitializing",
      "type": "error"
    },
    {
      "inputs": [
        {
          "internalType": "address",
          "name": "owner",
          "type": "address"
        }
      ],
      "name": "OwnableInvalidOwner",
      "type": "error"
    },
    {
      "inputs": [
        {
          "internalType": "address",
          "name": "account",
          "type": "address"
        }
      ],
      "name": "OwnableUnauthorizedAccount",
      "type": "error"
    },
    {
      "inputs": [],
      "name": "RequestParamNameNotFound",
      "type": "error"
    },
    {
      "inputs": [
        {
          "internalType": "uint256",
          "name": "operatorCount",
          "type": "uint256"
        }
      ],
      "name": "TooManyQueries",
      "type": "error"
    },
    {
      "inputs": [
        {
          "internalType": "string",
          "name": "circuitID",
          "type": "string"
        }
      ],
      "name": "WrongCircuitID",
      "type": "error"
    },
    {
      "anonymous": false,
      "inputs": [
        {
          "indexed": false,
          "internalType": "uint64",
          "name": "version",
          "type": "uint64"
        }
      ],
      "name": "Initialized",
      "type": "event"
    },
    {
      "anonymous": false,
      "inputs": [
        {
          "indexed": true,
          "internalType": "address",
          "name": "previousOwner",
          "type": "address"
        },
        {
          "indexed": true,
          "internalType": "address",
          "name": "newOwner",
          "type": "address"
        }
      ],
      "name": "OwnershipTransferStarted",
      "type": "event"
    },
    {
      "anonymous": false,
      "inputs": [
        {
          "indexed": true,
          "internalType": "address",
          "name": "previousOwner",
          "type": "address"
        },
        {
          "indexed": true,
          "internalType": "address",
          "name": "newOwner",
          "type": "address"
        }
      ],
      "name": "OwnershipTransferred",
      "type": "event"
    },
    {
      "inputs": [],
      "name": "VERSION",
      "outputs": [
        {
          "internalType": "string",
          "name": "",
          "type": "string"
        }
      ],
      "stateMutability": "view",
      "type": "function"
    },
    {
      "inputs": [],
      "name": "acceptOwnership",
      "outputs": [],
      "stateMutability": "nonpayable",
      "type": "function"
    },
    {
      "inputs": [
        {
          "internalType": "bytes",
          "name": "params",
          "type": "bytes"
        },
        {
          "internalType": "string",
          "name": "paramName",
          "type": "string"
        }
      ],
      "name": "getRequestParam",
      "outputs": [
        {
          "components": [
            {
              "internalType": "string",
              "name": "name",
              "type": "string"
            },
            {
              "internalType": "uint256",
              "name": "value",
              "type": "uint256"
            }
          ],
          "internalType": "struct IRequestValidator.RequestParam",
          "name": "",
          "type": "tuple"
        }
      ],
      "stateMutability": "pure",
      "type": "function"
    },
    {
      "inputs": [],
      "name": "getSupportedCircuitIds",
      "outputs": [
        {
          "internalType": "string[]",
          "name": "ids",
          "type": "string[]"
        }
      ],
      "stateMutability": "view",
      "type": "function"
    },
    {
      "inputs": [
        {
          "internalType": "string",
          "name": "circuitId",
          "type": "string"
        }
      ],
      "name": "getVerifierByCircuitId",
      "outputs": [
        {
          "internalType": "contract IGroth16Verifier",
          "name": "",
          "type": "address"
        }
      ],
      "stateMutability": "view",
      "type": "function"
    },
    {
      "inputs": [
        {
          "internalType": "address",
          "name": "_groth16VerifierContractAddr",
          "type": "address"
        },
        {
          "internalType": "address",
          "name": "owner",
          "type": "address"
        }
      ],
      "name": "initialize",
      "outputs": [],
      "stateMutability": "nonpayable",
      "type": "function"
    },
    {
      "inputs": [
        {
          "internalType": "string",
          "name": "name",
          "type": "string"
        }
      ],
      "name": "inputIndexOf",
      "outputs": [
        {
          "internalType": "uint256",
          "name": "",
          "type": "uint256"
        }
      ],
      "stateMutability": "view",
      "type": "function"
    },
    {
      "inputs": [],
      "name": "owner",
      "outputs": [
        {
          "internalType": "address",
          "name": "",
          "type": "address"
        }
      ],
      "stateMutability": "view",
      "type": "function"
    },
    {
      "inputs": [],
      "name": "pendingOwner",
      "outputs": [
        {
          "internalType": "address",
          "name": "",
          "type": "address"
        }
      ],
      "stateMutability": "view",
      "type": "function"
    },
    {
      "inputs": [],
      "name": "renounceOwnership",
      "outputs": [],
      "stateMutability": "nonpayable",
      "type": "function"
    },
    {
      "inputs": [
        {
          "internalType": "bytes4",
          "name": "interfaceId",
          "type": "bytes4"
        }
      ],
      "name": "supportsInterface",
      "outputs": [
        {
          "internalType": "bool",
          "name": "",
          "type": "bool"
        }
      ],
      "stateMutability": "view",
      "type": "function"
    },
    {
      "inputs": [
        {
          "internalType": "address",
          "name": "newOwner",
          "type": "address"
        }
      ],
      "name": "transferOwnership",
      "outputs": [],
      "stateMutability": "nonpayable",
      "type": "function"
    },
    {
      "inputs": [
        {
          "internalType": "address",
          "name": "sender",
          "type": "address"
        },
        {
          "internalType": "bytes",
          "name": "proof",
          "type": "bytes"
        },
        {
          "internalType": "bytes",
          "name": "requestParams",
          "type": "bytes"
        },
        {
          "internalType": "bytes",
          "name": "responseMetadata",
          "type": "bytes"
        }
      ],
      "name": "verify",
      "outputs": [
        {
          "components": [
            {
              "internalType": "string",
              "name": "name",
              "type": "string"
            },
            {
              "internalType": "uint256",
              "name": "value",
              "type": "uint256"
            },
            {
              "internalType": "bytes",
              "name": "rawValue",
              "type": "bytes"
            }
          ],
          "internalType": "struct IRequestValidator.ResponseField[]",
          "name": "",
          "type": "tuple[]"
        }
      ],
      "stateMutability": "view",
      "type": "function"
    },
    {
      "inputs": [],
      "name": "version",
      "outputs": [
        {
          "internalType": "string",
          "name": "",
          "type": "string"
        }
      ],
      "stateMutability": "pure",
      "type": "function"
    }
  ],
  "bytecode": "0x608060405234801561001057600080fd5b5061001f61002460201b60201c565b6101ab565b600061003461012860201b60201c565b90508060000160089054906101000a900460ff161561007f576040517ff92ee8a900000000000000000000000000000000000000000000000000000000815260040160405180910390fd5b67ffffffffffffffff80168160000160009054906101000a900467ffffffffffffffff1667ffffffffffffffff16146101255767ffffffffffffffff8160000160006101000a81548167ffffffffffffffff021916908367ffffffffffffffff1602179055507fc7f505b2f371ae2175ee4913f4499e1f2633a7b5936321eed1cdaeb6115181d267ffffffffffffffff60405161011c9190610190565b60405180910390a15b50565b60008061013961014260201b60201c565b90508091505090565b60007ff0c57e16840df040f15088dc2f81fe391c3923bec73e23a9662efc9c229c6a0060001b905090565b600067ffffffffffffffff82169050919050565b61018a8161016d565b82525050565b60006020820190506101a56000830184610181565b92915050565b6133c8806101ba6000396000f3fe608060405234801561001057600080fd5b50600436106100ea5760003560e01c8063b16a394f1161008c578063ed4b50a811610066578063ed4b50a814610239578063f2fde38b14610269578063fb5af2a214610285578063ffa1ad74146102a3576100ea565b8063b16a394f146101bb578063d9f9eb9a146101eb578063e30c39781461021b576100ea565b8063715018a6116100c8578063715018a61461015957806379ba5097146101635780638c9527481461016d5780638da5cb5b1461019d576100ea565b806301ffc9a7146100ef578063485cc9551461011f57806354fd4d501461013b575b600080fd5b61010960048036038101906101049190611b8f565b6102c1565b6040516101169190611bd7565b60405180910390f35b61013960048036038101906101349190611c50565b61033b565b005b61014361061e565b6040516101509190611d20565b60405180910390f35b61016161065b565b005b61016b61066f565b005b61018760048036038101906101829190611e77565b6106fe565b6040516101949190611f1f565b60405180910390f35b6101a561074f565b6040516101b29190611f49565b60405180910390f35b6101d560048036038101906101d09190611e77565b610787565b6040516101e29190611f7d565b60405180910390f35b61020560048036038101906102009190611ff8565b610803565b6040516102129190612288565b60405180910390f35b610223610a33565b6040516102309190611f49565b60405180910390f35b610253600480360381019061024e91906122aa565b610a6b565b6040516102609190612363565b60405180910390f35b610283600480360381019061027e9190612385565b610bb2565b005b61028d610c6e565b60405161029a9190612474565b60405180910390f35b6102ab610d50565b6040516102b89190611d20565b60405180910390f35b60007fd125cf2d000000000000000000000000000000000000000000000000000000007bffffffffffffffffffffffffffffffffffffffffffffffffffffffff1916827bffffffffffffffffffffffffffffffffffffffffffffffffffffffff19161480610334575061033382610d89565b5b9050919050565b6000610345610df3565b905060008160000160089054906101000a900460ff1615905060008260000160009054906101000a900467ffffffffffffffff1690506000808267ffffffffffffffff161480156103935750825b9050600060018367ffffffffffffffff161480156103c8575060003073ffffffffffffffffffffffffffffffffffffffff163b145b9050811580156103d6575080155b1561040d576040517ff92ee8a900000000000000000000000000000000000000000000000000000000815260040160405180910390fd5b60018560000160006101000a81548167ffffffffffffffff021916908367ffffffffffffffff160217905550831561045d5760018560000160086101000a81548160ff0219169083151502179055505b61049c6040518060400160405280601981526020017f6c696e6b65644d756c7469517565727931302d626574612e310000000000000081525088610e07565b6104dc6040518060400160405280600681526020017f6c696e6b494400000000000000000000000000000000000000000000000000008152506000610fd8565b61051c6040518060400160405280600981526020017f6d65726b6c697a656400000000000000000000000000000000000000000000008152506001610fd8565b60005b600a8110156105af5761056561053482611014565b604051602001610544919061251e565b604051602081830303815290604052826002610560919061256f565b610fd8565b6105a261057182611014565b60405160200161058191906125ef565b60405160208183030381529060405282600c61059d919061256f565b610fd8565b808060010191505061051f565b506105b9866110e2565b83156106155760008560000160086101000a81548160ff0219169083151502179055507fc7f505b2f371ae2175ee4913f4499e1f2633a7b5936321eed1cdaeb6115181d2600160405161060c9190612660565b60405180910390a15b50505050505050565b60606040518060400160405280600c81526020017f312e302e302d626574612e310000000000000000000000000000000000000000815250905090565b6106636110f6565b61066d600061117d565b565b60006106796111bd565b90508073ffffffffffffffffffffffffffffffffffffffff1661069a610a33565b73ffffffffffffffffffffffffffffffffffffffff16146106f257806040517f118cdaa70000000000000000000000000000000000000000000000000000000081526004016106e99190611f49565b60405180910390fd5b6106fb8161117d565b50565b60006107086111c5565b60000182604051610719919061267b565b908152602001604051809103902060009054906101000a900473ffffffffffffffffffffffffffffffffffffffff169050919050565b60008061075a6111ed565b90508060000160009054906101000a900473ffffffffffffffffffffffffffffffffffffffff1691505090565b6000806107926111c5565b600201836040516107a3919061267b565b9081526020016040518091039020549050600081036107ee576040517f59a674c000000000000000000000000000000000000000000000000000000000815260040160405180910390fd5b806107f890612692565b905080915050919050565b6060600085858101906108169190612ae8565b90506000806000808b8b81019061082d9190612c93565b9350935093509350600061084085611215565b905061084c868261135d565b61085e8660c001518260000151611487565b6040518060400160405280601981526020017f6c696e6b65644d756c7469517565727931302d626574612e3100000000000000815250805190602001208660a001516000815181106108b3576108b2612d17565b5b60200260200101518051906020012014610923578560a001516000815181106108df576108de612d17565b5b60200260200101516040517feca2d7ad00000000000000000000000000000000000000000000000000000000815260040161091a9190611d20565b60405180910390fd5b6109616040518060400160405280601981526020017f6c696e6b65644d756c7469517565727931302d626574612e31000000000000008152506106fe565b73ffffffffffffffffffffffffffffffffffffffff16632612907c858585896040518563ffffffff1660e01b815260040161099f9493929190612f77565b602060405180830381865afa1580156109bc573d6000803e3d6000fd5b505050506040513d601f19601f820116820180604052508101906109e09190612ff1565b610a16576040517fb4e0708100000000000000000000000000000000000000000000000000000000815260040160405180910390fd5b610a2081876114ff565b9650505050505050979650505050505050565b600080610a3e61172e565b90508060000160009054906101000a900473ffffffffffffffffffffffffffffffffffffffff1691505090565b610a73611a91565b60008484810190610a849190612ae8565b90507fdab5ca4f3738dce0cd25851a4aa9160ebdfb1678ef20ca14c9a3e9217058455a60001b838051906020012003610ad85760405180604001604052808481526020018260c00151815250915050610bab565b7fa6ade9d39b76f319076fc4ad150ee37167dd21433b39e1d533a5d6b635762abe60001b838051906020012003610b2a5760405180604001604052808481526020018260e00151815250915050610bab565b7f24cea8e4716dcdf091e4abcbd3ea617d9a5dd308b90afb5da0d75e56b3c0bc9560001b838051906020012003610b795760405180604001604052808481526020016000815250915050610bab565b6040517f53bebd1b00000000000000000000000000000000000000000000000000000000815260040160405180910390fd5b9392505050565b610bba6110f6565b6000610bc461172e565b9050818160000160006101000a81548173ffffffffffffffffffffffffffffffffffffffff021916908373ffffffffffffffffffffffffffffffffffffffff1602179055508173ffffffffffffffffffffffffffffffffffffffff16610c2861074f565b73ffffffffffffffffffffffffffffffffffffffff167f38d16b8cac22d99fc7c124b9cd0de2d3fa1faef420bfe791d8c362d765e2270060405160405180910390a35050565b6060610c786111c5565b600101805480602002602001604051908101604052809291908181526020016000905b82821015610d47578382906000526020600020018054610cba9061304d565b80601f0160208091040260200160405190810160405280929190818152602001828054610ce69061304d565b8015610d335780601f10610d0857610100808354040283529160200191610d33565b820191906000526020600020905b815481529060010190602001808311610d1657829003601f168201915b505050505081526020019060010190610c9b565b50505050905090565b6040518060400160405280600c81526020017f312e302e302d626574612e31000000000000000000000000000000000000000081525081565b60007f01ffc9a7000000000000000000000000000000000000000000000000000000007bffffffffffffffffffffffffffffffffffffffffffffffffffffffff1916827bffffffffffffffffffffffffffffffffffffffffffffffffffffffff1916149050919050565b600080610dfe611756565b90508091505090565b600073ffffffffffffffffffffffffffffffffffffffff168173ffffffffffffffffffffffffffffffffffffffff1603610e7857816040517f5a94a35a000000000000000000000000000000000000000000000000000000008152600401610e6f9190611d20565b60405180910390fd5b600073ffffffffffffffffffffffffffffffffffffffff16610e986111c5565b60000183604051610ea9919061267b565b908152602001604051809103902060009054906101000a900473ffffffffffffffffffffffffffffffffffffffff1673ffffffffffffffffffffffffffffffffffffffff1614610f3057816040517f5b56ea99000000000000000000000000000000000000000000000000000000008152600401610f279190611d20565b60405180910390fd5b610f386111c5565b60010182908060018154018082558091505060019003906000526020600020016000909190919091509081610f6d9190613220565b5080610f776111c5565b60000183604051610f88919061267b565b908152602001604051809103902060006101000a81548173ffffffffffffffffffffffffffffffffffffffff021916908373ffffffffffffffffffffffffffffffffffffffff1602179055505050565b80610fe2906132f2565b905080610fed6111c5565b60020183604051610ffe919061267b565b9081526020016040518091039020819055505050565b60606000600161102384611781565b01905060008167ffffffffffffffff81111561104257611041611d4c565b5b6040519080825280601f01601f1916602001820160405280156110745781602001600182028036833780820191505090505b509050600082602083010190505b6001156110d7578080600190039150507f3031323334353637383961626364656600000000000000000000000000000000600a86061a8153600a85816110cb576110ca61333a565b5b04945060008503611082575b819350505050919050565b6110ea6118d4565b6110f381611914565b50565b6110fe6111bd565b73ffffffffffffffffffffffffffffffffffffffff1661111c61074f565b73ffffffffffffffffffffffffffffffffffffffff161461117b5761113f6111bd565b6040517f118cdaa70000000000000000000000000000000000000000000000000000000081526004016111729190611f49565b60405180910390fd5b565b600061118761172e565b90508060000160006101000a81549073ffffffffffffffffffffffffffffffffffffffff02191690556111b98261199a565b5050565b600033905090565b60007fd90b97ccc3cb854254aeec1e5c25748ff7146358b68741074181b650621e5d00905090565b60007f9016d09d72d40fdae2fd8ceac6b6234c7706214fd39c1cd1e609a0528c199300905090565b61121d611aab565b611225611adf565b61122d611adf565b6000604051806080016040528060008152602001600081526020018481526020018381525090508460008151811061126857611267612d17565b5b60200260200101518160000181815250508460018151811061128d5761128c612d17565b5b602002602001015181602001818152505060005b600a81101561135157858160026112b8919061256f565b815181106112c9576112c8612d17565b5b6020026020010151826040015182600a81106112e8576112e7612d17565b5b6020020181815250508581600a6002611301919061256f565b61130b919061256f565b8151811061131c5761131b612d17565b5b6020026020010151826060015182600a811061133b5761133a612d17565b5b60200201818152505080806001019150506112a1565b50809350505050919050565b600a82608001515111156113ad578160800151516040517f751a29b60000000000000000000000000000000000000000000000000000000081526004016113a49190611f7d565b60405180910390fd5b60005b82608001515181101561148257816060015181600a81106113d4576113d3612d17565b5b6020020151836080015182815181106113f0576113ef612d17565b5b602002602001015114611475578260800151818151811061141457611413612d17565b5b6020026020010151826060015182600a811061143357611432612d17565b5b60200201516040517f5837295900000000000000000000000000000000000000000000000000000000815260040161146c929190613369565b60405180910390fd5b80806001019150506113b0565b505050565b600082036114c1576040517f02698baf00000000000000000000000000000000000000000000000000000000815260040160405180910390fd5b600081036114fb576040517f1e5164f400000000000000000000000000000000000000000000000000000000815260040160405180910390fd5b5050565b60606000805b8360200151518110156115545760108460200151828151811061152b5761152a612d17565b5b602002602001015103611547578180611543906132f2565b9250505b8080600101915050611505565b5060006001905060008282611569919061256f565b67ffffffffffffffff81111561158257611581611d4c565b5b6040519080825280602002602001820160405280156115bb57816020015b6115a8611b02565b8152602001906001900390816115a05790505b50905060405180606001604052806040518060400160405280600681526020017f6c696e6b49440000000000000000000000000000000000000000000000000000815250815260200187600001518152602001604051806020016040528060008152508152508160008151811061163557611634612d17565b5b602002602001018190525060006001905060005b8660200151518110156117205760108760200151828151811061166f5761166e612d17565b5b60200260200101510361171357604051806060016040528061169083611014565b6040516020016116a0919061251e565b6040516020818303038152906040528152602001896040015183600a81106116cb576116ca612d17565b5b60200201518152602001604051806020016040528060008152508152508383806116f4906132f2565b94508151811061170757611706612d17565b5b60200260200101819052505b8080600101915050611649565b508194505050505092915050565b60007f237e158222e3e6968b72b9db0d8043aacf074ad9f650f0d1606b4d82ee432c00905090565b60007ff0c57e16840df040f15088dc2f81fe391c3923bec73e23a9662efc9c229c6a0060001b905090565b600080600090507a184f03e93ff9f4daa797ed6e38ed64bf6a1f01000000000000000083106117df577a184f03e93ff9f4daa797ed6e38ed64bf6a1f01000000000000000083816117d5576117d461333a565b5b0492506040810190505b6d04ee2d6d415b85acef8100000000831061181c576d04ee2d6d415b85acef810000000083816118125761181161333a565b5b0492506020810190505b662386f26fc10000831061184b57662386f26fc1000083816118415761184061333a565b5b0492506010810190505b6305f5e1008310611874576305f5e100838161186a5761186961333a565b5b0492506008810190505b612710831061189957612710838161188f5761188e61333a565b5b0492506004810190505b606483106118bc57606483816118b2576118b161333a565b5b0492506002810190505b600a83106118cb576001810190505b80915050919050565b6118dc611a71565b611912576040517fd7e6bcf800000000000000000000000000000000000000000000000000000000815260040160405180910390fd5b565b61191c6118d4565b600073ffffffffffffffffffffffffffffffffffffffff168173ffffffffffffffffffffffffffffffffffffffff160361198e5760006040517f1e4fbdf70000000000000000000000000000000000000000000000000000000081526004016119859190611f49565b60405180910390fd5b6119978161117d565b50565b60006119a46111ed565b905060008160000160009054906101000a900473ffffffffffffffffffffffffffffffffffffffff169050828260000160006101000a81548173ffffffffffffffffffffffffffffffffffffffff021916908373ffffffffffffffffffffffffffffffffffffffff1602179055508273ffffffffffffffffffffffffffffffffffffffff168173ffffffffffffffffffffffffffffffffffffffff167f8be0079c531659141344cd1fd0a4f28419497f9722a3daafe3b4186f6b6457e060405160405180910390a3505050565b6000611a7b610df3565b60000160089054906101000a900460ff16905090565b604051806040016040528060608152602001600081525090565b60405180608001604052806000815260200160008152602001611acc611adf565b8152602001611ad9611adf565b81525090565b604051806101400160405280600a90602082028036833780820191505090505090565b60405180606001604052806060815260200160008152602001606081525090565b6000604051905090565b600080fd5b600080fd5b60007fffffffff0000000000000000000000000000000000000000000000000000000082169050919050565b611b6c81611b37565b8114611b7757600080fd5b50565b600081359050611b8981611b63565b92915050565b600060208284031215611ba557611ba4611b2d565b5b6000611bb384828501611b7a565b91505092915050565b60008115159050919050565b611bd181611bbc565b82525050565b6000602082019050611bec6000830184611bc8565b92915050565b600073ffffffffffffffffffffffffffffffffffffffff82169050919050565b6000611c1d82611bf2565b9050919050565b611c2d81611c12565b8114611c3857600080fd5b50565b600081359050611c4a81611c24565b92915050565b60008060408385031215611c6757611c66611b2d565b5b6000611c7585828601611c3b565b9250506020611c8685828601611c3b565b9150509250929050565b600081519050919050565b600082825260208201905092915050565b60005b83811015611cca578082015181840152602081019050611caf565b60008484015250505050565b6000601f19601f8301169050919050565b6000611cf282611c90565b611cfc8185611c9b565b9350611d0c818560208601611cac565b611d1581611cd6565b840191505092915050565b60006020820190508181036000830152611d3a8184611ce7565b905092915050565b600080fd5b600080fd5b7f4e487b7100000000000000000000000000000000000000000000000000000000600052604160045260246000fd5b611d8482611cd6565b810181811067ffffffffffffffff82111715611da357611da2611d4c565b5b80604052505050565b6000611db6611b23565b9050611dc28282611d7b565b919050565b600067ffffffffffffffff821115611de257611de1611d4c565b5b611deb82611cd6565b9050602081019050919050565b82818337600083830152505050565b6000611e1a611e1584611dc7565b611dac565b905082815260208101848484011115611e3657611e35611d47565b5b611e41848285611df8565b509392505050565b600082601f830112611e5e57611e5d611d42565b5b8135611e6e848260208601611e07565b91505092915050565b600060208284031215611e8d57611e8c611b2d565b5b600082013567ffffffffffffffff811115611eab57611eaa611b32565b5b611eb784828501611e49565b91505092915050565b6000819050919050565b6000611ee5611ee0611edb84611bf2565b611ec0565b611bf2565b9050919050565b6000611ef782611eca565b9050919050565b6000611f0982611eec565b9050919050565b611f1981611efe565b82525050565b6000602082019050611f346000830184611f10565b92915050565b611f4381611c12565b82525050565b6000602082019050611f5e6000830184611f3a565b92915050565b6000819050919050565b611f7781611f64565b82525050565b6000602082019050611f926000830184611f6e565b92915050565b600080fd5b600080fd5b60008083601f840112611fb857611fb7611d42565b5b8235905067ffffffffffffffff811115611fd557611fd4611f98565b5b602083019150836001820283011115611ff157611ff0611f9d565b5b9250929050565b60008060008060008060006080888a03121561201757612016611b2d565b5b60006120258a828b01611c3b565b975050602088013567ffffffffffffffff81111561204657612045611b32565b5b6120528a828b01611fa2565b9650965050604088013567ffffffffffffffff81111561207557612074611b32565b5b6120818a828b01611fa2565b9450945050606088013567ffffffffffffffff8111156120a4576120a3611b32565b5b6120b08a828b01611fa2565b925092505092959891949750929550565b600081519050919050565b600082825260208201905092915050565b6000819050602082019050919050565b600082825260208201905092915050565b600061210982611c90565b61211381856120ed565b9350612123818560208601611cac565b61212c81611cd6565b840191505092915050565b61214081611f64565b82525050565b600081519050919050565b600082825260208201905092915050565b600061216d82612146565b6121778185612151565b9350612187818560208601611cac565b61219081611cd6565b840191505092915050565b600060608301600083015184820360008601526121b882826120fe565b91505060208301516121cd6020860182612137565b50604083015184820360408601526121e58282612162565b9150508091505092915050565b60006121fe838361219b565b905092915050565b6000602082019050919050565b600061221e826120c1565b61222881856120cc565b93508360208202850161223a856120dd565b8060005b85811015612276578484038952815161225785826121f2565b945061226283612206565b925060208a0199505060018101905061223e565b50829750879550505050505092915050565b600060208201905081810360008301526122a28184612213565b905092915050565b6000806000604084860312156122c3576122c2611b2d565b5b600084013567ffffffffffffffff8111156122e1576122e0611b32565b5b6122ed86828701611fa2565b9350935050602084013567ffffffffffffffff8111156123105761230f611b32565b5b61231c86828701611e49565b9150509250925092565b6000604083016000830151848203600086015261234382826120fe565b91505060208301516123586020860182612137565b508091505092915050565b6000602082019050818103600083015261237d8184612326565b905092915050565b60006020828403121561239b5761239a611b2d565b5b60006123a984828501611c3b565b91505092915050565b600081519050919050565b600082825260208201905092915050565b6000819050602082019050919050565b60006123ea83836120fe565b905092915050565b6000602082019050919050565b600061240a826123b2565b61241481856123bd565b935083602082028501612426856123ce565b8060005b85811015612462578484038952815161244385826123de565b945061244e836123f2565b925060208a0199505060018101905061242a565b50829750879550505050505092915050565b6000602082019050818103600083015261248e81846123ff565b905092915050565b600081905092915050565b7f6f70657261746f724f75747075745f0000000000000000000000000000000000600082015250565b60006124d7600f83612496565b91506124e2826124a1565b600f82019050919050565b60006124f882611c90565b6125028185612496565b9350612512818560208601611cac565b80840191505092915050565b6000612529826124ca565b915061253582846124ed565b915081905092915050565b7f4e487b7100000000000000000000000000000000000000000000000000000000600052601160045260246000fd5b600061257a82611f64565b915061258583611f64565b925082820190508082111561259d5761259c612540565b5b92915050565b7f636972637569745175657279486173685f000000000000000000000000000000600082015250565b60006125d9601183612496565b91506125e4826125a3565b601182019050919050565b60006125fa826125cc565b915061260682846124ed565b915081905092915050565b6000819050919050565b600067ffffffffffffffff82169050919050565b600061264a61264561264084612611565b611ec0565b61261b565b9050919050565b61265a8161262f565b82525050565b60006020820190506126756000830184612651565b92915050565b600061268782846124ed565b915081905092915050565b600061269d82611f64565b9150600082036126b0576126af612540565b5b600182039050919050565b600080fd5b600080fd5b600067ffffffffffffffff8211156126e0576126df611d4c565b5b602082029050602081019050919050565b6126fa81611f64565b811461270557600080fd5b50565b600081359050612717816126f1565b92915050565b600061273061272b846126c5565b611dac565b9050808382526020820190506020840283018581111561275357612752611f9d565b5b835b8181101561277c57806127688882612708565b845260208401935050602081019050612755565b5050509392505050565b600082601f83011261279b5761279a611d42565b5b81356127ab84826020860161271d565b91505092915050565b600067ffffffffffffffff8211156127cf576127ce611d4c565b5b602082029050602081019050919050565b60006127f36127ee846127b4565b611dac565b9050808382526020820190506020840283018581111561281657612815611f9d565b5b835b8181101561285d57803567ffffffffffffffff81111561283b5761283a611d42565b5b8086016128488982612786565b85526020850194505050602081019050612818565b5050509392505050565b600082601f83011261287c5761287b611d42565b5b813561288c8482602086016127e0565b91505092915050565b600067ffffffffffffffff8211156128b0576128af611d4c565b5b602082029050602081019050919050565b60006128d46128cf84612895565b611dac565b905080838252602082019050602084028301858111156128f7576128f6611f9d565b5b835b8181101561293e57803567ffffffffffffffff81111561291c5761291b611d42565b5b8086016129298982611e49565b855260208501945050506020810190506128f9565b5050509392505050565b600082601f83011261295d5761295c611d42565b5b813561296d8482602086016128c1565b91505092915050565b6000610100828403121561298d5761298c6126bb565b5b612998610100611dac565b9050600082013567ffffffffffffffff8111156129b8576129b76126c0565b5b6129c484828501612786565b600083015250602082013567ffffffffffffffff8111156129e8576129e76126c0565b5b6129f484828501612786565b602083015250604082013567ffffffffffffffff811115612a1857612a176126c0565b5b612a2484828501612786565b604083015250606082013567ffffffffffffffff811115612a4857612a476126c0565b5b612a5484828501612867565b606083015250608082013567ffffffffffffffff811115612a7857612a776126c0565b5b612a8484828501612786565b60808301525060a082013567ffffffffffffffff811115612aa857612aa76126c0565b5b612ab484828501612948565b60a08301525060c0612ac884828501612708565b60c08301525060e0612adc84828501612708565b60e08301525092915050565b600060208284031215612afe57612afd611b2d565b5b600082013567ffffffffffffffff811115612b1c57612b1b611b32565b5b612b2884828501612976565b91505092915050565b600067ffffffffffffffff821115612b4c57612b4b611d4c565b5b602082029050919050565b6000612b6a612b6584612b31565b611dac565b90508060208402830185811115612b8457612b83611f9d565b5b835b81811015612bad5780612b998882612708565b845260208401935050602081019050612b86565b5050509392505050565b600082601f830112612bcc57612bcb611d42565b5b6002612bd9848285612b57565b91505092915050565b600067ffffffffffffffff821115612bfd57612bfc611d4c565b5b602082029050919050565b6000612c1b612c1684612be2565b611dac565b90508060408402830185811115612c3557612c34611f9d565b5b835b81811015612c5e5780612c4a8882612bb7565b845260208401935050604081019050612c37565b5050509392505050565b600082601f830112612c7d57612c7c611d42565b5b6002612c8a848285612c08565b91505092915050565b6000806000806101208587031215612cae57612cad611b2d565b5b600085013567ffffffffffffffff811115612ccc57612ccb611b32565b5b612cd887828801612786565b9450506020612ce987828801612bb7565b9350506060612cfa87828801612c68565b92505060e0612d0b87828801612bb7565b91505092959194509250565b7f4e487b7100000000000000000000000000000000000000000000000000000000600052603260045260246000fd5b600060029050919050565b600081905092915050565b6000819050919050565b6000612d728383612137565b60208301905092915050565b6000602082019050919050565b612d9481612d46565b612d9e8184612d51565b9250612da982612d5c565b8060005b83811015612dda578151612dc18782612d66565b9650612dcc83612d7e565b925050600181019050612dad565b505050505050565b600060029050919050565b600081905092915050565b6000819050919050565b600081905092915050565b612e1681612d46565b612e208184612e02565b9250612e2b82612d5c565b8060005b83811015612e5c578151612e438782612d66565b9650612e4e83612d7e565b925050600181019050612e2f565b505050505050565b6000612e708383612e0d565b60408301905092915050565b6000602082019050919050565b612e9281612de2565b612e9c8184612ded565b9250612ea782612df8565b8060005b83811015612ed8578151612ebf8782612e64565b9650612eca83612e7c565b925050600181019050612eab565b505050505050565b600081519050919050565b600082825260208201905092915050565b6000819050602082019050919050565b6000602082019050919050565b6000612f2482612ee0565b612f2e8185612eeb565b9350612f3983612efc565b8060005b83811015612f6a578151612f518882612d66565b9750612f5c83612f0c565b925050600181019050612f3d565b5085935050505092915050565b600061012082019050612f8d6000830187612d8b565b612f9a6040830186612e89565b612fa760c0830185612d8b565b818103610100830152612fba8184612f19565b905095945050505050565b612fce81611bbc565b8114612fd957600080fd5b50565b600081519050612feb81612fc5565b92915050565b60006020828403121561300757613006611b2d565b5b600061301584828501612fdc565b91505092915050565b7f4e487b7100000000000000000000000000000000000000000000000000000000600052602260045260246000fd5b6000600282049050600182168061306557607f821691505b6020821081036130785761307761301e565b5b50919050565b60008190508160005260206000209050919050565b60006020601f8301049050919050565b600082821b905092915050565b6000600883026130e07fffffffffffffffffffffffffffffffffffffffffffffffffffffffffffffffff826130a3565b6130ea86836130a3565b95508019841693508086168417925050509392505050565b600061311d61311861311384611f64565b611ec0565b611f64565b9050919050565b6000819050919050565b61313783613102565b61314b61314382613124565b8484546130b0565b825550505050565b600090565b613160613153565b61316b81848461312e565b505050565b5b8181101561318f57613184600082613158565b600181019050613171565b5050565b601f8211156131d4576131a58161307e565b6131ae84613093565b810160208510156131bd578190505b6131d16131c985613093565b830182613170565b50505b505050565b600082821c905092915050565b60006131f7600019846008026131d9565b1980831691505092915050565b600061321083836131e6565b9150826002028217905092915050565b61322982611c90565b67ffffffffffffffff81111561324257613241611d4c565b5b61324c825461304d565b613257828285613193565b600060209050601f83116001811461328a5760008415613278578287015190505b6132828582613204565b8655506132ea565b601f1984166132988661307e565b60005b828110156132c05784890151825560018201915060208501945060208101905061329b565b868310156132dd57848901516132d9601f8916826131e6565b8355505b6001600288020188555050505b505050505050565b60006132fd82611f64565b91507fffffffffffffffffffffffffffffffffffffffffffffffffffffffffffffffff820361332f5761332e612540565b5b600182019050919050565b7f4e487b7100000000000000000000000000000000000000000000000000000000600052601260045260246000fd5b600060408201905061337e6000830185611f6e565b61338b6020830184611f6e565b939250505056fea26469706673582212204bf4360bb8d07edd331b09e1a974626136b2421a74063e3851136f70cbfaa90364736f6c634300081b0033",
  "linkReferences": {},
  "deployedLinkReferences": {}
}