{
  "_format": "hh3-artifact-1",
  "contractName": "UniversalVerifier",
  "sourceName": "contracts/verifiers/UniversalVerifier.sol",
  "abi": [
    {
      "inputs": [],
      "stateMutability": "nonpayable",
      "type": "constructor"
    },
    {
      "inputs": [
        {
          "internalType": "string",
          "name": "authMethod",
          "type": "string"
        }
      ],
      "name": "AuthMethodIsNotActive",
      "type": "error"
    },
    {
      "inputs": [],
      "name": "ChallengeIsInvalid",
      "type": "error"
    },
    {
      "inputs": [
        {
          "internalType": "uint256",
          "name": "length",
          "type": "uint256"
        }
      ],
      "name": "ChecksumLengthRequired",
      "type": "error"
    },
    {
      "inputs": [
        {
          "internalType": "uint256",
          "name": "length",
          "type": "uint256"
        }
      ],
      "name": "IdBytesLengthRequired",
      "type": "error"
    },
    {
      "inputs": [],
      "name": "InvalidInitialization",
      "type": "error"
    },
    {
      "inputs": [
        {
          "internalType": "address",
          "name": "requestOwner",
          "type": "address"
        },
        {
          "internalType": "address",
          "name": "sender",
          "type": "address"
        }
      ],
      "name": "InvalidRequestOwner",
      "type": "error"
    },
    {
      "inputs": [
        {
          "internalType": "uint256",
          "name": "requestId",
          "type": "uint256"
        }
      ],
      "name": "MissingUserIDInRequest",
      "type": "error"
    },
    {
      "inputs": [
        {
          "internalType": "uint256",
          "name": "multiRequestId",
          "type": "uint256"
        }
      ],
      "name": "MultiRequestIdAlreadyExists",
      "type": "error"
    },
    {
      "inputs": [
        {
          "internalType": "uint256",
          "name": "multiRequestId",
          "type": "uint256"
        }
      ],
      "name": "MultiRequestIdNotFound",
      "type": "error"
    },
    {
      "inputs": [],
      "name": "NoEmbeddedAuthInResponsesFound",
      "type": "error"
    },
    {
      "inputs": [
        {
          "internalType": "address",
          "name": "",
          "type": "address"
        }
      ],
      "name": "NotAnOwnerOrRequestOwner",
      "type": "error"
    },
    {
      "inputs": [],
      "name": "NotInitializing",
      "type": "error"
    },
    {
      "inputs": [
        {
          "internalType": "address",
          "name": "owner",
          "type": "address"
        }
      ],
      "name": "OwnableInvalidOwner",
      "type": "error"
    },
    {
      "inputs": [
        {
          "internalType": "address",
          "name": "account",
          "type": "address"
        }
      ],
      "name": "OwnableUnauthorizedAccount",
      "type": "error"
    },
    {
      "inputs": [
        {
          "internalType": "uint256",
          "name": "requestId",
          "type": "uint256"
        }
      ],
      "name": "RequestIdAlreadyExists",
      "type": "error"
    },
    {
      "inputs": [
        {
          "internalType": "uint256",
          "name": "requestId",
          "type": "uint256"
        }
      ],
      "name": "RequestIdNotFound",
      "type": "error"
    },
    {
      "inputs": [
        {
          "internalType": "uint256",
          "name": "requestId",
          "type": "uint256"
        }
      ],
      "name": "RequestIsDisabled",
      "type": "error"
    },
    {
      "inputs": [],
      "name": "UserNotAuthenticated",
      "type": "error"
    },
    {
      "inputs": [
        {
          "internalType": "address",
          "name": "validator",
          "type": "address"
        }
      ],
      "name": "ValidatorIsNotWhitelisted",
      "type": "error"
    },
    {
      "inputs": [
        {
          "internalType": "address",
          "name": "validator",
          "type": "address"
        }
      ],
      "name": "ValidatorNotSupportInterface",
      "type": "error"
    },
    {
      "anonymous": false,
      "inputs": [
        {
          "indexed": true,
          "internalType": "string",
          "name": "authMethod",
          "type": "string"
        },
        {
          "indexed": false,
          "internalType": "address",
          "name": "validator",
          "type": "address"
        },
        {
          "indexed": false,
          "internalType": "bytes",
          "name": "params",
          "type": "bytes"
        }
      ],
      "name": "AuthMethodSet",
      "type": "event"
    },
    {
      "anonymous": false,
      "inputs": [
        {
          "indexed": true,
          "internalType": "string",
          "name": "authMethod",
          "type": "string"
        },
        {
          "indexed": true,
          "internalType": "address",
          "name": "caller",
          "type": "address"
        }
      ],
      "name": "AuthResponseSubmitted",
      "type": "event"
    },
    {
      "anonymous": false,
      "inputs": [
        {
          "indexed": false,
          "internalType": "uint64",
          "name": "version",
          "type": "uint64"
        }
      ],
      "name": "Initialized",
      "type": "event"
    },
    {
      "anonymous": false,
      "inputs": [
        {
          "indexed": true,
          "internalType": "uint256",
          "name": "multiRequestId",
          "type": "uint256"
        },
        {
          "indexed": false,
          "internalType": "uint256[]",
          "name": "requestIds",
          "type": "uint256[]"
        },
        {
          "indexed": false,
          "internalType": "uint256[]",
          "name": "groupIds",
          "type": "uint256[]"
        }
      ],
      "name": "MultiRequestSet",
      "type": "event"
    },
    {
      "anonymous": false,
      "inputs": [
        {
          "indexed": true,
          "internalType": "address",
          "name": "previousOwner",
          "type": "address"
        },
        {
          "indexed": true,
          "internalType": "address",
          "name": "newOwner",
          "type": "address"
        }
      ],
      "name": "OwnershipTransferStarted",
      "type": "event"
    },
    {
      "anonymous": false,
      "inputs": [
        {
          "indexed": true,
          "internalType": "address",
          "name": "previousOwner",
          "type": "address"
        },
        {
          "indexed": true,
          "internalType": "address",
          "name": "newOwner",
          "type": "address"
        }
      ],
      "name": "OwnershipTransferred",
      "type": "event"
    },
    {
      "anonymous": false,
      "inputs": [
        {
          "indexed": true,
          "internalType": "uint256",
          "name": "requestId",
          "type": "uint256"
        },
        {
          "indexed": true,
          "internalType": "address",
          "name": "creator",
          "type": "address"
        },
        {
          "indexed": false,
          "internalType": "string",
          "name": "metadata",
          "type": "string"
        },
        {
          "indexed": false,
          "internalType": "address",
          "name": "validator",
          "type": "address"
        },
        {
          "indexed": false,
          "internalType": "bytes",
          "name": "params",
          "type": "bytes"
        }
      ],
      "name": "RequestSet",
      "type": "event"
    },
    {
      "anonymous": false,
      "inputs": [
        {
          "indexed": true,
          "internalType": "uint256",
          "name": "requestId",
          "type": "uint256"
        },
        {
          "indexed": true,
          "internalType": "address",
          "name": "creator",
          "type": "address"
        },
        {
          "indexed": false,
          "internalType": "string",
          "name": "metadata",
          "type": "string"
        },
        {
          "indexed": false,
          "internalType": "address",
          "name": "validator",
          "type": "address"
        },
        {
          "indexed": false,
          "internalType": "bytes",
          "name": "params",
          "type": "bytes"
        }
      ],
      "name": "RequestUpdate",
      "type": "event"
    },
    {
      "anonymous": false,
      "inputs": [
        {
          "indexed": true,
          "internalType": "uint256",
          "name": "requestId",
          "type": "uint256"
        },
        {
          "indexed": true,
          "internalType": "address",
          "name": "caller",
          "type": "address"
        }
      ],
      "name": "ResponseSubmitted",
      "type": "event"
    },
    {
      "inputs": [],
      "name": "VERSION",
      "outputs": [
        {
          "internalType": "string",
          "name": "",
          "type": "string"
        }
      ],
      "stateMutability": "view",
      "type": "function"
    },
    {
      "inputs": [],
      "name": "acceptOwnership",
      "outputs": [],
      "stateMutability": "nonpayable",
      "type": "function"
    },
    {
      "inputs": [
        {
          "internalType": "contract IRequestValidator",
          "name": "validator",
          "type": "address"
        }
      ],
      "name": "addValidatorToWhitelist",
      "outputs": [],
      "stateMutability": "nonpayable",
      "type": "function"
    },
    {
      "inputs": [
        {
          "internalType": "uint256",
          "name": "multiRequestId",
          "type": "uint256"
        },
        {
          "internalType": "address",
          "name": "userAddress",
          "type": "address"
        }
      ],
      "name": "areMultiRequestProofsVerified",
      "outputs": [
        {
          "internalType": "bool",
          "name": "",
          "type": "bool"
        }
      ],
      "stateMutability": "view",
      "type": "function"
    },
    {
      "inputs": [
        {
          "internalType": "string",
          "name": "authMethod",
          "type": "string"
        }
      ],
      "name": "authMethodExists",
      "outputs": [
        {
          "internalType": "bool",
          "name": "",
          "type": "bool"
        }
      ],
      "stateMutability": "view",
      "type": "function"
    },
    {
      "inputs": [
        {
          "internalType": "string",
          "name": "authMethod",
          "type": "string"
        }
      ],
      "name": "disableAuthMethod",
      "outputs": [],
      "stateMutability": "nonpayable",
      "type": "function"
    },
    {
      "inputs": [
        {
          "internalType": "uint256",
          "name": "requestId",
          "type": "uint256"
        }
      ],
      "name": "disableRequest",
      "outputs": [],
      "stateMutability": "nonpayable",
      "type": "function"
    },
    {
      "inputs": [
        {
          "internalType": "string",
          "name": "authMethod",
          "type": "string"
        }
      ],
      "name": "enableAuthMethod",
      "outputs": [],
      "stateMutability": "nonpayable",
      "type": "function"
    },
    {
      "inputs": [
        {
          "internalType": "uint256",
          "name": "requestId",
          "type": "uint256"
        }
      ],
      "name": "enableRequest",
      "outputs": [],
      "stateMutability": "nonpayable",
      "type": "function"
    },
    {
      "inputs": [
        {
          "internalType": "string",
          "name": "authMethod",
          "type": "string"
        }
      ],
      "name": "getAuthMethod",
      "outputs": [
        {
          "components": [
            {
              "internalType": "contract IAuthValidator",
              "name": "validator",
              "type": "address"
            },
            {
              "internalType": "bytes",
              "name": "params",
              "type": "bytes"
            },
            {
              "internalType": "bool",
              "name": "isActive",
              "type": "bool"
            }
          ],
          "internalType": "struct Verifier.AuthMethodData",
          "name": "authMethodData",
          "type": "tuple"
        }
      ],
      "stateMutability": "view",
      "type": "function"
    },
    {
      "inputs": [
        {
          "internalType": "uint256",
          "name": "groupID",
          "type": "uint256"
        }
      ],
      "name": "getGroupedRequests",
      "outputs": [
        {
          "components": [
            {
              "internalType": "uint256",
              "name": "requestId",
              "type": "uint256"
            },
            {
              "internalType": "string",
              "name": "metadata",
              "type": "string"
            },
            {
              "internalType": "contract IRequestValidator",
              "name": "validator",
              "type": "address"
            },
            {
              "internalType": "bytes",
              "name": "params",
              "type": "bytes"
            },
            {
              "internalType": "address",
              "name": "creator",
              "type": "address"
            }
          ],
          "internalType": "struct IVerifier.RequestInfo[]",
          "name": "",
          "type": "tuple[]"
        }
      ],
      "stateMutability": "view",
      "type": "function"
    },
    {
      "inputs": [],
      "name": "getGroupsCount",
      "outputs": [
        {
          "internalType": "uint256",
          "name": "",
          "type": "uint256"
        }
      ],
      "stateMutability": "view",
      "type": "function"
    },
    {
      "inputs": [
        {
          "internalType": "uint256",
          "name": "multiRequestId",
          "type": "uint256"
        }
      ],
      "name": "getMultiRequest",
      "outputs": [
        {
          "components": [
            {
              "internalType": "uint256",
              "name": "multiRequestId",
              "type": "uint256"
            },
            {
              "internalType": "uint256[]",
              "name": "requestIds",
              "type": "uint256[]"
            },
            {
              "internalType": "uint256[]",
              "name": "groupIds",
              "type": "uint256[]"
            },
            {
              "internalType": "bytes",
              "name": "metadata",
              "type": "bytes"
            }
          ],
          "internalType": "struct IVerifier.MultiRequest",
          "name": "multiRequest",
          "type": "tuple"
        }
      ],
      "stateMutability": "view",
      "type": "function"
    },
    {
      "inputs": [
        {
          "internalType": "uint256",
          "name": "multiRequestId",
          "type": "uint256"
        },
        {
          "internalType": "address",
          "name": "userAddress",
          "type": "address"
        }
      ],
      "name": "getMultiRequestProofsStatus",
      "outputs": [
        {
          "components": [
            {
              "internalType": "uint256",
              "name": "requestId",
              "type": "uint256"
            },
            {
              "internalType": "bool",
              "name": "isVerified",
              "type": "bool"
            },
            {
              "internalType": "string",
              "name": "validatorVersion",
              "type": "string"
            },
            {
              "internalType": "uint256",
              "name": "timestamp",
              "type": "uint256"
            }
          ],
          "internalType": "struct IVerifier.RequestProofStatus[]",
          "name": "",
          "type": "tuple[]"
        }
      ],
      "stateMutability": "view",
      "type": "function"
    },
    {
      "inputs": [
        {
          "internalType": "uint256",
          "name": "requestId",
          "type": "uint256"
        }
      ],
      "name": "getRequest",
      "outputs": [
        {
          "components": [
            {
              "internalType": "uint256",
              "name": "requestId",
              "type": "uint256"
            },
            {
              "internalType": "string",
              "name": "metadata",
              "type": "string"
            },
            {
              "internalType": "contract IRequestValidator",
              "name": "validator",
              "type": "address"
            },
            {
              "internalType": "bytes",
              "name": "params",
              "type": "bytes"
            },
            {
              "internalType": "address",
              "name": "creator",
              "type": "address"
            }
          ],
          "internalType": "struct IVerifier.RequestInfo",
          "name": "request",
          "type": "tuple"
        }
      ],
      "stateMutability": "view",
      "type": "function"
    },
    {
      "inputs": [
        {
          "internalType": "uint256",
          "name": "requestId",
          "type": "uint256"
        }
      ],
      "name": "getRequestOwner",
      "outputs": [
        {
          "internalType": "address",
          "name": "",
          "type": "address"
        }
      ],
      "stateMutability": "view",
      "type": "function"
    },
    {
      "inputs": [
        {
          "internalType": "address",
          "name": "sender",
          "type": "address"
        },
        {
          "internalType": "uint256",
          "name": "requestId",
          "type": "uint256"
        }
      ],
      "name": "getRequestProofStatus",
      "outputs": [
        {
          "components": [
            {
              "internalType": "uint256",
              "name": "requestId",
              "type": "uint256"
            },
            {
              "internalType": "bool",
              "name": "isVerified",
              "type": "bool"
            },
            {
              "internalType": "string",
              "name": "validatorVersion",
              "type": "string"
            },
            {
              "internalType": "uint256",
              "name": "timestamp",
              "type": "uint256"
            }
          ],
          "internalType": "struct IVerifier.RequestProofStatus",
          "name": "",
          "type": "tuple"
        }
      ],
      "stateMutability": "view",
      "type": "function"
    },
    {
      "inputs": [
        {
          "internalType": "uint256",
          "name": "userId",
          "type": "uint256"
        },
        {
          "internalType": "uint256",
          "name": "requestId",
          "type": "uint256"
        }
      ],
      "name": "getRequestProofStatusByUserId",
      "outputs": [
        {
          "components": [
            {
              "internalType": "uint256",
              "name": "requestId",
              "type": "uint256"
            },
            {
              "internalType": "bool",
              "name": "isVerified",
              "type": "bool"
            },
            {
              "internalType": "string",
              "name": "validatorVersion",
              "type": "string"
            },
            {
              "internalType": "uint256",
              "name": "timestamp",
              "type": "uint256"
            }
          ],
          "internalType": "struct IVerifier.RequestProofStatus",
          "name": "",
          "type": "tuple"
        }
      ],
      "stateMutability": "view",
      "type": "function"
    },
    {
      "inputs": [],
      "name": "getRequestsCount",
      "outputs": [
        {
          "internalType": "uint256",
          "name": "",
          "type": "uint256"
        }
      ],
      "stateMutability": "view",
      "type": "function"
    },
    {
      "inputs": [
        {
          "internalType": "uint256",
          "name": "requestId",
          "type": "uint256"
        },
        {
          "internalType": "address",
          "name": "sender",
          "type": "address"
        },
        {
          "internalType": "string",
          "name": "responseFieldName",
          "type": "string"
        }
      ],
      "name": "getResponseFieldValue",
      "outputs": [
        {
          "internalType": "uint256",
          "name": "",
          "type": "uint256"
        }
      ],
      "stateMutability": "view",
      "type": "function"
    },
    {
      "inputs": [
        {
          "internalType": "uint256",
          "name": "requestId",
          "type": "uint256"
        },
        {
          "internalType": "uint256",
          "name": "userId",
          "type": "uint256"
        },
        {
          "internalType": "string",
          "name": "responseFieldName",
          "type": "string"
        }
      ],
      "name": "getResponseFieldValueByUserId",
      "outputs": [
        {
          "internalType": "uint256",
          "name": "",
          "type": "uint256"
        }
      ],
      "stateMutability": "view",
      "type": "function"
    },
    {
      "inputs": [
        {
          "internalType": "uint256",
          "name": "requestId",
          "type": "uint256"
        },
        {
          "internalType": "address",
          "name": "sender",
          "type": "address"
        }
      ],
      "name": "getResponseFields",
      "outputs": [
        {
          "components": [
            {
              "internalType": "string",
              "name": "name",
              "type": "string"
            },
            {
              "internalType": "uint256",
              "name": "value",
              "type": "uint256"
            },
            {
              "internalType": "bytes",
              "name": "rawValue",
              "type": "bytes"
            }
          ],
          "internalType": "struct IRequestValidator.ResponseField[]",
          "name": "",
          "type": "tuple[]"
        }
      ],
      "stateMutability": "view",
      "type": "function"
    },
    {
      "inputs": [],
      "name": "getStateAddress",
      "outputs": [
        {
          "internalType": "address",
          "name": "",
          "type": "address"
        }
      ],
      "stateMutability": "view",
      "type": "function"
    },
    {
      "inputs": [],
      "name": "getVerifierID",
      "outputs": [
        {
          "internalType": "uint256",
          "name": "",
          "type": "uint256"
        }
      ],
      "stateMutability": "view",
      "type": "function"
    },
    {
      "inputs": [
        {
          "internalType": "uint256",
          "name": "groupId",
          "type": "uint256"
        }
      ],
      "name": "groupIdExists",
      "outputs": [
        {
          "internalType": "bool",
          "name": "",
          "type": "bool"
        }
      ],
      "stateMutability": "view",
      "type": "function"
    },
    {
      "inputs": [
        {
          "internalType": "contract IState",
          "name": "state",
          "type": "address"
        },
        {
          "internalType": "address",
          "name": "owner",
          "type": "address"
        }
      ],
      "name": "initialize",
      "outputs": [],
      "stateMutability": "nonpayable",
      "type": "function"
    },
    {
      "inputs": [
        {
          "internalType": "uint256",
          "name": "requestId",
          "type": "uint256"
        }
      ],
      "name": "isRequestEnabled",
      "outputs": [
        {
          "internalType": "bool",
          "name": "",
          "type": "bool"
        }
      ],
      "stateMutability": "view",
      "type": "function"
    },
    {
      "inputs": [
        {
          "internalType": "address",
          "name": "sender",
          "type": "address"
        },
        {
          "internalType": "uint256",
          "name": "requestId",
          "type": "uint256"
        }
      ],
      "name": "isRequestProofVerified",
      "outputs": [
        {
          "internalType": "bool",
          "name": "",
          "type": "bool"
        }
      ],
      "stateMutability": "view",
      "type": "function"
    },
    {
      "inputs": [
        {
          "internalType": "uint256",
          "name": "userId",
          "type": "uint256"
        },
        {
          "internalType": "uint256",
          "name": "requestId",
          "type": "uint256"
        }
      ],
      "name": "isRequestProofVerifiedByUserId",
      "outputs": [
        {
          "internalType": "bool",
          "name": "",
          "type": "bool"
        }
      ],
      "stateMutability": "view",
      "type": "function"
    },
    {
      "inputs": [
        {
          "internalType": "contract IRequestValidator",
          "name": "validator",
          "type": "address"
        }
      ],
      "name": "isWhitelistedValidator",
      "outputs": [
        {
          "internalType": "bool",
          "name": "",
          "type": "bool"
        }
      ],
      "stateMutability": "view",
      "type": "function"
    },
    {
      "inputs": [
        {
          "internalType": "uint256",
          "name": "multiRequestId",
          "type": "uint256"
        }
      ],
      "name": "multiRequestIdExists",
      "outputs": [
        {
          "internalType": "bool",
          "name": "",
          "type": "bool"
        }
      ],
      "stateMutability": "view",
      "type": "function"
    },
    {
      "inputs": [],
      "name": "owner",
      "outputs": [
        {
          "internalType": "address",
          "name": "",
          "type": "address"
        }
      ],
      "stateMutability": "view",
      "type": "function"
    },
    {
      "inputs": [],
      "name": "pendingOwner",
      "outputs": [
        {
          "internalType": "address",
          "name": "",
          "type": "address"
        }
      ],
      "stateMutability": "view",
      "type": "function"
    },
    {
      "inputs": [
        {
          "internalType": "contract IRequestValidator",
          "name": "validator",
          "type": "address"
        }
      ],
      "name": "removeValidatorFromWhitelist",
      "outputs": [],
      "stateMutability": "nonpayable",
      "type": "function"
    },
    {
      "inputs": [],
      "name": "renounceOwnership",
      "outputs": [],
      "stateMutability": "nonpayable",
      "type": "function"
    },
    {
      "inputs": [
        {
          "internalType": "uint256",
          "name": "requestId",
          "type": "uint256"
        }
      ],
      "name": "requestIdExists",
      "outputs": [
        {
          "internalType": "bool",
          "name": "",
          "type": "bool"
        }
      ],
      "stateMutability": "view",
      "type": "function"
    },
    {
      "inputs": [
        {
          "components": [
            {
              "internalType": "string",
              "name": "authMethod",
              "type": "string"
            },
            {
              "internalType": "contract IAuthValidator",
              "name": "validator",
              "type": "address"
            },
            {
              "internalType": "bytes",
              "name": "params",
              "type": "bytes"
            }
          ],
          "internalType": "struct IVerifier.AuthMethod",
          "name": "authMethod",
          "type": "tuple"
        }
      ],
      "name": "setAuthMethod",
      "outputs": [],
      "stateMutability": "nonpayable",
      "type": "function"
    },
    {
      "inputs": [
        {
          "components": [
            {
              "internalType": "uint256",
              "name": "multiRequestId",
              "type": "uint256"
            },
            {
              "internalType": "uint256[]",
              "name": "requestIds",
              "type": "uint256[]"
            },
            {
              "internalType": "uint256[]",
              "name": "groupIds",
              "type": "uint256[]"
            },
            {
              "internalType": "bytes",
              "name": "metadata",
              "type": "bytes"
            }
          ],
          "internalType": "struct IVerifier.MultiRequest",
          "name": "multiRequest",
          "type": "tuple"
        }
      ],
      "name": "setMultiRequest",
      "outputs": [],
      "stateMutability": "nonpayable",
      "type": "function"
    },
    {
      "inputs": [
        {
          "internalType": "uint256",
          "name": "requestId",
          "type": "uint256"
        },
        {
          "internalType": "address",
          "name": "requestOwner",
          "type": "address"
        }
      ],
      "name": "setRequestOwner",
      "outputs": [],
      "stateMutability": "nonpayable",
      "type": "function"
    },
    {
      "inputs": [
        {
          "components": [
            {
              "internalType": "uint256",
              "name": "requestId",
              "type": "uint256"
            },
            {
              "internalType": "string",
              "name": "metadata",
              "type": "string"
            },
            {
              "internalType": "contract IRequestValidator",
              "name": "validator",
              "type": "address"
            },
            {
              "internalType": "bytes",
              "name": "params",
              "type": "bytes"
            },
            {
              "internalType": "address",
              "name": "creator",
              "type": "address"
            }
          ],
          "internalType": "struct IVerifier.Request[]",
          "name": "requests",
          "type": "tuple[]"
        }
      ],
      "name": "setRequests",
      "outputs": [],
      "stateMutability": "nonpayable",
      "type": "function"
    },
    {
      "inputs": [
        {
          "internalType": "contract IState",
          "name": "state",
          "type": "address"
        }
      ],
      "name": "setState",
      "outputs": [],
      "stateMutability": "nonpayable",
      "type": "function"
    },
    {
      "inputs": [
        {
          "internalType": "uint256",
          "name": "verifierID",
          "type": "uint256"
        }
      ],
      "name": "setVerifierID",
      "outputs": [],
      "stateMutability": "nonpayable",
      "type": "function"
    },
    {
      "inputs": [
        {
          "components": [
            {
              "internalType": "string",
              "name": "authMethod",
              "type": "string"
            },
            {
              "internalType": "bytes",
              "name": "proof",
              "type": "bytes"
            }
          ],
          "internalType": "struct IVerifier.AuthResponse",
          "name": "authResponse",
          "type": "tuple"
        },
        {
          "components": [
            {
              "internalType": "uint256",
              "name": "requestId",
              "type": "uint256"
            },
            {
              "internalType": "bytes",
              "name": "proof",
              "type": "bytes"
            },
            {
              "internalType": "bytes",
              "name": "metadata",
              "type": "bytes"
            }
          ],
          "internalType": "struct IVerifier.Response[]",
          "name": "responses",
          "type": "tuple[]"
        },
        {
          "internalType": "bytes",
          "name": "crossChainProofs",
          "type": "bytes"
        }
      ],
      "name": "submitResponse",
      "outputs": [],
      "stateMutability": "nonpayable",
      "type": "function"
    },
    {
      "inputs": [
        {
          "internalType": "address",
          "name": "newOwner",
          "type": "address"
        }
      ],
      "name": "transferOwnership",
      "outputs": [],
      "stateMutability": "nonpayable",
      "type": "function"
    },
    {
      "inputs": [
        {
          "components": [
            {
              "internalType": "uint256",
              "name": "requestId",
              "type": "uint256"
            },
            {
              "internalType": "string",
              "name": "metadata",
              "type": "string"
            },
            {
              "internalType": "contract IRequestValidator",
              "name": "validator",
              "type": "address"
            },
            {
              "internalType": "bytes",
              "name": "params",
              "type": "bytes"
            },
            {
              "internalType": "address",
              "name": "creator",
              "type": "address"
            }
          ],
          "internalType": "struct IVerifier.Request",
          "name": "request",
          "type": "tuple"
        }
      ],
      "name": "updateRequest",
      "outputs": [],
      "stateMutability": "nonpayable",
      "type": "function"
    },
    {
      "inputs": [],
      "name": "version",
      "outputs": [
        {
          "internalType": "string",
          "name": "",
          "type": "string"
        }
      ],
      "stateMutability": "pure",
      "type": "function"
    }
  ],
  "bytecode": "0x6080604052348015600e575f5ffd5b5060156019565b60c9565b7ff0c57e16840df040f15088dc2f81fe391c3923bec73e23a9662efc9c229c6a00805468010000000000000000900460ff161560685760405163f92ee8a960e01b815260040160405180910390fd5b80546001600160401b039081161460c65780546001600160401b0319166001600160401b0390811782556040519081527fc7f505b2f371ae2175ee4913f4499e1f2633a7b5936321eed1cdaeb6115181d29060200160405180910390a15b50565b614a3d806100d65f395ff3fe608060405234801561000f575f5ffd5b5060043610610263575f3560e01c80638611cb6711610147578063c087b0d4116100ca578063e855560311610084578063e855560314610591578063f1fd9964146105a4578063f2e27c68146105c4578063f2fde38b146105e4578063fd8a8d7d146105f7578063ffa1ad741461060a575f5ffd5b8063c087b0d41461051d578063c58343ef14610530578063cea0607f14610550578063d4d9f76614610563578063e1470f9a14610576578063e30c397814610589575f5ffd5b80638611cb671461046d5780638da5cb5b1461048057806391ee1e85146104885780639b36d0361461049b578063a0366644146104ae578063ad9d21e7146104c1578063b208eae8146104d4578063b33a998f146104dc578063b84afbb4146104ef578063bbd8b7a1146104f7578063bfcbcc311461050a575f5ffd5b8063485cc955116101e957806379ba5097116101a357806379ba5097146103f95780637ad8dc61146104015780637b8f6d37146104145780637bc499e5146104275780637c7a9a5c1461043a578063829b3ae11461044d575f5ffd5b8063485cc9551461036e57806354fd4d501461038157806359f871a1146103ab578063617879fe146103be578063715018a6146103d1578063751adcd2146103d9575f5ffd5b806306c86a91146102675780630f12a2411461027c5780631cf5cf24146102a457806326caf429146102b757806330837e06146102d757806331969e57146102f75780633410452a1461030c57806334c901af146103225780633ef74cdc146103355780634288c7ae1461034857806347861fe21461035b575b5f5ffd5b61027a610275366004613227565b61062e565b005b61028f61028a36600461330f565b6106e1565b60405190151581526020015b60405180910390f35b61027a6102b2366004613326565b610733565b6102ca6102c5366004613392565b610749565b60405161029b919061341e565b6102ea6102e536600461330f565b610839565b60405161029b9190613498565b6102ff6108cb565b60405161029b91906134fb565b6103146108e6565b60405190815260200161029b565b61027a610330366004613523565b6108f8565b61028f610343366004613392565b61090c565b61028f61035636600461330f565b610963565b61027a61036936600461330f565b6109ec565b61027a61037c36600461353e565b610a5f565b6040805180820190915260058152640332e302e360dc1b60208201525b60405161029b9190613575565b61027a6103b9366004613523565b610b60565b61027a6103cc366004613523565b610b71565b61027a610b82565b6103ec6103e7366004613326565b610b95565b60405161029b9190613587565b61027a610c4c565b61027a61040f3660046135cc565b610c88565b61028f61042236600461330f565b610cf7565b61027a6104353660046135ef565b610d1a565b61027a610448366004613326565b610daa565b61046061045b3660046135cc565b610dbc565b60405161029b9190613625565b6102ff61047b36600461330f565b610e41565b6102ff610eaa565b6103146104963660046136ad565b610ede565b61028f6104a9366004613523565b610f6a565b61027a6104bc3660046136e2565b610f94565b6102ca6104cf366004613718565b611027565b6103146110d9565b61027a6104ea36600461330f565b6110eb565b610314611159565b61028f610505366004613742565b61116b565b610314610518366004613773565b6111ac565b61027a61052b36600461330f565b6111f1565b61054361053e36600461330f565b611202565b60405161029b91906137b1565b61028f61055e36600461330f565b6112cd565b61028f6105713660046135cc565b6112f0565b61027a6105843660046137c3565b611372565b6102ff6113fe565b61028f61059f366004613718565b611408565b6105b76105b23660046135cc565b611467565b60405161029b91906137f9565b6105d76105d236600461330f565b6114ec565b60405161029b919061388a565b61027a6105f2366004613523565b6115a0565b61027a6106053660046138ea565b611610565b61039e604051806040016040528060058152602001640332e302e360dc1b81525081565b6106398383836118c3565b8251604051339161064991613949565b604051908190038120907f16eed29a4411d6f696189e32f94cb87b6e2817e1aa0b9821f6d53191cfb5de77905f90a35f5b82518110156106db57336001600160a01b031683828151811061069f5761069f61395f565b6020908102919091010151516040517fd34a91eddebc3a46f0193e4f54124f90bd00de34c64b5407562def103949d006905f90a360010161067a565b50505050565b5f8160016106ee82610cf7565b61071357604051633f88e60160e21b8152600481018390526024015b60405180910390fd5b61071b611abc565b5f948552602052505060409091205460ff1615919050565b61073b611ae0565b6107458282611b12565b5050565b61077360405180608001604052805f81526020015f15158152602001606081526020015f81525090565b81600161077f82610cf7565b61079f57604051633f88e60160e21b81526004810183905260240161070a565b73__$d2599e109c742dae4a17bdb44d987f9922$__638f6174d36107c1611b84565b6040516001600160e01b031960e084901b168152600481019190915260248101889052604481018790526064015b5f60405180830381865af4158015610809573d5f5f3e3d5ffd5b505050506040513d5f823e601f3d908101601f191682016040526108309190810190613a41565b95945050505050565b606073__$d2599e109c742dae4a17bdb44d987f9922$__636b365dd361085d611b84565b846040518363ffffffff1660e01b8152600401610884929190918252602082015260400190565b5f60405180830381865af415801561089e573d5f5f3e3d5ffd5b505050506040513d5f823e601f3d908101601f191682016040526108c59190810190613b11565b92915050565b5f6108d4611b84565b600301546001600160a01b0316919050565b5f6108ef611b84565b60020154919050565b610900611ae0565b61090981611ba8565b50565b5f81600161091982610cf7565b61093957604051633f88e60160e21b81526004810183905260240161070a565b610941611b84565b5f948552600c0160209081526040808620968652959052505050205460ff1690565b5f73__$d2599e109c742dae4a17bdb44d987f9922$__635747df3d610986611b84565b846040518363ffffffff1660e01b81526004016109ad929190918252602082015260400190565b602060405180830381865af41580156109c8573d5f5f3e3d5ffd5b505050506040513d601f19601f820116820180604052508101906108c59190613bc0565b80336109f782610e41565b6001600160a01b0316816001600160a01b031614158015610a315750610a1b610eaa565b6001600160a01b0316816001600160a01b031614155b15610a51578060405163527cade160e11b815260040161070a91906134fb565b610a5a83611bd5565b505050565b5f610a68611c2a565b805490915060ff600160401b82041615906001600160401b03165f81158015610a8e5750825b90505f826001600160401b03166001148015610aa95750303b155b905081158015610ab7575080155b15610ad55760405163f92ee8a960e01b815260040160405180910390fd5b845467ffffffffffffffff191660011785558315610aff57845460ff60401b1916600160401b1785555b610b0886611c52565b610b1187611c63565b8315610b5757845460ff60401b19168555604051600181527fc7f505b2f371ae2175ee4913f4499e1f2633a7b5936321eed1cdaeb6115181d29060200160405180910390a15b50505050505050565b610b68611ae0565b61090981611c74565b610b79611ae0565b61090981611d36565b610b8a611ae0565b610b935f611d3f565b565b610bc260405180606001604052805f6001600160a01b03168152602001606081526020015f151581525090565b73__$d2599e109c742dae4a17bdb44d987f9922$__63c2fba8e0610be4611b84565b85856040518463ffffffff1660e01b8152600401610c0493929190613c01565b5f60405180830381865af4158015610c1e573d5f5f3e3d5ffd5b505050506040513d5f823e601f3d908101601f19168201604052610c459190810190613c1a565b9392505050565b3380610c566113fe565b6001600160a01b031614610c7f578060405163118cdaa760e01b815260040161070a91906134fb565b61090981611d3f565b8133610c9382610e41565b6001600160a01b0316816001600160a01b031614158015610ccd5750610cb7610eaa565b6001600160a01b0316816001600160a01b031614155b15610ced578060405163527cade160e11b815260040161070a91906134fb565b6106db8484611d61565b5f73__$d2599e109c742dae4a17bdb44d987f9922$__6304ade6d7610986611b84565b80355f610d26826112cd565b15610d475760405163ac1e4c7760e01b81526004810183905260240161070a565b610d5083611dde565b82357f3f79cffed6655f27556642061782f30ad1196bf040a8de80eee5d526da9d0bc5610d806020860186613ca8565b610d8d6040880188613ca8565b604051610d9d9493929190613d24565b60405180910390a2505050565b610db2611ae0565b6107458282611e4f565b606073__$d2599e109c742dae4a17bdb44d987f9922$__63fd3ef47f610de0611b84565b85856040518463ffffffff1660e01b8152600401610e0093929190613d55565b5f60405180830381865af4158015610e1a573d5f5f3e3d5ffd5b505050506040513d5f823e601f3d908101601f19168201604052610c459190810190613d74565b5f816001610e4e82610cf7565b610e6e57604051633f88e60160e21b81526004810183905260240161070a565b5050505f9081527f6209bdc3799f5201408f7a7d4d471bb2a0100353e618451674b93f730b006a0060205260409020546001600160a01b031690565b5f807f9016d09d72d40fdae2fd8ceac6b6234c7706214fd39c1cd1e609a0528c1993005b546001600160a01b031692915050565b5f73__$d2599e109c742dae4a17bdb44d987f9922$__63a5971389610f01611b84565b8686866040518563ffffffff1660e01b8152600401610f239493929190613e87565b602060405180830381865af4158015610f3e573d5f5f3e3d5ffd5b505050506040513d601f19601f82011682018060405250810190610f629190613eab565b949350505050565b5f610f73611e71565b6001600160a01b039092165f90815260209290925250604090205460ff1690565b610f9c611ae0565b610fa581611e95565b610fb560a0820160808301613523565b6001600160a01b031681357f2f517356721b15606e3bdde8939a6e814c9becc2fcef57d1c631893360c85736610fee6020850185613ec2565b610ffe6060870160408801613523565b61100b6060880188613ec2565b60405161101c959493929190613f04565b60405180910390a350565b61105160405180608001604052805f81526020015f15158152602001606081526020015f81525090565b81600161105d82610cf7565b61107d57604051633f88e60160e21b81526004810183905260240161070a565b73__$d2599e109c742dae4a17bdb44d987f9922$__63bd4f4f5c61109f611b84565b6040516001600160e01b031960e084901b16815260048101919091526001600160a01b0388166024820152604481018790526064016107ef565b5f6110e2611b84565b600b0154905090565b80336110f682610e41565b6001600160a01b0316816001600160a01b031614158015611130575061111a610eaa565b6001600160a01b0316816001600160a01b031614155b15611150578060405163527cade160e11b815260040161070a91906134fb565b610a5a8361202a565b5f611162611b84565b60050154919050565b5f73__$d2599e109c742dae4a17bdb44d987f9922$__636d86f1fc61118e611b84565b846040518363ffffffff1660e01b81526004016109ad929190613f45565b5f73__$d2599e109c742dae4a17bdb44d987f9922$__63cd9800df6111cf611b84565b8686866040518563ffffffff1660e01b8152600401610f239493929190613f5d565b6111f9611ae0565b61090981612060565b6112436040518060a001604052805f8152602001606081526020015f6001600160a01b03168152602001606081526020015f6001600160a01b031681525090565b73__$d2599e109c742dae4a17bdb44d987f9922$__633397a11e611265611b84565b846040518363ffffffff1660e01b815260040161128c929190918252602082015260400190565b5f60405180830381865af41580156112a6573d5f5f3e3d5ffd5b505050506040513d5f823e601f3d908101601f191682016040526108c59190810190613f89565b5f73__$d2599e109c742dae4a17bdb44d987f9922$__6333961c08610986611b84565b5f73__$d2599e109c742dae4a17bdb44d987f9922$__63b39ceffb611313611b84565b85856040518463ffffffff1660e01b815260040161133393929190613d55565b602060405180830381865af415801561134e573d5f5f3e3d5ffd5b505050506040513d601f19601f82011682018060405250810190610c459190613bc0565b61137a611ae0565b61138381612073565b61138d8180613ec2565b60405161139b929190613fba565b60405180910390207ff9782ba766756e9c6ca90d64bfd1978844530aae1eab911d4630ffc1720e15e28260200160208101906113d79190613523565b6113e46040850185613ec2565b6040516113f393929190613fc9565b60405180910390a250565b5f5f610ece6120b3565b5f81600161141582610cf7565b61143557604051633f88e60160e21b81526004810183905260240161070a565b61143d611b84565b5f948552602090815260408086206001600160a01b03979097168652959052505050205460ff1690565b606073__$d2599e109c742dae4a17bdb44d987f9922$__6339048d3361148b611b84565b85856040518463ffffffff1660e01b81526004016114ab93929190613d55565b5f60405180830381865af41580156114c5573d5f5f3e3d5ffd5b505050506040513d5f823e601f3d908101601f19168201604052610c459190810190613fed565b61151660405180608001604052805f81526020016060815260200160608152602001606081525090565b73__$d2599e109c742dae4a17bdb44d987f9922$__63152dd00b611538611b84565b846040518363ffffffff1660e01b815260040161155f929190918252602082015260400190565b5f60405180830381865af4158015611579573d5f5f3e3d5ffd5b505050506040513d5f823e601f3d908101601f191682016040526108c591908101906140ec565b6115a8611ae0565b5f6115b16120b3565b80546001600160a01b0319166001600160a01b03841690811782559091506115d7610eaa565b6001600160a01b03167f38d16b8cac22d99fc7c124b9cd0de2d3fa1faef420bfe791d8c362d765e2270060405160405180910390a35050565b5f611619611b84565b604051631879dc0f60e11b815290915073__$d2599e109c742dae4a17bdb44d987f9922$__906330f3b81e9061165790849087908790600401614287565b5f6040518083038186803b15801561166d575f5ffd5b505af415801561167f573d5f5f3e3d5ffd5b505f925050505b828110156106db5773__$d2599e109c742dae4a17bdb44d987f9922$__6307568de38585848181106116ba576116ba61395f565b90506020028101906116cc9190614304565b358686858181106116df576116df61395f565b90506020028101906116f19190614304565b6116ff906060810190613ec2565b8888878181106117115761171161395f565b90506020028101906117239190614304565b6117349060a0810190608001613523565b6040518563ffffffff1660e01b81526004016117539493929190614322565b5f6040518083038186803b158015611769575f5ffd5b505af415801561177b573d5f5f3e3d5ffd5b5050505073__$d2599e109c742dae4a17bdb44d987f9922$__630507338e838686858181106117ac576117ac61395f565b90506020028101906117be9190614304565b6040518363ffffffff1660e01b81526004016117db929190614354565b5f6040518083038186803b1580156117f1575f5ffd5b505af4158015611803573d5f5f3e3d5ffd5b5050505073__$d2599e109c742dae4a17bdb44d987f9922$__6311bdf5cd838686858181106118345761183461395f565b90506020028101906118469190614304565b6040518363ffffffff1660e01b8152600401611863929190614354565b5f6040518083038186803b158015611879575f5ffd5b505af415801561188b573d5f5f3e3d5ffd5b505050506118bb8484838181106118a4576118a461395f565b90506020028101906118b69190614304565b6120d7565b600101611686565b5f6118cc611b84565b90505f336003830154604051630e28d24b60e41b81529192506001600160a01b03169063e28d24b090611903908690600401613575565b5f604051808303815f87803b15801561191a575f5ffd5b505af115801561192c573d5f5f3e3d5ffd5b505086516040515f9350839250600986019161194791613949565b908152604051908190036020019020600281015490915060ff1661198157865160405163aed43dab60e01b815261070a9190600401613575565b86516040515f9161199491602001613949565b6040516020818303038152906040528051906020012090507f1705b65020b03c348229586d10f18c357cefe577bcef3ed60fad6ecd16db04ce5f1b8114611aa657604080516060810190915282546001600160a01b03168152600183018054611aa3928b92909186916020840191611a0b9061436c565b80601f0160208091040260200160405190810160405280929190818152602001828054611a379061436c565b8015611a825780601f10611a5957610100808354040283529160200191611a82565b820191905f5260205f20905b815481529060010190602001808311611a6557829003601f168201915b50505091835250506002919091015460ff1615156020909101528987612129565b92505b611ab2878585846123be565b5050505050505050565b7f70325635d67d74932012fa921ccb2f335d3b1d69e3a487f50d001cc65f53160090565b33611ae9610eaa565b6001600160a01b031614610b93573360405163118cdaa760e01b815260040161070a91906134fb565b73__$d2599e109c742dae4a17bdb44d987f9922$__636ae9427c611b34611b84565b84846040518463ffffffff1660e01b8152600401611b5493929190613c01565b5f6040518083038186803b158015611b6a575f5ffd5b505af4158015611b7c573d5f5f3e3d5ffd5b505050505050565b7f11369addde4aae8af30dcf56fa25ad3d864848d3201d1e9197f8b4da18a51a0090565b80611bb1611b84565b60030180546001600160a01b0319166001600160a01b039290921691909117905550565b806001611be182610cf7565b611c0157604051633f88e60160e21b81526004810183905260240161070a565b5f611c0a611abc565b5f9485526020526040909320805460ff1916931515939093179092555050565b5f807ff0c57e16840df040f15088dc2f81fe391c3923bec73e23a9662efc9c229c6a006108c5565b611c5a61266f565b61090981612694565b611c6b61266f565b610909816126c5565b6040516301ffc9a760e01b815263d125cf2d60e01b60048201526001600160a01b038216906301ffc9a790602401602060405180830381865afa158015611cbd573d5f5f3e3d5ffd5b505050506040513d601f19601f82011682018060405250810190611ce19190613bc0565b611d00578060405163019d170160e01b815260040161070a91906134fb565b6001611d0a611e71565b6001600160a01b03929092165f9081526020929092526040909120805460ff1916911515919091179055565b5f611d0a611e71565b5f611d486120b3565b80546001600160a01b03191681559050610745826126f1565b816001611d6d82610cf7565b611d8d57604051633f88e60160e21b81526004810183905260240161070a565b5f7f6209bdc3799f5201408f7a7d4d471bb2a0100353e618451674b93f730b006a005f9586526020525050604090922080546001600160a01b0319166001600160a01b039290921691909117905550565b73__$d2599e109c742dae4a17bdb44d987f9922$__6368957bf2611e00611b84565b83336040518463ffffffff1660e01b8152600401611e20939291906143e2565b5f6040518083038186803b158015611e36575f5ffd5b505af4158015611e48573d5f5f3e3d5ffd5b5050505050565b73__$d2599e109c742dae4a17bdb44d987f9922$__63c6b876bc611b34611b84565b7f76aa24e3538905838cc74060b2aa4c054b1e474aacf44741879e1850715e930090565b80356001611ea282610cf7565b611ec257604051633f88e60160e21b81526004810183905260240161070a565b5f611ecb611b84565b90506040518060800160405280858060200190611ee89190613ec2565b8080601f0160208091040260200160405190810160405280939291908181526020018383808284375f92019190915250505090825250602001611f316060870160408801613523565b6001600160a01b03168152602001611f4c6060870187613ec2565b8080601f0160208091040260200160405190810160405280939291908181526020018383808284375f92019190915250505090825250602001611f9560a0870160808801613523565b6001600160a01b0316905284355f908152600183016020526040902081518190611fbf90826144c8565b5060208201516001820180546001600160a01b0319166001600160a01b0390921691909117905560408201516002820190611ffa90826144c8565b5060609190910151600390910180546001600160a01b0319166001600160a01b0390921691909117905550505050565b80600161203682610cf7565b61205657604051633f88e60160e21b81526004810183905260240161070a565b6001611c0a611abc565b5f612069611b84565b600b019190915550565b73__$d2599e109c742dae4a17bdb44d987f9922$__6393058e98612095611b84565b836040518363ffffffff1660e01b8152600401611e20929190614582565b7f237e158222e3e6968b72b9db0d8043aacf074ad9f650f0d1606b4d82ee432c0090565b6120e081612761565b6120f060a0820160808301613523565b6001600160a01b031681357f6c42013d79e93b13536220e027462dfb104def77ecb0a75ffbe92e853fc7cf09610fee6020850185613ec2565b5f60605f5f9050855f01516001600160a01b0316635ade663385896020015189602001516040518463ffffffff1660e01b815260040161216b939291906145ef565b5f604051808303815f875af1158015612186573d5f5f3e3d5ffd5b505050506040513d5f823e601f3d908101601f191682016040526121ad9190810190614624565b88516040519194509192507f380ee2d21c7a4607d113dad9e76a0bc90f5325a136d5f0e14b6ccf849d948e25916121e691602001613949565b60405160208183030381529060405280519060200120148061224e575086516040517f5efa95d0461bb0b5765628b227502115d7b3ead89ff9fffbb66b8fee0fec35989161223691602001613949565b60405160208183030381529060405280519060200120145b8061229f575086516040517f4b41d5f4907f760cdf3afde7c8d6a99e928dcddade8bec79a65c940565bc87469161228791602001613949565b60405160208183030381529060405280519060200120145b15612394575f825111801561231757507f62357b294ca756256b576c5da68950c49d0d1823063551ffdcc1dad9d65a07a65f1b825f815181106122e4576122e461395f565b60200260200101515f01516040516020016122ff9190613949565b60405160208183030381529060405280519060200120145b15612394575f8486604051602001612330929190614726565b604051602081830303815290604052805190602001206001600160fc1b035f1b169050825f815181106123655761236561395f565b6020026020010151602001515f1b8114612392576040516316fc17ad60e21b815260040160405180910390fd5b505b805f036123b457604051632fe2fd3f60e11b815260040160405180910390fd5b9695505050505050565b5f5b8451811015611e48575f8582815181106123dc576123dc61395f565b602002602001015190505f6123f3825f01516127a5565b600181015460208401516040808601519051636cfcf5cd60e11b81529394505f936001600160a01b039093169263d9f9eb9a9261243a928c926002890191906004016147c9565b5f604051808303815f875af1158015612455573d5f5f3e3d5ffd5b505050506040513d5f823e601f3d908101601f1916820160405261247c9190810190613d74565b90507fe8fa49afdf4fc3cb7dd6a792ef0e73ca83101a884310c129f0529132e924fb3285016125f0575f5f73__$d2599e109c742dae4a17bdb44d987f9922$__63b67a8031846040518263ffffffff1660e01b81526004016124de919061490a565b6040805180830381865af41580156124f8573d5f5f3e3d5ffd5b505050506040513d601f19601f8201168201806040525081019061251c919061491c565b9150915081156125c75780600114612547576040516338d5e0ad60e01b815260040160405180910390fd5b875f036125c75760405163486dc4f760e11b815273__$d2599e109c742dae4a17bdb44d987f9922$__906390db89ee9061258590869060040161490a565b602060405180830381865af41580156125a0573d5f5f3e3d5ffd5b505050506040513d601f19601f820116820180604052508101906125c49190613eab565b97505b875f036125ed578451604051637a84338160e11b8152600481019190915260240161070a565b50505b60405163f03de28760e01b815273__$d2599e109c742dae4a17bdb44d987f9922$__9063f03de287906126299089908590600401614946565b5f6040518083038186803b15801561263f575f5ffd5b505af4158015612651573d5f5f3e3d5ffd5b50505050612664835f01518888846127af565b5050506001016123c0565b61267761281d565b610b9357604051631afcd79f60e31b815260040160405180910390fd5b61269c61266f565b6001600160a01b038116610c7f575f604051631e4fbdf760e01b815260040161070a91906134fb565b6126cd61266f565b6126d681611ba8565b5f6126e66101a160f01b30612836565b905061074581612060565b7f9016d09d72d40fdae2fd8ceac6b6234c7706214fd39c1cd1e609a0528c19930080546001600160a01b031981166001600160a01b03848116918217845560405192169182907f8be0079c531659141344cd1fd0a4f28419497f9722a3daafe3b4186f6b6457e0905f90a3505050565b5f6127726060830160408401613523565b905061277d81610f6a565b61279c578060405163652e158d60e01b815260040161070a91906134fb565b61074582612853565b5f6108c582612867565b73__$d2599e109c742dae4a17bdb44d987f9922$__637e8327906127d1611b84565b868686866040518663ffffffff1660e01b81526004016127f595949392919061495e565b5f6040518083038186803b15801561280b575f5ffd5b505af4158015611ab2573d5f5f3e3d5ffd5b5f612826611c2a565b54600160401b900460ff16919050565b5f6001600160a01b038216610f628461284e836128af565b6129f0565b61285c81612af3565b610909813533611d61565b5f61287182611202565b6040015161287e81610f6a565b61289d578060405163652e158d60e01b815260040161070a91906134fb565b6128a683612c91565b91505b50919050565b5f8190506008817eff00ff00ff00ff00ff00ff00ff00ff00ff00ff00ff00ff00ff00ff00ff00ff16901b6008827fff00ff00ff00ff00ff00ff00ff00ff00ff00ff00ff00ff00ff00ff00ff00ff0016901c1790506010817dffff0000ffff0000ffff0000ffff0000ffff0000ffff0000ffff0000ffff16901b6010827fffff0000ffff0000ffff0000ffff0000ffff0000ffff0000ffff0000ffff000016901c1790506020817bffffffff00000000ffffffff00000000ffffffff00000000ffffffff16901b6020827bffffffff00000000ffffffff00000000ffffffff00000000ffffffff1916901c17905060408177ffffffffffffffff0000000000000000ffffffffffffffff16901b60408277ffffffffffffffff0000000000000000ffffffffffffffff1916901c179050608081901b608082901c179050919050565b5f5f612a036129fe846128af565b612cc5565b90505f612a1f82601b8451612a1891906149a4565b601b612cef565b6040516001600160f01b0319871660208201529091505f90612a539060220160405160208183030381529060405283612cfc565b90505f612a76612a6283612d08565b600881811b62ffff001691901c60ff161790565b6040805160f083901b6001600160f01b03191660208201528151600281830301815260229091019091529091505f612aae8483612cfc565b90508051601f14612ad5576040516333b0459b60e01b8152601f600482015260240161070a565b612ae6612ae182612d67565b6128af565b9998505050505050505050565b80355f612aff82610cf7565b15612b20576040516385636b5760e01b81526004810183905260240161070a565b612b2983612d71565b5f612b32611b84565b90506040518060800160405280858060200190612b4f9190613ec2565b8080601f0160208091040260200160405190810160405280939291908181526020018383808284375f92019190915250505090825250602001612b986060870160408801613523565b6001600160a01b03168152602001612bb36060870187613ec2565b8080601f0160208091040260200160405190810160405280939291908181526020018383808284375f9201829052509385525050336020938401525086358152600184019091526040902081518190612c0c90826144c8565b5060208201516001820180546001600160a01b0319166001600160a01b0390921691909117905560408201516002820190612c4790826144c8565b5060609190910151600390910180546001600160a01b0319166001600160a01b0390921691909117905560020180546001810182555f918252602090912093359301929092555050565b5f81612c9c816106e1565b612cbc57604051637e12bee760e11b81526004810182905260240161070a565b6128a683612d9a565b60408051602080825281830190925260609160208201818036833750505060208101929092525090565b6060610f62848484612de5565b6060610c458383612eea565b5f8151601d14612d2e576040516303c4ee2b60e01b8152601d600482015260240161070a565b5f5b82518110156128a957828181518110612d4b57612d4b61395f565b0160200151612d5d9060f81c836149b7565b9150600101612d30565b5f6108c5826149d1565b612d79610eaa565b6001600160a01b0316336001600160a01b0316146109095761090981612f67565b5f816001612da782610cf7565b612dc757604051633f88e60160e21b81526004810183905260240161070a565b612dcf611b84565b5f94855260010160205250506040909120919050565b60608182601f011015612e2b5760405162461bcd60e51b815260206004820152600e60248201526d736c6963655f6f766572666c6f7760901b604482015260640161070a565b612e3582846149f4565b84511015612e795760405162461bcd60e51b8152602060048201526011602482015270736c6963655f6f75744f66426f756e647360781b604482015260640161070a565b606082158015612e975760405191505f825260208201604052612ee1565b6040519150601f8416801560200281840101858101878315602002848b0101015b81831015612ed0578051835260209283019201612eb8565b5050858452601f01601f1916604052505b50949350505050565b6060806040519050835180825260208201818101602087015b81831015612f1b578051835260209283019201612f03565b50855184518101855292509050808201602086015b81831015612f48578051835260209283019201612f30565b508651929092011591909101601f01601f191660405250905092915050565b33612f7860a0830160808401613523565b6001600160a01b03161461090957612f9660a0820160808301613523565b604051630cde043160e41b81526001600160a01b0391909116600482015233602482015260440161070a565b634e487b7160e01b5f52604160045260245ffd5b604051606081016001600160401b0381118282101715612ff857612ff8612fc2565b60405290565b604080519081016001600160401b0381118282101715612ff857612ff8612fc2565b604051608081016001600160401b0381118282101715612ff857612ff8612fc2565b60405160a081016001600160401b0381118282101715612ff857612ff8612fc2565b604051601f8201601f191681016001600160401b038111828210171561308c5761308c612fc2565b604052919050565b5f6001600160401b038211156130ac576130ac612fc2565b50601f01601f191660200190565b5f82601f8301126130c9575f5ffd5b8135602083015f6130e16130dc84613094565b613064565b90508281528583830111156130f4575f5ffd5b828260208301375f92810160200192909252509392505050565b5f6001600160401b0382111561312657613126612fc2565b5060051b60200190565b5f82601f83011261313f575f5ffd5b813561314d6130dc8261310e565b8082825260208201915060208360051b86010192508583111561316e575f5ffd5b602085015b8381101561321d5780356001600160401b03811115613190575f5ffd5b86016060818903601f190112156131a5575f5ffd5b6131ad612fd6565b6020820135815260408201356001600160401b038111156131cc575f5ffd5b6131db8a6020838601016130ba565b60208301525060608201356001600160401b038111156131f9575f5ffd5b6132088a6020838601016130ba565b60408301525084525060209283019201613173565b5095945050505050565b5f5f5f60608486031215613239575f5ffd5b83356001600160401b0381111561324e575f5ffd5b84016040818703121561325f575f5ffd5b613267612ffe565b81356001600160401b0381111561327c575f5ffd5b613288888285016130ba565b82525060208201356001600160401b038111156132a3575f5ffd5b6132af888285016130ba565b602083015250809450505060208401356001600160401b038111156132d2575f5ffd5b6132de86828701613130565b92505060408401356001600160401b038111156132f9575f5ffd5b613305868287016130ba565b9150509250925092565b5f6020828403121561331f575f5ffd5b5035919050565b5f5f60208385031215613337575f5ffd5b82356001600160401b0381111561334c575f5ffd5b8301601f8101851361335c575f5ffd5b80356001600160401b03811115613371575f5ffd5b856020828401011115613382575f5ffd5b6020919091019590945092505050565b5f5f604083850312156133a3575f5ffd5b50508035926020909101359150565b5f81518084528060208401602086015e5f602082860101526020601f19601f83011685010191505092915050565b805182526020810151151560208301525f60408201516080604085015261340a60808501826133b2565b606093840151949093019390935250919050565b602081525f610c4560208301846133e0565b805182525f602082015160a0602085015261344e60a08501826133b2565b905060018060a01b0360408401511660408501526060830151848203606086015261347982826133b2565b6080948501516001600160a01b03169590940194909452509092915050565b5f602082016020835280845180835260408501915060408160051b8601019250602086015f5b828110156134ef57603f198786030184526134da858351613430565b945060209384019391909101906001016134be565b50929695505050505050565b6001600160a01b0391909116815260200190565b6001600160a01b0381168114610909575f5ffd5b5f60208284031215613533575f5ffd5b8135610c458161350f565b5f5f6040838503121561354f575f5ffd5b823561355a8161350f565b9150602083013561356a8161350f565b809150509250929050565b602081525f610c4560208301846133b2565b602080825282516001600160a01b031682820152820151606060408301525f906135b460808401826133b2565b90506040840151151560608401528091505092915050565b5f5f604083850312156135dd575f5ffd5b82359150602083013561356a8161350f565b5f602082840312156135ff575f5ffd5b81356001600160401b03811115613614575f5ffd5b820160808185031215610c45575f5ffd5b5f602082016020835280845180835260408501915060408160051b8601019250602086015f5b828110156134ef57603f19878603018452815180516060875261367160608801826133b2565b90506020820151602088015260408201519150868103604088015261369681836133b2565b96505050602093840193919091019060010161364b565b5f5f5f606084860312156136bf575f5ffd5b833592506020840135915060408401356001600160401b038111156132f9575f5ffd5b5f602082840312156136f2575f5ffd5b81356001600160401b03811115613707575f5ffd5b820160a08185031215610c45575f5ffd5b5f5f60408385031215613729575f5ffd5b82356137348161350f565b946020939093013593505050565b5f60208284031215613752575f5ffd5b81356001600160401b03811115613767575f5ffd5b610f62848285016130ba565b5f5f5f60608486031215613785575f5ffd5b8335925060208401356137978161350f565b915060408401356001600160401b038111156132f9575f5ffd5b602081525f610c456020830184613430565b5f602082840312156137d3575f5ffd5b81356001600160401b038111156137e8575f5ffd5b820160608185031215610c45575f5ffd5b5f602082016020835280845180835260408501915060408160051b8601019250602086015f5b828110156134ef57603f1987860301845261383b8583516133e0565b9450602093840193919091019060010161381f565b5f8151808452602084019350602083015f5b82811015613880578151865260209586019590910190600101613862565b5093949350505050565b60208152815160208201525f6020830151608060408401526138af60a0840182613850565b90506040840151601f198483030160608501526138cc8282613850565b9150506060840151601f1984830301608085015261083082826133b2565b5f5f602083850312156138fb575f5ffd5b82356001600160401b03811115613910575f5ffd5b8301601f81018513613920575f5ffd5b80356001600160401b03811115613935575f5ffd5b8560208260051b8401011115613382575f5ffd5b5f82518060208501845e5f920191825250919050565b634e487b7160e01b5f52603260045260245ffd5b80518015158114613982575f5ffd5b919050565b5f82601f830112613996575f5ffd5b8151602083015f6139a96130dc84613094565b90508281528583830111156139bc575f5ffd5b8282602083015e5f92810160200192909252509392505050565b5f608082840312156139e6575f5ffd5b6139ee613020565b825181529050613a0060208301613973565b602082015260408201516001600160401b03811115613a1d575f5ffd5b613a2984828501613987565b60408301525060609182015191810191909152919050565b5f60208284031215613a51575f5ffd5b81516001600160401b03811115613a66575f5ffd5b610f62848285016139d6565b5f60a08284031215613a82575f5ffd5b613a8a613042565b8251815260208301519091506001600160401b03811115613aa9575f5ffd5b613ab584828501613987565b6020830152506040820151613ac98161350f565b604082015260608201516001600160401b03811115613ae6575f5ffd5b613af284828501613987565b6060830152506080820151613b068161350f565b608082015292915050565b5f60208284031215613b21575f5ffd5b81516001600160401b03811115613b36575f5ffd5b8201601f81018413613b46575f5ffd5b8051613b546130dc8261310e565b8082825260208201915060208360051b850101925086831115613b75575f5ffd5b602084015b83811015613bb55780516001600160401b03811115613b97575f5ffd5b613ba689602083890101613a72565b84525060209283019201613b7a565b509695505050505050565b5f60208284031215613bd0575f5ffd5b610c4582613973565b81835281816020850137505f828201602090810191909152601f909101601f19169091010190565b838152604060208201525f610830604083018486613bd9565b5f60208284031215613c2a575f5ffd5b81516001600160401b03811115613c3f575f5ffd5b820160608185031215613c50575f5ffd5b613c58612fd6565b8151613c638161350f565b815260208201516001600160401b03811115613c7d575f5ffd5b613c8986828501613987565b602083015250613c9b60408301613973565b6040820152949350505050565b5f5f8335601e19843603018112613cbd575f5ffd5b8301803591506001600160401b03821115613cd6575f5ffd5b6020019150600581901b3603821315613ced575f5ffd5b9250929050565b8183525f6001600160fb1b03831115613d0b575f5ffd5b8260051b80836020870137939093016020019392505050565b604081525f613d37604083018688613cf4565b8281036020840152613d4a818587613cf4565b979650505050505050565b92835260208301919091526001600160a01b0316604082015260600190565b5f60208284031215613d84575f5ffd5b81516001600160401b03811115613d99575f5ffd5b8201601f81018413613da9575f5ffd5b8051613db76130dc8261310e565b8082825260208201915060208360051b850101925086831115613dd8575f5ffd5b602084015b83811015613bb55780516001600160401b03811115613dfa575f5ffd5b85016060818a03601f19011215613e0f575f5ffd5b613e17612fd6565b60208201516001600160401b03811115613e2f575f5ffd5b613e3e8b602083860101613987565b8252506040820151602082015260608201516001600160401b03811115613e63575f5ffd5b613e728b602083860101613987565b60408301525084525060209283019201613ddd565b848152836020820152826040820152608060608201525f6123b460808301846133b2565b5f60208284031215613ebb575f5ffd5b5051919050565b5f5f8335601e19843603018112613ed7575f5ffd5b8301803591506001600160401b03821115613ef0575f5ffd5b602001915036819003821315613ced575f5ffd5b606081525f613f17606083018789613bd9565b6001600160a01b03861660208401528281036040840152613f39818587613bd9565b98975050505050505050565b828152604060208201525f610f6260408301846133b2565b84815283602082015260018060a01b0383166040820152608060608201525f6123b460808301846133b2565b5f60208284031215613f99575f5ffd5b81516001600160401b03811115613fae575f5ffd5b610f6284828501613a72565b818382375f9101908152919050565b6001600160a01b03841681526040602082018190525f906108309083018486613bd9565b5f60208284031215613ffd575f5ffd5b81516001600160401b03811115614012575f5ffd5b8201601f81018413614022575f5ffd5b80516140306130dc8261310e565b8082825260208201915060208360051b850101925086831115614051575f5ffd5b602084015b83811015613bb55780516001600160401b03811115614073575f5ffd5b614082896020838901016139d6565b84525060209283019201614056565b5f82601f8301126140a0575f5ffd5b81516140ae6130dc8261310e565b8082825260208201915060208360051b8601019250858311156140cf575f5ffd5b602085015b8381101561321d5780518352602092830192016140d4565b5f602082840312156140fc575f5ffd5b81516001600160401b03811115614111575f5ffd5b820160808185031215614122575f5ffd5b61412a613020565b8151815260208201516001600160401b03811115614146575f5ffd5b61415286828501614091565b60208301525060408201516001600160401b03811115614170575f5ffd5b61417c86828501614091565b60408301525060608201516001600160401b0381111561419a575f5ffd5b6141a686828501613987565b606083015250949350505050565b5f5f8335601e198436030181126141c9575f5ffd5b83016020810192503590506001600160401b038111156141e7575f5ffd5b803603821315613ced575f5ffd5b803582525f61420760208301836141b4565b60a0602086015261421c60a086018284613bd9565b915050604083013561422d8161350f565b6001600160a01b0316604085015261424860608401846141b4565b858303606087015261425b838284613bd9565b92505050608083013561426d8161350f565b6001600160a01b0316608094909401939093525090919050565b83815260406020820181905281018290525f6060600584901b830181019083018583609e1936839003015b878210156142f657868503605f1901845282358181126142d0575f5ffd5b6142dc868b83016141f5565b9550506020830192506020840193506001820191506142b2565b509298975050505050505050565b5f8235609e19833603018112614318575f5ffd5b9190910192915050565b848152606060208201525f61433b606083018587613bd9565b905060018060a01b038316604083015295945050505050565b828152604060208201525f610f6260408301846141f5565b600181811c9082168061438057607f821691505b6020821081036128a957634e487b7160e01b5f52602260045260245ffd5b5f5f8335601e198436030181126143b3575f5ffd5b83016020810192503590506001600160401b038111156143d1575f5ffd5b8060051b3603821315613ced575f5ffd5b838152606060208201525f5f8435905080606084015250614406602085018561439e565b60808085015261441a60e085018284613cf4565b91505061442a604086018661439e565b848303605f190160a0860152614441838284613cf4565b9250505061445260608601866141b4565b848303605f190160c0860152614469838284613bd9565b935050505060018060a01b0383166040830152949350505050565b601f821115610a5a57805f5260205f20601f840160051c810160208510156144a95750805b601f840160051c820191505b81811015611e48575f81556001016144b5565b81516001600160401b038111156144e1576144e1612fc2565b6144f5816144ef845461436c565b84614484565b6020601f821160018114614527575f83156145105750848201515b5f19600385901b1c1916600184901b178455611e48565b5f84815260208120601f198516915b828110156145565787850151825560209485019460019092019101614536565b508482101561457357868401515f19600387901b60f8161c191681555b50505050600190811b01905550565b828152604060208201525f61459783846141b4565b606060408501526145ac60a085018284613bd9565b91505060208401356145bd8161350f565b6001600160a01b031660608401526145d860408501856141b4565b848303603f19016080860152613d4a838284613bd9565b6001600160a01b03841681526060602082018190525f90614612908301856133b2565b82810360408401526123b481856133b2565b5f5f60408385031215614635575f5ffd5b825160208401519092506001600160401b03811115614652575f5ffd5b8301601f81018513614662575f5ffd5b80516146706130dc8261310e565b8082825260208201915060208360051b850101925087831115614691575f5ffd5b602084015b838110156147175780516001600160401b038111156146b3575f5ffd5b85016040818b03601f190112156146c8575f5ffd5b6146d0612ffe565b60208201516001600160401b038111156146e8575f5ffd5b6146f78c602083860101613987565b825250604091909101516020808301919091529084529283019201614696565b50809450505050509250929050565b5f6040820160018060a01b03851683526040602084015280845180835260608501915060608160051b8601019250602086015f5b828110156147bc57605f1987860301845281518051865260208101516060602088015261478a60608801826133b2565b90506040820151915086810360408801526147a581836133b2565b96505050602093840193919091019060010161475a565b5092979650505050505050565b6001600160a01b03851681526080602082018190525f906147ec908301866133b2565b82810360408401525f85546148008161436c565b80845260018216801561481a57600181146148365761486a565b60ff1983166020860152602082151560051b860101935061486a565b885f5260205f205f5b838110156148615781546020828901015260018201915060208101905061483f565b86016020019450505b5050508381036060850152613f3981866133b2565b5f82825180855260208501945060208160051b830101602085015f5b838110156148fe57601f1985840301885281518051606085526148c160608601826133b2565b9050602082015160208601526040820151915084810360408601526148e681836133b2565b60209a8b019a9095509390930192505060010161489b565b50909695505050505050565b602081525f610c45602083018461487f565b5f5f6040838503121561492d575f5ffd5b61493683613973565b6020939093015192949293505050565b828152604060208201525f610f62604083018461487f565b85815284602082015260018060a01b038416604082015282606082015260a060808201525f613d4a60a083018461487f565b634e487b7160e01b5f52601160045260245ffd5b818103818111156108c5576108c5614990565b61ffff81811683821601908111156108c5576108c5614990565b805160208083015191908110156128a9575f1960209190910360031b1b16919050565b808201808211156108c5576108c561499056fea2646970667358221220249f1913b23ecb3dc0213df7fb36218079eebb638f0187086ff860c5af94bf4964736f6c634300081b0033",
  "linkReferences": {
    "project/contracts/lib/VerifierLib.sol": {
      "VerifierLib": [
        {
          "length": 20,
          "start": 2167
        },
        {
          "length": 20,
          "start": 2323
        },
        {
          "length": 20,
          "start": 2620
        },
        {
          "length": 20,
          "start": 3226
        },
        {
          "length": 20,
          "start": 3536
        },
        {
          "length": 20,
          "start": 3734
        },
        {
          "length": 20,
          "start": 4023
        },
        {
          "length": 20,
          "start": 4437
        },
        {
          "length": 20,
          "start": 4676
        },
        {
          "length": 20,
          "start": 4741
        },
        {
          "length": 20,
          "start": 4891
        },
        {
          "length": 20,
          "start": 5030
        },
        {
          "length": 20,
          "start": 5065
        },
        {
          "length": 20,
          "start": 5441
        },
        {
          "length": 20,
          "start": 5614
        },
        {
          "length": 20,
          "start": 5889
        },
        {
          "length": 20,
          "start": 5990
        },
        {
          "length": 20,
          "start": 6231
        },
        {
          "length": 20,
          "start": 6367
        },
        {
          "length": 20,
          "start": 7146
        },
        {
          "length": 20,
          "start": 7862
        },
        {
          "length": 20,
          "start": 7975
        },
        {
          "length": 20,
          "start": 8523
        },
        {
          "length": 20,
          "start": 9599
        },
        {
          "length": 20,
          "start": 9779
        },
        {
          "length": 20,
          "start": 9941
        },
        {
          "length": 20,
          "start": 10375
        }
      ]
    }
  },
  "deployedLinkReferences": {
    "project/contracts/lib/VerifierLib.sol": {
      "VerifierLib": [
        {
          "length": 20,
          "start": 1953
        },
        {
          "length": 20,
          "start": 2109
        },
        {
          "length": 20,
          "start": 2406
        },
        {
          "length": 20,
          "start": 3012
        },
        {
          "length": 20,
          "start": 3322
        },
        {
          "length": 20,
          "start": 3520
        },
        {
          "length": 20,
          "start": 3809
        },
        {
          "length": 20,
          "start": 4223
        },
        {
          "length": 20,
          "start": 4462
        },
        {
          "length": 20,
          "start": 4527
        },
        {
          "length": 20,
          "start": 4677
        },
        {
          "length": 20,
          "start": 4816
        },
        {
          "length": 20,
          "start": 4851
        },
        {
          "length": 20,
          "start": 5227
        },
        {
          "length": 20,
          "start": 5400
        },
        {
          "length": 20,
          "start": 5675
        },
        {
          "length": 20,
          "start": 5776
        },
        {
          "length": 20,
          "start": 6017
        },
        {
          "length": 20,
          "start": 6153
        },
        {
          "length": 20,
          "start": 6932
        },
        {
          "length": 20,
          "start": 7648
        },
        {
          "length": 20,
          "start": 7761
        },
        {
          "length": 20,
          "start": 8309
        },
        {
          "length": 20,
          "start": 9385
        },
        {
          "length": 20,
          "start": 9565
        },
        {
          "length": 20,
          "start": 9727
        },
        {
          "length": 20,
          "start": 10161
        }
      ]
    }
  },
  "immutableReferences": {},
  "inputSourceName": "project/contracts/verifiers/UniversalVerifier.sol",
  "buildInfoId": "solc-0_8_27-6f3fa8909600c5a4d5c1b6472ac68e794cba3497"
}