{
  "_format": "hh-sol-artifact-1",
  "contractName": "VerifierLib",
  "sourceName": "contracts/lib/VerifierLib.sol",
  "abi": [
    {
      "inputs": [
        {
          "internalType": "string",
          "name": "authMethod",
          "type": "string"
        }
      ],
      "name": "AuthMethodAlreadyExists",
      "type": "error"
    },
    {
      "inputs": [
        {
          "internalType": "string",
          "name": "authMethod",
          "type": "string"
        }
      ],
      "name": "AuthMethodNotFound",
      "type": "error"
    },
    {
      "inputs": [
        {
          "internalType": "uint256",
          "name": "groupId",
          "type": "uint256"
        }
      ],
      "name": "GroupIdAlreadyExists",
      "type": "error"
    },
    {
      "inputs": [
        {
          "internalType": "uint256",
          "name": "groupId",
          "type": "uint256"
        }
      ],
      "name": "GroupIdNotFound",
      "type": "error"
    },
    {
      "inputs": [],
      "name": "GroupIdNotValid",
      "type": "error"
    },
    {
      "inputs": [
        {
          "internalType": "uint256",
          "name": "groupId",
          "type": "uint256"
        }
      ],
      "name": "GroupMustHaveAtLeastTwoRequests",
      "type": "error"
    },
    {
      "inputs": [],
      "name": "LinkIDNotTheSameForGroupedRequests",
      "type": "error"
    },
    {
      "inputs": [
        {
          "internalType": "uint256",
          "name": "groupId",
          "type": "uint256"
        }
      ],
      "name": "MissingUserIDInGroupOfRequests",
      "type": "error"
    },
    {
      "inputs": [
        {
          "internalType": "uint256",
          "name": "requestId",
          "type": "uint256"
        }
      ],
      "name": "MissingUserIDInRequest",
      "type": "error"
    },
    {
      "inputs": [
        {
          "internalType": "uint256",
          "name": "multiRequestId",
          "type": "uint256"
        }
      ],
      "name": "MultiRequestIdAlreadyExists",
      "type": "error"
    },
    {
      "inputs": [
        {
          "internalType": "uint256",
          "name": "multiRequestId",
          "type": "uint256"
        }
      ],
      "name": "MultiRequestIdNotFound",
      "type": "error"
    },
    {
      "inputs": [
        {
          "internalType": "uint256",
          "name": "expectedMultiRequestId",
          "type": "uint256"
        },
        {
          "internalType": "uint256",
          "name": "multiRequestId",
          "type": "uint256"
        }
      ],
      "name": "MultiRequestIdNotValid",
      "type": "error"
    },
    {
      "inputs": [
        {
          "internalType": "uint256",
          "name": "nullifierSessionID",
          "type": "uint256"
        }
      ],
      "name": "NullifierSessionIDAlreadyExists",
      "type": "error"
    },
    {
      "inputs": [
        {
          "internalType": "uint256",
          "name": "requestId",
          "type": "uint256"
        },
        {
          "internalType": "address",
          "name": "sender",
          "type": "address"
        }
      ],
      "name": "ProofAlreadyVerified",
      "type": "error"
    },
    {
      "inputs": [
        {
          "internalType": "uint256",
          "name": "requestId",
          "type": "uint256"
        },
        {
          "internalType": "address",
          "name": "sender",
          "type": "address"
        }
      ],
      "name": "ProofIsNotVerified",
      "type": "error"
    },
    {
      "inputs": [
        {
          "internalType": "uint256",
          "name": "requestId",
          "type": "uint256"
        }
      ],
      "name": "RequestIdAlreadyExists",
      "type": "error"
    },
    {
      "inputs": [
        {
          "internalType": "uint256",
          "name": "requestId",
          "type": "uint256"
        }
      ],
      "name": "RequestIdNotFound",
      "type": "error"
    },
    {
      "inputs": [
        {
          "internalType": "uint256",
          "name": "expectedRequestId",
          "type": "uint256"
        },
        {
          "internalType": "uint256",
          "name": "requestId",
          "type": "uint256"
        }
      ],
      "name": "RequestIdNotValid",
      "type": "error"
    },
    {
      "inputs": [],
      "name": "RequestIdTypeNotValid",
      "type": "error"
    },
    {
      "inputs": [],
      "name": "RequestIdUsesReservedBytes",
      "type": "error"
    },
    {
      "inputs": [
        {
          "internalType": "uint256",
          "name": "requestId",
          "type": "uint256"
        }
      ],
      "name": "RequestShouldNotHaveAGroup",
      "type": "error"
    },
    {
      "inputs": [
        {
          "internalType": "uint256",
          "name": "requestId",
          "type": "uint256"
        },
        {
          "internalType": "address",
          "name": "sender",
          "type": "address"
        },
        {
          "internalType": "string",
          "name": "responseFieldName",
          "type": "string"
        }
      ],
      "name": "ResponseFieldAlreadyExists",
      "type": "error"
    },
    {
      "inputs": [
        {
          "internalType": "uint256",
          "name": "requestId",
          "type": "uint256"
        },
        {
          "internalType": "address",
          "name": "sender",
          "type": "address"
        },
        {
          "internalType": "string",
          "name": "responseFieldName",
          "type": "string"
        }
      ],
      "name": "ResponseFieldDoesNotExist",
      "type": "error"
    },
    {
      "inputs": [
        {
          "internalType": "uint256",
          "name": "userIDFromAuth",
          "type": "uint256"
        },
        {
          "internalType": "uint256",
          "name": "userIDFromResponse",
          "type": "uint256"
        }
      ],
      "name": "UserIDMismatch",
      "type": "error"
    },
    {
      "inputs": [
        {
          "internalType": "uint256",
          "name": "requestVerifierID",
          "type": "uint256"
        },
        {
          "internalType": "uint256",
          "name": "expectedVerifierID",
          "type": "uint256"
        }
      ],
      "name": "VerifierIDIsNotValid",
      "type": "error"
    },
    {
      "inputs": [
        {
          "internalType": "uint256",
          "name": "requestId",
          "type": "uint256"
        },
        {
          "internalType": "bytes",
          "name": "requestParams",
          "type": "bytes"
        },
        {
          "internalType": "address",
          "name": "requestOwner",
          "type": "address"
        }
      ],
      "name": "checkRequestIdCorrectness",
      "outputs": [],
      "stateMutability": "pure",
      "type": "function"
    },
    {
      "inputs": [
        {
          "internalType": "uint256",
          "name": "userIDFromAuthResponse",
          "type": "uint256"
        },
        {
          "components": [
            {
              "internalType": "string",
              "name": "name",
              "type": "string"
            },
            {
              "internalType": "uint256",
              "name": "value",
              "type": "uint256"
            },
            {
              "internalType": "bytes",
              "name": "rawValue",
              "type": "bytes"
            }
          ],
          "internalType": "struct IRequestValidator.ResponseField[]",
          "name": "signals",
          "type": "tuple[]"
        }
      ],
      "name": "checkUserIDMatch",
      "outputs": [],
      "stateMutability": "pure",
      "type": "function"
    },
    {
      "inputs": [
        {
          "components": [
            {
              "internalType": "string",
              "name": "name",
              "type": "string"
            },
            {
              "internalType": "uint256",
              "name": "value",
              "type": "uint256"
            },
            {
              "internalType": "bytes",
              "name": "rawValue",
              "type": "bytes"
            }
          ],
          "internalType": "struct IRequestValidator.ResponseField[]",
          "name": "signals",
          "type": "tuple[]"
        }
      ],
      "name": "isEmbeddedAuthVerified",
      "outputs": [
        {
          "internalType": "bool",
          "name": "",
          "type": "bool"
        },
        {
          "internalType": "uint256",
          "name": "",
          "type": "uint256"
        }
      ],
      "stateMutability": "pure",
      "type": "function"
    },
    {
      "inputs": [
        {
          "components": [
            {
              "internalType": "string",
              "name": "name",
              "type": "string"
            },
            {
              "internalType": "uint256",
              "name": "value",
              "type": "uint256"
            },
            {
              "internalType": "bytes",
              "name": "rawValue",
              "type": "bytes"
            }
          ],
          "internalType": "struct IRequestValidator.ResponseField[]",
          "name": "signals",
          "type": "tuple[]"
        }
      ],
      "name": "userID",
      "outputs": [
        {
          "internalType": "uint256",
          "name": "",
          "type": "uint256"
        }
      ],
      "stateMutability": "pure",
      "type": "function"
    }
  ],
  "bytecode": "0x614427610039600b82828239805160001a607314602c57634e487b7160e01b600052600060045260246000fd5b30600052607381538281f3fe73000000000000000000000000000000000000000030146080604052600436106101985760003560e01c80636ae9427c116100e8578063b67a8031116100a1578063c6b876bc1161007b578063c6b876bc1461043d578063cd9800df1461045d578063f03de28714610470578063fd3ef47f1461048357600080fd5b8063b67a8031146103d3578063bd4f4f5c146103fd578063c2fba8e01461041d57600080fd5b80636ae9427c1461032c5780636b365dd31461034c5780636d86f1fc1461036c57806390db89ee1461037f57806393058e98146103a0578063b39ceffb146103c057600080fd5b806333961c08116101555780633e08b6f31161012f5780633e08b6f3146102b3578063516b2eb6146102c65780635747df3d146102e657806368957bf21461030c57600080fd5b806333961c081461024d5780633397a11e1461027357806339048d331461029357600080fd5b806304ade6d71461019d5780630507338e146101c557806307568de3146101e757806311bdf5cd146101fa578063152dd00b1461020d57806330f3b81e1461022d575b600080fd5b6101b06101ab366004613095565b6104a3565b60405190151581526020015b60405180910390f35b8180156101d157600080fd5b506101e56101e03660046130b7565b6104c9565b005b6101e56101f5366004613164565b6105b4565b6101e56102083660046130b7565b61069d565b61022061021b366004613095565b61076c565b6040516101bc919061324e565b81801561023957600080fd5b506101e56102483660046132b8565b61093d565b6101b061025b366004613095565b60008181526006929092016020526040909120541490565b610286610281366004613095565b610d98565b6040516101bc91906133a0565b6102a66102a13660046133b3565b610f54565b6040516101bc919061342b565b6101e56102c13660046133b3565b610fd9565b8180156102d257600080fd5b506101e56102e13660046136b8565b611034565b6101b06102f4366004613095565b60009081526004919091016020526040902054151590565b81801561031857600080fd5b506101e561032736600461371a565b6112ab565b81801561033857600080fd5b506101e561034736600461376e565b6113a0565b61035f61035a366004613095565b611444565b6040516101bc91906137b9565b6101b061037a366004613812565b61169e565b61039261038d366004613858565b6116df565b6040519081526020016101bc565b8180156103ac57600080fd5b506101e56103bb366004613894565b611790565b6101b06103ce3660046133b3565b611924565b6103e66103e1366004613858565b611998565b6040805192151583526020830191909152016101bc565b61041061040b3660046138d6565b611a52565b6040516101bc919061390e565b61043061042b36600461376e565b611bd8565b6040516101bc9190613921565b81801561044957600080fd5b506101e561045836600461376e565b611d55565b61039261046b366004613967565b611dce565b6101e561047e3660046139bd565b611f89565b6104966104913660046133b3565b612071565b6040516101bc91906139f9565b60008181526001808401602052604090912001546001600160a01b031615155b92915050565b60006104db6060830160408401613a83565b6001600160a01b031663ed4b50a86104f66060850185613aa0565b6040518363ffffffff1660e01b8152600401610513929190613b0f565b600060405180830381865afa158015610530573d6000803e3d6000fd5b505050506040513d6000823e601f3d908101601f191682016040526105589190810190613b9d565b60200151905080156105af576000818152600a840160205260409020541561059b5760405163ca77741d60e01b8152600481018290526024015b60405180910390fd5b6000818152600a8401602052604090208190555b505050565b60006105c08560f01c90565b905060028161ffff16106105e75760405163592542d960e01b815260040160405180910390fd5b64ffffffffff60c886901c16156106115760405163226548cb60e21b815260040160405180910390fd5b8061ffff1660010361069657600084848460405160200161063493929190613c35565b60408051601f198184030181529190528051602090910120905060006106676001600160c01b038316600160f01b613c71565b905080871461069357604051635889cec760e11b81526004810182905260248101889052604401610592565b50505b5050505050565b60006106af6060830160408401613a83565b6001600160a01b031663ed4b50a86106ca6060850185613aa0565b6040518363ffffffff1660e01b81526004016106e7929190613c84565b600060405180830381865afa158015610704573d6000803e3d6000fd5b505050506040513d6000823e601f3d908101601f1916820160405261072c9190810190613b9d565b60200151905080156105af5782600b015481146105af57600b830154604051630458986560e11b8152610592918391600401918252602082015260400190565b6107976040518060800160405280600081526020016060815260200160608152602001606081525090565b60008281526006840160205260409020548390839060019082146107d1576040516320bf2a8f60e21b815260048101839052602401610592565b60008581526006870160209081526040918290208251608081018452815481526001820180548551818602810186019096528086529194929385810193929083018282801561083f57602002820191906000526020600020905b81548152602001906001019080831161082b575b505050505081526020016002820180548060200260200160405190810160405280929190818152602001828054801561089757602002820191906000526020600020905b815481526020019060010190808311610883575b505050505081526020016003820180546108b090613cc5565b80601f01602080910402602001604051908101604052809291908181526020018280546108dc90613cc5565b80156109295780601f106108fe57610100808354040283529160200191610929565b820191906000526020600020905b81548152906001019060200180831161090c57829003601f168201915b505050505081525050935050505092915050565b600080826001600160401b0381111561095857610958613490565b6040519080825280602002602001820160405280156109af57816020015b61099c604051806060016040528060008152602001606081526020016000151581525090565b8152602001906001900390816109765790505b50905060005b83811015610d8c5760008585838181106109d1576109d1613cff565b90506020028101906109e39190613d15565b6109f4906060810190604001613a83565b6001600160a01b031663ed4b50a8878785818110610a1457610a14613cff565b9050602002810190610a269190613d15565b610a34906060810190613aa0565b6040518363ffffffff1660e01b8152600401610a51929190613d35565b600060405180830381865afa158015610a6e573d6000803e3d6000fd5b505050506040513d6000823e601f3d908101601f19168201604052610a969190810190613b9d565b6020015190508015610d2a57600080610ab0838688612357565b9150915081610c0f57600083815260048a01602052604090205415610aeb57604051631ece4c1b60e21b815260048101849052602401610592565b6005890180546001810182556000918252602080832090910185905584825260048b01905260409020888886818110610b2657610b26613cff565b9050602002810190610b389190613d15565b8154600181018355600092835260209283902091359101556040805160608101909152848152908101898987818110610b7357610b73613cff565b9050602002810190610b859190613d15565b6040805191356020830152016040516020818303038152906040528152602001610bda8a8a88818110610bba57610bba613cff565b9050602002810190610bcc9190613d15565b610bd590613d6f565b6123ad565b1515815250858781518110610bf157610bf1613cff565b60200260200101819052508580610c0790613e0f565b965050610d23565b600083815260048a0160205260409020888886818110610c3157610c31613cff565b9050602002810190610c439190613d15565b81546001810183556000928352602090922090359101558451859082908110610c6e57610c6e613cff565b602002602001015160200151888886818110610c8c57610c8c613cff565b9050602002810190610c9e9190613d15565b604051610cb092913590602001613e28565b604051602081830303815290604052858281518110610cd157610cd1613cff565b602002602001015160200181905250610cf5888886818110610bba57610bba613cff565b15610d23576001858281518110610d0e57610d0e613cff565b60209081029190910101519015156040909101525b5050610d83565b610d3f868684818110610bba57610bba613cff565b610d8357858583818110610d5557610d55613cff565b9050602002810190610d679190613d15565b604051637a84338160e11b815290356004820152602401610592565b506001016109b5565b50610696858284612442565b610da0613054565b82826001610dae83836104a3565b610dce57604051633f88e60160e21b815260048101839052602401610592565b600086600101600087815260200190815260200160002090506040518060a00160405280878152602001826000018054610e0790613cc5565b80601f0160208091040260200160405190810160405280929190818152602001828054610e3390613cc5565b8015610e805780601f10610e5557610100808354040283529160200191610e80565b820191906000526020600020905b815481529060010190602001808311610e6357829003601f168201915b505050918352505060018301546001600160a01b03166020820152600283018054604090920191610eb090613cc5565b80601f0160208091040260200160405190810160405280929190818152602001828054610edc90613cc5565b8015610f295780601f10610efe57610100808354040283529160200191610f29565b820191906000526020600020905b815481529060010190602001808311610f0c57829003601f168201915b50505091835250506003909201546001600160a01b0316602090920191909152935050505092915050565b6000828152600684016020526040902054606090849084906001908214610f91576040516320bf2a8f60e21b815260048101839052602401610592565b6000610f9e8888886125a3565b90506000610fad898989612abc565b905080610fcd5760405163141df12760e31b815260040160405180910390fd5b50979650505050505050565b6000828152602084815260408083206001600160a01b03851684529091529020805460ff161561102e5760405163dc08e05360e01b8152600481018490526001600160a01b0383166024820152604401610592565b50505050565b6000838152602085815260408083206001600160a01b03861684529091528120805460ff19166001908117825580820180548201808255818552929392909161107c91613e4a565b8154811061108c5761108c613cff565b600091825260208083208884526001808b01909252604080852090920154825163054fd4d560e41b81529251603290940290910194506001600160a01b0316926354fd4d50926004808401938290030181865afa1580156110f1573d6000803e3d6000fd5b505050506040513d6000823e601f3d908101601f191682016040526111199190810190613e5d565b60038201906111289082613ee3565b5042600482015560005b8351811015610693578160020184828151811061115157611151613cff565b60200260200101516000015160405161116a9190613fa1565b9081526020016040518091039020546000146111bc57858585838151811061119457611194613cff565b602002602001015160000151604051631202ebdd60e31b815260040161059293929190613fb3565b8381815181106111ce576111ce613cff565b602002602001015160200151826000018583815181106111f0576111f0613cff565b6020026020010151600001516040516112099190613fa1565b9081526020016040518091039020819055508160010184828151811061123157611231613cff565b602090810291909101810151518254600181018455600093845291909220019061125b9082613ee3565b5081600101805490508260020185838151811061127a5761127a613cff565b6020026020010151600001516040516112939190613fa1565b90815260405190819003602001902055600101611132565b82823560008082815260068401602052604090205482036112e25760405163ac1e4c7760e01b815260048101839052602401610592565b60006112f16020870187613fdd565b6112fe6040890189613fdd565b8860405160200161131395949392919061404f565b60408051601f19818403018152919052805160209091012090508535811461135857604051631ab60acd60e01b81526004810182905286356024820152604401610592565b853560009081526006880160205260409020869061137682826141cc565b50506007870180546001810182556000918252602090912087359101819055610693908890612c15565b8282828080601f0160208091040260200160405190810160405280939291908181526020018383808284376000920191909152506001925050506113e4838361169e565b61140357816040516303741db360e21b81526004016105929190614296565b60018660090186866040516114199291906142a9565b908152604051908190036020019020600201805491151560ff19909216919091179055505050505050565b6000818152600483016020526040812054606091906001600160401b0381111561147057611470613490565b6040519080825280602002602001820160405280156114a957816020015b611496613054565b81526020019060019003908161148e5790505b50905060005b600084815260048601602052604090205481101561169657600084815260048601602052604081208054839081106114e9576114e9613cff565b90600052602060002001549050600086600101600083815260200190815260200160002090506040518060a0016040528083815260200182600001805461152f90613cc5565b80601f016020809104026020016040519081016040528092919081815260200182805461155b90613cc5565b80156115a85780601f1061157d576101008083540402835291602001916115a8565b820191906000526020600020905b81548152906001019060200180831161158b57829003601f168201915b505050918352505060018301546001600160a01b031660208201526002830180546040909201916115d890613cc5565b80601f016020809104026020016040519081016040528092919081815260200182805461160490613cc5565b80156116515780601f1061162657610100808354040283529160200191611651565b820191906000526020600020905b81548152906001019060200180831161163457829003601f168201915b505050918352505060038301546001600160a01b0316602090910152845185908590811061168157611681613cff565b602090810291909101015250506001016114af565b509392505050565b6000806001600160a01b031683600901836040516116bc9190613fa1565b908152604051908190036020019020546001600160a01b03161415905092915050565b6000805b8251811015611787577feaa28503c24395f30163098dfa9f1e1cd296dd52252064784e65d9593400738260001b83828151811061172257611722613cff565b60200260200101516000015160405160200161173e9190613fa1565b604051602081830303815290604052805190602001200361177f5782818151811061176b5761176b613cff565b602002602001015160200151915050919050565b6001016116e3565b50600092915050565b8161179b8280613aa0565b8080601f016020809104026020016040519081016040528093929190818152602001838380828437600092018290525092506117d5915050565b6117df838361169e565b156117ff57816040516372a372b360e01b81526004016105929190614296565b6008850161180d8580613aa0565b8254600181018455600093845260209093209092019161182d918361410d565b50604051806060016040528085602001602081019061184c9190613a83565b6001600160a01b031681526020016118676040870187613aa0565b8080601f0160208091040260200160405190810160405280939291908181526020018383808284376000920191909152505050908252506001602090910152600986016118b48680613aa0565b6040516118c29291906142a9565b90815260405160209181900382019020825181546001600160a01b0319166001600160a01b039091161781559082015160018201906119019082613ee3565b50604091909101516002909101805460ff19169115159190911790555050505050565b600082815260068401602052604081205484908490600190821461195e576040516320bf2a8f60e21b815260048101839052602401610592565b600061196b888888612f02565b9050801561198d576000611980898989612abc565b905080610fcd5760009150505b979650505050505050565b60008060005b8351811015611a46577f77dbf4723b7e657d6a347bdf463068644740111c41d0cea27e25e1ff54c4b2db60001b8482815181106119dd576119dd613cff565b6020026020010151600001516040516020016119f99190613fa1565b6040516020818303038152906040528051906020012003611a3e576001848281518110611a2857611a28613cff565b6020026020010151602001519250925050915091565b60010161199e565b50600093849350915050565b611a7f60405180608001604052806000815260200160001515815260200160608152602001600081525090565b6000828152602085815260408083206001600160a01b03871684529091529020805460ff1615611b995760018082018054600092611abc91613e4a565b81548110611acc57611acc613cff565b906000526020600020906032020190506040518060800160405280858152602001600115158152602001826003018054611b0590613cc5565b80601f0160208091040260200160405190810160405280929190818152602001828054611b3190613cc5565b8015611b7e5780601f10611b5357610100808354040283529160200191611b7e565b820191906000526020600020905b815481529060010190602001808311611b6157829003601f168201915b50505050508152602001826004015481525092505050611bd1565b604051806080016040528084815260200160001515815260200160405180602001604052806000815250815260200160008152509150505b9392505050565b611c07604051806060016040528060006001600160a01b03168152602001606081526020016000151581525090565b8383838080601f016020809104026020016040519081016040528093929190818152602001838380828437600092019190915250600192505050611c4b838361169e565b611c6a57816040516303741db360e21b81526004016105929190614296565b866009018686604051611c7e9291906142a9565b9081526040805191829003602090810183206060840190925281546001600160a01b0316835260018201805491840191611cb790613cc5565b80601f0160208091040260200160405190810160405280929190818152602001828054611ce390613cc5565b8015611d305780601f10611d0557610100808354040283529160200191611d30565b820191906000526020600020905b815481529060010190602001808311611d1357829003601f168201915b50505091835250506002919091015460ff161515602090910152979650505050505050565b8282828080601f016020809104026020016040519081016040528093929190818152602001838380828437600092019190915250600192505050611d99838361169e565b611db857816040516303741db360e21b81526004016105929190614296565b60008660090186866040516114199291906142a9565b60008484846001611ddf84846104a3565b611dff57604051633f88e60160e21b815260048101849052602401610592565b6000838152602085815260408083206001600160a01b038616845290915290208115611e5e57805460ff16611e5957604051632e0cb61360e01b8152600481018590526001600160a01b0384166024820152604401610592565b611e93565b805460ff1615611e935760405163dc08e05360e01b8152600481018590526001600160a01b0384166024820152604401610592565b600089815260208b815260408083206001600160a01b038c1684529091529020600180820180549091611ec591613e4a565b81548110611ed557611ed5613cff565b906000526020600020906032020160020188604051611ef49190613fa1565b908152602001604051809103902054600003611f29578989896040516301ef312d60e41b815260040161059293929190613fb3565b600180820180549091611f3b91613e4a565b81548110611f4b57611f4b613cff565b906000526020600020906032020160000188604051611f6a9190613fa1565b9081526020016040518091039020549650505050505050949350505050565b60005b81518110156105af577feaa28503c24395f30163098dfa9f1e1cd296dd52252064784e65d9593400738260001b828281518110611fcb57611fcb613cff565b602002602001015160000151604051602001611fe79190613fa1565b60405160208183030381529060405280519060200120036120695781818151811061201457612014613cff565b6020026020010151602001518314612069578282828151811061203957612039613cff565b602002602001015160200151604051631bab966f60e31b8152600401610592929190918252602082015260400190565b600101611f8c565b6060838383600161208284846104a3565b6120a257604051633f88e60160e21b815260048101849052602401610592565b6000838152602085815260408083206001600160a01b03861684529091529020811561210157805460ff166120fc57604051632e0cb61360e01b8152600481018590526001600160a01b0384166024820152604401610592565b612136565b805460ff16156121365760405163dc08e05360e01b8152600481018590526001600160a01b0384166024820152604401610592565b600088815260208a815260408083206001600160a01b038b168452909152812060018082018054929392909161216b91613e4a565b8154811061217b5761217b613cff565b90600052602060002090603202019050600081600101805490506001600160401b038111156121ac576121ac613490565b60405190808252806020026020018201604052801561220157816020015b6121ee60405180606001604052806060815260200160008152602001606081525090565b8152602001906001900390816121ca5790505b50905060005b600183015481101561234757604051806060016040528084600101838154811061223357612233613cff565b90600052602060002001805461224890613cc5565b80601f016020809104026020016040519081016040528092919081815260200182805461227490613cc5565b80156122c15780601f10612296576101008083540402835291602001916122c1565b820191906000526020600020905b8154815290600101906020018083116122a457829003601f168201915b50505050508152602001846000018560010184815481106122e4576122e4613cff565b906000526020600020016040516122fb91906142b9565b90815260200160405180910390205481526020016040518060200160405280600081525081525082828151811061233457612334613cff565b6020908102919091010152600101612207565b509b9a5050505050505050505050565b60008060005b8381101561239c578585828151811061237857612378613cff565b60200260200101516000015103612394576001925090506123a5565b60010161235d565b50600080915091505b935093915050565b6040808201518151808301835260068152651d5cd95c925160d21b6020820152915163b16a394f60e01b815260009283926001600160a01b03169163b16a394f916123fa91600401614296565b602060405180830381865afa925050508015612433575060408051601f3d908101601f191682019092526124309181019061432e565b60015b156104c3575060019392505050565b60005b8181101561102e57600083828151811061246157612461613cff565b6020026020010151602001518051906020012060001c6001600160fc1b0316905083828151811061249457612494613cff565b60200260200101516000015181146124bf576040516344e0de8560e01b815260040160405180910390fd5b60028560040160008685815181106124d9576124d9613cff565b60200260200101516000015181526020019081526020016000208054905010156125375783828151811061250f5761250f613cff565b602002602001015160000151604051637f6d9ecf60e01b815260040161059291815260200190565b83828151811061254957612549613cff565b6020026020010151604001511515600015150361259a5783828151811061257257612572613cff565b6020026020010151600001516040516304aa0c4960e01b815260040161059291815260200190565b50600101612445565b600082815260068401602052604081206002810154606092901561261f5760005b600283015481101561261d5760008360020182815481106125e7576125e7613cff565b600091825260208083209091015480835260048b019091526040909120549091506126129084613c71565b9250506001016125c4565b505b6001820154600090612632908390613c71565b6001600160401b0381111561264957612649613490565b6040519080825280602002602001820160405280156126a757816020015b61269460405180608001604052806000815260200160001515815260200160608152602001600081525090565b8152602001906001900390816126675790505b50905060005b600184015481101561286c5760008460010182815481106126d0576126d0613cff565b60009182526020808320909101548083528b825260408084206001600160a01b038c16855283528084208151608081018352838152815460ff1615158186015282519485018352858552918201939093526060810193909352855190935090919085908590811061274357612743613cff565b6020908102919091010152805460ff1615612862576001808201805460009261276b91613e4a565b8154811061277b5761277b613cff565b9060005260206000209060320201905080600301805461279a90613cc5565b80601f01602080910402602001604051908101604052809291908181526020018280546127c690613cc5565b80156128135780601f106127e857610100808354040283529160200191612813565b820191906000526020600020905b8154815290600101906020018083116127f657829003601f168201915b505050505085858151811061282a5761282a613cff565b602002602001015160400181905250806004015485858151811061285057612850613cff565b60200260200101516060018181525050505b50506001016126ad565b5060005b6002840154811015612ab157600084600201828154811061289357612893613cff565b9060005260206000200154905060005b600082815260048b016020526040902054811015612aa757600082815260048b01602052604081208054839081106128dd576128dd613cff565b60009182526020808320909101548083528d825260408084206001600160a01b038e16855283528084208151608081018352838152815460ff161515818601528251948501835285855291820193909352606081019390935260018a0154909350909190879061294e908690613c71565b8151811061295e5761295e613cff565b6020908102919091010152805460ff1615612a9d576001808201805460009261298691613e4a565b8154811061299657612996613cff565b906000526020600020906032020190508060030180546129b590613cc5565b80601f01602080910402602001604051908101604052809291908181526020018280546129e190613cc5565b8015612a2e5780601f10612a0357610100808354040283529160200191612a2e565b820191906000526020600020905b815481529060010190602001808311612a1157829003601f168201915b50505060018c01548a9250612a4591508790613c71565b81518110612a5557612a55613cff565b602090810291909101015160400152600481015460018a01548890612a7b908790613c71565b81518110612a8b57612a8b613cff565b60200260200101516060018181525050505b50506001016128a3565b5050600101612870565b509695505050505050565b6000805b6000848152600686016020526040902060020154811015612c0a5760008481526006860160205260408120600201805483908110612b0057612b00613cff565b906000526020600020015490506000612b6a87886004016000858152602001908152602001600020600081548110612b3a57612b3a613cff565b906000526020600020015487604051806040016040528060068152602001651b1a5b9ad25160d21b815250611dce565b905060015b6000838152600489016020526040902054811015612bff57600083815260048901602052604081208054612bdf918b9185908110612baf57612baf613cff565b906000526020600020015489604051806040016040528060068152602001651b1a5b9ad25160d21b815250611dce565b9050808314612bf657600095505050505050611bd1565b50600101612b6f565b505050600101612ac0565b506001949350505050565b6000818152600683016020908152604080832060010180548251818502810185019093528083529192909190830182828015612c7057602002820191906000526020600020905b815481526020019060010190808311612c5c575b505050505090506000836006016000848152602001908152602001600020600201805480602002602001604051908101604052809291908181526020018280548015612cdb57602002820191906000526020600020905b815481526020019060010190808311612cc7575b5050505050905060005b8251811015612e7d57612d1185848381518110612d0457612d04613cff565b60200260200101516104a3565b612d4b57828181518110612d2757612d27613cff565b6020026020010151604051633f88e60160e21b815260040161059291815260200190565b6000856001016000858481518110612d6557612d65613cff565b6020026020010151815260200190815260200160002060010160009054906101000a90046001600160a01b03166001600160a01b031663ed4b50a8876001016000878681518110612db857612db8613cff565b602002602001015181526020019081526020016000206002016040518263ffffffff1660e01b8152600401612ded9190614347565b600060405180830381865afa158015612e0a573d6000803e3d6000fd5b505050506040513d6000823e601f3d908101601f19168201604052612e329190810190613b9d565b6020015190508015612e7457838281518110612e5057612e50613cff565b60200260200101516040516362d5346d60e01b815260040161059291815260200190565b50600101612ce5565b5060005b815181101561069657612ec085838381518110612ea057612ea0613cff565b602002602001015160009081526004919091016020526040902054151590565b612efa57818181518110612ed657612ed6613cff565b60200260200101516040516317b0f59160e21b815260040161059291815260200190565b600101612e81565b60008281526006840160205260408120815b6001820154811015612f81576000826001018281548110612f3757612f37613cff565b600091825260208083209091015480835289825260408084206001600160a01b038a16855290925291205490915060ff16612f785760009350505050611bd1565b50600101612f14565b5060005b6002820154811015613048576000826002018281548110612fa857612fa8613cff565b9060005260206000200154905060005b600082815260048901602052604090205481101561303e5760008281526004890160205260408120805483908110612ff257612ff2613cff565b60009182526020808320909101548083528b825260408084206001600160a01b038c16855290925291205490915060ff1661303557600095505050505050611bd1565b50600101612fb8565b5050600101612f85565b50600195945050505050565b6040518060a00160405280600081526020016060815260200160006001600160a01b031681526020016060815260200160006001600160a01b031681525090565b600080604083850312156130a857600080fd5b50508035926020909101359150565b600080604083850312156130ca57600080fd5b8235915060208301356001600160401b038111156130e757600080fd5b830160a081860312156130f957600080fd5b809150509250929050565b60008083601f84011261311657600080fd5b5081356001600160401b0381111561312d57600080fd5b60208301915083602082850101111561314557600080fd5b9250929050565b6001600160a01b038116811461316157600080fd5b50565b6000806000806060858703121561317a57600080fd5b8435935060208501356001600160401b0381111561319757600080fd5b6131a387828801613104565b90945092505060408501356131b78161314c565b939692955090935050565b600081518084526020840193506020830160005b828110156131f45781518652602095860195909101906001016131d6565b5093949350505050565b60005b83811015613219578181015183820152602001613201565b50506000910152565b6000815180845261323a8160208601602086016131fe565b601f01601f19169290920160200192915050565b6020815281516020820152600060208301516080604084015261327460a08401826131c2565b90506040840151601f1984830301606085015261329182826131c2565b9150506060840151601f198483030160808501526132af8282613222565b95945050505050565b6000806000604084860312156132cd57600080fd5b8335925060208401356001600160401b038111156132ea57600080fd5b8401601f810186136132fb57600080fd5b80356001600160401b0381111561331157600080fd5b8660208260051b840101111561332657600080fd5b939660209190910195509293505050565b805182526000602082015160a0602085015261335660a0850182613222565b905060018060a01b036040840151166040850152606083015184820360608601526133818282613222565b6080948501516001600160a01b03169590940194909452509092915050565b602081526000611bd16020830184613337565b6000806000606084860312156133c857600080fd5b833592506020840135915060408401356133e18161314c565b809150509250925092565b8051825260208101511515602083015260006040820151608060408501526134176080850182613222565b606093840151949093019390935250919050565b6000602082016020835280845180835260408501915060408160051b86010192506020860160005b8281101561348457603f1987860301845261346f8583516133ec565b94506020938401939190910190600101613453565b50929695505050505050565b634e487b7160e01b600052604160045260246000fd5b604051606081016001600160401b03811182821017156134c8576134c8613490565b60405290565b60405160a081016001600160401b03811182821017156134c8576134c8613490565b604051601f8201601f191681016001600160401b038111828210171561351857613518613490565b604052919050565b60006001600160401b0382111561353957613539613490565b50601f01601f191660200190565b600082601f83011261355857600080fd5b813560208301600061357161356c84613520565b6134f0565b905082815285838301111561358557600080fd5b82826020830137600092810160200192909252509392505050565b600082601f8301126135b157600080fd5b81356001600160401b038111156135ca576135ca613490565b8060051b6135da602082016134f0565b918252602081850181019290810190868411156135f657600080fd5b6020860192505b838310156136ae5782356001600160401b0381111561361b57600080fd5b86016060818903601f1901121561363157600080fd5b6136396134a6565b60208201356001600160401b0381111561365257600080fd5b6136618a602083860101613547565b8252506040820135602082015260608201356001600160401b0381111561368757600080fd5b6136968a602083860101613547565b604083015250835250602092830192909101906135fd565b9695505050505050565b600080600080608085870312156136ce57600080fd5b843593506020850135925060408501356136e78161314c565b915060608501356001600160401b0381111561370257600080fd5b61370e878288016135a0565b91505092959194509250565b60008060006060848603121561372f57600080fd5b8335925060208401356001600160401b0381111561374c57600080fd5b84016080818703121561375e57600080fd5b915060408401356133e18161314c565b60008060006040848603121561378357600080fd5b8335925060208401356001600160401b038111156137a057600080fd5b6137ac86828701613104565b9497909650939450505050565b6000602082016020835280845180835260408501915060408160051b86010192506020860160005b8281101561348457603f198786030184526137fd858351613337565b945060209384019391909101906001016137e1565b6000806040838503121561382557600080fd5b8235915060208301356001600160401b0381111561384257600080fd5b61384e85828601613547565b9150509250929050565b60006020828403121561386a57600080fd5b81356001600160401b0381111561388057600080fd5b61388c848285016135a0565b949350505050565b600080604083850312156138a757600080fd5b8235915060208301356001600160401b038111156138c457600080fd5b8301606081860312156130f957600080fd5b6000806000606084860312156138eb57600080fd5b8335925060208401356138fd8161314c565b929592945050506040919091013590565b602081526000611bd160208301846133ec565b602080825282516001600160a01b0316828201528201516060604083015260009061394f6080840182613222565b90506040840151151560608401528091505092915050565b6000806000806080858703121561397d57600080fd5b843593506020850135925060408501356139968161314c565b915060608501356001600160401b038111156139b157600080fd5b61370e87828801613547565b600080604083850312156139d057600080fd5b8235915060208301356001600160401b038111156139ed57600080fd5b61384e858286016135a0565b6000602082016020835280845180835260408501915060408160051b86010192506020860160005b8281101561348457603f198786030184528151805160608752613a476060880182613222565b905060208201516020880152604082015191508681036040880152613a6c8183613222565b965050506020938401939190910190600101613a21565b600060208284031215613a9557600080fd5b8135611bd18161314c565b6000808335601e19843603018112613ab757600080fd5b8301803591506001600160401b03821115613ad157600080fd5b60200191503681900382131561314557600080fd5b81835281816020850137506000828201602090810191909152601f909101601f19169091010190565b604081526000613b23604083018486613ae6565b828103602084015260128152711b9d5b1b1a599a595c94d95cdcda5bdb925160721b6020820152604081019150509392505050565b600082601f830112613b6957600080fd5b8151613b7761356c82613520565b818152846020838601011115613b8c57600080fd5b61388c8260208301602087016131fe565b600060208284031215613baf57600080fd5b81516001600160401b03811115613bc557600080fd5b820160408185031215613bd757600080fd5b604080519081016001600160401b0381118282101715613bf957613bf9613490565b60405281516001600160401b03811115613c1257600080fd5b613c1e86828501613b58565b825250602091820151918101919091529392505050565b8284823760609190911b6bffffffffffffffffffffffff19169101908152601401919050565b634e487b7160e01b600052601160045260246000fd5b808201808211156104c3576104c3613c5b565b604081526000613c98604083018486613ae6565b8281036020840152600a8152691d995c9a599a595c925160b21b6020820152604081019150509392505050565b600181811c90821680613cd957607f821691505b602082108103613cf957634e487b7160e01b600052602260045260246000fd5b50919050565b634e487b7160e01b600052603260045260246000fd5b60008235609e19833603018112613d2b57600080fd5b9190910192915050565b604081526000613d49604083018486613ae6565b82810360208401526132af81600781526619dc9bdd5c125160ca1b602082015260400190565b600060a08236031215613d8157600080fd5b613d896134ce565b8235815260208301356001600160401b03811115613da657600080fd5b613db236828601613547565b6020830152506040830135613dc68161314c565b604082015260608301356001600160401b03811115613de457600080fd5b613df036828601613547565b6060830152506080830135613e048161314c565b608082015292915050565b600060018201613e2157613e21613c5b565b5060010190565b60008351613e3a8184602088016131fe565b9190910191825250602001919050565b818103818111156104c3576104c3613c5b565b600060208284031215613e6f57600080fd5b81516001600160401b03811115613e8557600080fd5b61388c84828501613b58565b5b81811015613ea65760008155600101613e92565b5050565b601f8211156105af57806000526020600020601f840160051c81016020851015613ed15750805b610696601f850160051c830182613e91565b81516001600160401b03811115613efc57613efc613490565b613f1081613f0a8454613cc5565b84613eaa565b6020601f821160018114613f445760008315613f2c5750848201515b600019600385901b1c1916600184901b178455610696565b600084815260208120601f198516915b82811015613f745787850151825560209485019460019092019101613f54565b5084821015613f925786840151600019600387901b60f8161c191681555b50505050600190811b01905550565b60008251613d2b8184602087016131fe565b8381526001600160a01b03831660208201526060604082018190526000906132af90830184613222565b6000808335601e19843603018112613ff457600080fd5b8301803591506001600160401b0382111561400e57600080fd5b6020019150600581901b360382131561314557600080fd5b60006001600160fb1b0383111561403c57600080fd5b8260051b80838637939093019392505050565b600061406661405f83888a614026565b8587614026565b60609390931b6bffffffffffffffffffffffff191683525050601401949350505050565b6001600160401b038311156140a1576140a1613490565b600160401b8311156140b5576140b5613490565b8054838255808410156140db578160005260206000206140d9828201868301613e91565b505b508181600052602060002060005b85811015614105578235828201556020909201916001016140e9565b505050505050565b6001600160401b0383111561412457614124613490565b614138836141328354613cc5565b83613eaa565b6000601f84116001811461416c57600085156141545750838201355b600019600387901b1c1916600186901b178355610696565b600083815260209020601f19861690835b8281101561419d578685013582556020948501946001909201910161417d565b50868210156141ba5760001960f88860031b161c19848701351681555b505060018560011b0183555050505050565b81358155600181016141e16020840184613fdd565b6001600160401b038111156141f8576141f8613490565b600160401b81111561420c5761420c613490565b82548184558082101561423257836000526020600020614230828201848301613e91565b505b50600092835260208320925b8181101561425a5782358482015560209092019160010161423e565b5050505061426b6040830183613fdd565b61427981836002860161408a565b50506142886060830183613aa0565b61102e81836003860161410d565b602081526000611bd16020830184613222565b8183823760009101908152919050565b60008083546142c781613cc5565b6001821680156142de57600181146142f357614323565b60ff1983168652811515820286019350614323565b86600052602060002060005b8381101561431b578154888201526001909101906020016142ff565b505081860193505b509195945050505050565b60006020828403121561434057600080fd5b5051919050565b60408152600080835461435981613cc5565b80604086015260018216600081146143785760018114614394576143c8565b60ff1983166060870152606082151560051b87010193506143c8565b86600052602060002060005b838110156143bf578154888201606001526001909101906020016143a0565b87016060019450505b505050828103602084015261388c81600781526619dc9bdd5c125160ca1b60208201526040019056fea26469706673582212203fc13773a8b09cfce4eaefbdae713bb086e70b021bb2c00fc64a91b50d113e2c64736f6c634300081b0033",
  "linkReferences": {},
  "deployedLinkReferences": {}
}