{
  "_format": "hh-sol-artifact-1",
  "contractName": "AuthV2Validator",
  "sourceName": "contracts/validators/auth/AuthV2Validator.sol",
  "abi": [
    {
      "inputs": [],
      "stateMutability": "nonpayable",
      "type": "constructor"
    },
    {
      "inputs": [],
      "name": "GistRootIsExpired",
      "type": "error"
    },
    {
      "inputs": [],
      "name": "InvalidInitialization",
      "type": "error"
    },
    {
      "inputs": [],
      "name": "NotInitializing",
      "type": "error"
    },
    {
      "inputs": [
        {
          "internalType": "address",
          "name": "owner",
          "type": "address"
        }
      ],
      "name": "OwnableInvalidOwner",
      "type": "error"
    },
    {
      "inputs": [
        {
          "internalType": "address",
          "name": "account",
          "type": "address"
        }
      ],
      "name": "OwnableUnauthorizedAccount",
      "type": "error"
    },
    {
      "inputs": [],
      "name": "ProofIsNotValid",
      "type": "error"
    },
    {
      "inputs": [],
      "name": "VerifierAddressShouldNotBeZero",
      "type": "error"
    },
    {
      "anonymous": false,
      "inputs": [
        {
          "indexed": false,
          "internalType": "uint64",
          "name": "version",
          "type": "uint64"
        }
      ],
      "name": "Initialized",
      "type": "event"
    },
    {
      "anonymous": false,
      "inputs": [
        {
          "indexed": true,
          "internalType": "address",
          "name": "previousOwner",
          "type": "address"
        },
        {
          "indexed": true,
          "internalType": "address",
          "name": "newOwner",
          "type": "address"
        }
      ],
      "name": "OwnershipTransferStarted",
      "type": "event"
    },
    {
      "anonymous": false,
      "inputs": [
        {
          "indexed": true,
          "internalType": "address",
          "name": "previousOwner",
          "type": "address"
        },
        {
          "indexed": true,
          "internalType": "address",
          "name": "newOwner",
          "type": "address"
        }
      ],
      "name": "OwnershipTransferred",
      "type": "event"
    },
    {
      "inputs": [],
      "name": "VERSION",
      "outputs": [
        {
          "internalType": "string",
          "name": "",
          "type": "string"
        }
      ],
      "stateMutability": "view",
      "type": "function"
    },
    {
      "inputs": [],
      "name": "acceptOwnership",
      "outputs": [],
      "stateMutability": "nonpayable",
      "type": "function"
    },
    {
      "inputs": [],
      "name": "getGISTRootExpirationTimeout",
      "outputs": [
        {
          "internalType": "uint256",
          "name": "",
          "type": "uint256"
        }
      ],
      "stateMutability": "view",
      "type": "function"
    },
    {
      "inputs": [],
      "name": "getProofExpirationTimeout",
      "outputs": [
        {
          "internalType": "uint256",
          "name": "",
          "type": "uint256"
        }
      ],
      "stateMutability": "view",
      "type": "function"
    },
    {
      "inputs": [],
      "name": "getRevocationStateExpirationTimeout",
      "outputs": [
        {
          "internalType": "uint256",
          "name": "",
          "type": "uint256"
        }
      ],
      "stateMutability": "view",
      "type": "function"
    },
    {
      "inputs": [
        {
          "internalType": "string",
          "name": "circuitId",
          "type": "string"
        }
      ],
      "name": "getVerifierByCircuitId",
      "outputs": [
        {
          "internalType": "contract IGroth16Verifier",
          "name": "",
          "type": "address"
        }
      ],
      "stateMutability": "view",
      "type": "function"
    },
    {
      "inputs": [
        {
          "internalType": "address",
          "name": "_stateContractAddr",
          "type": "address"
        },
        {
          "internalType": "address",
          "name": "_verifierContractAddr",
          "type": "address"
        },
        {
          "internalType": "address",
          "name": "owner",
          "type": "address"
        }
      ],
      "name": "initialize",
      "outputs": [],
      "stateMutability": "nonpayable",
      "type": "function"
    },
    {
      "inputs": [],
      "name": "owner",
      "outputs": [
        {
          "internalType": "address",
          "name": "",
          "type": "address"
        }
      ],
      "stateMutability": "view",
      "type": "function"
    },
    {
      "inputs": [
        {
          "internalType": "uint256[]",
          "name": "inputs",
          "type": "uint256[]"
        }
      ],
      "name": "parsePubSignals",
      "outputs": [
        {
          "components": [
            {
              "internalType": "uint256",
              "name": "userID",
              "type": "uint256"
            },
            {
              "internalType": "uint256",
              "name": "challenge",
              "type": "uint256"
            },
            {
              "internalType": "uint256",
              "name": "gistRoot",
              "type": "uint256"
            }
          ],
          "internalType": "struct AuthV2Validator.PubSignals",
          "name": "",
          "type": "tuple"
        }
      ],
      "stateMutability": "pure",
      "type": "function"
    },
    {
      "inputs": [],
      "name": "pendingOwner",
      "outputs": [
        {
          "internalType": "address",
          "name": "",
          "type": "address"
        }
      ],
      "stateMutability": "view",
      "type": "function"
    },
    {
      "inputs": [],
      "name": "renounceOwnership",
      "outputs": [],
      "stateMutability": "nonpayable",
      "type": "function"
    },
    {
      "inputs": [
        {
          "internalType": "uint256",
          "name": "expirationTimeout",
          "type": "uint256"
        }
      ],
      "name": "setGISTRootExpirationTimeout",
      "outputs": [],
      "stateMutability": "nonpayable",
      "type": "function"
    },
    {
      "inputs": [
        {
          "internalType": "uint256",
          "name": "expirationTimeout",
          "type": "uint256"
        }
      ],
      "name": "setProofExpirationTimeout",
      "outputs": [],
      "stateMutability": "nonpayable",
      "type": "function"
    },
    {
      "inputs": [
        {
          "internalType": "uint256",
          "name": "expirationTimeout",
          "type": "uint256"
        }
      ],
      "name": "setRevocationStateExpirationTimeout",
      "outputs": [],
      "stateMutability": "nonpayable",
      "type": "function"
    },
    {
      "inputs": [
        {
          "internalType": "bytes4",
          "name": "interfaceId",
          "type": "bytes4"
        }
      ],
      "name": "supportsInterface",
      "outputs": [
        {
          "internalType": "bool",
          "name": "",
          "type": "bool"
        }
      ],
      "stateMutability": "view",
      "type": "function"
    },
    {
      "inputs": [
        {
          "internalType": "address",
          "name": "newOwner",
          "type": "address"
        }
      ],
      "name": "transferOwnership",
      "outputs": [],
      "stateMutability": "nonpayable",
      "type": "function"
    },
    {
      "inputs": [
        {
          "internalType": "address",
          "name": "sender",
          "type": "address"
        },
        {
          "internalType": "bytes",
          "name": "proof",
          "type": "bytes"
        },
        {
          "internalType": "bytes",
          "name": "params",
          "type": "bytes"
        }
      ],
      "name": "verify",
      "outputs": [
        {
          "internalType": "uint256",
          "name": "userID",
          "type": "uint256"
        },
        {
          "components": [
            {
              "internalType": "string",
              "name": "name",
              "type": "string"
            },
            {
              "internalType": "uint256",
              "name": "value",
              "type": "uint256"
            }
          ],
          "internalType": "struct IAuthValidator.AuthResponseField[]",
          "name": "",
          "type": "tuple[]"
        }
      ],
      "stateMutability": "view",
      "type": "function"
    },
    {
      "inputs": [],
      "name": "version",
      "outputs": [
        {
          "internalType": "string",
          "name": "",
          "type": "string"
        }
      ],
      "stateMutability": "pure",
      "type": "function"
    }
  ],
  "bytecode": "0x608060405234801561001057600080fd5b5061001f61002460201b60201c565b61018e565b600061003461012860201b60201c565b90508060000160089054906101000a900460ff161561007f576040517ff92ee8a900000000000000000000000000000000000000000000000000000000815260040160405180910390fd5b67ffffffffffffffff80168160000160009054906101000a900467ffffffffffffffff1667ffffffffffffffff16146101255767ffffffffffffffff8160000160006101000a81548167ffffffffffffffff021916908367ffffffffffffffff1602179055507fc7f505b2f371ae2175ee4913f4499e1f2633a7b5936321eed1cdaeb6115181d267ffffffffffffffff60405161011c9190610173565b60405180910390a15b50565b60007ff0c57e16840df040f15088dc2f81fe391c3923bec73e23a9662efc9c229c6a00905090565b600067ffffffffffffffff82169050919050565b61016d81610150565b82525050565b60006020820190506101886000830184610164565b92915050565b6127c78061019d6000396000f3fe608060405234801561001057600080fd5b50600436106101165760003560e01c80638c952748116100a2578063c0c53b8b11610071578063c0c53b8b146102aa578063e30c3978146102c6578063f2fde38b146102e4578063f718c58614610300578063ffa1ad741461033057610116565b80638c952748146102205780638da5cb5b14610250578063af4c4fd51461026e578063ba47e32a1461028c57610116565b80635ade6633116100e95780635ade6633146101a1578063652377dc146101d2578063715018a6146101ee57806379ba5097146101f85780638c752c751461020257610116565b806301ffc9a71461011b5780631134b4801461014b57806348d369201461016757806354fd4d5014610183575b600080fd5b610135600480360381019061013091906114eb565b61034e565b6040516101429190611533565b60405180910390f35b61016560048036038101906101609190611584565b6103c8565b005b610181600480360381019061017c9190611584565b6103e3565b005b61018b6103fe565b6040516101989190611641565b60405180910390f35b6101bb60048036038101906101b69190611726565b61043b565b6040516101c9929190611922565b60405180910390f35b6101ec60048036038101906101e79190611584565b610567565b005b6101f6610582565b005b610200610596565b005b61020a610625565b6040516102179190611952565b60405180910390f35b61023a60048036038101906102359190611a9d565b610638565b6040516102479190611b45565b60405180910390f35b610258610689565b6040516102659190611b6f565b60405180910390f35b6102766106c1565b6040516102839190611952565b60405180910390f35b6102946106d4565b6040516102a19190611952565b60405180910390f35b6102c460048036038101906102bf9190611b8a565b6106e7565b005b6102ce6108b0565b6040516102db9190611b6f565b60405180910390f35b6102fe60048036038101906102f99190611bdd565b6108e8565b005b61031a60048036038101906103159190611ccd565b6109a4565b6040516103279190611d58565b60405180910390f35b610338610a25565b6040516103459190611641565b60405180910390f35b60007f0e232b63000000000000000000000000000000000000000000000000000000007bffffffffffffffffffffffffffffffffffffffffffffffffffffffff1916827bffffffffffffffffffffffffffffffffffffffffffffffffffffffff191614806103c157506103c082610a5e565b5b9050919050565b6103d0610ac8565b806103d9610b4f565b6005018190555050565b6103eb610ac8565b806103f4610b4f565b6004018190555050565b60606040518060400160405280600581526020017f312e302e30000000000000000000000000000000000000000000000000000000815250905090565b6000606060008060008089898101906104549190611ed5565b93509350935093506000610467856109a4565b905061047b81600001518260400151610b77565b61048785858585610c74565b6000600167ffffffffffffffff8111156104a4576104a3611972565b5b6040519080825280602002602001820160405280156104dd57816020015b6104ca61136a565b8152602001906001900390816104c25790505b50905060405180604001604052806040518060400160405280600981526020017f6368616c6c656e67650000000000000000000000000000000000000000000000815250815260200183602001518152508160008151811061054257610541611f59565b5b6020026020010181905250816000015181975097505050505050509550959350505050565b61056f610ac8565b80610578610b4f565b6003018190555050565b61058a610ac8565b6105946000610dd9565b565b60006105a0610e19565b90508073ffffffffffffffffffffffffffffffffffffffff166105c16108b0565b73ffffffffffffffffffffffffffffffffffffffff161461061957806040517f118cdaa70000000000000000000000000000000000000000000000000000000081526004016106109190611b6f565b60405180910390fd5b61062281610dd9565b50565b600061062f610b4f565b60050154905090565b6000610642610b4f565b600001826040516106539190611fc4565b908152602001604051809103902060009054906101000a900473ffffffffffffffffffffffffffffffffffffffff169050919050565b600080610694610e21565b90508060000160009054906101000a900473ffffffffffffffffffffffffffffffffffffffff1691505090565b60006106cb610b4f565b60030154905090565b60006106de610b4f565b60040154905090565b60006106f1610e49565b905060008160000160089054906101000a900460ff1615905060008260000160009054906101000a900467ffffffffffffffff1690506000808267ffffffffffffffff1614801561073f5750825b9050600060018367ffffffffffffffff16148015610774575060003073ffffffffffffffffffffffffffffffffffffffff163b145b905081158015610782575080155b156107b9576040517ff92ee8a900000000000000000000000000000000000000000000000000000000815260040160405180910390fd5b60018560000160006101000a81548167ffffffffffffffff021916908367ffffffffffffffff16021790555083156108095760018560000160086101000a81548160ff0219169083151502179055505b61084a88886040518060400160405280600681526020017f617574685632000000000000000000000000000000000000000000000000000081525089610e71565b83156108a65760008560000160086101000a81548160ff0219169083151502179055507fc7f505b2f371ae2175ee4913f4499e1f2633a7b5936321eed1cdaeb6115181d2600160405161089d919061202a565b60405180910390a15b5050505050505050565b6000806108bb610f72565b90508060000160009054906101000a900473ffffffffffffffffffffffffffffffffffffffff1691505090565b6108f0610ac8565b60006108fa610f72565b9050818160000160006101000a81548173ffffffffffffffffffffffffffffffffffffffff021916908373ffffffffffffffffffffffffffffffffffffffff1602179055508173ffffffffffffffffffffffffffffffffffffffff1661095e610689565b73ffffffffffffffffffffffffffffffffffffffff167f38d16b8cac22d99fc7c124b9cd0de2d3fa1faef420bfe791d8c362d765e2270060405160405180910390a35050565b6109ac611384565b60006040518060600160405280846000815181106109cd576109cc611f59565b5b60200260200101518152602001846001815181106109ee576109ed611f59565b5b6020026020010151815260200184600281518110610a0f57610a0e611f59565b5b6020026020010151815250905080915050919050565b6040518060400160405280600581526020017f312e302e3000000000000000000000000000000000000000000000000000000081525081565b60007f01ffc9a7000000000000000000000000000000000000000000000000000000007bffffffffffffffffffffffffffffffffffffffffffffffffffffffff1916827bffffffffffffffffffffffffffffffffffffffffffffffffffffffff1916149050919050565b610ad0610e19565b73ffffffffffffffffffffffffffffffffffffffff16610aee610689565b73ffffffffffffffffffffffffffffffffffffffff1614610b4d57610b11610e19565b6040517f118cdaa7000000000000000000000000000000000000000000000000000000008152600401610b449190611b6f565b60405180910390fd5b565b60007f5212d71c1540b1d75013e45246a2b44f2ee9363a102ea02fac1792932b691600905090565b6000610b81610b4f565b90506000610b8e84610f9a565b90506000610b9a610fbd565b73ffffffffffffffffffffffffffffffffffffffff16630a7a546983866040518363ffffffff1660e01b8152600401610bd4929190612080565b602060405180830381865afa158015610bf1573d6000803e3d6000fd5b505050506040513d601f19601f82011682018060405250810190610c1591906120be565b905060008114158015610c365750808360050154610c33919061211a565b42115b15610c6d576040517f3e33ca0600000000000000000000000000000000000000000000000000000000815260040160405180910390fd5b5050505050565b6000610cb46040518060400160405280600681526020017f6175746856320000000000000000000000000000000000000000000000000000815250610638565b9050600073ffffffffffffffffffffffffffffffffffffffff168173ffffffffffffffffffffffffffffffffffffffff1603610d1c576040517f01924e0400000000000000000000000000000000000000000000000000000000815260040160405180910390fd5b8073ffffffffffffffffffffffffffffffffffffffff16632612907c858585896040518563ffffffff1660e01b8152600401610d5b949392919061237f565b602060405180830381865afa158015610d78573d6000803e3d6000fd5b505050506040513d601f19601f82011682018060405250810190610d9c91906123f9565b610dd2576040517f39c40f4f00000000000000000000000000000000000000000000000000000000815260040160405180910390fd5b5050505050565b6000610de3610f72565b90508060000160006101000a81549073ffffffffffffffffffffffffffffffffffffffff0219169055610e1582610ff0565b5050565b600033905090565b60007f9016d09d72d40fdae2fd8ceac6b6234c7706214fd39c1cd1e609a0528c199300905090565b60007ff0c57e16840df040f15088dc2f81fe391c3923bec73e23a9662efc9c229c6a00905090565b6000610e7b610b4f565b9050610e108160030181905550610e108160040181905550610e10816005018190555060405180602001604052808481525081600101906001610ebf9291906113a5565b50838160000184604051610ed39190611fc4565b908152602001604051809103902060006101000a81548173ffffffffffffffffffffffffffffffffffffffff021916908373ffffffffffffffffffffffffffffffffffffffff160217905550848160020160006101000a81548173ffffffffffffffffffffffffffffffffffffffff021916908373ffffffffffffffffffffffffffffffffffffffff160217905550610f6b826110c7565b5050505050565b60007f237e158222e3e6968b72b9db0d8043aacf074ad9f650f0d1606b4d82ee432c00905090565b6000610fad610fa8836110db565b611227565b610fb690612463565b9050919050565b6000610fc7610b4f565b60020160009054906101000a900473ffffffffffffffffffffffffffffffffffffffff16905090565b6000610ffa610e21565b905060008160000160009054906101000a900473ffffffffffffffffffffffffffffffffffffffff169050828260000160006101000a81548173ffffffffffffffffffffffffffffffffffffffff021916908373ffffffffffffffffffffffffffffffffffffffff1602179055508273ffffffffffffffffffffffffffffffffffffffff168173ffffffffffffffffffffffffffffffffffffffff167f8be0079c531659141344cd1fd0a4f28419497f9722a3daafe3b4186f6b6457e060405160405180910390a3505050565b6110cf611284565b6110d8816112c4565b50565b600081905060087eff00ff00ff00ff00ff00ff00ff00ff00ff00ff00ff00ff00ff00ff00ff00ff8216901b60087fff00ff00ff00ff00ff00ff00ff00ff00ff00ff00ff00ff00ff00ff00ff00ff008316901c17905060107dffff0000ffff0000ffff0000ffff0000ffff0000ffff0000ffff0000ffff8216901b60107fffff0000ffff0000ffff0000ffff0000ffff0000ffff0000ffff0000ffff00008316901c17905060207bffffffff00000000ffffffff00000000ffffffff00000000ffffffff8216901b60207fffffffff00000000ffffffff00000000ffffffff00000000ffffffff000000008316901c179050604077ffffffffffffffff0000000000000000ffffffffffffffff8216901b60407fffffffffffffffff0000000000000000ffffffffffffffff00000000000000008316901c179050608081901b608082901c179050919050565b6060602067ffffffffffffffff81111561124457611243611972565b5b6040519080825280601f01601f1916602001820160405280156112765781602001600182028036833780820191505090505b509050816020820152919050565b61128c61134a565b6112c2576040517fd7e6bcf800000000000000000000000000000000000000000000000000000000815260040160405180910390fd5b565b6112cc611284565b600073ffffffffffffffffffffffffffffffffffffffff168173ffffffffffffffffffffffffffffffffffffffff160361133e5760006040517f1e4fbdf70000000000000000000000000000000000000000000000000000000081526004016113359190611b6f565b60405180910390fd5b61134781610dd9565b50565b6000611354610e49565b60000160089054906101000a900460ff16905090565b604051806040016040528060608152602001600081525090565b60405180606001604052806000815260200160008152602001600081525090565b8280548282559060005260206000209081019282156113ed579160200282015b828111156113ec5782518290816113dc91906126bf565b50916020019190600101906113c5565b5b5090506113fa91906113fe565b5090565b5b8082111561141e57600081816114159190611422565b506001016113ff565b5090565b50805461142e906124f9565b6000825580601f10611440575061145f565b601f01602090049060005260206000209081019061145e9190611462565b5b50565b5b8082111561147b576000816000905550600101611463565b5090565b6000604051905090565b600080fd5b600080fd5b60007fffffffff0000000000000000000000000000000000000000000000000000000082169050919050565b6114c881611493565b81146114d357600080fd5b50565b6000813590506114e5816114bf565b92915050565b60006020828403121561150157611500611489565b5b600061150f848285016114d6565b91505092915050565b60008115159050919050565b61152d81611518565b82525050565b60006020820190506115486000830184611524565b92915050565b6000819050919050565b6115618161154e565b811461156c57600080fd5b50565b60008135905061157e81611558565b92915050565b60006020828403121561159a57611599611489565b5b60006115a88482850161156f565b91505092915050565b600081519050919050565b600082825260208201905092915050565b60005b838110156115eb5780820151818401526020810190506115d0565b60008484015250505050565b6000601f19601f8301169050919050565b6000611613826115b1565b61161d81856115bc565b935061162d8185602086016115cd565b611636816115f7565b840191505092915050565b6000602082019050818103600083015261165b8184611608565b905092915050565b600073ffffffffffffffffffffffffffffffffffffffff82169050919050565b600061168e82611663565b9050919050565b61169e81611683565b81146116a957600080fd5b50565b6000813590506116bb81611695565b92915050565b600080fd5b600080fd5b600080fd5b60008083601f8401126116e6576116e56116c1565b5b8235905067ffffffffffffffff811115611703576117026116c6565b5b60208301915083600182028301111561171f5761171e6116cb565b5b9250929050565b60008060008060006060868803121561174257611741611489565b5b6000611750888289016116ac565b955050602086013567ffffffffffffffff8111156117715761177061148e565b5b61177d888289016116d0565b9450945050604086013567ffffffffffffffff8111156117a05761179f61148e565b5b6117ac888289016116d0565b92509250509295509295909350565b6117c48161154e565b82525050565b600081519050919050565b600082825260208201905092915050565b6000819050602082019050919050565b600082825260208201905092915050565b6000611812826115b1565b61181c81856117f6565b935061182c8185602086016115cd565b611835816115f7565b840191505092915050565b6118498161154e565b82525050565b6000604083016000830151848203600086015261186c8282611807565b91505060208301516118816020860182611840565b508091505092915050565b6000611898838361184f565b905092915050565b6000602082019050919050565b60006118b8826117ca565b6118c281856117d5565b9350836020820285016118d4856117e6565b8060005b8581101561191057848403895281516118f1858261188c565b94506118fc836118a0565b925060208a019950506001810190506118d8565b50829750879550505050505092915050565b600060408201905061193760008301856117bb565b818103602083015261194981846118ad565b90509392505050565b600060208201905061196760008301846117bb565b92915050565b600080fd5b7f4e487b7100000000000000000000000000000000000000000000000000000000600052604160045260246000fd5b6119aa826115f7565b810181811067ffffffffffffffff821117156119c9576119c8611972565b5b80604052505050565b60006119dc61147f565b90506119e882826119a1565b919050565b600067ffffffffffffffff821115611a0857611a07611972565b5b611a11826115f7565b9050602081019050919050565b82818337600083830152505050565b6000611a40611a3b846119ed565b6119d2565b905082815260208101848484011115611a5c57611a5b61196d565b5b611a67848285611a1e565b509392505050565b600082601f830112611a8457611a836116c1565b5b8135611a94848260208601611a2d565b91505092915050565b600060208284031215611ab357611ab2611489565b5b600082013567ffffffffffffffff811115611ad157611ad061148e565b5b611add84828501611a6f565b91505092915050565b6000819050919050565b6000611b0b611b06611b0184611663565b611ae6565b611663565b9050919050565b6000611b1d82611af0565b9050919050565b6000611b2f82611b12565b9050919050565b611b3f81611b24565b82525050565b6000602082019050611b5a6000830184611b36565b92915050565b611b6981611683565b82525050565b6000602082019050611b846000830184611b60565b92915050565b600080600060608486031215611ba357611ba2611489565b5b6000611bb1868287016116ac565b9350506020611bc2868287016116ac565b9250506040611bd3868287016116ac565b9150509250925092565b600060208284031215611bf357611bf2611489565b5b6000611c01848285016116ac565b91505092915050565b600067ffffffffffffffff821115611c2557611c24611972565b5b602082029050602081019050919050565b6000611c49611c4484611c0a565b6119d2565b90508083825260208201905060208402830185811115611c6c57611c6b6116cb565b5b835b81811015611c955780611c81888261156f565b845260208401935050602081019050611c6e565b5050509392505050565b600082601f830112611cb457611cb36116c1565b5b8135611cc4848260208601611c36565b91505092915050565b600060208284031215611ce357611ce2611489565b5b600082013567ffffffffffffffff811115611d0157611d0061148e565b5b611d0d84828501611c9f565b91505092915050565b606082016000820151611d2c6000850182611840565b506020820151611d3f6020850182611840565b506040820151611d526040850182611840565b50505050565b6000606082019050611d6d6000830184611d16565b92915050565b600067ffffffffffffffff821115611d8e57611d8d611972565b5b602082029050919050565b6000611dac611da784611d73565b6119d2565b90508060208402830185811115611dc657611dc56116cb565b5b835b81811015611def5780611ddb888261156f565b845260208401935050602081019050611dc8565b5050509392505050565b600082601f830112611e0e57611e0d6116c1565b5b6002611e1b848285611d99565b91505092915050565b600067ffffffffffffffff821115611e3f57611e3e611972565b5b602082029050919050565b6000611e5d611e5884611e24565b6119d2565b90508060408402830185811115611e7757611e766116cb565b5b835b81811015611ea05780611e8c8882611df9565b845260208401935050604081019050611e79565b5050509392505050565b600082601f830112611ebf57611ebe6116c1565b5b6002611ecc848285611e4a565b91505092915050565b6000806000806101208587031215611ef057611eef611489565b5b600085013567ffffffffffffffff811115611f0e57611f0d61148e565b5b611f1a87828801611c9f565b9450506020611f2b87828801611df9565b9350506060611f3c87828801611eaa565b92505060e0611f4d87828801611df9565b91505092959194509250565b7f4e487b7100000000000000000000000000000000000000000000000000000000600052603260045260246000fd5b600081905092915050565b6000611f9e826115b1565b611fa88185611f88565b9350611fb88185602086016115cd565b80840191505092915050565b6000611fd08284611f93565b915081905092915050565b6000819050919050565b600067ffffffffffffffff82169050919050565b600061201461200f61200a84611fdb565b611ae6565b611fe5565b9050919050565b61202481611ff9565b82525050565b600060208201905061203f600083018461201b565b92915050565b60007fffff00000000000000000000000000000000000000000000000000000000000082169050919050565b61207a81612045565b82525050565b60006040820190506120956000830185612071565b6120a260208301846117bb565b9392505050565b6000815190506120b881611558565b92915050565b6000602082840312156120d4576120d3611489565b5b60006120e2848285016120a9565b91505092915050565b7f4e487b7100000000000000000000000000000000000000000000000000000000600052601160045260246000fd5b60006121258261154e565b91506121308361154e565b9250828201905080821115612148576121476120eb565b5b92915050565b600060029050919050565b600081905092915050565b6000819050919050565b600061217a8383611840565b60208301905092915050565b6000602082019050919050565b61219c8161214e565b6121a68184612159565b92506121b182612164565b8060005b838110156121e25781516121c9878261216e565b96506121d483612186565b9250506001810190506121b5565b505050505050565b600060029050919050565b600081905092915050565b6000819050919050565b600081905092915050565b61221e8161214e565b612228818461220a565b925061223382612164565b8060005b8381101561226457815161224b878261216e565b965061225683612186565b925050600181019050612237565b505050505050565b60006122788383612215565b60408301905092915050565b6000602082019050919050565b61229a816121ea565b6122a481846121f5565b92506122af82612200565b8060005b838110156122e05781516122c7878261226c565b96506122d283612284565b9250506001810190506122b3565b505050505050565b600081519050919050565b600082825260208201905092915050565b6000819050602082019050919050565b6000602082019050919050565b600061232c826122e8565b61233681856122f3565b935061234183612304565b8060005b83811015612372578151612359888261216e565b975061236483612314565b925050600181019050612345565b5085935050505092915050565b6000610120820190506123956000830187612193565b6123a26040830186612291565b6123af60c0830185612193565b8181036101008301526123c28184612321565b905095945050505050565b6123d681611518565b81146123e157600080fd5b50565b6000815190506123f3816123cd565b92915050565b60006020828403121561240f5761240e611489565b5b600061241d848285016123e4565b91505092915050565b600081519050919050565b6000819050602082019050919050565b600061244d8251612045565b80915050919050565b600082821b905092915050565b600061246e82612426565b8261247884612431565b905061248381612441565b925060028210156124c3576124be7fffff00000000000000000000000000000000000000000000000000000000000083600203600802612456565b831692505b5050919050565b7f4e487b7100000000000000000000000000000000000000000000000000000000600052602260045260246000fd5b6000600282049050600182168061251157607f821691505b602082108103612524576125236124ca565b5b50919050565b60008190508160005260206000209050919050565b60006020601f8301049050919050565b60006008830261257f7fffffffffffffffffffffffffffffffffffffffffffffffffffffffffffffffff82612456565b6125898683612456565b95508019841693508086168417925050509392505050565b60006125bc6125b76125b28461154e565b611ae6565b61154e565b9050919050565b6000819050919050565b6125d6836125a1565b6125ea6125e2826125c3565b84845461254f565b825550505050565b600090565b6125ff6125f2565b61260a8184846125cd565b505050565b5b8181101561262e576126236000826125f7565b600181019050612610565b5050565b601f821115612673576126448161252a565b61264d8461253f565b8101602085101561265c578190505b6126706126688561253f565b83018261260f565b50505b505050565b600082821c905092915050565b600061269660001984600802612678565b1980831691505092915050565b60006126af8383612685565b9150826002028217905092915050565b6126c8826115b1565b67ffffffffffffffff8111156126e1576126e0611972565b5b6126eb82546124f9565b6126f6828285612632565b600060209050601f8311600181146127295760008415612717578287015190505b61272185826126a3565b865550612789565b601f1984166127378661252a565b60005b8281101561275f5784890151825560018201915060208501945060208101905061273a565b8683101561277c5784890151612778601f891682612685565b8355505b6001600288020188555050505b50505050505056fea2646970667358221220ef18f982a6ba1202ce16e8a505722c96b36fce66138b052af54ee05df822e26364736f6c634300081b0033",
  "linkReferences": {},
  "deployedLinkReferences": {}
}