{
  "_format": "hh-sol-artifact-1",
  "contractName": "CredentialAtomicQueryMTPV2Validator",
  "sourceName": "contracts/validators/request/CredentialAtomicQueryMTPV2Validator.sol",
  "abi": [
    {
      "inputs": [],
      "name": "ChallengeShouldMatchTheSender",
      "type": "error"
    },
    {
      "inputs": [],
      "name": "CircuitsLengthShouldBeOne",
      "type": "error"
    },
    {
      "inputs": [],
      "name": "GeneratedProofIsOutdated",
      "type": "error"
    },
    {
      "inputs": [],
      "name": "GistRootIsExpired",
      "type": "error"
    },
    {
      "inputs": [
        {
          "internalType": "uint256",
          "name": "input",
          "type": "uint256"
        }
      ],
      "name": "GivenInputNotAnAddressRepresentation",
      "type": "error"
    },
    {
      "inputs": [
        {
          "internalType": "string",
          "name": "circuitId",
          "type": "string"
        }
      ],
      "name": "Groth16VerifierAddressIsZero",
      "type": "error"
    },
    {
      "inputs": [
        {
          "internalType": "string",
          "name": "circuitId",
          "type": "string"
        }
      ],
      "name": "Groth16VerifierAlreadySet",
      "type": "error"
    },
    {
      "inputs": [],
      "name": "InputNameNotFound",
      "type": "error"
    },
    {
      "inputs": [],
      "name": "InvalidInitialization",
      "type": "error"
    },
    {
      "inputs": [],
      "name": "IssuerIsNotOnTheAllowedIssuersList",
      "type": "error"
    },
    {
      "inputs": [],
      "name": "MerklizedValueIsNotCorrect",
      "type": "error"
    },
    {
      "inputs": [],
      "name": "NonRevocationStateOfIssuerIsExpired",
      "type": "error"
    },
    {
      "inputs": [],
      "name": "NotInitializing",
      "type": "error"
    },
    {
      "inputs": [
        {
          "internalType": "address",
          "name": "owner",
          "type": "address"
        }
      ],
      "name": "OwnableInvalidOwner",
      "type": "error"
    },
    {
      "inputs": [
        {
          "internalType": "address",
          "name": "account",
          "type": "address"
        }
      ],
      "name": "OwnableUnauthorizedAccount",
      "type": "error"
    },
    {
      "inputs": [],
      "name": "ProofGeneratedInTheFutureIsNotValid",
      "type": "error"
    },
    {
      "inputs": [],
      "name": "ProofIsNotValid",
      "type": "error"
    },
    {
      "inputs": [
        {
          "internalType": "uint256",
          "name": "expected",
          "type": "uint256"
        },
        {
          "internalType": "uint256",
          "name": "actual",
          "type": "uint256"
        }
      ],
      "name": "QueryHashDoesNotMatchTheRequestedOne",
      "type": "error"
    },
    {
      "inputs": [],
      "name": "RequestParamNameNotFound",
      "type": "error"
    },
    {
      "inputs": [
        {
          "internalType": "uint256",
          "name": "expected",
          "type": "uint256"
        },
        {
          "internalType": "uint256",
          "name": "actual",
          "type": "uint256"
        }
      ],
      "name": "RevocationCheckShouldMatchTheQuery",
      "type": "error"
    },
    {
      "inputs": [],
      "name": "VerifierAddressShouldNotBeZero",
      "type": "error"
    },
    {
      "anonymous": false,
      "inputs": [
        {
          "indexed": false,
          "internalType": "uint64",
          "name": "version",
          "type": "uint64"
        }
      ],
      "name": "Initialized",
      "type": "event"
    },
    {
      "anonymous": false,
      "inputs": [
        {
          "indexed": true,
          "internalType": "address",
          "name": "previousOwner",
          "type": "address"
        },
        {
          "indexed": true,
          "internalType": "address",
          "name": "newOwner",
          "type": "address"
        }
      ],
      "name": "OwnershipTransferStarted",
      "type": "event"
    },
    {
      "anonymous": false,
      "inputs": [
        {
          "indexed": true,
          "internalType": "address",
          "name": "previousOwner",
          "type": "address"
        },
        {
          "indexed": true,
          "internalType": "address",
          "name": "newOwner",
          "type": "address"
        }
      ],
      "name": "OwnershipTransferred",
      "type": "event"
    },
    {
      "inputs": [],
      "name": "VERSION",
      "outputs": [
        {
          "internalType": "string",
          "name": "",
          "type": "string"
        }
      ],
      "stateMutability": "view",
      "type": "function"
    },
    {
      "inputs": [],
      "name": "acceptOwnership",
      "outputs": [],
      "stateMutability": "nonpayable",
      "type": "function"
    },
    {
      "inputs": [],
      "name": "getGISTRootExpirationTimeout",
      "outputs": [
        {
          "internalType": "uint256",
          "name": "",
          "type": "uint256"
        }
      ],
      "stateMutability": "view",
      "type": "function"
    },
    {
      "inputs": [],
      "name": "getProofExpirationTimeout",
      "outputs": [
        {
          "internalType": "uint256",
          "name": "",
          "type": "uint256"
        }
      ],
      "stateMutability": "view",
      "type": "function"
    },
    {
      "inputs": [
        {
          "internalType": "bytes",
          "name": "",
          "type": "bytes"
        },
        {
          "internalType": "string",
          "name": "paramName",
          "type": "string"
        }
      ],
      "name": "getRequestParam",
      "outputs": [
        {
          "components": [
            {
              "internalType": "string",
              "name": "name",
              "type": "string"
            },
            {
              "internalType": "uint256",
              "name": "value",
              "type": "uint256"
            }
          ],
          "internalType": "struct IRequestValidator.RequestParam",
          "name": "",
          "type": "tuple"
        }
      ],
      "stateMutability": "pure",
      "type": "function"
    },
    {
      "inputs": [],
      "name": "getRevocationStateExpirationTimeout",
      "outputs": [
        {
          "internalType": "uint256",
          "name": "",
          "type": "uint256"
        }
      ],
      "stateMutability": "view",
      "type": "function"
    },
    {
      "inputs": [],
      "name": "getStateAddress",
      "outputs": [
        {
          "internalType": "address",
          "name": "",
          "type": "address"
        }
      ],
      "stateMutability": "view",
      "type": "function"
    },
    {
      "inputs": [],
      "name": "getSupportedCircuitIds",
      "outputs": [
        {
          "internalType": "string[]",
          "name": "ids",
          "type": "string[]"
        }
      ],
      "stateMutability": "view",
      "type": "function"
    },
    {
      "inputs": [
        {
          "internalType": "string",
          "name": "circuitId",
          "type": "string"
        }
      ],
      "name": "getVerifierByCircuitId",
      "outputs": [
        {
          "internalType": "contract IGroth16Verifier",
          "name": "",
          "type": "address"
        }
      ],
      "stateMutability": "view",
      "type": "function"
    },
    {
      "inputs": [
        {
          "internalType": "address",
          "name": "_stateContractAddr",
          "type": "address"
        },
        {
          "internalType": "address",
          "name": "_verifierContractAddr",
          "type": "address"
        },
        {
          "internalType": "address",
          "name": "owner",
          "type": "address"
        }
      ],
      "name": "initialize",
      "outputs": [],
      "stateMutability": "nonpayable",
      "type": "function"
    },
    {
      "inputs": [
        {
          "internalType": "string",
          "name": "name",
          "type": "string"
        }
      ],
      "name": "inputIndexOf",
      "outputs": [
        {
          "internalType": "uint256",
          "name": "",
          "type": "uint256"
        }
      ],
      "stateMutability": "view",
      "type": "function"
    },
    {
      "inputs": [],
      "name": "owner",
      "outputs": [
        {
          "internalType": "address",
          "name": "",
          "type": "address"
        }
      ],
      "stateMutability": "view",
      "type": "function"
    },
    {
      "inputs": [
        {
          "internalType": "uint256[]",
          "name": "inputs",
          "type": "uint256[]"
        }
      ],
      "name": "parsePubSignals",
      "outputs": [
        {
          "components": [
            {
              "internalType": "uint256",
              "name": "merklized",
              "type": "uint256"
            },
            {
              "internalType": "uint256",
              "name": "userID",
              "type": "uint256"
            },
            {
              "internalType": "uint256",
              "name": "issuerState",
              "type": "uint256"
            },
            {
              "internalType": "uint256",
              "name": "circuitQueryHash",
              "type": "uint256"
            },
            {
              "internalType": "uint256",
              "name": "requestID",
              "type": "uint256"
            },
            {
              "internalType": "uint256",
              "name": "challenge",
              "type": "uint256"
            },
            {
              "internalType": "uint256",
              "name": "gistRoot",
              "type": "uint256"
            },
            {
              "internalType": "uint256",
              "name": "issuerID",
              "type": "uint256"
            },
            {
              "internalType": "uint256",
              "name": "isRevocationChecked",
              "type": "uint256"
            },
            {
              "internalType": "uint256",
              "name": "issuerClaimNonRevState",
              "type": "uint256"
            },
            {
              "internalType": "uint256",
              "name": "timestamp",
              "type": "uint256"
            }
          ],
          "internalType": "struct CredentialAtomicQueryV2ValidatorBase.PubSignals",
          "name": "",
          "type": "tuple"
        }
      ],
      "stateMutability": "pure",
      "type": "function"
    },
    {
      "inputs": [],
      "name": "pendingOwner",
      "outputs": [
        {
          "internalType": "address",
          "name": "",
          "type": "address"
        }
      ],
      "stateMutability": "view",
      "type": "function"
    },
    {
      "inputs": [],
      "name": "renounceOwnership",
      "outputs": [],
      "stateMutability": "nonpayable",
      "type": "function"
    },
    {
      "inputs": [
        {
          "internalType": "uint256",
          "name": "expirationTimeout",
          "type": "uint256"
        }
      ],
      "name": "setGISTRootExpirationTimeout",
      "outputs": [],
      "stateMutability": "nonpayable",
      "type": "function"
    },
    {
      "inputs": [
        {
          "internalType": "uint256",
          "name": "expirationTimeout",
          "type": "uint256"
        }
      ],
      "name": "setProofExpirationTimeout",
      "outputs": [],
      "stateMutability": "nonpayable",
      "type": "function"
    },
    {
      "inputs": [
        {
          "internalType": "uint256",
          "name": "expirationTimeout",
          "type": "uint256"
        }
      ],
      "name": "setRevocationStateExpirationTimeout",
      "outputs": [],
      "stateMutability": "nonpayable",
      "type": "function"
    },
    {
      "inputs": [
        {
          "internalType": "address",
          "name": "stateContractAddr",
          "type": "address"
        }
      ],
      "name": "setStateAddress",
      "outputs": [],
      "stateMutability": "nonpayable",
      "type": "function"
    },
    {
      "inputs": [
        {
          "internalType": "bytes4",
          "name": "interfaceId",
          "type": "bytes4"
        }
      ],
      "name": "supportsInterface",
      "outputs": [
        {
          "internalType": "bool",
          "name": "",
          "type": "bool"
        }
      ],
      "stateMutability": "view",
      "type": "function"
    },
    {
      "inputs": [
        {
          "internalType": "address",
          "name": "newOwner",
          "type": "address"
        }
      ],
      "name": "transferOwnership",
      "outputs": [],
      "stateMutability": "nonpayable",
      "type": "function"
    },
    {
      "inputs": [
        {
          "internalType": "address",
          "name": "sender",
          "type": "address"
        },
        {
          "internalType": "bytes",
          "name": "proof",
          "type": "bytes"
        },
        {
          "internalType": "bytes",
          "name": "requestParams",
          "type": "bytes"
        },
        {
          "internalType": "bytes",
          "name": "responseMetadata",
          "type": "bytes"
        }
      ],
      "name": "verify",
      "outputs": [
        {
          "components": [
            {
              "internalType": "string",
              "name": "name",
              "type": "string"
            },
            {
              "internalType": "uint256",
              "name": "value",
              "type": "uint256"
            },
            {
              "internalType": "bytes",
              "name": "rawValue",
              "type": "bytes"
            }
          ],
          "internalType": "struct IRequestValidator.ResponseField[]",
          "name": "",
          "type": "tuple[]"
        }
      ],
      "stateMutability": "view",
      "type": "function"
    },
    {
      "inputs": [],
      "name": "version",
      "outputs": [
        {
          "internalType": "string",
          "name": "",
          "type": "string"
        }
      ],
      "stateMutability": "pure",
      "type": "function"
    }
  ],
  "bytecode": "0x608060405234801561001057600080fd5b5061001f61002460201b60201c565b61018e565b600061003461012860201b60201c565b90508060000160089054906101000a900460ff161561007f576040517ff92ee8a900000000000000000000000000000000000000000000000000000000815260040160405180910390fd5b67ffffffffffffffff80168160000160009054906101000a900467ffffffffffffffff1667ffffffffffffffff16146101255767ffffffffffffffff8160000160006101000a81548167ffffffffffffffff021916908367ffffffffffffffff1602179055507fc7f505b2f371ae2175ee4913f4499e1f2633a7b5936321eed1cdaeb6115181d267ffffffffffffffff60405161011c9190610173565b60405180910390a15b50565b60007ff0c57e16840df040f15088dc2f81fe391c3923bec73e23a9662efc9c229c6a00905090565b600067ffffffffffffffff82169050919050565b61016d81610150565b82525050565b60006020820190506101886000830184610164565b92915050565b613d5a8061019d6000396000f3fe608060405234801561001057600080fd5b506004361061014d5760003560e01c80638da5cb5b116100c3578063e30c39781161007c578063e30c397814610366578063ed4b50a814610384578063f2fde38b146103b4578063f718c586146103d0578063fb5af2a214610400578063ffa1ad741461041e5761014d565b80638da5cb5b14610290578063af4c4fd5146102ae578063b16a394f146102cc578063ba47e32a146102fc578063c0c53b8b1461031a578063d9f9eb9a146103365761014d565b806354fd4d501161011557806354fd4d50146101f4578063652377dc14610212578063715018a61461022e57806379ba5097146102385780638c752c75146102425780638c952748146102605761014d565b806301ffc9a7146101525780631134b480146101825780631c4c7fd81461019e57806331969e57146101ba57806348d36920146101d8575b600080fd5b61016c60048036038101906101679190612447565b61043c565b604051610179919061248f565b60405180910390f35b61019c600480360381019061019791906124e0565b6104b6565b005b6101b860048036038101906101b3919061256b565b6104d1565b005b6101c2610526565b6040516101cf91906125a7565b60405180910390f35b6101f260048036038101906101ed91906124e0565b610559565b005b6101fc610574565b6040516102099190612652565b60405180910390f35b61022c600480360381019061022791906124e0565b6105b1565b005b6102366105cc565b005b6102406105e0565b005b61024a61066f565b6040516102579190612683565b60405180910390f35b61027a600480360381019061027591906127d3565b610682565b604051610287919061287b565b60405180910390f35b6102986106d3565b6040516102a591906125a7565b60405180910390f35b6102b661070b565b6040516102c39190612683565b60405180910390f35b6102e660048036038101906102e191906127d3565b61071e565b6040516102f39190612683565b60405180910390f35b61030461079a565b6040516103119190612683565b60405180910390f35b610334600480360381019061032f9190612896565b6107ad565b005b610350600480360381019061034b9190612949565b610c19565b60405161035d9190612bd9565b60405180910390f35b61036e610c51565b60405161037b91906125a7565b60405180910390f35b61039e60048036038101906103999190612bfb565b610c89565b6040516103ab9190612cb4565b60405180910390f35b6103ce60048036038101906103c9919061256b565b610d81565b005b6103ea60048036038101906103e59190612d99565b610e3d565b6040516103f79190612ec3565b60405180910390f35b610408610fc7565b6040516104159190612fa1565b60405180910390f35b6104266110a9565b6040516104339190612652565b60405180910390f35b60007fd125cf2d000000000000000000000000000000000000000000000000000000007bffffffffffffffffffffffffffffffffffffffffffffffffffffffff1916827bffffffffffffffffffffffffffffffffffffffffffffffffffffffff191614806104af57506104ae826110e2565b5b9050919050565b6104be61114c565b806104c76111d3565b6003018190555050565b6104d961114c565b806104e26111d3565b60000160006101000a81548173ffffffffffffffffffffffffffffffffffffffff021916908373ffffffffffffffffffffffffffffffffffffffff16021790555050565b60006105306111d3565b60000160009054906101000a900473ffffffffffffffffffffffffffffffffffffffff16905090565b61056161114c565b8061056a6111d3565b6002018190555050565b60606040518060400160405280600581526020017f332e302e30000000000000000000000000000000000000000000000000000000815250905090565b6105b961114c565b806105c26111d3565b6001018190555050565b6105d461114c565b6105de60006111fb565b565b60006105ea61123b565b90508073ffffffffffffffffffffffffffffffffffffffff1661060b610c51565b73ffffffffffffffffffffffffffffffffffffffff161461066357806040517f118cdaa700000000000000000000000000000000000000000000000000000000815260040161065a91906125a7565b60405180910390fd5b61066c816111fb565b50565b60006106796111d3565b60030154905090565b600061068c611243565b6000018260405161069d9190612fff565b908152602001604051809103902060009054906101000a900473ffffffffffffffffffffffffffffffffffffffff169050919050565b6000806106de61126b565b90508060000160009054906101000a900473ffffffffffffffffffffffffffffffffffffffff1691505090565b60006107156111d3565b60010154905090565b600080610729611243565b6002018360405161073a9190612fff565b908152602001604051809103902054905060008103610785576040517f59a674c000000000000000000000000000000000000000000000000000000000815260040160405180910390fd5b8061078f90613045565b905080915050919050565b60006107a46111d3565b60020154905090565b60006107b7611293565b905060008160000160089054906101000a900460ff1615905060008260000160009054906101000a900467ffffffffffffffff1690506000808267ffffffffffffffff161480156108055750825b9050600060018367ffffffffffffffff1614801561083a575060003073ffffffffffffffffffffffffffffffffffffffff163b145b905081158015610848575080155b1561087f576040517ff92ee8a900000000000000000000000000000000000000000000000000000000815260040160405180910390fd5b60018560000160006101000a81548167ffffffffffffffff021916908367ffffffffffffffff16021790555083156108cf5760018560000160086101000a81548160ff0219169083151502179055505b61090f6040518060400160405280600981526020017f6d65726b6c697a6564000000000000000000000000000000000000000000000081525060006112bb565b61094f6040518060400160405280600681526020017f757365724944000000000000000000000000000000000000000000000000000081525060016112bb565b61098f6040518060400160405280601081526020017f636972637569745175657279486173680000000000000000000000000000000081525060026112bb565b6109cf6040518060400160405280600981526020017f726571756573744944000000000000000000000000000000000000000000000081525060036112bb565b610a0f6040518060400160405280600981526020017f6368616c6c656e6765000000000000000000000000000000000000000000000081525060046112bb565b610a4f6040518060400160405280600881526020017f67697374526f6f7400000000000000000000000000000000000000000000000081525060056112bb565b610a8f6040518060400160405280600881526020017f697373756572494400000000000000000000000000000000000000000000000081525060066112bb565b610acf6040518060400160405280601481526020017f697373756572436c61696d4964656e537461746500000000000000000000000081525060076112bb565b610b0f6040518060400160405280601381526020017f69735265766f636174696f6e436865636b65640000000000000000000000000081525060086112bb565b610b4f6040518060400160405280601681526020017f697373756572436c61696d4e6f6e52657653746174650000000000000000000081525060096112bb565b610b8f6040518060400160405280600981526020017f74696d657374616d700000000000000000000000000000000000000000000000815250600a6112bb565b610bb38888604051806060016040528060218152602001613d0460219139896112f7565b8315610c0f5760008560000160086101000a81548160ff0219169083151502179055507fc7f505b2f371ae2175ee4913f4499e1f2633a7b5936321eed1cdaeb6115181d26001604051610c0691906130bd565b60405180910390a15b5050505050505050565b606060008585810190610c2c9190613339565b9050610c4381610c3d8a8a85611381565b8b611544565b915050979650505050505050565b600080610c5c611639565b90508060000160009054906101000a900473ffffffffffffffffffffffffffffffffffffffff1691505090565b610c91612346565b7fdab5ca4f3738dce0cd25851a4aa9160ebdfb1678ef20ca14c9a3e9217058455a60001b82805190602001201480610cf257507fa6ade9d39b76f319076fc4ad150ee37167dd21433b39e1d533a5d6b635762abe60001b8280519060200120145b80610d2657507f24cea8e4716dcdf091e4abcbd3ea617d9a5dd308b90afb5da0d75e56b3c0bc9560001b8280519060200120145b15610d4857604051806040016040528083815260200160008152509050610d7a565b6040517f53bebd1b00000000000000000000000000000000000000000000000000000000815260040160405180910390fd5b9392505050565b610d8961114c565b6000610d93611639565b9050818160000160006101000a81548173ffffffffffffffffffffffffffffffffffffffff021916908373ffffffffffffffffffffffffffffffffffffffff1602179055508173ffffffffffffffffffffffffffffffffffffffff16610df76106d3565b73ffffffffffffffffffffffffffffffffffffffff167f38d16b8cac22d99fc7c124b9cd0de2d3fa1faef420bfe791d8c362d765e2270060405160405180910390a35050565b610e45612360565b600060405180610160016040528084600081518110610e6757610e66613382565b5b6020026020010151815260200184600181518110610e8857610e87613382565b5b6020026020010151815260200184600781518110610ea957610ea8613382565b5b6020026020010151815260200184600281518110610eca57610ec9613382565b5b6020026020010151815260200184600381518110610eeb57610eea613382565b5b6020026020010151815260200184600481518110610f0c57610f0b613382565b5b6020026020010151815260200184600581518110610f2d57610f2c613382565b5b6020026020010151815260200184600681518110610f4e57610f4d613382565b5b6020026020010151815260200184600881518110610f6f57610f6e613382565b5b6020026020010151815260200184600981518110610f9057610f8f613382565b5b6020026020010151815260200184600a81518110610fb157610fb0613382565b5b6020026020010151815250905080915050919050565b6060610fd1611243565b600101805480602002602001604051908101604052809291908181526020016000905b828210156110a0578382906000526020600020018054611013906133e0565b80601f016020809104026020016040519081016040528092919081815260200182805461103f906133e0565b801561108c5780601f106110615761010080835404028352916020019161108c565b820191906000526020600020905b81548152906001019060200180831161106f57829003601f168201915b505050505081526020019060010190610ff4565b50505050905090565b6040518060400160405280600581526020017f332e302e3000000000000000000000000000000000000000000000000000000081525081565b60007f01ffc9a7000000000000000000000000000000000000000000000000000000007bffffffffffffffffffffffffffffffffffffffffffffffffffffffff1916827bffffffffffffffffffffffffffffffffffffffffffffffffffffffff1916149050919050565b61115461123b565b73ffffffffffffffffffffffffffffffffffffffff166111726106d3565b73ffffffffffffffffffffffffffffffffffffffff16146111d15761119561123b565b6040517f118cdaa70000000000000000000000000000000000000000000000000000000081526004016111c891906125a7565b60405180910390fd5b565b60007f28c92975a30f1f2f7970a65953987652034d896ba2d3b7a4961ada9e18287500905090565b6000611205611639565b90508060000160006101000a81549073ffffffffffffffffffffffffffffffffffffffff021916905561123782611661565b5050565b600033905090565b60007fd90b97ccc3cb854254aeec1e5c25748ff7146358b68741074181b650621e5d00905090565b60007f9016d09d72d40fdae2fd8ceac6b6234c7706214fd39c1cd1e609a0528c199300905090565b60007ff0c57e16840df040f15088dc2f81fe391c3923bec73e23a9662efc9c229c6a00905090565b806112c590613411565b9050806112d0611243565b600201836040516112e19190612fff565b9081526020016040518091039020819055505050565b60006113016111d3565b9050610e108160010181905550610e108160020181905550610e108160030181905550848160000160006101000a81548173ffffffffffffffffffffffffffffffffffffffff021916908373ffffffffffffffffffffffffffffffffffffffff1602179055506113718385611738565b61137a82611909565b5050505050565b611389612360565b60018260e0015151146113c8576040517fdda7f5f800000000000000000000000000000000000000000000000000000000815260040160405180910390fd5b60008060008087878101906113dd91906135bb565b9350935093509350600061140f8760e0015160008151811061140257611401613382565b5b6020026020010151610682565b9050600073ffffffffffffffffffffffffffffffffffffffff168173ffffffffffffffffffffffffffffffffffffffff1603611477576040517f01924e0400000000000000000000000000000000000000000000000000000000815260040160405180910390fd5b8073ffffffffffffffffffffffffffffffffffffffff16632612907c858585896040518563ffffffff1660e01b81526004016114b69493929190613870565b602060405180830381865afa1580156114d3573d6000803e3d6000fd5b505050506040513d601f19601f820116820180604052508101906114f791906138d3565b61152d576040517f39c40f4f00000000000000000000000000000000000000000000000000000000815260040160405180910390fd5b61153685610e3d565b955050505050509392505050565b60608360a0015183606001511461159c578360a0015183606001516040517f63b31ad0000000000000000000000000000000000000000000000000000000008152600401611593929190613900565b60405180910390fd5b6115ae8360000151856020015161191d565b6115c08360e001518560c00151611973565b6115ce8361014001516119f4565b6115e2836101000151856101000151611a8e565b6115f08360a0015183611aea565b61160283602001518460c00151611b5b565b6116148360e001518460400151611c75565b6116278360e00151846101200151611cfd565b61163083611dec565b90509392505050565b60007f237e158222e3e6968b72b9db0d8043aacf074ad9f650f0d1606b4d82ee432c00905090565b600061166b61126b565b905060008160000160009054906101000a900473ffffffffffffffffffffffffffffffffffffffff169050828260000160006101000a81548173ffffffffffffffffffffffffffffffffffffffff021916908373ffffffffffffffffffffffffffffffffffffffff1602179055508273ffffffffffffffffffffffffffffffffffffffff168173ffffffffffffffffffffffffffffffffffffffff167f8be0079c531659141344cd1fd0a4f28419497f9722a3daafe3b4186f6b6457e060405160405180910390a3505050565b600073ffffffffffffffffffffffffffffffffffffffff168173ffffffffffffffffffffffffffffffffffffffff16036117a957816040517f5a94a35a0000000000000000000000000000000000000000000000000000000081526004016117a09190612652565b60405180910390fd5b600073ffffffffffffffffffffffffffffffffffffffff166117c9611243565b600001836040516117da9190612fff565b908152602001604051809103902060009054906101000a900473ffffffffffffffffffffffffffffffffffffffff1673ffffffffffffffffffffffffffffffffffffffff161461186157816040517f5b56ea990000000000000000000000000000000000000000000000000000000081526004016118589190612652565b60405180910390fd5b611869611243565b6001018290806001815401808255809150506001900390600052602060002001600090919091909150908161189e9190613acb565b50806118a8611243565b600001836040516118b99190612fff565b908152602001604051809103902060006101000a81548173ffffffffffffffffffffffffffffffffffffffff021916908373ffffffffffffffffffffffffffffffffffffffff1602179055505050565b611911611fd7565b61191a81612017565b50565b600080820361192d576000611930565b60015b60ff16905080831461196e576040517fa2415fa200000000000000000000000000000000000000000000000000000000815260040160405180910390fd5b505050565b6000815103156119f05760005b81518110156119bd5781818151811061199c5761199b613382565b5b602002602001015183036119b057506119f0565b8080600101915050611980565b506040517f2ea0be4500000000000000000000000000000000000000000000000000000000815260040160405180910390fd5b5050565b61012c42611a029190613b9d565b811115611a3b576040517ff163e34200000000000000000000000000000000000000000000000000000000815260040160405180910390fd5b80611a446111d3565b60020154611a529190613b9d565b421115611a8b576040517f380a0ae700000000000000000000000000000000000000000000000000000000815260040160405180910390fd5b50565b6000600190508115611a9f57600090505b808314611ae55780836040517fb369ffc7000000000000000000000000000000000000000000000000000000008152600401611adc929190613900565b60405180910390fd5b505050565b8073ffffffffffffffffffffffffffffffffffffffff16611b0a8361209d565b73ffffffffffffffffffffffffffffffffffffffff1614611b57576040517f5ac46d9400000000000000000000000000000000000000000000000000000000815260040160405180910390fd5b5050565b6000611b656111d3565b90506000611b7284612119565b905060008260000160009054906101000a900473ffffffffffffffffffffffffffffffffffffffff1673ffffffffffffffffffffffffffffffffffffffff16630a7a546983866040518363ffffffff1660e01b8152600401611bd5929190613c0c565b602060405180830381865afa158015611bf2573d6000803e3d6000fd5b505050506040513d601f19601f82011682018060405250810190611c169190613c4a565b905060008114158015611c375750808360030154611c349190613b9d565b42115b15611c6e576040517f3e33ca0600000000000000000000000000000000000000000000000000000000815260040160405180910390fd5b5050505050565b611c7d61213c565b73ffffffffffffffffffffffffffffffffffffffff166309478aa483836040518363ffffffff1660e01b8152600401611cb7929190613900565b602060405180830381865afa158015611cd4573d6000803e3d6000fd5b505050506040513d601f19601f82011682018060405250810190611cf89190613c4a565b505050565b6000611d076111d3565b90506000611d1361213c565b73ffffffffffffffffffffffffffffffffffffffff166309478aa485856040518363ffffffff1660e01b8152600401611d4d929190613900565b602060405180830381865afa158015611d6a573d6000803e3d6000fd5b505050506040513d601f19601f82011682018060405250810190611d8e9190613c4a565b905060008114158015611daf5750808260010154611dac9190613b9d565b42115b15611de6576040517fd80f392600000000000000000000000000000000000000000000000000000000815260040160405180910390fd5b50505050565b60606000600367ffffffffffffffff811115611e0b57611e0a6126a8565b5b604051908082528060200260200182016040528015611e4457816020015b611e316123ba565b815260200190600190039081611e295790505b50905060405180606001604052806040518060400160405280600681526020017f75736572494400000000000000000000000000000000000000000000000000008152508152602001846020015181526020016040518060200160405280600081525081525081600081518110611ebe57611ebd613382565b5b602002602001018190525060405180606001604052806040518060400160405280600981526020017f74696d657374616d700000000000000000000000000000000000000000000000815250815260200184610140015181526020016040518060200160405280600081525081525081600181518110611f4157611f40613382565b5b602002602001018190525060405180606001604052806040518060400160405280600881526020017f697373756572494400000000000000000000000000000000000000000000000081525081526020018460e0015181526020016040518060200160405280600081525081525081600281518110611fc357611fc2613382565b5b602002602001018190525080915050919050565b611fdf61216f565b612015576040517fd7e6bcf800000000000000000000000000000000000000000000000000000000815260040160405180910390fd5b565b61201f611fd7565b600073ffffffffffffffffffffffffffffffffffffffff168173ffffffffffffffffffffffffffffffffffffffff16036120915760006040517f1e4fbdf700000000000000000000000000000000000000000000000000000000815260040161208891906125a7565b60405180910390fd5b61209a816111fb565b50565b60008173ffffffffffffffffffffffffffffffffffffffff1682146120f957816040517f476265e00000000000000000000000000000000000000000000000000000000081526004016120f09190612683565b60405180910390fd5b61211261210d6121088461218f565b6122db565b612338565b9050919050565b600061212c6121278361218f565b6122db565b61213590613c9c565b9050919050565b60006121466111d3565b60000160009054906101000a900473ffffffffffffffffffffffffffffffffffffffff16905090565b6000612179611293565b60000160089054906101000a900460ff16905090565b600081905060087eff00ff00ff00ff00ff00ff00ff00ff00ff00ff00ff00ff00ff00ff00ff00ff8216901b60087fff00ff00ff00ff00ff00ff00ff00ff00ff00ff00ff00ff00ff00ff00ff00ff008316901c17905060107dffff0000ffff0000ffff0000ffff0000ffff0000ffff0000ffff0000ffff8216901b60107fffff0000ffff0000ffff0000ffff0000ffff0000ffff0000ffff0000ffff00008316901c17905060207bffffffff00000000ffffffff00000000ffffffff00000000ffffffff8216901b60207fffffffff00000000ffffffff00000000ffffffff00000000ffffffff000000008316901c179050604077ffffffffffffffff0000000000000000ffffffffffffffff8216901b60407fffffffffffffffff0000000000000000ffffffffffffffff00000000000000008316901c179050608081901b608082901c179050919050565b6060602067ffffffffffffffff8111156122f8576122f76126a8565b5b6040519080825280601f01601f19166020018201604052801561232a5781602001600182028036833780820191505090505b509050816020820152919050565b600060148201519050919050565b604051806040016040528060608152602001600081525090565b60405180610160016040528060008152602001600081526020016000815260200160008152602001600081526020016000815260200160008152602001600081526020016000815260200160008152602001600081525090565b60405180606001604052806060815260200160008152602001606081525090565b6000604051905090565b600080fd5b600080fd5b60007fffffffff0000000000000000000000000000000000000000000000000000000082169050919050565b612424816123ef565b811461242f57600080fd5b50565b6000813590506124418161241b565b92915050565b60006020828403121561245d5761245c6123e5565b5b600061246b84828501612432565b91505092915050565b60008115159050919050565b61248981612474565b82525050565b60006020820190506124a46000830184612480565b92915050565b6000819050919050565b6124bd816124aa565b81146124c857600080fd5b50565b6000813590506124da816124b4565b92915050565b6000602082840312156124f6576124f56123e5565b5b6000612504848285016124cb565b91505092915050565b600073ffffffffffffffffffffffffffffffffffffffff82169050919050565b60006125388261250d565b9050919050565b6125488161252d565b811461255357600080fd5b50565b6000813590506125658161253f565b92915050565b600060208284031215612581576125806123e5565b5b600061258f84828501612556565b91505092915050565b6125a18161252d565b82525050565b60006020820190506125bc6000830184612598565b92915050565b600081519050919050565b600082825260208201905092915050565b60005b838110156125fc5780820151818401526020810190506125e1565b60008484015250505050565b6000601f19601f8301169050919050565b6000612624826125c2565b61262e81856125cd565b935061263e8185602086016125de565b61264781612608565b840191505092915050565b6000602082019050818103600083015261266c8184612619565b905092915050565b61267d816124aa565b82525050565b60006020820190506126986000830184612674565b92915050565b600080fd5b600080fd5b7f4e487b7100000000000000000000000000000000000000000000000000000000600052604160045260246000fd5b6126e082612608565b810181811067ffffffffffffffff821117156126ff576126fe6126a8565b5b80604052505050565b60006127126123db565b905061271e82826126d7565b919050565b600067ffffffffffffffff82111561273e5761273d6126a8565b5b61274782612608565b9050602081019050919050565b82818337600083830152505050565b600061277661277184612723565b612708565b905082815260208101848484011115612792576127916126a3565b5b61279d848285612754565b509392505050565b600082601f8301126127ba576127b961269e565b5b81356127ca848260208601612763565b91505092915050565b6000602082840312156127e9576127e86123e5565b5b600082013567ffffffffffffffff811115612807576128066123ea565b5b612813848285016127a5565b91505092915050565b6000819050919050565b600061284161283c6128378461250d565b61281c565b61250d565b9050919050565b600061285382612826565b9050919050565b600061286582612848565b9050919050565b6128758161285a565b82525050565b6000602082019050612890600083018461286c565b92915050565b6000806000606084860312156128af576128ae6123e5565b5b60006128bd86828701612556565b93505060206128ce86828701612556565b92505060406128df86828701612556565b9150509250925092565b600080fd5b600080fd5b60008083601f8401126129095761290861269e565b5b8235905067ffffffffffffffff811115612926576129256128e9565b5b602083019150836001820283011115612942576129416128ee565b5b9250929050565b60008060008060008060006080888a031215612968576129676123e5565b5b60006129768a828b01612556565b975050602088013567ffffffffffffffff811115612997576129966123ea565b5b6129a38a828b016128f3565b9650965050604088013567ffffffffffffffff8111156129c6576129c56123ea565b5b6129d28a828b016128f3565b9450945050606088013567ffffffffffffffff8111156129f5576129f46123ea565b5b612a018a828b016128f3565b925092505092959891949750929550565b600081519050919050565b600082825260208201905092915050565b6000819050602082019050919050565b600082825260208201905092915050565b6000612a5a826125c2565b612a648185612a3e565b9350612a748185602086016125de565b612a7d81612608565b840191505092915050565b612a91816124aa565b82525050565b600081519050919050565b600082825260208201905092915050565b6000612abe82612a97565b612ac88185612aa2565b9350612ad88185602086016125de565b612ae181612608565b840191505092915050565b60006060830160008301518482036000860152612b098282612a4f565b9150506020830151612b1e6020860182612a88565b5060408301518482036040860152612b368282612ab3565b9150508091505092915050565b6000612b4f8383612aec565b905092915050565b6000602082019050919050565b6000612b6f82612a12565b612b798185612a1d565b935083602082028501612b8b85612a2e565b8060005b85811015612bc75784840389528151612ba88582612b43565b9450612bb383612b57565b925060208a01995050600181019050612b8f565b50829750879550505050505092915050565b60006020820190508181036000830152612bf38184612b64565b905092915050565b600080600060408486031215612c1457612c136123e5565b5b600084013567ffffffffffffffff811115612c3257612c316123ea565b5b612c3e868287016128f3565b9350935050602084013567ffffffffffffffff811115612c6157612c606123ea565b5b612c6d868287016127a5565b9150509250925092565b60006040830160008301518482036000860152612c948282612a4f565b9150506020830151612ca96020860182612a88565b508091505092915050565b60006020820190508181036000830152612cce8184612c77565b905092915050565b600067ffffffffffffffff821115612cf157612cf06126a8565b5b602082029050602081019050919050565b6000612d15612d1084612cd6565b612708565b90508083825260208201905060208402830185811115612d3857612d376128ee565b5b835b81811015612d615780612d4d88826124cb565b845260208401935050602081019050612d3a565b5050509392505050565b600082601f830112612d8057612d7f61269e565b5b8135612d90848260208601612d02565b91505092915050565b600060208284031215612daf57612dae6123e5565b5b600082013567ffffffffffffffff811115612dcd57612dcc6123ea565b5b612dd984828501612d6b565b91505092915050565b61016082016000820151612df96000850182612a88565b506020820151612e0c6020850182612a88565b506040820151612e1f6040850182612a88565b506060820151612e326060850182612a88565b506080820151612e456080850182612a88565b5060a0820151612e5860a0850182612a88565b5060c0820151612e6b60c0850182612a88565b5060e0820151612e7e60e0850182612a88565b50610100820151612e93610100850182612a88565b50610120820151612ea8610120850182612a88565b50610140820151612ebd610140850182612a88565b50505050565b600061016082019050612ed96000830184612de2565b92915050565b600081519050919050565b600082825260208201905092915050565b6000819050602082019050919050565b6000612f178383612a4f565b905092915050565b6000602082019050919050565b6000612f3782612edf565b612f418185612eea565b935083602082028501612f5385612efb565b8060005b85811015612f8f5784840389528151612f708582612f0b565b9450612f7b83612f1f565b925060208a01995050600181019050612f57565b50829750879550505050505092915050565b60006020820190508181036000830152612fbb8184612f2c565b905092915050565b600081905092915050565b6000612fd9826125c2565b612fe38185612fc3565b9350612ff38185602086016125de565b80840191505092915050565b600061300b8284612fce565b915081905092915050565b7f4e487b7100000000000000000000000000000000000000000000000000000000600052601160045260246000fd5b6000613050826124aa565b91506000820361306357613062613016565b5b600182039050919050565b6000819050919050565b600067ffffffffffffffff82169050919050565b60006130a76130a261309d8461306e565b61281c565b613078565b9050919050565b6130b78161308c565b82525050565b60006020820190506130d260008301846130ae565b92915050565b600080fd5b600080fd5b600067ffffffffffffffff8211156130fd576130fc6126a8565b5b602082029050602081019050919050565b600061312161311c846130e2565b612708565b90508083825260208201905060208402830185811115613144576131436128ee565b5b835b8181101561318b57803567ffffffffffffffff8111156131695761316861269e565b5b80860161317689826127a5565b85526020850194505050602081019050613146565b5050509392505050565b600082601f8301126131aa576131a961269e565b5b81356131ba84826020860161310e565b91505092915050565b6131cc81612474565b81146131d757600080fd5b50565b6000813590506131e9816131c3565b92915050565b60006101408284031215613206576132056130d8565b5b613211610140612708565b90506000613221848285016124cb565b6000830152506020613235848285016124cb565b6020830152506040613249848285016124cb565b604083015250606061325d848285016124cb565b606083015250608082013567ffffffffffffffff811115613281576132806130dd565b5b61328d84828501612d6b565b60808301525060a06132a1848285016124cb565b60a08301525060c082013567ffffffffffffffff8111156132c5576132c46130dd565b5b6132d184828501612d6b565b60c08301525060e082013567ffffffffffffffff8111156132f5576132f46130dd565b5b61330184828501613195565b60e083015250610100613316848285016131da565b6101008301525061012061332c848285016124cb565b6101208301525092915050565b60006020828403121561334f5761334e6123e5565b5b600082013567ffffffffffffffff81111561336d5761336c6123ea565b5b613379848285016131ef565b91505092915050565b7f4e487b7100000000000000000000000000000000000000000000000000000000600052603260045260246000fd5b7f4e487b7100000000000000000000000000000000000000000000000000000000600052602260045260246000fd5b600060028204905060018216806133f857607f821691505b60208210810361340b5761340a6133b1565b5b50919050565b600061341c826124aa565b91507fffffffffffffffffffffffffffffffffffffffffffffffffffffffffffffffff820361344e5761344d613016565b5b600182019050919050565b600067ffffffffffffffff821115613474576134736126a8565b5b602082029050919050565b600061349261348d84613459565b612708565b905080602084028301858111156134ac576134ab6128ee565b5b835b818110156134d557806134c188826124cb565b8452602084019350506020810190506134ae565b5050509392505050565b600082601f8301126134f4576134f361269e565b5b600261350184828561347f565b91505092915050565b600067ffffffffffffffff821115613525576135246126a8565b5b602082029050919050565b600061354361353e8461350a565b612708565b9050806040840283018581111561355d5761355c6128ee565b5b835b81811015613586578061357288826134df565b84526020840193505060408101905061355f565b5050509392505050565b600082601f8301126135a5576135a461269e565b5b60026135b2848285613530565b91505092915050565b60008060008061012085870312156135d6576135d56123e5565b5b600085013567ffffffffffffffff8111156135f4576135f36123ea565b5b61360087828801612d6b565b9450506020613611878288016134df565b935050606061362287828801613590565b92505060e0613633878288016134df565b91505092959194509250565b600060029050919050565b600081905092915050565b6000819050919050565b600061366b8383612a88565b60208301905092915050565b6000602082019050919050565b61368d8161363f565b613697818461364a565b92506136a282613655565b8060005b838110156136d35781516136ba878261365f565b96506136c583613677565b9250506001810190506136a6565b505050505050565b600060029050919050565b600081905092915050565b6000819050919050565b600081905092915050565b61370f8161363f565b61371981846136fb565b925061372482613655565b8060005b8381101561375557815161373c878261365f565b965061374783613677565b925050600181019050613728565b505050505050565b60006137698383613706565b60408301905092915050565b6000602082019050919050565b61378b816136db565b61379581846136e6565b92506137a0826136f1565b8060005b838110156137d15781516137b8878261375d565b96506137c383613775565b9250506001810190506137a4565b505050505050565b600081519050919050565b600082825260208201905092915050565b6000819050602082019050919050565b6000602082019050919050565b600061381d826137d9565b61382781856137e4565b9350613832836137f5565b8060005b8381101561386357815161384a888261365f565b975061385583613805565b925050600181019050613836565b5085935050505092915050565b6000610120820190506138866000830187613684565b6138936040830186613782565b6138a060c0830185613684565b8181036101008301526138b38184613812565b905095945050505050565b6000815190506138cd816131c3565b92915050565b6000602082840312156138e9576138e86123e5565b5b60006138f7848285016138be565b91505092915050565b60006040820190506139156000830185612674565b6139226020830184612674565b9392505050565b60008190508160005260206000209050919050565b60006020601f8301049050919050565b600082821b905092915050565b60006008830261398b7fffffffffffffffffffffffffffffffffffffffffffffffffffffffffffffffff8261394e565b613995868361394e565b95508019841693508086168417925050509392505050565b60006139c86139c36139be846124aa565b61281c565b6124aa565b9050919050565b6000819050919050565b6139e2836139ad565b6139f66139ee826139cf565b84845461395b565b825550505050565b600090565b613a0b6139fe565b613a168184846139d9565b505050565b5b81811015613a3a57613a2f600082613a03565b600181019050613a1c565b5050565b601f821115613a7f57613a5081613929565b613a598461393e565b81016020851015613a68578190505b613a7c613a748561393e565b830182613a1b565b50505b505050565b600082821c905092915050565b6000613aa260001984600802613a84565b1980831691505092915050565b6000613abb8383613a91565b9150826002028217905092915050565b613ad4826125c2565b67ffffffffffffffff811115613aed57613aec6126a8565b5b613af782546133e0565b613b02828285613a3e565b600060209050601f831160018114613b355760008415613b23578287015190505b613b2d8582613aaf565b865550613b95565b601f198416613b4386613929565b60005b82811015613b6b57848901518255600182019150602085019450602081019050613b46565b86831015613b885784890151613b84601f891682613a91565b8355505b6001600288020188555050505b505050505050565b6000613ba8826124aa565b9150613bb3836124aa565b9250828201905080821115613bcb57613bca613016565b5b92915050565b60007fffff00000000000000000000000000000000000000000000000000000000000082169050919050565b613c0681613bd1565b82525050565b6000604082019050613c216000830185613bfd565b613c2e6020830184612674565b9392505050565b600081519050613c44816124b4565b92915050565b600060208284031215613c6057613c5f6123e5565b5b6000613c6e84828501613c35565b91505092915050565b6000819050602082019050919050565b6000613c938251613bd1565b80915050919050565b6000613ca782612a97565b82613cb184613c77565b9050613cbc81613c87565b92506002821015613cfc57613cf77fffff0000000000000000000000000000000000000000000000000000000000008360020360080261394e565b831692505b505091905056fe63726564656e7469616c41746f6d696351756572794d545056324f6e436861696ea2646970667358221220b558b617044543e23dd571212c00614813e6b2c4cbd75aedd4a663106f6a2c5464736f6c634300081b0033",
  "linkReferences": {},
  "deployedLinkReferences": {}
}