{
  "_format": "hh3-artifact-1",
  "contractName": "LinkedMultiQueryValidator",
  "sourceName": "contracts/validators/request/LinkedMultiQueryValidator.sol",
  "abi": [
    {
      "inputs": [],
      "stateMutability": "nonpayable",
      "type": "constructor"
    },
    {
      "inputs": [
        {
          "internalType": "string",
          "name": "circuitId",
          "type": "string"
        }
      ],
      "name": "Groth16VerifierAddressIsZero",
      "type": "error"
    },
    {
      "inputs": [
        {
          "internalType": "string",
          "name": "circuitId",
          "type": "string"
        }
      ],
      "name": "Groth16VerifierAlreadySet",
      "type": "error"
    },
    {
      "inputs": [],
      "name": "GroupIDCannotBeZero",
      "type": "error"
    },
    {
      "inputs": [],
      "name": "InputNameNotFound",
      "type": "error"
    },
    {
      "inputs": [],
      "name": "InvalidGroth16Proof",
      "type": "error"
    },
    {
      "inputs": [],
      "name": "InvalidInitialization",
      "type": "error"
    },
    {
      "inputs": [
        {
          "internalType": "uint256",
          "name": "expectedQueryHash",
          "type": "uint256"
        },
        {
          "internalType": "uint256",
          "name": "actualQueryHash",
          "type": "uint256"
        }
      ],
      "name": "InvalidQueryHash",
      "type": "error"
    },
    {
      "inputs": [],
      "name": "LinkIDCannotBeZero",
      "type": "error"
    },
    {
      "inputs": [],
      "name": "NotInitializing",
      "type": "error"
    },
    {
      "inputs": [
        {
          "internalType": "address",
          "name": "owner",
          "type": "address"
        }
      ],
      "name": "OwnableInvalidOwner",
      "type": "error"
    },
    {
      "inputs": [
        {
          "internalType": "address",
          "name": "account",
          "type": "address"
        }
      ],
      "name": "OwnableUnauthorizedAccount",
      "type": "error"
    },
    {
      "inputs": [],
      "name": "RequestParamNameNotFound",
      "type": "error"
    },
    {
      "inputs": [
        {
          "internalType": "uint256",
          "name": "operatorCount",
          "type": "uint256"
        }
      ],
      "name": "TooManyQueries",
      "type": "error"
    },
    {
      "inputs": [
        {
          "internalType": "string",
          "name": "circuitID",
          "type": "string"
        }
      ],
      "name": "WrongCircuitID",
      "type": "error"
    },
    {
      "anonymous": false,
      "inputs": [
        {
          "indexed": false,
          "internalType": "uint64",
          "name": "version",
          "type": "uint64"
        }
      ],
      "name": "Initialized",
      "type": "event"
    },
    {
      "anonymous": false,
      "inputs": [
        {
          "indexed": true,
          "internalType": "address",
          "name": "previousOwner",
          "type": "address"
        },
        {
          "indexed": true,
          "internalType": "address",
          "name": "newOwner",
          "type": "address"
        }
      ],
      "name": "OwnershipTransferStarted",
      "type": "event"
    },
    {
      "anonymous": false,
      "inputs": [
        {
          "indexed": true,
          "internalType": "address",
          "name": "previousOwner",
          "type": "address"
        },
        {
          "indexed": true,
          "internalType": "address",
          "name": "newOwner",
          "type": "address"
        }
      ],
      "name": "OwnershipTransferred",
      "type": "event"
    },
    {
      "inputs": [],
      "name": "VERSION",
      "outputs": [
        {
          "internalType": "string",
          "name": "",
          "type": "string"
        }
      ],
      "stateMutability": "view",
      "type": "function"
    },
    {
      "inputs": [],
      "name": "acceptOwnership",
      "outputs": [],
      "stateMutability": "nonpayable",
      "type": "function"
    },
    {
      "inputs": [
        {
          "internalType": "bytes",
          "name": "params",
          "type": "bytes"
        },
        {
          "internalType": "string",
          "name": "paramName",
          "type": "string"
        }
      ],
      "name": "getRequestParam",
      "outputs": [
        {
          "components": [
            {
              "internalType": "string",
              "name": "name",
              "type": "string"
            },
            {
              "internalType": "uint256",
              "name": "value",
              "type": "uint256"
            }
          ],
          "internalType": "struct IRequestValidator.RequestParam",
          "name": "",
          "type": "tuple"
        }
      ],
      "stateMutability": "pure",
      "type": "function"
    },
    {
      "inputs": [],
      "name": "getSupportedCircuitIds",
      "outputs": [
        {
          "internalType": "string[]",
          "name": "ids",
          "type": "string[]"
        }
      ],
      "stateMutability": "view",
      "type": "function"
    },
    {
      "inputs": [
        {
          "internalType": "string",
          "name": "circuitId",
          "type": "string"
        }
      ],
      "name": "getVerifierByCircuitId",
      "outputs": [
        {
          "internalType": "contract IGroth16Verifier",
          "name": "",
          "type": "address"
        }
      ],
      "stateMutability": "view",
      "type": "function"
    },
    {
      "inputs": [
        {
          "internalType": "address",
          "name": "_groth16VerifierContractAddr",
          "type": "address"
        },
        {
          "internalType": "address",
          "name": "owner",
          "type": "address"
        }
      ],
      "name": "initialize",
      "outputs": [],
      "stateMutability": "nonpayable",
      "type": "function"
    },
    {
      "inputs": [
        {
          "internalType": "string",
          "name": "name",
          "type": "string"
        }
      ],
      "name": "inputIndexOf",
      "outputs": [
        {
          "internalType": "uint256",
          "name": "",
          "type": "uint256"
        }
      ],
      "stateMutability": "view",
      "type": "function"
    },
    {
      "inputs": [],
      "name": "owner",
      "outputs": [
        {
          "internalType": "address",
          "name": "",
          "type": "address"
        }
      ],
      "stateMutability": "view",
      "type": "function"
    },
    {
      "inputs": [],
      "name": "pendingOwner",
      "outputs": [
        {
          "internalType": "address",
          "name": "",
          "type": "address"
        }
      ],
      "stateMutability": "view",
      "type": "function"
    },
    {
      "inputs": [],
      "name": "renounceOwnership",
      "outputs": [],
      "stateMutability": "nonpayable",
      "type": "function"
    },
    {
      "inputs": [
        {
          "internalType": "bytes4",
          "name": "interfaceId",
          "type": "bytes4"
        }
      ],
      "name": "supportsInterface",
      "outputs": [
        {
          "internalType": "bool",
          "name": "",
          "type": "bool"
        }
      ],
      "stateMutability": "view",
      "type": "function"
    },
    {
      "inputs": [
        {
          "internalType": "address",
          "name": "newOwner",
          "type": "address"
        }
      ],
      "name": "transferOwnership",
      "outputs": [],
      "stateMutability": "nonpayable",
      "type": "function"
    },
    {
      "inputs": [
        {
          "internalType": "address",
          "name": "sender",
          "type": "address"
        },
        {
          "internalType": "bytes",
          "name": "proof",
          "type": "bytes"
        },
        {
          "internalType": "bytes",
          "name": "requestParams",
          "type": "bytes"
        },
        {
          "internalType": "bytes",
          "name": "responseMetadata",
          "type": "bytes"
        }
      ],
      "name": "verify",
      "outputs": [
        {
          "components": [
            {
              "internalType": "string",
              "name": "name",
              "type": "string"
            },
            {
              "internalType": "uint256",
              "name": "value",
              "type": "uint256"
            },
            {
              "internalType": "bytes",
              "name": "rawValue",
              "type": "bytes"
            }
          ],
          "internalType": "struct IRequestValidator.ResponseField[]",
          "name": "",
          "type": "tuple[]"
        }
      ],
      "stateMutability": "view",
      "type": "function"
    },
    {
      "inputs": [],
      "name": "version",
      "outputs": [
        {
          "internalType": "string",
          "name": "",
          "type": "string"
        }
      ],
      "stateMutability": "pure",
      "type": "function"
    }
  ],
  "bytecode": "0x608060405234801561000f575f5ffd5b5061001e61002360201b60201c565b61019e565b5f61003261012160201b60201c565b9050805f0160089054906101000a900460ff161561007c576040517ff92ee8a900000000000000000000000000000000000000000000000000000000815260040160405180910390fd5b67ffffffffffffffff8016815f015f9054906101000a900467ffffffffffffffff1667ffffffffffffffff161461011e5767ffffffffffffffff815f015f6101000a81548167ffffffffffffffff021916908367ffffffffffffffff1602179055507fc7f505b2f371ae2175ee4913f4499e1f2633a7b5936321eed1cdaeb6115181d267ffffffffffffffff6040516101159190610185565b60405180910390a15b50565b5f5f61013161013a60201b60201c565b90508091505090565b5f7ff0c57e16840df040f15088dc2f81fe391c3923bec73e23a9662efc9c229c6a005f1b905090565b5f67ffffffffffffffff82169050919050565b61017f81610163565b82525050565b5f6020820190506101985f830184610176565b92915050565b613294806101ab5f395ff3fe608060405234801561000f575f5ffd5b50600436106100e8575f3560e01c8063b16a394f1161008a578063ed4b50a811610064578063ed4b50a814610236578063f2fde38b14610266578063fb5af2a214610282578063ffa1ad74146102a0576100e8565b8063b16a394f146101b8578063d9f9eb9a146101e8578063e30c397814610218576100e8565b8063715018a6116100c6578063715018a61461015657806379ba5097146101605780638c9527481461016a5780638da5cb5b1461019a576100e8565b806301ffc9a7146100ec578063485cc9551461011c57806354fd4d5014610138575b5f5ffd5b61010660048036038101906101019190611b2a565b6102be565b6040516101139190611b6f565b60405180910390f35b61013660048036038101906101319190611be2565b610337565b005b61014061060d565b60405161014d9190611c90565b60405180910390f35b61015e61064a565b005b61016861065d565b005b610184600480360381019061017f9190611ddc565b6106eb565b6040516101919190611e7e565b60405180910390f35b6101a2610739565b6040516101af9190611ea6565b60405180910390f35b6101d260048036038101906101cd9190611ddc565b61076e565b6040516101df9190611ed7565b60405180910390f35b61020260048036038101906101fd9190611f4d565b6107e8565b60405161020f91906121c9565b60405180910390f35b610220610a0f565b60405161022d9190611ea6565b60405180910390f35b610250600480360381019061024b91906121e9565b610a44565b60405161025d919061229c565b60405180910390f35b610280600480360381019061027b91906122bc565b610b86565b005b61028a610c3f565b60405161029791906123a2565b60405180910390f35b6102a8610d1c565b6040516102b59190611c90565b60405180910390f35b5f7fd125cf2d000000000000000000000000000000000000000000000000000000007bffffffffffffffffffffffffffffffffffffffffffffffffffffffff1916827bffffffffffffffffffffffffffffffffffffffffffffffffffffffff19161480610330575061032f82610d55565b5b9050919050565b5f610340610dbe565b90505f815f0160089054906101000a900460ff161590505f825f015f9054906101000a900467ffffffffffffffff1690505f5f8267ffffffffffffffff161480156103885750825b90505f60018367ffffffffffffffff161480156103bb57505f3073ffffffffffffffffffffffffffffffffffffffff163b145b9050811580156103c9575080155b15610400576040517ff92ee8a900000000000000000000000000000000000000000000000000000000815260040160405180910390fd5b6001855f015f6101000a81548167ffffffffffffffff021916908367ffffffffffffffff160217905550831561044d576001855f0160086101000a81548160ff0219169083151502179055505b61048c6040518060400160405280601981526020017f6c696e6b65644d756c7469517565727931302d626574612e310000000000000081525088610dd1565b6104cb6040518060400160405280600681526020017f6c696e6b494400000000000000000000000000000000000000000000000000008152505f610f99565b61050b6040518060400160405280600981526020017f6d65726b6c697a656400000000000000000000000000000000000000000000008152506001610f99565b5f5f90505b600a8110156105a05761055661052582610fd5565b6040516020016105359190612446565b6040516020818303038152906040528260026105519190612494565b610f99565b61059361056282610fd5565b6040516020016105729190612511565b60405160208183030381529060405282600c61058e9190612494565b610f99565b8080600101915050610510565b506105aa8661109f565b8315610604575f855f0160086101000a81548160ff0219169083151502179055507fc7f505b2f371ae2175ee4913f4499e1f2633a7b5936321eed1cdaeb6115181d260016040516105fb919061257e565b60405180910390a15b50505050505050565b60606040518060400160405280600c81526020017f312e302e302d626574612e310000000000000000000000000000000000000000815250905090565b6106526110b3565b61065b5f61113a565b565b5f610666611177565b90508073ffffffffffffffffffffffffffffffffffffffff16610687610a0f565b73ffffffffffffffffffffffffffffffffffffffff16146106df57806040517f118cdaa70000000000000000000000000000000000000000000000000000000081526004016106d69190611ea6565b60405180910390fd5b6106e88161113a565b50565b5f6106f461117e565b5f01826040516107049190612597565b90815260200160405180910390205f9054906101000a900473ffffffffffffffffffffffffffffffffffffffff169050919050565b5f5f6107436111a5565b9050805f015f9054906101000a900473ffffffffffffffffffffffffffffffffffffffff1691505090565b5f5f61077861117e565b600201836040516107899190612597565b90815260200160405180910390205490505f81036107d3576040517f59a674c000000000000000000000000000000000000000000000000000000000815260040160405180910390fd5b806107dd906125ad565b905080915050919050565b60605f85858101906107fa91906129f1565b90505f5f5f5f8b8b81019061080f9190612b94565b93509350935093505f610821856111cc565b905061082d8682611311565b61083e8660c00151825f015161143d565b6040518060400160405280601981526020017f6c696e6b65644d756c7469517565727931302d626574612e3100000000000000815250805190602001208660a001515f8151811061089257610891612c15565b5b60200260200101518051906020012014610901578560a001515f815181106108bd576108bc612c15565b5b60200260200101516040517feca2d7ad0000000000000000000000000000000000000000000000000000000081526004016108f89190611c90565b60405180910390fd5b61093f6040518060400160405280601981526020017f6c696e6b65644d756c7469517565727931302d626574612e31000000000000008152506106eb565b73ffffffffffffffffffffffffffffffffffffffff16632612907c858585896040518563ffffffff1660e01b815260040161097d9493929190612e5f565b602060405180830381865afa158015610998573d5f5f3e3d5ffd5b505050506040513d601f19601f820116820180604052508101906109bc9190612ed5565b6109f2576040517fb4e0708100000000000000000000000000000000000000000000000000000000815260040160405180910390fd5b6109fc81876114b3565b9650505050505050979650505050505050565b5f5f610a196116e2565b9050805f015f9054906101000a900473ffffffffffffffffffffffffffffffffffffffff1691505090565b610a4c611a36565b5f8484810190610a5c91906129f1565b90507fdab5ca4f3738dce0cd25851a4aa9160ebdfb1678ef20ca14c9a3e9217058455a5f1b838051906020012003610aaf5760405180604001604052808481526020018260c00151815250915050610b7f565b7fa6ade9d39b76f319076fc4ad150ee37167dd21433b39e1d533a5d6b635762abe5f1b838051906020012003610b005760405180604001604052808481526020018260e00151815250915050610b7f565b7f24cea8e4716dcdf091e4abcbd3ea617d9a5dd308b90afb5da0d75e56b3c0bc955f1b838051906020012003610b4d5760405180604001604052808481526020015f815250915050610b7f565b6040517f53bebd1b00000000000000000000000000000000000000000000000000000000815260040160405180910390fd5b9392505050565b610b8e6110b3565b5f610b976116e2565b905081815f015f6101000a81548173ffffffffffffffffffffffffffffffffffffffff021916908373ffffffffffffffffffffffffffffffffffffffff1602179055508173ffffffffffffffffffffffffffffffffffffffff16610bf9610739565b73ffffffffffffffffffffffffffffffffffffffff167f38d16b8cac22d99fc7c124b9cd0de2d3fa1faef420bfe791d8c362d765e2270060405160405180910390a35050565b6060610c4961117e565b600101805480602002602001604051908101604052809291908181526020015f905b82821015610d13578382905f5260205f20018054610c8890612f2d565b80601f0160208091040260200160405190810160405280929190818152602001828054610cb490612f2d565b8015610cff5780601f10610cd657610100808354040283529160200191610cff565b820191905f5260205f20905b815481529060010190602001808311610ce257829003601f168201915b505050505081526020019060010190610c6b565b50505050905090565b6040518060400160405280600c81526020017f312e302e302d626574612e31000000000000000000000000000000000000000081525081565b5f7f01ffc9a7000000000000000000000000000000000000000000000000000000007bffffffffffffffffffffffffffffffffffffffffffffffffffffffff1916827bffffffffffffffffffffffffffffffffffffffffffffffffffffffff1916149050919050565b5f5f610dc8611709565b90508091505090565b5f73ffffffffffffffffffffffffffffffffffffffff168173ffffffffffffffffffffffffffffffffffffffff1603610e4157816040517f5a94a35a000000000000000000000000000000000000000000000000000000008152600401610e389190611c90565b60405180910390fd5b5f73ffffffffffffffffffffffffffffffffffffffff16610e6061117e565b5f0183604051610e709190612597565b90815260200160405180910390205f9054906101000a900473ffffffffffffffffffffffffffffffffffffffff1673ffffffffffffffffffffffffffffffffffffffff1614610ef657816040517f5b56ea99000000000000000000000000000000000000000000000000000000008152600401610eed9190611c90565b60405180910390fd5b610efe61117e565b60010182908060018154018082558091505060019003905f5260205f20015f909190919091509081610f3091906130f4565b5080610f3a61117e565b5f0183604051610f4a9190612597565b90815260200160405180910390205f6101000a81548173ffffffffffffffffffffffffffffffffffffffff021916908373ffffffffffffffffffffffffffffffffffffffff1602179055505050565b80610fa3906131c3565b905080610fae61117e565b60020183604051610fbf9190612597565b9081526020016040518091039020819055505050565b60605f6001610fe384611732565b0190505f8167ffffffffffffffff81111561100157611000611cb8565b5b6040519080825280601f01601f1916602001820160405280156110335781602001600182028036833780820191505090505b5090505f82602083010190505b600115611094578080600190039150507f3031323334353637383961626364656600000000000000000000000000000000600a86061a8153600a85816110895761108861320a565b5b0494505f8503611040575b819350505050919050565b6110a7611883565b6110b0816118c3565b50565b6110bb611177565b73ffffffffffffffffffffffffffffffffffffffff166110d9610739565b73ffffffffffffffffffffffffffffffffffffffff1614611138576110fc611177565b6040517f118cdaa700000000000000000000000000000000000000000000000000000000815260040161112f9190611ea6565b60405180910390fd5b565b5f6111436116e2565b9050805f015f6101000a81549073ffffffffffffffffffffffffffffffffffffffff021916905561117382611947565b5050565b5f33905090565b5f7fd90b97ccc3cb854254aeec1e5c25748ff7146358b68741074181b650621e5d00905090565b5f7f9016d09d72d40fdae2fd8ceac6b6234c7706214fd39c1cd1e609a0528c199300905090565b6111d4611a4f565b6111dc611a81565b6111e4611a81565b5f60405180608001604052805f81526020015f8152602001848152602001838152509050845f8151811061121b5761121a612c15565b5b6020026020010151815f0181815250508460018151811061123f5761123e612c15565b5b60200260200101518160200181815250505f5f90505b600a811015611305578581600261126c9190612494565b8151811061127d5761127c612c15565b5b6020026020010151826040015182600a811061129c5761129b612c15565b5b6020020181815250508581600a60026112b59190612494565b6112bf9190612494565b815181106112d0576112cf612c15565b5b6020026020010151826060015182600a81106112ef576112ee612c15565b5b6020020181815250508080600101915050611255565b50809350505050919050565b600a8260800151511115611361578160800151516040517f751a29b60000000000000000000000000000000000000000000000000000000081526004016113589190611ed7565b60405180910390fd5b5f5f90505b82608001515181101561143857816060015181600a811061138a57611389612c15565b5b6020020151836080015182815181106113a6576113a5612c15565b5b60200260200101511461142b57826080015181815181106113ca576113c9612c15565b5b6020026020010151826060015182600a81106113e9576113e8612c15565b5b60200201516040517f58372959000000000000000000000000000000000000000000000000000000008152600401611422929190613237565b60405180910390fd5b8080600101915050611366565b505050565b5f8203611476576040517f02698baf00000000000000000000000000000000000000000000000000000000815260040160405180910390fd5b5f81036114af576040517f1e5164f400000000000000000000000000000000000000000000000000000000815260040160405180910390fd5b5050565b60605f5f90505f5f90505b83602001515181101561150d576010846020015182815181106114e4576114e3612c15565b5b6020026020010151036115005781806114fc906131c3565b9250505b80806001019150506114be565b505f600190505f82826115209190612494565b67ffffffffffffffff81111561153957611538611cb8565b5b60405190808252806020026020018201604052801561157257816020015b61155f611aa4565b8152602001906001900390816115575790505b50905060405180606001604052806040518060400160405280600681526020017f6c696e6b494400000000000000000000000000000000000000000000000000008152508152602001875f0151815260200160405180602001604052805f815250815250815f815181106115e9576115e8612c15565b5b60200260200101819052505f600190505f5f90505b8660200151518110156116d45760108760200151828151811061162457611623612c15565b5b6020026020010151036116c757604051806060016040528061164583610fd5565b6040516020016116559190612446565b6040516020818303038152906040528152602001896040015183600a81106116805761167f612c15565b5b6020020151815260200160405180602001604052805f8152508152508383806116a8906131c3565b9450815181106116bb576116ba612c15565b5b60200260200101819052505b80806001019150506115fe565b508194505050505092915050565b5f7f237e158222e3e6968b72b9db0d8043aacf074ad9f650f0d1606b4d82ee432c00905090565b5f7ff0c57e16840df040f15088dc2f81fe391c3923bec73e23a9662efc9c229c6a005f1b905090565b5f5f5f90507a184f03e93ff9f4daa797ed6e38ed64bf6a1f010000000000000000831061178e577a184f03e93ff9f4daa797ed6e38ed64bf6a1f01000000000000000083816117845761178361320a565b5b0492506040810190505b6d04ee2d6d415b85acef810000000083106117cb576d04ee2d6d415b85acef810000000083816117c1576117c061320a565b5b0492506020810190505b662386f26fc1000083106117fa57662386f26fc1000083816117f0576117ef61320a565b5b0492506010810190505b6305f5e1008310611823576305f5e10083816118195761181861320a565b5b0492506008810190505b612710831061184857612710838161183e5761183d61320a565b5b0492506004810190505b6064831061186b57606483816118615761186061320a565b5b0492506002810190505b600a831061187a576001810190505b80915050919050565b61188b611a18565b6118c1576040517fd7e6bcf800000000000000000000000000000000000000000000000000000000815260040160405180910390fd5b565b6118cb611883565b5f73ffffffffffffffffffffffffffffffffffffffff168173ffffffffffffffffffffffffffffffffffffffff160361193b575f6040517f1e4fbdf70000000000000000000000000000000000000000000000000000000081526004016119329190611ea6565b60405180910390fd5b6119448161113a565b50565b5f6119506111a5565b90505f815f015f9054906101000a900473ffffffffffffffffffffffffffffffffffffffff16905082825f015f6101000a81548173ffffffffffffffffffffffffffffffffffffffff021916908373ffffffffffffffffffffffffffffffffffffffff1602179055508273ffffffffffffffffffffffffffffffffffffffff168173ffffffffffffffffffffffffffffffffffffffff167f8be0079c531659141344cd1fd0a4f28419497f9722a3daafe3b4186f6b6457e060405160405180910390a3505050565b5f611a21610dbe565b5f0160089054906101000a900460ff16905090565b6040518060400160405280606081526020015f81525090565b60405180608001604052805f81526020015f8152602001611a6e611a81565b8152602001611a7b611a81565b81525090565b604051806101400160405280600a90602082028036833780820191505090505090565b6040518060600160405280606081526020015f8152602001606081525090565b5f604051905090565b5f5ffd5b5f5ffd5b5f7fffffffff0000000000000000000000000000000000000000000000000000000082169050919050565b611b0981611ad5565b8114611b13575f5ffd5b50565b5f81359050611b2481611b00565b92915050565b5f60208284031215611b3f57611b3e611acd565b5b5f611b4c84828501611b16565b91505092915050565b5f8115159050919050565b611b6981611b55565b82525050565b5f602082019050611b825f830184611b60565b92915050565b5f73ffffffffffffffffffffffffffffffffffffffff82169050919050565b5f611bb182611b88565b9050919050565b611bc181611ba7565b8114611bcb575f5ffd5b50565b5f81359050611bdc81611bb8565b92915050565b5f5f60408385031215611bf857611bf7611acd565b5b5f611c0585828601611bce565b9250506020611c1685828601611bce565b9150509250929050565b5f81519050919050565b5f82825260208201905092915050565b8281835e5f83830152505050565b5f601f19601f8301169050919050565b5f611c6282611c20565b611c6c8185611c2a565b9350611c7c818560208601611c3a565b611c8581611c48565b840191505092915050565b5f6020820190508181035f830152611ca88184611c58565b905092915050565b5f5ffd5b5f5ffd5b7f4e487b71000000000000000000000000000000000000000000000000000000005f52604160045260245ffd5b611cee82611c48565b810181811067ffffffffffffffff82111715611d0d57611d0c611cb8565b5b80604052505050565b5f611d1f611ac4565b9050611d2b8282611ce5565b919050565b5f67ffffffffffffffff821115611d4a57611d49611cb8565b5b611d5382611c48565b9050602081019050919050565b828183375f83830152505050565b5f611d80611d7b84611d30565b611d16565b905082815260208101848484011115611d9c57611d9b611cb4565b5b611da7848285611d60565b509392505050565b5f82601f830112611dc357611dc2611cb0565b5b8135611dd3848260208601611d6e565b91505092915050565b5f60208284031215611df157611df0611acd565b5b5f82013567ffffffffffffffff811115611e0e57611e0d611ad1565b5b611e1a84828501611daf565b91505092915050565b5f819050919050565b5f611e46611e41611e3c84611b88565b611e23565b611b88565b9050919050565b5f611e5782611e2c565b9050919050565b5f611e6882611e4d565b9050919050565b611e7881611e5e565b82525050565b5f602082019050611e915f830184611e6f565b92915050565b611ea081611ba7565b82525050565b5f602082019050611eb95f830184611e97565b92915050565b5f819050919050565b611ed181611ebf565b82525050565b5f602082019050611eea5f830184611ec8565b92915050565b5f5ffd5b5f5ffd5b5f5f83601f840112611f0d57611f0c611cb0565b5b8235905067ffffffffffffffff811115611f2a57611f29611ef0565b5b602083019150836001820283011115611f4657611f45611ef4565b5b9250929050565b5f5f5f5f5f5f5f6080888a031215611f6857611f67611acd565b5b5f611f758a828b01611bce565b975050602088013567ffffffffffffffff811115611f9657611f95611ad1565b5b611fa28a828b01611ef8565b9650965050604088013567ffffffffffffffff811115611fc557611fc4611ad1565b5b611fd18a828b01611ef8565b9450945050606088013567ffffffffffffffff811115611ff457611ff3611ad1565b5b6120008a828b01611ef8565b925092505092959891949750929550565b5f81519050919050565b5f82825260208201905092915050565b5f819050602082019050919050565b5f82825260208201905092915050565b5f61205482611c20565b61205e818561203a565b935061206e818560208601611c3a565b61207781611c48565b840191505092915050565b61208b81611ebf565b82525050565b5f81519050919050565b5f82825260208201905092915050565b5f6120b582612091565b6120bf818561209b565b93506120cf818560208601611c3a565b6120d881611c48565b840191505092915050565b5f606083015f8301518482035f8601526120fd828261204a565b91505060208301516121126020860182612082565b506040830151848203604086015261212a82826120ab565b9150508091505092915050565b5f61214283836120e3565b905092915050565b5f602082019050919050565b5f61216082612011565b61216a818561201b565b93508360208202850161217c8561202b565b805f5b858110156121b757848403895281516121988582612137565b94506121a38361214a565b925060208a0199505060018101905061217f565b50829750879550505050505092915050565b5f6020820190508181035f8301526121e18184612156565b905092915050565b5f5f5f60408486031215612200576121ff611acd565b5b5f84013567ffffffffffffffff81111561221d5761221c611ad1565b5b61222986828701611ef8565b9350935050602084013567ffffffffffffffff81111561224c5761224b611ad1565b5b61225886828701611daf565b9150509250925092565b5f604083015f8301518482035f86015261227c828261204a565b91505060208301516122916020860182612082565b508091505092915050565b5f6020820190508181035f8301526122b48184612262565b905092915050565b5f602082840312156122d1576122d0611acd565b5b5f6122de84828501611bce565b91505092915050565b5f81519050919050565b5f82825260208201905092915050565b5f819050602082019050919050565b5f61231b838361204a565b905092915050565b5f602082019050919050565b5f612339826122e7565b61234381856122f1565b93508360208202850161235585612301565b805f5b8581101561239057848403895281516123718582612310565b945061237c83612323565b925060208a01995050600181019050612358565b50829750879550505050505092915050565b5f6020820190508181035f8301526123ba818461232f565b905092915050565b5f81905092915050565b7f6f70657261746f724f75747075745f00000000000000000000000000000000005f82015250565b5f612400600f836123c2565b915061240b826123cc565b600f82019050919050565b5f61242082611c20565b61242a81856123c2565b935061243a818560208601611c3a565b80840191505092915050565b5f612450826123f4565b915061245c8284612416565b915081905092915050565b7f4e487b71000000000000000000000000000000000000000000000000000000005f52601160045260245ffd5b5f61249e82611ebf565b91506124a983611ebf565b92508282019050808211156124c1576124c0612467565b5b92915050565b7f636972637569745175657279486173685f0000000000000000000000000000005f82015250565b5f6124fb6011836123c2565b9150612506826124c7565b601182019050919050565b5f61251b826124ef565b91506125278284612416565b915081905092915050565b5f819050919050565b5f67ffffffffffffffff82169050919050565b5f61256861256361255e84612532565b611e23565b61253b565b9050919050565b6125788161254e565b82525050565b5f6020820190506125915f83018461256f565b92915050565b5f6125a28284612416565b915081905092915050565b5f6125b782611ebf565b91505f82036125c9576125c8612467565b5b600182039050919050565b5f5ffd5b5f5ffd5b5f67ffffffffffffffff8211156125f6576125f5611cb8565b5b602082029050602081019050919050565b61261081611ebf565b811461261a575f5ffd5b50565b5f8135905061262b81612607565b92915050565b5f61264361263e846125dc565b611d16565b9050808382526020820190506020840283018581111561266657612665611ef4565b5b835b8181101561268f578061267b888261261d565b845260208401935050602081019050612668565b5050509392505050565b5f82601f8301126126ad576126ac611cb0565b5b81356126bd848260208601612631565b91505092915050565b5f67ffffffffffffffff8211156126e0576126df611cb8565b5b602082029050602081019050919050565b5f6127036126fe846126c6565b611d16565b9050808382526020820190506020840283018581111561272657612725611ef4565b5b835b8181101561276d57803567ffffffffffffffff81111561274b5761274a611cb0565b5b8086016127588982612699565b85526020850194505050602081019050612728565b5050509392505050565b5f82601f83011261278b5761278a611cb0565b5b813561279b8482602086016126f1565b91505092915050565b5f67ffffffffffffffff8211156127be576127bd611cb8565b5b602082029050602081019050919050565b5f6127e16127dc846127a4565b611d16565b9050808382526020820190506020840283018581111561280457612803611ef4565b5b835b8181101561284b57803567ffffffffffffffff81111561282957612828611cb0565b5b8086016128368982611daf565b85526020850194505050602081019050612806565b5050509392505050565b5f82601f83011261286957612868611cb0565b5b81356128798482602086016127cf565b91505092915050565b5f6101008284031215612898576128976125d4565b5b6128a3610100611d16565b90505f82013567ffffffffffffffff8111156128c2576128c16125d8565b5b6128ce84828501612699565b5f83015250602082013567ffffffffffffffff8111156128f1576128f06125d8565b5b6128fd84828501612699565b602083015250604082013567ffffffffffffffff811115612921576129206125d8565b5b61292d84828501612699565b604083015250606082013567ffffffffffffffff811115612951576129506125d8565b5b61295d84828501612777565b606083015250608082013567ffffffffffffffff811115612981576129806125d8565b5b61298d84828501612699565b60808301525060a082013567ffffffffffffffff8111156129b1576129b06125d8565b5b6129bd84828501612855565b60a08301525060c06129d18482850161261d565b60c08301525060e06129e58482850161261d565b60e08301525092915050565b5f60208284031215612a0657612a05611acd565b5b5f82013567ffffffffffffffff811115612a2357612a22611ad1565b5b612a2f84828501612882565b91505092915050565b5f67ffffffffffffffff821115612a5257612a51611cb8565b5b602082029050919050565b5f612a6f612a6a84612a38565b611d16565b90508060208402830185811115612a8957612a88611ef4565b5b835b81811015612ab25780612a9e888261261d565b845260208401935050602081019050612a8b565b5050509392505050565b5f82601f830112612ad057612acf611cb0565b5b6002612add848285612a5d565b91505092915050565b5f67ffffffffffffffff821115612b0057612aff611cb8565b5b602082029050919050565b5f612b1d612b1884612ae6565b611d16565b90508060408402830185811115612b3757612b36611ef4565b5b835b81811015612b605780612b4c8882612abc565b845260208401935050604081019050612b39565b5050509392505050565b5f82601f830112612b7e57612b7d611cb0565b5b6002612b8b848285612b0b565b91505092915050565b5f5f5f5f6101208587031215612bad57612bac611acd565b5b5f85013567ffffffffffffffff811115612bca57612bc9611ad1565b5b612bd687828801612699565b9450506020612be787828801612abc565b9350506060612bf887828801612b6a565b92505060e0612c0987828801612abc565b91505092959194509250565b7f4e487b71000000000000000000000000000000000000000000000000000000005f52603260045260245ffd5b5f60029050919050565b5f81905092915050565b5f819050919050565b5f612c6a8383612082565b60208301905092915050565b5f602082019050919050565b612c8b81612c42565b612c958184612c4c565b9250612ca082612c56565b805f5b83811015612cd0578151612cb78782612c5f565b9650612cc283612c76565b925050600181019050612ca3565b505050505050565b5f60029050919050565b5f81905092915050565b5f819050919050565b5f81905092915050565b612d0881612c42565b612d128184612cf5565b9250612d1d82612c56565b805f5b83811015612d4d578151612d348782612c5f565b9650612d3f83612c76565b925050600181019050612d20565b505050505050565b5f612d608383612cff565b60408301905092915050565b5f602082019050919050565b612d8181612cd8565b612d8b8184612ce2565b9250612d9682612cec565b805f5b83811015612dc6578151612dad8782612d55565b9650612db883612d6c565b925050600181019050612d99565b505050505050565b5f81519050919050565b5f82825260208201905092915050565b5f819050602082019050919050565b5f602082019050919050565b5f612e0d82612dce565b612e178185612dd8565b9350612e2283612de8565b805f5b83811015612e52578151612e398882612c5f565b9750612e4483612df7565b925050600181019050612e25565b5085935050505092915050565b5f61012082019050612e735f830187612c82565b612e806040830186612d78565b612e8d60c0830185612c82565b818103610100830152612ea08184612e03565b905095945050505050565b612eb481611b55565b8114612ebe575f5ffd5b50565b5f81519050612ecf81612eab565b92915050565b5f60208284031215612eea57612ee9611acd565b5b5f612ef784828501612ec1565b91505092915050565b7f4e487b71000000000000000000000000000000000000000000000000000000005f52602260045260245ffd5b5f6002820490506001821680612f4457607f821691505b602082108103612f5757612f56612f00565b5b50919050565b5f819050815f5260205f209050919050565b5f6020601f8301049050919050565b5f82821b905092915050565b5f60088302612fb97fffffffffffffffffffffffffffffffffffffffffffffffffffffffffffffffff82612f7e565b612fc38683612f7e565b95508019841693508086168417925050509392505050565b5f612ff5612ff0612feb84611ebf565b611e23565b611ebf565b9050919050565b5f819050919050565b61300e83612fdb565b61302261301a82612ffc565b848454612f8a565b825550505050565b5f5f905090565b61303961302a565b613044818484613005565b505050565b5b818110156130675761305c5f82613031565b60018101905061304a565b5050565b601f8211156130ac5761307d81612f5d565b61308684612f6f565b81016020851015613095578190505b6130a96130a185612f6f565b830182613049565b50505b505050565b5f82821c905092915050565b5f6130cc5f19846008026130b1565b1980831691505092915050565b5f6130e483836130bd565b9150826002028217905092915050565b6130fd82611c20565b67ffffffffffffffff81111561311657613115611cb8565b5b6131208254612f2d565b61312b82828561306b565b5f60209050601f83116001811461315c575f841561314a578287015190505b61315485826130d9565b8655506131bb565b601f19841661316a86612f5d565b5f5b828110156131915784890151825560018201915060208501945060208101905061316c565b868310156131ae57848901516131aa601f8916826130bd565b8355505b6001600288020188555050505b505050505050565b5f6131cd82611ebf565b91507fffffffffffffffffffffffffffffffffffffffffffffffffffffffffffffffff82036131ff576131fe612467565b5b600182019050919050565b7f4e487b71000000000000000000000000000000000000000000000000000000005f52601260045260245ffd5b5f60408201905061324a5f830185611ec8565b6132576020830184611ec8565b939250505056fea2646970667358221220134e2407018f0a64f930c61173a0e853099ecc973965e4749dbaf998fbd81e2264736f6c634300081b0033",
  "linkReferences": {},
  "deployedLinkReferences": {},
  "immutableReferences": {},
  "inputSourceName": "project/contracts/validators/request/LinkedMultiQueryValidator.sol",
  "buildInfoId": "solc-0_8_27-1a62a6ae066befe91cdf2b3a9e93bfad149f5909"
}