{
  "_format": "hh3-artifact-1",
  "contractName": "PoseidonUnit3L",
  "sourceName": "contracts/lib/Poseidon.sol",
  "abi": [
    {
      "inputs": [
        {
          "internalType": "uint256[3]",
          "name": "",
          "type": "uint256[3]"
        }
      ],
      "name": "poseidon",
      "outputs": [
        {
          "internalType": "uint256",
          "name": "",
          "type": "uint256"
        }
      ],
      "stateMutability": "pure",
      "type": "function"
    }
  ],
  "bytecode": "0x61011561004d600b8282823980515f1a6073146041577f4e487b71000000000000000000000000000000000000000000000000000000005f525f60045260245ffd5b305f52607381538281f3fe73000000000000000000000000000000000000000030146080604052600436106032575f3560e01c806325cc70e8146036575b5f5ffd5b604c600480360381019060489190608c565b6060565b6040516057919060c8565b60405180910390f35b5f919050565b5f5ffd5b5f5ffd5b5f819050826020600302820111156086576085606a565b5b92915050565b5f60608284031215609e57609d6066565b5b5f60a984828501606e565b91505092915050565b5f819050919050565b60c28160b2565b82525050565b5f60208201905060d95f83018460bb565b9291505056fea264697066735822122036bfb9a2d5cab7e73c0fa168ff1d5c8a0e53d7b6aca06b6633f197166609b89664736f6c634300081b0033",
  "linkReferences": {},
  "deployedLinkReferences": {},
  "immutableReferences": {},
  "inputSourceName": "project/contracts/lib/Poseidon.sol",
  "buildInfoId": "solc-0_8_27-1a62a6ae066befe91cdf2b3a9e93bfad149f5909"
}