{
  "_format": "hh3-artifact-1",
  "contractName": "SmtLib",
  "sourceName": "contracts/lib/SmtLib.sol",
  "abi": [
    {
      "inputs": [],
      "name": "MAX_DEPTH_HARD_CAP",
      "outputs": [
        {
          "internalType": "uint256",
          "name": "",
          "type": "uint256"
        }
      ],
      "stateMutability": "view",
      "type": "function"
    },
    {
      "inputs": [],
      "name": "ROOT_INFO_LIST_RETURN_LIMIT",
      "outputs": [
        {
          "internalType": "uint256",
          "name": "",
          "type": "uint256"
        }
      ],
      "stateMutability": "view",
      "type": "function"
    }
  ],
  "bytecode": "0x612ded61004d600b8282823980515f1a6073146041577f4e487b71000000000000000000000000000000000000000000000000000000005f525f60045260245ffd5b305f52607381538281f3fe730000000000000000000000000000000000000000301460806040526004361061013f575f3560e01c806379f97125116100c1578063a751be2411610085578063a751be24146103f1578063c1d29f011461040f578063dc9a7c8c14610437578063dea7633a14610467578063e170cf6e14610497578063ec145108146104c75761013f565b806379f9712514610309578063893f99f31461033957806391761b751461036957806392f5b06c146103995780639e43b813146103c95761013f565b806340a73d981161010857806340a73d981461022b5780635db40cda1461024957806362e8f21514610279578063792a470f146102a957806379c17a96146102d95761013f565b806278f030146101435780630912610a14610173578063138271361461019b57806317c850f0146101cb57806321d60953146101fb575b5f5ffd5b61015d60048036038101906101589190611eae565b6104f7565b60405161016a9190611efb565b60405180910390f35b81801561017e575f5ffd5b5061019960048036038101906101949190611eae565b610517565b005b6101b560048036038101906101b09190611f14565b6105f1565b6040516101c291906120e2565b60405180910390f35b6101e560048036038101906101e09190611eae565b61061e565b6040516101f2919061217b565b60405180910390f35b61021560048036038101906102109190611f14565b61067c565b60405161022291906122b5565b60405180910390f35b610233610756565b6040516102409190611efb565b60405180910390f35b610263600480360381019061025e9190611eae565b61075c565b60405161027091906120e2565b60405180910390f35b610293600480360381019061028e91906122d5565b61077f565b6040516102a09190611efb565b60405180910390f35b6102c360048036038101906102be9190611f14565b61078f565b6040516102d091906120e2565b60405180910390f35b6102f360048036038101906102ee9190611f14565b6107bc565b60405161030091906120e2565b60405180910390f35b610323600480360381019061031e91906122d5565b610adf565b6040516103309190611efb565b60405180910390f35b610353600480360381019061034e91906122d5565b610b69565b6040516103609190611efb565b60405180910390f35b610383600480360381019061037e9190612300565b610b76565b60405161039091906122b5565b60405180910390f35b6103b360048036038101906103ae9190611eae565b610ccd565b6040516103c09190612373565b60405180910390f35b8180156103d4575f5ffd5b506103ef60048036038101906103ea9190611eae565b610cef565b005b6103f9610d6e565b6040516104069190611efb565b60405180910390f35b81801561041a575f5ffd5b5061043560048036038101906104309190611f14565b610d74565b005b610451600480360381019061044c9190611eae565b610e2a565b60405161045e919061217b565b60405180910390f35b610481600480360381019061047c9190611eae565b610e89565b60405161048e919061217b565b60405180910390f35b6104b160048036038101906104ac9190611eae565b610f37565b6040516104be9190612465565b60405180910390f35b6104e160048036038101906104dc91906122d5565b610fc5565b6040516104ee9190612373565b60405180910390f35b5f826002015f8381526020019081526020015f2080549050905092915050565b5f8111610559576040517f08c379a0000000000000000000000000000000000000000000000000000000008152600401610550906124fe565b60405180910390fd5b8160030154811161059f576040517f08c379a000000000000000000000000000000000000000000000000000000000815260040161059690612566565b60405180910390fd5b6101008111156105e4576040517f08c379a00000000000000000000000000000000000000000000000000000000081526004016105db906125f4565b60405180910390fd5b8082600301819055505050565b6105f9611d96565b5f610604858461061e565b90506106148585835f01516107bc565b9150509392505050565b610626611dd8565b42821115610669576040517f08c379a00000000000000000000000000000000000000000000000000000000081526004016106609061265c565b60405180910390fd5b61067483835f610fde565b905092915050565b60605f5f610695866001018054905086866103e8611024565b915091505f82826106a691906126a7565b67ffffffffffffffff8111156106bf576106be6126da565b5b6040519080825280602002602001820160405280156106f857816020015b6106e5611dd8565b8152602001906001900390816106dd5790505b5090505f8390505b82811015610748576107128882611118565b82858361071f91906126a7565b815181106107305761072f612707565b5b60200260200101819052508080600101915050610700565b508093505050509392505050565b6103e881565b610764611d96565b610777838361077286610adf565b6107bc565b905092915050565b5f81600101805490509050919050565b610797611d96565b5f6107a28584610e2a565b90506107b28585835f01516107bc565b9150509392505050565b6107c4611d96565b83826107d08282610ccd565b61080f576040517f08c379a00000000000000000000000000000000000000000000000000000000081526004016108069061277e565b60405180910390fd5b5f866003015467ffffffffffffffff81111561082e5761082d6126da565b5b60405190808252806020026020018201604052801561085c5781602001602082028036833780820191505090505b5090505f5f90505b876003015481101561089d575f82828151811061088457610883612707565b5b6020026020010181815250508080600101915050610864565b505f6040518061010001604052808781526020015f151581526020018381526020018881526020015f81526020015f151581526020015f81526020015f81525090505f8690506108eb611e08565b5f5f90505b8a600301548111610ace576109058b84610f37565b91505f600281111561091a5761091961238c565b5b825f015160028111156109305761092f61238c565b5b0315610ace576001600281111561094a5761094961238c565b5b825f015160028111156109605761095f61238c565b5b036109d85783606001518260600151036109985760018460200190151590811515815250508160800151846080018181525050610ace565b60018460a001901515908115158152505081606001518460c001818152505081608001518460e00181815250508160800151846080018181525050610ace565b6002808111156109eb576109ea61238c565b5b825f01516002811115610a0157610a0061238c565b5b03610a8057600180828660600151901c1603610a4b5781604001519250816020015184604001518281518110610a3a57610a39612707565b5b602002602001018181525050610a7b565b81602001519250816040015184604001518281518110610a6e57610a6d612707565b5b6020026020010181815250505b610abb565b6040517f08c379a0000000000000000000000000000000000000000000000000000000008152600401610ab2906127e6565b60405180910390fd5b8080610ac690612804565b9150506108f0565b508296505050505050509392505050565b5f81610aea81610fc5565b610b29576040517f08c379a0000000000000000000000000000000000000000000000000000000008152600401610b2090612895565b60405180910390fd5b8260010160018460010180549050610b4191906126a7565b81548110610b5257610b51612707565b5b905f5260205f2090600302015f0154915050919050565b5f81600301549050919050565b60608484610b848282610ccd565b610bc3576040517f08c379a0000000000000000000000000000000000000000000000000000000008152600401610bba9061277e565b60405180910390fd5b5f876002015f8881526020019081526020015f2090505f5f610bed838054905089896103e8611024565b915091505f8282610bfe91906126a7565b67ffffffffffffffff811115610c1757610c166126da565b5b604051908082528060200260200182016040528015610c5057816020015b610c3d611dd8565b815260200190600190039081610c355790505b5090505f8390505b82811015610cbb57610c858c868381548110610c7757610c76612707565b5b905f5260205f200154611118565b828583610c9291906126a7565b81518110610ca357610ca2612707565b5b60200260200101819052508080600101915050610c58565b50809650505050505050949350505050565b5f5f836002015f8481526020019081526020015f208054905011905092915050565b610cf882610fc5565b15610d38576040517f08c379a0000000000000000000000000000000000000000000000000000000008152600401610d2f906128fd565b60405180910390fd5b610d428282610517565b610d4e825f5f5f611256565b6001826004015f6101000a81548160ff0219169083151502179055505050565b61010081565b82610d7e81610fc5565b610dbd576040517f08c379a0000000000000000000000000000000000000000000000000000000008152600401610db490612895565b60405180910390fd5b5f6040518060a0016040528060016002811115610ddd57610ddc61238c565b5b81526020015f81526020015f81526020018581526020018481525090505f610e0486610adf565b90505f610e138784845f611309565b9050610e2187824243611256565b50505050505050565b610e32611dd8565b43821115610e75576040517f08c379a0000000000000000000000000000000000000000000000000000000008152600401610e6c90612965565b60405180910390fd5b610e8183836001610fde565b905092915050565b610e91611dd8565b8282610e9d8282610ccd565b610edc576040517f08c379a0000000000000000000000000000000000000000000000000000000008152600401610ed39061277e565b60405180910390fd5b5f856002015f8681526020019081526020015f2090505f8160018380549050610f0591906126a7565b81548110610f1657610f15612707565b5b905f5260205f2001549050610f2b8782611118565b94505050505092915050565b610f3f611e08565b825f015f8381526020019081526020015f206040518060a00160405290815f82015f9054906101000a900460ff166002811115610f7f57610f7e61238c565b5b6002811115610f9157610f9061238c565b5b8152602001600182015481526020016002820154815260200160038201548152602001600482015481525050905092915050565b5f816004015f9054906101000a900460ff169050919050565b610fe6611dd8565b5f5f610ffd85858861159c9092919063ffffffff16565b915091508061100f5761100e612983565b5b6110198683611118565b925050509392505050565b5f5f5f8411611068576040517f08c379a000000000000000000000000000000000000000000000000000000000815260040161105f906129fa565b60405180910390fd5b828411156110ab576040517f08c379a00000000000000000000000000000000000000000000000000000000081526004016110a290612a62565b60405180910390fd5b8585106110ed576040517f08c379a00000000000000000000000000000000000000000000000000000000081526004016110e490612aca565b60405180910390fd5b5f84866110fa9190612ae8565b905086811115611108578690505b8581925092505094509492505050565b611120611dd8565b5f6001846001018054905061113591906126a7565b831490505f8460010184815481106111505761114f612707565b5b905f5260205f20906003020190506040518060c00160405280825f01548152602001836111ad57866001016001876111889190612ae8565b8154811061119957611198612707565b5b905f5260205f2090600302015f01546111af565b5f5b815260200182600101548152602001836111fa57866001016001876111d49190612ae8565b815481106111e5576111e4612707565b5b905f5260205f209060030201600101546111fc565b5f5b8152602001826002015481526020018361124757866001016001876112219190612ae8565b8154811061123257611231612707565b5b905f5260205f20906003020160020154611249565b5f5b8152509250505092915050565b83600101604051806060016040528085815260200184815260200183815250908060018154018082558091505060019003905f5260205f2090600302015f909190919091505f820151815f015560208201518160010155604082015181600201555050836002015f8481526020019081526020015f20600185600101805490506112e091906126a7565b908060018154018082558091505060019003905f5260205f20015f909190919091505550505050565b5f8460030154821115611351576040517f08c379a000000000000000000000000000000000000000000000000000000000815260040161134890612b65565b60405180910390fd5b5f855f015f8581526020019081526020015f206040518060a00160405290815f82015f9054906101000a900460ff1660028111156113925761139161238c565b5b60028111156113a4576113a361238c565b5b815260200160018201548152602001600282015481526020016003820154815260200160048201548152505090505f5f5f90505f60028111156113ea576113e961238c565b5b835f01516002811115611400576113ff61238c565b5b036114165761140f888861177d565b905061158e565b6001600281111561142a5761142961238c565b5b835f015160028111156114405761143f61238c565b5b03611477578660600151836060015114611465576114608888858861194f565b611470565b61146f888861177d565b5b905061158d565b60028081111561148a5761148961238c565b5b835f015160028111156114a05761149f61238c565b5b0361158c576114ad611e08565b600180878a60600151901c1603611520576114da8989866040015160018a6114d59190612ae8565b611309565b92506040518060a001604052806002808111156114fa576114f961238c565b5b8152602001856020015181526020018481526020015f81526020015f815250905061157e565b61153c8989866020015160018a6115379190612ae8565b611309565b92506040518060a0016040528060028081111561155c5761155b61238c565b5b8152602001848152602001856040015181526020015f81526020015f81525090505b611588898261177d565b9150505b5b5b809350505050949350505050565b5f5f5f8560010180549050036115b7575f5f91509150611775565b5f5f90505f600187600101805490506115d091906126a7565b90505f5b81831161176a57600283836115e99190612ae8565b6115f39190612bb0565b90505f61164989600101838154811061160f5761160e612707565b5b905f5260205f2090600302016040518060600160405290815f82015481526020016001820154815260200160028201548152505088611b40565b9050878103611711575b6001896001018054905061166791906126a7565b821015611701575f6116ce8a6001016001856116839190612ae8565b8154811061169457611693612707565b5b905f5260205f2090600302016040518060600160405290815f82015481526020016001820154815260200160028201548152505089611b40565b90508881036116ea5782806116e290612804565b9350506116fb565b826001965096505050505050611775565b50611653565b8160019550955050505050611775565b8088111561172d576001826117269190612ae8565b9350611764565b808810801561173b57505f82115b156117545760018261174d91906126a7565b9250611763565b5f5f9550955050505050611775565b5b506115d4565b816001945094505050505b935093915050565b5f5f61178883611bf0565b90505f600281111561179d5761179c61238c565b5b845f015f8381526020019081526020015f205f015f9054906101000a900460ff1660028111156117d0576117cf61238c565b5b146118d957825f015160028111156117eb576117ea61238c565b5b845f015f8381526020019081526020015f205f015f9054906101000a900460ff16600281111561181e5761181d61238c565b5b1461182c5761182b612983565b5b8260200151845f015f8381526020019081526020015f20600101541461185557611854612983565b5b8260400151845f015f8381526020019081526020015f20600201541461187e5761187d612983565b5b8260600151845f015f8381526020019081526020015f2060030154146118a7576118a6612983565b5b8260800151845f015f8381526020019081526020015f2060040154146118d0576118cf612983565b5b80915050611949565b82845f015f8381526020019081526020015f205f820151815f015f6101000a81548160ff021916908360028111156119145761191361238c565b5b021790555060208201518160010155604082015181600201556060820151816003015560808201518160040155905050809150505b92915050565b5f84600301548210611996576040517f08c379a000000000000000000000000000000000000000000000000000000000815260040161198d90612b65565b60405180910390fd5b61199e611e08565b5f600180858860600151901c161490505f600180868860600151901c1614905080151582151503611a7b575f6119e289898960018a6119dd9190612ae8565b61194f565b90508215611a2a576040518060a00160405280600280811115611a0857611a0761238c565b5b81526020015f81526020018281526020015f81526020015f8152509350611a66565b6040518060a00160405280600280811115611a4857611a4761238c565b5b81526020018281526020015f81526020015f81526020015f81525093505b611a70898561177d565b945050505050611b38565b8115611ad1576040518060a00160405280600280811115611a9f57611a9e61238c565b5b8152602001611aad88611bf0565b8152602001611abb89611bf0565b81526020015f81526020015f8152509250611b1d565b6040518060a00160405280600280811115611aef57611aee61238c565b5b8152602001611afd89611bf0565b8152602001611b0b88611bf0565b81526020015f81526020015f81525092505b611b27888861177d565b50611b32888461177d565b93505050505b949350505050565b5f600180811115611b5457611b5361238c565b5b826001811115611b6757611b6661238c565b5b03611b785782604001519050611bea565b5f6001811115611b8b57611b8a61238c565b5b826001811115611b9e57611b9d61238c565b5b03611baf5782602001519050611bea565b6040517f08c379a0000000000000000000000000000000000000000000000000000000008152600401611be190612c2a565b60405180910390fd5b92915050565b5f5f5f905060016002811115611c0957611c0861238c565b5b835f01516002811115611c1f57611c1e61238c565b5b03611cc9575f604051806060016040528085606001518152602001856080015181526020016001815250905073__$4e31a1067af539af00e032cb1606aaaa51$__6325cc70e8826040518263ffffffff1660e01b8152600401611c829190612cc7565b602060405180830381865af4158015611c9d573d5f5f3e3d5ffd5b505050506040513d601f19601f82011682018060405250810190611cc19190612cf4565b915050611d8d565b600280811115611cdc57611cdb61238c565b5b835f01516002811115611cf257611cf161238c565b5b03611d8c5773__$53301c79d9832e9ed47fa4e9b64c5749d6$__6329a5f2f660405180604001604052808660200151815260200186604001518152506040518263ffffffff1660e01b8152600401611d4a9190612d9e565b602060405180830381865af4158015611d65573d5f5f3e3d5ffd5b505050506040513d601f19601f82011682018060405250810190611d899190612cf4565b90505b5b80915050919050565b6040518061010001604052805f81526020015f15158152602001606081526020015f81526020015f81526020015f151581526020015f81526020015f81525090565b6040518060c001604052805f81526020015f81526020015f81526020015f81526020015f81526020015f81525090565b6040518060a001604052805f6002811115611e2657611e2561238c565b5b81526020015f81526020015f81526020015f81526020015f81525090565b5f5ffd5b5f819050919050565b611e5a81611e48565b8114611e64575f5ffd5b50565b5f81359050611e7581611e51565b92915050565b5f819050919050565b611e8d81611e7b565b8114611e97575f5ffd5b50565b5f81359050611ea881611e84565b92915050565b5f5f60408385031215611ec457611ec3611e44565b5b5f611ed185828601611e67565b9250506020611ee285828601611e9a565b9150509250929050565b611ef581611e7b565b82525050565b5f602082019050611f0e5f830184611eec565b92915050565b5f5f5f60608486031215611f2b57611f2a611e44565b5b5f611f3886828701611e67565b9350506020611f4986828701611e9a565b9250506040611f5a86828701611e9a565b9150509250925092565b611f6d81611e7b565b82525050565b5f8115159050919050565b611f8781611f73565b82525050565b5f81519050919050565b5f82825260208201905092915050565b5f819050602082019050919050565b5f611fc18383611f64565b60208301905092915050565b5f602082019050919050565b5f611fe382611f8d565b611fed8185611f97565b9350611ff883611fa7565b805f5b8381101561202857815161200f8882611fb6565b975061201a83611fcd565b925050600181019050611ffb565b5085935050505092915050565b5f61010083015f83015161204b5f860182611f64565b50602083015161205e6020860182611f7e565b50604083015184820360408601526120768282611fd9565b915050606083015161208b6060860182611f64565b50608083015161209e6080860182611f64565b5060a08301516120b160a0860182611f7e565b5060c08301516120c460c0860182611f64565b5060e08301516120d760e0860182611f64565b508091505092915050565b5f6020820190508181035f8301526120fa8184612035565b905092915050565b60c082015f8201516121165f850182611f64565b5060208201516121296020850182611f64565b50604082015161213c6040850182611f64565b50606082015161214f6060850182611f64565b5060808201516121626080850182611f64565b5060a082015161217560a0850182611f64565b50505050565b5f60c08201905061218e5f830184612102565b92915050565b5f81519050919050565b5f82825260208201905092915050565b5f819050602082019050919050565b60c082015f8201516121d15f850182611f64565b5060208201516121e46020850182611f64565b5060408201516121f76040850182611f64565b50606082015161220a6060850182611f64565b50608082015161221d6080850182611f64565b5060a082015161223060a0850182611f64565b50505050565b5f61224183836121bd565b60c08301905092915050565b5f602082019050919050565b5f61226382612194565b61226d818561219e565b9350612278836121ae565b805f5b838110156122a857815161228f8882612236565b975061229a8361224d565b92505060018101905061227b565b5085935050505092915050565b5f6020820190508181035f8301526122cd8184612259565b905092915050565b5f602082840312156122ea576122e9611e44565b5b5f6122f784828501611e67565b91505092915050565b5f5f5f5f6080858703121561231857612317611e44565b5b5f61232587828801611e67565b945050602061233687828801611e9a565b935050604061234787828801611e9a565b925050606061235887828801611e9a565b91505092959194509250565b61236d81611f73565b82525050565b5f6020820190506123865f830184612364565b92915050565b7f4e487b71000000000000000000000000000000000000000000000000000000005f52602160045260245ffd5b600381106123ca576123c961238c565b5b50565b5f8190506123da826123b9565b919050565b5f6123e9826123cd565b9050919050565b6123f9816123df565b82525050565b60a082015f8201516124135f8501826123f0565b5060208201516124266020850182611f64565b5060408201516124396040850182611f64565b50606082015161244c6060850182611f64565b50608082015161245f6080850182611f64565b50505050565b5f60a0820190506124785f8301846123ff565b92915050565b5f82825260208201905092915050565b7f4d6178206465707468206d7573742062652067726561746572207468616e207a5f8201527f65726f0000000000000000000000000000000000000000000000000000000000602082015250565b5f6124e860238361247e565b91506124f38261248e565b604082019050919050565b5f6020820190508181035f830152612515816124dc565b9050919050565b7f4d61782064657074682063616e206f6e6c7920626520696e63726561736564005f82015250565b5f612550601f8361247e565b915061255b8261251c565b602082019050919050565b5f6020820190508181035f83015261257d81612544565b9050919050565b7f4d61782064657074682069732067726561746572207468616e206861726420635f8201527f6170000000000000000000000000000000000000000000000000000000000000602082015250565b5f6125de60228361247e565b91506125e982612584565b604082019050919050565b5f6020820190508181035f83015261260b816125d2565b9050919050565b7f4e6f206675747572652074696d657374616d707320616c6c6f776564000000005f82015250565b5f612646601c8361247e565b915061265182612612565b602082019050919050565b5f6020820190508181035f8301526126738161263a565b9050919050565b7f4e487b71000000000000000000000000000000000000000000000000000000005f52601160045260245ffd5b5f6126b182611e7b565b91506126bc83611e7b565b92508282039050818111156126d4576126d361267a565b5b92915050565b7f4e487b71000000000000000000000000000000000000000000000000000000005f52604160045260245ffd5b7f4e487b71000000000000000000000000000000000000000000000000000000005f52603260045260245ffd5b7f526f6f7420646f6573206e6f74206578697374000000000000000000000000005f82015250565b5f61276860138361247e565b915061277382612734565b602082019050919050565b5f6020820190508181035f8301526127958161275c565b9050919050565b7f496e76616c6964206e6f646520747970650000000000000000000000000000005f82015250565b5f6127d060118361247e565b91506127db8261279c565b602082019050919050565b5f6020820190508181035f8301526127fd816127c4565b9050919050565b5f61280e82611e7b565b91507fffffffffffffffffffffffffffffffffffffffffffffffffffffffffffffffff82036128405761283f61267a565b5b600182019050919050565b7f536d74206973206e6f7420696e697469616c697a6564000000000000000000005f82015250565b5f61287f60168361247e565b915061288a8261284b565b602082019050919050565b5f6020820190508181035f8301526128ac81612873565b9050919050565b7f536d7420697320616c726561647920696e697469616c697a65640000000000005f82015250565b5f6128e7601a8361247e565b91506128f2826128b3565b602082019050919050565b5f6020820190508181035f830152612914816128db565b9050919050565b7f4e6f2066757475726520626c6f636b7320616c6c6f77656400000000000000005f82015250565b5f61294f60188361247e565b915061295a8261291b565b602082019050919050565b5f6020820190508181035f83015261297c81612943565b9050919050565b7f4e487b71000000000000000000000000000000000000000000000000000000005f52600160045260245ffd5b7f4c656e6774682073686f756c642062652067726561746572207468616e2030005f82015250565b5f6129e4601f8361247e565b91506129ef826129b0565b602082019050919050565b5f6020820190508181035f830152612a11816129d8565b9050919050565b7f4c656e677468206c696d697420657863656564656400000000000000000000005f82015250565b5f612a4c60158361247e565b9150612a5782612a18565b602082019050919050565b5f6020820190508181035f830152612a7981612a40565b9050919050565b7f537461727420696e646578206f7574206f6620626f756e6473000000000000005f82015250565b5f612ab460198361247e565b9150612abf82612a80565b602082019050919050565b5f6020820190508181035f830152612ae181612aa8565b9050919050565b5f612af282611e7b565b9150612afd83611e7b565b9250828201905080821115612b1557612b1461267a565b5b92915050565b7f4d617820646570746820726561636865640000000000000000000000000000005f82015250565b5f612b4f60118361247e565b9150612b5a82612b1b565b602082019050919050565b5f6020820190508181035f830152612b7c81612b43565b9050919050565b7f4e487b71000000000000000000000000000000000000000000000000000000005f52601260045260245ffd5b5f612bba82611e7b565b9150612bc583611e7b565b925082612bd557612bd4612b83565b5b828204905092915050565b7f496e76616c6964207365617263682074797065000000000000000000000000005f82015250565b5f612c1460138361247e565b9150612c1f82612be0565b602082019050919050565b5f6020820190508181035f830152612c4181612c08565b9050919050565b5f60039050919050565b5f81905092915050565b5f819050919050565b5f602082019050919050565b612c7a81612c48565b612c848184612c52565b9250612c8f82612c5c565b805f5b83811015612cbf578151612ca68782611fb6565b9650612cb183612c65565b925050600181019050612c92565b505050505050565b5f606082019050612cda5f830184612c71565b92915050565b5f81519050612cee81611e84565b92915050565b5f60208284031215612d0957612d08611e44565b5b5f612d1684828501612ce0565b91505092915050565b5f60029050919050565b5f81905092915050565b5f819050919050565b5f602082019050919050565b612d5181612d1f565b612d5b8184612d29565b9250612d6682612d33565b805f5b83811015612d96578151612d7d8782611fb6565b9650612d8883612d3c565b925050600181019050612d69565b505050505050565b5f604082019050612db15f830184612d48565b9291505056fea2646970667358221220c7b6c97126d463d8a4d976daaf579ba091edb8b9e1c584de1538578bfb12175f64736f6c634300081b0033",
  "linkReferences": {
    "project/contracts/lib/Poseidon.sol": {
      "PoseidonUnit2L": [
        {
          "length": 20,
          "start": 7494
        }
      ],
      "PoseidonUnit3L": [
        {
          "length": 20,
          "start": 7322
        }
      ]
    }
  },
  "deployedLinkReferences": {
    "project/contracts/lib/Poseidon.sol": {
      "PoseidonUnit2L": [
        {
          "length": 20,
          "start": 7417
        }
      ],
      "PoseidonUnit3L": [
        {
          "length": 20,
          "start": 7245
        }
      ]
    }
  },
  "immutableReferences": {},
  "inputSourceName": "project/contracts/lib/SmtLib.sol",
  "buildInfoId": "solc-0_8_27-1a62a6ae066befe91cdf2b3a9e93bfad149f5909"
}