{
  "_format": "hh-sol-artifact-1",
  "contractName": "IdentityTreeStore",
  "sourceName": "contracts/identitytreestore/IdentityTreeStore.sol",
  "abi": [
    {
      "inputs": [],
      "name": "InvalidInitialization",
      "type": "error"
    },
    {
      "inputs": [],
      "name": "InvalidNodeType",
      "type": "error"
    },
    {
      "inputs": [],
      "name": "InvalidStateNode",
      "type": "error"
    },
    {
      "inputs": [],
      "name": "NodeNotFound",
      "type": "error"
    },
    {
      "inputs": [],
      "name": "NotInitializing",
      "type": "error"
    },
    {
      "inputs": [],
      "name": "UnsupportedLength",
      "type": "error"
    },
    {
      "anonymous": false,
      "inputs": [
        {
          "indexed": false,
          "internalType": "uint64",
          "name": "version",
          "type": "uint64"
        }
      ],
      "name": "Initialized",
      "type": "event"
    },
    {
      "inputs": [],
      "name": "MAX_SMT_DEPTH",
      "outputs": [
        {
          "internalType": "uint256",
          "name": "",
          "type": "uint256"
        }
      ],
      "stateMutability": "view",
      "type": "function"
    },
    {
      "inputs": [],
      "name": "VERSION",
      "outputs": [
        {
          "internalType": "string",
          "name": "",
          "type": "string"
        }
      ],
      "stateMutability": "view",
      "type": "function"
    },
    {
      "inputs": [
        {
          "internalType": "uint256",
          "name": "key",
          "type": "uint256"
        }
      ],
      "name": "getNode",
      "outputs": [
        {
          "internalType": "uint256[]",
          "name": "",
          "type": "uint256[]"
        }
      ],
      "stateMutability": "view",
      "type": "function"
    },
    {
      "inputs": [
        {
          "internalType": "uint256",
          "name": "id",
          "type": "uint256"
        },
        {
          "internalType": "uint64",
          "name": "nonce",
          "type": "uint64"
        }
      ],
      "name": "getRevocationStatus",
      "outputs": [
        {
          "components": [
            {
              "components": [
                {
                  "internalType": "uint256",
                  "name": "state",
                  "type": "uint256"
                },
                {
                  "internalType": "uint256",
                  "name": "claimsTreeRoot",
                  "type": "uint256"
                },
                {
                  "internalType": "uint256",
                  "name": "revocationTreeRoot",
                  "type": "uint256"
                },
                {
                  "internalType": "uint256",
                  "name": "rootOfRoots",
                  "type": "uint256"
                }
              ],
              "internalType": "struct IOnchainCredentialStatusResolver.IdentityStateRoots",
              "name": "issuer",
              "type": "tuple"
            },
            {
              "components": [
                {
                  "internalType": "uint256",
                  "name": "root",
                  "type": "uint256"
                },
                {
                  "internalType": "bool",
                  "name": "existence",
                  "type": "bool"
                },
                {
                  "internalType": "uint256[]",
                  "name": "siblings",
                  "type": "uint256[]"
                },
                {
                  "internalType": "uint256",
                  "name": "index",
                  "type": "uint256"
                },
                {
                  "internalType": "uint256",
                  "name": "value",
                  "type": "uint256"
                },
                {
                  "internalType": "bool",
                  "name": "auxExistence",
                  "type": "bool"
                },
                {
                  "internalType": "uint256",
                  "name": "auxIndex",
                  "type": "uint256"
                },
                {
                  "internalType": "uint256",
                  "name": "auxValue",
                  "type": "uint256"
                }
              ],
              "internalType": "struct IOnchainCredentialStatusResolver.Proof",
              "name": "mtp",
              "type": "tuple"
            }
          ],
          "internalType": "struct IOnchainCredentialStatusResolver.CredentialStatus",
          "name": "",
          "type": "tuple"
        }
      ],
      "stateMutability": "view",
      "type": "function"
    },
    {
      "inputs": [
        {
          "internalType": "uint256",
          "name": "id",
          "type": "uint256"
        },
        {
          "internalType": "uint256",
          "name": "state",
          "type": "uint256"
        },
        {
          "internalType": "uint64",
          "name": "nonce",
          "type": "uint64"
        }
      ],
      "name": "getRevocationStatusByIdAndState",
      "outputs": [
        {
          "components": [
            {
              "components": [
                {
                  "internalType": "uint256",
                  "name": "state",
                  "type": "uint256"
                },
                {
                  "internalType": "uint256",
                  "name": "claimsTreeRoot",
                  "type": "uint256"
                },
                {
                  "internalType": "uint256",
                  "name": "revocationTreeRoot",
                  "type": "uint256"
                },
                {
                  "internalType": "uint256",
                  "name": "rootOfRoots",
                  "type": "uint256"
                }
              ],
              "internalType": "struct IOnchainCredentialStatusResolver.IdentityStateRoots",
              "name": "issuer",
              "type": "tuple"
            },
            {
              "components": [
                {
                  "internalType": "uint256",
                  "name": "root",
                  "type": "uint256"
                },
                {
                  "internalType": "bool",
                  "name": "existence",
                  "type": "bool"
                },
                {
                  "internalType": "uint256[]",
                  "name": "siblings",
                  "type": "uint256[]"
                },
                {
                  "internalType": "uint256",
                  "name": "index",
                  "type": "uint256"
                },
                {
                  "internalType": "uint256",
                  "name": "value",
                  "type": "uint256"
                },
                {
                  "internalType": "bool",
                  "name": "auxExistence",
                  "type": "bool"
                },
                {
                  "internalType": "uint256",
                  "name": "auxIndex",
                  "type": "uint256"
                },
                {
                  "internalType": "uint256",
                  "name": "auxValue",
                  "type": "uint256"
                }
              ],
              "internalType": "struct IOnchainCredentialStatusResolver.Proof",
              "name": "mtp",
              "type": "tuple"
            }
          ],
          "internalType": "struct IOnchainCredentialStatusResolver.CredentialStatus",
          "name": "",
          "type": "tuple"
        }
      ],
      "stateMutability": "view",
      "type": "function"
    },
    {
      "inputs": [
        {
          "internalType": "address",
          "name": "state",
          "type": "address"
        }
      ],
      "name": "initialize",
      "outputs": [],
      "stateMutability": "nonpayable",
      "type": "function"
    },
    {
      "inputs": [
        {
          "internalType": "uint256[][]",
          "name": "nodes",
          "type": "uint256[][]"
        }
      ],
      "name": "saveNodes",
      "outputs": [],
      "stateMutability": "nonpayable",
      "type": "function"
    }
  ],
  "bytecode": "0x6080604052348015600f57600080fd5b50611b828061001f6000396000f3fe608060405234801561001057600080fd5b506004361061007d5760003560e01c8063879957f71161005b578063879957f714610100578063aad729211461011c578063c4d66de81461014c578063ffa1ad74146101685761007d565b8063110c96a7146100825780634f0f4aa9146100b25780636d15867c146100e2575b600080fd5b61009c60048036038101906100979190610ff4565b610186565b6040516100a9919061124f565b60405180910390f35b6100cc60048036038101906100c79190611271565b61024e565b6040516100d9919061130d565b60405180910390f35b6100ea6102b2565b6040516100f7919061133e565b60405180910390f35b61011a60048036038101906101159190611593565b6102b7565b005b610136600480360381019061013191906115dc565b6102d4565b604051610143919061124f565b60405180910390f35b6101666004803603810190610161919061168d565b6102ef565b005b6101706104ff565b60405161017d9190611739565b60405180910390f35b61018e610e5f565b6000610198610538565b60000160009054906101000a900473ffffffffffffffffffffffffffffffffffffffff1673ffffffffffffffffffffffffffffffffffffffff1663b4bdea55856040518263ffffffff1660e01b81526004016101f4919061133e565b60e060405180830381865afa158015610211573d6000803e3d6000fd5b505050506040513d601f19601f820116820180604052508101906102359190611829565b6020015190506102458184610560565b91505092915050565b6060600061026c8361025e61069e565b6106c690919063ffffffff16565b905060008151036102a9576040517f4825e09300000000000000000000000000000000000000000000000000000000815260040160405180910390fd5b80915050919050565b602881565b6102d1816102c361069e565b61073490919063ffffffff16565b50565b6102dc610e5f565b6102e68383610560565b90509392505050565b60006102f96107e1565b905060008160000160089054906101000a900460ff1615905060008260000160009054906101000a900467ffffffffffffffff1690506000808267ffffffffffffffff161480156103475750825b9050600060018367ffffffffffffffff1614801561037c575060003073ffffffffffffffffffffffffffffffffffffffff163b145b90508115801561038a575080155b156103c1576040517ff92ee8a900000000000000000000000000000000000000000000000000000000815260040160405180910390fd5b60018560000160006101000a81548167ffffffffffffffff021916908367ffffffffffffffff16021790555083156104115760018560000160086101000a81548160ff0219169083151502179055505b600061041b610538565b9050600061042761069e565b9050878260000160006101000a81548173ffffffffffffffffffffffffffffffffffffffff021916908373ffffffffffffffffffffffffffffffffffffffff1602179055506108098160010160006101000a81548167ffffffffffffffff021916908367ffffffffffffffff160217905550505083156104f75760008560000160086101000a81548160ff0219169083151502179055507fc7f505b2f371ae2175ee4913f4499e1f2633a7b5936321eed1cdaeb6115181d260016040516104ee919061189b565b60405180910390a15b505050505050565b6040518060400160405280600581526020017f312e312e3000000000000000000000000000000000000000000000000000000081525081565b60007f95ca427007e091a13a7ccfcb233b8a2ed19d987330a248c445b1b483a35bb800905090565b610568610e5f565b60006105738461024e565b905060036004811115610589576105886118b6565b5b61059282610a07565b60048111156105a4576105a36118b6565b5b146105db576040517f90cb1da300000000000000000000000000000000000000000000000000000000815260040160405180910390fd5b6000604051806040016040528060405180608001604052808881526020018560008151811061060d5761060c6118e5565b5b602002602001015181526020018560018151811061062e5761062d6118e5565b5b602002602001015181526020018560028151811061064f5761064e6118e5565b5b6020026020010151815250815260200161068e84600181518110610676576106756118e5565b5b60200260200101518767ffffffffffffffff16610a83565b8152509050809250505092915050565b60007f0f7e3bdc6cc0e880d509aa1f6b8d1a88e5fcb7274e18dfba772424a36fe9b400905090565b606082600001600083815260200190815260200160002080548060200260200160405190810160405280929190818152602001828054801561072757602002820191906000526020600020905b815481526020019060010190808311610713575b5050505050905092915050565b60005b81518110156107dc576000610788838381518110610758576107576118e5565b5b60200260200101518560010160009054906101000a90048015610e85021767ffffffffffffffff1663ffffffff16565b905082828151811061079d5761079c6118e5565b5b602002602001015184600001600083815260200190815260200160002090805190602001906107cd929190610e8f565b50508080600101915050610737565b505050565b60007ff0c57e16840df040f15088dc2f81fe391c3923bec73e23a9662efc9c229c6a00905090565b600060028251036108dd5773__$8c9bdaf1689fe885300f016d553887f6b1$__6329a5f2f660405180604001604052808560008151811061084d5761084c6118e5565b5b602002602001015181526020018560018151811061086e5761086d6118e5565b5b60200260200101518152506040518263ffffffff1660e01b815260040161089591906119bf565b602060405180830381865af41580156108b2573d6000803e3d6000fd5b505050506040513d601f19601f820116820180604052508101906108d691906119da565b9050610a02565b60038251036109d05773__$8729263a95f1af1a779e9e17f19d7206ca$__6325cc70e860405180606001604052808560008151811061091f5761091e6118e5565b5b60200260200101518152602001856001815181106109405761093f6118e5565b5b6020026020010151815260200185600281518110610961576109606118e5565b5b60200260200101518152506040518263ffffffff1660e01b81526004016109889190611a8b565b602060405180830381865af41580156109a5573d6000803e3d6000fd5b505050506040513d601f19601f820116820180604052508101906109c991906119da565b9050610a02565b6040517f1747868100000000000000000000000000000000000000000000000000000000815260040160405180910390fd5b919050565b60006002825103610a1b5760019050610a7e565b60038251148015610a475750600182600281518110610a3d57610a3c6118e5565b5b6020026020010151145b15610a555760029050610a7e565b6003825103610a675760039050610a7e565b6000825103610a795760049050610a7e565b600090505b919050565b610a8b610edc565b6000602867ffffffffffffffff811115610aa857610aa761136f565b5b604051908082528060200260200182016040528015610ad65781602001602082028036833780820191505090505b50905060005b6028811015610b13576000828281518110610afa57610af96118e5565b5b6020026020010181815250508080600101915050610adc565b506000604051806101000160405280868152602001600015158152602001838152602001858152602001600081526020016000151581526020016000815260200160008152509050600085905060606000610b6c61069e565b905060005b60288111610e5057816000016000858152602001908152602001600020805480602002602001604051908101604052809291908181526020018280548015610bd857602002820191906000526020600020905b815481526020019060010190808311610bc4575b505050505092506000610bea84610a07565b9050600480811115610bff57610bfe6118b6565b5b816004811115610c1257610c116118b6565b5b03610c1d5750610e50565b60026004811115610c3157610c306118b6565b5b816004811115610c4457610c436118b6565b5b03610d08578884600081518110610c5e57610c5d6118e5565b5b602002602001015103610ca757600186602001901515908115158152505083600181518110610c9057610c8f6118e5565b5b602002602001015186608001818152505050610e50565b60018660a001901515908115158152505083600081518110610ccc57610ccb6118e5565b5b60200260200101518660c001818152505083600181518110610cf157610cf06118e5565b5b60200260200101518660e001818152505050610e50565b60016004811115610d1c57610d1b6118b6565b5b816004811115610d2f57610d2e6118b6565b5b03610e0a57600180838860600151901c1603610da75783600181518110610d5957610d586118e5565b5b6020026020010151945083600081518110610d7757610d766118e5565b5b602002602001015186604001518381518110610d9657610d956118e5565b5b602002602001018181525050610e05565b83600081518110610dbb57610dba6118e5565b5b6020026020010151945083600181518110610dd957610dd86118e5565b5b602002602001015186604001518381518110610df857610df76118e5565b5b6020026020010181815250505b610e3c565b6040517f740148ad00000000000000000000000000000000000000000000000000000000815260040160405180910390fd5b508080610e4890611ad5565b915050610b71565b50839550505050505092915050565b6040518060400160405280610e72610f25565b8152602001610e7f610edc565b81525090565b610e8d611b1d565b565b828054828255906000526020600020908101928215610ecb579160200282015b82811115610eca578251825591602001919060010190610eaf565b5b509050610ed89190610f4d565b5090565b6040518061010001604052806000815260200160001515815260200160608152602001600081526020016000815260200160001515815260200160008152602001600081525090565b6040518060800160405280600081526020016000815260200160008152602001600081525090565b5b80821115610f66576000816000905550600101610f4e565b5090565b6000604051905090565b600080fd5b600080fd5b6000819050919050565b610f9181610f7e565b8114610f9c57600080fd5b50565b600081359050610fae81610f88565b92915050565b600067ffffffffffffffff82169050919050565b610fd181610fb4565b8114610fdc57600080fd5b50565b600081359050610fee81610fc8565b92915050565b6000806040838503121561100b5761100a610f74565b5b600061101985828601610f9f565b925050602061102a85828601610fdf565b9150509250929050565b61103d81610f7e565b82525050565b6080820160008201516110596000850182611034565b50602082015161106c6020850182611034565b50604082015161107f6040850182611034565b5060608201516110926060850182611034565b50505050565b60008115159050919050565b6110ad81611098565b82525050565b600081519050919050565b600082825260208201905092915050565b6000819050602082019050919050565b60006110eb8383611034565b60208301905092915050565b6000602082019050919050565b600061110f826110b3565b61111981856110be565b9350611124836110cf565b8060005b8381101561115557815161113c88826110df565b9750611147836110f7565b925050600181019050611128565b5085935050505092915050565b60006101008301600083015161117b6000860182611034565b50602083015161118e60208601826110a4565b50604083015184820360408601526111a68282611104565b91505060608301516111bb6060860182611034565b5060808301516111ce6080860182611034565b5060a08301516111e160a08601826110a4565b5060c08301516111f460c0860182611034565b5060e083015161120760e0860182611034565b508091505092915050565b600060a08301600083015161122a6000860182611043565b50602083015184820360808601526112428282611162565b9150508091505092915050565b600060208201905081810360008301526112698184611212565b905092915050565b60006020828403121561128757611286610f74565b5b600061129584828501610f9f565b91505092915050565b600082825260208201905092915050565b60006112ba826110b3565b6112c4818561129e565b93506112cf836110cf565b8060005b838110156113005781516112e788826110df565b97506112f2836110f7565b9250506001810190506112d3565b5085935050505092915050565b6000602082019050818103600083015261132781846112af565b905092915050565b61133881610f7e565b82525050565b6000602082019050611353600083018461132f565b92915050565b600080fd5b6000601f19601f8301169050919050565b7f4e487b7100000000000000000000000000000000000000000000000000000000600052604160045260246000fd5b6113a78261135e565b810181811067ffffffffffffffff821117156113c6576113c561136f565b5b80604052505050565b60006113d9610f6a565b90506113e5828261139e565b919050565b600067ffffffffffffffff8211156114055761140461136f565b5b602082029050602081019050919050565b600080fd5b600067ffffffffffffffff8211156114365761143561136f565b5b602082029050602081019050919050565b600061145a6114558461141b565b6113cf565b9050808382526020820190506020840283018581111561147d5761147c611416565b5b835b818110156114a657806114928882610f9f565b84526020840193505060208101905061147f565b5050509392505050565b600082601f8301126114c5576114c4611359565b5b81356114d5848260208601611447565b91505092915050565b60006114f16114ec846113ea565b6113cf565b9050808382526020820190506020840283018581111561151457611513611416565b5b835b8181101561155b57803567ffffffffffffffff81111561153957611538611359565b5b80860161154689826114b0565b85526020850194505050602081019050611516565b5050509392505050565b600082601f83011261157a57611579611359565b5b813561158a8482602086016114de565b91505092915050565b6000602082840312156115a9576115a8610f74565b5b600082013567ffffffffffffffff8111156115c7576115c6610f79565b5b6115d384828501611565565b91505092915050565b6000806000606084860312156115f5576115f4610f74565b5b600061160386828701610f9f565b935050602061161486828701610f9f565b925050604061162586828701610fdf565b9150509250925092565b600073ffffffffffffffffffffffffffffffffffffffff82169050919050565b600061165a8261162f565b9050919050565b61166a8161164f565b811461167557600080fd5b50565b60008135905061168781611661565b92915050565b6000602082840312156116a3576116a2610f74565b5b60006116b184828501611678565b91505092915050565b600081519050919050565b600082825260208201905092915050565b60005b838110156116f45780820151818401526020810190506116d9565b60008484015250505050565b600061170b826116ba565b61171581856116c5565b93506117258185602086016116d6565b61172e8161135e565b840191505092915050565b600060208201905081810360008301526117538184611700565b905092915050565b600080fd5b60008151905061176f81610f88565b92915050565b600060e0828403121561178b5761178a61175b565b5b61179560e06113cf565b905060006117a584828501611760565b60008301525060206117b984828501611760565b60208301525060406117cd84828501611760565b60408301525060606117e184828501611760565b60608301525060806117f584828501611760565b60808301525060a061180984828501611760565b60a08301525060c061181d84828501611760565b60c08301525092915050565b600060e0828403121561183f5761183e610f74565b5b600061184d84828501611775565b91505092915050565b6000819050919050565b6000819050919050565b600061188561188061187b84611856565b611860565b610fb4565b9050919050565b6118958161186a565b82525050565b60006020820190506118b0600083018461188c565b92915050565b7f4e487b7100000000000000000000000000000000000000000000000000000000600052602160045260246000fd5b7f4e487b7100000000000000000000000000000000000000000000000000000000600052603260045260246000fd5b600060029050919050565b600081905092915050565b6000819050919050565b61193d81610f7e565b82525050565b600061194f8383611934565b60208301905092915050565b6000602082019050919050565b61197181611914565b61197b818461191f565b92506119868261192a565b8060005b838110156119b757815161199e8782611943565b96506119a98361195b565b92505060018101905061198a565b505050505050565b60006040820190506119d46000830184611968565b92915050565b6000602082840312156119f0576119ef610f74565b5b60006119fe84828501611760565b91505092915050565b600060039050919050565b600081905092915050565b6000819050919050565b6000602082019050919050565b611a3d81611a07565b611a478184611a12565b9250611a5282611a1d565b8060005b83811015611a83578151611a6a8782611943565b9650611a7583611a27565b925050600181019050611a56565b505050505050565b6000606082019050611aa06000830184611a34565b92915050565b7f4e487b7100000000000000000000000000000000000000000000000000000000600052601160045260246000fd5b6000611ae082610f7e565b91507fffffffffffffffffffffffffffffffffffffffffffffffffffffffffffffffff8203611b1257611b11611aa6565b5b600182019050919050565b7f4e487b7100000000000000000000000000000000000000000000000000000000600052605160045260246000fdfea26469706673582212203f46f68e7f25f9ea515a9d760555a93464b01052f6a13c2349cfdb2e1d95a1e864736f6c634300081b0033",
  "linkReferences": {
    "contracts/lib/Poseidon.sol": {
      "PoseidonUnit2L": [
        {
          "length": 20,
          "start": 2101
        }
      ],
      "PoseidonUnit3L": [
        {
          "length": 20,
          "start": 2311
        }
      ]
    }
  },
  "deployedLinkReferences": {
    "contracts/lib/Poseidon.sol": {
      "PoseidonUnit2L": [
        {
          "length": 20,
          "start": 2070
        }
      ],
      "PoseidonUnit3L": [
        {
          "length": 20,
          "start": 2280
        }
      ]
    }
  }
}