{
  "_format": "hh-sol-artifact-1",
  "contractName": "Groth16VerifierAuthV2Wrapper",
  "sourceName": "contracts/lib/groth16-verifiers/Groth16VerifierAuthV2Wrapper.sol",
  "abi": [
    {
      "inputs": [
        {
          "internalType": "uint256",
          "name": "expected",
          "type": "uint256"
        },
        {
          "internalType": "uint256",
          "name": "actual",
          "type": "uint256"
        }
      ],
      "name": "ExpectedArrayLenght",
      "type": "error"
    },
    {
      "inputs": [
        {
          "internalType": "uint256[2]",
          "name": "a",
          "type": "uint256[2]"
        },
        {
          "internalType": "uint256[2][2]",
          "name": "b",
          "type": "uint256[2][2]"
        },
        {
          "internalType": "uint256[2]",
          "name": "c",
          "type": "uint256[2]"
        },
        {
          "internalType": "uint256[]",
          "name": "signals",
          "type": "uint256[]"
        }
      ],
      "name": "verify",
      "outputs": [
        {
          "internalType": "bool",
          "name": "r",
          "type": "bool"
        }
      ],
      "stateMutability": "view",
      "type": "function"
    },
    {
      "inputs": [
        {
          "internalType": "uint256[2]",
          "name": "_pA",
          "type": "uint256[2]"
        },
        {
          "internalType": "uint256[2][2]",
          "name": "_pB",
          "type": "uint256[2][2]"
        },
        {
          "internalType": "uint256[2]",
          "name": "_pC",
          "type": "uint256[2]"
        },
        {
          "internalType": "uint256[3]",
          "name": "_pubSignals",
          "type": "uint256[3]"
        }
      ],
      "name": "verifyProof",
      "outputs": [
        {
          "internalType": "bool",
          "name": "",
          "type": "bool"
        }
      ],
      "stateMutability": "view",
      "type": "function"
    }
  ],
  "bytecode": "0x6080604052348015600f57600080fd5b50610bcf8061001f6000396000f3fe608060405234801561001057600080fd5b50600436106100365760003560e01c806311479fea1461003b5780632612907c1461006b575b600080fd5b6100556004803603810190610050919061077c565b61009b565b6040516100629190610800565b60405180910390f35b6100856004803603810190610080919061087b565b6105b1565b6040516100929190610800565b60405180910390f35b6000610568565b7f30644e72e131a029b85045b68181585d97816a916871ca8d3c208c16d87cfd4781106100d3576000805260206000f35b50565b600060405183815284602082015285604082015260408160608360076107d05a03fa915081610109576000805260206000f35b825160408201526020830151606082015260408360808360066107d05a03fa915081610139576000805260206000f35b505050505050565b600060808601600087017f1b61d7012e903d30b7b4355d4a937c8d7faa3b156a4a516c7f3aa65cb18276b681527f1dbfc0ea3cd05fb03d2f014d47e5af0cc6ff827d9aa26a0050b074011c084bd060208201526101e460008801357f0e19c9f13ead78a46b008e41a868c97e4cf306be926de9d5a4ffe696fa638a9b7f034d53e43b2e1f80dd2fc2c3382b773c26bda2816f21687bcd20303ef7b7c828846100d6565b61023460208801357f0c449a1d1f902f465e44e3cb2870217dcb21ca0fddc0601ad22903c148cb95047f27605e939e15c77b6284936afef2653520ccfa12e7b8dfdb9b870de6d8d3b613846100d6565b61028460408801357f221797a3f442bfa3a710f1f296f2ab9fcbc3f45d868d9cd1dbc139a3644cf6db7f1ea0ace7c506dac934c2d67d8f8817dc0cf7fd3b67c36daa94e82845547f10b2846100d6565b833582527f30644e72e131a029b85045b68181585d97816a916871ca8d3c208c16d87cfd4760208501357f30644e72e131a029b85045b68181585d97816a916871ca8d3c208c16d87cfd4703066020830152843560408301526020850135606083015260408501356080830152606085013560a08301527f2d4d9aa7e302d9df41749d5507949d05dbea33fbb16c643b22f599a2be6df2e260c08301527f14bedd503c37ceb061d8ec60209fe345ce89830a19230301f076caff004d192660e08301527f0967032fcbf776d1afc985f88877f182d38480a653f2decaa9794cbc3bf3060c6101008301527f0e187847ad4c798374d0d6732bf501847dd68bc0e071241e0213bc7fc13db7ab6101208301527f304cfbd1e08a704a99f5e847d93f8c3caafddec46b7a0d379da69a4d112346a76101408301527f1739c1b1a457a8c7313123d24d2f9192f896b7c63eea05a9d57f06547ad0cec8610160830152600088015161018083015260206000018801516101a08301527f198e9393920d483a7260bfb731fb5d25f1aa493335a9e71297e485b7aef312c26101c08301527f1800deef121f1e76426a00665e5c4479674322d4f75edadd46debd5cd992f6ed6101e08301527f090689d0585ff075ec9e99ad690c3395bc4b313370b38ef355acdadcd122975b6102008301527f12c85ea5db8c6deb4aab71808dcb408fe3d1e7690c43d37b4ce6cc0166fa7daa610220830152853561024083015260208601356102608301527f1d98a766c49db67927331a18e06b7b390348a34f0fa336c6a3ccbe47f3ff83c26102808301527f233a653f5dd9a3dc1d93a26625e091be7539a6fc9c5f46d1aa4ff8035c8ce20c6102a08301527f1d31f027cea809f68aba56dcd33f0590f6d9e44ed473e298b907f7e2300e14686102c08301527f135db44633007a0a09f300ee799c1b44704b47a6ad70af456e4fd79a46432bb06102e08301526020826103008460086107d05a03fa82518116935050505095945050505050565b604051610380810160405261058060008401356100a2565b61058d60208401356100a2565b61059a60408401356100a2565b6105a7818486888a610141565b8060005260206000f35b60006105bb6106e5565b60038484905014610609576003848490506040517f2037956000000000000000000000000000000000000000000000000000000000815260040161060092919061091e565b60405180910390fd5b60005b60038110156106585784848281811061062857610627610947565b5b9050602002013582826003811061064257610641610947565b5b602002018181525050808060010191505061060c565b503073ffffffffffffffffffffffffffffffffffffffff166311479fea888888856040518563ffffffff1660e01b81526004016106989493929190610af9565b602060405180830381865afa1580156106b5573d6000803e3d6000fd5b505050506040513d601f19601f820116820180604052508101906106d99190610b6c565b91505095945050505050565b6040518060600160405280600390602082028036833780820191505090505090565b600080fd5b600080fd5b600080fd5b60008190508260206002028201111561073257610731610711565b5b92915050565b60008190508260406002028201111561075457610753610711565b5b92915050565b60008190508260206003028201111561077657610775610711565b5b92915050565b600080600080610160858703121561079757610796610707565b5b60006107a587828801610716565b94505060406107b687828801610738565b93505060c06107c787828801610716565b9250506101006107d98782880161075a565b91505092959194509250565b60008115159050919050565b6107fa816107e5565b82525050565b600060208201905061081560008301846107f1565b92915050565b600080fd5b600080fd5b60008083601f84011261083b5761083a61081b565b5b8235905067ffffffffffffffff81111561085857610857610820565b5b60208301915083602082028301111561087457610873610711565b5b9250929050565b6000806000806000610120868803121561089857610897610707565b5b60006108a688828901610716565b95505060406108b788828901610738565b94505060c06108c888828901610716565b93505061010086013567ffffffffffffffff8111156108ea576108e961070c565b5b6108f688828901610825565b92509250509295509295909350565b6000819050919050565b61091881610905565b82525050565b6000604082019050610933600083018561090f565b610940602083018461090f565b9392505050565b7f4e487b7100000000000000000000000000000000000000000000000000000000600052603260045260246000fd5b82818337505050565b61098b60408383610976565b5050565b600060029050919050565b600081905092915050565b6000819050919050565b6109bb60408383610976565b5050565b60006109cb83836109af565b60408301905092915050565b600082905092915050565b6000604082019050919050565b6109f88161098f565b610a02818461099a565b9250610a0d826109a5565b8060005b83811015610a4657610a2382846109d7565b610a2d87826109bf565b9650610a38836109e2565b925050600181019050610a11565b505050505050565b600060039050919050565b600081905092915050565b6000819050919050565b610a7781610905565b82525050565b6000610a898383610a6e565b60208301905092915050565b6000602082019050919050565b610aab81610a4e565b610ab58184610a59565b9250610ac082610a64565b8060005b83811015610af1578151610ad88782610a7d565b9650610ae383610a95565b925050600181019050610ac4565b505050505050565b600061016082019050610b0f600083018761097f565b610b1c60408301866109ef565b610b2960c083018561097f565b610b37610100830184610aa2565b95945050505050565b610b49816107e5565b8114610b5457600080fd5b50565b600081519050610b6681610b40565b92915050565b600060208284031215610b8257610b81610707565b5b6000610b9084828501610b57565b9150509291505056fea2646970667358221220c063a21f4aad974d5231cff96310e1ae79e33b532bb9ba3fec84681e813cfcc064736f6c634300081b0033",
  "linkReferences": {},
  "deployedLinkReferences": {}
}